{
  "contractName": "Ballot",
  "abi": [
    {
      "inputs": [
        {
          "internalType": "contract TVTBToken",
          "name": "token",
          "type": "address"
        }
      ],
      "stateMutability": "nonpayable",
      "type": "constructor"
    },
    {
      "inputs": [
        {
          "internalType": "uint256",
          "name": "endDateTime",
          "type": "uint256"
        }
      ],
      "name": "BallotAlreadyFinished",
      "type": "error"
    },
    {
      "inputs": [],
      "name": "BallotAlreadyVoted",
      "type": "error"
    },
    {
      "inputs": [
        {
          "internalType": "uint256",
          "name": "endDateTime",
          "type": "uint256"
        }
      ],
      "name": "BallotHasNotFinished",
      "type": "error"
    },
    {
      "inputs": [
        {
          "internalType": "uint256",
          "name": "startDateTime",
          "type": "uint256"
        }
      ],
      "name": "BallotHasNotStarted",
      "type": "error"
    },
    {
      "inputs": [],
      "name": "BallotNotAuthorize",
      "type": "error"
    },
    {
      "inputs": [],
      "name": "close",
      "outputs": [],
      "stateMutability": "nonpayable",
      "type": "function"
    },
    {
      "inputs": [
        {
          "internalType": "string",
          "name": "url",
          "type": "string"
        },
        {
          "internalType": "uint256",
          "name": "startDateTime",
          "type": "uint256"
        },
        {
          "internalType": "uint256",
          "name": "endDateTime",
          "type": "uint256"
        }
      ],
      "name": "createPoll",
      "outputs": [],
      "stateMutability": "nonpayable",
      "type": "function"
    },
    {
      "inputs": [],
      "name": "getAll",
      "outputs": [
        {
          "components": [
            {
              "internalType": "string",
              "name": "url",
              "type": "string"
            },
            {
              "internalType": "uint256",
              "name": "startDateTime",
              "type": "uint256"
            },
            {
              "internalType": "uint256",
              "name": "endDateTime",
              "type": "uint256"
            },
            {
              "internalType": "address[]",
              "name": "approvers",
              "type": "address[]"
            },
            {
              "internalType": "uint256",
              "name": "totalNumberOfVoters",
              "type": "uint256"
            }
          ],
          "internalType": "struct Ballot.Poll[]",
          "name": "",
          "type": "tuple[]"
        }
      ],
      "stateMutability": "view",
      "type": "function",
      "constant": true
    },
    {
      "inputs": [],
      "name": "getLast",
      "outputs": [
        {
          "components": [
            {
              "internalType": "string",
              "name": "url",
              "type": "string"
            },
            {
              "internalType": "uint256",
              "name": "startDateTime",
              "type": "uint256"
            },
            {
              "internalType": "uint256",
              "name": "endDateTime",
              "type": "uint256"
            },
            {
              "internalType": "address[]",
              "name": "approvers",
              "type": "address[]"
            },
            {
              "internalType": "uint256",
              "name": "totalNumberOfVoters",
              "type": "uint256"
            }
          ],
          "internalType": "struct Ballot.Poll",
          "name": "",
          "type": "tuple"
        }
      ],
      "stateMutability": "view",
      "type": "function",
      "constant": true
    },
    {
      "inputs": [],
      "name": "getToken",
      "outputs": [
        {
          "internalType": "contract TVTBToken",
          "name": "",
          "type": "address"
        }
      ],
      "stateMutability": "view",
      "type": "function",
      "constant": true
    },
    {
      "inputs": [],
      "name": "vote",
      "outputs": [],
      "stateMutability": "nonpayable",
      "type": "function"
    }
  ],
  "bytecode": "0x608060405234801561001057600080fd5b50604051610ca3380380610ca383398101604081905261002f91610054565b600180546001600160a01b0319166001600160a01b0392909216919091179055610084565b60006020828403121561006657600080fd5b81516001600160a01b038116811461007d57600080fd5b9392505050565b610c10806100936000396000f3fe608060405234801561001057600080fd5b50600436106100625760003560e01c806321df0da71461006757806343d726d6146100875780634d622831146100915780634d9976e7146100a657806353ed5143146100b9578063632a9a52146100ce575b600080fd5b6001546040516001600160a01b0390911681526020015b60405180910390f35b61008f6100d6565b005b610099610118565b60405161007e9190610b11565b61008f6100b43660046108f6565b61029a565b6100c1610367565b60405161007e9190610aaf565b61008f6104d8565b6000805481906100e890600190610b2b565b815481106100f8576100f8610bae565b90600052602060002090600502019050610110610680565b600490910155565b61014a6040518060a0016040528060608152602001600081526020016000815260200160608152602001600081525090565b6000805461015a90600190610b2b565b8154811061016a5761016a610bae565b90600052602060002090600502016040518060a001604052908160008201805461019390610b42565b80601f01602080910402602001604051908101604052809291908181526020018280546101bf90610b42565b801561020c5780601f106101e15761010080835404028352916020019161020c565b820191906000526020600020905b8154815290600101906020018083116101ef57829003601f168201915b5050505050815260200160018201548152602001600282015481526020016003820180548060200260200160405190810160405280929190818152602001828054801561028257602002820191906000526020600020905b81546001600160a01b03168152600190910190602001808311610264575b50505050508152602001600482015481525050905090565b6102cc6040518060a0016040528060608152602001600081526020016000815260200160608152602001600081525090565b6040810182905260208082018490528482526000805460018101825590805282518051849360059093027f290decd9548b62a8d60345a988386fc84ba6bc95484008f6362f93160ef3e5630192610327928492910190610808565b5060208281015160018301556040830151600283015560608301518051610354926003850192019061088c565b5060808201518160040155505050505050565b60606000805480602002602001604051908101604052809291908181526020016000905b828210156104cf57838290600052602060002090600502016040518060a00160405290816000820180546103be90610b42565b80601f01602080910402602001604051908101604052809291908181526020018280546103ea90610b42565b80156104375780601f1061040c57610100808354040283529160200191610437565b820191906000526020600020905b81548152906001019060200180831161041a57829003601f168201915b505050505081526020016001820154815260200160028201548152602001600382018054806020026020016040519081016040528092919081815260200182805480156104ad57602002820191906000526020600020905b81546001600160a01b0316815260019091019060200180831161048f575b505050505081526020016004820154815250508152602001906001019061038b565b50505050905090565b6000805433919081906104ed90600190610b2b565b815481106104fd576104fd610bae565b906000526020600020906005020190504281600101541115610543578060010154604051631dfb311160e21b815260040161053a91815260200190565b60405180910390fd5b4281600201541015610570578060020154604051630332c76360e41b815260040161053a91815260200190565b61057982610709565b610596576040516337be250960e01b815260040160405180910390fd5b6105fc816003018054806020026020016040519081016040528092919081815260200182805480156105f157602002820191906000526020600020905b81546001600160a01b031681526001909101906020018083116105d3575b5050505050836107a0565b1561061a576040516374b0feeb60e01b815260040160405180910390fd5b6000805461062a90600190610b2b565b8154811061063a5761063a610bae565b60009182526020808320600592909202909101600301805460018101825590835291200180546001600160a01b0319166001600160a01b03939093169290921790915550565b60006106946001546001600160a01b031690565b6001600160a01b031663f2c9ecd86040518163ffffffff1660e01b815260040160206040518083038186803b1580156106cc57600080fd5b505afa1580156106e0573d6000803e3d6000fd5b505050506040513d601f19601f8201168201806040525081019061070491906109ba565b905090565b60008061071e6001546001600160a01b031690565b6040516370a0823160e01b81526001600160a01b03858116600483015291909116906370a082319060240160206040518083038186803b15801561076157600080fd5b505afa158015610775573d6000803e3d6000fd5b505050506040513d601f19601f8201168201806040525081019061079991906109ba565b1192915050565b6000805b83518110156107fc57826001600160a01b03168482815181106107c9576107c9610bae565b60200260200101516001600160a01b031614156107ea576001915050610802565b806107f481610b7d565b9150506107a4565b50600090505b92915050565b82805461081490610b42565b90600052602060002090601f016020900481019282610836576000855561087c565b82601f1061084f57805160ff191683800117855561087c565b8280016001018555821561087c579182015b8281111561087c578251825591602001919060010190610861565b506108889291506108e1565b5090565b82805482825590600052602060002090810192821561087c579160200282015b8281111561087c57825182546001600160a01b0319166001600160a01b039091161782556020909201916001909101906108ac565b5b8082111561088857600081556001016108e2565b60008060006060848603121561090b57600080fd5b833567ffffffffffffffff8082111561092357600080fd5b818601915086601f83011261093757600080fd5b81358181111561094957610949610bc4565b604051601f8201601f19908116603f0116810190838211818310171561097157610971610bc4565b8160405282815289602084870101111561098a57600080fd5b82602086016020830137600060208483010152809750505050505060208401359150604084013590509250925092565b6000602082840312156109cc57600080fd5b5051919050565b600081518084526020808501945080840160005b83811015610a0c5781516001600160a01b0316875295820195908201906001016109e7565b509495945050505050565b6000815160a0845280518060a086015260005b81811015610a4757602081840181015160c0888401015201610a2a565b81811115610a5957600060c083880101525b50601f19601f82011685019150506020830151602085015260408301516040850152606083015160c0858303016060860152610a9860c08301826109d3565b915050608083015160808501528091505092915050565b6000602080830181845280855180835260408601915060408160051b870101925083870160005b82811015610b0457603f19888603018452610af2858351610a17565b94509285019290850190600101610ad6565b5092979650505050505050565b602081526000610b246020830184610a17565b9392505050565b600082821015610b3d57610b3d610b98565b500390565b600181811c90821680610b5657607f821691505b60208210811415610b7757634e487b7160e01b600052602260045260246000fd5b50919050565b6000600019821415610b9157610b91610b98565b5060010190565b634e487b7160e01b600052601160045260246000fd5b634e487b7160e01b600052603260045260246000fd5b634e487b7160e01b600052604160045260246000fdfea2646970667358221220fd5b529da61cf9dad8ed6a63fe23ad8f63fad8d24b2c48abb13cc681b51bad8964736f6c63430008070033",
  "immutableReferences": {},
  "source": "// SPDX-License-Identifier: MIT\npragma solidity 0.8.7;\n\nimport \"@openzeppelin/contracts/utils/Context.sol\";\n\nimport \"./TVTB/TVTBToken.sol\";\n\n/**\n * @title Ballot\n * @dev It's a basic contract for ballot\n */\ncontract Ballot is Context {\n    struct Poll {\n        string url;\n        uint256 startDateTime;\n        uint256 endDateTime;\n        address[] approvers;\n        uint256 totalNumberOfVoters;\n    }\n\n    Poll[] private _polls;\n\n    TVTBToken private _token;\n\n    error BallotAlreadyFinished(uint256 endDateTime);\n    error BallotAlreadyVoted();\n    error BallotHasNotFinished(uint256 endDateTime);\n    error BallotHasNotStarted(uint256 startDateTime);\n    error BallotNotAuthorize();\n\n    constructor(TVTBToken token) {\n        _token = token;\n    }\n\n    function close() external {\n        Poll storage poll = _polls[_polls.length - 1];\n\n        // if (poll.endDateTime > block.timestamp) {\n        //     revert BallotHasNotFinished(poll.endDateTime)\n        // }\n\n        poll.totalNumberOfVoters = _getNumber();\n    }\n\n    function createPoll(\n        string memory url,\n        uint256 startDateTime,\n        uint256 endDateTime\n    ) external {\n        Poll memory poll;\n\n        poll.endDateTime = endDateTime;\n        poll.startDateTime = startDateTime;\n        poll.url = url;\n\n        _polls.push(poll);\n    }\n\n    function getAll() external view returns (Poll[] memory) {\n        return _polls;\n    }\n\n    function getLast() external view returns (Poll memory) {\n        return _polls[_polls.length - 1];\n    }\n\n    /**\n     * @return the token being sold.\n     */\n    function getToken() public view returns (TVTBToken) {\n        return TVTBToken(address(_token));\n    }\n\n    function vote() external {\n        address voter = _msgSender();\n\n        Poll storage poll = _polls[_polls.length - 1];\n\n        if (poll.startDateTime > block.timestamp) {\n            revert BallotHasNotStarted(poll.startDateTime);\n        }\n\n        if (poll.endDateTime < block.timestamp) {\n            revert BallotAlreadyFinished(poll.endDateTime);\n        }\n\n        if (!_hasToken(voter)) {\n            revert BallotNotAuthorize();\n        }\n\n        if (_isVoted(poll.approvers, voter)) {\n            revert BallotAlreadyVoted();\n        }\n\n        _polls[_polls.length - 1].approvers.push(voter);\n    }\n\n    function _getNumber() private view returns (uint256) {\n        return getToken().getNumber();\n    }\n\n    function _isVoted(address[] memory approvers, address voter)\n        private\n        pure\n        returns (bool)\n    {\n        for (uint256 i = 0; i < approvers.length; i++) {\n            if (approvers[i] == voter) {\n                return true;\n            }\n        }\n\n        return false;\n    }\n\n    function _hasToken(address voter) private view returns (bool) {\n        return getToken().balanceOf(voter) > 0;\n    }\n}\n",
  "sourcePath": "/Users/ievgencherkaskyi/Projects/tivan/launchpool/contracts/Ballot.sol",
  "compiler": {
    "name": "solc",
    "version": "0.8.7+commit.e28d00a7.Emscripten.clang"
  },
  "schemaVersion": "3.4.7",
  "updatedAt": "2022-06-14T22:02:50.879Z",
  "networkType": "ethereum",
  "devdoc": {
    "details": "It's a basic contract for ballot",
    "kind": "dev",
    "methods": {
      "getToken()": {
        "returns": {
          "_0": "the token being sold."
        }
      }
    },
    "title": "Ballot",
    "version": 1
  },
  "userdoc": {
    "kind": "user",
    "methods": {},
    "version": 1
  }
}