{
  "contractName": "BankAccount",
  "abi": [
    {
      "inputs": [
        {
          "internalType": "contract IERC20",
          "name": "token",
          "type": "address"
        }
      ],
      "stateMutability": "nonpayable",
      "type": "constructor"
    },
    {
      "inputs": [],
      "name": "getBalance",
      "outputs": [
        {
          "internalType": "uint256",
          "name": "",
          "type": "uint256"
        }
      ],
      "stateMutability": "view",
      "type": "function"
    },
    {
      "inputs": [],
      "name": "getToken",
      "outputs": [
        {
          "internalType": "contract IERC20",
          "name": "",
          "type": "address"
        }
      ],
      "stateMutability": "view",
      "type": "function"
    },
    {
      "inputs": [
        {
          "internalType": "address",
          "name": "to",
          "type": "address"
        },
        {
          "internalType": "uint256",
          "name": "amount",
          "type": "uint256"
        }
      ],
      "name": "transferFrom",
      "outputs": [
        {
          "internalType": "bool",
          "name": "",
          "type": "bool"
        }
      ],
      "stateMutability": "nonpayable",
      "type": "function"
    },
    {
      "inputs": [
        {
          "internalType": "uint256",
          "name": "amount",
          "type": "uint256"
        }
      ],
      "name": "transferTo",
      "outputs": [
        {
          "internalType": "bool",
          "name": "",
          "type": "bool"
        }
      ],
      "stateMutability": "nonpayable",
      "type": "function"
    }
  ],
  "bytecode": "0x608060405234801561001057600080fd5b5060405161037b38038061037b83398101604081905261002f91610054565b600080546001600160a01b0319166001600160a01b0392909216919091179055610084565b60006020828403121561006657600080fd5b81516001600160a01b038116811461007d57600080fd5b9392505050565b6102e8806100936000396000f3fe608060405234801561001057600080fd5b506004361061004c5760003560e01c806301c6adc31461005157806312065fe01461007957806321df0da71461008f578063ba0f49b7146100aa575b600080fd5b61006461005f366004610226565b6100bd565b60405190151581526020015b60405180910390f35b61008161014b565b604051908152602001610070565b6000546040516001600160a01b039091168152602001610070565b6100646100b8366004610280565b6101cc565b6000805460405163a9059cbb60e01b81526001600160a01b038581166004830152602482018590529091169063a9059cbb90604401602060405180830381600087803b15801561010c57600080fd5b505af1158015610120573d6000803e3d6000fd5b505050506040513d601f19601f82011682018060405250810190610144919061025e565b9392505050565b600080546040516370a0823160e01b81523060048201526001600160a01b03909116906370a082319060240160206040518083038186803b15801561018f57600080fd5b505afa1580156101a3573d6000803e3d6000fd5b505050506040513d601f19601f820116820180604052508101906101c79190610299565b905090565b600080336000546040516323b872dd60e01b81526001600160a01b038084166004830152306024830152604482018790529293509116906323b872dd90606401602060405180830381600087803b15801561010c57600080fd5b6000806040838503121561023957600080fd5b82356001600160a01b038116811461025057600080fd5b946020939093013593505050565b60006020828403121561027057600080fd5b8151801515811461014457600080fd5b60006020828403121561029257600080fd5b5035919050565b6000602082840312156102ab57600080fd5b505191905056fea2646970667358221220023cfa55903bfdd89aa28b15b3aa4ba69318eba91403c2c8d1077316245c2f4364736f6c63430008070033",
  "immutableReferences": {},
  "source": "// SPDX-License-Identifier: MIT\npragma solidity 0.8.7;\n\nimport \"@openzeppelin/contracts/utils/Context.sol\";\n\nimport \"./IBankAccount.sol\";\n\ncontract BankAccount is Context, IBankAccount {\n    IERC20 internal _token;\n\n    constructor(IERC20 token) {\n        _token = token;\n    }\n\n    function getBalance() public view override returns (uint256) {\n        return _token.balanceOf(address(this));\n    }\n\n    function getToken() external view override returns (IERC20) {\n        return _token;\n    }\n\n    function transferFrom(address to, uint256 amount)\n        public\n        virtual\n        override\n        returns (bool)\n    {\n        return _token.transfer(to, amount);\n    }\n\n    function transferTo(uint256 amount) public virtual override returns (bool) {\n        address from = _msgSender();\n\n        return _token.transferFrom(from, address(this), amount);\n    }\n}\n",
  "sourcePath": "/Users/ievgencherkaskyi/Projects/tivan/launchpool/contracts/BankAccount.sol",
  "compiler": {
    "name": "solc",
    "version": "0.8.7+commit.e28d00a7.Emscripten.clang"
  },
  "schemaVersion": "3.4.7",
  "updatedAt": "2022-06-13T07:39:59.725Z",
  "devdoc": {
    "kind": "dev",
    "methods": {},
    "version": 1
  },
  "userdoc": {
    "kind": "user",
    "methods": {},
    "version": 1
  }
}