{
  "contractName": "Date",
  "abi": [
    {
      "inputs": [
        {
          "internalType": "uint256",
          "name": "datetime",
          "type": "uint256"
        }
      ],
      "name": "toDate",
      "outputs": [
        {
          "internalType": "uint256",
          "name": "",
          "type": "uint256"
        }
      ],
      "stateMutability": "pure",
      "type": "function",
      "constant": true
    }
  ],
  "bytecode": "0x61010761003a600b82828239805160001a60731461002d57634e487b7160e01b600052600060045260246000fd5b30600052607381538281f3fe730000000000000000000000000000000000000000301460806040526004361060335760003560e01c8063a11e22d9146038575b600080fd5b604760433660046074565b6059565b60405190815260200160405180910390f35b60006066620151808360b0565b606e9083608c565b92915050565b600060208284031215608557600080fd5b5035919050565b60008282101560ab57634e487b7160e01b600052601160045260246000fd5b500390565b60008260cc57634e487b7160e01b600052601260045260246000fd5b50069056fea26469706673582212205a9471a9c7acef705a2ee7878754a3876fc0164eb4fe8419ef51298f64918d8f64736f6c63430008070033",
  "immutableReferences": {},
  "source": "// SPDX-License-Identifier: MIT\npragma solidity 0.8.7;\n\nlibrary Date {\n    function toDate(uint256 datetime) external pure returns (uint256) {\n        return datetime - (datetime % 1 days);\n    }\n}\n",
  "sourcePath": "/Users/ievgencherkaskyi/Projects/tivan/launchpool/contracts/Date.sol",
  "compiler": {
    "name": "solc",
    "version": "0.8.7+commit.e28d00a7.Emscripten.clang"
  },
  "schemaVersion": "3.4.7",
  "updatedAt": "2022-06-12T05:07:12.647Z",
  "networkType": "ethereum",
  "devdoc": {
    "kind": "dev",
    "methods": {},
    "version": 1
  },
  "userdoc": {
    "kind": "user",
    "methods": {},
    "version": 1
  }
}