{
  "contractName": "Deposit",
  "abi": [
    {
      "inputs": [
        {
          "internalType": "contract ILaunchpool",
          "name": "launchpool",
          "type": "address"
        },
        {
          "internalType": "contract IBankAccount",
          "name": "treasury",
          "type": "address"
        },
        {
          "components": [
            {
              "internalType": "uint256",
              "name": "amountMaximum",
              "type": "uint256"
            },
            {
              "internalType": "uint256",
              "name": "amountMinimum",
              "type": "uint256"
            },
            {
              "internalType": "bool",
              "name": "isDepositable",
              "type": "bool"
            },
            {
              "internalType": "bool",
              "name": "isTerminatable",
              "type": "bool"
            },
            {
              "internalType": "uint256",
              "name": "periodMaximum",
              "type": "uint256"
            },
            {
              "internalType": "uint256",
              "name": "periodMinimum",
              "type": "uint256"
            },
            {
              "internalType": "string",
              "name": "program",
              "type": "string"
            },
            {
              "internalType": "uint8",
              "name": "rate",
              "type": "uint8"
            },
            {
              "internalType": "uint8",
              "name": "terminationPenalty",
              "type": "uint8"
            }
          ],
          "internalType": "struct BaseDeposit.ProgramParameters",
          "name": "parameters",
          "type": "tuple"
        }
      ],
      "stateMutability": "nonpayable",
      "type": "constructor"
    },
    {
      "inputs": [
        {
          "internalType": "uint256",
          "name": "amountMaximum",
          "type": "uint256"
        },
        {
          "internalType": "uint256",
          "name": "amount",
          "type": "uint256"
        }
      ],
      "name": "AmountMaximumConstraint",
      "type": "error"
    },
    {
      "inputs": [
        {
          "internalType": "uint256",
          "name": "amountMinimum",
          "type": "uint256"
        },
        {
          "internalType": "uint256",
          "name": "amount",
          "type": "uint256"
        }
      ],
      "name": "AmountMinimumConstraint",
      "type": "error"
    },
    {
      "inputs": [],
      "name": "DepositAlreadyWithdrawed",
      "type": "error"
    },
    {
      "inputs": [],
      "name": "DepositConstraint",
      "type": "error"
    },
    {
      "inputs": [
        {
          "internalType": "uint256",
          "name": "periodMinimumDateTime",
          "type": "uint256"
        }
      ],
      "name": "PeriodMinimumConstraint",
      "type": "error"
    },
    {
      "inputs": [],
      "name": "TerminationConstraint",
      "type": "error"
    },
    {
      "anonymous": false,
      "inputs": [
        {
          "indexed": true,
          "internalType": "address",
          "name": "previousOwner",
          "type": "address"
        },
        {
          "indexed": true,
          "internalType": "address",
          "name": "newOwner",
          "type": "address"
        }
      ],
      "name": "OwnershipTransferred",
      "type": "event"
    },
    {
      "anonymous": false,
      "inputs": [
        {
          "indexed": true,
          "internalType": "bytes32",
          "name": "role",
          "type": "bytes32"
        },
        {
          "indexed": true,
          "internalType": "bytes32",
          "name": "previousAdminRole",
          "type": "bytes32"
        },
        {
          "indexed": true,
          "internalType": "bytes32",
          "name": "newAdminRole",
          "type": "bytes32"
        }
      ],
      "name": "RoleAdminChanged",
      "type": "event"
    },
    {
      "anonymous": false,
      "inputs": [
        {
          "indexed": true,
          "internalType": "bytes32",
          "name": "role",
          "type": "bytes32"
        },
        {
          "indexed": true,
          "internalType": "address",
          "name": "account",
          "type": "address"
        },
        {
          "indexed": true,
          "internalType": "address",
          "name": "sender",
          "type": "address"
        }
      ],
      "name": "RoleGranted",
      "type": "event"
    },
    {
      "anonymous": false,
      "inputs": [
        {
          "indexed": true,
          "internalType": "bytes32",
          "name": "role",
          "type": "bytes32"
        },
        {
          "indexed": true,
          "internalType": "address",
          "name": "account",
          "type": "address"
        },
        {
          "indexed": true,
          "internalType": "address",
          "name": "sender",
          "type": "address"
        }
      ],
      "name": "RoleRevoked",
      "type": "event"
    },
    {
      "inputs": [],
      "name": "DEFAULT_ADMIN_ROLE",
      "outputs": [
        {
          "internalType": "bytes32",
          "name": "",
          "type": "bytes32"
        }
      ],
      "stateMutability": "view",
      "type": "function"
    },
    {
      "inputs": [],
      "name": "REWARD_ROLE",
      "outputs": [
        {
          "internalType": "bytes32",
          "name": "",
          "type": "bytes32"
        }
      ],
      "stateMutability": "view",
      "type": "function"
    },
    {
      "inputs": [
        {
          "internalType": "uint256",
          "name": "date",
          "type": "uint256"
        }
      ],
      "name": "_getDepositedAmountOnDate",
      "outputs": [
        {
          "internalType": "uint256",
          "name": "",
          "type": "uint256"
        }
      ],
      "stateMutability": "view",
      "type": "function"
    },
    {
      "inputs": [],
      "name": "getBalance",
      "outputs": [
        {
          "internalType": "uint256",
          "name": "",
          "type": "uint256"
        }
      ],
      "stateMutability": "view",
      "type": "function"
    },
    {
      "inputs": [],
      "name": "getLaunchpool",
      "outputs": [
        {
          "internalType": "contract ILaunchpool",
          "name": "",
          "type": "address"
        }
      ],
      "stateMutability": "view",
      "type": "function"
    },
    {
      "inputs": [
        {
          "internalType": "bytes32",
          "name": "role",
          "type": "bytes32"
        }
      ],
      "name": "getRoleAdmin",
      "outputs": [
        {
          "internalType": "bytes32",
          "name": "",
          "type": "bytes32"
        }
      ],
      "stateMutability": "view",
      "type": "function"
    },
    {
      "inputs": [],
      "name": "getToken",
      "outputs": [
        {
          "internalType": "contract IERC20",
          "name": "",
          "type": "address"
        }
      ],
      "stateMutability": "view",
      "type": "function"
    },
    {
      "inputs": [],
      "name": "getTransactions",
      "outputs": [
        {
          "components": [
            {
              "internalType": "enum BaseDeposit.TransactionKind",
              "name": "kind",
              "type": "uint8"
            },
            {
              "internalType": "address",
              "name": "account",
              "type": "address"
            },
            {
              "internalType": "uint256",
              "name": "amount",
              "type": "uint256"
            },
            {
              "internalType": "uint256",
              "name": "created",
              "type": "uint256"
            },
            {
              "internalType": "uint256",
              "name": "payed",
              "type": "uint256"
            }
          ],
          "internalType": "struct BaseDeposit.Transaction[]",
          "name": "",
          "type": "tuple[]"
        }
      ],
      "stateMutability": "view",
      "type": "function"
    },
    {
      "inputs": [],
      "name": "getTreasury",
      "outputs": [
        {
          "internalType": "contract IBankAccount",
          "name": "",
          "type": "address"
        }
      ],
      "stateMutability": "view",
      "type": "function"
    },
    {
      "inputs": [
        {
          "internalType": "bytes32",
          "name": "role",
          "type": "bytes32"
        },
        {
          "internalType": "address",
          "name": "account",
          "type": "address"
        }
      ],
      "name": "grantRole",
      "outputs": [],
      "stateMutability": "nonpayable",
      "type": "function"
    },
    {
      "inputs": [
        {
          "internalType": "bytes32",
          "name": "role",
          "type": "bytes32"
        },
        {
          "internalType": "address",
          "name": "account",
          "type": "address"
        }
      ],
      "name": "hasRole",
      "outputs": [
        {
          "internalType": "bool",
          "name": "",
          "type": "bool"
        }
      ],
      "stateMutability": "view",
      "type": "function"
    },
    {
      "inputs": [],
      "name": "owner",
      "outputs": [
        {
          "internalType": "address",
          "name": "",
          "type": "address"
        }
      ],
      "stateMutability": "view",
      "type": "function"
    },
    {
      "inputs": [],
      "name": "renounceOwnership",
      "outputs": [],
      "stateMutability": "nonpayable",
      "type": "function"
    },
    {
      "inputs": [
        {
          "internalType": "bytes32",
          "name": "role",
          "type": "bytes32"
        },
        {
          "internalType": "address",
          "name": "account",
          "type": "address"
        }
      ],
      "name": "renounceRole",
      "outputs": [],
      "stateMutability": "nonpayable",
      "type": "function"
    },
    {
      "inputs": [
        {
          "internalType": "bytes32",
          "name": "role",
          "type": "bytes32"
        },
        {
          "internalType": "address",
          "name": "account",
          "type": "address"
        }
      ],
      "name": "revokeRole",
      "outputs": [],
      "stateMutability": "nonpayable",
      "type": "function"
    },
    {
      "inputs": [
        {
          "internalType": "uint256",
          "name": "amount",
          "type": "uint256"
        }
      ],
      "name": "reward",
      "outputs": [],
      "stateMutability": "nonpayable",
      "type": "function"
    },
    {
      "inputs": [
        {
          "internalType": "bytes4",
          "name": "interfaceId",
          "type": "bytes4"
        }
      ],
      "name": "supportsInterface",
      "outputs": [
        {
          "internalType": "bool",
          "name": "",
          "type": "bool"
        }
      ],
      "stateMutability": "view",
      "type": "function"
    },
    {
      "inputs": [
        {
          "internalType": "address",
          "name": "",
          "type": "address"
        },
        {
          "internalType": "uint256",
          "name": "",
          "type": "uint256"
        }
      ],
      "name": "transferFrom",
      "outputs": [
        {
          "internalType": "bool",
          "name": "",
          "type": "bool"
        }
      ],
      "stateMutability": "pure",
      "type": "function"
    },
    {
      "inputs": [
        {
          "internalType": "address",
          "name": "newOwner",
          "type": "address"
        }
      ],
      "name": "transferOwnership",
      "outputs": [],
      "stateMutability": "nonpayable",
      "type": "function"
    },
    {
      "inputs": [
        {
          "internalType": "uint256",
          "name": "",
          "type": "uint256"
        }
      ],
      "name": "transferTo",
      "outputs": [
        {
          "internalType": "bool",
          "name": "",
          "type": "bool"
        }
      ],
      "stateMutability": "pure",
      "type": "function"
    },
    {
      "inputs": [
        {
          "internalType": "uint256",
          "name": "amount",
          "type": "uint256"
        }
      ],
      "name": "deposit",
      "outputs": [],
      "stateMutability": "nonpayable",
      "type": "function"
    },
    {
      "inputs": [],
      "name": "isActive",
      "outputs": [
        {
          "internalType": "bool",
          "name": "",
          "type": "bool"
        }
      ],
      "stateMutability": "view",
      "type": "function"
    },
    {
      "inputs": [
        {
          "internalType": "uint256",
          "name": "date",
          "type": "uint256"
        }
      ],
      "name": "isActive",
      "outputs": [
        {
          "internalType": "bool",
          "name": "",
          "type": "bool"
        }
      ],
      "stateMutability": "view",
      "type": "function"
    },
    {
      "inputs": [
        {
          "internalType": "uint256",
          "name": "date",
          "type": "uint256"
        }
      ],
      "name": "getBaseToCalculateReward",
      "outputs": [
        {
          "internalType": "uint256",
          "name": "",
          "type": "uint256"
        }
      ],
      "stateMutability": "view",
      "type": "function"
    },
    {
      "inputs": [
        {
          "components": [
            {
              "internalType": "enum BaseDeposit.TransactionKind",
              "name": "kind",
              "type": "uint8"
            },
            {
              "internalType": "address",
              "name": "account",
              "type": "address"
            },
            {
              "internalType": "uint256",
              "name": "amount",
              "type": "uint256"
            },
            {
              "internalType": "uint256",
              "name": "created",
              "type": "uint256"
            },
            {
              "internalType": "uint256",
              "name": "payed",
              "type": "uint256"
            }
          ],
          "internalType": "struct BaseDeposit.Transaction[]",
          "name": "transactions",
          "type": "tuple[]"
        }
      ],
      "name": "getBeginDateTime",
      "outputs": [
        {
          "internalType": "uint256",
          "name": "",
          "type": "uint256"
        }
      ],
      "stateMutability": "pure",
      "type": "function"
    },
    {
      "inputs": [],
      "name": "getBeginDateTime",
      "outputs": [
        {
          "internalType": "uint256",
          "name": "",
          "type": "uint256"
        }
      ],
      "stateMutability": "view",
      "type": "function"
    },
    {
      "inputs": [],
      "name": "getParameters",
      "outputs": [
        {
          "components": [
            {
              "internalType": "uint256",
              "name": "amount",
              "type": "uint256"
            },
            {
              "internalType": "uint256",
              "name": "amountDeposit",
              "type": "uint256"
            },
            {
              "internalType": "uint256",
              "name": "amountMaximum",
              "type": "uint256"
            },
            {
              "internalType": "uint256",
              "name": "amountMinimum",
              "type": "uint256"
            },
            {
              "internalType": "uint256",
              "name": "amountReward",
              "type": "uint256"
            },
            {
              "internalType": "uint256",
              "name": "beginDateTime",
              "type": "uint256"
            },
            {
              "internalType": "bool",
              "name": "isActive",
              "type": "bool"
            },
            {
              "internalType": "bool",
              "name": "isDepositable",
              "type": "bool"
            },
            {
              "internalType": "bool",
              "name": "isTerminatable",
              "type": "bool"
            },
            {
              "internalType": "bool",
              "name": "isWithdrawable",
              "type": "bool"
            },
            {
              "internalType": "bool",
              "name": "isWithdrawed",
              "type": "bool"
            },
            {
              "internalType": "uint256",
              "name": "periodMaximum",
              "type": "uint256"
            },
            {
              "internalType": "uint256",
              "name": "periodMinimum",
              "type": "uint256"
            },
            {
              "internalType": "string",
              "name": "program",
              "type": "string"
            },
            {
              "internalType": "uint8",
              "name": "rate",
              "type": "uint8"
            },
            {
              "internalType": "uint8",
              "name": "terminationPenalty",
              "type": "uint8"
            }
          ],
          "internalType": "struct BaseDeposit.DepositParameters",
          "name": "",
          "type": "tuple"
        }
      ],
      "stateMutability": "view",
      "type": "function"
    },
    {
      "inputs": [],
      "name": "getPeriodMaximumDateTime",
      "outputs": [
        {
          "internalType": "uint256",
          "name": "",
          "type": "uint256"
        }
      ],
      "stateMutability": "view",
      "type": "function"
    },
    {
      "inputs": [],
      "name": "getPeriodMinimumDateTime",
      "outputs": [
        {
          "internalType": "uint256",
          "name": "",
          "type": "uint256"
        }
      ],
      "stateMutability": "view",
      "type": "function"
    },
    {
      "inputs": [],
      "name": "getProgram",
      "outputs": [
        {
          "internalType": "string",
          "name": "",
          "type": "string"
        }
      ],
      "stateMutability": "view",
      "type": "function"
    },
    {
      "inputs": [],
      "name": "getRate",
      "outputs": [
        {
          "internalType": "uint8",
          "name": "",
          "type": "uint8"
        }
      ],
      "stateMutability": "view",
      "type": "function"
    },
    {
      "inputs": [],
      "name": "withdraw",
      "outputs": [],
      "stateMutability": "nonpayable",
      "type": "function"
    }
  ],
  "bytecode": "0x60806040523480156200001157600080fd5b5060405162002b7738038062002b7783398101604081905262000034916200044d565b806060015181610100015182608001518360a001518460400151856000015186602001518989806001600160a01b03166321df0da76040518163ffffffff1660e01b815260040160206040518083038186803b1580156200009457600080fd5b505afa158015620000a9573d6000803e3d6000fd5b505050506040513d601f19601f82011682018060405250810190620000cf919062000426565b620000da33620001ea565b600280546001600160a01b03199081166001600160a01b03938416179091556003805482168584169081179091556005805490921692841692909217905562000126906000906200023a565b6003546200015f907fc002a6b5f9f56101ba6339b1b95d171fadf6e41e005b91c80d686aef7516e759906001600160a01b03166200023a565b50506006919091556007556008805460ff1916911515919091179055600991909155600a55600b805461ffff191692151561ff0019169290921761010060ff92909216919091021790556001600c5560c08101518051620001c991600d91602090910190620002c3565b5060e00151600e805460ff191660ff90921691909117905550620006319050565b600080546001600160a01b038381166001600160a01b0319831681178455604051919092169283917f8be0079c531659141344cd1fd0a4f28419497f9722a3daafe3b4186f6b6457e09190a35050565b60008281526001602090815260408083206001600160a01b038516845290915290205460ff16620002bf5760008281526001602081815260408084206001600160a01b0386168086529252808420805460ff19169093179092559051339285917f2f8788117e7eff1d82e926ec794901d17c78024a50270940304540a733656f0d9190a45b5050565b828054620002d190620005c5565b90600052602060002090601f016020900481019282620002f5576000855562000340565b82601f106200031057805160ff191683800117855562000340565b8280016001018555821562000340579182015b828111156200034057825182559160200191906001019062000323565b506200034e92915062000352565b5090565b5b808211156200034e576000815560010162000353565b805180151581146200037a57600080fd5b919050565b600082601f8301126200039157600080fd5b81516001600160401b03811115620003ad57620003ad62000602565b6020620003c3601f8301601f1916820162000592565b8281528582848701011115620003d857600080fd5b60005b83811015620003f8578581018301518282018401528201620003db565b838111156200040a5760008385840101525b5095945050505050565b805160ff811681146200037a57600080fd5b6000602082840312156200043957600080fd5b8151620004468162000618565b9392505050565b6000806000606084860312156200046357600080fd5b8351620004708162000618565b6020850151909350620004838162000618565b60408501519092506001600160401b0380821115620004a157600080fd5b908501906101208288031215620004b757600080fd5b620004c162000566565b8251815260208301516020820152620004dd6040840162000369565b6040820152620004f06060840162000369565b60608201526080830151608082015260a083015160a082015260c0830151828111156200051c57600080fd5b6200052a898286016200037f565b60c0830152506200053e60e0840162000414565b60e082015261010091506200055582840162000414565b828201528093505050509250925092565b60405161012081016001600160401b03811182821017156200058c576200058c62000602565b60405290565b604051601f8201601f191681016001600160401b0381118282101715620005bd57620005bd62000602565b604052919050565b600181811c90821680620005da57607f821691505b60208210811415620005fc57634e487b7160e01b600052602260045260246000fd5b50919050565b634e487b7160e01b600052604160045260246000fd5b6001600160a01b03811681146200062e57600080fd5b50565b61253680620006416000396000f3fe608060405234801561001057600080fd5b50600436106101f05760003560e01c8063715018a61161010f578063a9fb763c116100a2578063d547741f11610071578063d547741f146103fc578063e8884f2b1461040f578063e8cf51b014610436578063f2fde38b1461044957600080fd5b8063a9fb763c146103ad578063b31cf984146103c0578063b6b55f25146103d5578063ba0f49b7146103e857600080fd5b806391d14854116100de57806391d1485414610375578063a217fddf14610388578063a5ea11da14610390578063a9f17782146103a557600080fd5b8063715018a61461033457806382afd23b1461033c57806383920e901461034f5780638da5cb5b1461036457600080fd5b806336568abe1161018757806351e2412d1161015657806351e2412d146102f35780635dc181b3146102fb578063679aefce1461030c5780636aca845e1461032157600080fd5b806336568abe146102bf5780633b19e84a146102d25780633ccfd60b146102e35780635032d220146102eb57600080fd5b806321df0da7116101c357806321df0da71461025957806322f3e2d41461027e578063248a9ca3146102865780632f2ff15d146102aa57600080fd5b806301c6adc3146101f557806301ffc9a71461021d578063077763701461023057806312065fe014610251575b600080fd5b610208610203366004611ee6565b61045c565b60405190151581526020015b60405180910390f35b61020861022b36600461207c565b610465565b61024361023e366004612037565b61049a565b604051908152602001610214565b6102436104c3565b6002546001600160a01b03165b6040516001600160a01b039091168152602001610214565b610208610544565b610243610294366004612037565b6000908152600160208190526040909120015490565b6102bd6102b8366004612050565b61054f565b005b6102bd6102cd366004612050565b61057a565b6005546001600160a01b0316610266565b6102bd6105fd565b610243610915565b6102436109f4565b6003546001600160a01b0316610266565b600e5460405160ff9091168152602001610214565b61024361032f366004611f10565b610ac7565b6102bd610aff565b61020861034a366004612037565b610b35565b610357610c20565b6040516102149190612160565b6000546001600160a01b0316610266565b610208610383366004612050565b610cf9565b610243600081565b610398610d24565b604051610214919061223e565b610243610f3e565b6102bd6103bb366004612037565b61101a565b6103c8611063565b60405161021491906121f6565b6102bd6103e3366004612037565b6110f5565b6102086103f6366004612037565b50600090565b6102bd61040a366004612050565b6111e8565b6102437fc002a6b5f9f56101ba6339b1b95d171fadf6e41e005b91c80d686aef7516e75981565b610243610444366004612037565b61120e565b6102bd610457366004611ecb565b6112e8565b60005b92915050565b60006001600160e01b03198216637965db0b60e01b148061045f57506301ffc9a760e01b6001600160e01b031983161461045f565b600e5460009060649060ff166104af8461120e565b6104b991906123df565b61045f91906123bd565b6002546040516370a0823160e01b81523060048201526000916001600160a01b0316906370a082319060240160206040518083038186803b15801561050757600080fd5b505afa15801561051b573d6000803e3d6000fd5b505050506040513d601f19601f8201168201806040525081019061053f91906120a6565b905090565b600061053f42610b35565b6000828152600160208190526040909120015461056b81611383565b610575838361138d565b505050565b6001600160a01b03811633146105ef5760405162461bcd60e51b815260206004820152602f60248201527f416363657373436f6e74726f6c3a2063616e206f6e6c792072656e6f756e636560448201526e103937b632b9903337b91039b2b63360891b60648201526084015b60405180910390fd5b6105f982826113f8565b5050565b6000546001600160a01b031633146106275760405162461bcd60e51b81526004016105e690612209565b6002600c54141561067a5760405162461bcd60e51b815260206004820152601f60248201527f5265656e7472616e637947756172643a207265656e7472616e742063616c6c0060448201526064016105e6565b6002600c819055506108396004805480602002602001604051908101604052809291908181526020016000905b82821015610753576000848152602090206040805160a08101909152600484029091018054829060ff1660038111156106e2576106e26124be565b60038111156106f3576106f36124be565b81526020016000820160019054906101000a90046001600160a01b03166001600160a01b03166001600160a01b031681526020016001820154815260200160028201548152602001600382015481525050815260200190600101906106a7565b505050506108346004805480602002602001604051908101604052809291908181526020016000905b82821015610828576000848152602090206040805160a08101909152600484029091018054829060ff1660038111156107b7576107b76124be565b60038111156107c8576107c86124be565b81526020016000820160019054906101000a90046001600160a01b03166001600160a01b03166001600160a01b0316815260200160018201548152602001600282015481526020016003820154815250508152602001906001019061077c565b50505050600a5461145f565b61148e565b6108416114be565b60005b60045481101561090d57600160048281548110610863576108636124d4565b600091825260209091206004909102015460ff166003811115610888576108886124be565b14806108cb57506003600482815481106108a4576108a46124d4565b600091825260209091206004909102015460ff1660038111156108c9576108c96124be565b145b156108fb576108f9600482815481106108e6576108e66124d4565b9060005260206000209060040201611570565b505b806109058161248d565b915050610844565b506001600c55565b600061053f6004805480602002602001604051908101604052809291908181526020016000905b828210156109e8576000848152602090206040805160a08101909152600484029091018054829060ff166003811115610977576109776124be565b6003811115610988576109886124be565b81526020016000820160019054906101000a90046001600160a01b03166001600160a01b03166001600160a01b0316815260200160018201548152602001600282015481526020016003820154815250508152602001906001019061093c565b5050505060095461145f565b600061053f6004805480602002602001604051908101604052809291908181526020016000905b82821015610828576000848152602090206040805160a08101909152600484029091018054829060ff166003811115610a5657610a566124be565b6003811115610a6757610a676124be565b81526020016000820160019054906101000a90046001600160a01b03166001600160a01b03166001600160a01b03168152602001600182015481526020016002820154815260200160038201548152505081526020019060010190610a1b565b805160009015610af75781600081518110610ae457610ae46124d4565b6020026020010151608001519050919050565b506000919050565b6000546001600160a01b03163314610b295760405162461bcd60e51b81526004016105e690612209565b610b336000611616565b565b6000610c086004805480602002602001604051908101604052809291908181526020016000905b828210156109e8576000848152602090206040805160a08101909152600484029091018054829060ff166003811115610b9757610b976124be565b6003811115610ba857610ba86124be565b81526020016000820160019054906101000a90046001600160a01b03166001600160a01b03166001600160a01b03168152602001600182015481526020016002820154815260200160038201548152505081526020019060010190610b5c565b8210801561045f5750610c19611666565b1592915050565b60606004805480602002602001604051908101604052809291908181526020016000905b82821015610cf0576000848152602090206040805160a08101909152600484029091018054829060ff166003811115610c7f57610c7f6124be565b6003811115610c9057610c906124be565b81526020016000820160019054906101000a90046001600160a01b03166001600160a01b03166001600160a01b03168152602001600182015481526020016002820154815260200160038201548152505081526020019060010190610c44565b50505050905090565b60009182526001602090815260408084206001600160a01b0393909316845291905290205460ff1690565b610db4604051806102000160405280600081526020016000815260200160008152602001600081526020016000815260200160008152602001600015158152602001600015158152602001600015158152602001600015158152602001600015158152602001600081526020016000815260200160608152602001600060ff168152602001600060ff1681525090565b604051806102000160405280610dc86104c3565b8152602001610dd561174d565b8051600090610de657610de66124d4565b6020026020010151815260200160065481526020016007548152602001610e0b61174d565b80516002908110610e1e57610e1e6124d4565b60200260200101518152602001610e33610f3e565b8152602001610e40610544565b1515815260085460ff90811615156020830152600b541615156040820152606001610e69611821565b15158152602001610e78611666565b151581526020016009548152602001600a548152602001600d8054610e9c90612458565b80601f0160208091040260200160405190810160405280929190818152602001828054610ec890612458565b8015610f155780601f10610eea57610100808354040283529160200191610f15565b820191906000526020600020905b815481529060010190602001808311610ef857829003601f168201915b5050509183525050600e5460ff9081166020830152600b54610100900416604090910152919050565b600061053f6004805480602002602001604051908101604052809291908181526020016000905b82821015611011576000848152602090206040805160a08101909152600484029091018054829060ff166003811115610fa057610fa06124be565b6003811115610fb157610fb16124be565b81526020016000820160019054906101000a90046001600160a01b03166001600160a01b03166001600160a01b03168152602001600182015481526020016002820154815260200160038201548152505081526020019060010190610f65565b50505050610ac7565b7fc002a6b5f9f56101ba6339b1b95d171fadf6e41e005b91c80d686aef7516e75961104481611383565b60006110526002338561182c565b905061105d81611570565b50505050565b6060600d805461107290612458565b80601f016020809104026020016040519081016040528092919081815260200182805461109e90612458565b80156110eb5780601f106110c0576101008083540402835291602001916110eb565b820191906000526020600020905b8154815290600101906020018083116110ce57829003601f168201915b5050505050905090565b6111d06004805480602002602001604051908101604052809291908181526020016000905b828210156111c6576000848152602090206040805160a08101909152600484029091018054829060ff166003811115611155576111556124be565b6003811115611166576111666124be565b81526020016000820160019054906101000a90046001600160a01b03166001600160a01b03166001600160a01b0316815260200160018201548152602001600282015481526020016003820154815250508152602001906001019061111a565b5050505082611951565b60006111dd81338461182c565b905061057581611570565b6000828152600160208190526040909120015461120481611383565b61057583836113f8565b600080805b6004548110156112e15761122a62015180856123fe565b6004828154811061123d5761123d6124d4565b906000526020600020906004020160020154111561125c575092915050565b600060048281548110611271576112716124d4565b600091825260209091206004909102015460ff166003811115611296576112966124be565b14156112cf57600481815481106112af576112af6124d4565b906000526020600020906004020160010154826112cc91906123a5565b91505b806112d98161248d565b915050611213565b5092915050565b6000546001600160a01b031633146113125760405162461bcd60e51b81526004016105e690612209565b6001600160a01b0381166113775760405162461bcd60e51b815260206004820152602660248201527f4f776e61626c653a206e6577206f776e657220697320746865207a65726f206160448201526564647265737360d01b60648201526084016105e6565b61138081611616565b50565b611380813361195b565b6113978282610cf9565b6105f95760008281526001602081815260408084206001600160a01b0386168086529252808420805460ff19169093179092559051339285917f2f8788117e7eff1d82e926ec794901d17c78024a50270940304540a733656f0d9190a45050565b6114028282610cf9565b156105f95760008281526001602090815260408083206001600160a01b0385168085529252808320805460ff1916905551339285917ff6391f5c32d9c69d2a47ea670b442974b53935d1edc7fd64eb21e047a839171b9190a45050565b60008061146b84610ac7565b90508061147c57600091505061045f565b61148683826123a5565b949350505050565b611496611666565b156114b457604051632e08f66d60e11b815260040160405180910390fd5b6105f982826119bf565b600360009054906101000a90046001600160a01b03166001600160a01b031663985bdacb6040518163ffffffff1660e01b8152600401600060405180830381600087803b15801561150e57600080fd5b505af1158015611522573d6000803e3d6000fd5b5050505060006115306119ef565b9050611550600333836115416104c3565b61154b91906123fe565b61182c565b508015611380576005546105f9906001906001600160a01b03168361182c565b600081600301546000146115c65760405162461bcd60e51b815260206004820152601c60248201527f5472616e73616374696f6e20697320616c72656164792070617965640000000060448201526064016105e6565b4260038301556000825460ff1660038111156115e4576115e46124be565b14156115f75761045f8260010154611b27565b8154600183015461045f9161010090046001600160a01b031690611bc0565b600080546001600160a01b038381166001600160a01b0319831681178455604051919092169283917f8be0079c531659141344cd1fd0a4f28419497f9722a3daafe3b4186f6b6457e09190a35050565b6004546000905b801561174557600060046116826001846123fe565b81548110611692576116926124d4565b600091825260209091206040805160a081019091526004909202018054829060ff1660038111156116c5576116c56124be565b60038111156116d6576116d66124be565b8152815461010090046001600160a01b03166020820152600182015460408201526002820154606082015260039182015460809091015290915081516003811115611723576117236124be565b14156117325760019250505090565b508061173d81612441565b91505061166d565b506000905090565b60408051600480825260a08201909252606091600091906020820160808036833701905050905060005b60045481101561181b5760048181548110611794576117946124d4565b90600052602060002090600402016001015482600483815481106117ba576117ba6124d4565b600091825260209091206004909102015460ff1660038111156117df576117df6124be565b60ff16815181106117f2576117f26124d4565b6020026020010181815161180691906123a5565b905250806118138161248d565b915050611777565b50919050565b600061053f42611c0f565b6000806040518060a0016040528086600381111561184c5761184c6124be565b81526001600160a01b03861660208201526040810185905242606082015260006080909101819052600480546001818101835592829052835191027f8a35acfbc15ff81a39ae7d344fd709f28e8600b4aa8c65c6b64bfe7fe36bd19b01805493945084939092839160ff1916908360038111156118cb576118cb6124be565b0217905550602082015181546001600160a01b0390911661010002610100600160a81b0319909116178155604082015160018083019190915560608301516002830155608090920151600390910155600480549091611929916123fe565b81548110611939576119396124d4565b90600052602060002090600402019150509392505050565b6105f98282611ce2565b6119658282610cf9565b6105f95761197d816001600160a01b03166014611d13565b611988836020611d13565b6040516020016119999291906120eb565b60408051601f198184030181529082905262461bcd60e51b82526105e6916004016121f6565b600b5460ff161580156119d157504281115b156105f957604051631bc5fe1160e31b815260040160405180910390fd5b6000611ac26004805480602002602001604051908101604052809291908181526020016000905b828210156109e8576000848152602090206040805160a08101909152600484029091018054829060ff166003811115611a5157611a516124be565b6003811115611a6257611a626124be565b81526020016000820160019054906101000a90046001600160a01b03166001600160a01b03166001600160a01b03168152602001600182015481526020016002820154815260200160038201548152505081526020019060010190611a16565b421115611acf5750600090565b6000611ad961174d565b80516002908110611aec57611aec6124d4565b60200260200101519050612710600b60019054906101000a900460ff1660ff1682611b1791906123df565b611b2191906123bd565b91505090565b600080336002546040516323b872dd60e01b81526001600160a01b038084166004830152306024830152604482018790529293509116906323b872dd90606401602060405180830381600087803b158015611b8157600080fd5b505af1158015611b95573d6000803e3d6000fd5b505050506040513d601f19601f82011682018060405250810190611bb99190612015565b9392505050565b60025460405163a9059cbb60e01b81526001600160a01b03848116600483015260248201849052600092169063a9059cbb90604401602060405180830381600087803b158015611b8157600080fd5b6000610c086004805480602002602001604051908101604052809291908181526020016000905b82821015610828576000848152602090206040805160a08101909152600484029091018054829060ff166003811115611c7157611c716124be565b6003811115611c8257611c826124be565b81526020016000820160019054906101000a90046001600160a01b03166001600160a01b03166001600160a01b03168152602001600182015481526020016002820154815260200160038201548152505081526020019060010190611c36565b60085460ff16158015611cf55750815115155b156105f9576040516341df992760e01b815260040160405180910390fd5b60606000611d228360026123df565b611d2d9060026123a5565b67ffffffffffffffff811115611d4557611d456124ea565b6040519080825280601f01601f191660200182016040528015611d6f576020820181803683370190505b509050600360fc1b81600081518110611d8a57611d8a6124d4565b60200101906001600160f81b031916908160001a905350600f60fb1b81600181518110611db957611db96124d4565b60200101906001600160f81b031916908160001a9053506000611ddd8460026123df565b611de89060016123a5565b90505b6001811115611e60576f181899199a1a9b1b9c1cb0b131b232b360811b85600f1660108110611e1c57611e1c6124d4565b1a60f81b828281518110611e3257611e326124d4565b60200101906001600160f81b031916908160001a90535060049490941c93611e5981612441565b9050611deb565b508315611bb95760405162461bcd60e51b815260206004820181905260248201527f537472696e67733a20686578206c656e67746820696e73756666696369656e7460448201526064016105e6565b80356001600160a01b0381168114611ec657600080fd5b919050565b600060208284031215611edd57600080fd5b611bb982611eaf565b60008060408385031215611ef957600080fd5b611f0283611eaf565b946020939093013593505050565b60006020808385031215611f2357600080fd5b823567ffffffffffffffff80821115611f3b57600080fd5b818501915085601f830112611f4f57600080fd5b813581811115611f6157611f616124ea565b611f6f848260051b01612374565b818152848101925083850160a0808402860187018a1015611f8f57600080fd5b600095505b838610156120075780828b031215611fab57600080fd5b611fb361234b565b823560048110611fc257600080fd5b8152611fcf838901611eaf565b818901526040838101359082015260608084013590820152608080840135908201528552600195909501949386019390810190611f94565b509098975050505050505050565b60006020828403121561202757600080fd5b81518015158114611bb957600080fd5b60006020828403121561204957600080fd5b5035919050565b6000806040838503121561206357600080fd5b8235915061207360208401611eaf565b90509250929050565b60006020828403121561208e57600080fd5b81356001600160e01b031981168114611bb957600080fd5b6000602082840312156120b857600080fd5b5051919050565b600081518084526120d7816020860160208601612415565b601f01601f19169290920160200192915050565b7f416363657373436f6e74726f6c3a206163636f756e7420000000000000000000815260008351612123816017850160208801612415565b7001034b99036b4b9b9b4b733903937b6329607d1b6017918401918201528351612154816028840160208801612415565b01602801949350505050565b60208082528251828201819052600091906040908185019086840185805b838110156121e8578251805160048082106121a657634e487b7160e01b855260218152602485fd5b508652808801516001600160a01b0316888701528681015187870152606080820151908701526080908101519086015260a0909401939186019160010161217e565b509298975050505050505050565b602081526000611bb960208301846120bf565b6020808252818101527f4f776e61626c653a2063616c6c6572206973206e6f7420746865206f776e6572604082015260600190565b6020815281516020820152602082015160408201526040820151606082015260608201516080820152608082015160a082015260a082015160c0820152600060c083015161229060e084018215159052565b5060e08301516101006122a68185018315159052565b84015190506101206122bb8482018315159052565b84015190506101406122d08482018315159052565b84015190506101606122e58482018315159052565b840151610180848101919091528401516101a0808501919091528401516102006101c0808601829052919250906123206102208601846120bf565b908601519092506101e06123388682018360ff169052565b9095015160ff1693019290925250919050565b60405160a0810167ffffffffffffffff8111828210171561236e5761236e6124ea565b60405290565b604051601f8201601f1916810167ffffffffffffffff8111828210171561239d5761239d6124ea565b604052919050565b600082198211156123b8576123b86124a8565b500190565b6000826123da57634e487b7160e01b600052601260045260246000fd5b500490565b60008160001904831182151516156123f9576123f96124a8565b500290565b600082821015612410576124106124a8565b500390565b60005b83811015612430578181015183820152602001612418565b8381111561105d5750506000910152565b600081612450576124506124a8565b506000190190565b600181811c9082168061246c57607f821691505b6020821081141561181b57634e487b7160e01b600052602260045260246000fd5b60006000198214156124a1576124a16124a8565b5060010190565b634e487b7160e01b600052601160045260246000fd5b634e487b7160e01b600052602160045260246000fd5b634e487b7160e01b600052603260045260246000fd5b634e487b7160e01b600052604160045260246000fdfea2646970667358221220c4d74c38d05e1e175902a0dafdfdfebf53e1e652282475d0274f7538f1ca58fd64736f6c63430008070033",
  "immutableReferences": {},
  "source": "// SPDX-License-Identifier: MIT\npragma solidity 0.8.7;\n\nimport \"@openzeppelin/contracts/security/ReentrancyGuard.sol\";\n\nimport \"./BaseDeposit.sol\";\nimport \"./ILaunchpool.sol\";\n\nimport \"./Condition/AmountCondition.sol\";\nimport \"./Condition/DepositCondition.sol\";\nimport \"./Condition/PeriodCondition.sol\";\nimport \"./Condition/TerminationCondition.sol\";\n\ncontract Deposit is\n    BaseDeposit,\n    AmountCondition,\n    DepositCondition,\n    PeriodCondition,\n    TerminationCondition,\n    ReentrancyGuard\n{\n    string private _program;\n\n    uint8 private _rate;\n\n    error DepositAlreadyWithdrawed();\n\n    constructor(\n        ILaunchpool launchpool,\n        IBankAccount treasury,\n        Deposit.ProgramParameters memory parameters\n    )\n        BaseDeposit(launchpool, treasury)\n        AmountCondition(parameters.amountMaximum, parameters.amountMinimum)\n        DepositCondition(parameters.isDepositable)\n        PeriodCondition(parameters.periodMaximum, parameters.periodMinimum)\n        TerminationCondition(\n            parameters.isTerminatable,\n            parameters.terminationPenalty\n        )\n    {\n        _program = parameters.program;\n        _rate = parameters.rate;\n    }\n\n    function deposit(uint256 amount) external {\n        _preValidateDeposit(_transactions, amount);\n\n        Transaction storage transaction = _addTransaction(\n            TransactionKind.DEPOSIT,\n            _msgSender(),\n            amount\n        );\n\n        _transfer(transaction);\n    }\n\n    function isActive() public view returns (bool) {\n        return isActive(block.timestamp);\n    }\n\n    function isActive(uint256 date) public view returns (bool) {\n        return\n            date < _getPeriodDateTime(_transactions, _periodMaximum) &&\n            !_isWithdrawed();\n    }\n\n    function getBaseToCalculateReward(uint256 date)\n        external\n        view\n        returns (uint256)\n    {\n        return (_getDepositedAmountOnDate(date) * _rate) / 10**2;\n    }\n\n    function getBeginDateTime() public view returns (uint256) {\n        return getBeginDateTime(_transactions);\n    }\n\n    function getParameters()\n        external\n        view\n        returns (BaseDeposit.DepositParameters memory)\n    {\n        return\n            BaseDeposit.DepositParameters({\n                amount: getBalance(),\n                amountDeposit: _getTransactionsAmounts()[\n                    uint8(TransactionKind.DEPOSIT)\n                ],\n                amountMaximum: _amountMaximum,\n                amountMinimum: _amountMinimum,\n                amountReward: _getTransactionsAmounts()[\n                    uint8(TransactionKind.REWARD)\n                ],\n                beginDateTime: getBeginDateTime(),\n                isActive: isActive(),\n                isDepositable: _isDepositable,\n                isTerminatable: _isTerminatable,\n                isWithdrawable: _isWithdrawable(),\n                isWithdrawed: _isWithdrawed(),\n                periodMaximum: _periodMaximum,\n                periodMinimum: _periodMinimum,\n                program: _program,\n                rate: _rate,\n                terminationPenalty: _terminationPenalty\n            });\n    }\n\n    function getPeriodMaximumDateTime() external view returns (uint256) {\n        return _getPeriodDateTime(_transactions, _periodMaximum);\n    }\n\n    function getPeriodMinimumDateTime() external view returns (uint256) {\n        return _getPeriodDateTime(_transactions, _periodMinimum);\n    }\n\n    function getProgram() external view returns (string memory) {\n        return _program;\n    }\n\n    function getRate() external view returns (uint8) {\n        return _rate;\n    }\n\n    function withdraw() external onlyOwner nonReentrant {\n        _preValidateWithdraw(\n            _transactions,\n            _getPeriodDateTime(_transactions, _periodMinimum)\n        );\n\n        _close();\n\n        for (uint256 i = 0; i < _transactions.length; i++) {\n            if (\n                _transactions[i].kind == TransactionKind.PENALTY ||\n                _transactions[i].kind == TransactionKind.WITHDRAW\n            ) {\n                _transfer(_transactions[i]);\n            }\n        }\n    }\n\n    function _close() private {\n        _launchpool.transferDailyRewards();\n\n        uint256 amountPenalty = _getAmountPenalty();\n\n        _addTransaction(\n            TransactionKind.WITHDRAW,\n            _msgSender(),\n            getBalance() - amountPenalty\n        );\n\n        if (amountPenalty > 0) {\n            _addTransaction(\n                TransactionKind.PENALTY,\n                address(_treasury),\n                amountPenalty\n            );\n        }\n    }\n\n    function _isWithdrawable() private view returns (bool) {\n        return _isWithdrawable(block.timestamp);\n    }\n\n    function _isWithdrawable(uint256 date) private view returns (bool) {\n        return\n            date < _getPeriodDateTime(_transactions, _periodMinimum) &&\n            !_isWithdrawed();\n    }\n\n    function _isWithdrawed() private view returns (bool) {\n        for (uint256 i = _transactions.length; i > 0; i--) {\n            Transaction memory transaction = _transactions[i - 1];\n\n            if (transaction.kind == TransactionKind.WITHDRAW) {\n                return true;\n            }\n        }\n\n        return false;\n    }\n\n    function _getAmountPenalty() private view returns (uint256) {\n        if (\n            block.timestamp > _getPeriodDateTime(_transactions, _periodMaximum)\n        ) {\n            return 0;\n        }\n\n        uint256 amountReward = _getTransactionsAmounts()[\n            uint8(TransactionKind.REWARD)\n        ];\n\n        return (amountReward * _terminationPenalty) / 10**4;\n    }\n\n    function _preValidateDeposit(\n        Transaction[] memory transactions,\n        uint256 amount\n    ) internal view override(AmountCondition, DepositCondition) {\n        super._preValidateDeposit(transactions, amount);\n    }\n\n    function _preValidateWithdraw(\n        Transaction[] memory transactions,\n        uint256 periodMinimumDateTime\n    ) internal view override(PeriodCondition, TerminationCondition) {\n        if (_isWithdrawed()) {\n            revert DepositAlreadyWithdrawed();\n        }\n\n        super._preValidateWithdraw(transactions, periodMinimumDateTime);\n    }\n}\n",
  "sourcePath": "/Users/ievgencherkaskyi/Projects/tivan/launchpool/contracts/Launchpool/Deposit.sol",
  "compiler": {
    "name": "solc",
    "version": "0.8.7+commit.e28d00a7.Emscripten.clang"
  },
  "schemaVersion": "3.4.7",
  "updatedAt": "2022-06-14T14:21:17.118Z",
  "devdoc": {
    "kind": "dev",
    "methods": {
      "getRoleAdmin(bytes32)": {
        "details": "Returns the admin role that controls `role`. See {grantRole} and {revokeRole}. To change a role's admin, use {_setRoleAdmin}."
      },
      "grantRole(bytes32,address)": {
        "details": "Grants `role` to `account`. If `account` had not been already granted `role`, emits a {RoleGranted} event. Requirements: - the caller must have ``role``'s admin role."
      },
      "hasRole(bytes32,address)": {
        "details": "Returns `true` if `account` has been granted `role`."
      },
      "owner()": {
        "details": "Returns the address of the current owner."
      },
      "renounceOwnership()": {
        "details": "Leaves the contract without owner. It will not be possible to call `onlyOwner` functions anymore. Can only be called by the current owner. NOTE: Renouncing ownership will leave the contract without an owner, thereby removing any functionality that is only available to the owner."
      },
      "renounceRole(bytes32,address)": {
        "details": "Revokes `role` from the calling account. Roles are often managed via {grantRole} and {revokeRole}: this function's purpose is to provide a mechanism for accounts to lose their privileges if they are compromised (such as when a trusted device is misplaced). If the calling account had been revoked `role`, emits a {RoleRevoked} event. Requirements: - the caller must be `account`."
      },
      "revokeRole(bytes32,address)": {
        "details": "Revokes `role` from `account`. If `account` had been granted `role`, emits a {RoleRevoked} event. Requirements: - the caller must have ``role``'s admin role."
      },
      "supportsInterface(bytes4)": {
        "details": "See {IERC165-supportsInterface}."
      },
      "transferOwnership(address)": {
        "details": "Transfers ownership of the contract to a new account (`newOwner`). Can only be called by the current owner."
      }
    },
    "version": 1
  },
  "userdoc": {
    "kind": "user",
    "methods": {},
    "version": 1
  }
}