{
  "contractName": "Deposit",
  "abi": [
    {
      "inputs": [
        {
          "internalType": "contract ILaunchpool",
          "name": "launchpool",
          "type": "address"
        },
        {
          "internalType": "contract IBankAccount",
          "name": "treasury",
          "type": "address"
        },
        {
          "components": [
            {
              "internalType": "uint256",
              "name": "amountMaximum",
              "type": "uint256"
            },
            {
              "internalType": "uint256",
              "name": "amountMinimum",
              "type": "uint256"
            },
            {
              "internalType": "bool",
              "name": "isDepositable",
              "type": "bool"
            },
            {
              "internalType": "bool",
              "name": "isTerminatable",
              "type": "bool"
            },
            {
              "internalType": "uint256",
              "name": "periodMaximum",
              "type": "uint256"
            },
            {
              "internalType": "uint256",
              "name": "periodMinimum",
              "type": "uint256"
            },
            {
              "internalType": "string",
              "name": "program",
              "type": "string"
            },
            {
              "internalType": "uint8",
              "name": "rate",
              "type": "uint8"
            },
            {
              "internalType": "uint8",
              "name": "terminationPenalty",
              "type": "uint8"
            }
          ],
          "internalType": "struct BaseDeposit.ProgramParameters",
          "name": "parameters",
          "type": "tuple"
        }
      ],
      "stateMutability": "nonpayable",
      "type": "constructor"
    },
    {
      "inputs": [
        {
          "internalType": "uint256",
          "name": "amountMaximum",
          "type": "uint256"
        },
        {
          "internalType": "uint256",
          "name": "amount",
          "type": "uint256"
        }
      ],
      "name": "AmountMaximumConstraint",
      "type": "error"
    },
    {
      "inputs": [
        {
          "internalType": "uint256",
          "name": "amountMinimum",
          "type": "uint256"
        },
        {
          "internalType": "uint256",
          "name": "amount",
          "type": "uint256"
        }
      ],
      "name": "AmountMinimumConstraint",
      "type": "error"
    },
    {
      "inputs": [],
      "name": "DepositAlreadyWithdrawed",
      "type": "error"
    },
    {
      "inputs": [],
      "name": "DepositConstraint",
      "type": "error"
    },
    {
      "inputs": [
        {
          "internalType": "uint256",
          "name": "periodMinimumDateTime",
          "type": "uint256"
        }
      ],
      "name": "PeriodMinimumConstraint",
      "type": "error"
    },
    {
      "inputs": [],
      "name": "TerminationConstraint",
      "type": "error"
    },
    {
      "anonymous": false,
      "inputs": [
        {
          "indexed": true,
          "internalType": "address",
          "name": "previousOwner",
          "type": "address"
        },
        {
          "indexed": true,
          "internalType": "address",
          "name": "newOwner",
          "type": "address"
        }
      ],
      "name": "OwnershipTransferred",
      "type": "event"
    },
    {
      "anonymous": false,
      "inputs": [
        {
          "indexed": true,
          "internalType": "bytes32",
          "name": "role",
          "type": "bytes32"
        },
        {
          "indexed": true,
          "internalType": "bytes32",
          "name": "previousAdminRole",
          "type": "bytes32"
        },
        {
          "indexed": true,
          "internalType": "bytes32",
          "name": "newAdminRole",
          "type": "bytes32"
        }
      ],
      "name": "RoleAdminChanged",
      "type": "event"
    },
    {
      "anonymous": false,
      "inputs": [
        {
          "indexed": true,
          "internalType": "bytes32",
          "name": "role",
          "type": "bytes32"
        },
        {
          "indexed": true,
          "internalType": "address",
          "name": "account",
          "type": "address"
        },
        {
          "indexed": true,
          "internalType": "address",
          "name": "sender",
          "type": "address"
        }
      ],
      "name": "RoleGranted",
      "type": "event"
    },
    {
      "anonymous": false,
      "inputs": [
        {
          "indexed": true,
          "internalType": "bytes32",
          "name": "role",
          "type": "bytes32"
        },
        {
          "indexed": true,
          "internalType": "address",
          "name": "account",
          "type": "address"
        },
        {
          "indexed": true,
          "internalType": "address",
          "name": "sender",
          "type": "address"
        }
      ],
      "name": "RoleRevoked",
      "type": "event"
    },
    {
      "inputs": [],
      "name": "DEFAULT_ADMIN_ROLE",
      "outputs": [
        {
          "internalType": "bytes32",
          "name": "",
          "type": "bytes32"
        }
      ],
      "stateMutability": "view",
      "type": "function"
    },
    {
      "inputs": [],
      "name": "REWARD_ROLE",
      "outputs": [
        {
          "internalType": "bytes32",
          "name": "",
          "type": "bytes32"
        }
      ],
      "stateMutability": "view",
      "type": "function"
    },
    {
      "inputs": [
        {
          "internalType": "uint256",
          "name": "date",
          "type": "uint256"
        }
      ],
      "name": "_getDepositedAmountOnDate",
      "outputs": [
        {
          "internalType": "uint256",
          "name": "",
          "type": "uint256"
        }
      ],
      "stateMutability": "view",
      "type": "function"
    },
    {
      "inputs": [],
      "name": "getBalance",
      "outputs": [
        {
          "internalType": "uint256",
          "name": "",
          "type": "uint256"
        }
      ],
      "stateMutability": "view",
      "type": "function"
    },
    {
      "inputs": [],
      "name": "getLaunchpool",
      "outputs": [
        {
          "internalType": "contract ILaunchpool",
          "name": "",
          "type": "address"
        }
      ],
      "stateMutability": "view",
      "type": "function"
    },
    {
      "inputs": [
        {
          "internalType": "bytes32",
          "name": "role",
          "type": "bytes32"
        }
      ],
      "name": "getRoleAdmin",
      "outputs": [
        {
          "internalType": "bytes32",
          "name": "",
          "type": "bytes32"
        }
      ],
      "stateMutability": "view",
      "type": "function"
    },
    {
      "inputs": [],
      "name": "getToken",
      "outputs": [
        {
          "internalType": "contract IERC20",
          "name": "",
          "type": "address"
        }
      ],
      "stateMutability": "view",
      "type": "function"
    },
    {
      "inputs": [],
      "name": "getTransactions",
      "outputs": [
        {
          "components": [
            {
              "internalType": "enum BaseDeposit.TransactionKind",
              "name": "kind",
              "type": "uint8"
            },
            {
              "internalType": "address",
              "name": "account",
              "type": "address"
            },
            {
              "internalType": "uint256",
              "name": "amount",
              "type": "uint256"
            },
            {
              "internalType": "uint256",
              "name": "created",
              "type": "uint256"
            },
            {
              "internalType": "uint256",
              "name": "payed",
              "type": "uint256"
            }
          ],
          "internalType": "struct BaseDeposit.Transaction[]",
          "name": "",
          "type": "tuple[]"
        }
      ],
      "stateMutability": "view",
      "type": "function"
    },
    {
      "inputs": [],
      "name": "getTreasury",
      "outputs": [
        {
          "internalType": "contract IBankAccount",
          "name": "",
          "type": "address"
        }
      ],
      "stateMutability": "view",
      "type": "function"
    },
    {
      "inputs": [
        {
          "internalType": "bytes32",
          "name": "role",
          "type": "bytes32"
        },
        {
          "internalType": "address",
          "name": "account",
          "type": "address"
        }
      ],
      "name": "grantRole",
      "outputs": [],
      "stateMutability": "nonpayable",
      "type": "function"
    },
    {
      "inputs": [
        {
          "internalType": "bytes32",
          "name": "role",
          "type": "bytes32"
        },
        {
          "internalType": "address",
          "name": "account",
          "type": "address"
        }
      ],
      "name": "hasRole",
      "outputs": [
        {
          "internalType": "bool",
          "name": "",
          "type": "bool"
        }
      ],
      "stateMutability": "view",
      "type": "function"
    },
    {
      "inputs": [],
      "name": "owner",
      "outputs": [
        {
          "internalType": "address",
          "name": "",
          "type": "address"
        }
      ],
      "stateMutability": "view",
      "type": "function"
    },
    {
      "inputs": [],
      "name": "renounceOwnership",
      "outputs": [],
      "stateMutability": "nonpayable",
      "type": "function"
    },
    {
      "inputs": [
        {
          "internalType": "bytes32",
          "name": "role",
          "type": "bytes32"
        },
        {
          "internalType": "address",
          "name": "account",
          "type": "address"
        }
      ],
      "name": "renounceRole",
      "outputs": [],
      "stateMutability": "nonpayable",
      "type": "function"
    },
    {
      "inputs": [
        {
          "internalType": "bytes32",
          "name": "role",
          "type": "bytes32"
        },
        {
          "internalType": "address",
          "name": "account",
          "type": "address"
        }
      ],
      "name": "revokeRole",
      "outputs": [],
      "stateMutability": "nonpayable",
      "type": "function"
    },
    {
      "inputs": [
        {
          "internalType": "uint256",
          "name": "amount",
          "type": "uint256"
        }
      ],
      "name": "reward",
      "outputs": [],
      "stateMutability": "nonpayable",
      "type": "function"
    },
    {
      "inputs": [
        {
          "internalType": "bytes4",
          "name": "interfaceId",
          "type": "bytes4"
        }
      ],
      "name": "supportsInterface",
      "outputs": [
        {
          "internalType": "bool",
          "name": "",
          "type": "bool"
        }
      ],
      "stateMutability": "view",
      "type": "function"
    },
    {
      "inputs": [
        {
          "internalType": "address",
          "name": "",
          "type": "address"
        },
        {
          "internalType": "uint256",
          "name": "",
          "type": "uint256"
        }
      ],
      "name": "transferFrom",
      "outputs": [
        {
          "internalType": "bool",
          "name": "",
          "type": "bool"
        }
      ],
      "stateMutability": "pure",
      "type": "function"
    },
    {
      "inputs": [
        {
          "internalType": "address",
          "name": "newOwner",
          "type": "address"
        }
      ],
      "name": "transferOwnership",
      "outputs": [],
      "stateMutability": "nonpayable",
      "type": "function"
    },
    {
      "inputs": [
        {
          "internalType": "uint256",
          "name": "",
          "type": "uint256"
        }
      ],
      "name": "transferTo",
      "outputs": [
        {
          "internalType": "bool",
          "name": "",
          "type": "bool"
        }
      ],
      "stateMutability": "pure",
      "type": "function"
    },
    {
      "stateMutability": "payable",
      "type": "receive"
    },
    {
      "inputs": [],
      "name": "isActive",
      "outputs": [
        {
          "internalType": "bool",
          "name": "",
          "type": "bool"
        }
      ],
      "stateMutability": "view",
      "type": "function"
    },
    {
      "inputs": [
        {
          "internalType": "uint256",
          "name": "date",
          "type": "uint256"
        }
      ],
      "name": "isActive",
      "outputs": [
        {
          "internalType": "bool",
          "name": "",
          "type": "bool"
        }
      ],
      "stateMutability": "view",
      "type": "function"
    },
    {
      "inputs": [
        {
          "internalType": "uint256",
          "name": "date",
          "type": "uint256"
        }
      ],
      "name": "getBaseToCalculateReward",
      "outputs": [
        {
          "internalType": "uint256",
          "name": "",
          "type": "uint256"
        }
      ],
      "stateMutability": "view",
      "type": "function"
    },
    {
      "inputs": [
        {
          "components": [
            {
              "internalType": "enum BaseDeposit.TransactionKind",
              "name": "kind",
              "type": "uint8"
            },
            {
              "internalType": "address",
              "name": "account",
              "type": "address"
            },
            {
              "internalType": "uint256",
              "name": "amount",
              "type": "uint256"
            },
            {
              "internalType": "uint256",
              "name": "created",
              "type": "uint256"
            },
            {
              "internalType": "uint256",
              "name": "payed",
              "type": "uint256"
            }
          ],
          "internalType": "struct BaseDeposit.Transaction[]",
          "name": "transactions",
          "type": "tuple[]"
        }
      ],
      "name": "getBeginDateTime",
      "outputs": [
        {
          "internalType": "uint256",
          "name": "",
          "type": "uint256"
        }
      ],
      "stateMutability": "pure",
      "type": "function"
    },
    {
      "inputs": [],
      "name": "getBeginDateTime",
      "outputs": [
        {
          "internalType": "uint256",
          "name": "",
          "type": "uint256"
        }
      ],
      "stateMutability": "view",
      "type": "function"
    },
    {
      "inputs": [],
      "name": "getParameters",
      "outputs": [
        {
          "components": [
            {
              "internalType": "uint256",
              "name": "amount",
              "type": "uint256"
            },
            {
              "internalType": "uint256",
              "name": "amountDeposit",
              "type": "uint256"
            },
            {
              "internalType": "uint256",
              "name": "amountMaximum",
              "type": "uint256"
            },
            {
              "internalType": "uint256",
              "name": "amountMinimum",
              "type": "uint256"
            },
            {
              "internalType": "uint256",
              "name": "amountReward",
              "type": "uint256"
            },
            {
              "internalType": "uint256",
              "name": "beginDateTime",
              "type": "uint256"
            },
            {
              "internalType": "bool",
              "name": "isActive",
              "type": "bool"
            },
            {
              "internalType": "bool",
              "name": "isDepositable",
              "type": "bool"
            },
            {
              "internalType": "bool",
              "name": "isTerminatable",
              "type": "bool"
            },
            {
              "internalType": "bool",
              "name": "isWithdrawable",
              "type": "bool"
            },
            {
              "internalType": "bool",
              "name": "isWithdrawed",
              "type": "bool"
            },
            {
              "internalType": "uint256",
              "name": "periodMaximum",
              "type": "uint256"
            },
            {
              "internalType": "uint256",
              "name": "periodMinimum",
              "type": "uint256"
            },
            {
              "internalType": "string",
              "name": "program",
              "type": "string"
            },
            {
              "internalType": "uint8",
              "name": "rate",
              "type": "uint8"
            },
            {
              "internalType": "uint8",
              "name": "terminationPenalty",
              "type": "uint8"
            }
          ],
          "internalType": "struct BaseDeposit.DepositParameters",
          "name": "",
          "type": "tuple"
        }
      ],
      "stateMutability": "view",
      "type": "function"
    },
    {
      "inputs": [],
      "name": "getPeriodMaximumDateTime",
      "outputs": [
        {
          "internalType": "uint256",
          "name": "",
          "type": "uint256"
        }
      ],
      "stateMutability": "view",
      "type": "function"
    },
    {
      "inputs": [],
      "name": "getPeriodMinimumDateTime",
      "outputs": [
        {
          "internalType": "uint256",
          "name": "",
          "type": "uint256"
        }
      ],
      "stateMutability": "view",
      "type": "function"
    },
    {
      "inputs": [],
      "name": "getProgram",
      "outputs": [
        {
          "internalType": "string",
          "name": "",
          "type": "string"
        }
      ],
      "stateMutability": "view",
      "type": "function"
    },
    {
      "inputs": [],
      "name": "getRate",
      "outputs": [
        {
          "internalType": "uint8",
          "name": "",
          "type": "uint8"
        }
      ],
      "stateMutability": "view",
      "type": "function"
    },
    {
      "inputs": [],
      "name": "withdraw",
      "outputs": [],
      "stateMutability": "nonpayable",
      "type": "function"
    }
  ],
  "bytecode": "0x60806040523480156200001157600080fd5b5060405162002cf938038062002cf983398101604081905262000034916200044d565b806060015181610100015182608001518360a001518460400151856000015186602001518989806001600160a01b03166321df0da76040518163ffffffff1660e01b815260040160206040518083038186803b1580156200009457600080fd5b505afa158015620000a9573d6000803e3d6000fd5b505050506040513d601f19601f82011682018060405250810190620000cf919062000426565b620000da33620001ea565b600280546001600160a01b03199081166001600160a01b03938416179091556003805482168584169081179091556005805490921692841692909217905562000126906000906200023a565b6003546200015f907fc002a6b5f9f56101ba6339b1b95d171fadf6e41e005b91c80d686aef7516e759906001600160a01b03166200023a565b50506006919091556007556008805460ff1916911515919091179055600991909155600a55600b805461ffff191692151561ff0019169290921761010060ff92909216919091021790556001600c5560c08101518051620001c991600d91602090910190620002c3565b5060e00151600e805460ff191660ff90921691909117905550620006319050565b600080546001600160a01b038381166001600160a01b0319831681178455604051919092169283917f8be0079c531659141344cd1fd0a4f28419497f9722a3daafe3b4186f6b6457e09190a35050565b60008281526001602090815260408083206001600160a01b038516845290915290205460ff16620002bf5760008281526001602081815260408084206001600160a01b0386168086529252808420805460ff19169093179092559051339285917f2f8788117e7eff1d82e926ec794901d17c78024a50270940304540a733656f0d9190a45b5050565b828054620002d190620005c5565b90600052602060002090601f016020900481019282620002f5576000855562000340565b82601f106200031057805160ff191683800117855562000340565b8280016001018555821562000340579182015b828111156200034057825182559160200191906001019062000323565b506200034e92915062000352565b5090565b5b808211156200034e576000815560010162000353565b805180151581146200037a57600080fd5b919050565b600082601f8301126200039157600080fd5b81516001600160401b03811115620003ad57620003ad62000602565b6020620003c3601f8301601f1916820162000592565b8281528582848701011115620003d857600080fd5b60005b83811015620003f8578581018301518282018401528201620003db565b838111156200040a5760008385840101525b5095945050505050565b805160ff811681146200037a57600080fd5b6000602082840312156200043957600080fd5b8151620004468162000618565b9392505050565b6000806000606084860312156200046357600080fd5b8351620004708162000618565b6020850151909350620004838162000618565b60408501519092506001600160401b0380821115620004a157600080fd5b908501906101208288031215620004b757600080fd5b620004c162000566565b8251815260208301516020820152620004dd6040840162000369565b6040820152620004f06060840162000369565b60608201526080830151608082015260a083015160a082015260c0830151828111156200051c57600080fd5b6200052a898286016200037f565b60c0830152506200053e60e0840162000414565b60e082015261010091506200055582840162000414565b828201528093505050509250925092565b60405161012081016001600160401b03811182821017156200058c576200058c62000602565b60405290565b604051601f8201601f191681016001600160401b0381118282101715620005bd57620005bd62000602565b604052919050565b600181811c90821680620005da57607f821691505b60208210811415620005fc57634e487b7160e01b600052602260045260246000fd5b50919050565b634e487b7160e01b600052604160045260246000fd5b6001600160a01b03811681146200062e57600080fd5b50565b6126b880620006416000396000f3fe6080604052600436106101dc5760003560e01c80636aca845e11610102578063a9f1778211610095578063d547741f11610064578063d547741f14610554578063e8884f2b14610574578063e8cf51b0146105a8578063f2fde38b146105c857600080fd5b8063a9f17782146104dc578063a9fb763c146104f1578063b31cf98414610511578063ba0f49b71461053357600080fd5b80638da5cb5b116100d15780638da5cb5b1461046757806391d1485414610485578063a217fddf146104a5578063a5ea11da146104ba57600080fd5b80636aca845e146103f0578063715018a61461041057806382afd23b1461042557806383920e901461044557600080fd5b80632f2ff15d1161017a5780635032d220116101495780635032d2201461038657806351e2412d1461039b5780635dc181b3146103b0578063679aefce146103ce57600080fd5b80632f2ff15d1461031357806336568abe146103335780633b19e84a146103535780633ccfd60b1461037157600080fd5b806312065fe0116101b657806312065fe01461028657806321df0da71461029b57806322f3e2d4146102cd578063248a9ca3146102e257600080fd5b806301c6adc31461020357806301ffc9a714610238578063077763701461025857600080fd5b366101fe576101fc336101f7670de0b6b3a76400003461253f565b6105e8565b005b600080fd5b34801561020f57600080fd5b5061022361021e366004612068565b6106e2565b60405190151581526020015b60405180910390f35b34801561024457600080fd5b506102236102533660046121fe565b6106eb565b34801561026457600080fd5b506102786102733660046121b9565b610720565b60405190815260200161022f565b34801561029257600080fd5b50610278610749565b3480156102a757600080fd5b506002546001600160a01b03165b6040516001600160a01b03909116815260200161022f565b3480156102d957600080fd5b506102236107ca565b3480156102ee57600080fd5b506102786102fd3660046121b9565b6000908152600160208190526040909120015490565b34801561031f57600080fd5b506101fc61032e3660046121d2565b6107d5565b34801561033f57600080fd5b506101fc61034e3660046121d2565b610800565b34801561035f57600080fd5b506005546001600160a01b03166102b5565b34801561037d57600080fd5b506101fc610883565b34801561039257600080fd5b50610278610b9b565b3480156103a757600080fd5b50610278610c7a565b3480156103bc57600080fd5b506003546001600160a01b03166102b5565b3480156103da57600080fd5b50600e5460405160ff909116815260200161022f565b3480156103fc57600080fd5b5061027861040b366004612092565b610d4d565b34801561041c57600080fd5b506101fc610d85565b34801561043157600080fd5b506102236104403660046121b9565b610dbb565b34801561045157600080fd5b5061045a610ea6565b60405161022f91906122e2565b34801561047357600080fd5b506000546001600160a01b03166102b5565b34801561049157600080fd5b506102236104a03660046121d2565b610f7f565b3480156104b157600080fd5b50610278600081565b3480156104c657600080fd5b506104cf610faa565b60405161022f91906123c0565b3480156104e857600080fd5b506102786111c4565b3480156104fd57600080fd5b506101fc61050c3660046121b9565b6112a0565b34801561051d57600080fd5b506105266112d8565b60405161022f9190612378565b34801561053f57600080fd5b5061022361054e3660046121b9565b50600090565b34801561056057600080fd5b506101fc61056f3660046121d2565b61136a565b34801561058057600080fd5b506102787fc002a6b5f9f56101ba6339b1b95d171fadf6e41e005b91c80d686aef7516e75981565b3480156105b457600080fd5b506102786105c33660046121b9565b611390565b3480156105d457600080fd5b506101fc6105e336600461204d565b61146a565b6106c36004805480602002602001604051908101604052809291908181526020016000905b828210156106b9576000848152602090206040805160a08101909152600484029091018054829060ff16600381111561064857610648612640565b600381111561065957610659612640565b81526020016000820160019054906101000a90046001600160a01b03166001600160a01b03166001600160a01b0316815260200160018201548152602001600282015481526020016003820154815250508152602001906001019061060d565b5050505082611505565b60006106d16000848461150f565b90506106dc81611634565b50505050565b60005b92915050565b60006001600160e01b03198216637965db0b60e01b14806106e557506301ffc9a760e01b6001600160e01b03198316146106e5565b600e5460009060649060ff1661073584611390565b61073f9190612561565b6106e5919061253f565b6002546040516370a0823160e01b81523060048201526000916001600160a01b0316906370a082319060240160206040518083038186803b15801561078d57600080fd5b505afa1580156107a1573d6000803e3d6000fd5b505050506040513d601f19601f820116820180604052508101906107c59190612228565b905090565b60006107c542610dbb565b600082815260016020819052604090912001546107f1816116da565b6107fb83836116e4565b505050565b6001600160a01b03811633146108755760405162461bcd60e51b815260206004820152602f60248201527f416363657373436f6e74726f6c3a2063616e206f6e6c792072656e6f756e636560448201526e103937b632b9903337b91039b2b63360891b60648201526084015b60405180910390fd5b61087f828261174f565b5050565b6000546001600160a01b031633146108ad5760405162461bcd60e51b815260040161086c9061238b565b6002600c5414156109005760405162461bcd60e51b815260206004820152601f60248201527f5265656e7472616e637947756172643a207265656e7472616e742063616c6c00604482015260640161086c565b6002600c81905550610abf6004805480602002602001604051908101604052809291908181526020016000905b828210156109d9576000848152602090206040805160a08101909152600484029091018054829060ff16600381111561096857610968612640565b600381111561097957610979612640565b81526020016000820160019054906101000a90046001600160a01b03166001600160a01b03166001600160a01b0316815260200160018201548152602001600282015481526020016003820154815250508152602001906001019061092d565b50505050610aba6004805480602002602001604051908101604052809291908181526020016000905b82821015610aae576000848152602090206040805160a08101909152600484029091018054829060ff166003811115610a3d57610a3d612640565b6003811115610a4e57610a4e612640565b81526020016000820160019054906101000a90046001600160a01b03166001600160a01b03166001600160a01b03168152602001600182015481526020016002820154815260200160038201548152505081526020019060010190610a02565b50505050600a546117b6565b6117e5565b610ac7611815565b60005b600454811015610b9357600160048281548110610ae957610ae9612656565b600091825260209091206004909102015460ff166003811115610b0e57610b0e612640565b1480610b515750600360048281548110610b2a57610b2a612656565b600091825260209091206004909102015460ff166003811115610b4f57610b4f612640565b145b15610b8157610b7f60048281548110610b6c57610b6c612656565b9060005260206000209060040201611634565b505b80610b8b8161260f565b915050610aca565b506001600c55565b60006107c56004805480602002602001604051908101604052809291908181526020016000905b82821015610c6e576000848152602090206040805160a08101909152600484029091018054829060ff166003811115610bfd57610bfd612640565b6003811115610c0e57610c0e612640565b81526020016000820160019054906101000a90046001600160a01b03166001600160a01b03166001600160a01b03168152602001600182015481526020016002820154815260200160038201548152505081526020019060010190610bc2565b505050506009546117b6565b60006107c56004805480602002602001604051908101604052809291908181526020016000905b82821015610aae576000848152602090206040805160a08101909152600484029091018054829060ff166003811115610cdc57610cdc612640565b6003811115610ced57610ced612640565b81526020016000820160019054906101000a90046001600160a01b03166001600160a01b03166001600160a01b03168152602001600182015481526020016002820154815260200160038201548152505081526020019060010190610ca1565b805160009015610d7d5781600081518110610d6a57610d6a612656565b6020026020010151608001519050919050565b506000919050565b6000546001600160a01b03163314610daf5760405162461bcd60e51b815260040161086c9061238b565b610db960006118c7565b565b6000610e8e6004805480602002602001604051908101604052809291908181526020016000905b82821015610c6e576000848152602090206040805160a08101909152600484029091018054829060ff166003811115610e1d57610e1d612640565b6003811115610e2e57610e2e612640565b81526020016000820160019054906101000a90046001600160a01b03166001600160a01b03166001600160a01b03168152602001600182015481526020016002820154815260200160038201548152505081526020019060010190610de2565b821080156106e55750610e9f611917565b1592915050565b60606004805480602002602001604051908101604052809291908181526020016000905b82821015610f76576000848152602090206040805160a08101909152600484029091018054829060ff166003811115610f0557610f05612640565b6003811115610f1657610f16612640565b81526020016000820160019054906101000a90046001600160a01b03166001600160a01b03166001600160a01b03168152602001600182015481526020016002820154815260200160038201548152505081526020019060010190610eca565b50505050905090565b60009182526001602090815260408084206001600160a01b0393909316845291905290205460ff1690565b61103a604051806102000160405280600081526020016000815260200160008152602001600081526020016000815260200160008152602001600015158152602001600015158152602001600015158152602001600015158152602001600015158152602001600081526020016000815260200160608152602001600060ff168152602001600060ff1681525090565b60405180610200016040528061104e610749565b815260200161105b6119fe565b805160009061106c5761106c612656565b60200260200101518152602001600654815260200160075481526020016110916119fe565b805160029081106110a4576110a4612656565b602002602001015181526020016110b96111c4565b81526020016110c66107ca565b1515815260085460ff90811615156020830152600b5416151560408201526060016110ef611ad2565b151581526020016110fe611917565b151581526020016009548152602001600a548152602001600d8054611122906125da565b80601f016020809104026020016040519081016040528092919081815260200182805461114e906125da565b801561119b5780601f106111705761010080835404028352916020019161119b565b820191906000526020600020905b81548152906001019060200180831161117e57829003601f168201915b5050509183525050600e5460ff9081166020830152600b54610100900416604090910152919050565b60006107c56004805480602002602001604051908101604052809291908181526020016000905b82821015611297576000848152602090206040805160a08101909152600484029091018054829060ff16600381111561122657611226612640565b600381111561123757611237612640565b81526020016000820160019054906101000a90046001600160a01b03166001600160a01b03166001600160a01b031681526020016001820154815260200160028201548152602001600382015481525050815260200190600101906111eb565b50505050610d4d565b7fc002a6b5f9f56101ba6339b1b95d171fadf6e41e005b91c80d686aef7516e7596112ca816116da565b60006106d16002338561150f565b6060600d80546112e7906125da565b80601f0160208091040260200160405190810160405280929190818152602001828054611313906125da565b80156113605780601f1061133557610100808354040283529160200191611360565b820191906000526020600020905b81548152906001019060200180831161134357829003601f168201915b5050505050905090565b60008281526001602081905260409091200154611386816116da565b6107fb838361174f565b600080805b600454811015611463576113ac6201518085612580565b600482815481106113bf576113bf612656565b90600052602060002090600402016002015411156113de575092915050565b6000600482815481106113f3576113f3612656565b600091825260209091206004909102015460ff16600381111561141857611418612640565b1415611451576004818154811061143157611431612656565b9060005260206000209060040201600101548261144e9190612527565b91505b8061145b8161260f565b915050611395565b5092915050565b6000546001600160a01b031633146114945760405162461bcd60e51b815260040161086c9061238b565b6001600160a01b0381166114f95760405162461bcd60e51b815260206004820152602660248201527f4f776e61626c653a206e6577206f776e657220697320746865207a65726f206160448201526564647265737360d01b606482015260840161086c565b611502816118c7565b50565b61087f8282611add565b6000806040518060a0016040528086600381111561152f5761152f612640565b81526001600160a01b03861660208201526040810185905242606082015260006080909101819052600480546001818101835592829052835191027f8a35acfbc15ff81a39ae7d344fd709f28e8600b4aa8c65c6b64bfe7fe36bd19b01805493945084939092839160ff1916908360038111156115ae576115ae612640565b0217905550602082015181546001600160a01b0390911661010002610100600160a81b031990911617815560408201516001808301919091556060830151600283015560809092015160039091015560048054909161160c91612580565b8154811061161c5761161c612656565b90600052602060002090600402019150509392505050565b6000816003015460001461168a5760405162461bcd60e51b815260206004820152601c60248201527f5472616e73616374696f6e20697320616c726561647920706179656400000000604482015260640161086c565b4260038301556000825460ff1660038111156116a8576116a8612640565b14156116bb576106e58260010154611b0e565b815460018301546106e59161010090046001600160a01b031690611ba7565b6115028133611bf6565b6116ee8282610f7f565b61087f5760008281526001602081815260408084206001600160a01b0386168086529252808420805460ff19169093179092559051339285917f2f8788117e7eff1d82e926ec794901d17c78024a50270940304540a733656f0d9190a45050565b6117598282610f7f565b1561087f5760008281526001602090815260408083206001600160a01b0385168085529252808320805460ff1916905551339285917ff6391f5c32d9c69d2a47ea670b442974b53935d1edc7fd64eb21e047a839171b9190a45050565b6000806117c284610d4d565b9050806117d35760009150506106e5565b6117dd8382612527565b949350505050565b6117ed611917565b1561180b57604051632e08f66d60e11b815260040160405180910390fd5b61087f8282611c5a565b600360009054906101000a90046001600160a01b03166001600160a01b031663985bdacb6040518163ffffffff1660e01b8152600401600060405180830381600087803b15801561186557600080fd5b505af1158015611879573d6000803e3d6000fd5b505050506000611887611c8a565b90506118a760033383611898610749565b6118a29190612580565b61150f565b5080156115025760055461087f906001906001600160a01b03168361150f565b600080546001600160a01b038381166001600160a01b0319831681178455604051919092169283917f8be0079c531659141344cd1fd0a4f28419497f9722a3daafe3b4186f6b6457e09190a35050565b6004546000905b80156119f65760006004611933600184612580565b8154811061194357611943612656565b600091825260209091206040805160a081019091526004909202018054829060ff16600381111561197657611976612640565b600381111561198757611987612640565b8152815461010090046001600160a01b031660208201526001820154604082015260028201546060820152600391820154608090910152909150815160038111156119d4576119d4612640565b14156119e35760019250505090565b50806119ee816125c3565b91505061191e565b506000905090565b60408051600480825260a08201909252606091600091906020820160808036833701905050905060005b600454811015611acc5760048181548110611a4557611a45612656565b9060005260206000209060040201600101548260048381548110611a6b57611a6b612656565b600091825260209091206004909102015460ff166003811115611a9057611a90612640565b60ff1681518110611aa357611aa3612656565b60200260200101818151611ab79190612527565b90525080611ac48161260f565b915050611a28565b50919050565b60006107c542611dc2565b60085460ff16158015611af05750815115155b1561087f576040516341df992760e01b815260040160405180910390fd5b600080336002546040516323b872dd60e01b81526001600160a01b038084166004830152306024830152604482018790529293509116906323b872dd90606401602060405180830381600087803b158015611b6857600080fd5b505af1158015611b7c573d6000803e3d6000fd5b505050506040513d601f19601f82011682018060405250810190611ba09190612197565b9392505050565b60025460405163a9059cbb60e01b81526001600160a01b03848116600483015260248201849052600092169063a9059cbb90604401602060405180830381600087803b158015611b6857600080fd5b611c008282610f7f565b61087f57611c18816001600160a01b03166014611e95565b611c23836020611e95565b604051602001611c3492919061226d565b60408051601f198184030181529082905262461bcd60e51b825261086c91600401612378565b600b5460ff16158015611c6c57504281115b1561087f57604051631bc5fe1160e31b815260040160405180910390fd5b6000611d5d6004805480602002602001604051908101604052809291908181526020016000905b82821015610c6e576000848152602090206040805160a08101909152600484029091018054829060ff166003811115611cec57611cec612640565b6003811115611cfd57611cfd612640565b81526020016000820160019054906101000a90046001600160a01b03166001600160a01b03166001600160a01b03168152602001600182015481526020016002820154815260200160038201548152505081526020019060010190611cb1565b421115611d6a5750600090565b6000611d746119fe565b80516002908110611d8757611d87612656565b60200260200101519050612710600b60019054906101000a900460ff1660ff1682611db29190612561565b611dbc919061253f565b91505090565b6000610e8e6004805480602002602001604051908101604052809291908181526020016000905b82821015610aae576000848152602090206040805160a08101909152600484029091018054829060ff166003811115611e2457611e24612640565b6003811115611e3557611e35612640565b81526020016000820160019054906101000a90046001600160a01b03166001600160a01b03166001600160a01b03168152602001600182015481526020016002820154815260200160038201548152505081526020019060010190611de9565b60606000611ea4836002612561565b611eaf906002612527565b67ffffffffffffffff811115611ec757611ec761266c565b6040519080825280601f01601f191660200182016040528015611ef1576020820181803683370190505b509050600360fc1b81600081518110611f0c57611f0c612656565b60200101906001600160f81b031916908160001a905350600f60fb1b81600181518110611f3b57611f3b612656565b60200101906001600160f81b031916908160001a9053506000611f5f846002612561565b611f6a906001612527565b90505b6001811115611fe2576f181899199a1a9b1b9c1cb0b131b232b360811b85600f1660108110611f9e57611f9e612656565b1a60f81b828281518110611fb457611fb4612656565b60200101906001600160f81b031916908160001a90535060049490941c93611fdb816125c3565b9050611f6d565b508315611ba05760405162461bcd60e51b815260206004820181905260248201527f537472696e67733a20686578206c656e67746820696e73756666696369656e74604482015260640161086c565b80356001600160a01b038116811461204857600080fd5b919050565b60006020828403121561205f57600080fd5b611ba082612031565b6000806040838503121561207b57600080fd5b61208483612031565b946020939093013593505050565b600060208083850312156120a557600080fd5b823567ffffffffffffffff808211156120bd57600080fd5b818501915085601f8301126120d157600080fd5b8135818111156120e3576120e361266c565b6120f1848260051b016124f6565b818152848101925083850160a0808402860187018a101561211157600080fd5b600095505b838610156121895780828b03121561212d57600080fd5b6121356124cd565b82356004811061214457600080fd5b8152612151838901612031565b818901526040838101359082015260608084013590820152608080840135908201528552600195909501949386019390810190612116565b509098975050505050505050565b6000602082840312156121a957600080fd5b81518015158114611ba057600080fd5b6000602082840312156121cb57600080fd5b5035919050565b600080604083850312156121e557600080fd5b823591506121f560208401612031565b90509250929050565b60006020828403121561221057600080fd5b81356001600160e01b031981168114611ba057600080fd5b60006020828403121561223a57600080fd5b5051919050565b60008151808452612259816020860160208601612597565b601f01601f19169290920160200192915050565b7f416363657373436f6e74726f6c3a206163636f756e74200000000000000000008152600083516122a5816017850160208801612597565b7001034b99036b4b9b9b4b733903937b6329607d1b60179184019182015283516122d6816028840160208801612597565b01602801949350505050565b60208082528251828201819052600091906040908185019086840185805b8381101561236a5782518051600480821061232857634e487b7160e01b855260218152602485fd5b508652808801516001600160a01b0316888701528681015187870152606080820151908701526080908101519086015260a09094019391860191600101612300565b509298975050505050505050565b602081526000611ba06020830184612241565b6020808252818101527f4f776e61626c653a2063616c6c6572206973206e6f7420746865206f776e6572604082015260600190565b6020815281516020820152602082015160408201526040820151606082015260608201516080820152608082015160a082015260a082015160c0820152600060c083015161241260e084018215159052565b5060e08301516101006124288185018315159052565b840151905061012061243d8482018315159052565b84015190506101406124528482018315159052565b84015190506101606124678482018315159052565b840151610180848101919091528401516101a0808501919091528401516102006101c0808601829052919250906124a2610220860184612241565b908601519092506101e06124ba8682018360ff169052565b9095015160ff1693019290925250919050565b60405160a0810167ffffffffffffffff811182821017156124f0576124f061266c565b60405290565b604051601f8201601f1916810167ffffffffffffffff8111828210171561251f5761251f61266c565b604052919050565b6000821982111561253a5761253a61262a565b500190565b60008261255c57634e487b7160e01b600052601260045260246000fd5b500490565b600081600019048311821515161561257b5761257b61262a565b500290565b6000828210156125925761259261262a565b500390565b60005b838110156125b257818101518382015260200161259a565b838111156106dc5750506000910152565b6000816125d2576125d261262a565b506000190190565b600181811c908216806125ee57607f821691505b60208210811415611acc57634e487b7160e01b600052602260045260246000fd5b60006000198214156126235761262361262a565b5060010190565b634e487b7160e01b600052601160045260246000fd5b634e487b7160e01b600052602160045260246000fd5b634e487b7160e01b600052603260045260246000fd5b634e487b7160e01b600052604160045260246000fdfea2646970667358221220b41f122524efd885be59f97697cd9341cab538cd645ad69300cd06d8bc88652e64736f6c63430008070033",
  "immutableReferences": {},
  "source": "// SPDX-License-Identifier: MIT\npragma solidity 0.8.7;\n\nimport \"@openzeppelin/contracts/security/ReentrancyGuard.sol\";\n\nimport \"./BaseDeposit.sol\";\nimport \"./ILaunchpool.sol\";\n\nimport \"./Condition/AmountCondition.sol\";\nimport \"./Condition/DepositCondition.sol\";\nimport \"./Condition/PeriodCondition.sol\";\nimport \"./Condition/TerminationCondition.sol\";\n\ncontract Deposit is\n    BaseDeposit,\n    AmountCondition,\n    DepositCondition,\n    PeriodCondition,\n    TerminationCondition,\n    ReentrancyGuard\n{\n    string private _program;\n\n    uint8 private _rate;\n\n    error DepositAlreadyWithdrawed();\n\n    constructor(\n        ILaunchpool launchpool,\n        IBankAccount treasury,\n        Deposit.ProgramParameters memory parameters\n    )\n        BaseDeposit(launchpool, treasury)\n        AmountCondition(parameters.amountMaximum, parameters.amountMinimum)\n        DepositCondition(parameters.isDepositable)\n        PeriodCondition(parameters.periodMaximum, parameters.periodMinimum)\n        TerminationCondition(\n            parameters.isTerminatable,\n            parameters.terminationPenalty\n        )\n    {\n        _program = parameters.program;\n        _rate = parameters.rate;\n    }\n\n    receive() external payable {\n        _deposit(msg.sender, msg.value / 10**18);\n    }\n\n    function isActive() public view returns (bool) {\n        return isActive(block.timestamp);\n    }\n\n    function isActive(uint256 date) public view returns (bool) {\n        return\n            date < _getPeriodDateTime(_transactions, _periodMaximum) &&\n            !_isWithdrawed();\n    }\n\n    function getBaseToCalculateReward(uint256 date)\n        external\n        view\n        returns (uint256)\n    {\n        return (_getDepositedAmountOnDate(date) * _rate) / 10**2;\n    }\n\n    function getBeginDateTime() public view returns (uint256) {\n        return getBeginDateTime(_transactions);\n    }\n\n    function getParameters()\n        external\n        view\n        returns (BaseDeposit.DepositParameters memory)\n    {\n        return\n            BaseDeposit.DepositParameters({\n                amount: getBalance(),\n                amountDeposit: _getTransactionsAmounts()[\n                    uint8(TransactionKind.DEPOSIT)\n                ],\n                amountMaximum: _amountMaximum,\n                amountMinimum: _amountMinimum,\n                amountReward: _getTransactionsAmounts()[\n                    uint8(TransactionKind.REWARD)\n                ],\n                beginDateTime: getBeginDateTime(),\n                isActive: isActive(),\n                isDepositable: _isDepositable,\n                isTerminatable: _isTerminatable,\n                isWithdrawable: _isWithdrawable(),\n                isWithdrawed: _isWithdrawed(),\n                periodMaximum: _periodMaximum,\n                periodMinimum: _periodMinimum,\n                program: _program,\n                rate: _rate,\n                terminationPenalty: _terminationPenalty\n            });\n    }\n\n    function getPeriodMaximumDateTime() external view returns (uint256) {\n        return _getPeriodDateTime(_transactions, _periodMaximum);\n    }\n\n    function getPeriodMinimumDateTime() external view returns (uint256) {\n        return _getPeriodDateTime(_transactions, _periodMinimum);\n    }\n\n    function getProgram() external view returns (string memory) {\n        return _program;\n    }\n\n    function getRate() external view returns (uint8) {\n        return _rate;\n    }\n\n    function withdraw() external onlyOwner nonReentrant {\n        _preValidateWithdraw(\n            _transactions,\n            _getPeriodDateTime(_transactions, _periodMinimum)\n        );\n\n        _close();\n\n        for (uint256 i = 0; i < _transactions.length; i++) {\n            if (\n                _transactions[i].kind == TransactionKind.PENALTY ||\n                _transactions[i].kind == TransactionKind.WITHDRAW\n            ) {\n                _transfer(_transactions[i]);\n            }\n        }\n    }\n\n    function _close() private {\n        _launchpool.transferDailyRewards();\n\n        uint256 amountPenalty = _getAmountPenalty();\n\n        _addTransaction(\n            TransactionKind.WITHDRAW,\n            _msgSender(),\n            getBalance() - amountPenalty\n        );\n\n        if (amountPenalty > 0) {\n            _addTransaction(\n                TransactionKind.PENALTY,\n                address(_treasury),\n                amountPenalty\n            );\n        }\n    }\n\n    function _deposit(address sender, uint256 amount) private {\n        _preValidateDeposit(_transactions, amount);\n\n        Transaction storage transaction = _addTransaction(\n            TransactionKind.DEPOSIT,\n            sender,\n            amount\n        );\n\n        _transfer(transaction);\n    }\n\n    function _isWithdrawable() private view returns (bool) {\n        return _isWithdrawable(block.timestamp);\n    }\n\n    function _isWithdrawable(uint256 date) private view returns (bool) {\n        return\n            date < _getPeriodDateTime(_transactions, _periodMinimum) &&\n            !_isWithdrawed();\n    }\n\n    function _isWithdrawed() private view returns (bool) {\n        for (uint256 i = _transactions.length; i > 0; i--) {\n            Transaction memory transaction = _transactions[i - 1];\n\n            if (transaction.kind == TransactionKind.WITHDRAW) {\n                return true;\n            }\n        }\n\n        return false;\n    }\n\n    function _getAmountPenalty() private view returns (uint256) {\n        if (\n            block.timestamp > _getPeriodDateTime(_transactions, _periodMaximum)\n        ) {\n            return 0;\n        }\n\n        uint256 amountReward = _getTransactionsAmounts()[\n            uint8(TransactionKind.REWARD)\n        ];\n\n        return (amountReward * _terminationPenalty) / 10**4;\n    }\n\n    function _preValidateDeposit(\n        Transaction[] memory transactions,\n        uint256 amount\n    ) internal view override(AmountCondition, DepositCondition) {\n        super._preValidateDeposit(transactions, amount);\n    }\n\n    function _preValidateWithdraw(\n        Transaction[] memory transactions,\n        uint256 periodMinimumDateTime\n    ) internal view override(PeriodCondition, TerminationCondition) {\n        if (_isWithdrawed()) {\n            revert DepositAlreadyWithdrawed();\n        }\n\n        super._preValidateWithdraw(transactions, periodMinimumDateTime);\n    }\n}\n",
  "sourcePath": "/Users/ievgencherkaskyi/Projects/tivan/launchpool/contracts/Launchpool/Deposit.sol",
  "compiler": {
    "name": "solc",
    "version": "0.8.7+commit.e28d00a7.Emscripten.clang"
  },
  "schemaVersion": "3.4.7",
  "updatedAt": "2022-06-14T21:54:05.167Z",
  "devdoc": {
    "kind": "dev",
    "methods": {
      "getRoleAdmin(bytes32)": {
        "details": "Returns the admin role that controls `role`. See {grantRole} and {revokeRole}. To change a role's admin, use {_setRoleAdmin}."
      },
      "grantRole(bytes32,address)": {
        "details": "Grants `role` to `account`. If `account` had not been already granted `role`, emits a {RoleGranted} event. Requirements: - the caller must have ``role``'s admin role."
      },
      "hasRole(bytes32,address)": {
        "details": "Returns `true` if `account` has been granted `role`."
      },
      "owner()": {
        "details": "Returns the address of the current owner."
      },
      "renounceOwnership()": {
        "details": "Leaves the contract without owner. It will not be possible to call `onlyOwner` functions anymore. Can only be called by the current owner. NOTE: Renouncing ownership will leave the contract without an owner, thereby removing any functionality that is only available to the owner."
      },
      "renounceRole(bytes32,address)": {
        "details": "Revokes `role` from the calling account. Roles are often managed via {grantRole} and {revokeRole}: this function's purpose is to provide a mechanism for accounts to lose their privileges if they are compromised (such as when a trusted device is misplaced). If the calling account had been revoked `role`, emits a {RoleRevoked} event. Requirements: - the caller must be `account`."
      },
      "revokeRole(bytes32,address)": {
        "details": "Revokes `role` from `account`. If `account` had been granted `role`, emits a {RoleRevoked} event. Requirements: - the caller must have ``role``'s admin role."
      },
      "supportsInterface(bytes4)": {
        "details": "See {IERC165-supportsInterface}."
      },
      "transferOwnership(address)": {
        "details": "Transfers ownership of the contract to a new account (`newOwner`). Can only be called by the current owner."
      }
    },
    "version": 1
  },
  "userdoc": {
    "kind": "user",
    "methods": {},
    "version": 1
  }
}