{
  "contractName": "Deposit",
  "abi": [
    {
      "inputs": [
        {
          "internalType": "contract ILaunchpool",
          "name": "launchpool",
          "type": "address"
        },
        {
          "internalType": "contract IBankAccount",
          "name": "treasury",
          "type": "address"
        },
        {
          "components": [
            {
              "internalType": "uint256",
              "name": "amountMaximum",
              "type": "uint256"
            },
            {
              "internalType": "uint256",
              "name": "amountMinimum",
              "type": "uint256"
            },
            {
              "internalType": "bool",
              "name": "isDepositable",
              "type": "bool"
            },
            {
              "internalType": "bool",
              "name": "isTerminatable",
              "type": "bool"
            },
            {
              "internalType": "uint256",
              "name": "periodMaximum",
              "type": "uint256"
            },
            {
              "internalType": "uint256",
              "name": "periodMinimum",
              "type": "uint256"
            },
            {
              "internalType": "string",
              "name": "program",
              "type": "string"
            },
            {
              "internalType": "uint8",
              "name": "rate",
              "type": "uint8"
            },
            {
              "internalType": "uint8",
              "name": "terminationPenalty",
              "type": "uint8"
            }
          ],
          "internalType": "struct BaseDeposit.ProgramParameters",
          "name": "parameters",
          "type": "tuple"
        }
      ],
      "stateMutability": "nonpayable",
      "type": "constructor"
    },
    {
      "inputs": [
        {
          "internalType": "uint256",
          "name": "amountMaximum",
          "type": "uint256"
        },
        {
          "internalType": "uint256",
          "name": "amount",
          "type": "uint256"
        }
      ],
      "name": "AmountMaximumConstraint",
      "type": "error"
    },
    {
      "inputs": [
        {
          "internalType": "uint256",
          "name": "amountMinimum",
          "type": "uint256"
        },
        {
          "internalType": "uint256",
          "name": "amount",
          "type": "uint256"
        }
      ],
      "name": "AmountMinimumConstraint",
      "type": "error"
    },
    {
      "inputs": [],
      "name": "DepositAlreadyWithdrawed",
      "type": "error"
    },
    {
      "inputs": [],
      "name": "DepositConstraint",
      "type": "error"
    },
    {
      "inputs": [
        {
          "internalType": "uint256",
          "name": "periodMinimumDateTime",
          "type": "uint256"
        }
      ],
      "name": "PeriodMinimumConstraint",
      "type": "error"
    },
    {
      "inputs": [],
      "name": "TerminationConstraint",
      "type": "error"
    },
    {
      "anonymous": false,
      "inputs": [
        {
          "indexed": true,
          "internalType": "address",
          "name": "previousOwner",
          "type": "address"
        },
        {
          "indexed": true,
          "internalType": "address",
          "name": "newOwner",
          "type": "address"
        }
      ],
      "name": "OwnershipTransferred",
      "type": "event"
    },
    {
      "anonymous": false,
      "inputs": [
        {
          "indexed": true,
          "internalType": "bytes32",
          "name": "role",
          "type": "bytes32"
        },
        {
          "indexed": true,
          "internalType": "bytes32",
          "name": "previousAdminRole",
          "type": "bytes32"
        },
        {
          "indexed": true,
          "internalType": "bytes32",
          "name": "newAdminRole",
          "type": "bytes32"
        }
      ],
      "name": "RoleAdminChanged",
      "type": "event"
    },
    {
      "anonymous": false,
      "inputs": [
        {
          "indexed": true,
          "internalType": "bytes32",
          "name": "role",
          "type": "bytes32"
        },
        {
          "indexed": true,
          "internalType": "address",
          "name": "account",
          "type": "address"
        },
        {
          "indexed": true,
          "internalType": "address",
          "name": "sender",
          "type": "address"
        }
      ],
      "name": "RoleGranted",
      "type": "event"
    },
    {
      "anonymous": false,
      "inputs": [
        {
          "indexed": true,
          "internalType": "bytes32",
          "name": "role",
          "type": "bytes32"
        },
        {
          "indexed": true,
          "internalType": "address",
          "name": "account",
          "type": "address"
        },
        {
          "indexed": true,
          "internalType": "address",
          "name": "sender",
          "type": "address"
        }
      ],
      "name": "RoleRevoked",
      "type": "event"
    },
    {
      "inputs": [],
      "name": "DEFAULT_ADMIN_ROLE",
      "outputs": [
        {
          "internalType": "bytes32",
          "name": "",
          "type": "bytes32"
        }
      ],
      "stateMutability": "view",
      "type": "function"
    },
    {
      "inputs": [],
      "name": "REWARD_ROLE",
      "outputs": [
        {
          "internalType": "bytes32",
          "name": "",
          "type": "bytes32"
        }
      ],
      "stateMutability": "view",
      "type": "function"
    },
    {
      "inputs": [
        {
          "internalType": "uint256",
          "name": "date",
          "type": "uint256"
        }
      ],
      "name": "_getDepositedAmountOnDate",
      "outputs": [
        {
          "internalType": "uint256",
          "name": "",
          "type": "uint256"
        }
      ],
      "stateMutability": "view",
      "type": "function"
    },
    {
      "inputs": [],
      "name": "getBalance",
      "outputs": [
        {
          "internalType": "uint256",
          "name": "",
          "type": "uint256"
        }
      ],
      "stateMutability": "view",
      "type": "function"
    },
    {
      "inputs": [],
      "name": "getLaunchpool",
      "outputs": [
        {
          "internalType": "contract ILaunchpool",
          "name": "",
          "type": "address"
        }
      ],
      "stateMutability": "view",
      "type": "function"
    },
    {
      "inputs": [
        {
          "internalType": "bytes32",
          "name": "role",
          "type": "bytes32"
        }
      ],
      "name": "getRoleAdmin",
      "outputs": [
        {
          "internalType": "bytes32",
          "name": "",
          "type": "bytes32"
        }
      ],
      "stateMutability": "view",
      "type": "function"
    },
    {
      "inputs": [],
      "name": "getToken",
      "outputs": [
        {
          "internalType": "contract IERC20",
          "name": "",
          "type": "address"
        }
      ],
      "stateMutability": "view",
      "type": "function"
    },
    {
      "inputs": [],
      "name": "getTransactions",
      "outputs": [
        {
          "components": [
            {
              "internalType": "enum BaseDeposit.TransactionKind",
              "name": "kind",
              "type": "uint8"
            },
            {
              "internalType": "address",
              "name": "account",
              "type": "address"
            },
            {
              "internalType": "uint256",
              "name": "amount",
              "type": "uint256"
            },
            {
              "internalType": "uint256",
              "name": "created",
              "type": "uint256"
            },
            {
              "internalType": "uint256",
              "name": "payed",
              "type": "uint256"
            }
          ],
          "internalType": "struct BaseDeposit.Transaction[]",
          "name": "",
          "type": "tuple[]"
        }
      ],
      "stateMutability": "view",
      "type": "function"
    },
    {
      "inputs": [],
      "name": "getTreasury",
      "outputs": [
        {
          "internalType": "contract IBankAccount",
          "name": "",
          "type": "address"
        }
      ],
      "stateMutability": "view",
      "type": "function"
    },
    {
      "inputs": [
        {
          "internalType": "bytes32",
          "name": "role",
          "type": "bytes32"
        },
        {
          "internalType": "address",
          "name": "account",
          "type": "address"
        }
      ],
      "name": "grantRole",
      "outputs": [],
      "stateMutability": "nonpayable",
      "type": "function"
    },
    {
      "inputs": [
        {
          "internalType": "bytes32",
          "name": "role",
          "type": "bytes32"
        },
        {
          "internalType": "address",
          "name": "account",
          "type": "address"
        }
      ],
      "name": "hasRole",
      "outputs": [
        {
          "internalType": "bool",
          "name": "",
          "type": "bool"
        }
      ],
      "stateMutability": "view",
      "type": "function"
    },
    {
      "inputs": [],
      "name": "owner",
      "outputs": [
        {
          "internalType": "address",
          "name": "",
          "type": "address"
        }
      ],
      "stateMutability": "view",
      "type": "function"
    },
    {
      "inputs": [],
      "name": "renounceOwnership",
      "outputs": [],
      "stateMutability": "nonpayable",
      "type": "function"
    },
    {
      "inputs": [
        {
          "internalType": "bytes32",
          "name": "role",
          "type": "bytes32"
        },
        {
          "internalType": "address",
          "name": "account",
          "type": "address"
        }
      ],
      "name": "renounceRole",
      "outputs": [],
      "stateMutability": "nonpayable",
      "type": "function"
    },
    {
      "inputs": [
        {
          "internalType": "bytes32",
          "name": "role",
          "type": "bytes32"
        },
        {
          "internalType": "address",
          "name": "account",
          "type": "address"
        }
      ],
      "name": "revokeRole",
      "outputs": [],
      "stateMutability": "nonpayable",
      "type": "function"
    },
    {
      "inputs": [
        {
          "internalType": "uint256",
          "name": "amount",
          "type": "uint256"
        }
      ],
      "name": "reward",
      "outputs": [],
      "stateMutability": "nonpayable",
      "type": "function"
    },
    {
      "inputs": [
        {
          "internalType": "bytes4",
          "name": "interfaceId",
          "type": "bytes4"
        }
      ],
      "name": "supportsInterface",
      "outputs": [
        {
          "internalType": "bool",
          "name": "",
          "type": "bool"
        }
      ],
      "stateMutability": "view",
      "type": "function"
    },
    {
      "inputs": [
        {
          "internalType": "address",
          "name": "",
          "type": "address"
        },
        {
          "internalType": "uint256",
          "name": "",
          "type": "uint256"
        }
      ],
      "name": "transferFrom",
      "outputs": [
        {
          "internalType": "bool",
          "name": "",
          "type": "bool"
        }
      ],
      "stateMutability": "pure",
      "type": "function"
    },
    {
      "inputs": [
        {
          "internalType": "address",
          "name": "newOwner",
          "type": "address"
        }
      ],
      "name": "transferOwnership",
      "outputs": [],
      "stateMutability": "nonpayable",
      "type": "function"
    },
    {
      "inputs": [
        {
          "internalType": "address",
          "name": "",
          "type": "address"
        },
        {
          "internalType": "uint256",
          "name": "",
          "type": "uint256"
        }
      ],
      "name": "transferTo",
      "outputs": [
        {
          "internalType": "bool",
          "name": "",
          "type": "bool"
        }
      ],
      "stateMutability": "pure",
      "type": "function"
    },
    {
      "stateMutability": "payable",
      "type": "receive"
    },
    {
      "inputs": [],
      "name": "isActive",
      "outputs": [
        {
          "internalType": "bool",
          "name": "",
          "type": "bool"
        }
      ],
      "stateMutability": "view",
      "type": "function"
    },
    {
      "inputs": [
        {
          "internalType": "uint256",
          "name": "date",
          "type": "uint256"
        }
      ],
      "name": "isActive",
      "outputs": [
        {
          "internalType": "bool",
          "name": "",
          "type": "bool"
        }
      ],
      "stateMutability": "view",
      "type": "function"
    },
    {
      "inputs": [
        {
          "internalType": "uint256",
          "name": "amount",
          "type": "uint256"
        }
      ],
      "name": "deposit",
      "outputs": [],
      "stateMutability": "payable",
      "type": "function"
    },
    {
      "inputs": [
        {
          "internalType": "uint256",
          "name": "date",
          "type": "uint256"
        }
      ],
      "name": "getBaseToCalculateReward",
      "outputs": [
        {
          "internalType": "uint256",
          "name": "",
          "type": "uint256"
        }
      ],
      "stateMutability": "view",
      "type": "function"
    },
    {
      "inputs": [
        {
          "components": [
            {
              "internalType": "enum BaseDeposit.TransactionKind",
              "name": "kind",
              "type": "uint8"
            },
            {
              "internalType": "address",
              "name": "account",
              "type": "address"
            },
            {
              "internalType": "uint256",
              "name": "amount",
              "type": "uint256"
            },
            {
              "internalType": "uint256",
              "name": "created",
              "type": "uint256"
            },
            {
              "internalType": "uint256",
              "name": "payed",
              "type": "uint256"
            }
          ],
          "internalType": "struct BaseDeposit.Transaction[]",
          "name": "transactions",
          "type": "tuple[]"
        }
      ],
      "name": "getBeginDateTime",
      "outputs": [
        {
          "internalType": "uint256",
          "name": "",
          "type": "uint256"
        }
      ],
      "stateMutability": "pure",
      "type": "function"
    },
    {
      "inputs": [],
      "name": "getBeginDateTime",
      "outputs": [
        {
          "internalType": "uint256",
          "name": "",
          "type": "uint256"
        }
      ],
      "stateMutability": "view",
      "type": "function"
    },
    {
      "inputs": [],
      "name": "getParameters",
      "outputs": [
        {
          "components": [
            {
              "internalType": "uint256",
              "name": "amount",
              "type": "uint256"
            },
            {
              "internalType": "uint256",
              "name": "amountDeposit",
              "type": "uint256"
            },
            {
              "internalType": "uint256",
              "name": "amountMaximum",
              "type": "uint256"
            },
            {
              "internalType": "uint256",
              "name": "amountMinimum",
              "type": "uint256"
            },
            {
              "internalType": "uint256",
              "name": "amountReward",
              "type": "uint256"
            },
            {
              "internalType": "uint256",
              "name": "beginDateTime",
              "type": "uint256"
            },
            {
              "internalType": "bool",
              "name": "isActive",
              "type": "bool"
            },
            {
              "internalType": "bool",
              "name": "isDepositable",
              "type": "bool"
            },
            {
              "internalType": "bool",
              "name": "isTerminatable",
              "type": "bool"
            },
            {
              "internalType": "bool",
              "name": "isWithdrawable",
              "type": "bool"
            },
            {
              "internalType": "bool",
              "name": "isWithdrawed",
              "type": "bool"
            },
            {
              "internalType": "uint256",
              "name": "periodMaximum",
              "type": "uint256"
            },
            {
              "internalType": "uint256",
              "name": "periodMinimum",
              "type": "uint256"
            },
            {
              "internalType": "string",
              "name": "program",
              "type": "string"
            },
            {
              "internalType": "uint8",
              "name": "rate",
              "type": "uint8"
            },
            {
              "internalType": "uint8",
              "name": "terminationPenalty",
              "type": "uint8"
            }
          ],
          "internalType": "struct BaseDeposit.DepositParameters",
          "name": "",
          "type": "tuple"
        }
      ],
      "stateMutability": "view",
      "type": "function"
    },
    {
      "inputs": [],
      "name": "getPeriodMaximumDateTime",
      "outputs": [
        {
          "internalType": "uint256",
          "name": "",
          "type": "uint256"
        }
      ],
      "stateMutability": "view",
      "type": "function"
    },
    {
      "inputs": [],
      "name": "getPeriodMinimumDateTime",
      "outputs": [
        {
          "internalType": "uint256",
          "name": "",
          "type": "uint256"
        }
      ],
      "stateMutability": "view",
      "type": "function"
    },
    {
      "inputs": [],
      "name": "getProgram",
      "outputs": [
        {
          "internalType": "string",
          "name": "",
          "type": "string"
        }
      ],
      "stateMutability": "view",
      "type": "function"
    },
    {
      "inputs": [],
      "name": "getRate",
      "outputs": [
        {
          "internalType": "uint8",
          "name": "",
          "type": "uint8"
        }
      ],
      "stateMutability": "view",
      "type": "function"
    },
    {
      "inputs": [],
      "name": "withdraw",
      "outputs": [],
      "stateMutability": "nonpayable",
      "type": "function"
    }
  ],
  "bytecode": "0x60806040523480156200001157600080fd5b5060405162002cf438038062002cf4833981016040819052620000349162000459565b806060015181610100015182608001518360a001518460400151856000015186602001518989806001600160a01b03166321df0da76040518163ffffffff1660e01b815260040160206040518083038186803b1580156200009457600080fd5b505afa158015620000a9573d6000803e3d6000fd5b505050506040513d601f19601f82011682018060405250810190620000cf919062000432565b620000da33620001f6565b600280546001600160a01b0319166001600160a01b03831617905550600380546001600160a01b038085166001600160a01b031992831681179093556005805491851691909216179055620001329060009062000246565b6003546200016b907fc002a6b5f9f56101ba6339b1b95d171fadf6e41e005b91c80d686aef7516e759906001600160a01b031662000246565b50506006919091556007556008805460ff1916911515919091179055600991909155600a55600b805461ffff191692151561ff0019169290921761010060ff92909216919091021790556001600c5560c08101518051620001d591600d91602090910190620002cf565b5060e00151600e805460ff191660ff909216919091179055506200063d9050565b600080546001600160a01b038381166001600160a01b0319831681178455604051919092169283917f8be0079c531659141344cd1fd0a4f28419497f9722a3daafe3b4186f6b6457e09190a35050565b60008281526001602090815260408083206001600160a01b038516845290915290205460ff16620002cb5760008281526001602081815260408084206001600160a01b0386168086529252808420805460ff19169093179092559051339285917f2f8788117e7eff1d82e926ec794901d17c78024a50270940304540a733656f0d9190a45b5050565b828054620002dd90620005d1565b90600052602060002090601f0160209004810192826200030157600085556200034c565b82601f106200031c57805160ff19168380011785556200034c565b828001600101855582156200034c579182015b828111156200034c5782518255916020019190600101906200032f565b506200035a9291506200035e565b5090565b5b808211156200035a57600081556001016200035f565b805180151581146200038657600080fd5b919050565b600082601f8301126200039d57600080fd5b81516001600160401b03811115620003b957620003b96200060e565b6020620003cf601f8301601f191682016200059e565b8281528582848701011115620003e457600080fd5b60005b8381101562000404578581018301518282018401528201620003e7565b83811115620004165760008385840101525b5095945050505050565b805160ff811681146200038657600080fd5b6000602082840312156200044557600080fd5b8151620004528162000624565b9392505050565b6000806000606084860312156200046f57600080fd5b83516200047c8162000624565b60208501519093506200048f8162000624565b60408501519092506001600160401b0380821115620004ad57600080fd5b908501906101208288031215620004c357600080fd5b620004cd62000572565b8251815260208301516020820152620004e96040840162000375565b6040820152620004fc6060840162000375565b60608201526080830151608082015260a083015160a082015260c0830151828111156200052857600080fd5b62000536898286016200038b565b60c0830152506200054a60e0840162000420565b60e082015261010091506200056182840162000420565b828201528093505050509250925092565b60405161012081016001600160401b03811182821017156200059857620005986200060e565b60405290565b604051601f8201601f191681016001600160401b0381118282101715620005c957620005c96200060e565b604052919050565b600181811c90821680620005e657607f821691505b602082108114156200060857634e487b7160e01b600052602260045260246000fd5b50919050565b634e487b7160e01b600052604160045260246000fd5b6001600160a01b03811681146200063a57600080fd5b50565b6126a7806200064d6000396000f3fe6080604052600436106101e75760003560e01c80636aca845e11610102578063a9f1778211610095578063d547741f11610064578063d547741f14610551578063e8884f2b14610571578063e8cf51b0146105a5578063f2fde38b146105c557600080fd5b8063a9f17782146104e7578063a9fb763c146104fc578063b31cf9841461051c578063b6b55f251461053e57600080fd5b80638da5cb5b116100d15780638da5cb5b1461047257806391d1485414610490578063a217fddf146104b0578063a5ea11da146104c557600080fd5b80636aca845e146103fb578063715018a61461041b57806382afd23b1461043057806383920e901461045057600080fd5b80632f2ff15d1161017a5780635032d220116101495780635032d2201461039157806351e2412d146103a65780635dc181b3146103bb578063679aefce146103d957600080fd5b80632f2ff15d1461031e57806336568abe1461033e5780633b19e84a1461035e5780633ccfd60b1461037c57600080fd5b806321df0da7116101b657806321df0da7146102a657806322f3e2d4146102d8578063248a9ca3146102ed5780632ccb1b301461020e57600080fd5b806301c6adc31461020e57806301ffc9a714610243578063077763701461026357806312065fe01461029157600080fd5b366102095761020733610202670de0b6b3a76400003461252e565b6105e5565b005b600080fd5b34801561021a57600080fd5b5061022e610229366004612057565b6106df565b60405190151581526020015b60405180910390f35b34801561024f57600080fd5b5061022e61025e3660046121ed565b6106e8565b34801561026f57600080fd5b5061028361027e3660046121a8565b61071d565b60405190815260200161023a565b34801561029d57600080fd5b50610283610746565b3480156102b257600080fd5b506002546001600160a01b03165b6040516001600160a01b03909116815260200161023a565b3480156102e457600080fd5b5061022e6107c7565b3480156102f957600080fd5b506102836103083660046121a8565b6000908152600160208190526040909120015490565b34801561032a57600080fd5b506102076103393660046121c1565b6107d2565b34801561034a57600080fd5b506102076103593660046121c1565b6107fd565b34801561036a57600080fd5b506005546001600160a01b03166102c0565b34801561038857600080fd5b50610207610880565b34801561039d57600080fd5b50610283610b98565b3480156103b257600080fd5b50610283610c77565b3480156103c757600080fd5b506003546001600160a01b03166102c0565b3480156103e557600080fd5b50600e5460405160ff909116815260200161023a565b34801561040757600080fd5b50610283610416366004612081565b610d4a565b34801561042757600080fd5b50610207610d82565b34801561043c57600080fd5b5061022e61044b3660046121a8565b610db8565b34801561045c57600080fd5b50610465610ea3565b60405161023a91906122d1565b34801561047e57600080fd5b506000546001600160a01b03166102c0565b34801561049c57600080fd5b5061022e6104ab3660046121c1565b610f7c565b3480156104bc57600080fd5b50610283600081565b3480156104d157600080fd5b506104da610fa7565b60405161023a91906123af565b3480156104f357600080fd5b506102836111c1565b34801561050857600080fd5b506102076105173660046121a8565b61129d565b34801561052857600080fd5b506105316112d5565b60405161023a9190612367565b61020761054c3660046121a8565b611367565b34801561055d57600080fd5b5061020761056c3660046121c1565b611374565b34801561057d57600080fd5b506102837fc002a6b5f9f56101ba6339b1b95d171fadf6e41e005b91c80d686aef7516e75981565b3480156105b157600080fd5b506102836105c03660046121a8565b61139a565b3480156105d157600080fd5b506102076105e036600461203c565b611474565b6106c06004805480602002602001604051908101604052809291908181526020016000905b828210156106b6576000848152602090206040805160a08101909152600484029091018054829060ff1660038111156106455761064561262f565b60038111156106565761065661262f565b81526020016000820160019054906101000a90046001600160a01b03166001600160a01b03166001600160a01b0316815260200160018201548152602001600282015481526020016003820154815250508152602001906001019061060a565b505050508261150c565b60006106ce60008484611516565b90506106d98161163b565b50505050565b60005b92915050565b60006001600160e01b03198216637965db0b60e01b14806106e257506301ffc9a760e01b6001600160e01b03198316146106e2565b600e5460009060649060ff166107328461139a565b61073c9190612550565b6106e2919061252e565b6002546040516370a0823160e01b81523060048201526000916001600160a01b0316906370a082319060240160206040518083038186803b15801561078a57600080fd5b505afa15801561079e573d6000803e3d6000fd5b505050506040513d601f19601f820116820180604052508101906107c29190612217565b905090565b60006107c242610db8565b600082815260016020819052604090912001546107ee816116e2565b6107f883836116ec565b505050565b6001600160a01b03811633146108725760405162461bcd60e51b815260206004820152602f60248201527f416363657373436f6e74726f6c3a2063616e206f6e6c792072656e6f756e636560448201526e103937b632b9903337b91039b2b63360891b60648201526084015b60405180910390fd5b61087c8282611757565b5050565b6000546001600160a01b031633146108aa5760405162461bcd60e51b81526004016108699061237a565b6002600c5414156108fd5760405162461bcd60e51b815260206004820152601f60248201527f5265656e7472616e637947756172643a207265656e7472616e742063616c6c006044820152606401610869565b6002600c81905550610abc6004805480602002602001604051908101604052809291908181526020016000905b828210156109d6576000848152602090206040805160a08101909152600484029091018054829060ff1660038111156109655761096561262f565b60038111156109765761097661262f565b81526020016000820160019054906101000a90046001600160a01b03166001600160a01b03166001600160a01b0316815260200160018201548152602001600282015481526020016003820154815250508152602001906001019061092a565b50505050610ab76004805480602002602001604051908101604052809291908181526020016000905b82821015610aab576000848152602090206040805160a08101909152600484029091018054829060ff166003811115610a3a57610a3a61262f565b6003811115610a4b57610a4b61262f565b81526020016000820160019054906101000a90046001600160a01b03166001600160a01b03166001600160a01b031681526020016001820154815260200160028201548152602001600382015481525050815260200190600101906109ff565b50505050600a546117be565b6117ed565b610ac461181d565b60005b600454811015610b9057600160048281548110610ae657610ae6612645565b600091825260209091206004909102015460ff166003811115610b0b57610b0b61262f565b1480610b4e5750600360048281548110610b2757610b27612645565b600091825260209091206004909102015460ff166003811115610b4c57610b4c61262f565b145b15610b7e57610b7c60048281548110610b6957610b69612645565b906000526020600020906004020161163b565b505b80610b88816125fe565b915050610ac7565b506001600c55565b60006107c26004805480602002602001604051908101604052809291908181526020016000905b82821015610c6b576000848152602090206040805160a08101909152600484029091018054829060ff166003811115610bfa57610bfa61262f565b6003811115610c0b57610c0b61262f565b81526020016000820160019054906101000a90046001600160a01b03166001600160a01b03166001600160a01b03168152602001600182015481526020016002820154815260200160038201548152505081526020019060010190610bbf565b505050506009546117be565b60006107c26004805480602002602001604051908101604052809291908181526020016000905b82821015610aab576000848152602090206040805160a08101909152600484029091018054829060ff166003811115610cd957610cd961262f565b6003811115610cea57610cea61262f565b81526020016000820160019054906101000a90046001600160a01b03166001600160a01b03166001600160a01b03168152602001600182015481526020016002820154815260200160038201548152505081526020019060010190610c9e565b805160009015610d7a5781600081518110610d6757610d67612645565b6020026020010151608001519050919050565b506000919050565b6000546001600160a01b03163314610dac5760405162461bcd60e51b81526004016108699061237a565b610db660006118cf565b565b6000610e8b6004805480602002602001604051908101604052809291908181526020016000905b82821015610c6b576000848152602090206040805160a08101909152600484029091018054829060ff166003811115610e1a57610e1a61262f565b6003811115610e2b57610e2b61262f565b81526020016000820160019054906101000a90046001600160a01b03166001600160a01b03166001600160a01b03168152602001600182015481526020016002820154815260200160038201548152505081526020019060010190610ddf565b821080156106e25750610e9c61191f565b1592915050565b60606004805480602002602001604051908101604052809291908181526020016000905b82821015610f73576000848152602090206040805160a08101909152600484029091018054829060ff166003811115610f0257610f0261262f565b6003811115610f1357610f1361262f565b81526020016000820160019054906101000a90046001600160a01b03166001600160a01b03166001600160a01b03168152602001600182015481526020016002820154815260200160038201548152505081526020019060010190610ec7565b50505050905090565b60009182526001602090815260408084206001600160a01b0393909316845291905290205460ff1690565b611037604051806102000160405280600081526020016000815260200160008152602001600081526020016000815260200160008152602001600015158152602001600015158152602001600015158152602001600015158152602001600015158152602001600081526020016000815260200160608152602001600060ff168152602001600060ff1681525090565b60405180610200016040528061104b610746565b8152602001611058611a06565b805160009061106957611069612645565b602002602001015181526020016006548152602001600754815260200161108e611a06565b805160029081106110a1576110a1612645565b602002602001015181526020016110b66111c1565b81526020016110c36107c7565b1515815260085460ff90811615156020830152600b5416151560408201526060016110ec611ada565b151581526020016110fb61191f565b151581526020016009548152602001600a548152602001600d805461111f906125c9565b80601f016020809104026020016040519081016040528092919081815260200182805461114b906125c9565b80156111985780601f1061116d57610100808354040283529160200191611198565b820191906000526020600020905b81548152906001019060200180831161117b57829003601f168201915b5050509183525050600e5460ff9081166020830152600b54610100900416604090910152919050565b60006107c26004805480602002602001604051908101604052809291908181526020016000905b82821015611294576000848152602090206040805160a08101909152600484029091018054829060ff1660038111156112235761122361262f565b60038111156112345761123461262f565b81526020016000820160019054906101000a90046001600160a01b03166001600160a01b03166001600160a01b031681526020016001820154815260200160028201548152602001600382015481525050815260200190600101906111e8565b50505050610d4a565b7fc002a6b5f9f56101ba6339b1b95d171fadf6e41e005b91c80d686aef7516e7596112c7816116e2565b60006106ce60023385611516565b6060600d80546112e4906125c9565b80601f0160208091040260200160405190810160405280929190818152602001828054611310906125c9565b801561135d5780601f106113325761010080835404028352916020019161135d565b820191906000526020600020905b81548152906001019060200180831161134057829003601f168201915b5050505050905090565b61137133826105e5565b50565b60008281526001602081905260409091200154611390816116e2565b6107f88383611757565b600080805b60045481101561146d576113b6620151808561256f565b600482815481106113c9576113c9612645565b90600052602060002090600402016002015411156113e8575092915050565b6000600482815481106113fd576113fd612645565b600091825260209091206004909102015460ff1660038111156114225761142261262f565b141561145b576004818154811061143b5761143b612645565b906000526020600020906004020160010154826114589190612516565b91505b80611465816125fe565b91505061139f565b5092915050565b6000546001600160a01b0316331461149e5760405162461bcd60e51b81526004016108699061237a565b6001600160a01b0381166115035760405162461bcd60e51b815260206004820152602660248201527f4f776e61626c653a206e6577206f776e657220697320746865207a65726f206160448201526564647265737360d01b6064820152608401610869565b611371816118cf565b61087c8282611ae5565b6000806040518060a001604052808660038111156115365761153661262f565b81526001600160a01b03861660208201526040810185905242606082015260006080909101819052600480546001818101835592829052835191027f8a35acfbc15ff81a39ae7d344fd709f28e8600b4aa8c65c6b64bfe7fe36bd19b01805493945084939092839160ff1916908360038111156115b5576115b561262f565b0217905550602082015181546001600160a01b0390911661010002610100600160a81b03199091161781556040820151600180830191909155606083015160028301556080909201516003909101556004805490916116139161256f565b8154811061162357611623612645565b90600052602060002090600402019150509392505050565b600081600301546000146116915760405162461bcd60e51b815260206004820152601c60248201527f5472616e73616374696f6e20697320616c7265616479207061796564000000006044820152606401610869565b4260038301556000825460ff1660038111156116af576116af61262f565b14156116c3576106e2338360010154611b16565b815460018301546106e29161010090046001600160a01b031690611bab565b6113718133611be5565b6116f68282610f7c565b61087c5760008281526001602081815260408084206001600160a01b0386168086529252808420805460ff19169093179092559051339285917f2f8788117e7eff1d82e926ec794901d17c78024a50270940304540a733656f0d9190a45050565b6117618282610f7c565b1561087c5760008281526001602090815260408083206001600160a01b0385168085529252808320805460ff1916905551339285917ff6391f5c32d9c69d2a47ea670b442974b53935d1edc7fd64eb21e047a839171b9190a45050565b6000806117ca84610d4a565b9050806117db5760009150506106e2565b6117e58382612516565b949350505050565b6117f561191f565b1561181357604051632e08f66d60e11b815260040160405180910390fd5b61087c8282611c49565b600360009054906101000a90046001600160a01b03166001600160a01b031663985bdacb6040518163ffffffff1660e01b8152600401600060405180830381600087803b15801561186d57600080fd5b505af1158015611881573d6000803e3d6000fd5b50505050600061188f611c79565b90506118af600333836118a0610746565b6118aa919061256f565b611516565b5080156113715760055461087c906001906001600160a01b031683611516565b600080546001600160a01b038381166001600160a01b0319831681178455604051919092169283917f8be0079c531659141344cd1fd0a4f28419497f9722a3daafe3b4186f6b6457e09190a35050565b6004546000905b80156119fe576000600461193b60018461256f565b8154811061194b5761194b612645565b600091825260209091206040805160a081019091526004909202018054829060ff16600381111561197e5761197e61262f565b600381111561198f5761198f61262f565b8152815461010090046001600160a01b031660208201526001820154604082015260028201546060820152600391820154608090910152909150815160038111156119dc576119dc61262f565b14156119eb5760019250505090565b50806119f6816125b2565b915050611926565b506000905090565b60408051600480825260a08201909252606091600091906020820160808036833701905050905060005b600454811015611ad45760048181548110611a4d57611a4d612645565b9060005260206000209060040201600101548260048381548110611a7357611a73612645565b600091825260209091206004909102015460ff166003811115611a9857611a9861262f565b60ff1681518110611aab57611aab612645565b60200260200101818151611abf9190612516565b90525080611acc816125fe565b915050611a30565b50919050565b60006107c242611db1565b60085460ff16158015611af85750815115155b1561087c576040516341df992760e01b815260040160405180910390fd5b6002546040516323b872dd60e01b81526001600160a01b0384811660048301523060248301526044820184905260009216906323b872dd906064015b602060405180830381600087803b158015611b6c57600080fd5b505af1158015611b80573d6000803e3d6000fd5b505050506040513d601f19601f82011682018060405250810190611ba49190612186565b9392505050565b60025460405163a9059cbb60e01b81526001600160a01b03848116600483015260248201849052600092169063a9059cbb90604401611b52565b611bef8282610f7c565b61087c57611c07816001600160a01b03166014611e84565b611c12836020611e84565b604051602001611c2392919061225c565b60408051601f198184030181529082905262461bcd60e51b825261086991600401612367565b600b5460ff16158015611c5b57504281115b1561087c57604051631bc5fe1160e31b815260040160405180910390fd5b6000611d4c6004805480602002602001604051908101604052809291908181526020016000905b82821015610c6b576000848152602090206040805160a08101909152600484029091018054829060ff166003811115611cdb57611cdb61262f565b6003811115611cec57611cec61262f565b81526020016000820160019054906101000a90046001600160a01b03166001600160a01b03166001600160a01b03168152602001600182015481526020016002820154815260200160038201548152505081526020019060010190611ca0565b421115611d595750600090565b6000611d63611a06565b80516002908110611d7657611d76612645565b60200260200101519050612710600b60019054906101000a900460ff1660ff1682611da19190612550565b611dab919061252e565b91505090565b6000610e8b6004805480602002602001604051908101604052809291908181526020016000905b82821015610aab576000848152602090206040805160a08101909152600484029091018054829060ff166003811115611e1357611e1361262f565b6003811115611e2457611e2461262f565b81526020016000820160019054906101000a90046001600160a01b03166001600160a01b03166001600160a01b03168152602001600182015481526020016002820154815260200160038201548152505081526020019060010190611dd8565b60606000611e93836002612550565b611e9e906002612516565b67ffffffffffffffff811115611eb657611eb661265b565b6040519080825280601f01601f191660200182016040528015611ee0576020820181803683370190505b509050600360fc1b81600081518110611efb57611efb612645565b60200101906001600160f81b031916908160001a905350600f60fb1b81600181518110611f2a57611f2a612645565b60200101906001600160f81b031916908160001a9053506000611f4e846002612550565b611f59906001612516565b90505b6001811115611fd1576f181899199a1a9b1b9c1cb0b131b232b360811b85600f1660108110611f8d57611f8d612645565b1a60f81b828281518110611fa357611fa3612645565b60200101906001600160f81b031916908160001a90535060049490941c93611fca816125b2565b9050611f5c565b508315611ba45760405162461bcd60e51b815260206004820181905260248201527f537472696e67733a20686578206c656e67746820696e73756666696369656e746044820152606401610869565b80356001600160a01b038116811461203757600080fd5b919050565b60006020828403121561204e57600080fd5b611ba482612020565b6000806040838503121561206a57600080fd5b61207383612020565b946020939093013593505050565b6000602080838503121561209457600080fd5b823567ffffffffffffffff808211156120ac57600080fd5b818501915085601f8301126120c057600080fd5b8135818111156120d2576120d261265b565b6120e0848260051b016124e5565b818152848101925083850160a0808402860187018a101561210057600080fd5b600095505b838610156121785780828b03121561211c57600080fd5b6121246124bc565b82356004811061213357600080fd5b8152612140838901612020565b818901526040838101359082015260608084013590820152608080840135908201528552600195909501949386019390810190612105565b509098975050505050505050565b60006020828403121561219857600080fd5b81518015158114611ba457600080fd5b6000602082840312156121ba57600080fd5b5035919050565b600080604083850312156121d457600080fd5b823591506121e460208401612020565b90509250929050565b6000602082840312156121ff57600080fd5b81356001600160e01b031981168114611ba457600080fd5b60006020828403121561222957600080fd5b5051919050565b60008151808452612248816020860160208601612586565b601f01601f19169290920160200192915050565b7f416363657373436f6e74726f6c3a206163636f756e7420000000000000000000815260008351612294816017850160208801612586565b7001034b99036b4b9b9b4b733903937b6329607d1b60179184019182015283516122c5816028840160208801612586565b01602801949350505050565b60208082528251828201819052600091906040908185019086840185805b838110156123595782518051600480821061231757634e487b7160e01b855260218152602485fd5b508652808801516001600160a01b0316888701528681015187870152606080820151908701526080908101519086015260a090940193918601916001016122ef565b509298975050505050505050565b602081526000611ba46020830184612230565b6020808252818101527f4f776e61626c653a2063616c6c6572206973206e6f7420746865206f776e6572604082015260600190565b6020815281516020820152602082015160408201526040820151606082015260608201516080820152608082015160a082015260a082015160c0820152600060c083015161240160e084018215159052565b5060e08301516101006124178185018315159052565b840151905061012061242c8482018315159052565b84015190506101406124418482018315159052565b84015190506101606124568482018315159052565b840151610180848101919091528401516101a0808501919091528401516102006101c080860182905291925090612491610220860184612230565b908601519092506101e06124a98682018360ff169052565b9095015160ff1693019290925250919050565b60405160a0810167ffffffffffffffff811182821017156124df576124df61265b565b60405290565b604051601f8201601f1916810167ffffffffffffffff8111828210171561250e5761250e61265b565b604052919050565b6000821982111561252957612529612619565b500190565b60008261254b57634e487b7160e01b600052601260045260246000fd5b500490565b600081600019048311821515161561256a5761256a612619565b500290565b60008282101561258157612581612619565b500390565b60005b838110156125a1578181015183820152602001612589565b838111156106d95750506000910152565b6000816125c1576125c1612619565b506000190190565b600181811c908216806125dd57607f821691505b60208210811415611ad457634e487b7160e01b600052602260045260246000fd5b600060001982141561261257612612612619565b5060010190565b634e487b7160e01b600052601160045260246000fd5b634e487b7160e01b600052602160045260246000fd5b634e487b7160e01b600052603260045260246000fd5b634e487b7160e01b600052604160045260246000fdfea264697066735822122041bd3e20360277495a56394eccf8b619ca969a8918308f45d7c26ce56088dbcc64736f6c63430008070033",
  "immutableReferences": {},
  "source": "// SPDX-License-Identifier: MIT\npragma solidity 0.8.7;\n\nimport \"@openzeppelin/contracts/security/ReentrancyGuard.sol\";\n\nimport \"./BaseDeposit.sol\";\nimport \"./ILaunchpool.sol\";\n\nimport \"./Condition/AmountCondition.sol\";\nimport \"./Condition/DepositCondition.sol\";\nimport \"./Condition/PeriodCondition.sol\";\nimport \"./Condition/TerminationCondition.sol\";\n\ncontract Deposit is\n    BaseDeposit,\n    AmountCondition,\n    DepositCondition,\n    PeriodCondition,\n    TerminationCondition,\n    ReentrancyGuard\n{\n    string private _program;\n\n    uint8 private _rate;\n\n    error DepositAlreadyWithdrawed();\n\n    constructor(\n        ILaunchpool launchpool,\n        IBankAccount treasury,\n        Deposit.ProgramParameters memory parameters\n    )\n        BaseDeposit(launchpool, treasury)\n        AmountCondition(parameters.amountMaximum, parameters.amountMinimum)\n        DepositCondition(parameters.isDepositable)\n        PeriodCondition(parameters.periodMaximum, parameters.periodMinimum)\n        TerminationCondition(\n            parameters.isTerminatable,\n            parameters.terminationPenalty\n        )\n    {\n        _program = parameters.program;\n        _rate = parameters.rate;\n    }\n\n    receive() external payable {\n        _deposit(msg.sender, msg.value / 10**18);\n    }\n\n    function isActive() public view returns (bool) {\n        return isActive(block.timestamp);\n    }\n\n    function isActive(uint256 date) public view returns (bool) {\n        return\n            date < _getPeriodDateTime(_transactions, _periodMaximum) &&\n            !_isWithdrawed();\n    }\n\n    function deposit(uint256 amount) external payable {\n        _deposit(_msgSender(), amount);\n    }\n\n    function getBaseToCalculateReward(uint256 date)\n        external\n        view\n        returns (uint256)\n    {\n        return (_getDepositedAmountOnDate(date) * _rate) / 10**2;\n    }\n\n    function getBeginDateTime() public view returns (uint256) {\n        return getBeginDateTime(_transactions);\n    }\n\n    function getParameters()\n        external\n        view\n        returns (BaseDeposit.DepositParameters memory)\n    {\n        return\n            BaseDeposit.DepositParameters({\n                amount: getBalance(),\n                amountDeposit: _getTransactionsAmounts()[\n                    uint8(TransactionKind.DEPOSIT)\n                ],\n                amountMaximum: _amountMaximum,\n                amountMinimum: _amountMinimum,\n                amountReward: _getTransactionsAmounts()[\n                    uint8(TransactionKind.REWARD)\n                ],\n                beginDateTime: getBeginDateTime(),\n                isActive: isActive(),\n                isDepositable: _isDepositable,\n                isTerminatable: _isTerminatable,\n                isWithdrawable: _isWithdrawable(),\n                isWithdrawed: _isWithdrawed(),\n                periodMaximum: _periodMaximum,\n                periodMinimum: _periodMinimum,\n                program: _program,\n                rate: _rate,\n                terminationPenalty: _terminationPenalty\n            });\n    }\n\n    function getPeriodMaximumDateTime() external view returns (uint256) {\n        return _getPeriodDateTime(_transactions, _periodMaximum);\n    }\n\n    function getPeriodMinimumDateTime() external view returns (uint256) {\n        return _getPeriodDateTime(_transactions, _periodMinimum);\n    }\n\n    function getProgram() external view returns (string memory) {\n        return _program;\n    }\n\n    function getRate() external view returns (uint8) {\n        return _rate;\n    }\n\n    function withdraw() external onlyOwner nonReentrant {\n        _preValidateWithdraw(\n            _transactions,\n            _getPeriodDateTime(_transactions, _periodMinimum)\n        );\n\n        _close();\n\n        for (uint256 i = 0; i < _transactions.length; i++) {\n            if (\n                _transactions[i].kind == TransactionKind.PENALTY ||\n                _transactions[i].kind == TransactionKind.WITHDRAW\n            ) {\n                _transfer(_transactions[i]);\n            }\n        }\n    }\n\n    function _close() private {\n        _launchpool.transferDailyRewards();\n\n        uint256 amountPenalty = _getAmountPenalty();\n\n        _addTransaction(\n            TransactionKind.WITHDRAW,\n            _msgSender(),\n            getBalance() - amountPenalty\n        );\n\n        if (amountPenalty > 0) {\n            _addTransaction(\n                TransactionKind.PENALTY,\n                address(_treasury),\n                amountPenalty\n            );\n        }\n    }\n\n    function _deposit(address sender, uint256 amount) private {\n        _preValidateDeposit(_transactions, amount);\n\n        Transaction storage transaction = _addTransaction(\n            TransactionKind.DEPOSIT,\n            sender,\n            amount\n        );\n\n        _transfer(transaction);\n    }\n\n    function _isWithdrawable() private view returns (bool) {\n        return _isWithdrawable(block.timestamp);\n    }\n\n    function _isWithdrawable(uint256 date) private view returns (bool) {\n        return\n            date < _getPeriodDateTime(_transactions, _periodMinimum) &&\n            !_isWithdrawed();\n    }\n\n    function _isWithdrawed() private view returns (bool) {\n        for (uint256 i = _transactions.length; i > 0; i--) {\n            Transaction memory transaction = _transactions[i - 1];\n\n            if (transaction.kind == TransactionKind.WITHDRAW) {\n                return true;\n            }\n        }\n\n        return false;\n    }\n\n    function _getAmountPenalty() private view returns (uint256) {\n        if (\n            block.timestamp > _getPeriodDateTime(_transactions, _periodMaximum)\n        ) {\n            return 0;\n        }\n\n        uint256 amountReward = _getTransactionsAmounts()[\n            uint8(TransactionKind.REWARD)\n        ];\n\n        return (amountReward * _terminationPenalty) / 10**4;\n    }\n\n    function _preValidateDeposit(\n        Transaction[] memory transactions,\n        uint256 amount\n    ) internal view override(AmountCondition, DepositCondition) {\n        super._preValidateDeposit(transactions, amount);\n    }\n\n    function _preValidateWithdraw(\n        Transaction[] memory transactions,\n        uint256 periodMinimumDateTime\n    ) internal view override(PeriodCondition, TerminationCondition) {\n        if (_isWithdrawed()) {\n            revert DepositAlreadyWithdrawed();\n        }\n\n        super._preValidateWithdraw(transactions, periodMinimumDateTime);\n    }\n}\n",
  "sourcePath": "/Users/ievgencherkaskyi/Projects/tivan/hexagons/contracts/Launchpool/Deposit.sol",
  "compiler": {
    "name": "solc",
    "version": "0.8.7+commit.e28d00a7.Emscripten.clang"
  },
  "schemaVersion": "3.3.3",
  "updatedAt": "2022-07-19T17:42:32.545Z",
  "devdoc": {
    "kind": "dev",
    "methods": {
      "getRoleAdmin(bytes32)": {
        "details": "Returns the admin role that controls `role`. See {grantRole} and {revokeRole}. To change a role's admin, use {_setRoleAdmin}."
      },
      "grantRole(bytes32,address)": {
        "details": "Grants `role` to `account`. If `account` had not been already granted `role`, emits a {RoleGranted} event. Requirements: - the caller must have ``role``'s admin role."
      },
      "hasRole(bytes32,address)": {
        "details": "Returns `true` if `account` has been granted `role`."
      },
      "owner()": {
        "details": "Returns the address of the current owner."
      },
      "renounceOwnership()": {
        "details": "Leaves the contract without owner. It will not be possible to call `onlyOwner` functions anymore. Can only be called by the current owner. NOTE: Renouncing ownership will leave the contract without an owner, thereby removing any functionality that is only available to the owner."
      },
      "renounceRole(bytes32,address)": {
        "details": "Revokes `role` from the calling account. Roles are often managed via {grantRole} and {revokeRole}: this function's purpose is to provide a mechanism for accounts to lose their privileges if they are compromised (such as when a trusted device is misplaced). If the calling account had been revoked `role`, emits a {RoleRevoked} event. Requirements: - the caller must be `account`."
      },
      "revokeRole(bytes32,address)": {
        "details": "Revokes `role` from `account`. If `account` had been granted `role`, emits a {RoleRevoked} event. Requirements: - the caller must have ``role``'s admin role."
      },
      "supportsInterface(bytes4)": {
        "details": "See {IERC165-supportsInterface}."
      },
      "transferOwnership(address)": {
        "details": "Transfers ownership of the contract to a new account (`newOwner`). Can only be called by the current owner."
      }
    },
    "version": 1
  },
  "userdoc": {
    "kind": "user",
    "methods": {},
    "version": 1
  }
}