{
  "contractName": "Deposit",
  "abi": [
    {
      "inputs": [
        {
          "internalType": "contract ILaunchpool",
          "name": "launchpool",
          "type": "address"
        },
        {
          "internalType": "contract IBankAccount",
          "name": "treasury",
          "type": "address"
        },
        {
          "components": [
            {
              "internalType": "uint256",
              "name": "amountMaximum",
              "type": "uint256"
            },
            {
              "internalType": "uint256",
              "name": "amountMinimum",
              "type": "uint256"
            },
            {
              "internalType": "bool",
              "name": "isDepositable",
              "type": "bool"
            },
            {
              "internalType": "bool",
              "name": "isTerminatable",
              "type": "bool"
            },
            {
              "internalType": "uint256",
              "name": "periodMaximum",
              "type": "uint256"
            },
            {
              "internalType": "uint256",
              "name": "periodMinimum",
              "type": "uint256"
            },
            {
              "internalType": "string",
              "name": "program",
              "type": "string"
            },
            {
              "internalType": "uint8",
              "name": "rate",
              "type": "uint8"
            },
            {
              "internalType": "uint8",
              "name": "terminationPenalty",
              "type": "uint8"
            }
          ],
          "internalType": "struct BaseDeposit.ProgramParameters",
          "name": "parameters",
          "type": "tuple"
        }
      ],
      "stateMutability": "nonpayable",
      "type": "constructor"
    },
    {
      "inputs": [
        {
          "internalType": "uint256",
          "name": "amountMaximum",
          "type": "uint256"
        },
        {
          "internalType": "uint256",
          "name": "amount",
          "type": "uint256"
        }
      ],
      "name": "AmountMaximumConstraint",
      "type": "error"
    },
    {
      "inputs": [
        {
          "internalType": "uint256",
          "name": "amountMinimum",
          "type": "uint256"
        },
        {
          "internalType": "uint256",
          "name": "amount",
          "type": "uint256"
        }
      ],
      "name": "AmountMinimumConstraint",
      "type": "error"
    },
    {
      "inputs": [],
      "name": "DepositAlreadyWithdrawed",
      "type": "error"
    },
    {
      "inputs": [],
      "name": "DepositConstraint",
      "type": "error"
    },
    {
      "inputs": [
        {
          "internalType": "uint256",
          "name": "periodMinimumDateTime",
          "type": "uint256"
        }
      ],
      "name": "PeriodMinimumConstraint",
      "type": "error"
    },
    {
      "inputs": [],
      "name": "TerminationConstraint",
      "type": "error"
    },
    {
      "anonymous": false,
      "inputs": [
        {
          "indexed": true,
          "internalType": "address",
          "name": "previousOwner",
          "type": "address"
        },
        {
          "indexed": true,
          "internalType": "address",
          "name": "newOwner",
          "type": "address"
        }
      ],
      "name": "OwnershipTransferred",
      "type": "event"
    },
    {
      "anonymous": false,
      "inputs": [
        {
          "indexed": true,
          "internalType": "bytes32",
          "name": "role",
          "type": "bytes32"
        },
        {
          "indexed": true,
          "internalType": "bytes32",
          "name": "previousAdminRole",
          "type": "bytes32"
        },
        {
          "indexed": true,
          "internalType": "bytes32",
          "name": "newAdminRole",
          "type": "bytes32"
        }
      ],
      "name": "RoleAdminChanged",
      "type": "event"
    },
    {
      "anonymous": false,
      "inputs": [
        {
          "indexed": true,
          "internalType": "bytes32",
          "name": "role",
          "type": "bytes32"
        },
        {
          "indexed": true,
          "internalType": "address",
          "name": "account",
          "type": "address"
        },
        {
          "indexed": true,
          "internalType": "address",
          "name": "sender",
          "type": "address"
        }
      ],
      "name": "RoleGranted",
      "type": "event"
    },
    {
      "anonymous": false,
      "inputs": [
        {
          "indexed": true,
          "internalType": "bytes32",
          "name": "role",
          "type": "bytes32"
        },
        {
          "indexed": true,
          "internalType": "address",
          "name": "account",
          "type": "address"
        },
        {
          "indexed": true,
          "internalType": "address",
          "name": "sender",
          "type": "address"
        }
      ],
      "name": "RoleRevoked",
      "type": "event"
    },
    {
      "inputs": [],
      "name": "DEFAULT_ADMIN_ROLE",
      "outputs": [
        {
          "internalType": "bytes32",
          "name": "",
          "type": "bytes32"
        }
      ],
      "stateMutability": "view",
      "type": "function"
    },
    {
      "inputs": [],
      "name": "REWARD_ROLE",
      "outputs": [
        {
          "internalType": "bytes32",
          "name": "",
          "type": "bytes32"
        }
      ],
      "stateMutability": "view",
      "type": "function"
    },
    {
      "inputs": [
        {
          "internalType": "uint256",
          "name": "date",
          "type": "uint256"
        }
      ],
      "name": "_getDepositedAmountOnDate",
      "outputs": [
        {
          "internalType": "uint256",
          "name": "",
          "type": "uint256"
        }
      ],
      "stateMutability": "view",
      "type": "function"
    },
    {
      "inputs": [],
      "name": "getBalance",
      "outputs": [
        {
          "internalType": "uint256",
          "name": "",
          "type": "uint256"
        }
      ],
      "stateMutability": "view",
      "type": "function"
    },
    {
      "inputs": [],
      "name": "getLaunchpool",
      "outputs": [
        {
          "internalType": "contract ILaunchpool",
          "name": "",
          "type": "address"
        }
      ],
      "stateMutability": "view",
      "type": "function"
    },
    {
      "inputs": [
        {
          "internalType": "bytes32",
          "name": "role",
          "type": "bytes32"
        }
      ],
      "name": "getRoleAdmin",
      "outputs": [
        {
          "internalType": "bytes32",
          "name": "",
          "type": "bytes32"
        }
      ],
      "stateMutability": "view",
      "type": "function"
    },
    {
      "inputs": [],
      "name": "getToken",
      "outputs": [
        {
          "internalType": "contract IERC20",
          "name": "",
          "type": "address"
        }
      ],
      "stateMutability": "view",
      "type": "function"
    },
    {
      "inputs": [],
      "name": "getTransactions",
      "outputs": [
        {
          "components": [
            {
              "internalType": "enum BaseDeposit.TransactionKind",
              "name": "kind",
              "type": "uint8"
            },
            {
              "internalType": "address",
              "name": "account",
              "type": "address"
            },
            {
              "internalType": "uint256",
              "name": "amount",
              "type": "uint256"
            },
            {
              "internalType": "uint256",
              "name": "created",
              "type": "uint256"
            },
            {
              "internalType": "uint256",
              "name": "payed",
              "type": "uint256"
            }
          ],
          "internalType": "struct BaseDeposit.Transaction[]",
          "name": "",
          "type": "tuple[]"
        }
      ],
      "stateMutability": "view",
      "type": "function"
    },
    {
      "inputs": [],
      "name": "getTreasury",
      "outputs": [
        {
          "internalType": "contract IBankAccount",
          "name": "",
          "type": "address"
        }
      ],
      "stateMutability": "view",
      "type": "function"
    },
    {
      "inputs": [
        {
          "internalType": "bytes32",
          "name": "role",
          "type": "bytes32"
        },
        {
          "internalType": "address",
          "name": "account",
          "type": "address"
        }
      ],
      "name": "grantRole",
      "outputs": [],
      "stateMutability": "nonpayable",
      "type": "function"
    },
    {
      "inputs": [
        {
          "internalType": "bytes32",
          "name": "role",
          "type": "bytes32"
        },
        {
          "internalType": "address",
          "name": "account",
          "type": "address"
        }
      ],
      "name": "hasRole",
      "outputs": [
        {
          "internalType": "bool",
          "name": "",
          "type": "bool"
        }
      ],
      "stateMutability": "view",
      "type": "function"
    },
    {
      "inputs": [],
      "name": "owner",
      "outputs": [
        {
          "internalType": "address",
          "name": "",
          "type": "address"
        }
      ],
      "stateMutability": "view",
      "type": "function"
    },
    {
      "inputs": [],
      "name": "renounceOwnership",
      "outputs": [],
      "stateMutability": "nonpayable",
      "type": "function"
    },
    {
      "inputs": [
        {
          "internalType": "bytes32",
          "name": "role",
          "type": "bytes32"
        },
        {
          "internalType": "address",
          "name": "account",
          "type": "address"
        }
      ],
      "name": "renounceRole",
      "outputs": [],
      "stateMutability": "nonpayable",
      "type": "function"
    },
    {
      "inputs": [
        {
          "internalType": "bytes32",
          "name": "role",
          "type": "bytes32"
        },
        {
          "internalType": "address",
          "name": "account",
          "type": "address"
        }
      ],
      "name": "revokeRole",
      "outputs": [],
      "stateMutability": "nonpayable",
      "type": "function"
    },
    {
      "inputs": [
        {
          "internalType": "uint256",
          "name": "amount",
          "type": "uint256"
        }
      ],
      "name": "reward",
      "outputs": [],
      "stateMutability": "nonpayable",
      "type": "function"
    },
    {
      "inputs": [
        {
          "internalType": "bytes4",
          "name": "interfaceId",
          "type": "bytes4"
        }
      ],
      "name": "supportsInterface",
      "outputs": [
        {
          "internalType": "bool",
          "name": "",
          "type": "bool"
        }
      ],
      "stateMutability": "view",
      "type": "function"
    },
    {
      "inputs": [
        {
          "internalType": "address",
          "name": "",
          "type": "address"
        },
        {
          "internalType": "uint256",
          "name": "",
          "type": "uint256"
        }
      ],
      "name": "transferFrom",
      "outputs": [
        {
          "internalType": "bool",
          "name": "",
          "type": "bool"
        }
      ],
      "stateMutability": "pure",
      "type": "function"
    },
    {
      "inputs": [
        {
          "internalType": "address",
          "name": "newOwner",
          "type": "address"
        }
      ],
      "name": "transferOwnership",
      "outputs": [],
      "stateMutability": "nonpayable",
      "type": "function"
    },
    {
      "inputs": [
        {
          "internalType": "uint256",
          "name": "",
          "type": "uint256"
        }
      ],
      "name": "transferTo",
      "outputs": [
        {
          "internalType": "bool",
          "name": "",
          "type": "bool"
        }
      ],
      "stateMutability": "pure",
      "type": "function"
    },
    {
      "stateMutability": "payable",
      "type": "receive"
    },
    {
      "inputs": [],
      "name": "isActive",
      "outputs": [
        {
          "internalType": "bool",
          "name": "",
          "type": "bool"
        }
      ],
      "stateMutability": "view",
      "type": "function"
    },
    {
      "inputs": [
        {
          "internalType": "uint256",
          "name": "date",
          "type": "uint256"
        }
      ],
      "name": "isActive",
      "outputs": [
        {
          "internalType": "bool",
          "name": "",
          "type": "bool"
        }
      ],
      "stateMutability": "view",
      "type": "function"
    },
    {
      "inputs": [
        {
          "internalType": "uint256",
          "name": "amount",
          "type": "uint256"
        }
      ],
      "name": "deposit",
      "outputs": [],
      "stateMutability": "payable",
      "type": "function"
    },
    {
      "inputs": [
        {
          "internalType": "uint256",
          "name": "date",
          "type": "uint256"
        }
      ],
      "name": "getBaseToCalculateReward",
      "outputs": [
        {
          "internalType": "uint256",
          "name": "",
          "type": "uint256"
        }
      ],
      "stateMutability": "view",
      "type": "function"
    },
    {
      "inputs": [
        {
          "components": [
            {
              "internalType": "enum BaseDeposit.TransactionKind",
              "name": "kind",
              "type": "uint8"
            },
            {
              "internalType": "address",
              "name": "account",
              "type": "address"
            },
            {
              "internalType": "uint256",
              "name": "amount",
              "type": "uint256"
            },
            {
              "internalType": "uint256",
              "name": "created",
              "type": "uint256"
            },
            {
              "internalType": "uint256",
              "name": "payed",
              "type": "uint256"
            }
          ],
          "internalType": "struct BaseDeposit.Transaction[]",
          "name": "transactions",
          "type": "tuple[]"
        }
      ],
      "name": "getBeginDateTime",
      "outputs": [
        {
          "internalType": "uint256",
          "name": "",
          "type": "uint256"
        }
      ],
      "stateMutability": "pure",
      "type": "function"
    },
    {
      "inputs": [],
      "name": "getBeginDateTime",
      "outputs": [
        {
          "internalType": "uint256",
          "name": "",
          "type": "uint256"
        }
      ],
      "stateMutability": "view",
      "type": "function"
    },
    {
      "inputs": [],
      "name": "getParameters",
      "outputs": [
        {
          "components": [
            {
              "internalType": "uint256",
              "name": "amount",
              "type": "uint256"
            },
            {
              "internalType": "uint256",
              "name": "amountDeposit",
              "type": "uint256"
            },
            {
              "internalType": "uint256",
              "name": "amountMaximum",
              "type": "uint256"
            },
            {
              "internalType": "uint256",
              "name": "amountMinimum",
              "type": "uint256"
            },
            {
              "internalType": "uint256",
              "name": "amountReward",
              "type": "uint256"
            },
            {
              "internalType": "uint256",
              "name": "beginDateTime",
              "type": "uint256"
            },
            {
              "internalType": "bool",
              "name": "isActive",
              "type": "bool"
            },
            {
              "internalType": "bool",
              "name": "isDepositable",
              "type": "bool"
            },
            {
              "internalType": "bool",
              "name": "isTerminatable",
              "type": "bool"
            },
            {
              "internalType": "bool",
              "name": "isWithdrawable",
              "type": "bool"
            },
            {
              "internalType": "bool",
              "name": "isWithdrawed",
              "type": "bool"
            },
            {
              "internalType": "uint256",
              "name": "periodMaximum",
              "type": "uint256"
            },
            {
              "internalType": "uint256",
              "name": "periodMinimum",
              "type": "uint256"
            },
            {
              "internalType": "string",
              "name": "program",
              "type": "string"
            },
            {
              "internalType": "uint8",
              "name": "rate",
              "type": "uint8"
            },
            {
              "internalType": "uint8",
              "name": "terminationPenalty",
              "type": "uint8"
            }
          ],
          "internalType": "struct BaseDeposit.DepositParameters",
          "name": "",
          "type": "tuple"
        }
      ],
      "stateMutability": "view",
      "type": "function"
    },
    {
      "inputs": [],
      "name": "getPeriodMaximumDateTime",
      "outputs": [
        {
          "internalType": "uint256",
          "name": "",
          "type": "uint256"
        }
      ],
      "stateMutability": "view",
      "type": "function"
    },
    {
      "inputs": [],
      "name": "getPeriodMinimumDateTime",
      "outputs": [
        {
          "internalType": "uint256",
          "name": "",
          "type": "uint256"
        }
      ],
      "stateMutability": "view",
      "type": "function"
    },
    {
      "inputs": [],
      "name": "getProgram",
      "outputs": [
        {
          "internalType": "string",
          "name": "",
          "type": "string"
        }
      ],
      "stateMutability": "view",
      "type": "function"
    },
    {
      "inputs": [],
      "name": "getRate",
      "outputs": [
        {
          "internalType": "uint8",
          "name": "",
          "type": "uint8"
        }
      ],
      "stateMutability": "view",
      "type": "function"
    },
    {
      "inputs": [],
      "name": "withdraw",
      "outputs": [],
      "stateMutability": "nonpayable",
      "type": "function"
    }
  ],
  "bytecode": "0x60806040523480156200001157600080fd5b5060405162002d1538038062002d1583398101604081905262000034916200044d565b806060015181610100015182608001518360a001518460400151856000015186602001518989806001600160a01b03166321df0da76040518163ffffffff1660e01b815260040160206040518083038186803b1580156200009457600080fd5b505afa158015620000a9573d6000803e3d6000fd5b505050506040513d601f19601f82011682018060405250810190620000cf919062000426565b620000da33620001ea565b600280546001600160a01b03199081166001600160a01b03938416179091556003805482168584169081179091556005805490921692841692909217905562000126906000906200023a565b6003546200015f907fc002a6b5f9f56101ba6339b1b95d171fadf6e41e005b91c80d686aef7516e759906001600160a01b03166200023a565b50506006919091556007556008805460ff1916911515919091179055600991909155600a55600b805461ffff191692151561ff0019169290921761010060ff92909216919091021790556001600c5560c08101518051620001c991600d91602090910190620002c3565b5060e00151600e805460ff191660ff90921691909117905550620006319050565b600080546001600160a01b038381166001600160a01b0319831681178455604051919092169283917f8be0079c531659141344cd1fd0a4f28419497f9722a3daafe3b4186f6b6457e09190a35050565b60008281526001602090815260408083206001600160a01b038516845290915290205460ff16620002bf5760008281526001602081815260408084206001600160a01b0386168086529252808420805460ff19169093179092559051339285917f2f8788117e7eff1d82e926ec794901d17c78024a50270940304540a733656f0d9190a45b5050565b828054620002d190620005c5565b90600052602060002090601f016020900481019282620002f5576000855562000340565b82601f106200031057805160ff191683800117855562000340565b8280016001018555821562000340579182015b828111156200034057825182559160200191906001019062000323565b506200034e92915062000352565b5090565b5b808211156200034e576000815560010162000353565b805180151581146200037a57600080fd5b919050565b600082601f8301126200039157600080fd5b81516001600160401b03811115620003ad57620003ad62000602565b6020620003c3601f8301601f1916820162000592565b8281528582848701011115620003d857600080fd5b60005b83811015620003f8578581018301518282018401528201620003db565b838111156200040a5760008385840101525b5095945050505050565b805160ff811681146200037a57600080fd5b6000602082840312156200043957600080fd5b8151620004468162000618565b9392505050565b6000806000606084860312156200046357600080fd5b8351620004708162000618565b6020850151909350620004838162000618565b60408501519092506001600160401b0380821115620004a157600080fd5b908501906101208288031215620004b757600080fd5b620004c162000566565b8251815260208301516020820152620004dd6040840162000369565b6040820152620004f06060840162000369565b60608201526080830151608082015260a083015160a082015260c0830151828111156200051c57600080fd5b6200052a898286016200037f565b60c0830152506200053e60e0840162000414565b60e082015261010091506200055582840162000414565b828201528093505050509250925092565b60405161012081016001600160401b03811182821017156200058c576200058c62000602565b60405290565b604051601f8201601f191681016001600160401b0381118282101715620005bd57620005bd62000602565b604052919050565b600181811c90821680620005da57607f821691505b60208210811415620005fc57634e487b7160e01b600052602260045260246000fd5b50919050565b634e487b7160e01b600052604160045260246000fd5b6001600160a01b03811681146200062e57600080fd5b50565b6126d480620006416000396000f3fe6080604052600436106101e75760003560e01c8063715018a611610102578063a9fb763c11610095578063d547741f11610064578063d547741f14610572578063e8884f2b14610592578063e8cf51b0146105c6578063f2fde38b146105e657600080fd5b8063a9fb763c146104fc578063b31cf9841461051c578063b6b55f251461053e578063ba0f49b71461055157600080fd5b806391d14854116100d157806391d1485414610490578063a217fddf146104b0578063a5ea11da146104c5578063a9f17782146104e757600080fd5b8063715018a61461041b57806382afd23b1461043057806383920e90146104505780638da5cb5b1461047257600080fd5b806336568abe1161017a57806351e2412d1161014957806351e2412d146103a65780635dc181b3146103bb578063679aefce146103d95780636aca845e146103fb57600080fd5b806336568abe1461033e5780633b19e84a1461035e5780633ccfd60b1461037c5780635032d2201461039157600080fd5b806321df0da7116101b657806321df0da7146102a657806322f3e2d4146102d8578063248a9ca3146102ed5780632f2ff15d1461031e57600080fd5b806301c6adc31461020e57806301ffc9a714610243578063077763701461026357806312065fe01461029157600080fd5b366102095761020733610202670de0b6b3a76400003461255b565b610606565b005b600080fd5b34801561021a57600080fd5b5061022e610229366004612084565b610700565b60405190151581526020015b60405180910390f35b34801561024f57600080fd5b5061022e61025e36600461221a565b610709565b34801561026f57600080fd5b5061028361027e3660046121d5565b61073e565b60405190815260200161023a565b34801561029d57600080fd5b50610283610767565b3480156102b257600080fd5b506002546001600160a01b03165b6040516001600160a01b03909116815260200161023a565b3480156102e457600080fd5b5061022e6107e8565b3480156102f957600080fd5b506102836103083660046121d5565b6000908152600160208190526040909120015490565b34801561032a57600080fd5b506102076103393660046121ee565b6107f3565b34801561034a57600080fd5b506102076103593660046121ee565b61081e565b34801561036a57600080fd5b506005546001600160a01b03166102c0565b34801561038857600080fd5b506102076108a1565b34801561039d57600080fd5b50610283610bb9565b3480156103b257600080fd5b50610283610c98565b3480156103c757600080fd5b506003546001600160a01b03166102c0565b3480156103e557600080fd5b50600e5460405160ff909116815260200161023a565b34801561040757600080fd5b506102836104163660046120ae565b610d6b565b34801561042757600080fd5b50610207610da3565b34801561043c57600080fd5b5061022e61044b3660046121d5565b610dd9565b34801561045c57600080fd5b50610465610ec4565b60405161023a91906122fe565b34801561047e57600080fd5b506000546001600160a01b03166102c0565b34801561049c57600080fd5b5061022e6104ab3660046121ee565b610f9d565b3480156104bc57600080fd5b50610283600081565b3480156104d157600080fd5b506104da610fc8565b60405161023a91906123dc565b3480156104f357600080fd5b506102836111e2565b34801561050857600080fd5b506102076105173660046121d5565b6112be565b34801561052857600080fd5b506105316112f6565b60405161023a9190612394565b61020761054c3660046121d5565b611388565b34801561055d57600080fd5b5061022e61056c3660046121d5565b50600090565b34801561057e57600080fd5b5061020761058d3660046121ee565b611395565b34801561059e57600080fd5b506102837fc002a6b5f9f56101ba6339b1b95d171fadf6e41e005b91c80d686aef7516e75981565b3480156105d257600080fd5b506102836105e13660046121d5565b6113bb565b3480156105f257600080fd5b50610207610601366004612069565b611495565b6106e16004805480602002602001604051908101604052809291908181526020016000905b828210156106d7576000848152602090206040805160a08101909152600484029091018054829060ff1660038111156106665761066661265c565b60038111156106775761067761265c565b81526020016000820160019054906101000a90046001600160a01b03166001600160a01b03166001600160a01b0316815260200160018201548152602001600282015481526020016003820154815250508152602001906001019061062b565b505050508261152d565b60006106ef60008484611537565b90506106fa8161165c565b50505050565b60005b92915050565b60006001600160e01b03198216637965db0b60e01b148061070357506301ffc9a760e01b6001600160e01b0319831614610703565b600e5460009060649060ff16610753846113bb565b61075d919061257d565b610703919061255b565b6002546040516370a0823160e01b81523060048201526000916001600160a01b0316906370a082319060240160206040518083038186803b1580156107ab57600080fd5b505afa1580156107bf573d6000803e3d6000fd5b505050506040513d601f19601f820116820180604052508101906107e39190612244565b905090565b60006107e342610dd9565b6000828152600160208190526040909120015461080f81611702565b610819838361170c565b505050565b6001600160a01b03811633146108935760405162461bcd60e51b815260206004820152602f60248201527f416363657373436f6e74726f6c3a2063616e206f6e6c792072656e6f756e636560448201526e103937b632b9903337b91039b2b63360891b60648201526084015b60405180910390fd5b61089d8282611777565b5050565b6000546001600160a01b031633146108cb5760405162461bcd60e51b815260040161088a906123a7565b6002600c54141561091e5760405162461bcd60e51b815260206004820152601f60248201527f5265656e7472616e637947756172643a207265656e7472616e742063616c6c00604482015260640161088a565b6002600c81905550610add6004805480602002602001604051908101604052809291908181526020016000905b828210156109f7576000848152602090206040805160a08101909152600484029091018054829060ff1660038111156109865761098661265c565b60038111156109975761099761265c565b81526020016000820160019054906101000a90046001600160a01b03166001600160a01b03166001600160a01b0316815260200160018201548152602001600282015481526020016003820154815250508152602001906001019061094b565b50505050610ad86004805480602002602001604051908101604052809291908181526020016000905b82821015610acc576000848152602090206040805160a08101909152600484029091018054829060ff166003811115610a5b57610a5b61265c565b6003811115610a6c57610a6c61265c565b81526020016000820160019054906101000a90046001600160a01b03166001600160a01b03166001600160a01b03168152602001600182015481526020016002820154815260200160038201548152505081526020019060010190610a20565b50505050600a546117de565b61180d565b610ae561183d565b60005b600454811015610bb157600160048281548110610b0757610b07612672565b600091825260209091206004909102015460ff166003811115610b2c57610b2c61265c565b1480610b6f5750600360048281548110610b4857610b48612672565b600091825260209091206004909102015460ff166003811115610b6d57610b6d61265c565b145b15610b9f57610b9d60048281548110610b8a57610b8a612672565b906000526020600020906004020161165c565b505b80610ba98161262b565b915050610ae8565b506001600c55565b60006107e36004805480602002602001604051908101604052809291908181526020016000905b82821015610c8c576000848152602090206040805160a08101909152600484029091018054829060ff166003811115610c1b57610c1b61265c565b6003811115610c2c57610c2c61265c565b81526020016000820160019054906101000a90046001600160a01b03166001600160a01b03166001600160a01b03168152602001600182015481526020016002820154815260200160038201548152505081526020019060010190610be0565b505050506009546117de565b60006107e36004805480602002602001604051908101604052809291908181526020016000905b82821015610acc576000848152602090206040805160a08101909152600484029091018054829060ff166003811115610cfa57610cfa61265c565b6003811115610d0b57610d0b61265c565b81526020016000820160019054906101000a90046001600160a01b03166001600160a01b03166001600160a01b03168152602001600182015481526020016002820154815260200160038201548152505081526020019060010190610cbf565b805160009015610d9b5781600081518110610d8857610d88612672565b6020026020010151608001519050919050565b506000919050565b6000546001600160a01b03163314610dcd5760405162461bcd60e51b815260040161088a906123a7565b610dd760006118ef565b565b6000610eac6004805480602002602001604051908101604052809291908181526020016000905b82821015610c8c576000848152602090206040805160a08101909152600484029091018054829060ff166003811115610e3b57610e3b61265c565b6003811115610e4c57610e4c61265c565b81526020016000820160019054906101000a90046001600160a01b03166001600160a01b03166001600160a01b03168152602001600182015481526020016002820154815260200160038201548152505081526020019060010190610e00565b821080156107035750610ebd61193f565b1592915050565b60606004805480602002602001604051908101604052809291908181526020016000905b82821015610f94576000848152602090206040805160a08101909152600484029091018054829060ff166003811115610f2357610f2361265c565b6003811115610f3457610f3461265c565b81526020016000820160019054906101000a90046001600160a01b03166001600160a01b03166001600160a01b03168152602001600182015481526020016002820154815260200160038201548152505081526020019060010190610ee8565b50505050905090565b60009182526001602090815260408084206001600160a01b0393909316845291905290205460ff1690565b611058604051806102000160405280600081526020016000815260200160008152602001600081526020016000815260200160008152602001600015158152602001600015158152602001600015158152602001600015158152602001600015158152602001600081526020016000815260200160608152602001600060ff168152602001600060ff1681525090565b60405180610200016040528061106c610767565b8152602001611079611a26565b805160009061108a5761108a612672565b60200260200101518152602001600654815260200160075481526020016110af611a26565b805160029081106110c2576110c2612672565b602002602001015181526020016110d76111e2565b81526020016110e46107e8565b1515815260085460ff90811615156020830152600b54161515604082015260600161110d611afa565b1515815260200161111c61193f565b151581526020016009548152602001600a548152602001600d8054611140906125f6565b80601f016020809104026020016040519081016040528092919081815260200182805461116c906125f6565b80156111b95780601f1061118e576101008083540402835291602001916111b9565b820191906000526020600020905b81548152906001019060200180831161119c57829003601f168201915b5050509183525050600e5460ff9081166020830152600b54610100900416604090910152919050565b60006107e36004805480602002602001604051908101604052809291908181526020016000905b828210156112b5576000848152602090206040805160a08101909152600484029091018054829060ff1660038111156112445761124461265c565b60038111156112555761125561265c565b81526020016000820160019054906101000a90046001600160a01b03166001600160a01b03166001600160a01b03168152602001600182015481526020016002820154815260200160038201548152505081526020019060010190611209565b50505050610d6b565b7fc002a6b5f9f56101ba6339b1b95d171fadf6e41e005b91c80d686aef7516e7596112e881611702565b60006106ef60023385611537565b6060600d8054611305906125f6565b80601f0160208091040260200160405190810160405280929190818152602001828054611331906125f6565b801561137e5780601f106113535761010080835404028352916020019161137e565b820191906000526020600020905b81548152906001019060200180831161136157829003601f168201915b5050505050905090565b6113923382610606565b50565b600082815260016020819052604090912001546113b181611702565b6108198383611777565b600080805b60045481101561148e576113d7620151808561259c565b600482815481106113ea576113ea612672565b9060005260206000209060040201600201541115611409575092915050565b60006004828154811061141e5761141e612672565b600091825260209091206004909102015460ff1660038111156114435761144361265c565b141561147c576004818154811061145c5761145c612672565b906000526020600020906004020160010154826114799190612543565b91505b806114868161262b565b9150506113c0565b5092915050565b6000546001600160a01b031633146114bf5760405162461bcd60e51b815260040161088a906123a7565b6001600160a01b0381166115245760405162461bcd60e51b815260206004820152602660248201527f4f776e61626c653a206e6577206f776e657220697320746865207a65726f206160448201526564647265737360d01b606482015260840161088a565b611392816118ef565b61089d8282611b05565b6000806040518060a001604052808660038111156115575761155761265c565b81526001600160a01b03861660208201526040810185905242606082015260006080909101819052600480546001818101835592829052835191027f8a35acfbc15ff81a39ae7d344fd709f28e8600b4aa8c65c6b64bfe7fe36bd19b01805493945084939092839160ff1916908360038111156115d6576115d661265c565b0217905550602082015181546001600160a01b0390911661010002610100600160a81b03199091161781556040820151600180830191909155606083015160028301556080909201516003909101556004805490916116349161259c565b8154811061164457611644612672565b90600052602060002090600402019150509392505050565b600081600301546000146116b25760405162461bcd60e51b815260206004820152601c60248201527f5472616e73616374696f6e20697320616c726561647920706179656400000000604482015260640161088a565b4260038301556000825460ff1660038111156116d0576116d061265c565b14156116e3576107038260010154611b36565b815460018301546107039161010090046001600160a01b031690611b4a565b6113928133611bd2565b6117168282610f9d565b61089d5760008281526001602081815260408084206001600160a01b0386168086529252808420805460ff19169093179092559051339285917f2f8788117e7eff1d82e926ec794901d17c78024a50270940304540a733656f0d9190a45050565b6117818282610f9d565b1561089d5760008281526001602090815260408083206001600160a01b0385168085529252808320805460ff1916905551339285917ff6391f5c32d9c69d2a47ea670b442974b53935d1edc7fd64eb21e047a839171b9190a45050565b6000806117ea84610d6b565b9050806117fb576000915050610703565b6118058382612543565b949350505050565b61181561193f565b1561183357604051632e08f66d60e11b815260040160405180910390fd5b61089d8282611c36565b600360009054906101000a90046001600160a01b03166001600160a01b031663985bdacb6040518163ffffffff1660e01b8152600401600060405180830381600087803b15801561188d57600080fd5b505af11580156118a1573d6000803e3d6000fd5b5050505060006118af611c66565b90506118cf600333836118c0610767565b6118ca919061259c565b611537565b5080156113925760055461089d906001906001600160a01b031683611537565b600080546001600160a01b038381166001600160a01b0319831681178455604051919092169283917f8be0079c531659141344cd1fd0a4f28419497f9722a3daafe3b4186f6b6457e09190a35050565b6004546000905b8015611a1e576000600461195b60018461259c565b8154811061196b5761196b612672565b600091825260209091206040805160a081019091526004909202018054829060ff16600381111561199e5761199e61265c565b60038111156119af576119af61265c565b8152815461010090046001600160a01b031660208201526001820154604082015260028201546060820152600391820154608090910152909150815160038111156119fc576119fc61265c565b1415611a0b5760019250505090565b5080611a16816125df565b915050611946565b506000905090565b60408051600480825260a08201909252606091600091906020820160808036833701905050905060005b600454811015611af45760048181548110611a6d57611a6d612672565b9060005260206000209060040201600101548260048381548110611a9357611a93612672565b600091825260209091206004909102015460ff166003811115611ab857611ab861265c565b60ff1681518110611acb57611acb612672565b60200260200101818151611adf9190612543565b90525080611aec8161262b565b915050611a50565b50919050565b60006107e342611d9e565b60085460ff16158015611b185750815115155b1561089d576040516341df992760e01b815260040160405180910390fd5b600033611b438184611e71565b9392505050565b60025460405163a9059cbb60e01b81526001600160a01b03848116600483015260248201849052600092169063a9059cbb906044015b602060405180830381600087803b158015611b9a57600080fd5b505af1158015611bae573d6000803e3d6000fd5b505050506040513d601f19601f82011682018060405250810190611b4391906121b3565b611bdc8282610f9d565b61089d57611bf4816001600160a01b03166014611eb1565b611bff836020611eb1565b604051602001611c10929190612289565b60408051601f198184030181529082905262461bcd60e51b825261088a91600401612394565b600b5460ff16158015611c4857504281115b1561089d57604051631bc5fe1160e31b815260040160405180910390fd5b6000611d396004805480602002602001604051908101604052809291908181526020016000905b82821015610c8c576000848152602090206040805160a08101909152600484029091018054829060ff166003811115611cc857611cc861265c565b6003811115611cd957611cd961265c565b81526020016000820160019054906101000a90046001600160a01b03166001600160a01b03166001600160a01b03168152602001600182015481526020016002820154815260200160038201548152505081526020019060010190611c8d565b421115611d465750600090565b6000611d50611a26565b80516002908110611d6357611d63612672565b60200260200101519050612710600b60019054906101000a900460ff1660ff1682611d8e919061257d565b611d98919061255b565b91505090565b6000610eac6004805480602002602001604051908101604052809291908181526020016000905b82821015610acc576000848152602090206040805160a08101909152600484029091018054829060ff166003811115611e0057611e0061265c565b6003811115611e1157611e1161265c565b81526020016000820160019054906101000a90046001600160a01b03166001600160a01b03166001600160a01b03168152602001600182015481526020016002820154815260200160038201548152505081526020019060010190611dc5565b6002546040516323b872dd60e01b81526001600160a01b0384811660048301523060248301526044820184905260009216906323b872dd90606401611b80565b60606000611ec083600261257d565b611ecb906002612543565b67ffffffffffffffff811115611ee357611ee3612688565b6040519080825280601f01601f191660200182016040528015611f0d576020820181803683370190505b509050600360fc1b81600081518110611f2857611f28612672565b60200101906001600160f81b031916908160001a905350600f60fb1b81600181518110611f5757611f57612672565b60200101906001600160f81b031916908160001a9053506000611f7b84600261257d565b611f86906001612543565b90505b6001811115611ffe576f181899199a1a9b1b9c1cb0b131b232b360811b85600f1660108110611fba57611fba612672565b1a60f81b828281518110611fd057611fd0612672565b60200101906001600160f81b031916908160001a90535060049490941c93611ff7816125df565b9050611f89565b508315611b435760405162461bcd60e51b815260206004820181905260248201527f537472696e67733a20686578206c656e67746820696e73756666696369656e74604482015260640161088a565b80356001600160a01b038116811461206457600080fd5b919050565b60006020828403121561207b57600080fd5b611b438261204d565b6000806040838503121561209757600080fd5b6120a08361204d565b946020939093013593505050565b600060208083850312156120c157600080fd5b823567ffffffffffffffff808211156120d957600080fd5b818501915085601f8301126120ed57600080fd5b8135818111156120ff576120ff612688565b61210d848260051b01612512565b818152848101925083850160a0808402860187018a101561212d57600080fd5b600095505b838610156121a55780828b03121561214957600080fd5b6121516124e9565b82356004811061216057600080fd5b815261216d83890161204d565b818901526040838101359082015260608084013590820152608080840135908201528552600195909501949386019390810190612132565b509098975050505050505050565b6000602082840312156121c557600080fd5b81518015158114611b4357600080fd5b6000602082840312156121e757600080fd5b5035919050565b6000806040838503121561220157600080fd5b823591506122116020840161204d565b90509250929050565b60006020828403121561222c57600080fd5b81356001600160e01b031981168114611b4357600080fd5b60006020828403121561225657600080fd5b5051919050565b600081518084526122758160208601602086016125b3565b601f01601f19169290920160200192915050565b7f416363657373436f6e74726f6c3a206163636f756e74200000000000000000008152600083516122c18160178501602088016125b3565b7001034b99036b4b9b9b4b733903937b6329607d1b60179184019182015283516122f28160288401602088016125b3565b01602801949350505050565b60208082528251828201819052600091906040908185019086840185805b838110156123865782518051600480821061234457634e487b7160e01b855260218152602485fd5b508652808801516001600160a01b0316888701528681015187870152606080820151908701526080908101519086015260a0909401939186019160010161231c565b509298975050505050505050565b602081526000611b43602083018461225d565b6020808252818101527f4f776e61626c653a2063616c6c6572206973206e6f7420746865206f776e6572604082015260600190565b6020815281516020820152602082015160408201526040820151606082015260608201516080820152608082015160a082015260a082015160c0820152600060c083015161242e60e084018215159052565b5060e08301516101006124448185018315159052565b84015190506101206124598482018315159052565b840151905061014061246e8482018315159052565b84015190506101606124838482018315159052565b840151610180848101919091528401516101a0808501919091528401516102006101c0808601829052919250906124be61022086018461225d565b908601519092506101e06124d68682018360ff169052565b9095015160ff1693019290925250919050565b60405160a0810167ffffffffffffffff8111828210171561250c5761250c612688565b60405290565b604051601f8201601f1916810167ffffffffffffffff8111828210171561253b5761253b612688565b604052919050565b6000821982111561255657612556612646565b500190565b60008261257857634e487b7160e01b600052601260045260246000fd5b500490565b600081600019048311821515161561259757612597612646565b500290565b6000828210156125ae576125ae612646565b500390565b60005b838110156125ce5781810151838201526020016125b6565b838111156106fa5750506000910152565b6000816125ee576125ee612646565b506000190190565b600181811c9082168061260a57607f821691505b60208210811415611af457634e487b7160e01b600052602260045260246000fd5b600060001982141561263f5761263f612646565b5060010190565b634e487b7160e01b600052601160045260246000fd5b634e487b7160e01b600052602160045260246000fd5b634e487b7160e01b600052603260045260246000fd5b634e487b7160e01b600052604160045260246000fdfea26469706673582212209b98510514d11eb3ecb79050c48244656999e88151b279d3226f5bf8d06e5c1e64736f6c63430008070033",
  "immutableReferences": {},
  "source": "// SPDX-License-Identifier: MIT\npragma solidity 0.8.7;\n\nimport \"@openzeppelin/contracts/security/ReentrancyGuard.sol\";\n\nimport \"./BaseDeposit.sol\";\nimport \"./ILaunchpool.sol\";\n\nimport \"./Condition/AmountCondition.sol\";\nimport \"./Condition/DepositCondition.sol\";\nimport \"./Condition/PeriodCondition.sol\";\nimport \"./Condition/TerminationCondition.sol\";\n\ncontract Deposit is\n    BaseDeposit,\n    AmountCondition,\n    DepositCondition,\n    PeriodCondition,\n    TerminationCondition,\n    ReentrancyGuard\n{\n    string private _program;\n\n    uint8 private _rate;\n\n    error DepositAlreadyWithdrawed();\n\n    constructor(\n        ILaunchpool launchpool,\n        IBankAccount treasury,\n        Deposit.ProgramParameters memory parameters\n    )\n        BaseDeposit(launchpool, treasury)\n        AmountCondition(parameters.amountMaximum, parameters.amountMinimum)\n        DepositCondition(parameters.isDepositable)\n        PeriodCondition(parameters.periodMaximum, parameters.periodMinimum)\n        TerminationCondition(\n            parameters.isTerminatable,\n            parameters.terminationPenalty\n        )\n    {\n        _program = parameters.program;\n        _rate = parameters.rate;\n    }\n\n    receive() external payable {\n        _deposit(msg.sender, msg.value / 10**18);\n    }\n\n    function isActive() public view returns (bool) {\n        return isActive(block.timestamp);\n    }\n\n    function isActive(uint256 date) public view returns (bool) {\n        return\n            date < _getPeriodDateTime(_transactions, _periodMaximum) &&\n            !_isWithdrawed();\n    }\n\n    function deposit(uint256 amount) external payable {\n        _deposit(_msgSender(), amount);\n    }\n\n    function getBaseToCalculateReward(uint256 date)\n        external\n        view\n        returns (uint256)\n    {\n        return (_getDepositedAmountOnDate(date) * _rate) / 10**2;\n    }\n\n    function getBeginDateTime() public view returns (uint256) {\n        return getBeginDateTime(_transactions);\n    }\n\n    function getParameters()\n        external\n        view\n        returns (BaseDeposit.DepositParameters memory)\n    {\n        return\n            BaseDeposit.DepositParameters({\n                amount: getBalance(),\n                amountDeposit: _getTransactionsAmounts()[\n                    uint8(TransactionKind.DEPOSIT)\n                ],\n                amountMaximum: _amountMaximum,\n                amountMinimum: _amountMinimum,\n                amountReward: _getTransactionsAmounts()[\n                    uint8(TransactionKind.REWARD)\n                ],\n                beginDateTime: getBeginDateTime(),\n                isActive: isActive(),\n                isDepositable: _isDepositable,\n                isTerminatable: _isTerminatable,\n                isWithdrawable: _isWithdrawable(),\n                isWithdrawed: _isWithdrawed(),\n                periodMaximum: _periodMaximum,\n                periodMinimum: _periodMinimum,\n                program: _program,\n                rate: _rate,\n                terminationPenalty: _terminationPenalty\n            });\n    }\n\n    function getPeriodMaximumDateTime() external view returns (uint256) {\n        return _getPeriodDateTime(_transactions, _periodMaximum);\n    }\n\n    function getPeriodMinimumDateTime() external view returns (uint256) {\n        return _getPeriodDateTime(_transactions, _periodMinimum);\n    }\n\n    function getProgram() external view returns (string memory) {\n        return _program;\n    }\n\n    function getRate() external view returns (uint8) {\n        return _rate;\n    }\n\n    function withdraw() external onlyOwner nonReentrant {\n        _preValidateWithdraw(\n            _transactions,\n            _getPeriodDateTime(_transactions, _periodMinimum)\n        );\n\n        _close();\n\n        for (uint256 i = 0; i < _transactions.length; i++) {\n            if (\n                _transactions[i].kind == TransactionKind.PENALTY ||\n                _transactions[i].kind == TransactionKind.WITHDRAW\n            ) {\n                _transfer(_transactions[i]);\n            }\n        }\n    }\n\n    function _close() private {\n        _launchpool.transferDailyRewards();\n\n        uint256 amountPenalty = _getAmountPenalty();\n\n        _addTransaction(\n            TransactionKind.WITHDRAW,\n            _msgSender(),\n            getBalance() - amountPenalty\n        );\n\n        if (amountPenalty > 0) {\n            _addTransaction(\n                TransactionKind.PENALTY,\n                address(_treasury),\n                amountPenalty\n            );\n        }\n    }\n\n    function _deposit(address sender, uint256 amount) private {\n        _preValidateDeposit(_transactions, amount);\n\n        Transaction storage transaction = _addTransaction(\n            TransactionKind.DEPOSIT,\n            sender,\n            amount\n        );\n\n        _transfer(transaction);\n    }\n\n    function _isWithdrawable() private view returns (bool) {\n        return _isWithdrawable(block.timestamp);\n    }\n\n    function _isWithdrawable(uint256 date) private view returns (bool) {\n        return\n            date < _getPeriodDateTime(_transactions, _periodMinimum) &&\n            !_isWithdrawed();\n    }\n\n    function _isWithdrawed() private view returns (bool) {\n        for (uint256 i = _transactions.length; i > 0; i--) {\n            Transaction memory transaction = _transactions[i - 1];\n\n            if (transaction.kind == TransactionKind.WITHDRAW) {\n                return true;\n            }\n        }\n\n        return false;\n    }\n\n    function _getAmountPenalty() private view returns (uint256) {\n        if (\n            block.timestamp > _getPeriodDateTime(_transactions, _periodMaximum)\n        ) {\n            return 0;\n        }\n\n        uint256 amountReward = _getTransactionsAmounts()[\n            uint8(TransactionKind.REWARD)\n        ];\n\n        return (amountReward * _terminationPenalty) / 10**4;\n    }\n\n    function _preValidateDeposit(\n        Transaction[] memory transactions,\n        uint256 amount\n    ) internal view override(AmountCondition, DepositCondition) {\n        super._preValidateDeposit(transactions, amount);\n    }\n\n    function _preValidateWithdraw(\n        Transaction[] memory transactions,\n        uint256 periodMinimumDateTime\n    ) internal view override(PeriodCondition, TerminationCondition) {\n        if (_isWithdrawed()) {\n            revert DepositAlreadyWithdrawed();\n        }\n\n        super._preValidateWithdraw(transactions, periodMinimumDateTime);\n    }\n}\n",
  "sourcePath": "/Users/ievgencherkaskyi/Projects/tivan/launchpool/contracts/Launchpool/Deposit.sol",
  "compiler": {
    "name": "solc",
    "version": "0.8.7+commit.e28d00a7.Emscripten.clang"
  },
  "schemaVersion": "3.3.3",
  "updatedAt": "2022-06-29T07:06:02.214Z",
  "devdoc": {
    "kind": "dev",
    "methods": {
      "getRoleAdmin(bytes32)": {
        "details": "Returns the admin role that controls `role`. See {grantRole} and {revokeRole}. To change a role's admin, use {_setRoleAdmin}."
      },
      "grantRole(bytes32,address)": {
        "details": "Grants `role` to `account`. If `account` had not been already granted `role`, emits a {RoleGranted} event. Requirements: - the caller must have ``role``'s admin role."
      },
      "hasRole(bytes32,address)": {
        "details": "Returns `true` if `account` has been granted `role`."
      },
      "owner()": {
        "details": "Returns the address of the current owner."
      },
      "renounceOwnership()": {
        "details": "Leaves the contract without owner. It will not be possible to call `onlyOwner` functions anymore. Can only be called by the current owner. NOTE: Renouncing ownership will leave the contract without an owner, thereby removing any functionality that is only available to the owner."
      },
      "renounceRole(bytes32,address)": {
        "details": "Revokes `role` from the calling account. Roles are often managed via {grantRole} and {revokeRole}: this function's purpose is to provide a mechanism for accounts to lose their privileges if they are compromised (such as when a trusted device is misplaced). If the calling account had been revoked `role`, emits a {RoleRevoked} event. Requirements: - the caller must be `account`."
      },
      "revokeRole(bytes32,address)": {
        "details": "Revokes `role` from `account`. If `account` had been granted `role`, emits a {RoleRevoked} event. Requirements: - the caller must have ``role``'s admin role."
      },
      "supportsInterface(bytes4)": {
        "details": "See {IERC165-supportsInterface}."
      },
      "transferOwnership(address)": {
        "details": "Transfers ownership of the contract to a new account (`newOwner`). Can only be called by the current owner."
      }
    },
    "version": 1
  },
  "userdoc": {
    "kind": "user",
    "methods": {},
    "version": 1
  }
}