{
  "contractName": "Launchpool",
  "abi": [
    {
      "inputs": [
        {
          "internalType": "string",
          "name": "program",
          "type": "string"
        }
      ],
      "name": "LaunchpoolDepositProgramNotExists",
      "type": "error"
    },
    {
      "inputs": [
        {
          "internalType": "uint8",
          "name": "maxNumber",
          "type": "uint8"
        }
      ],
      "name": "LaunchpoolTooMuchDepositPrograms",
      "type": "error"
    },
    {
      "inputs": [
        {
          "internalType": "address",
          "name": "supplier",
          "type": "address"
        }
      ],
      "name": "RefillableSupplierNotExists",
      "type": "error"
    },
    {
      "inputs": [
        {
          "internalType": "uint8",
          "name": "maxNumber",
          "type": "uint8"
        }
      ],
      "name": "RefillableTooMuchSuppliers",
      "type": "error"
    },
    {
      "anonymous": false,
      "inputs": [
        {
          "indexed": false,
          "internalType": "uint8",
          "name": "version",
          "type": "uint8"
        }
      ],
      "name": "Initialized",
      "type": "event"
    },
    {
      "anonymous": false,
      "inputs": [
        {
          "indexed": false,
          "internalType": "contract Deposit",
          "name": "deposit",
          "type": "address"
        }
      ],
      "name": "LaunchpoolDepositCreated",
      "type": "event"
    },
    {
      "anonymous": false,
      "inputs": [
        {
          "indexed": true,
          "internalType": "address",
          "name": "previousOwner",
          "type": "address"
        },
        {
          "indexed": true,
          "internalType": "address",
          "name": "newOwner",
          "type": "address"
        }
      ],
      "name": "OwnershipTransferred",
      "type": "event"
    },
    {
      "inputs": [],
      "name": "getBalance",
      "outputs": [
        {
          "internalType": "uint256",
          "name": "",
          "type": "uint256"
        }
      ],
      "stateMutability": "view",
      "type": "function"
    },
    {
      "inputs": [],
      "name": "getRefillableSuppliers",
      "outputs": [
        {
          "components": [
            {
              "internalType": "contract IBankAccountSupplier",
              "name": "agreement",
              "type": "address"
            },
            {
              "internalType": "uint256",
              "name": "reward",
              "type": "uint256"
            }
          ],
          "internalType": "struct Refillable.RefillableSupplier[]",
          "name": "",
          "type": "tuple[]"
        }
      ],
      "stateMutability": "view",
      "type": "function"
    },
    {
      "inputs": [],
      "name": "getToken",
      "outputs": [
        {
          "internalType": "contract IERC20",
          "name": "",
          "type": "address"
        }
      ],
      "stateMutability": "view",
      "type": "function"
    },
    {
      "inputs": [],
      "name": "owner",
      "outputs": [
        {
          "internalType": "address",
          "name": "",
          "type": "address"
        }
      ],
      "stateMutability": "view",
      "type": "function"
    },
    {
      "inputs": [],
      "name": "refill",
      "outputs": [],
      "stateMutability": "nonpayable",
      "type": "function"
    },
    {
      "inputs": [],
      "name": "renounceOwnership",
      "outputs": [],
      "stateMutability": "nonpayable",
      "type": "function"
    },
    {
      "inputs": [
        {
          "components": [
            {
              "internalType": "contract IBankAccountSupplier",
              "name": "agreement",
              "type": "address"
            },
            {
              "internalType": "uint256",
              "name": "reward",
              "type": "uint256"
            }
          ],
          "internalType": "struct Refillable.RefillableSupplier[]",
          "name": "suppliers",
          "type": "tuple[]"
        }
      ],
      "name": "setRefillableSuppliers",
      "outputs": [],
      "stateMutability": "nonpayable",
      "type": "function"
    },
    {
      "inputs": [
        {
          "internalType": "address",
          "name": "to",
          "type": "address"
        },
        {
          "internalType": "uint256",
          "name": "amount",
          "type": "uint256"
        }
      ],
      "name": "transferFrom",
      "outputs": [
        {
          "internalType": "bool",
          "name": "",
          "type": "bool"
        }
      ],
      "stateMutability": "nonpayable",
      "type": "function"
    },
    {
      "inputs": [
        {
          "internalType": "uint256",
          "name": "date",
          "type": "uint256"
        },
        {
          "internalType": "uint256",
          "name": "amount",
          "type": "uint256"
        },
        {
          "internalType": "address",
          "name": "sender",
          "type": "address"
        }
      ],
      "name": "transferFromSupplier",
      "outputs": [],
      "stateMutability": "nonpayable",
      "type": "function"
    },
    {
      "inputs": [
        {
          "internalType": "address",
          "name": "newOwner",
          "type": "address"
        }
      ],
      "name": "transferOwnership",
      "outputs": [],
      "stateMutability": "nonpayable",
      "type": "function"
    },
    {
      "inputs": [
        {
          "internalType": "address",
          "name": "from",
          "type": "address"
        },
        {
          "internalType": "uint256",
          "name": "amount",
          "type": "uint256"
        }
      ],
      "name": "transferTo",
      "outputs": [
        {
          "internalType": "bool",
          "name": "",
          "type": "bool"
        }
      ],
      "stateMutability": "nonpayable",
      "type": "function"
    },
    {
      "inputs": [
        {
          "internalType": "string",
          "name": "program",
          "type": "string"
        }
      ],
      "name": "createDeposit",
      "outputs": [],
      "stateMutability": "nonpayable",
      "type": "function"
    },
    {
      "inputs": [
        {
          "internalType": "contract IBankAccount",
          "name": "treasury",
          "type": "address"
        }
      ],
      "name": "__Launchpool_init",
      "outputs": [],
      "stateMutability": "nonpayable",
      "type": "function"
    },
    {
      "inputs": [
        {
          "internalType": "uint256",
          "name": "date",
          "type": "uint256"
        }
      ],
      "name": "isReadyToRefill",
      "outputs": [
        {
          "internalType": "bool",
          "name": "",
          "type": "bool"
        }
      ],
      "stateMutability": "view",
      "type": "function"
    },
    {
      "inputs": [],
      "name": "getDeposits",
      "outputs": [
        {
          "components": [
            {
              "internalType": "address",
              "name": "agreement",
              "type": "address"
            },
            {
              "components": [
                {
                  "internalType": "uint256",
                  "name": "amount",
                  "type": "uint256"
                },
                {
                  "internalType": "uint256",
                  "name": "amountDeposit",
                  "type": "uint256"
                },
                {
                  "internalType": "uint256",
                  "name": "amountMaximum",
                  "type": "uint256"
                },
                {
                  "internalType": "uint256",
                  "name": "amountMinimum",
                  "type": "uint256"
                },
                {
                  "internalType": "uint256",
                  "name": "amountReward",
                  "type": "uint256"
                },
                {
                  "internalType": "uint256",
                  "name": "beginDateTime",
                  "type": "uint256"
                },
                {
                  "internalType": "bool",
                  "name": "isActive",
                  "type": "bool"
                },
                {
                  "internalType": "bool",
                  "name": "isDepositable",
                  "type": "bool"
                },
                {
                  "internalType": "bool",
                  "name": "isTerminatable",
                  "type": "bool"
                },
                {
                  "internalType": "bool",
                  "name": "isWithdrawable",
                  "type": "bool"
                },
                {
                  "internalType": "bool",
                  "name": "isWithdrawed",
                  "type": "bool"
                },
                {
                  "internalType": "uint256",
                  "name": "periodMaximum",
                  "type": "uint256"
                },
                {
                  "internalType": "uint256",
                  "name": "periodMinimum",
                  "type": "uint256"
                },
                {
                  "internalType": "string",
                  "name": "program",
                  "type": "string"
                },
                {
                  "internalType": "uint8",
                  "name": "rate",
                  "type": "uint8"
                },
                {
                  "internalType": "uint8",
                  "name": "terminationPenalty",
                  "type": "uint8"
                }
              ],
              "internalType": "struct BaseDeposit.DepositParameters",
              "name": "parameters",
              "type": "tuple"
            }
          ],
          "internalType": "struct Launchpool.DepositListItems[]",
          "name": "",
          "type": "tuple[]"
        }
      ],
      "stateMutability": "view",
      "type": "function"
    },
    {
      "inputs": [
        {
          "internalType": "string",
          "name": "program",
          "type": "string"
        }
      ],
      "name": "getDepositProgram",
      "outputs": [
        {
          "components": [
            {
              "internalType": "uint256",
              "name": "amountMaximum",
              "type": "uint256"
            },
            {
              "internalType": "uint256",
              "name": "amountMinimum",
              "type": "uint256"
            },
            {
              "internalType": "bool",
              "name": "isDepositable",
              "type": "bool"
            },
            {
              "internalType": "bool",
              "name": "isTerminatable",
              "type": "bool"
            },
            {
              "internalType": "uint256",
              "name": "periodMaximum",
              "type": "uint256"
            },
            {
              "internalType": "uint256",
              "name": "periodMinimum",
              "type": "uint256"
            },
            {
              "internalType": "string",
              "name": "program",
              "type": "string"
            },
            {
              "internalType": "uint8",
              "name": "rate",
              "type": "uint8"
            },
            {
              "internalType": "uint8",
              "name": "terminationPenalty",
              "type": "uint8"
            }
          ],
          "internalType": "struct BaseDeposit.ProgramParameters",
          "name": "",
          "type": "tuple"
        }
      ],
      "stateMutability": "view",
      "type": "function"
    },
    {
      "inputs": [],
      "name": "getDepositPrograms",
      "outputs": [
        {
          "components": [
            {
              "internalType": "uint256",
              "name": "amountMaximum",
              "type": "uint256"
            },
            {
              "internalType": "uint256",
              "name": "amountMinimum",
              "type": "uint256"
            },
            {
              "internalType": "bool",
              "name": "isDepositable",
              "type": "bool"
            },
            {
              "internalType": "bool",
              "name": "isTerminatable",
              "type": "bool"
            },
            {
              "internalType": "uint256",
              "name": "periodMaximum",
              "type": "uint256"
            },
            {
              "internalType": "uint256",
              "name": "periodMinimum",
              "type": "uint256"
            },
            {
              "internalType": "string",
              "name": "program",
              "type": "string"
            },
            {
              "internalType": "uint8",
              "name": "rate",
              "type": "uint8"
            },
            {
              "internalType": "uint8",
              "name": "terminationPenalty",
              "type": "uint8"
            }
          ],
          "internalType": "struct BaseDeposit.ProgramParameters[]",
          "name": "",
          "type": "tuple[]"
        }
      ],
      "stateMutability": "view",
      "type": "function"
    },
    {
      "inputs": [],
      "name": "getName",
      "outputs": [
        {
          "internalType": "string",
          "name": "",
          "type": "string"
        }
      ],
      "stateMutability": "pure",
      "type": "function"
    },
    {
      "inputs": [
        {
          "internalType": "uint256",
          "name": "date",
          "type": "uint256"
        }
      ],
      "name": "getTransfersAmount",
      "outputs": [
        {
          "internalType": "uint256",
          "name": "",
          "type": "uint256"
        }
      ],
      "stateMutability": "view",
      "type": "function"
    },
    {
      "inputs": [
        {
          "components": [
            {
              "internalType": "uint256",
              "name": "amountMaximum",
              "type": "uint256"
            },
            {
              "internalType": "uint256",
              "name": "amountMinimum",
              "type": "uint256"
            },
            {
              "internalType": "bool",
              "name": "isDepositable",
              "type": "bool"
            },
            {
              "internalType": "bool",
              "name": "isTerminatable",
              "type": "bool"
            },
            {
              "internalType": "uint256",
              "name": "periodMaximum",
              "type": "uint256"
            },
            {
              "internalType": "uint256",
              "name": "periodMinimum",
              "type": "uint256"
            },
            {
              "internalType": "string",
              "name": "program",
              "type": "string"
            },
            {
              "internalType": "uint8",
              "name": "rate",
              "type": "uint8"
            },
            {
              "internalType": "uint8",
              "name": "terminationPenalty",
              "type": "uint8"
            }
          ],
          "internalType": "struct BaseDeposit.ProgramParameters[]",
          "name": "depositPrograms",
          "type": "tuple[]"
        }
      ],
      "name": "setDepositPrograms",
      "outputs": [],
      "stateMutability": "nonpayable",
      "type": "function"
    },
    {
      "inputs": [],
      "name": "transferDailyRewards",
      "outputs": [],
      "stateMutability": "nonpayable",
      "type": "function"
    }
  ],
  "bytecode": "0x608060405234801561001057600080fd5b50615bfd806100206000396000f3fe60806040523480156200001157600080fd5b5060043610620001515760003560e01c8063715018a611620000c7578063a0c855e41162000086578063a0c855e414620002d5578063aafbb00914620002ec578063c1e6a28f1462000303578063d622989a146200031a578063e27ed9331462000333578063f2fde38b146200034a57600080fd5b8063715018a61462000281578063826dde26146200028b5780638da5cb5b14620002a257806391c7c2b514620002b4578063985bdacb14620002cb57600080fd5b80632ccb1b3011620001145780632ccb1b3014620002085780633c5e533b146200021f578063538e0759146200024557806363909f8614620002515780636b149d87146200026857600080fd5b806301c6adc31462000156578063116e2e44146200018257806312065fe0146200019b57806317d7de7c14620001b457806321df0da714620001e2575b600080fd5b6200016d620001673660046200220a565b62000361565b60405190151581526020015b60405180910390f35b6200018c620003f6565b60405162000179919062002919565b620001a562000564565b60405190815260200162000179565b604080518082018252600a81526913185d5b98da1c1bdbdb60b21b6020820152905162000179919062002a10565b6065546001600160a01b03165b6040516001600160a01b03909116815260200162000179565b6200016d620002193660046200220a565b620005e9565b6200023662000230366004620024bc565b6200062a565b60405162000179919062002af3565b6200024f620008ca565b005b6200016d620002623660046200264f565b620009d3565b62000272620009f6565b6040516200017991906200279c565b6200024f62000bab565b6200024f6200029c36600462002239565b62000be6565b6033546001600160a01b0316620001ef565b620001a5620002c53660046200264f565b62000d4a565b6200024f62000d71565b6200024f620002e636600462002683565b62000edf565b6200024f620002fd366004620021e3565b62001052565b6200024f62000314366004620024bc565b62001171565b62000324620012d6565b6040516200017991906200297f565b6200024f62000344366004620023aa565b62001344565b6200024f6200035b366004620021e3565b6200142f565b60655460405163a9059cbb60e01b81526001600160a01b03848116600483015260248201849052600092169063a9059cbb906044015b602060405180830381600087803b158015620003b257600080fd5b505af1158015620003c7573d6000803e3d6000fd5b505050506040513d601f19601f82011682018060405250810190620003ed91906200247c565b90505b92915050565b60606068805480602002602001604051908101604052809291908181526020016000905b828210156200055b57600084815260209081902060408051610120810182526007860290920180548352600181015493830193909352600283015460ff8082161515928401929092526101009004161515606082015260038201546080820152600482015460a082015260058201805491929160c0840191906200049e9062002db1565b80601f0160208091040260200160405190810160405280929190818152602001828054620004cc9062002db1565b80156200051d5780601f10620004f1576101008083540402835291602001916200051d565b820191906000526020600020905b815481529060010190602001808311620004ff57829003601f168201915b50505091835250506006919091015460ff8082166020808501919091526101009092041660409092019190915290825260019290920191016200041a565b50505050905090565b6065546040516370a0823160e01b81523060048201526000916001600160a01b0316906370a082319060240160206040518083038186803b158015620005a957600080fd5b505afa158015620005be573d6000803e3d6000fd5b505050506040513d601f19601f82011682018060405250810190620005e4919062002669565b905090565b6065546040516323b872dd60e01b81526001600160a01b0384811660048301523060248301526044820184905260009216906323b872dd9060640162000397565b604080516101208101825260008082526020820181905291810182905260608082018390526080820183905260a0820183905260c082015260e081018290526101008101829052905b60685460ff82161015620008a3576200074760688260ff16815481106200069e576200069e62002e72565b90600052602060002090600702016005018054620006bc9062002db1565b80601f0160208091040260200160405190810160405280929190818152602001828054620006ea9062002db1565b80156200073b5780601f106200070f576101008083540402835291602001916200073b565b820191906000526020600020905b8154815290600101906020018083116200071d57829003601f168201915b505050505084620014d1565b156200088e5760688160ff168154811062000766576200076662002e72565b60009182526020918290206040805161012081018252600790930290910180548352600181015493830193909352600283015460ff8082161515928401929092526101009004161515606082015260038201546080820152600482015460a082015260058201805491929160c084019190620007e29062002db1565b80601f0160208091040260200160405190810160405280929190818152602001828054620008109062002db1565b8015620008615780601f10620008355761010080835404028352916020019162000861565b820191906000526020600020905b8154815290600101906020018083116200084357829003601f168201915b50505091835250506006919091015460ff8082166020840152610100909104166040909101529392505050565b806200089a8162002e0c565b91505062000673565b5081604051636609ccfd60e11b8152600401620008c1919062002a10565b60405180910390fd5b3360005b606654811015620009cf57600060668281548110620008f157620008f162002e72565b600091825260208220600290910201546040805163e4fc6b6d60e01b815290516001600160a01b039092169350839263e4fc6b6d9260048084019382900301818387803b1580156200094257600080fd5b505af115801562000957573d6000803e3d6000fd5b5050604051630c11dedd60e01b81526001600160a01b03868116600483015284169250630c11dedd9150602401600060405180830381600087803b1580156200099f57600080fd5b505af1158015620009b4573d6000803e3d6000fd5b50505050508080620009c69062002dee565b915050620008ce565b5050565b6000620009e0826200152e565b15620009ee57506001919050565b506000919050565b33600081815260696020526040812054606092919067ffffffffffffffff81111562000a265762000a2662002e88565b60405190808252806020026020018201604052801562000a6357816020015b62000a4f62001e97565b81526020019060019003908162000a455790505b50905060005b6001600160a01b03831660009081526069602052604090205481101562000ba4576001600160a01b038316600090815260696020526040812080548390811062000ab75762000ab762002e72565b9060005260206000200160009054906101000a90046001600160a01b031690506040518060400160405280826001600160a01b03168152602001826001600160a01b031663a5ea11da6040518163ffffffff1660e01b815260040160006040518083038186803b15801562000b2b57600080fd5b505afa15801562000b40573d6000803e3d6000fd5b505050506040513d6000823e601f3d908101601f1916820160405262000b6a9190810190620024f5565b81525083838151811062000b825762000b8262002e72565b602002602001018190525050808062000b9b9062002dee565b91505062000a69565b5092915050565b6033546001600160a01b0316331462000bd85760405162461bcd60e51b8152600401620008c19062002a73565b62000be4600062001609565b565b6033546001600160a01b0316331462000c135760405162461bcd60e51b8152600401620008c19062002a73565b805160ff101562000c3b57604051630dc3892760e41b815260ff6004820152602401620008c1565b62000c496068600062001f48565b60005b81518160ff161015620009cf576068828260ff168151811062000c735762000c7362002e72565b602090810291909101810151825460018181018555600094855293839020825160079092020190815581830151938101939093556040810151600284018054606084015115156101000261ff00199315159390931661ffff19909116179190911790556080810151600384015560a0810151600484015560c0810151805191939262000d089260058501929091019062001f6b565b5060e082015160069190910180546101009384015160ff93841661ffff199092169190911792169092021790558062000d418162002e0c565b91505062000c4c565b6000606b600062000d5b846200165b565b8152602001908152602001600020549050919050565b33600062000d7f8262001668565b9050306001600160a01b03166321df0da76040518163ffffffff1660e01b815260040160206040518083038186803b15801562000dbb57600080fd5b505afa15801562000dd0573d6000803e3d6000fd5b505050506040513d601f19601f8201168201806040525081019062000df691906200249c565b60405163095ea7b360e01b81526001600160a01b03848116600483015260248201849052919091169063095ea7b390604401602060405180830381600087803b15801562000e4357600080fd5b505af115801562000e58573d6000803e3d6000fd5b505050506040513d601f19601f8201168201806040525081019062000e7e91906200247c565b50604051632a7edd8f60e21b8152600481018290526001600160a01b0383169063a9fb763c90602401600060405180830381600087803b15801562000ec257600080fd5b505af115801562000ed7573d6000803e3d6000fd5b505050505050565b600062000eeb620017ca565b9050600062000eff826020015185620018b4565b9050808411156200104b5781516001600160a01b03166301c6adc33062000f27848862002d64565b6040516001600160e01b031960e085901b1681526001600160a01b0390921660048301526024820152604401602060405180830381600087803b15801562000f6e57600080fd5b505af115801562000f83573d6000803e3d6000fd5b505050506040513d601f19601f8201168201806040525081019062000fa991906200247c565b5081516040516301c6adc360e01b81526001600160a01b03858116600483015260248201849052909116906301c6adc390604401602060405180830381600087803b15801562000ff857600080fd5b505af11580156200100d573d6000803e3d6000fd5b505050506040513d601f19601f820116820180604052508101906200103391906200247c565b506200104b8562001045838762002d64565b620018dc565b5050505050565b60006200106060016200192a565b9050801562001079576000805461ff0019166101001790555b62001083620019b7565b62001102826001600160a01b03166321df0da76040518163ffffffff1660e01b815260040160206040518083038186803b158015620010c157600080fd5b505afa158015620010d6573d6000803e3d6000fd5b505050506040513d601f19601f82011682018060405250810190620010fc91906200249c565b620019eb565b6200110c62001a3d565b606c80546001600160a01b0319166001600160a01b0384161790558015620009cf576000805461ff0019169055604051600181527f7f26b83ff96e1f2b6a682f133852f6798a09c465da95921460cefb38474024989060200160405180910390a15050565b606c54339060009030906001600160a01b03166200118f856200062a565b6040516200119d9062001ffa565b620011ab93929190620029d9565b604051809103906000f080158015620011c8573d6000803e3d6000fd5b506067805460018082019092557f9787eeb91fe3101235e4a76063c7023ecb40f923f97916639c598592fa30d6ae0180546001600160a01b038481166001600160a01b0319928316811790935586166000818152606960209081526040808320805497880181558352912090940180549092168317909155915163f2fde38b60e01b8152600481019290925291925063f2fde38b90602401600060405180830381600087803b1580156200127b57600080fd5b505af115801562001290573d6000803e3d6000fd5b50506040516001600160a01b03841681527f1f481075f52d22bf57a98023748eb71f465f54d8fb40a598c0b1e652dce5a29d9250602001905060405180910390a1505050565b60606066805480602002602001604051908101604052809291908181526020016000905b828210156200055b576000848152602090819020604080518082019091526002850290910180546001600160a01b03168252600190810154828401529083529092019101620012fa565b6033546001600160a01b03163314620013715760405162461bcd60e51b8152600401620008c19062002a73565b805160ff10156200139957604051634aa7b2d560e01b815260ff6004820152602401620008c1565b620013a76066600062002008565b60005b81518160ff161015620009cf576066828260ff1681518110620013d157620013d162002e72565b602090810291909101810151825460018082018555600094855293839020825160029092020180546001600160a01b0319166001600160a01b0390921691909117815591015191015580620014268162002e0c565b915050620013aa565b6033546001600160a01b031633146200145c5760405162461bcd60e51b8152600401620008c19062002a73565b6001600160a01b038116620014c35760405162461bcd60e51b815260206004820152602660248201527f4f776e61626c653a206e6577206f776e657220697320746865207a65726f206160448201526564647265737360d01b6064820152608401620008c1565b620014ce8162001609565b50565b600081604051602001620014e691906200277e565b60405160208183030381529060405280519060200120836040516020016200150f91906200277e565b6040516020818303038152906040528051906020012014905092915050565b6000805b60675481101562001600576067818154811062001553576200155362002e72565b6000918252602090912001546040516382afd23b60e01b8152600481018590526001600160a01b03909116906382afd23b9060240160206040518083038186803b158015620015a157600080fd5b505afa158015620015b6573d6000803e3d6000fd5b505050506040513d601f19601f82011682018060405250810190620015dc91906200247c565b15620015eb5750600192915050565b80620015f78162002dee565b91505062001532565b50600092915050565b603380546001600160a01b038381166001600160a01b0319831681179093556040519116919082907f8be0079c531659141344cd1fd0a4f28419497f9722a3daafe3b4186f6b6457e090600090a35050565b6000620003f08262001a7b565b6000806000836001600160a01b031663a9f177826040518163ffffffff1660e01b815260040160206040518083038186803b158015620016a757600080fd5b505afa158015620016bc573d6000803e3d6000fd5b505050506040513d601f19601f82011682018060405250810190620016e2919062002669565b90506000846001600160a01b0316635032d2206040518163ffffffff1660e01b815260040160206040518083038186803b1580156200172057600080fd5b505afa15801562001735573d6000803e3d6000fd5b505050506040513d601f19601f820116820180604052508101906200175b919062002669565b90505b808211620017c157606a600062001775846200165b565b8152602080820192909252604090810160009081206001600160a01b0389168252909252902054620017a8908462002c08565b9250620017b9620151808362002c08565b91506200175e565b50909392505050565b6040805180820190915260008082526020820181905233905b6066548110156200188e576066818154811062001804576200180462002e72565b60009182526020909120600290910201546001600160a01b03838116911614156200187957606681815481106200183f576200183f62002e72565b60009182526020918290206040805180820190915260029092020180546001600160a01b0316825260010154918101919091529392505050565b80620018858162002dee565b915050620017e3565b506040516364a8f42560e01b81526001600160a01b0382166004820152602401620008c1565b6000620018c46004600a62002c83565b620018d0848462002d42565b620003ed919062002c23565b80606b6000620018ec856200165b565b815260200190815260200160002060008282546200190b919062002c08565b90915550620009cf905062001924620151808462002d64565b62001a98565b60008054610100900460ff16156200196e578160ff1660011480156200194f5750303b155b620009ee5760405162461bcd60e51b8152600401620008c19062002a25565b60005460ff808416911610620019985760405162461bcd60e51b8152600401620008c19062002a25565b506000805460ff191660ff92909216919091179055600190565b919050565b600054610100900460ff16620019e15760405162461bcd60e51b8152600401620008c19062002aa8565b62000be462001e38565b600054610100900460ff1662001a155760405162461bcd60e51b8152600401620008c19062002aa8565b62001a1f62001e6d565b606580546001600160a01b0319166001600160a01b03831617905550565b600054610100900460ff1662001a675760405162461bcd60e51b8152600401620008c19062002aa8565b62001a7162001e6d565b62000be4620019b7565b600062001a8c620151808362002e2f565b620003f0908362002d64565b6000805b60675481101562001c6e576067818154811062001abd5762001abd62002e72565b6000918252602090912001546040516382afd23b60e01b8152600481018590526001600160a01b03909116906382afd23b9060240160206040518083038186803b15801562001b0b57600080fd5b505afa15801562001b20573d6000803e3d6000fd5b505050506040513d601f19601f8201168201806040525081019062001b4691906200247c565b1562001c595760006067828154811062001b645762001b6462002e72565b6000918252602090912001546040516277763760e41b8152600481018690526001600160a01b039091169063077763709060240160206040518083038186803b15801562001bb157600080fd5b505afa15801562001bc6573d6000803e3d6000fd5b505050506040513d601f19601f8201168201806040525081019062001bec919062002669565b905080606a600062001bfe876200165b565b815260200190815260200160002060006067858154811062001c245762001c2462002e72565b60009182526020808320909101546001600160a01b0316835282019290925260400190205562001c55818462002c08565b9250505b8062001c658162002dee565b91505062001a9c565b508062001c79575050565b60005b60675481101562001e33576067818154811062001c9d5762001c9d62002e72565b6000918252602090912001546040516382afd23b60e01b8152600481018590526001600160a01b03909116906382afd23b9060240160206040518083038186803b15801562001ceb57600080fd5b505afa15801562001d00573d6000803e3d6000fd5b505050506040513d601f19601f8201168201806040525081019062001d2691906200247c565b1562001e1e576000606a600062001d3d866200165b565b815260200190815260200160002060006067848154811062001d635762001d6362002e72565b60009182526020808320909101546001600160a01b0316835282019290925260400181205491508390606b9062001d9a876200165b565b8152602001908152602001600020548262001db6919062002d42565b62001dc2919062002c23565b606a600062001dd1876200165b565b815260200190815260200160002060006067858154811062001df75762001df762002e72565b60009182526020808320909101546001600160a01b03168352820192909252604001902055505b8062001e2a8162002dee565b91505062001c7c565b505050565b600054610100900460ff1662001e625760405162461bcd60e51b8152600401620008c19062002aa8565b62000be43362001609565b600054610100900460ff1662000be45760405162461bcd60e51b8152600401620008c19062002aa8565b604051806040016040528060006001600160a01b0316815260200162001f43604051806102000160405280600081526020016000815260200160008152602001600081526020016000815260200160008152602001600015158152602001600015158152602001600015158152602001600015158152602001600015158152602001600081526020016000815260200160608152602001600060ff168152602001600060ff1681525090565b905290565b5080546000825560070290600052602060002090810190620014ce91906200202b565b82805462001f799062002db1565b90600052602060002090601f01602090048101928262001f9d576000855562001fe8565b82601f1062001fb857805160ff191683800117855562001fe8565b8280016001018555821562001fe8579182015b8281111562001fe857825182559160200191906001019062001fcb565b5062001ff692915062002081565b5090565b612cf48062002ed483390190565b5080546000825560020290600052602060002090810190620014ce919062002098565b8082111562001ff65760008082556001820181905560028201805461ffff1916905560038201819055600482018190556200206a6005830182620020c0565b5060068101805461ffff191690556007016200202b565b5b8082111562001ff6576000815560010162002082565b5b8082111562001ff65780546001600160a01b03191681556000600182015560020162002099565b508054620020ce9062002db1565b6000825580601f10620020df575050565b601f016020900490600052602060002090810190620014ce919062002081565b8035620019b28162002eb4565b8051620019b28162002eb4565b600082601f8301126200212b57600080fd5b8135620021426200213c8262002bdd565b62002b82565b8181528460208386010111156200215857600080fd5b816020850160208301376000918101602001919091529392505050565b600082601f8301126200218757600080fd5b8151620021986200213c8262002bdd565b818152846020838601011115620021ae57600080fd5b620021c182602083016020870162002d7e565b949350505050565b8035620019b28162002ec3565b8051620019b28162002ec3565b600060208284031215620021f657600080fd5b8135620022038162002e9e565b9392505050565b600080604083850312156200221e57600080fd5b82356200222b8162002e9e565b946020939093013593505050565b600060208083850312156200224d57600080fd5b823567ffffffffffffffff808211156200226657600080fd5b818501915085601f8301126200227b57600080fd5b81356200228c6200213c8262002bb6565b80828252858201915085850189878560051b8801011115620022ad57600080fd5b60005b848110156200239b57813586811115620022c957600080fd5b8701610120818d03601f1901811315620022e257600080fd5b620022ec62002b08565b8a830135815260408301358b82015260606200230a818501620020ff565b604083015260806200231e818601620020ff565b8284015260a085013581840152505060c083013560a082015260e0830135898111156200234a57600080fd5b6200235a8f8d8387010162002119565b60c08301525061010062002370818501620021c9565b60e083015262002382838501620021c9565b90820152865250509287019290870190600101620022b0565b50909998505050505050505050565b60006020808385031215620023be57600080fd5b823567ffffffffffffffff811115620023d657600080fd5b8301601f81018513620023e857600080fd5b8035620023f96200213c8262002bb6565b80828252848201915084840188868560061b87010111156200241a57600080fd5b60009450845b848110156200246e57604080838c0312156200243a578687fd5b6200244462002b35565b8335620024518162002e9e565b815283890135898201528552938701939091019060010162002420565b509098975050505050505050565b6000602082840312156200248f57600080fd5b8151620022038162002eb4565b600060208284031215620024af57600080fd5b8151620022038162002e9e565b600060208284031215620024cf57600080fd5b813567ffffffffffffffff811115620024e757600080fd5b620021c18482850162002119565b6000602082840312156200250857600080fd5b815167ffffffffffffffff808211156200252157600080fd5b9083019061020082860312156200253757600080fd5b6200254162002b5b565b825181526020830151602082015260408301516040820152606083015160608201526080830151608082015260a083015160a08201526200258560c084016200210c565b60c08201526200259860e084016200210c565b60e0820152610100620025ad8185016200210c565b90820152610120620025c18482016200210c565b90820152610140620025d58482016200210c565b90820152610160838101519082015261018080840151908201526101a080840151838111156200260457600080fd5b620026128882870162002175565b8284015250506101c091506200262a828401620021d6565b828201526101e0915062002640828401620021d6565b91810191909152949350505050565b6000602082840312156200266257600080fd5b5035919050565b6000602082840312156200267c57600080fd5b5051919050565b6000806000606084860312156200269957600080fd5b83359250602084013591506040840135620026b48162002e9e565b809150509250925092565b60008151808452620026d981602086016020860162002d7e565b601f01601f19169290920160200192915050565b60006101208251845260208301516020850152604083015115156040850152606083015162002720606086018215159052565b506080830151608085015260a083015160a085015260c08301518160c08601526200274e82860182620026bf565b91505060e08301516200276660e086018260ff169052565b506101009283015160ff169390920192909252919050565b600082516200279281846020870162002d7e565b9190910192915050565b60006020808301818452808551808352604092508286019150828160051b87010184880160005b838110156200246e57888303603f19018552815180516001600160a01b0316845287015187840187905280518785015280880151606080860191909152878201516080808701919091529082015160a0808701919091529082015160c0808701919091529082015160e08087019190915290820151906101006200284a8188018415159052565b90830151915061012090620028628783018415159052565b8301519150610140620028788782018415159052565b90830151915061016090620028908783018415159052565b8301519150610180620028a68782018415159052565b908301516101a087810191909152908301516101c080880191909152908301516102006101e08089018290529193509190620028e7610240890185620026bf565b9185015160ff9081169389019390935290930151166102209095019490945294870194925090860190600101620027c3565b6000602080830181845280855180835260408601915060408160051b870101925083870160005b828110156200297257603f198886030184526200295f858351620026ed565b9450928501929085019060010162002940565b5092979650505050505050565b602080825282518282018190526000919060409081850190868401855b82811015620029cc57815180516001600160a01b031685528601518685015292840192908501906001016200299c565b5091979650505050505050565b6001600160a01b0384811682528316602082015260606040820181905260009062002a0790830184620026ed565b95945050505050565b602081526000620003ed6020830184620026bf565b6020808252602e908201527f496e697469616c697a61626c653a20636f6e747261637420697320616c72656160408201526d191e481a5b9a5d1a585b1a5e995960921b606082015260800190565b6020808252818101527f4f776e61626c653a2063616c6c6572206973206e6f7420746865206f776e6572604082015260600190565b6020808252602b908201527f496e697469616c697a61626c653a20636f6e7472616374206973206e6f74206960408201526a6e697469616c697a696e6760a81b606082015260800190565b602081526000620003ed6020830184620026ed565b604051610120810167ffffffffffffffff8111828210171562002b2f5762002b2f62002e88565b60405290565b6040805190810167ffffffffffffffff8111828210171562002b2f5762002b2f62002e88565b604051610200810167ffffffffffffffff8111828210171562002b2f5762002b2f62002e88565b604051601f8201601f1916810167ffffffffffffffff8111828210171562002bae5762002bae62002e88565b604052919050565b600067ffffffffffffffff82111562002bd35762002bd362002e88565b5060051b60200190565b600067ffffffffffffffff82111562002bfa5762002bfa62002e88565b50601f01601f191660200190565b6000821982111562002c1e5762002c1e62002e46565b500190565b60008262002c355762002c3562002e5c565b500490565b600181815b8085111562002c7b57816000190482111562002c5f5762002c5f62002e46565b8085161562002c6d57918102915b93841c939080029062002c3f565b509250929050565b6000620003ed60ff84168360008262002c9f57506001620003f0565b8162002cae57506000620003f0565b816001811462002cc7576002811462002cd25762002cf2565b6001915050620003f0565b60ff84111562002ce65762002ce662002e46565b50506001821b620003f0565b5060208310610133831016604e8410600b841016171562002d17575081810a620003f0565b62002d23838362002c3a565b806000190482111562002d3a5762002d3a62002e46565b029392505050565b600081600019048311821515161562002d5f5762002d5f62002e46565b500290565b60008282101562002d795762002d7962002e46565b500390565b60005b8381101562002d9b57818101518382015260200162002d81565b8381111562002dab576000848401525b50505050565b600181811c9082168062002dc657607f821691505b6020821081141562002de857634e487b7160e01b600052602260045260246000fd5b50919050565b600060001982141562002e055762002e0562002e46565b5060010190565b600060ff821660ff81141562002e265762002e2662002e46565b60010192915050565b60008262002e415762002e4162002e5c565b500690565b634e487b7160e01b600052601160045260246000fd5b634e487b7160e01b600052601260045260246000fd5b634e487b7160e01b600052603260045260246000fd5b634e487b7160e01b600052604160045260246000fd5b6001600160a01b0381168114620014ce57600080fd5b8015158114620014ce57600080fd5b60ff81168114620014ce57600080fdfe60806040523480156200001157600080fd5b5060405162002cf438038062002cf4833981016040819052620000349162000459565b806060015181610100015182608001518360a001518460400151856000015186602001518989806001600160a01b03166321df0da76040518163ffffffff1660e01b815260040160206040518083038186803b1580156200009457600080fd5b505afa158015620000a9573d6000803e3d6000fd5b505050506040513d601f19601f82011682018060405250810190620000cf919062000432565b620000da33620001f6565b600280546001600160a01b0319166001600160a01b03831617905550600380546001600160a01b038085166001600160a01b031992831681179093556005805491851691909216179055620001329060009062000246565b6003546200016b907fc002a6b5f9f56101ba6339b1b95d171fadf6e41e005b91c80d686aef7516e759906001600160a01b031662000246565b50506006919091556007556008805460ff1916911515919091179055600991909155600a55600b805461ffff191692151561ff0019169290921761010060ff92909216919091021790556001600c5560c08101518051620001d591600d91602090910190620002cf565b5060e00151600e805460ff191660ff909216919091179055506200063d9050565b600080546001600160a01b038381166001600160a01b0319831681178455604051919092169283917f8be0079c531659141344cd1fd0a4f28419497f9722a3daafe3b4186f6b6457e09190a35050565b60008281526001602090815260408083206001600160a01b038516845290915290205460ff16620002cb5760008281526001602081815260408084206001600160a01b0386168086529252808420805460ff19169093179092559051339285917f2f8788117e7eff1d82e926ec794901d17c78024a50270940304540a733656f0d9190a45b5050565b828054620002dd90620005d1565b90600052602060002090601f0160209004810192826200030157600085556200034c565b82601f106200031c57805160ff19168380011785556200034c565b828001600101855582156200034c579182015b828111156200034c5782518255916020019190600101906200032f565b506200035a9291506200035e565b5090565b5b808211156200035a57600081556001016200035f565b805180151581146200038657600080fd5b919050565b600082601f8301126200039d57600080fd5b81516001600160401b03811115620003b957620003b96200060e565b6020620003cf601f8301601f191682016200059e565b8281528582848701011115620003e457600080fd5b60005b8381101562000404578581018301518282018401528201620003e7565b83811115620004165760008385840101525b5095945050505050565b805160ff811681146200038657600080fd5b6000602082840312156200044557600080fd5b8151620004528162000624565b9392505050565b6000806000606084860312156200046f57600080fd5b83516200047c8162000624565b60208501519093506200048f8162000624565b60408501519092506001600160401b0380821115620004ad57600080fd5b908501906101208288031215620004c357600080fd5b620004cd62000572565b8251815260208301516020820152620004e96040840162000375565b6040820152620004fc6060840162000375565b60608201526080830151608082015260a083015160a082015260c0830151828111156200052857600080fd5b62000536898286016200038b565b60c0830152506200054a60e0840162000420565b60e082015261010091506200056182840162000420565b828201528093505050509250925092565b60405161012081016001600160401b03811182821017156200059857620005986200060e565b60405290565b604051601f8201601f191681016001600160401b0381118282101715620005c957620005c96200060e565b604052919050565b600181811c90821680620005e657607f821691505b602082108114156200060857634e487b7160e01b600052602260045260246000fd5b50919050565b634e487b7160e01b600052604160045260246000fd5b6001600160a01b03811681146200063a57600080fd5b50565b6126a7806200064d6000396000f3fe6080604052600436106101e75760003560e01c80636aca845e11610102578063a9f1778211610095578063d547741f11610064578063d547741f14610551578063e8884f2b14610571578063e8cf51b0146105a5578063f2fde38b146105c557600080fd5b8063a9f17782146104e7578063a9fb763c146104fc578063b31cf9841461051c578063b6b55f251461053e57600080fd5b80638da5cb5b116100d15780638da5cb5b1461047257806391d1485414610490578063a217fddf146104b0578063a5ea11da146104c557600080fd5b80636aca845e146103fb578063715018a61461041b57806382afd23b1461043057806383920e901461045057600080fd5b80632f2ff15d1161017a5780635032d220116101495780635032d2201461039157806351e2412d146103a65780635dc181b3146103bb578063679aefce146103d957600080fd5b80632f2ff15d1461031e57806336568abe1461033e5780633b19e84a1461035e5780633ccfd60b1461037c57600080fd5b806321df0da7116101b657806321df0da7146102a657806322f3e2d4146102d8578063248a9ca3146102ed5780632ccb1b301461020e57600080fd5b806301c6adc31461020e57806301ffc9a714610243578063077763701461026357806312065fe01461029157600080fd5b366102095761020733610202670de0b6b3a76400003461252e565b6105e5565b005b600080fd5b34801561021a57600080fd5b5061022e610229366004612057565b6106df565b60405190151581526020015b60405180910390f35b34801561024f57600080fd5b5061022e61025e3660046121ed565b6106e8565b34801561026f57600080fd5b5061028361027e3660046121a8565b61071d565b60405190815260200161023a565b34801561029d57600080fd5b50610283610746565b3480156102b257600080fd5b506002546001600160a01b03165b6040516001600160a01b03909116815260200161023a565b3480156102e457600080fd5b5061022e6107c7565b3480156102f957600080fd5b506102836103083660046121a8565b6000908152600160208190526040909120015490565b34801561032a57600080fd5b506102076103393660046121c1565b6107d2565b34801561034a57600080fd5b506102076103593660046121c1565b6107fd565b34801561036a57600080fd5b506005546001600160a01b03166102c0565b34801561038857600080fd5b50610207610880565b34801561039d57600080fd5b50610283610b98565b3480156103b257600080fd5b50610283610c77565b3480156103c757600080fd5b506003546001600160a01b03166102c0565b3480156103e557600080fd5b50600e5460405160ff909116815260200161023a565b34801561040757600080fd5b50610283610416366004612081565b610d4a565b34801561042757600080fd5b50610207610d82565b34801561043c57600080fd5b5061022e61044b3660046121a8565b610db8565b34801561045c57600080fd5b50610465610ea3565b60405161023a91906122d1565b34801561047e57600080fd5b506000546001600160a01b03166102c0565b34801561049c57600080fd5b5061022e6104ab3660046121c1565b610f7c565b3480156104bc57600080fd5b50610283600081565b3480156104d157600080fd5b506104da610fa7565b60405161023a91906123af565b3480156104f357600080fd5b506102836111c1565b34801561050857600080fd5b506102076105173660046121a8565b61129d565b34801561052857600080fd5b506105316112d5565b60405161023a9190612367565b61020761054c3660046121a8565b611367565b34801561055d57600080fd5b5061020761056c3660046121c1565b611374565b34801561057d57600080fd5b506102837fc002a6b5f9f56101ba6339b1b95d171fadf6e41e005b91c80d686aef7516e75981565b3480156105b157600080fd5b506102836105c03660046121a8565b61139a565b3480156105d157600080fd5b506102076105e036600461203c565b611474565b6106c06004805480602002602001604051908101604052809291908181526020016000905b828210156106b6576000848152602090206040805160a08101909152600484029091018054829060ff1660038111156106455761064561262f565b60038111156106565761065661262f565b81526020016000820160019054906101000a90046001600160a01b03166001600160a01b03166001600160a01b0316815260200160018201548152602001600282015481526020016003820154815250508152602001906001019061060a565b505050508261150c565b60006106ce60008484611516565b90506106d98161163b565b50505050565b60005b92915050565b60006001600160e01b03198216637965db0b60e01b14806106e257506301ffc9a760e01b6001600160e01b03198316146106e2565b600e5460009060649060ff166107328461139a565b61073c9190612550565b6106e2919061252e565b6002546040516370a0823160e01b81523060048201526000916001600160a01b0316906370a082319060240160206040518083038186803b15801561078a57600080fd5b505afa15801561079e573d6000803e3d6000fd5b505050506040513d601f19601f820116820180604052508101906107c29190612217565b905090565b60006107c242610db8565b600082815260016020819052604090912001546107ee816116e2565b6107f883836116ec565b505050565b6001600160a01b03811633146108725760405162461bcd60e51b815260206004820152602f60248201527f416363657373436f6e74726f6c3a2063616e206f6e6c792072656e6f756e636560448201526e103937b632b9903337b91039b2b63360891b60648201526084015b60405180910390fd5b61087c8282611757565b5050565b6000546001600160a01b031633146108aa5760405162461bcd60e51b81526004016108699061237a565b6002600c5414156108fd5760405162461bcd60e51b815260206004820152601f60248201527f5265656e7472616e637947756172643a207265656e7472616e742063616c6c006044820152606401610869565b6002600c81905550610abc6004805480602002602001604051908101604052809291908181526020016000905b828210156109d6576000848152602090206040805160a08101909152600484029091018054829060ff1660038111156109655761096561262f565b60038111156109765761097661262f565b81526020016000820160019054906101000a90046001600160a01b03166001600160a01b03166001600160a01b0316815260200160018201548152602001600282015481526020016003820154815250508152602001906001019061092a565b50505050610ab76004805480602002602001604051908101604052809291908181526020016000905b82821015610aab576000848152602090206040805160a08101909152600484029091018054829060ff166003811115610a3a57610a3a61262f565b6003811115610a4b57610a4b61262f565b81526020016000820160019054906101000a90046001600160a01b03166001600160a01b03166001600160a01b031681526020016001820154815260200160028201548152602001600382015481525050815260200190600101906109ff565b50505050600a546117be565b6117ed565b610ac461181d565b60005b600454811015610b9057600160048281548110610ae657610ae6612645565b600091825260209091206004909102015460ff166003811115610b0b57610b0b61262f565b1480610b4e5750600360048281548110610b2757610b27612645565b600091825260209091206004909102015460ff166003811115610b4c57610b4c61262f565b145b15610b7e57610b7c60048281548110610b6957610b69612645565b906000526020600020906004020161163b565b505b80610b88816125fe565b915050610ac7565b506001600c55565b60006107c26004805480602002602001604051908101604052809291908181526020016000905b82821015610c6b576000848152602090206040805160a08101909152600484029091018054829060ff166003811115610bfa57610bfa61262f565b6003811115610c0b57610c0b61262f565b81526020016000820160019054906101000a90046001600160a01b03166001600160a01b03166001600160a01b03168152602001600182015481526020016002820154815260200160038201548152505081526020019060010190610bbf565b505050506009546117be565b60006107c26004805480602002602001604051908101604052809291908181526020016000905b82821015610aab576000848152602090206040805160a08101909152600484029091018054829060ff166003811115610cd957610cd961262f565b6003811115610cea57610cea61262f565b81526020016000820160019054906101000a90046001600160a01b03166001600160a01b03166001600160a01b03168152602001600182015481526020016002820154815260200160038201548152505081526020019060010190610c9e565b805160009015610d7a5781600081518110610d6757610d67612645565b6020026020010151608001519050919050565b506000919050565b6000546001600160a01b03163314610dac5760405162461bcd60e51b81526004016108699061237a565b610db660006118cf565b565b6000610e8b6004805480602002602001604051908101604052809291908181526020016000905b82821015610c6b576000848152602090206040805160a08101909152600484029091018054829060ff166003811115610e1a57610e1a61262f565b6003811115610e2b57610e2b61262f565b81526020016000820160019054906101000a90046001600160a01b03166001600160a01b03166001600160a01b03168152602001600182015481526020016002820154815260200160038201548152505081526020019060010190610ddf565b821080156106e25750610e9c61191f565b1592915050565b60606004805480602002602001604051908101604052809291908181526020016000905b82821015610f73576000848152602090206040805160a08101909152600484029091018054829060ff166003811115610f0257610f0261262f565b6003811115610f1357610f1361262f565b81526020016000820160019054906101000a90046001600160a01b03166001600160a01b03166001600160a01b03168152602001600182015481526020016002820154815260200160038201548152505081526020019060010190610ec7565b50505050905090565b60009182526001602090815260408084206001600160a01b0393909316845291905290205460ff1690565b611037604051806102000160405280600081526020016000815260200160008152602001600081526020016000815260200160008152602001600015158152602001600015158152602001600015158152602001600015158152602001600015158152602001600081526020016000815260200160608152602001600060ff168152602001600060ff1681525090565b60405180610200016040528061104b610746565b8152602001611058611a06565b805160009061106957611069612645565b602002602001015181526020016006548152602001600754815260200161108e611a06565b805160029081106110a1576110a1612645565b602002602001015181526020016110b66111c1565b81526020016110c36107c7565b1515815260085460ff90811615156020830152600b5416151560408201526060016110ec611ada565b151581526020016110fb61191f565b151581526020016009548152602001600a548152602001600d805461111f906125c9565b80601f016020809104026020016040519081016040528092919081815260200182805461114b906125c9565b80156111985780601f1061116d57610100808354040283529160200191611198565b820191906000526020600020905b81548152906001019060200180831161117b57829003601f168201915b5050509183525050600e5460ff9081166020830152600b54610100900416604090910152919050565b60006107c26004805480602002602001604051908101604052809291908181526020016000905b82821015611294576000848152602090206040805160a08101909152600484029091018054829060ff1660038111156112235761122361262f565b60038111156112345761123461262f565b81526020016000820160019054906101000a90046001600160a01b03166001600160a01b03166001600160a01b031681526020016001820154815260200160028201548152602001600382015481525050815260200190600101906111e8565b50505050610d4a565b7fc002a6b5f9f56101ba6339b1b95d171fadf6e41e005b91c80d686aef7516e7596112c7816116e2565b60006106ce60023385611516565b6060600d80546112e4906125c9565b80601f0160208091040260200160405190810160405280929190818152602001828054611310906125c9565b801561135d5780601f106113325761010080835404028352916020019161135d565b820191906000526020600020905b81548152906001019060200180831161134057829003601f168201915b5050505050905090565b61137133826105e5565b50565b60008281526001602081905260409091200154611390816116e2565b6107f88383611757565b600080805b60045481101561146d576113b6620151808561256f565b600482815481106113c9576113c9612645565b90600052602060002090600402016002015411156113e8575092915050565b6000600482815481106113fd576113fd612645565b600091825260209091206004909102015460ff1660038111156114225761142261262f565b141561145b576004818154811061143b5761143b612645565b906000526020600020906004020160010154826114589190612516565b91505b80611465816125fe565b91505061139f565b5092915050565b6000546001600160a01b0316331461149e5760405162461bcd60e51b81526004016108699061237a565b6001600160a01b0381166115035760405162461bcd60e51b815260206004820152602660248201527f4f776e61626c653a206e6577206f776e657220697320746865207a65726f206160448201526564647265737360d01b6064820152608401610869565b611371816118cf565b61087c8282611ae5565b6000806040518060a001604052808660038111156115365761153661262f565b81526001600160a01b03861660208201526040810185905242606082015260006080909101819052600480546001818101835592829052835191027f8a35acfbc15ff81a39ae7d344fd709f28e8600b4aa8c65c6b64bfe7fe36bd19b01805493945084939092839160ff1916908360038111156115b5576115b561262f565b0217905550602082015181546001600160a01b0390911661010002610100600160a81b03199091161781556040820151600180830191909155606083015160028301556080909201516003909101556004805490916116139161256f565b8154811061162357611623612645565b90600052602060002090600402019150509392505050565b600081600301546000146116915760405162461bcd60e51b815260206004820152601c60248201527f5472616e73616374696f6e20697320616c7265616479207061796564000000006044820152606401610869565b4260038301556000825460ff1660038111156116af576116af61262f565b14156116c3576106e2338360010154611b16565b815460018301546106e29161010090046001600160a01b031690611bab565b6113718133611be5565b6116f68282610f7c565b61087c5760008281526001602081815260408084206001600160a01b0386168086529252808420805460ff19169093179092559051339285917f2f8788117e7eff1d82e926ec794901d17c78024a50270940304540a733656f0d9190a45050565b6117618282610f7c565b1561087c5760008281526001602090815260408083206001600160a01b0385168085529252808320805460ff1916905551339285917ff6391f5c32d9c69d2a47ea670b442974b53935d1edc7fd64eb21e047a839171b9190a45050565b6000806117ca84610d4a565b9050806117db5760009150506106e2565b6117e58382612516565b949350505050565b6117f561191f565b1561181357604051632e08f66d60e11b815260040160405180910390fd5b61087c8282611c49565b600360009054906101000a90046001600160a01b03166001600160a01b031663985bdacb6040518163ffffffff1660e01b8152600401600060405180830381600087803b15801561186d57600080fd5b505af1158015611881573d6000803e3d6000fd5b50505050600061188f611c79565b90506118af600333836118a0610746565b6118aa919061256f565b611516565b5080156113715760055461087c906001906001600160a01b031683611516565b600080546001600160a01b038381166001600160a01b0319831681178455604051919092169283917f8be0079c531659141344cd1fd0a4f28419497f9722a3daafe3b4186f6b6457e09190a35050565b6004546000905b80156119fe576000600461193b60018461256f565b8154811061194b5761194b612645565b600091825260209091206040805160a081019091526004909202018054829060ff16600381111561197e5761197e61262f565b600381111561198f5761198f61262f565b8152815461010090046001600160a01b031660208201526001820154604082015260028201546060820152600391820154608090910152909150815160038111156119dc576119dc61262f565b14156119eb5760019250505090565b50806119f6816125b2565b915050611926565b506000905090565b60408051600480825260a08201909252606091600091906020820160808036833701905050905060005b600454811015611ad45760048181548110611a4d57611a4d612645565b9060005260206000209060040201600101548260048381548110611a7357611a73612645565b600091825260209091206004909102015460ff166003811115611a9857611a9861262f565b60ff1681518110611aab57611aab612645565b60200260200101818151611abf9190612516565b90525080611acc816125fe565b915050611a30565b50919050565b60006107c242611db1565b60085460ff16158015611af85750815115155b1561087c576040516341df992760e01b815260040160405180910390fd5b6002546040516323b872dd60e01b81526001600160a01b0384811660048301523060248301526044820184905260009216906323b872dd906064015b602060405180830381600087803b158015611b6c57600080fd5b505af1158015611b80573d6000803e3d6000fd5b505050506040513d601f19601f82011682018060405250810190611ba49190612186565b9392505050565b60025460405163a9059cbb60e01b81526001600160a01b03848116600483015260248201849052600092169063a9059cbb90604401611b52565b611bef8282610f7c565b61087c57611c07816001600160a01b03166014611e84565b611c12836020611e84565b604051602001611c2392919061225c565b60408051601f198184030181529082905262461bcd60e51b825261086991600401612367565b600b5460ff16158015611c5b57504281115b1561087c57604051631bc5fe1160e31b815260040160405180910390fd5b6000611d4c6004805480602002602001604051908101604052809291908181526020016000905b82821015610c6b576000848152602090206040805160a08101909152600484029091018054829060ff166003811115611cdb57611cdb61262f565b6003811115611cec57611cec61262f565b81526020016000820160019054906101000a90046001600160a01b03166001600160a01b03166001600160a01b03168152602001600182015481526020016002820154815260200160038201548152505081526020019060010190611ca0565b421115611d595750600090565b6000611d63611a06565b80516002908110611d7657611d76612645565b60200260200101519050612710600b60019054906101000a900460ff1660ff1682611da19190612550565b611dab919061252e565b91505090565b6000610e8b6004805480602002602001604051908101604052809291908181526020016000905b82821015610aab576000848152602090206040805160a08101909152600484029091018054829060ff166003811115611e1357611e1361262f565b6003811115611e2457611e2461262f565b81526020016000820160019054906101000a90046001600160a01b03166001600160a01b03166001600160a01b03168152602001600182015481526020016002820154815260200160038201548152505081526020019060010190611dd8565b60606000611e93836002612550565b611e9e906002612516565b67ffffffffffffffff811115611eb657611eb661265b565b6040519080825280601f01601f191660200182016040528015611ee0576020820181803683370190505b509050600360fc1b81600081518110611efb57611efb612645565b60200101906001600160f81b031916908160001a905350600f60fb1b81600181518110611f2a57611f2a612645565b60200101906001600160f81b031916908160001a9053506000611f4e846002612550565b611f59906001612516565b90505b6001811115611fd1576f181899199a1a9b1b9c1cb0b131b232b360811b85600f1660108110611f8d57611f8d612645565b1a60f81b828281518110611fa357611fa3612645565b60200101906001600160f81b031916908160001a90535060049490941c93611fca816125b2565b9050611f5c565b508315611ba45760405162461bcd60e51b815260206004820181905260248201527f537472696e67733a20686578206c656e67746820696e73756666696369656e746044820152606401610869565b80356001600160a01b038116811461203757600080fd5b919050565b60006020828403121561204e57600080fd5b611ba482612020565b6000806040838503121561206a57600080fd5b61207383612020565b946020939093013593505050565b6000602080838503121561209457600080fd5b823567ffffffffffffffff808211156120ac57600080fd5b818501915085601f8301126120c057600080fd5b8135818111156120d2576120d261265b565b6120e0848260051b016124e5565b818152848101925083850160a0808402860187018a101561210057600080fd5b600095505b838610156121785780828b03121561211c57600080fd5b6121246124bc565b82356004811061213357600080fd5b8152612140838901612020565b818901526040838101359082015260608084013590820152608080840135908201528552600195909501949386019390810190612105565b509098975050505050505050565b60006020828403121561219857600080fd5b81518015158114611ba457600080fd5b6000602082840312156121ba57600080fd5b5035919050565b600080604083850312156121d457600080fd5b823591506121e460208401612020565b90509250929050565b6000602082840312156121ff57600080fd5b81356001600160e01b031981168114611ba457600080fd5b60006020828403121561222957600080fd5b5051919050565b60008151808452612248816020860160208601612586565b601f01601f19169290920160200192915050565b7f416363657373436f6e74726f6c3a206163636f756e7420000000000000000000815260008351612294816017850160208801612586565b7001034b99036b4b9b9b4b733903937b6329607d1b60179184019182015283516122c5816028840160208801612586565b01602801949350505050565b60208082528251828201819052600091906040908185019086840185805b838110156123595782518051600480821061231757634e487b7160e01b855260218152602485fd5b508652808801516001600160a01b0316888701528681015187870152606080820151908701526080908101519086015260a090940193918601916001016122ef565b509298975050505050505050565b602081526000611ba46020830184612230565b6020808252818101527f4f776e61626c653a2063616c6c6572206973206e6f7420746865206f776e6572604082015260600190565b6020815281516020820152602082015160408201526040820151606082015260608201516080820152608082015160a082015260a082015160c0820152600060c083015161240160e084018215159052565b5060e08301516101006124178185018315159052565b840151905061012061242c8482018315159052565b84015190506101406124418482018315159052565b84015190506101606124568482018315159052565b840151610180848101919091528401516101a0808501919091528401516102006101c080860182905291925090612491610220860184612230565b908601519092506101e06124a98682018360ff169052565b9095015160ff1693019290925250919050565b60405160a0810167ffffffffffffffff811182821017156124df576124df61265b565b60405290565b604051601f8201601f1916810167ffffffffffffffff8111828210171561250e5761250e61265b565b604052919050565b6000821982111561252957612529612619565b500190565b60008261254b57634e487b7160e01b600052601260045260246000fd5b500490565b600081600019048311821515161561256a5761256a612619565b500290565b60008282101561258157612581612619565b500390565b60005b838110156125a1578181015183820152602001612589565b838111156106d95750506000910152565b6000816125c1576125c1612619565b506000190190565b600181811c908216806125dd57607f821691505b60208210811415611ad457634e487b7160e01b600052602260045260246000fd5b600060001982141561261257612612612619565b5060010190565b634e487b7160e01b600052601160045260246000fd5b634e487b7160e01b600052602160045260246000fd5b634e487b7160e01b600052603260045260246000fd5b634e487b7160e01b600052604160045260246000fdfea264697066735822122041bd3e20360277495a56394eccf8b619ca969a8918308f45d7c26ce56088dbcc64736f6c63430008070033a26469706673582212200d2ac0549ef79da819f13d6389222e27119a9a9468795c95cedb0ba9c79e00a664736f6c63430008070033",
  "immutableReferences": {},
  "source": "// SPDX-License-Identifier: MIT\npragma solidity 0.8.7;\n\nimport \"@openzeppelin/contracts-upgradeable/access/OwnableUpgradeable.sol\";\nimport \"@openzeppelin/contracts-upgradeable/proxy/utils/Initializable.sol\";\n\nimport \"../BankAccountUpgradeable.sol\";\nimport \"../Date.sol\";\nimport \"../IUpgradeable.sol\";\nimport \"../Refillable.sol\";\n\nimport \"./Deposit.sol\";\nimport \"./ILaunchpool.sol\";\n\n/**\n * @dev Launchpool\n */\ncontract Launchpool is\n    Initializable,\n    OwnableUpgradeable,\n    BankAccountUpgradeable,\n    Refillable,\n    ILaunchpool,\n    IUpgradeable\n{\n    struct DepositListItems {\n        address agreement;\n        Deposit.DepositParameters parameters;\n    }\n\n    Deposit[] private _deposits;\n\n    Deposit.ProgramParameters[] private _depositPrograms;\n\n    mapping(address => Deposit[]) private _ownerDeposits;\n\n    mapping(uint256 => mapping(address => uint256)) private _rewards;\n\n    mapping(uint256 => uint256) private _transfers;\n\n    IBankAccount private _treasury;\n\n    error LaunchpoolDepositProgramNotExists(string program);\n    error LaunchpoolTooMuchDepositPrograms(uint8 maxNumber);\n\n    event LaunchpoolDepositCreated(Deposit deposit);\n\n    function createDeposit(string memory program) external {\n        address owner = _msgSender();\n\n        Deposit deposit = new Deposit(\n            this,\n            _treasury,\n            getDepositProgram(program)\n        );\n\n        _deposits.push(deposit);\n\n        _ownerDeposits[owner].push(deposit);\n\n        deposit.transferOwnership(owner);\n\n        emit LaunchpoolDepositCreated(deposit);\n    }\n\n    function __Launchpool_init(IBankAccount treasury) public initializer {\n        __Ownable_init();\n        __BankAccount_init(treasury.getToken());\n        __Refillable_init();\n\n        _treasury = treasury;\n    }\n\n    function isReadyToRefill(uint256 date)\n        external\n        view\n        override\n        returns (bool)\n    {\n        if (_hasActiveDepositsOnDate(date)) {\n            return true;\n        }\n\n        return false;\n    }\n\n    function getDeposits() external view returns (DepositListItems[] memory) {\n        address owner = _msgSender();\n\n        DepositListItems[] memory deposits = new DepositListItems[](\n            _ownerDeposits[owner].length\n        );\n\n        for (uint256 i = 0; i < _ownerDeposits[owner].length; i++) {\n            Deposit deposit = _ownerDeposits[owner][i];\n\n            deposits[i] = DepositListItems({\n                agreement: address(deposit),\n                parameters: deposit.getParameters()\n            });\n        }\n\n        return deposits;\n    }\n\n    function getDepositProgram(string memory program)\n        public\n        view\n        returns (Deposit.ProgramParameters memory)\n    {\n        for (uint8 i = 0; i < _depositPrograms.length; i++) {\n            if (_isEqual(_depositPrograms[i].program, program)) {\n                return _depositPrograms[i];\n            }\n        }\n\n        revert LaunchpoolDepositProgramNotExists(program);\n    }\n\n    function getDepositPrograms()\n        public\n        view\n        returns (Deposit.ProgramParameters[] memory)\n    {\n        return _depositPrograms;\n    }\n\n    function getName() external pure override returns (string memory) {\n        return \"Launchpool\";\n    }\n\n    function getTransfersAmount(uint256 date) external view returns (uint256) {\n        return _transfers[_getKey(date)];\n    }\n\n    function setDepositPrograms(\n        Deposit.ProgramParameters[] memory depositPrograms\n    ) external onlyOwner {\n        if (type(uint8).max < depositPrograms.length) {\n            revert LaunchpoolTooMuchDepositPrograms({\n                maxNumber: type(uint8).max\n            });\n        }\n\n        delete _depositPrograms;\n\n        for (uint8 i = 0; i < depositPrograms.length; i++) {\n            _depositPrograms.push(depositPrograms[i]);\n        }\n    }\n\n    function transferDailyRewards() external override {\n        // TODO can be runned not only by deposit\n        address payable deposit = payable(_msgSender());\n\n        uint256 amount = _getDepositRewards(deposit);\n\n        this.getToken().approve(deposit, amount);\n\n        Deposit(deposit).reward(amount);\n    }\n\n    function _calculateRewards(uint256 date) private {\n        uint256 totalRate = 0;\n\n        for (uint256 i = 0; i < _deposits.length; i++) {\n            if (_deposits[i].isActive(date)) {\n                uint256 rate = _deposits[i].getBaseToCalculateReward(date);\n\n                _rewards[_getKey(date)][address(_deposits[i])] = rate;\n\n                totalRate += rate;\n            }\n        }\n\n        if (totalRate == 0) {\n            return;\n        }\n\n        for (uint256 i = 0; i < _deposits.length; i++) {\n            if (_deposits[i].isActive(date)) {\n                uint256 rate = _rewards[_getKey(date)][address(_deposits[i])];\n\n                _rewards[_getKey(date)][address(_deposits[i])] =\n                    (rate * _transfers[_getKey(date)]) /\n                    totalRate;\n            }\n        }\n    }\n\n    function _hasActiveDepositsOnDate(uint256 date)\n        private\n        view\n        returns (bool)\n    {\n        for (uint256 i = 0; i < _deposits.length; i++) {\n            if (_deposits[i].isActive(date)) {\n                return true;\n            }\n        }\n\n        return false;\n    }\n\n    function _isEqual(string memory program1, string memory program2)\n        private\n        pure\n        returns (bool)\n    {\n        return (keccak256(abi.encodePacked(program1)) ==\n            keccak256(abi.encodePacked(program2)));\n    }\n\n    function _getDepositRewards(address payable deposit)\n        private\n        view\n        returns (uint256)\n    {\n        uint256 amount;\n\n        uint256 date = Deposit(deposit).getBeginDateTime();\n        uint256 end = Deposit(deposit).getPeriodMaximumDateTime();\n\n        while (date <= end) {\n            amount += _rewards[_getKey(date)][address(deposit)];\n            date += 1 days;\n        }\n\n        return amount;\n    }\n\n    function _getKey(uint256 date) private pure returns (uint256) {\n        return Date.toDate(date);\n    }\n\n    function _postTransferFromSupplier(uint256 date, uint256 amount)\n        internal\n        override\n    {\n        _transfers[_getKey(date)] += amount;\n\n        _calculateRewards(date - 1 days);\n    }\n}\n",
  "sourcePath": "/Users/ievgencherkaskyi/Projects/tivan/hexagons/contracts/Launchpool/Launchpool.sol",
  "compiler": {
    "name": "solc",
    "version": "0.8.7+commit.e28d00a7.Emscripten.clang"
  },
  "schemaVersion": "3.3.3",
  "updatedAt": "2022-07-11T22:06:52.726Z",
  "devdoc": {
    "details": "Launchpool",
    "kind": "dev",
    "methods": {
      "owner()": {
        "details": "Returns the address of the current owner."
      },
      "renounceOwnership()": {
        "details": "Leaves the contract without owner. It will not be possible to call `onlyOwner` functions anymore. Can only be called by the current owner. NOTE: Renouncing ownership will leave the contract without an owner, thereby removing any functionality that is only available to the owner."
      },
      "transferOwnership(address)": {
        "details": "Transfers ownership of the contract to a new account (`newOwner`). Can only be called by the current owner."
      }
    },
    "version": 1
  },
  "userdoc": {
    "kind": "user",
    "methods": {},
    "version": 1
  }
}