{
  "contractName": "Launchpool",
  "abi": [
    {
      "inputs": [
        {
          "internalType": "string",
          "name": "program",
          "type": "string"
        }
      ],
      "name": "LaunchpoolDepositProgramNotExists",
      "type": "error"
    },
    {
      "inputs": [
        {
          "internalType": "uint8",
          "name": "maxNumber",
          "type": "uint8"
        }
      ],
      "name": "LaunchpoolTooMuchDepositPrograms",
      "type": "error"
    },
    {
      "inputs": [
        {
          "internalType": "address",
          "name": "supplier",
          "type": "address"
        }
      ],
      "name": "RefillableSupplierNotExists",
      "type": "error"
    },
    {
      "inputs": [
        {
          "internalType": "uint8",
          "name": "maxNumber",
          "type": "uint8"
        }
      ],
      "name": "RefillableTooMuchSuppliers",
      "type": "error"
    },
    {
      "anonymous": false,
      "inputs": [
        {
          "indexed": false,
          "internalType": "uint8",
          "name": "version",
          "type": "uint8"
        }
      ],
      "name": "Initialized",
      "type": "event"
    },
    {
      "anonymous": false,
      "inputs": [
        {
          "indexed": false,
          "internalType": "contract Deposit",
          "name": "deposit",
          "type": "address"
        }
      ],
      "name": "LaunchpoolDepositCreated",
      "type": "event"
    },
    {
      "anonymous": false,
      "inputs": [
        {
          "indexed": true,
          "internalType": "address",
          "name": "previousOwner",
          "type": "address"
        },
        {
          "indexed": true,
          "internalType": "address",
          "name": "newOwner",
          "type": "address"
        }
      ],
      "name": "OwnershipTransferred",
      "type": "event"
    },
    {
      "inputs": [],
      "name": "getBalance",
      "outputs": [
        {
          "internalType": "uint256",
          "name": "",
          "type": "uint256"
        }
      ],
      "stateMutability": "view",
      "type": "function"
    },
    {
      "inputs": [],
      "name": "getRefillableSuppliers",
      "outputs": [
        {
          "components": [
            {
              "internalType": "contract IBankAccountSupplier",
              "name": "agreement",
              "type": "address"
            },
            {
              "internalType": "uint256",
              "name": "reward",
              "type": "uint256"
            }
          ],
          "internalType": "struct Refillable.RefillableSupplier[]",
          "name": "",
          "type": "tuple[]"
        }
      ],
      "stateMutability": "view",
      "type": "function"
    },
    {
      "inputs": [],
      "name": "getToken",
      "outputs": [
        {
          "internalType": "contract IERC20",
          "name": "",
          "type": "address"
        }
      ],
      "stateMutability": "view",
      "type": "function"
    },
    {
      "inputs": [],
      "name": "owner",
      "outputs": [
        {
          "internalType": "address",
          "name": "",
          "type": "address"
        }
      ],
      "stateMutability": "view",
      "type": "function"
    },
    {
      "inputs": [],
      "name": "refill",
      "outputs": [],
      "stateMutability": "nonpayable",
      "type": "function"
    },
    {
      "inputs": [],
      "name": "renounceOwnership",
      "outputs": [],
      "stateMutability": "nonpayable",
      "type": "function"
    },
    {
      "inputs": [
        {
          "components": [
            {
              "internalType": "contract IBankAccountSupplier",
              "name": "agreement",
              "type": "address"
            },
            {
              "internalType": "uint256",
              "name": "reward",
              "type": "uint256"
            }
          ],
          "internalType": "struct Refillable.RefillableSupplier[]",
          "name": "suppliers",
          "type": "tuple[]"
        }
      ],
      "name": "setRefillableSuppliers",
      "outputs": [],
      "stateMutability": "nonpayable",
      "type": "function"
    },
    {
      "inputs": [
        {
          "internalType": "address",
          "name": "to",
          "type": "address"
        },
        {
          "internalType": "uint256",
          "name": "amount",
          "type": "uint256"
        }
      ],
      "name": "transferFrom",
      "outputs": [
        {
          "internalType": "bool",
          "name": "",
          "type": "bool"
        }
      ],
      "stateMutability": "nonpayable",
      "type": "function"
    },
    {
      "inputs": [
        {
          "internalType": "uint256",
          "name": "date",
          "type": "uint256"
        },
        {
          "internalType": "uint256",
          "name": "amount",
          "type": "uint256"
        },
        {
          "internalType": "address",
          "name": "sender",
          "type": "address"
        }
      ],
      "name": "transferFromSupplier",
      "outputs": [],
      "stateMutability": "nonpayable",
      "type": "function"
    },
    {
      "inputs": [
        {
          "internalType": "address",
          "name": "newOwner",
          "type": "address"
        }
      ],
      "name": "transferOwnership",
      "outputs": [],
      "stateMutability": "nonpayable",
      "type": "function"
    },
    {
      "inputs": [
        {
          "internalType": "uint256",
          "name": "amount",
          "type": "uint256"
        }
      ],
      "name": "transferTo",
      "outputs": [
        {
          "internalType": "bool",
          "name": "",
          "type": "bool"
        }
      ],
      "stateMutability": "nonpayable",
      "type": "function"
    },
    {
      "inputs": [
        {
          "internalType": "string",
          "name": "program",
          "type": "string"
        }
      ],
      "name": "createDeposit",
      "outputs": [],
      "stateMutability": "nonpayable",
      "type": "function"
    },
    {
      "inputs": [
        {
          "internalType": "contract IBankAccount",
          "name": "treasury",
          "type": "address"
        }
      ],
      "name": "__Launchpool_init",
      "outputs": [],
      "stateMutability": "nonpayable",
      "type": "function"
    },
    {
      "inputs": [
        {
          "internalType": "uint256",
          "name": "date",
          "type": "uint256"
        }
      ],
      "name": "isReadyToRefill",
      "outputs": [
        {
          "internalType": "bool",
          "name": "",
          "type": "bool"
        }
      ],
      "stateMutability": "view",
      "type": "function"
    },
    {
      "inputs": [],
      "name": "getDeposits",
      "outputs": [
        {
          "components": [
            {
              "internalType": "address",
              "name": "agreement",
              "type": "address"
            },
            {
              "components": [
                {
                  "internalType": "uint256",
                  "name": "amount",
                  "type": "uint256"
                },
                {
                  "internalType": "uint256",
                  "name": "amountDeposit",
                  "type": "uint256"
                },
                {
                  "internalType": "uint256",
                  "name": "amountMaximum",
                  "type": "uint256"
                },
                {
                  "internalType": "uint256",
                  "name": "amountMinimum",
                  "type": "uint256"
                },
                {
                  "internalType": "uint256",
                  "name": "amountReward",
                  "type": "uint256"
                },
                {
                  "internalType": "uint256",
                  "name": "beginDateTime",
                  "type": "uint256"
                },
                {
                  "internalType": "bool",
                  "name": "isActive",
                  "type": "bool"
                },
                {
                  "internalType": "bool",
                  "name": "isDepositable",
                  "type": "bool"
                },
                {
                  "internalType": "bool",
                  "name": "isTerminatable",
                  "type": "bool"
                },
                {
                  "internalType": "bool",
                  "name": "isWithdrawable",
                  "type": "bool"
                },
                {
                  "internalType": "bool",
                  "name": "isWithdrawed",
                  "type": "bool"
                },
                {
                  "internalType": "uint256",
                  "name": "periodMaximum",
                  "type": "uint256"
                },
                {
                  "internalType": "uint256",
                  "name": "periodMinimum",
                  "type": "uint256"
                },
                {
                  "internalType": "string",
                  "name": "program",
                  "type": "string"
                },
                {
                  "internalType": "uint8",
                  "name": "rate",
                  "type": "uint8"
                },
                {
                  "internalType": "uint8",
                  "name": "terminationPenalty",
                  "type": "uint8"
                }
              ],
              "internalType": "struct BaseDeposit.DepositParameters",
              "name": "parameters",
              "type": "tuple"
            }
          ],
          "internalType": "struct Launchpool.DepositListItems[]",
          "name": "",
          "type": "tuple[]"
        }
      ],
      "stateMutability": "view",
      "type": "function"
    },
    {
      "inputs": [
        {
          "internalType": "string",
          "name": "program",
          "type": "string"
        }
      ],
      "name": "getDepositProgram",
      "outputs": [
        {
          "components": [
            {
              "internalType": "uint256",
              "name": "amountMaximum",
              "type": "uint256"
            },
            {
              "internalType": "uint256",
              "name": "amountMinimum",
              "type": "uint256"
            },
            {
              "internalType": "bool",
              "name": "isDepositable",
              "type": "bool"
            },
            {
              "internalType": "bool",
              "name": "isTerminatable",
              "type": "bool"
            },
            {
              "internalType": "uint256",
              "name": "periodMaximum",
              "type": "uint256"
            },
            {
              "internalType": "uint256",
              "name": "periodMinimum",
              "type": "uint256"
            },
            {
              "internalType": "string",
              "name": "program",
              "type": "string"
            },
            {
              "internalType": "uint8",
              "name": "rate",
              "type": "uint8"
            },
            {
              "internalType": "uint8",
              "name": "terminationPenalty",
              "type": "uint8"
            }
          ],
          "internalType": "struct BaseDeposit.ProgramParameters",
          "name": "",
          "type": "tuple"
        }
      ],
      "stateMutability": "view",
      "type": "function"
    },
    {
      "inputs": [],
      "name": "getDepositPrograms",
      "outputs": [
        {
          "components": [
            {
              "internalType": "uint256",
              "name": "amountMaximum",
              "type": "uint256"
            },
            {
              "internalType": "uint256",
              "name": "amountMinimum",
              "type": "uint256"
            },
            {
              "internalType": "bool",
              "name": "isDepositable",
              "type": "bool"
            },
            {
              "internalType": "bool",
              "name": "isTerminatable",
              "type": "bool"
            },
            {
              "internalType": "uint256",
              "name": "periodMaximum",
              "type": "uint256"
            },
            {
              "internalType": "uint256",
              "name": "periodMinimum",
              "type": "uint256"
            },
            {
              "internalType": "string",
              "name": "program",
              "type": "string"
            },
            {
              "internalType": "uint8",
              "name": "rate",
              "type": "uint8"
            },
            {
              "internalType": "uint8",
              "name": "terminationPenalty",
              "type": "uint8"
            }
          ],
          "internalType": "struct BaseDeposit.ProgramParameters[]",
          "name": "",
          "type": "tuple[]"
        }
      ],
      "stateMutability": "view",
      "type": "function"
    },
    {
      "inputs": [],
      "name": "getName",
      "outputs": [
        {
          "internalType": "string",
          "name": "",
          "type": "string"
        }
      ],
      "stateMutability": "pure",
      "type": "function"
    },
    {
      "inputs": [
        {
          "internalType": "uint256",
          "name": "date",
          "type": "uint256"
        }
      ],
      "name": "getTransfersAmount",
      "outputs": [
        {
          "internalType": "uint256",
          "name": "",
          "type": "uint256"
        }
      ],
      "stateMutability": "view",
      "type": "function"
    },
    {
      "inputs": [
        {
          "components": [
            {
              "internalType": "uint256",
              "name": "amountMaximum",
              "type": "uint256"
            },
            {
              "internalType": "uint256",
              "name": "amountMinimum",
              "type": "uint256"
            },
            {
              "internalType": "bool",
              "name": "isDepositable",
              "type": "bool"
            },
            {
              "internalType": "bool",
              "name": "isTerminatable",
              "type": "bool"
            },
            {
              "internalType": "uint256",
              "name": "periodMaximum",
              "type": "uint256"
            },
            {
              "internalType": "uint256",
              "name": "periodMinimum",
              "type": "uint256"
            },
            {
              "internalType": "string",
              "name": "program",
              "type": "string"
            },
            {
              "internalType": "uint8",
              "name": "rate",
              "type": "uint8"
            },
            {
              "internalType": "uint8",
              "name": "terminationPenalty",
              "type": "uint8"
            }
          ],
          "internalType": "struct BaseDeposit.ProgramParameters[]",
          "name": "depositPrograms",
          "type": "tuple[]"
        }
      ],
      "name": "setDepositPrograms",
      "outputs": [],
      "stateMutability": "nonpayable",
      "type": "function"
    },
    {
      "inputs": [],
      "name": "transferDailyRewards",
      "outputs": [],
      "stateMutability": "nonpayable",
      "type": "function"
    }
  ],
  "bytecode": "0x608060405234801561001057600080fd5b50615c31806100206000396000f3fe60806040523480156200001157600080fd5b5060043610620001515760003560e01c8063826dde2611620000c7578063aafbb0091162000086578063aafbb00914620002d5578063ba0f49b714620002ec578063c1e6a28f1462000303578063d622989a146200031a578063e27ed9331462000333578063f2fde38b146200034a57600080fd5b8063826dde2614620002745780638da5cb5b146200028b57806391c7c2b5146200029d578063985bdacb14620002b4578063a0c855e414620002be57600080fd5b80633c5e533b11620001145780633c5e533b1462000208578063538e0759146200022e57806363909f86146200023a5780636b149d871462000251578063715018a6146200026a57600080fd5b806301c6adc31462000156578063116e2e44146200018257806312065fe0146200019b57806317d7de7c14620001b457806321df0da714620001e2575b600080fd5b6200016d620001673660046200221d565b62000361565b60405190151581526020015b60405180910390f35b6200018c620003f6565b6040516200017991906200292c565b620001a562000564565b60405190815260200162000179565b604080518082018252600a81526913185d5b98da1c1bdbdb60b21b6020820152905162000179919062002a23565b6065546001600160a01b03165b6040516001600160a01b03909116815260200162000179565b6200021f62000219366004620024cf565b620005e9565b60405162000179919062002b06565b6200023862000889565b005b6200016d6200024b36600462002662565b62000992565b6200025b620009b5565b604051620001799190620027af565b6200023862000b6a565b62000238620002853660046200224c565b62000ba5565b6033546001600160a01b0316620001ef565b620001a5620002ae36600462002662565b62000d09565b6200023862000d30565b62000238620002cf36600462002696565b62000e9e565b62000238620002e6366004620021fd565b62001011565b6200016d620002fd36600462002662565b62001130565b6200023862000314366004620024cf565b62001146565b62000324620012ab565b60405162000179919062002992565b6200023862000344366004620023bd565b62001319565b620002386200035b366004620021fd565b62001404565b60655460405163a9059cbb60e01b81526001600160a01b03848116600483015260248201849052600092169063a9059cbb906044015b602060405180830381600087803b158015620003b257600080fd5b505af1158015620003c7573d6000803e3d6000fd5b505050506040513d601f19601f82011682018060405250810190620003ed91906200248f565b90505b92915050565b60606068805480602002602001604051908101604052809291908181526020016000905b828210156200055b57600084815260209081902060408051610120810182526007860290920180548352600181015493830193909352600283015460ff8082161515928401929092526101009004161515606082015260038201546080820152600482015460a082015260058201805491929160c0840191906200049e9062002dc4565b80601f0160208091040260200160405190810160405280929190818152602001828054620004cc9062002dc4565b80156200051d5780601f10620004f1576101008083540402835291602001916200051d565b820191906000526020600020905b815481529060010190602001808311620004ff57829003601f168201915b50505091835250506006919091015460ff8082166020808501919091526101009092041660409092019190915290825260019290920191016200041a565b50505050905090565b6065546040516370a0823160e01b81523060048201526000916001600160a01b0316906370a082319060240160206040518083038186803b158015620005a957600080fd5b505afa158015620005be573d6000803e3d6000fd5b505050506040513d601f19601f82011682018060405250810190620005e491906200267c565b905090565b604080516101208101825260008082526020820181905291810182905260608082018390526080820183905260a0820183905260c082015260e081018290526101008101829052905b60685460ff8216101562000862576200070660688260ff16815481106200065d576200065d62002e85565b906000526020600020906007020160050180546200067b9062002dc4565b80601f0160208091040260200160405190810160405280929190818152602001828054620006a99062002dc4565b8015620006fa5780601f10620006ce57610100808354040283529160200191620006fa565b820191906000526020600020905b815481529060010190602001808311620006dc57829003601f168201915b505050505084620014a6565b156200084d5760688160ff168154811062000725576200072562002e85565b60009182526020918290206040805161012081018252600790930290910180548352600181015493830193909352600283015460ff8082161515928401929092526101009004161515606082015260038201546080820152600482015460a082015260058201805491929160c084019190620007a19062002dc4565b80601f0160208091040260200160405190810160405280929190818152602001828054620007cf9062002dc4565b8015620008205780601f10620007f45761010080835404028352916020019162000820565b820191906000526020600020905b8154815290600101906020018083116200080257829003601f168201915b50505091835250506006919091015460ff8082166020840152610100909104166040909101529392505050565b80620008598162002e1f565b91505062000632565b5081604051636609ccfd60e11b815260040162000880919062002a23565b60405180910390fd5b3360005b6066548110156200098e57600060668281548110620008b057620008b062002e85565b600091825260208220600290910201546040805163e4fc6b6d60e01b815290516001600160a01b039092169350839263e4fc6b6d9260048084019382900301818387803b1580156200090157600080fd5b505af115801562000916573d6000803e3d6000fd5b5050604051630c11dedd60e01b81526001600160a01b03868116600483015284169250630c11dedd9150602401600060405180830381600087803b1580156200095e57600080fd5b505af115801562000973573d6000803e3d6000fd5b50505050508080620009859062002e01565b9150506200088d565b5050565b60006200099f8262001503565b15620009ad57506001919050565b506000919050565b33600081815260696020526040812054606092919067ffffffffffffffff811115620009e557620009e562002e9b565b60405190808252806020026020018201604052801562000a2257816020015b62000a0e62001eb1565b81526020019060019003908162000a045790505b50905060005b6001600160a01b03831660009081526069602052604090205481101562000b63576001600160a01b038316600090815260696020526040812080548390811062000a765762000a7662002e85565b9060005260206000200160009054906101000a90046001600160a01b031690506040518060400160405280826001600160a01b03168152602001826001600160a01b031663a5ea11da6040518163ffffffff1660e01b815260040160006040518083038186803b15801562000aea57600080fd5b505afa15801562000aff573d6000803e3d6000fd5b505050506040513d6000823e601f3d908101601f1916820160405262000b29919081019062002508565b81525083838151811062000b415762000b4162002e85565b602002602001018190525050808062000b5a9062002e01565b91505062000a28565b5092915050565b6033546001600160a01b0316331462000b975760405162461bcd60e51b8152600401620008809062002a86565b62000ba36000620015de565b565b6033546001600160a01b0316331462000bd25760405162461bcd60e51b8152600401620008809062002a86565b805160ff101562000bfa57604051630dc3892760e41b815260ff600482015260240162000880565b62000c086068600062001f62565b60005b81518160ff1610156200098e576068828260ff168151811062000c325762000c3262002e85565b602090810291909101810151825460018181018555600094855293839020825160079092020190815581830151938101939093556040810151600284018054606084015115156101000261ff00199315159390931661ffff19909116179190911790556080810151600384015560a0810151600484015560c0810151805191939262000cc79260058501929091019062001f85565b5060e082015160069190910180546101009384015160ff93841661ffff199092169190911792169092021790558062000d008162002e1f565b91505062000c0b565b6000606b600062000d1a8462001630565b8152602001908152602001600020549050919050565b33600062000d3e826200163d565b9050306001600160a01b03166321df0da76040518163ffffffff1660e01b815260040160206040518083038186803b15801562000d7a57600080fd5b505afa15801562000d8f573d6000803e3d6000fd5b505050506040513d601f19601f8201168201806040525081019062000db59190620024af565b60405163095ea7b360e01b81526001600160a01b03848116600483015260248201849052919091169063095ea7b390604401602060405180830381600087803b15801562000e0257600080fd5b505af115801562000e17573d6000803e3d6000fd5b505050506040513d601f19601f8201168201806040525081019062000e3d91906200248f565b50604051632a7edd8f60e21b8152600481018290526001600160a01b0383169063a9fb763c90602401600060405180830381600087803b15801562000e8157600080fd5b505af115801562000e96573d6000803e3d6000fd5b505050505050565b600062000eaa6200179f565b9050600062000ebe82602001518562001889565b9050808411156200100a5781516001600160a01b03166301c6adc33062000ee6848862002d77565b6040516001600160e01b031960e085901b1681526001600160a01b0390921660048301526024820152604401602060405180830381600087803b15801562000f2d57600080fd5b505af115801562000f42573d6000803e3d6000fd5b505050506040513d601f19601f8201168201806040525081019062000f6891906200248f565b5081516040516301c6adc360e01b81526001600160a01b03858116600483015260248201849052909116906301c6adc390604401602060405180830381600087803b15801562000fb757600080fd5b505af115801562000fcc573d6000803e3d6000fd5b505050506040513d601f19601f8201168201806040525081019062000ff291906200248f565b506200100a8562001004838762002d77565b620018b1565b5050505050565b60006200101f6001620018ff565b9050801562001038576000805461ff0019166101001790555b620010426200198c565b620010c1826001600160a01b03166321df0da76040518163ffffffff1660e01b815260040160206040518083038186803b1580156200108057600080fd5b505afa15801562001095573d6000803e3d6000fd5b505050506040513d601f19601f82011682018060405250810190620010bb9190620024af565b620019c0565b620010cb62001a16565b606c80546001600160a01b0319166001600160a01b03841617905580156200098e576000805461ff0019169055604051600181527f7f26b83ff96e1f2b6a682f133852f6798a09c465da95921460cefb38474024989060200160405180910390a15050565b6000336200113f818462001a54565b9392505050565b606c54339060009030906001600160a01b03166200116485620005e9565b604051620011729062002014565b6200118093929190620029ec565b604051809103906000f0801580156200119d573d6000803e3d6000fd5b506067805460018082019092557f9787eeb91fe3101235e4a76063c7023ecb40f923f97916639c598592fa30d6ae0180546001600160a01b038481166001600160a01b0319928316811790935586166000818152606960209081526040808320805497880181558352912090940180549092168317909155915163f2fde38b60e01b8152600481019290925291925063f2fde38b90602401600060405180830381600087803b1580156200125057600080fd5b505af115801562001265573d6000803e3d6000fd5b50506040516001600160a01b03841681527f1f481075f52d22bf57a98023748eb71f465f54d8fb40a598c0b1e652dce5a29d9250602001905060405180910390a1505050565b60606066805480602002602001604051908101604052809291908181526020016000905b828210156200055b576000848152602090819020604080518082019091526002850290910180546001600160a01b03168252600190810154828401529083529092019101620012cf565b6033546001600160a01b03163314620013465760405162461bcd60e51b8152600401620008809062002a86565b805160ff10156200136e57604051634aa7b2d560e01b815260ff600482015260240162000880565b6200137c6066600062002022565b60005b81518160ff1610156200098e576066828260ff1681518110620013a657620013a662002e85565b602090810291909101810151825460018082018555600094855293839020825160029092020180546001600160a01b0319166001600160a01b0390921691909117815591015191015580620013fb8162002e1f565b9150506200137f565b6033546001600160a01b03163314620014315760405162461bcd60e51b8152600401620008809062002a86565b6001600160a01b038116620014985760405162461bcd60e51b815260206004820152602660248201527f4f776e61626c653a206e6577206f776e657220697320746865207a65726f206160448201526564647265737360d01b606482015260840162000880565b620014a381620015de565b50565b600081604051602001620014bb919062002791565b6040516020818303038152906040528051906020012083604051602001620014e4919062002791565b6040516020818303038152906040528051906020012014905092915050565b6000805b606754811015620015d5576067818154811062001528576200152862002e85565b6000918252602090912001546040516382afd23b60e01b8152600481018590526001600160a01b03909116906382afd23b9060240160206040518083038186803b1580156200157657600080fd5b505afa1580156200158b573d6000803e3d6000fd5b505050506040513d601f19601f82011682018060405250810190620015b191906200248f565b15620015c05750600192915050565b80620015cc8162002e01565b91505062001507565b50600092915050565b603380546001600160a01b038381166001600160a01b0319831681179093556040519116919082907f8be0079c531659141344cd1fd0a4f28419497f9722a3daafe3b4186f6b6457e090600090a35050565b6000620003f08262001a95565b6000806000836001600160a01b031663a9f177826040518163ffffffff1660e01b815260040160206040518083038186803b1580156200167c57600080fd5b505afa15801562001691573d6000803e3d6000fd5b505050506040513d601f19601f82011682018060405250810190620016b791906200267c565b90506000846001600160a01b0316635032d2206040518163ffffffff1660e01b815260040160206040518083038186803b158015620016f557600080fd5b505afa1580156200170a573d6000803e3d6000fd5b505050506040513d601f19601f820116820180604052508101906200173091906200267c565b90505b8082116200179657606a60006200174a8462001630565b8152602080820192909252604090810160009081206001600160a01b03891682529092529020546200177d908462002c1b565b92506200178e620151808362002c1b565b915062001733565b50909392505050565b6040805180820190915260008082526020820181905233905b606654811015620018635760668181548110620017d957620017d962002e85565b60009182526020909120600290910201546001600160a01b03838116911614156200184e576066818154811062001814576200181462002e85565b60009182526020918290206040805180820190915260029092020180546001600160a01b0316825260010154918101919091529392505050565b806200185a8162002e01565b915050620017b8565b506040516364a8f42560e01b81526001600160a01b038216600482015260240162000880565b6000620018996004600a62002c96565b620018a5848462002d55565b620003ed919062002c36565b80606b6000620018c18562001630565b81526020019081526020016000206000828254620018e0919062002c1b565b909155506200098e9050620018f9620151808462002d77565b62001ab2565b60008054610100900460ff161562001943578160ff166001148015620019245750303b155b620009ad5760405162461bcd60e51b8152600401620008809062002a38565b60005460ff8084169116106200196d5760405162461bcd60e51b8152600401620008809062002a38565b506000805460ff191660ff92909216919091179055600190565b919050565b600054610100900460ff16620019b65760405162461bcd60e51b8152600401620008809062002abb565b62000ba362001e52565b600054610100900460ff16620019ea5760405162461bcd60e51b8152600401620008809062002abb565b620019f462001e87565b606580546001600160a01b0319166001600160a01b0392909216919091179055565b600054610100900460ff1662001a405760405162461bcd60e51b8152600401620008809062002abb565b62001a4a62001e87565b62000ba36200198c565b6065546040516323b872dd60e01b81526001600160a01b0384811660048301523060248301526044820184905260009216906323b872dd9060640162000397565b600062001aa6620151808362002e42565b620003f0908362002d77565b6000805b60675481101562001c88576067818154811062001ad75762001ad762002e85565b6000918252602090912001546040516382afd23b60e01b8152600481018590526001600160a01b03909116906382afd23b9060240160206040518083038186803b15801562001b2557600080fd5b505afa15801562001b3a573d6000803e3d6000fd5b505050506040513d601f19601f8201168201806040525081019062001b6091906200248f565b1562001c735760006067828154811062001b7e5762001b7e62002e85565b6000918252602090912001546040516277763760e41b8152600481018690526001600160a01b039091169063077763709060240160206040518083038186803b15801562001bcb57600080fd5b505afa15801562001be0573d6000803e3d6000fd5b505050506040513d601f19601f8201168201806040525081019062001c0691906200267c565b905080606a600062001c188762001630565b815260200190815260200160002060006067858154811062001c3e5762001c3e62002e85565b60009182526020808320909101546001600160a01b0316835282019290925260400190205562001c6f818462002c1b565b9250505b8062001c7f8162002e01565b91505062001ab6565b508062001c93575050565b60005b60675481101562001e4d576067818154811062001cb75762001cb762002e85565b6000918252602090912001546040516382afd23b60e01b8152600481018590526001600160a01b03909116906382afd23b9060240160206040518083038186803b15801562001d0557600080fd5b505afa15801562001d1a573d6000803e3d6000fd5b505050506040513d601f19601f8201168201806040525081019062001d4091906200248f565b1562001e38576000606a600062001d578662001630565b815260200190815260200160002060006067848154811062001d7d5762001d7d62002e85565b60009182526020808320909101546001600160a01b0316835282019290925260400181205491508390606b9062001db48762001630565b8152602001908152602001600020548262001dd0919062002d55565b62001ddc919062002c36565b606a600062001deb8762001630565b815260200190815260200160002060006067858154811062001e115762001e1162002e85565b60009182526020808320909101546001600160a01b03168352820192909252604001902055505b8062001e448162002e01565b91505062001c96565b505050565b600054610100900460ff1662001e7c5760405162461bcd60e51b8152600401620008809062002abb565b62000ba333620015de565b600054610100900460ff1662000ba35760405162461bcd60e51b8152600401620008809062002abb565b604051806040016040528060006001600160a01b0316815260200162001f5d604051806102000160405280600081526020016000815260200160008152602001600081526020016000815260200160008152602001600015158152602001600015158152602001600015158152602001600015158152602001600015158152602001600081526020016000815260200160608152602001600060ff168152602001600060ff1681525090565b905290565b5080546000825560070290600052602060002090810190620014a3919062002045565b82805462001f939062002dc4565b90600052602060002090601f01602090048101928262001fb7576000855562002002565b82601f1062001fd257805160ff191683800117855562002002565b8280016001018555821562002002579182015b828111156200200257825182559160200191906001019062001fe5565b50620020109291506200209b565b5090565b612d158062002ee783390190565b5080546000825560020290600052602060002090810190620014a39190620020b2565b80821115620020105760008082556001820181905560028201805461ffff191690556003820181905560048201819055620020846005830182620020da565b5060068101805461ffff1916905560070162002045565b5b808211156200201057600081556001016200209c565b5b80821115620020105780546001600160a01b031916815560006001820155600201620020b3565b508054620020e89062002dc4565b6000825580601f10620020f9575050565b601f016020900490600052602060002090810190620014a391906200209b565b8035620019878162002ec7565b8051620019878162002ec7565b600082601f8301126200214557600080fd5b81356200215c620021568262002bf0565b62002b95565b8181528460208386010111156200217257600080fd5b816020850160208301376000918101602001919091529392505050565b600082601f830112620021a157600080fd5b8151620021b2620021568262002bf0565b818152846020838601011115620021c857600080fd5b620021db82602083016020870162002d91565b949350505050565b8035620019878162002ed6565b8051620019878162002ed6565b6000602082840312156200221057600080fd5b81356200113f8162002eb1565b600080604083850312156200223157600080fd5b82356200223e8162002eb1565b946020939093013593505050565b600060208083850312156200226057600080fd5b823567ffffffffffffffff808211156200227957600080fd5b818501915085601f8301126200228e57600080fd5b81356200229f620021568262002bc9565b80828252858201915085850189878560051b8801011115620022c057600080fd5b60005b84811015620023ae57813586811115620022dc57600080fd5b8701610120818d03601f1901811315620022f557600080fd5b620022ff62002b1b565b8a830135815260408301358b82015260606200231d81850162002119565b604083015260806200233181860162002119565b8284015260a085013581840152505060c083013560a082015260e0830135898111156200235d57600080fd5b6200236d8f8d8387010162002133565b60c08301525061010062002383818501620021e3565b60e083015262002395838501620021e3565b90820152865250509287019290870190600101620022c3565b50909998505050505050505050565b60006020808385031215620023d157600080fd5b823567ffffffffffffffff811115620023e957600080fd5b8301601f81018513620023fb57600080fd5b80356200240c620021568262002bc9565b80828252848201915084840188868560061b87010111156200242d57600080fd5b60009450845b848110156200248157604080838c0312156200244d578687fd5b6200245762002b48565b8335620024648162002eb1565b815283890135898201528552938701939091019060010162002433565b509098975050505050505050565b600060208284031215620024a257600080fd5b81516200113f8162002ec7565b600060208284031215620024c257600080fd5b81516200113f8162002eb1565b600060208284031215620024e257600080fd5b813567ffffffffffffffff811115620024fa57600080fd5b620021db8482850162002133565b6000602082840312156200251b57600080fd5b815167ffffffffffffffff808211156200253457600080fd5b9083019061020082860312156200254a57600080fd5b6200255462002b6e565b825181526020830151602082015260408301516040820152606083015160608201526080830151608082015260a083015160a08201526200259860c0840162002126565b60c0820152620025ab60e0840162002126565b60e0820152610100620025c081850162002126565b90820152610120620025d484820162002126565b90820152610140620025e884820162002126565b90820152610160838101519082015261018080840151908201526101a080840151838111156200261757600080fd5b62002625888287016200218f565b8284015250506101c091506200263d828401620021f0565b828201526101e0915062002653828401620021f0565b91810191909152949350505050565b6000602082840312156200267557600080fd5b5035919050565b6000602082840312156200268f57600080fd5b5051919050565b600080600060608486031215620026ac57600080fd5b83359250602084013591506040840135620026c78162002eb1565b809150509250925092565b60008151808452620026ec81602086016020860162002d91565b601f01601f19169290920160200192915050565b60006101208251845260208301516020850152604083015115156040850152606083015162002733606086018215159052565b506080830151608085015260a083015160a085015260c08301518160c08601526200276182860182620026d2565b91505060e08301516200277960e086018260ff169052565b506101009283015160ff169390920192909252919050565b60008251620027a581846020870162002d91565b9190910192915050565b60006020808301818452808551808352604092508286019150828160051b87010184880160005b838110156200248157888303603f19018552815180516001600160a01b0316845287015187840187905280518785015280880151606080860191909152878201516080808701919091529082015160a0808701919091529082015160c0808701919091529082015160e08087019190915290820151906101006200285d8188018415159052565b90830151915061012090620028758783018415159052565b83015191506101406200288b8782018415159052565b90830151915061016090620028a38783018415159052565b8301519150610180620028b98782018415159052565b908301516101a087810191909152908301516101c080880191909152908301516102006101e08089018290529193509190620028fa610240890185620026d2565b9185015160ff9081169389019390935290930151166102209095019490945294870194925090860190600101620027d6565b6000602080830181845280855180835260408601915060408160051b870101925083870160005b828110156200298557603f198886030184526200297285835162002700565b9450928501929085019060010162002953565b5092979650505050505050565b602080825282518282018190526000919060409081850190868401855b82811015620029df57815180516001600160a01b03168552860151868501529284019290850190600101620029af565b5091979650505050505050565b6001600160a01b0384811682528316602082015260606040820181905260009062002a1a9083018462002700565b95945050505050565b602081526000620003ed6020830184620026d2565b6020808252602e908201527f496e697469616c697a61626c653a20636f6e747261637420697320616c72656160408201526d191e481a5b9a5d1a585b1a5e995960921b606082015260800190565b6020808252818101527f4f776e61626c653a2063616c6c6572206973206e6f7420746865206f776e6572604082015260600190565b6020808252602b908201527f496e697469616c697a61626c653a20636f6e7472616374206973206e6f74206960408201526a6e697469616c697a696e6760a81b606082015260800190565b602081526000620003ed602083018462002700565b604051610120810167ffffffffffffffff8111828210171562002b425762002b4262002e9b565b60405290565b6040805190810167ffffffffffffffff8111828210171562002b425762002b4262002e9b565b604051610200810167ffffffffffffffff8111828210171562002b425762002b4262002e9b565b604051601f8201601f1916810167ffffffffffffffff8111828210171562002bc15762002bc162002e9b565b604052919050565b600067ffffffffffffffff82111562002be65762002be662002e9b565b5060051b60200190565b600067ffffffffffffffff82111562002c0d5762002c0d62002e9b565b50601f01601f191660200190565b6000821982111562002c315762002c3162002e59565b500190565b60008262002c485762002c4862002e6f565b500490565b600181815b8085111562002c8e57816000190482111562002c725762002c7262002e59565b8085161562002c8057918102915b93841c939080029062002c52565b509250929050565b6000620003ed60ff84168360008262002cb257506001620003f0565b8162002cc157506000620003f0565b816001811462002cda576002811462002ce55762002d05565b6001915050620003f0565b60ff84111562002cf95762002cf962002e59565b50506001821b620003f0565b5060208310610133831016604e8410600b841016171562002d2a575081810a620003f0565b62002d36838362002c4d565b806000190482111562002d4d5762002d4d62002e59565b029392505050565b600081600019048311821515161562002d725762002d7262002e59565b500290565b60008282101562002d8c5762002d8c62002e59565b500390565b60005b8381101562002dae57818101518382015260200162002d94565b8381111562002dbe576000848401525b50505050565b600181811c9082168062002dd957607f821691505b6020821081141562002dfb57634e487b7160e01b600052602260045260246000fd5b50919050565b600060001982141562002e185762002e1862002e59565b5060010190565b600060ff821660ff81141562002e395762002e3962002e59565b60010192915050565b60008262002e545762002e5462002e6f565b500690565b634e487b7160e01b600052601160045260246000fd5b634e487b7160e01b600052601260045260246000fd5b634e487b7160e01b600052603260045260246000fd5b634e487b7160e01b600052604160045260246000fd5b6001600160a01b0381168114620014a357600080fd5b8015158114620014a357600080fd5b60ff81168114620014a357600080fdfe60806040523480156200001157600080fd5b5060405162002d1538038062002d1583398101604081905262000034916200044d565b806060015181610100015182608001518360a001518460400151856000015186602001518989806001600160a01b03166321df0da76040518163ffffffff1660e01b815260040160206040518083038186803b1580156200009457600080fd5b505afa158015620000a9573d6000803e3d6000fd5b505050506040513d601f19601f82011682018060405250810190620000cf919062000426565b620000da33620001ea565b600280546001600160a01b03199081166001600160a01b03938416179091556003805482168584169081179091556005805490921692841692909217905562000126906000906200023a565b6003546200015f907fc002a6b5f9f56101ba6339b1b95d171fadf6e41e005b91c80d686aef7516e759906001600160a01b03166200023a565b50506006919091556007556008805460ff1916911515919091179055600991909155600a55600b805461ffff191692151561ff0019169290921761010060ff92909216919091021790556001600c5560c08101518051620001c991600d91602090910190620002c3565b5060e00151600e805460ff191660ff90921691909117905550620006319050565b600080546001600160a01b038381166001600160a01b0319831681178455604051919092169283917f8be0079c531659141344cd1fd0a4f28419497f9722a3daafe3b4186f6b6457e09190a35050565b60008281526001602090815260408083206001600160a01b038516845290915290205460ff16620002bf5760008281526001602081815260408084206001600160a01b0386168086529252808420805460ff19169093179092559051339285917f2f8788117e7eff1d82e926ec794901d17c78024a50270940304540a733656f0d9190a45b5050565b828054620002d190620005c5565b90600052602060002090601f016020900481019282620002f5576000855562000340565b82601f106200031057805160ff191683800117855562000340565b8280016001018555821562000340579182015b828111156200034057825182559160200191906001019062000323565b506200034e92915062000352565b5090565b5b808211156200034e576000815560010162000353565b805180151581146200037a57600080fd5b919050565b600082601f8301126200039157600080fd5b81516001600160401b03811115620003ad57620003ad62000602565b6020620003c3601f8301601f1916820162000592565b8281528582848701011115620003d857600080fd5b60005b83811015620003f8578581018301518282018401528201620003db565b838111156200040a5760008385840101525b5095945050505050565b805160ff811681146200037a57600080fd5b6000602082840312156200043957600080fd5b8151620004468162000618565b9392505050565b6000806000606084860312156200046357600080fd5b8351620004708162000618565b6020850151909350620004838162000618565b60408501519092506001600160401b0380821115620004a157600080fd5b908501906101208288031215620004b757600080fd5b620004c162000566565b8251815260208301516020820152620004dd6040840162000369565b6040820152620004f06060840162000369565b60608201526080830151608082015260a083015160a082015260c0830151828111156200051c57600080fd5b6200052a898286016200037f565b60c0830152506200053e60e0840162000414565b60e082015261010091506200055582840162000414565b828201528093505050509250925092565b60405161012081016001600160401b03811182821017156200058c576200058c62000602565b60405290565b604051601f8201601f191681016001600160401b0381118282101715620005bd57620005bd62000602565b604052919050565b600181811c90821680620005da57607f821691505b60208210811415620005fc57634e487b7160e01b600052602260045260246000fd5b50919050565b634e487b7160e01b600052604160045260246000fd5b6001600160a01b03811681146200062e57600080fd5b50565b6126d480620006416000396000f3fe6080604052600436106101e75760003560e01c8063715018a611610102578063a9fb763c11610095578063d547741f11610064578063d547741f14610572578063e8884f2b14610592578063e8cf51b0146105c6578063f2fde38b146105e657600080fd5b8063a9fb763c146104fc578063b31cf9841461051c578063b6b55f251461053e578063ba0f49b71461055157600080fd5b806391d14854116100d157806391d1485414610490578063a217fddf146104b0578063a5ea11da146104c5578063a9f17782146104e757600080fd5b8063715018a61461041b57806382afd23b1461043057806383920e90146104505780638da5cb5b1461047257600080fd5b806336568abe1161017a57806351e2412d1161014957806351e2412d146103a65780635dc181b3146103bb578063679aefce146103d95780636aca845e146103fb57600080fd5b806336568abe1461033e5780633b19e84a1461035e5780633ccfd60b1461037c5780635032d2201461039157600080fd5b806321df0da7116101b657806321df0da7146102a657806322f3e2d4146102d8578063248a9ca3146102ed5780632f2ff15d1461031e57600080fd5b806301c6adc31461020e57806301ffc9a714610243578063077763701461026357806312065fe01461029157600080fd5b366102095761020733610202670de0b6b3a76400003461255b565b610606565b005b600080fd5b34801561021a57600080fd5b5061022e610229366004612084565b610700565b60405190151581526020015b60405180910390f35b34801561024f57600080fd5b5061022e61025e36600461221a565b610709565b34801561026f57600080fd5b5061028361027e3660046121d5565b61073e565b60405190815260200161023a565b34801561029d57600080fd5b50610283610767565b3480156102b257600080fd5b506002546001600160a01b03165b6040516001600160a01b03909116815260200161023a565b3480156102e457600080fd5b5061022e6107e8565b3480156102f957600080fd5b506102836103083660046121d5565b6000908152600160208190526040909120015490565b34801561032a57600080fd5b506102076103393660046121ee565b6107f3565b34801561034a57600080fd5b506102076103593660046121ee565b61081e565b34801561036a57600080fd5b506005546001600160a01b03166102c0565b34801561038857600080fd5b506102076108a1565b34801561039d57600080fd5b50610283610bb9565b3480156103b257600080fd5b50610283610c98565b3480156103c757600080fd5b506003546001600160a01b03166102c0565b3480156103e557600080fd5b50600e5460405160ff909116815260200161023a565b34801561040757600080fd5b506102836104163660046120ae565b610d6b565b34801561042757600080fd5b50610207610da3565b34801561043c57600080fd5b5061022e61044b3660046121d5565b610dd9565b34801561045c57600080fd5b50610465610ec4565b60405161023a91906122fe565b34801561047e57600080fd5b506000546001600160a01b03166102c0565b34801561049c57600080fd5b5061022e6104ab3660046121ee565b610f9d565b3480156104bc57600080fd5b50610283600081565b3480156104d157600080fd5b506104da610fc8565b60405161023a91906123dc565b3480156104f357600080fd5b506102836111e2565b34801561050857600080fd5b506102076105173660046121d5565b6112be565b34801561052857600080fd5b506105316112f6565b60405161023a9190612394565b61020761054c3660046121d5565b611388565b34801561055d57600080fd5b5061022e61056c3660046121d5565b50600090565b34801561057e57600080fd5b5061020761058d3660046121ee565b611395565b34801561059e57600080fd5b506102837fc002a6b5f9f56101ba6339b1b95d171fadf6e41e005b91c80d686aef7516e75981565b3480156105d257600080fd5b506102836105e13660046121d5565b6113bb565b3480156105f257600080fd5b50610207610601366004612069565b611495565b6106e16004805480602002602001604051908101604052809291908181526020016000905b828210156106d7576000848152602090206040805160a08101909152600484029091018054829060ff1660038111156106665761066661265c565b60038111156106775761067761265c565b81526020016000820160019054906101000a90046001600160a01b03166001600160a01b03166001600160a01b0316815260200160018201548152602001600282015481526020016003820154815250508152602001906001019061062b565b505050508261152d565b60006106ef60008484611537565b90506106fa8161165c565b50505050565b60005b92915050565b60006001600160e01b03198216637965db0b60e01b148061070357506301ffc9a760e01b6001600160e01b0319831614610703565b600e5460009060649060ff16610753846113bb565b61075d919061257d565b610703919061255b565b6002546040516370a0823160e01b81523060048201526000916001600160a01b0316906370a082319060240160206040518083038186803b1580156107ab57600080fd5b505afa1580156107bf573d6000803e3d6000fd5b505050506040513d601f19601f820116820180604052508101906107e39190612244565b905090565b60006107e342610dd9565b6000828152600160208190526040909120015461080f81611702565b610819838361170c565b505050565b6001600160a01b03811633146108935760405162461bcd60e51b815260206004820152602f60248201527f416363657373436f6e74726f6c3a2063616e206f6e6c792072656e6f756e636560448201526e103937b632b9903337b91039b2b63360891b60648201526084015b60405180910390fd5b61089d8282611777565b5050565b6000546001600160a01b031633146108cb5760405162461bcd60e51b815260040161088a906123a7565b6002600c54141561091e5760405162461bcd60e51b815260206004820152601f60248201527f5265656e7472616e637947756172643a207265656e7472616e742063616c6c00604482015260640161088a565b6002600c81905550610add6004805480602002602001604051908101604052809291908181526020016000905b828210156109f7576000848152602090206040805160a08101909152600484029091018054829060ff1660038111156109865761098661265c565b60038111156109975761099761265c565b81526020016000820160019054906101000a90046001600160a01b03166001600160a01b03166001600160a01b0316815260200160018201548152602001600282015481526020016003820154815250508152602001906001019061094b565b50505050610ad86004805480602002602001604051908101604052809291908181526020016000905b82821015610acc576000848152602090206040805160a08101909152600484029091018054829060ff166003811115610a5b57610a5b61265c565b6003811115610a6c57610a6c61265c565b81526020016000820160019054906101000a90046001600160a01b03166001600160a01b03166001600160a01b03168152602001600182015481526020016002820154815260200160038201548152505081526020019060010190610a20565b50505050600a546117de565b61180d565b610ae561183d565b60005b600454811015610bb157600160048281548110610b0757610b07612672565b600091825260209091206004909102015460ff166003811115610b2c57610b2c61265c565b1480610b6f5750600360048281548110610b4857610b48612672565b600091825260209091206004909102015460ff166003811115610b6d57610b6d61265c565b145b15610b9f57610b9d60048281548110610b8a57610b8a612672565b906000526020600020906004020161165c565b505b80610ba98161262b565b915050610ae8565b506001600c55565b60006107e36004805480602002602001604051908101604052809291908181526020016000905b82821015610c8c576000848152602090206040805160a08101909152600484029091018054829060ff166003811115610c1b57610c1b61265c565b6003811115610c2c57610c2c61265c565b81526020016000820160019054906101000a90046001600160a01b03166001600160a01b03166001600160a01b03168152602001600182015481526020016002820154815260200160038201548152505081526020019060010190610be0565b505050506009546117de565b60006107e36004805480602002602001604051908101604052809291908181526020016000905b82821015610acc576000848152602090206040805160a08101909152600484029091018054829060ff166003811115610cfa57610cfa61265c565b6003811115610d0b57610d0b61265c565b81526020016000820160019054906101000a90046001600160a01b03166001600160a01b03166001600160a01b03168152602001600182015481526020016002820154815260200160038201548152505081526020019060010190610cbf565b805160009015610d9b5781600081518110610d8857610d88612672565b6020026020010151608001519050919050565b506000919050565b6000546001600160a01b03163314610dcd5760405162461bcd60e51b815260040161088a906123a7565b610dd760006118ef565b565b6000610eac6004805480602002602001604051908101604052809291908181526020016000905b82821015610c8c576000848152602090206040805160a08101909152600484029091018054829060ff166003811115610e3b57610e3b61265c565b6003811115610e4c57610e4c61265c565b81526020016000820160019054906101000a90046001600160a01b03166001600160a01b03166001600160a01b03168152602001600182015481526020016002820154815260200160038201548152505081526020019060010190610e00565b821080156107035750610ebd61193f565b1592915050565b60606004805480602002602001604051908101604052809291908181526020016000905b82821015610f94576000848152602090206040805160a08101909152600484029091018054829060ff166003811115610f2357610f2361265c565b6003811115610f3457610f3461265c565b81526020016000820160019054906101000a90046001600160a01b03166001600160a01b03166001600160a01b03168152602001600182015481526020016002820154815260200160038201548152505081526020019060010190610ee8565b50505050905090565b60009182526001602090815260408084206001600160a01b0393909316845291905290205460ff1690565b611058604051806102000160405280600081526020016000815260200160008152602001600081526020016000815260200160008152602001600015158152602001600015158152602001600015158152602001600015158152602001600015158152602001600081526020016000815260200160608152602001600060ff168152602001600060ff1681525090565b60405180610200016040528061106c610767565b8152602001611079611a26565b805160009061108a5761108a612672565b60200260200101518152602001600654815260200160075481526020016110af611a26565b805160029081106110c2576110c2612672565b602002602001015181526020016110d76111e2565b81526020016110e46107e8565b1515815260085460ff90811615156020830152600b54161515604082015260600161110d611afa565b1515815260200161111c61193f565b151581526020016009548152602001600a548152602001600d8054611140906125f6565b80601f016020809104026020016040519081016040528092919081815260200182805461116c906125f6565b80156111b95780601f1061118e576101008083540402835291602001916111b9565b820191906000526020600020905b81548152906001019060200180831161119c57829003601f168201915b5050509183525050600e5460ff9081166020830152600b54610100900416604090910152919050565b60006107e36004805480602002602001604051908101604052809291908181526020016000905b828210156112b5576000848152602090206040805160a08101909152600484029091018054829060ff1660038111156112445761124461265c565b60038111156112555761125561265c565b81526020016000820160019054906101000a90046001600160a01b03166001600160a01b03166001600160a01b03168152602001600182015481526020016002820154815260200160038201548152505081526020019060010190611209565b50505050610d6b565b7fc002a6b5f9f56101ba6339b1b95d171fadf6e41e005b91c80d686aef7516e7596112e881611702565b60006106ef60023385611537565b6060600d8054611305906125f6565b80601f0160208091040260200160405190810160405280929190818152602001828054611331906125f6565b801561137e5780601f106113535761010080835404028352916020019161137e565b820191906000526020600020905b81548152906001019060200180831161136157829003601f168201915b5050505050905090565b6113923382610606565b50565b600082815260016020819052604090912001546113b181611702565b6108198383611777565b600080805b60045481101561148e576113d7620151808561259c565b600482815481106113ea576113ea612672565b9060005260206000209060040201600201541115611409575092915050565b60006004828154811061141e5761141e612672565b600091825260209091206004909102015460ff1660038111156114435761144361265c565b141561147c576004818154811061145c5761145c612672565b906000526020600020906004020160010154826114799190612543565b91505b806114868161262b565b9150506113c0565b5092915050565b6000546001600160a01b031633146114bf5760405162461bcd60e51b815260040161088a906123a7565b6001600160a01b0381166115245760405162461bcd60e51b815260206004820152602660248201527f4f776e61626c653a206e6577206f776e657220697320746865207a65726f206160448201526564647265737360d01b606482015260840161088a565b611392816118ef565b61089d8282611b05565b6000806040518060a001604052808660038111156115575761155761265c565b81526001600160a01b03861660208201526040810185905242606082015260006080909101819052600480546001818101835592829052835191027f8a35acfbc15ff81a39ae7d344fd709f28e8600b4aa8c65c6b64bfe7fe36bd19b01805493945084939092839160ff1916908360038111156115d6576115d661265c565b0217905550602082015181546001600160a01b0390911661010002610100600160a81b03199091161781556040820151600180830191909155606083015160028301556080909201516003909101556004805490916116349161259c565b8154811061164457611644612672565b90600052602060002090600402019150509392505050565b600081600301546000146116b25760405162461bcd60e51b815260206004820152601c60248201527f5472616e73616374696f6e20697320616c726561647920706179656400000000604482015260640161088a565b4260038301556000825460ff1660038111156116d0576116d061265c565b14156116e3576107038260010154611b36565b815460018301546107039161010090046001600160a01b031690611b4a565b6113928133611bd2565b6117168282610f9d565b61089d5760008281526001602081815260408084206001600160a01b0386168086529252808420805460ff19169093179092559051339285917f2f8788117e7eff1d82e926ec794901d17c78024a50270940304540a733656f0d9190a45050565b6117818282610f9d565b1561089d5760008281526001602090815260408083206001600160a01b0385168085529252808320805460ff1916905551339285917ff6391f5c32d9c69d2a47ea670b442974b53935d1edc7fd64eb21e047a839171b9190a45050565b6000806117ea84610d6b565b9050806117fb576000915050610703565b6118058382612543565b949350505050565b61181561193f565b1561183357604051632e08f66d60e11b815260040160405180910390fd5b61089d8282611c36565b600360009054906101000a90046001600160a01b03166001600160a01b031663985bdacb6040518163ffffffff1660e01b8152600401600060405180830381600087803b15801561188d57600080fd5b505af11580156118a1573d6000803e3d6000fd5b5050505060006118af611c66565b90506118cf600333836118c0610767565b6118ca919061259c565b611537565b5080156113925760055461089d906001906001600160a01b031683611537565b600080546001600160a01b038381166001600160a01b0319831681178455604051919092169283917f8be0079c531659141344cd1fd0a4f28419497f9722a3daafe3b4186f6b6457e09190a35050565b6004546000905b8015611a1e576000600461195b60018461259c565b8154811061196b5761196b612672565b600091825260209091206040805160a081019091526004909202018054829060ff16600381111561199e5761199e61265c565b60038111156119af576119af61265c565b8152815461010090046001600160a01b031660208201526001820154604082015260028201546060820152600391820154608090910152909150815160038111156119fc576119fc61265c565b1415611a0b5760019250505090565b5080611a16816125df565b915050611946565b506000905090565b60408051600480825260a08201909252606091600091906020820160808036833701905050905060005b600454811015611af45760048181548110611a6d57611a6d612672565b9060005260206000209060040201600101548260048381548110611a9357611a93612672565b600091825260209091206004909102015460ff166003811115611ab857611ab861265c565b60ff1681518110611acb57611acb612672565b60200260200101818151611adf9190612543565b90525080611aec8161262b565b915050611a50565b50919050565b60006107e342611d9e565b60085460ff16158015611b185750815115155b1561089d576040516341df992760e01b815260040160405180910390fd5b600033611b438184611e71565b9392505050565b60025460405163a9059cbb60e01b81526001600160a01b03848116600483015260248201849052600092169063a9059cbb906044015b602060405180830381600087803b158015611b9a57600080fd5b505af1158015611bae573d6000803e3d6000fd5b505050506040513d601f19601f82011682018060405250810190611b4391906121b3565b611bdc8282610f9d565b61089d57611bf4816001600160a01b03166014611eb1565b611bff836020611eb1565b604051602001611c10929190612289565b60408051601f198184030181529082905262461bcd60e51b825261088a91600401612394565b600b5460ff16158015611c4857504281115b1561089d57604051631bc5fe1160e31b815260040160405180910390fd5b6000611d396004805480602002602001604051908101604052809291908181526020016000905b82821015610c8c576000848152602090206040805160a08101909152600484029091018054829060ff166003811115611cc857611cc861265c565b6003811115611cd957611cd961265c565b81526020016000820160019054906101000a90046001600160a01b03166001600160a01b03166001600160a01b03168152602001600182015481526020016002820154815260200160038201548152505081526020019060010190611c8d565b421115611d465750600090565b6000611d50611a26565b80516002908110611d6357611d63612672565b60200260200101519050612710600b60019054906101000a900460ff1660ff1682611d8e919061257d565b611d98919061255b565b91505090565b6000610eac6004805480602002602001604051908101604052809291908181526020016000905b82821015610acc576000848152602090206040805160a08101909152600484029091018054829060ff166003811115611e0057611e0061265c565b6003811115611e1157611e1161265c565b81526020016000820160019054906101000a90046001600160a01b03166001600160a01b03166001600160a01b03168152602001600182015481526020016002820154815260200160038201548152505081526020019060010190611dc5565b6002546040516323b872dd60e01b81526001600160a01b0384811660048301523060248301526044820184905260009216906323b872dd90606401611b80565b60606000611ec083600261257d565b611ecb906002612543565b67ffffffffffffffff811115611ee357611ee3612688565b6040519080825280601f01601f191660200182016040528015611f0d576020820181803683370190505b509050600360fc1b81600081518110611f2857611f28612672565b60200101906001600160f81b031916908160001a905350600f60fb1b81600181518110611f5757611f57612672565b60200101906001600160f81b031916908160001a9053506000611f7b84600261257d565b611f86906001612543565b90505b6001811115611ffe576f181899199a1a9b1b9c1cb0b131b232b360811b85600f1660108110611fba57611fba612672565b1a60f81b828281518110611fd057611fd0612672565b60200101906001600160f81b031916908160001a90535060049490941c93611ff7816125df565b9050611f89565b508315611b435760405162461bcd60e51b815260206004820181905260248201527f537472696e67733a20686578206c656e67746820696e73756666696369656e74604482015260640161088a565b80356001600160a01b038116811461206457600080fd5b919050565b60006020828403121561207b57600080fd5b611b438261204d565b6000806040838503121561209757600080fd5b6120a08361204d565b946020939093013593505050565b600060208083850312156120c157600080fd5b823567ffffffffffffffff808211156120d957600080fd5b818501915085601f8301126120ed57600080fd5b8135818111156120ff576120ff612688565b61210d848260051b01612512565b818152848101925083850160a0808402860187018a101561212d57600080fd5b600095505b838610156121a55780828b03121561214957600080fd5b6121516124e9565b82356004811061216057600080fd5b815261216d83890161204d565b818901526040838101359082015260608084013590820152608080840135908201528552600195909501949386019390810190612132565b509098975050505050505050565b6000602082840312156121c557600080fd5b81518015158114611b4357600080fd5b6000602082840312156121e757600080fd5b5035919050565b6000806040838503121561220157600080fd5b823591506122116020840161204d565b90509250929050565b60006020828403121561222c57600080fd5b81356001600160e01b031981168114611b4357600080fd5b60006020828403121561225657600080fd5b5051919050565b600081518084526122758160208601602086016125b3565b601f01601f19169290920160200192915050565b7f416363657373436f6e74726f6c3a206163636f756e74200000000000000000008152600083516122c18160178501602088016125b3565b7001034b99036b4b9b9b4b733903937b6329607d1b60179184019182015283516122f28160288401602088016125b3565b01602801949350505050565b60208082528251828201819052600091906040908185019086840185805b838110156123865782518051600480821061234457634e487b7160e01b855260218152602485fd5b508652808801516001600160a01b0316888701528681015187870152606080820151908701526080908101519086015260a0909401939186019160010161231c565b509298975050505050505050565b602081526000611b43602083018461225d565b6020808252818101527f4f776e61626c653a2063616c6c6572206973206e6f7420746865206f776e6572604082015260600190565b6020815281516020820152602082015160408201526040820151606082015260608201516080820152608082015160a082015260a082015160c0820152600060c083015161242e60e084018215159052565b5060e08301516101006124448185018315159052565b84015190506101206124598482018315159052565b840151905061014061246e8482018315159052565b84015190506101606124838482018315159052565b840151610180848101919091528401516101a0808501919091528401516102006101c0808601829052919250906124be61022086018461225d565b908601519092506101e06124d68682018360ff169052565b9095015160ff1693019290925250919050565b60405160a0810167ffffffffffffffff8111828210171561250c5761250c612688565b60405290565b604051601f8201601f1916810167ffffffffffffffff8111828210171561253b5761253b612688565b604052919050565b6000821982111561255657612556612646565b500190565b60008261257857634e487b7160e01b600052601260045260246000fd5b500490565b600081600019048311821515161561259757612597612646565b500290565b6000828210156125ae576125ae612646565b500390565b60005b838110156125ce5781810151838201526020016125b6565b838111156106fa5750506000910152565b6000816125ee576125ee612646565b506000190190565b600181811c9082168061260a57607f821691505b60208210811415611af457634e487b7160e01b600052602260045260246000fd5b600060001982141561263f5761263f612646565b5060010190565b634e487b7160e01b600052601160045260246000fd5b634e487b7160e01b600052602160045260246000fd5b634e487b7160e01b600052603260045260246000fd5b634e487b7160e01b600052604160045260246000fdfea264697066735822122048eaa7377580d64cc768cd6f16a3028196863b648973a045759065fd60ad577564736f6c63430008070033a2646970667358221220090eee102969435e043cfe05b50d5f2e92077d9140e685824f4e46a0fbb2ef7f64736f6c63430008070033",
  "immutableReferences": {},
  "source": "// SPDX-License-Identifier: MIT\npragma solidity 0.8.7;\n\nimport \"@openzeppelin/contracts-upgradeable/access/OwnableUpgradeable.sol\";\nimport \"@openzeppelin/contracts-upgradeable/proxy/utils/Initializable.sol\";\n\nimport \"../BankAccountUpgradeable.sol\";\nimport \"../Date.sol\";\nimport \"../IUpgradeable.sol\";\nimport \"../Refillable.sol\";\n\nimport \"./Deposit.sol\";\nimport \"./ILaunchpool.sol\";\n\n/**\n * @dev Launchpool\n */\ncontract Launchpool is\n    Initializable,\n    OwnableUpgradeable,\n    BankAccountUpgradeable,\n    Refillable,\n    ILaunchpool,\n    IUpgradeable\n{\n    struct DepositListItems {\n        address agreement;\n        Deposit.DepositParameters parameters;\n    }\n\n    Deposit[] private _deposits;\n\n    Deposit.ProgramParameters[] private _depositPrograms;\n\n    mapping(address => Deposit[]) private _ownerDeposits;\n\n    mapping(uint256 => mapping(address => uint256)) private _rewards;\n\n    mapping(uint256 => uint256) private _transfers;\n\n    IBankAccount private _treasury;\n\n    error LaunchpoolDepositProgramNotExists(string program);\n    error LaunchpoolTooMuchDepositPrograms(uint8 maxNumber);\n\n    event LaunchpoolDepositCreated(Deposit deposit);\n\n    function createDeposit(string memory program) external {\n        address owner = _msgSender();\n\n        Deposit deposit = new Deposit(\n            this,\n            _treasury,\n            getDepositProgram(program)\n        );\n\n        _deposits.push(deposit);\n\n        _ownerDeposits[owner].push(deposit);\n\n        deposit.transferOwnership(owner);\n\n        emit LaunchpoolDepositCreated(deposit);\n    }\n\n    function __Launchpool_init(IBankAccount treasury) public initializer {\n        __Ownable_init();\n        __BankAccount_init(treasury.getToken());\n        __Refillable_init();\n\n        _treasury = treasury;\n    }\n\n    function isReadyToRefill(uint256 date)\n        external\n        view\n        override\n        returns (bool)\n    {\n        if (_hasActiveDepositsOnDate(date)) {\n            return true;\n        }\n\n        return false;\n    }\n\n    function getDeposits() external view returns (DepositListItems[] memory) {\n        address owner = _msgSender();\n\n        DepositListItems[] memory deposits = new DepositListItems[](\n            _ownerDeposits[owner].length\n        );\n\n        for (uint256 i = 0; i < _ownerDeposits[owner].length; i++) {\n            Deposit deposit = _ownerDeposits[owner][i];\n\n            deposits[i] = DepositListItems({\n                agreement: address(deposit),\n                parameters: deposit.getParameters()\n            });\n        }\n\n        return deposits;\n    }\n\n    function getDepositProgram(string memory program)\n        public\n        view\n        returns (Deposit.ProgramParameters memory)\n    {\n        for (uint8 i = 0; i < _depositPrograms.length; i++) {\n            if (_isEqual(_depositPrograms[i].program, program)) {\n                return _depositPrograms[i];\n            }\n        }\n\n        revert LaunchpoolDepositProgramNotExists(program);\n    }\n\n    function getDepositPrograms()\n        public\n        view\n        returns (Deposit.ProgramParameters[] memory)\n    {\n        return _depositPrograms;\n    }\n\n    function getName() external pure override returns (string memory) {\n        return \"Launchpool\";\n    }\n\n    function getTransfersAmount(uint256 date) external view returns (uint256) {\n        return _transfers[_getKey(date)];\n    }\n\n    function setDepositPrograms(\n        Deposit.ProgramParameters[] memory depositPrograms\n    ) external onlyOwner {\n        if (type(uint8).max < depositPrograms.length) {\n            revert LaunchpoolTooMuchDepositPrograms({\n                maxNumber: type(uint8).max\n            });\n        }\n\n        delete _depositPrograms;\n\n        for (uint8 i = 0; i < depositPrograms.length; i++) {\n            _depositPrograms.push(depositPrograms[i]);\n        }\n    }\n\n    function transferDailyRewards() external override {\n        // TODO can be runned not only by deposit\n        address payable deposit = payable(_msgSender());\n\n        uint256 amount = _getDepositRewards(deposit);\n\n        this.getToken().approve(deposit, amount);\n\n        Deposit(deposit).reward(amount);\n    }\n\n    function _calculateRewards(uint256 date) private {\n        uint256 totalRate = 0;\n\n        for (uint256 i = 0; i < _deposits.length; i++) {\n            if (_deposits[i].isActive(date)) {\n                uint256 rate = _deposits[i].getBaseToCalculateReward(date);\n\n                _rewards[_getKey(date)][address(_deposits[i])] = rate;\n\n                totalRate += rate;\n            }\n        }\n\n        if (totalRate == 0) {\n            return;\n        }\n\n        for (uint256 i = 0; i < _deposits.length; i++) {\n            if (_deposits[i].isActive(date)) {\n                uint256 rate = _rewards[_getKey(date)][address(_deposits[i])];\n\n                _rewards[_getKey(date)][address(_deposits[i])] =\n                    (rate * _transfers[_getKey(date)]) /\n                    totalRate;\n            }\n        }\n    }\n\n    function _hasActiveDepositsOnDate(uint256 date)\n        private\n        view\n        returns (bool)\n    {\n        for (uint256 i = 0; i < _deposits.length; i++) {\n            if (_deposits[i].isActive(date)) {\n                return true;\n            }\n        }\n\n        return false;\n    }\n\n    function _isEqual(string memory program1, string memory program2)\n        private\n        pure\n        returns (bool)\n    {\n        return (keccak256(abi.encodePacked(program1)) ==\n            keccak256(abi.encodePacked(program2)));\n    }\n\n    function _getDepositRewards(address payable deposit)\n        private\n        view\n        returns (uint256)\n    {\n        uint256 amount;\n\n        uint256 date = Deposit(deposit).getBeginDateTime();\n        uint256 end = Deposit(deposit).getPeriodMaximumDateTime();\n\n        while (date <= end) {\n            amount += _rewards[_getKey(date)][address(deposit)];\n            date += 1 days;\n        }\n\n        return amount;\n    }\n\n    function _getKey(uint256 date) private pure returns (uint256) {\n        return Date.toDate(date);\n    }\n\n    function _postTransferFromSupplier(uint256 date, uint256 amount)\n        internal\n        override\n    {\n        _transfers[_getKey(date)] += amount;\n\n        _calculateRewards(date - 1 days);\n    }\n}\n",
  "sourcePath": "/Users/ievgencherkaskyi/Projects/tivan/hexagons/contracts/Launchpool/Launchpool.sol",
  "compiler": {
    "name": "solc",
    "version": "0.8.7+commit.e28d00a7.Emscripten.clang"
  },
  "schemaVersion": "3.3.3",
  "updatedAt": "2022-07-09T11:06:58.178Z",
  "devdoc": {
    "details": "Launchpool",
    "kind": "dev",
    "methods": {
      "owner()": {
        "details": "Returns the address of the current owner."
      },
      "renounceOwnership()": {
        "details": "Leaves the contract without owner. It will not be possible to call `onlyOwner` functions anymore. Can only be called by the current owner. NOTE: Renouncing ownership will leave the contract without an owner, thereby removing any functionality that is only available to the owner."
      },
      "transferOwnership(address)": {
        "details": "Transfers ownership of the contract to a new account (`newOwner`). Can only be called by the current owner."
      }
    },
    "version": 1
  },
  "userdoc": {
    "kind": "user",
    "methods": {},
    "version": 1
  }
}