{
  "contractName": "Launchpool",
  "abi": [
    {
      "inputs": [
        {
          "internalType": "contract IBankAccount",
          "name": "treasury",
          "type": "address"
        },
        {
          "components": [
            {
              "internalType": "uint256",
              "name": "amountMaximum",
              "type": "uint256"
            },
            {
              "internalType": "uint256",
              "name": "amountMinimum",
              "type": "uint256"
            },
            {
              "internalType": "bool",
              "name": "isDepositable",
              "type": "bool"
            },
            {
              "internalType": "bool",
              "name": "isTerminatable",
              "type": "bool"
            },
            {
              "internalType": "uint256",
              "name": "periodMaximum",
              "type": "uint256"
            },
            {
              "internalType": "uint256",
              "name": "periodMinimum",
              "type": "uint256"
            },
            {
              "internalType": "string",
              "name": "program",
              "type": "string"
            },
            {
              "internalType": "uint8",
              "name": "rate",
              "type": "uint8"
            },
            {
              "internalType": "uint8",
              "name": "terminationPenalty",
              "type": "uint8"
            }
          ],
          "internalType": "struct BaseDeposit.ProgramParameters[]",
          "name": "depositPrograms",
          "type": "tuple[]"
        },
        {
          "components": [
            {
              "internalType": "contract IBankAccountSupplier",
              "name": "agreement",
              "type": "address"
            },
            {
              "internalType": "uint256",
              "name": "reward",
              "type": "uint256"
            }
          ],
          "internalType": "struct Refillable.RefillableSupplier[]",
          "name": "refillableAgreements",
          "type": "tuple[]"
        }
      ],
      "stateMutability": "nonpayable",
      "type": "constructor"
    },
    {
      "inputs": [
        {
          "internalType": "string",
          "name": "program",
          "type": "string"
        }
      ],
      "name": "LaunchpoolDepositProgramNotExists",
      "type": "error"
    },
    {
      "inputs": [
        {
          "internalType": "address",
          "name": "supplier",
          "type": "address"
        }
      ],
      "name": "RefillableSupplierNotExists",
      "type": "error"
    },
    {
      "inputs": [
        {
          "internalType": "uint8",
          "name": "maxNumber",
          "type": "uint8"
        }
      ],
      "name": "RefillableTooMuchAgreements",
      "type": "error"
    },
    {
      "anonymous": false,
      "inputs": [
        {
          "indexed": false,
          "internalType": "uint8",
          "name": "version",
          "type": "uint8"
        }
      ],
      "name": "Initialized",
      "type": "event"
    },
    {
      "anonymous": false,
      "inputs": [
        {
          "indexed": false,
          "internalType": "contract Deposit",
          "name": "deposit",
          "type": "address"
        }
      ],
      "name": "LaunchpoolDepositCreated",
      "type": "event"
    },
    {
      "inputs": [],
      "name": "getBalance",
      "outputs": [
        {
          "internalType": "uint256",
          "name": "",
          "type": "uint256"
        }
      ],
      "stateMutability": "view",
      "type": "function",
      "constant": true
    },
    {
      "inputs": [],
      "name": "getRefillableSuppliers",
      "outputs": [
        {
          "components": [
            {
              "internalType": "contract IBankAccountSupplier",
              "name": "agreement",
              "type": "address"
            },
            {
              "internalType": "uint256",
              "name": "reward",
              "type": "uint256"
            }
          ],
          "internalType": "struct Refillable.RefillableSupplier[]",
          "name": "",
          "type": "tuple[]"
        }
      ],
      "stateMutability": "view",
      "type": "function",
      "constant": true
    },
    {
      "inputs": [],
      "name": "getToken",
      "outputs": [
        {
          "internalType": "contract IERC20",
          "name": "",
          "type": "address"
        }
      ],
      "stateMutability": "view",
      "type": "function",
      "constant": true
    },
    {
      "inputs": [],
      "name": "refill",
      "outputs": [],
      "stateMutability": "nonpayable",
      "type": "function"
    },
    {
      "inputs": [
        {
          "internalType": "address",
          "name": "to",
          "type": "address"
        },
        {
          "internalType": "uint256",
          "name": "amount",
          "type": "uint256"
        }
      ],
      "name": "transferFrom",
      "outputs": [
        {
          "internalType": "bool",
          "name": "",
          "type": "bool"
        }
      ],
      "stateMutability": "nonpayable",
      "type": "function"
    },
    {
      "inputs": [
        {
          "internalType": "uint256",
          "name": "date",
          "type": "uint256"
        },
        {
          "internalType": "uint256",
          "name": "amount",
          "type": "uint256"
        },
        {
          "internalType": "address",
          "name": "sender",
          "type": "address"
        }
      ],
      "name": "transferFromSupplier",
      "outputs": [],
      "stateMutability": "nonpayable",
      "type": "function"
    },
    {
      "inputs": [
        {
          "internalType": "uint256",
          "name": "amount",
          "type": "uint256"
        }
      ],
      "name": "transferTo",
      "outputs": [
        {
          "internalType": "bool",
          "name": "",
          "type": "bool"
        }
      ],
      "stateMutability": "nonpayable",
      "type": "function"
    },
    {
      "inputs": [
        {
          "internalType": "string",
          "name": "program",
          "type": "string"
        }
      ],
      "name": "createDeposit",
      "outputs": [],
      "stateMutability": "nonpayable",
      "type": "function"
    },
    {
      "inputs": [
        {
          "components": [
            {
              "internalType": "uint256",
              "name": "amountMaximum",
              "type": "uint256"
            },
            {
              "internalType": "uint256",
              "name": "amountMinimum",
              "type": "uint256"
            },
            {
              "internalType": "bool",
              "name": "isDepositable",
              "type": "bool"
            },
            {
              "internalType": "bool",
              "name": "isTerminatable",
              "type": "bool"
            },
            {
              "internalType": "uint256",
              "name": "periodMaximum",
              "type": "uint256"
            },
            {
              "internalType": "uint256",
              "name": "periodMinimum",
              "type": "uint256"
            },
            {
              "internalType": "string",
              "name": "program",
              "type": "string"
            },
            {
              "internalType": "uint8",
              "name": "rate",
              "type": "uint8"
            },
            {
              "internalType": "uint8",
              "name": "terminationPenalty",
              "type": "uint8"
            }
          ],
          "internalType": "struct BaseDeposit.ProgramParameters[]",
          "name": "depositPrograms",
          "type": "tuple[]"
        },
        {
          "components": [
            {
              "internalType": "contract IBankAccountSupplier",
              "name": "agreement",
              "type": "address"
            },
            {
              "internalType": "uint256",
              "name": "reward",
              "type": "uint256"
            }
          ],
          "internalType": "struct Refillable.RefillableSupplier[]",
          "name": "refillableAgreements",
          "type": "tuple[]"
        }
      ],
      "name": "initialize",
      "outputs": [],
      "stateMutability": "nonpayable",
      "type": "function"
    },
    {
      "inputs": [
        {
          "internalType": "uint256",
          "name": "date",
          "type": "uint256"
        }
      ],
      "name": "isReadyToRefill",
      "outputs": [
        {
          "internalType": "bool",
          "name": "",
          "type": "bool"
        }
      ],
      "stateMutability": "view",
      "type": "function",
      "constant": true
    },
    {
      "inputs": [],
      "name": "getDeposits",
      "outputs": [
        {
          "components": [
            {
              "internalType": "address",
              "name": "agreement",
              "type": "address"
            },
            {
              "components": [
                {
                  "internalType": "uint256",
                  "name": "amount",
                  "type": "uint256"
                },
                {
                  "internalType": "uint256",
                  "name": "amountDeposit",
                  "type": "uint256"
                },
                {
                  "internalType": "uint256",
                  "name": "amountMaximum",
                  "type": "uint256"
                },
                {
                  "internalType": "uint256",
                  "name": "amountMinimum",
                  "type": "uint256"
                },
                {
                  "internalType": "uint256",
                  "name": "amountReward",
                  "type": "uint256"
                },
                {
                  "internalType": "uint256",
                  "name": "beginDateTime",
                  "type": "uint256"
                },
                {
                  "internalType": "bool",
                  "name": "isActive",
                  "type": "bool"
                },
                {
                  "internalType": "bool",
                  "name": "isDepositable",
                  "type": "bool"
                },
                {
                  "internalType": "bool",
                  "name": "isTerminatable",
                  "type": "bool"
                },
                {
                  "internalType": "bool",
                  "name": "isWithdrawable",
                  "type": "bool"
                },
                {
                  "internalType": "bool",
                  "name": "isWithdrawed",
                  "type": "bool"
                },
                {
                  "internalType": "uint256",
                  "name": "periodMaximum",
                  "type": "uint256"
                },
                {
                  "internalType": "uint256",
                  "name": "periodMinimum",
                  "type": "uint256"
                },
                {
                  "internalType": "string",
                  "name": "program",
                  "type": "string"
                },
                {
                  "internalType": "uint8",
                  "name": "rate",
                  "type": "uint8"
                },
                {
                  "internalType": "uint8",
                  "name": "terminationPenalty",
                  "type": "uint8"
                }
              ],
              "internalType": "struct BaseDeposit.DepositParameters",
              "name": "parameters",
              "type": "tuple"
            }
          ],
          "internalType": "struct Launchpool.DepositListItems[]",
          "name": "",
          "type": "tuple[]"
        }
      ],
      "stateMutability": "view",
      "type": "function",
      "constant": true
    },
    {
      "inputs": [
        {
          "internalType": "string",
          "name": "program",
          "type": "string"
        }
      ],
      "name": "getDepositProgram",
      "outputs": [
        {
          "components": [
            {
              "internalType": "uint256",
              "name": "amountMaximum",
              "type": "uint256"
            },
            {
              "internalType": "uint256",
              "name": "amountMinimum",
              "type": "uint256"
            },
            {
              "internalType": "bool",
              "name": "isDepositable",
              "type": "bool"
            },
            {
              "internalType": "bool",
              "name": "isTerminatable",
              "type": "bool"
            },
            {
              "internalType": "uint256",
              "name": "periodMaximum",
              "type": "uint256"
            },
            {
              "internalType": "uint256",
              "name": "periodMinimum",
              "type": "uint256"
            },
            {
              "internalType": "string",
              "name": "program",
              "type": "string"
            },
            {
              "internalType": "uint8",
              "name": "rate",
              "type": "uint8"
            },
            {
              "internalType": "uint8",
              "name": "terminationPenalty",
              "type": "uint8"
            }
          ],
          "internalType": "struct BaseDeposit.ProgramParameters",
          "name": "",
          "type": "tuple"
        }
      ],
      "stateMutability": "view",
      "type": "function",
      "constant": true
    },
    {
      "inputs": [],
      "name": "getDepositPrograms",
      "outputs": [
        {
          "components": [
            {
              "internalType": "uint256",
              "name": "amountMaximum",
              "type": "uint256"
            },
            {
              "internalType": "uint256",
              "name": "amountMinimum",
              "type": "uint256"
            },
            {
              "internalType": "bool",
              "name": "isDepositable",
              "type": "bool"
            },
            {
              "internalType": "bool",
              "name": "isTerminatable",
              "type": "bool"
            },
            {
              "internalType": "uint256",
              "name": "periodMaximum",
              "type": "uint256"
            },
            {
              "internalType": "uint256",
              "name": "periodMinimum",
              "type": "uint256"
            },
            {
              "internalType": "string",
              "name": "program",
              "type": "string"
            },
            {
              "internalType": "uint8",
              "name": "rate",
              "type": "uint8"
            },
            {
              "internalType": "uint8",
              "name": "terminationPenalty",
              "type": "uint8"
            }
          ],
          "internalType": "struct BaseDeposit.ProgramParameters[]",
          "name": "",
          "type": "tuple[]"
        }
      ],
      "stateMutability": "view",
      "type": "function",
      "constant": true
    },
    {
      "inputs": [
        {
          "internalType": "uint256",
          "name": "date",
          "type": "uint256"
        }
      ],
      "name": "getTransfersAmount",
      "outputs": [
        {
          "internalType": "uint256",
          "name": "",
          "type": "uint256"
        }
      ],
      "stateMutability": "view",
      "type": "function",
      "constant": true
    },
    {
      "inputs": [],
      "name": "transferDailyRewards",
      "outputs": [],
      "stateMutability": "nonpayable",
      "type": "function"
    }
  ],
  "bytecode": "0x60806040523480156200001157600080fd5b506040516200611f3803806200611f833981016040819052620000349162000791565b80836001600160a01b03166321df0da76040518163ffffffff1660e01b815260040160206040518083038186803b1580156200006f57600080fd5b505afa15801562000084573d6000803e3d6000fd5b505050506040513d601f19601f82011682018060405250810190620000aa919062000944565b600080546001600160a01b0319166001600160a01b0392909216919091179055620000d5816200010a565b50620000e28282620001cf565b5050600880546001600160a01b0319166001600160a01b039290921691909117905562000ac3565b805160ff1015620001355760405162af1f4d60e11b815260ff60048201526024015b60405180910390fd5b620001436001600062000481565b60005b81518160ff161015620001cb576001828260ff16815181106200016d576200016d62000a81565b602090810291909101810151825460018082018555600094855293839020825160029092020180546001600160a01b0319166001600160a01b0390921691909117815591015191015580620001c28162000a52565b91505062000146565b5050565b6000620001dd60016200035d565b90508015620001f6576002805461ff0019166101001790555b6200020460046000620004a7565b60005b83518160ff16101562000305576004848260ff16815181106200022e576200022e62000a81565b602090810291909101810151825460018181018555600094855293839020825160079092020190815581830151938101939093556040810151600284018054606084015115156101000261ff00199315159390931661ffff19909116179190911790556080810151600384015560a0810151600484015560c08101518051919392620002c392600585019290910190620004ca565b5060e082015160069190910180546101009384015160ff93841661ffff1990921691909117921690920217905580620002fc8162000a52565b91505062000207565b5062000311826200010a565b801562000358576002805461ff0019169055604051600181527f7f26b83ff96e1f2b6a682f133852f6798a09c465da95921460cefb38474024989060200160405180910390a15b505050565b600254600090610100900460ff1615620003f4578160ff16600114801562000398575062000396306200047260201b620011881760201c565b155b620003ec5760405162461bcd60e51b815260206004820152602e6024820152600080516020620060ff83398151915260448201526d191e481a5b9a5d1a585b1a5e995960921b60648201526084016200012c565b506000919050565b60025460ff808416911610620004535760405162461bcd60e51b815260206004820152602e6024820152600080516020620060ff83398151915260448201526d191e481a5b9a5d1a585b1a5e995960921b60648201526084016200012c565b506002805460ff191660ff92909216919091179055600190565b919050565b6001600160a01b03163b151590565b5080546000825560020290600052602060002090810190620004a4919062000559565b50565b5080546000825560070290600052602060002090810190620004a4919062000581565b828054620004d89062000a15565b90600052602060002090601f016020900481019282620004fc576000855562000547565b82601f106200051757805160ff191683800117855562000547565b8280016001018555821562000547579182015b82811115620005475782518255916020019190600101906200052a565b5062000555929150620005d7565b5090565b5b80821115620005555780546001600160a01b0319168155600060018201556002016200055a565b80821115620005555760008082556001820181905560028201805461ffff191690556003820181905560048201819055620005c06005830182620005ee565b5060068101805461ffff1916905560070162000581565b5b80821115620005555760008155600101620005d8565b508054620005fc9062000a15565b6000825580601f106200060d575050565b601f016020900490600052602060002090810190620004a49190620005d7565b600082601f8301126200063f57600080fd5b81516020620006586200065283620009ef565b620009bc565b80838252828201915082860187848660061b89010111156200067957600080fd5b6000805b86811015620006cb57604080848c03121562000697578283fd5b620006a16200096b565b8451620006ae8162000aad565b81528488015188820152865294860194909201916001016200067d565b509198975050505050505050565b805180151581146200046d57600080fd5b600082601f830112620006fc57600080fd5b81516001600160401b0381111562000718576200071862000a97565b60206200072e601f8301601f19168201620009bc565b82815285828487010111156200074357600080fd5b60005b838110156200076357858101830151828201840152820162000746565b83811115620007755760008385840101525b5095945050505050565b805160ff811681146200046d57600080fd5b600080600060608486031215620007a757600080fd5b8351620007b48162000aad565b60208501519093506001600160401b0380821115620007d257600080fd5b818601915086601f830112620007e757600080fd5b8151620007f86200065282620009ef565b80828252602082019150602085018a60208560051b88010111156200081c57600080fd5b60005b848110156200090f578151868111156200083857600080fd5b8701610120818e03601f190112156200085057600080fd5b6200085a62000996565b60208201518152604082015160208201526200087960608301620006d9565b60408201526200088c60808301620006d9565b606082015260a0820151608082015260c082015160a082015260e082015188811115620008b857600080fd5b620008c98f602083860101620006ea565b60c083015250620008de61010083016200077f565b60e0820152620008f261012083016200077f565b61010082015285525060209384019391909101906001016200081f565b5050604089015190965093505050808211156200092b57600080fd5b506200093a868287016200062d565b9150509250925092565b6000602082840312156200095757600080fd5b8151620009648162000aad565b9392505050565b604080519081016001600160401b038111828210171562000990576200099062000a97565b60405290565b60405161012081016001600160401b038111828210171562000990576200099062000a97565b604051601f8201601f191681016001600160401b0381118282101715620009e757620009e762000a97565b604052919050565b60006001600160401b0382111562000a0b5762000a0b62000a97565b5060051b60200190565b600181811c9082168062000a2a57607f821691505b6020821081141562000a4c57634e487b7160e01b600052602260045260246000fd5b50919050565b600060ff821660ff81141562000a7857634e487b7160e01b600052601160045260246000fd5b60010192915050565b634e487b7160e01b600052603260045260246000fd5b634e487b7160e01b600052604160045260246000fd5b6001600160a01b0381168114620004a457600080fd5b61562c8062000ad36000396000f3fe60806040523480156200001157600080fd5b5060043610620001095760003560e01c80636b149d8711620000a3578063b228ce38116200006e578063b228ce381462000222578063ba0f49b71462000239578063c1e6a28f1462000250578063d622989a146200026757600080fd5b80636b149d8714620001d157806391c7c2b514620001ea578063985bdacb1462000201578063a0c855e4146200020b57600080fd5b806321df0da711620000e457806321df0da7146200016c5780633c5e533b1462000188578063538e075914620001ae57806363909f8614620001ba57600080fd5b806301c6adc3146200010e578063116e2e44146200013a57806312065fe01462000153575b600080fd5b620001256200011f36600462001ef7565b62000280565b60405190151581526020015b60405180910390f35b6200014462000314565b60405162000131919062002566565b6200015d62000482565b60405190815260200162000131565b6000546040516001600160a01b03909116815260200162000131565b6200019f62000199366004620020fb565b62000507565b604051620001319190620026c0565b620001b8620007a7565b005b62000125620001cb3660046200228e565b620008b0565b620001db620008d3565b604051620001319190620023db565b6200015d620001fb3660046200228e565b62000a88565b620001b862000aaf565b620001b86200021c366004620022c2565b62000c1d565b620001b86200023336600462001f26565b62000d90565b620001256200024a3660046200228e565b62000f1f565b620001b862000261366004620020fb565b62000fbc565b620002716200111a565b604051620001319190620025cc565b6000805460405163a9059cbb60e01b81526001600160a01b038581166004830152602482018590529091169063a9059cbb90604401602060405180830381600087803b158015620002d057600080fd5b505af1158015620002e5573d6000803e3d6000fd5b505050506040513d601f19601f820116820180604052508101906200030b9190620020bb565b90505b92915050565b60606004805480602002602001604051908101604052809291908181526020016000905b828210156200047957600084815260209081902060408051610120810182526007860290920180548352600181015493830193909352600283015460ff8082161515928401929092526101009004161515606082015260038201546080820152600482015460a082015260058201805491929160c084019190620003bc906200298a565b80601f0160208091040260200160405190810160405280929190818152602001828054620003ea906200298a565b80156200043b5780601f106200040f576101008083540402835291602001916200043b565b820191906000526020600020905b8154815290600101906020018083116200041d57829003601f168201915b50505091835250506006919091015460ff80821660208085019190915261010090920416604090920191909152908252600192909201910162000338565b50505050905090565b600080546040516370a0823160e01b81523060048201526001600160a01b03909116906370a082319060240160206040518083038186803b158015620004c757600080fd5b505afa158015620004dc573d6000803e3d6000fd5b505050506040513d601f19601f82011682018060405250810190620005029190620022a8565b905090565b604080516101208101825260008082526020820181905291810182905260608082018390526080820183905260a0820183905260c082015260e081018290526101008101829052905b60045460ff8216101562000780576200062460048260ff16815481106200057b576200057b62002a1e565b9060005260206000209060070201600501805462000599906200298a565b80601f0160208091040260200160405190810160405280929190818152602001828054620005c7906200298a565b8015620006185780601f10620005ec5761010080835404028352916020019162000618565b820191906000526020600020905b815481529060010190602001808311620005fa57829003601f168201915b50505050508462001197565b156200076b5760048160ff168154811062000643576200064362002a1e565b60009182526020918290206040805161012081018252600790930290910180548352600181015493830193909352600283015460ff8082161515928401929092526101009004161515606082015260038201546080820152600482015460a082015260058201805491929160c084019190620006bf906200298a565b80601f0160208091040260200160405190810160405280929190818152602001828054620006ed906200298a565b80156200073e5780601f1062000712576101008083540402835291602001916200073e565b820191906000526020600020905b8154815290600101906020018083116200072057829003601f168201915b50505091835250506006919091015460ff8082166020840152610100909104166040909101529392505050565b806200077781620029e5565b91505062000550565b5081604051636609ccfd60e11b81526004016200079e91906200265d565b60405180910390fd5b3360005b600154811015620008ac57600060018281548110620007ce57620007ce62002a1e565b600091825260208220600290910201546040805163e4fc6b6d60e01b815290516001600160a01b039092169350839263e4fc6b6d9260048084019382900301818387803b1580156200081f57600080fd5b505af115801562000834573d6000803e3d6000fd5b5050604051630c11dedd60e01b81526001600160a01b03868116600483015284169250630c11dedd9150602401600060405180830381600087803b1580156200087c57600080fd5b505af115801562000891573d6000803e3d6000fd5b50505050508080620008a390620029c7565b915050620007ab565b5050565b6000620008bd82620011f4565b15620008cb57506001919050565b506000919050565b33600081815260056020526040812054606092919067ffffffffffffffff81111562000903576200090362002a34565b6040519080825280602002602001820160405280156200094057816020015b6200092c62001b02565b815260200190600190039081620009225790505b50905060005b6001600160a01b03831660009081526005602052604090205481101562000a81576001600160a01b038316600090815260056020526040812080548390811062000994576200099462002a1e565b9060005260206000200160009054906101000a90046001600160a01b031690506040518060400160405280826001600160a01b03168152602001826001600160a01b031663a5ea11da6040518163ffffffff1660e01b815260040160006040518083038186803b15801562000a0857600080fd5b505afa15801562000a1d573d6000803e3d6000fd5b505050506040513d6000823e601f3d908101601f1916820160405262000a47919081019062002134565b81525083838151811062000a5f5762000a5f62002a1e565b602002602001018190525050808062000a7890620029c7565b91505062000946565b5092915050565b60006007600062000a9984620012cf565b8152602001908152602001600020549050919050565b33600062000abd8262001359565b9050306001600160a01b03166321df0da76040518163ffffffff1660e01b815260040160206040518083038186803b15801562000af957600080fd5b505afa15801562000b0e573d6000803e3d6000fd5b505050506040513d601f19601f8201168201806040525081019062000b349190620020db565b60405163095ea7b360e01b81526001600160a01b03848116600483015260248201849052919091169063095ea7b390604401602060405180830381600087803b15801562000b8157600080fd5b505af115801562000b96573d6000803e3d6000fd5b505050506040513d601f19601f8201168201806040525081019062000bbc9190620020bb565b50604051632a7edd8f60e21b8152600481018290526001600160a01b0383169063a9fb763c90602401600060405180830381600087803b15801562000c0057600080fd5b505af115801562000c15573d6000803e3d6000fd5b505050505050565b600062000c29620014bb565b9050600062000c3d826020015185620015a5565b90508084111562000d895781516001600160a01b03166301c6adc33062000c6584886200293d565b6040516001600160e01b031960e085901b1681526001600160a01b0390921660048301526024820152604401602060405180830381600087803b15801562000cac57600080fd5b505af115801562000cc1573d6000803e3d6000fd5b505050506040513d601f19601f8201168201806040525081019062000ce79190620020bb565b5081516040516301c6adc360e01b81526001600160a01b03858116600483015260248201849052909116906301c6adc390604401602060405180830381600087803b15801562000d3657600080fd5b505af115801562000d4b573d6000803e3d6000fd5b505050506040513d601f19601f8201168201806040525081019062000d719190620020bb565b5062000d898562000d8383876200293d565b620015cd565b5050505050565b600062000d9e60016200161b565b9050801562000db7576002805461ff0019166101001790555b62000dc56004600062001bb3565b60005b83518160ff16101562000ec6576004848260ff168151811062000def5762000def62002a1e565b602090810291909101810151825460018181018555600094855293839020825160079092020190815581830151938101939093556040810151600284018054606084015115156101000261ff00199315159390931661ffff19909116179190911790556080810151600384015560a0810151600484015560c0810151805191939262000e849260058501929091019062001bd9565b5060e082015160069190910180546101009384015160ff93841661ffff199092169190911792169092021790558062000ebd81620029e5565b91505062000dc8565b5062000ed282620016aa565b801562000f1a576002805461ff0019169055604051600181527f7f26b83ff96e1f2b6a682f133852f6798a09c465da95921460cefb3847402498906020015b60405180910390a15b505050565b600080336000546040516323b872dd60e01b81526001600160a01b038084166004830152306024830152604482018790529293509116906323b872dd90606401602060405180830381600087803b15801562000f7a57600080fd5b505af115801562000f8f573d6000803e3d6000fd5b505050506040513d601f19601f8201168201806040525081019062000fb59190620020bb565b9392505050565b600854339060009030906001600160a01b031662000fda8562000507565b60405162000fe89062001c68565b62000ff69392919062002626565b604051809103906000f08015801562001013573d6000803e3d6000fd5b506003805460018082019092557fc2575a0e9e593c00f959f8c92f12db2869c3395a3b0502d05e2516446f71f85b0180546001600160a01b038481166001600160a01b0319928316811790935586166000818152600560209081526040808320805497880181558352912090940180549092168317909155915163f2fde38b60e01b8152600481019290925291925063f2fde38b90602401600060405180830381600087803b158015620010c657600080fd5b505af1158015620010db573d6000803e3d6000fd5b50506040516001600160a01b03841681527f1f481075f52d22bf57a98023748eb71f465f54d8fb40a598c0b1e652dce5a29d9250602001905062000f11565b60606001805480602002602001604051908101604052809291908181526020016000905b8282101562000479576000848152602090819020604080518082019091526002850290910180546001600160a01b031682526001908101548284015290835290920191016200113e565b6001600160a01b03163b151590565b600081604051602001620011ac9190620023bd565b6040516020818303038152906040528051906020012083604051602001620011d59190620023bd565b6040516020818303038152906040528051906020012014905092915050565b6000805b600354811015620012c6576003818154811062001219576200121962002a1e565b6000918252602090912001546040516382afd23b60e01b8152600481018590526001600160a01b03909116906382afd23b9060240160206040518083038186803b1580156200126757600080fd5b505afa1580156200127c573d6000803e3d6000fd5b505050506040513d601f19601f82011682018060405250810190620012a29190620020bb565b15620012b15750600192915050565b80620012bd81620029c7565b915050620011f8565b50600092915050565b60405163a11e22d960e01b81526004810182905260009073__Date__________________________________9063a11e22d99060240160206040518083038186803b1580156200131e57600080fd5b505af415801562001333573d6000803e3d6000fd5b505050506040513d601f19601f820116820180604052508101906200030e9190620022a8565b6000806000836001600160a01b031663a9f177826040518163ffffffff1660e01b815260040160206040518083038186803b1580156200139857600080fd5b505afa158015620013ad573d6000803e3d6000fd5b505050506040513d601f19601f82011682018060405250810190620013d39190620022a8565b90506000846001600160a01b0316635032d2206040518163ffffffff1660e01b815260040160206040518083038186803b1580156200141157600080fd5b505afa15801562001426573d6000803e3d6000fd5b505050506040513d601f19601f820116820180604052508101906200144c9190620022a8565b90505b808211620014b257600660006200146684620012cf565b8152602080820192909252604090810160009081206001600160a01b0389168252909252902054620014999084620027d5565b9250620014aa6201518083620027d5565b91506200144f565b50909392505050565b6040805180820190915260008082526020820181905233905b6001548110156200157f5760018181548110620014f557620014f562002a1e565b60009182526020909120600290910201546001600160a01b03838116911614156200156a576001818154811062001530576200153062002a1e565b60009182526020918290206040805180820190915260029092020180546001600160a01b0316825260010154918101919091529392505050565b806200157681620029c7565b915050620014d4565b506040516364a8f42560e01b81526001600160a01b03821660048201526024016200079e565b6000620015b56004600a6200285c565b620015c184846200291b565b6200030b9190620027f0565b8060076000620015dd85620012cf565b81526020019081526020016000206000828254620015fc9190620027d5565b90915550620008ac90506200161562015180846200293d565b62001767565b600254600090610100900460ff161562001661578160ff166001148015620016425750303b155b620008cb5760405162461bcd60e51b81526004016200079e9062002672565b60025460ff8084169116106200168b5760405162461bcd60e51b81526004016200079e9062002672565b506002805460ff191660ff92909216919091179055600190565b919050565b805160ff1015620016d15760405162af1f4d60e11b815260ff60048201526024016200079e565b620016df6001600062001c76565b60005b81518160ff161015620008ac576001828260ff168151811062001709576200170962002a1e565b602090810291909101810151825460018082018555600094855293839020825160029092020180546001600160a01b0319166001600160a01b03909216919091178155910151910155806200175e81620029e5565b915050620016e2565b6000805b6003548110156200193d57600381815481106200178c576200178c62002a1e565b6000918252602090912001546040516382afd23b60e01b8152600481018590526001600160a01b03909116906382afd23b9060240160206040518083038186803b158015620017da57600080fd5b505afa158015620017ef573d6000803e3d6000fd5b505050506040513d601f19601f82011682018060405250810190620018159190620020bb565b15620019285760006003828154811062001833576200183362002a1e565b6000918252602090912001546040516277763760e41b8152600481018690526001600160a01b039091169063077763709060240160206040518083038186803b1580156200188057600080fd5b505afa15801562001895573d6000803e3d6000fd5b505050506040513d601f19601f82011682018060405250810190620018bb9190620022a8565b90508060066000620018cd87620012cf565b8152602001908152602001600020600060038581548110620018f357620018f362002a1e565b60009182526020808320909101546001600160a01b03168352820192909252604001902055620019248184620027d5565b9250505b806200193481620029c7565b9150506200176b565b508062001948575050565b60005b60035481101562000f1a57600381815481106200196c576200196c62002a1e565b6000918252602090912001546040516382afd23b60e01b8152600481018590526001600160a01b03909116906382afd23b9060240160206040518083038186803b158015620019ba57600080fd5b505afa158015620019cf573d6000803e3d6000fd5b505050506040513d601f19601f82011682018060405250810190620019f59190620020bb565b1562001aed5760006006600062001a0c86620012cf565b815260200190815260200160002060006003848154811062001a325762001a3262002a1e565b60009182526020808320909101546001600160a01b031683528201929092526040018120549150839060079062001a6987620012cf565b8152602001908152602001600020548262001a8591906200291b565b62001a919190620027f0565b6006600062001aa087620012cf565b815260200190815260200160002060006003858154811062001ac65762001ac662002a1e565b60009182526020808320909101546001600160a01b03168352820192909252604001902055505b8062001af981620029c7565b9150506200194b565b604051806040016040528060006001600160a01b0316815260200162001bae604051806102000160405280600081526020016000815260200160008152602001600081526020016000815260200160008152602001600015158152602001600015158152602001600015158152602001600015158152602001600015158152602001600081526020016000815260200160608152602001600060ff168152602001600060ff1681525090565b905290565b508054600082556007029060005260206000209081019062001bd6919062001c99565b50565b82805462001be7906200298a565b90600052602060002090601f01602090048101928262001c0b576000855562001c56565b82601f1062001c2657805160ff191683800117855562001c56565b8280016001018555821562001c56579182015b8281111562001c5657825182559160200191906001019062001c39565b5062001c6492915062001cef565b5090565b612b778062002a8083390190565b508054600082556002029060005260206000209081019062001bd6919062001d06565b8082111562001c645760008082556001820181905560028201805461ffff19169055600382018190556004820181905562001cd8600583018262001d2e565b5060068101805461ffff1916905560070162001c99565b5b8082111562001c64576000815560010162001cf0565b5b8082111562001c645780546001600160a01b03191681556000600182015560020162001d07565b50805462001d3c906200298a565b6000825580601f1062001d4d575050565b601f01602090049060005260206000209081019062001bd6919062001cef565b600082601f83011262001d7f57600080fd5b8135602062001d9862001d928362002783565b6200274f565b80838252828201915082860187848660061b890101111562001db957600080fd5b6000805b8681101562001e0b57604080848c03121562001dd7578283fd5b62001de1620026d5565b843562001dee8162002a4a565b815284880135888201528652948601949092019160010162001dbd565b509198975050505050505050565b8035620016a58162002a60565b8051620016a58162002a60565b600082601f83011262001e4557600080fd5b813562001e5662001d9282620027aa565b81815284602083860101111562001e6c57600080fd5b816020850160208301376000918101602001919091529392505050565b600082601f83011262001e9b57600080fd5b815162001eac62001d9282620027aa565b81815284602083860101111562001ec257600080fd5b62001ed582602083016020870162002957565b949350505050565b8035620016a58162002a6f565b8051620016a58162002a6f565b6000806040838503121562001f0b57600080fd5b823562001f188162002a4a565b946020939093013593505050565b6000806040838503121562001f3a57600080fd5b823567ffffffffffffffff8082111562001f5357600080fd5b818501915085601f83011262001f6857600080fd5b8135602062001f7b62001d928362002783565b8083825282820191508286018a848660051b890101111562001f9c57600080fd5b60005b85811015620020885781358781111562001fb857600080fd5b8801610120818e03601f1901121562001fd057600080fd5b62001fda62002701565b86820135815260408201358782015262001ff76060830162001e19565b60408201526200200a6080830162001e19565b606082015260a0820135608082015260c082013560a082015260e0820135898111156200203657600080fd5b620020468f898386010162001e33565b60c0830152506101006200205c81840162001edd565b60e083015262002070610120840162001edd565b90820152855250928401929084019060010162001f9f565b50909750505086013592505080821115620020a257600080fd5b50620020b18582860162001d6d565b9150509250929050565b600060208284031215620020ce57600080fd5b815162000fb58162002a60565b600060208284031215620020ee57600080fd5b815162000fb58162002a4a565b6000602082840312156200210e57600080fd5b813567ffffffffffffffff8111156200212657600080fd5b62001ed58482850162001e33565b6000602082840312156200214757600080fd5b815167ffffffffffffffff808211156200216057600080fd5b9083019061020082860312156200217657600080fd5b6200218062002728565b825181526020830151602082015260408301516040820152606083015160608201526080830151608082015260a083015160a0820152620021c460c0840162001e26565b60c0820152620021d760e0840162001e26565b60e0820152610100620021ec81850162001e26565b908201526101206200220084820162001e26565b908201526101406200221484820162001e26565b90820152610160838101519082015261018080840151908201526101a080840151838111156200224357600080fd5b620022518882870162001e89565b8284015250506101c091506200226982840162001eea565b828201526101e091506200227f82840162001eea565b91810191909152949350505050565b600060208284031215620022a157600080fd5b5035919050565b600060208284031215620022bb57600080fd5b5051919050565b600080600060608486031215620022d857600080fd5b83359250602084013591506040840135620022f38162002a4a565b809150509250925092565b600081518084526200231881602086016020860162002957565b601f01601f19169290920160200192915050565b6000610120825184526020830151602085015260408301511515604085015260608301516200235f606086018215159052565b506080830151608085015260a083015160a085015260c08301518160c08601526200238d82860182620022fe565b91505060e0830151620023a560e086018260ff169052565b506101009283015160ff169390920192909252919050565b60008251620023d181846020870162002957565b9190910192915050565b60006020808301818452808551808352604092508286019150828160051b87010184880160005b838110156200255857888303603f19018552815180516001600160a01b0316845287015187840187905280518785015280880151606080860191909152878201516080808701919091529082015160a0808701919091529082015160c0808701919091529082015160e0808701919091529082015190610100620024898188018415159052565b90830151915061012090620024a18783018415159052565b8301519150610140620024b78782018415159052565b90830151915061016090620024cf8783018415159052565b8301519150610180620024e58782018415159052565b908301516101a087810191909152908301516101c080880191909152908301516102006101e0808901829052919350919062002526610240890185620022fe565b9185015160ff908116938901939093529093015116610220909501949094529487019492509086019060010162002402565b509098975050505050505050565b6000602080830181845280855180835260408601915060408160051b870101925083870160005b82811015620025bf57603f19888603018452620025ac8583516200232c565b945092850192908501906001016200258d565b5092979650505050505050565b602080825282518282018190526000919060409081850190868401855b828110156200261957815180516001600160a01b03168552860151868501529284019290850190600101620025e9565b5091979650505050505050565b6001600160a01b0384811682528316602082015260606040820181905260009062002654908301846200232c565b95945050505050565b6020815260006200030b6020830184620022fe565b6020808252602e908201527f496e697469616c697a61626c653a20636f6e747261637420697320616c72656160408201526d191e481a5b9a5d1a585b1a5e995960921b606082015260800190565b6020815260006200030b60208301846200232c565b6040805190810167ffffffffffffffff81118282101715620026fb57620026fb62002a34565b60405290565b604051610120810167ffffffffffffffff81118282101715620026fb57620026fb62002a34565b604051610200810167ffffffffffffffff81118282101715620026fb57620026fb62002a34565b604051601f8201601f1916810167ffffffffffffffff811182821017156200277b576200277b62002a34565b604052919050565b600067ffffffffffffffff821115620027a057620027a062002a34565b5060051b60200190565b600067ffffffffffffffff821115620027c757620027c762002a34565b50601f01601f191660200190565b60008219821115620027eb57620027eb62002a08565b500190565b6000826200280e57634e487b7160e01b600052601260045260246000fd5b500490565b600181815b808511156200285457816000190482111562002838576200283862002a08565b808516156200284657918102915b93841c939080029062002818565b509250929050565b60006200030b60ff84168360008262002878575060016200030e565b8162002887575060006200030e565b8160018114620028a05760028114620028ab57620028cb565b60019150506200030e565b60ff841115620028bf57620028bf62002a08565b50506001821b6200030e565b5060208310610133831016604e8410600b8410161715620028f0575081810a6200030e565b620028fc838362002813565b806000190482111562002913576200291362002a08565b029392505050565b600081600019048311821515161562002938576200293862002a08565b500290565b60008282101562002952576200295262002a08565b500390565b60005b83811015620029745781810151838201526020016200295a565b8381111562002984576000848401525b50505050565b600181811c908216806200299f57607f821691505b60208210811415620029c157634e487b7160e01b600052602260045260246000fd5b50919050565b6000600019821415620029de57620029de62002a08565b5060010190565b600060ff821660ff811415620029ff57620029ff62002a08565b60010192915050565b634e487b7160e01b600052601160045260246000fd5b634e487b7160e01b600052603260045260246000fd5b634e487b7160e01b600052604160045260246000fd5b6001600160a01b038116811462001bd657600080fd5b801515811462001bd657600080fd5b60ff8116811462001bd657600080fdfe60806040523480156200001157600080fd5b5060405162002b7738038062002b7783398101604081905262000034916200044d565b806060015181610100015182608001518360a001518460400151856000015186602001518989806001600160a01b03166321df0da76040518163ffffffff1660e01b815260040160206040518083038186803b1580156200009457600080fd5b505afa158015620000a9573d6000803e3d6000fd5b505050506040513d601f19601f82011682018060405250810190620000cf919062000426565b620000da33620001ea565b600280546001600160a01b03199081166001600160a01b03938416179091556003805482168584169081179091556005805490921692841692909217905562000126906000906200023a565b6003546200015f907fc002a6b5f9f56101ba6339b1b95d171fadf6e41e005b91c80d686aef7516e759906001600160a01b03166200023a565b50506006919091556007556008805460ff1916911515919091179055600991909155600a55600b805461ffff191692151561ff0019169290921761010060ff92909216919091021790556001600c5560c08101518051620001c991600d91602090910190620002c3565b5060e00151600e805460ff191660ff90921691909117905550620006319050565b600080546001600160a01b038381166001600160a01b0319831681178455604051919092169283917f8be0079c531659141344cd1fd0a4f28419497f9722a3daafe3b4186f6b6457e09190a35050565b60008281526001602090815260408083206001600160a01b038516845290915290205460ff16620002bf5760008281526001602081815260408084206001600160a01b0386168086529252808420805460ff19169093179092559051339285917f2f8788117e7eff1d82e926ec794901d17c78024a50270940304540a733656f0d9190a45b5050565b828054620002d190620005c5565b90600052602060002090601f016020900481019282620002f5576000855562000340565b82601f106200031057805160ff191683800117855562000340565b8280016001018555821562000340579182015b828111156200034057825182559160200191906001019062000323565b506200034e92915062000352565b5090565b5b808211156200034e576000815560010162000353565b805180151581146200037a57600080fd5b919050565b600082601f8301126200039157600080fd5b81516001600160401b03811115620003ad57620003ad62000602565b6020620003c3601f8301601f1916820162000592565b8281528582848701011115620003d857600080fd5b60005b83811015620003f8578581018301518282018401528201620003db565b838111156200040a5760008385840101525b5095945050505050565b805160ff811681146200037a57600080fd5b6000602082840312156200043957600080fd5b8151620004468162000618565b9392505050565b6000806000606084860312156200046357600080fd5b8351620004708162000618565b6020850151909350620004838162000618565b60408501519092506001600160401b0380821115620004a157600080fd5b908501906101208288031215620004b757600080fd5b620004c162000566565b8251815260208301516020820152620004dd6040840162000369565b6040820152620004f06060840162000369565b60608201526080830151608082015260a083015160a082015260c0830151828111156200051c57600080fd5b6200052a898286016200037f565b60c0830152506200053e60e0840162000414565b60e082015261010091506200055582840162000414565b828201528093505050509250925092565b60405161012081016001600160401b03811182821017156200058c576200058c62000602565b60405290565b604051601f8201601f191681016001600160401b0381118282101715620005bd57620005bd62000602565b604052919050565b600181811c90821680620005da57607f821691505b60208210811415620005fc57634e487b7160e01b600052602260045260246000fd5b50919050565b634e487b7160e01b600052604160045260246000fd5b6001600160a01b03811681146200062e57600080fd5b50565b61253680620006416000396000f3fe608060405234801561001057600080fd5b50600436106101f05760003560e01c8063715018a61161010f578063a9fb763c116100a2578063d547741f11610071578063d547741f146103fc578063e8884f2b1461040f578063e8cf51b014610436578063f2fde38b1461044957600080fd5b8063a9fb763c146103ad578063b31cf984146103c0578063b6b55f25146103d5578063ba0f49b7146103e857600080fd5b806391d14854116100de57806391d1485414610375578063a217fddf14610388578063a5ea11da14610390578063a9f17782146103a557600080fd5b8063715018a61461033457806382afd23b1461033c57806383920e901461034f5780638da5cb5b1461036457600080fd5b806336568abe1161018757806351e2412d1161015657806351e2412d146102f35780635dc181b3146102fb578063679aefce1461030c5780636aca845e1461032157600080fd5b806336568abe146102bf5780633b19e84a146102d25780633ccfd60b146102e35780635032d220146102eb57600080fd5b806321df0da7116101c357806321df0da71461025957806322f3e2d41461027e578063248a9ca3146102865780632f2ff15d146102aa57600080fd5b806301c6adc3146101f557806301ffc9a71461021d578063077763701461023057806312065fe014610251575b600080fd5b610208610203366004611ee6565b61045c565b60405190151581526020015b60405180910390f35b61020861022b36600461207c565b610465565b61024361023e366004612037565b61049a565b604051908152602001610214565b6102436104c3565b6002546001600160a01b03165b6040516001600160a01b039091168152602001610214565b610208610544565b610243610294366004612037565b6000908152600160208190526040909120015490565b6102bd6102b8366004612050565b61054f565b005b6102bd6102cd366004612050565b61057a565b6005546001600160a01b0316610266565b6102bd6105fd565b610243610915565b6102436109f4565b6003546001600160a01b0316610266565b600e5460405160ff9091168152602001610214565b61024361032f366004611f10565b610ac7565b6102bd610aff565b61020861034a366004612037565b610b35565b610357610c20565b6040516102149190612160565b6000546001600160a01b0316610266565b610208610383366004612050565b610cf9565b610243600081565b610398610d24565b604051610214919061223e565b610243610f3e565b6102bd6103bb366004612037565b61101a565b6103c8611063565b60405161021491906121f6565b6102bd6103e3366004612037565b6110f5565b6102086103f6366004612037565b50600090565b6102bd61040a366004612050565b6111e8565b6102437fc002a6b5f9f56101ba6339b1b95d171fadf6e41e005b91c80d686aef7516e75981565b610243610444366004612037565b61120e565b6102bd610457366004611ecb565b6112e8565b60005b92915050565b60006001600160e01b03198216637965db0b60e01b148061045f57506301ffc9a760e01b6001600160e01b031983161461045f565b600e5460009060649060ff166104af8461120e565b6104b991906123df565b61045f91906123bd565b6002546040516370a0823160e01b81523060048201526000916001600160a01b0316906370a082319060240160206040518083038186803b15801561050757600080fd5b505afa15801561051b573d6000803e3d6000fd5b505050506040513d601f19601f8201168201806040525081019061053f91906120a6565b905090565b600061053f42610b35565b6000828152600160208190526040909120015461056b81611383565b610575838361138d565b505050565b6001600160a01b03811633146105ef5760405162461bcd60e51b815260206004820152602f60248201527f416363657373436f6e74726f6c3a2063616e206f6e6c792072656e6f756e636560448201526e103937b632b9903337b91039b2b63360891b60648201526084015b60405180910390fd5b6105f982826113f8565b5050565b6000546001600160a01b031633146106275760405162461bcd60e51b81526004016105e690612209565b6002600c54141561067a5760405162461bcd60e51b815260206004820152601f60248201527f5265656e7472616e637947756172643a207265656e7472616e742063616c6c0060448201526064016105e6565b6002600c819055506108396004805480602002602001604051908101604052809291908181526020016000905b82821015610753576000848152602090206040805160a08101909152600484029091018054829060ff1660038111156106e2576106e26124be565b60038111156106f3576106f36124be565b81526020016000820160019054906101000a90046001600160a01b03166001600160a01b03166001600160a01b031681526020016001820154815260200160028201548152602001600382015481525050815260200190600101906106a7565b505050506108346004805480602002602001604051908101604052809291908181526020016000905b82821015610828576000848152602090206040805160a08101909152600484029091018054829060ff1660038111156107b7576107b76124be565b60038111156107c8576107c86124be565b81526020016000820160019054906101000a90046001600160a01b03166001600160a01b03166001600160a01b0316815260200160018201548152602001600282015481526020016003820154815250508152602001906001019061077c565b50505050600a5461145f565b61148e565b6108416114be565b60005b60045481101561090d57600160048281548110610863576108636124d4565b600091825260209091206004909102015460ff166003811115610888576108886124be565b14806108cb57506003600482815481106108a4576108a46124d4565b600091825260209091206004909102015460ff1660038111156108c9576108c96124be565b145b156108fb576108f9600482815481106108e6576108e66124d4565b9060005260206000209060040201611570565b505b806109058161248d565b915050610844565b506001600c55565b600061053f6004805480602002602001604051908101604052809291908181526020016000905b828210156109e8576000848152602090206040805160a08101909152600484029091018054829060ff166003811115610977576109776124be565b6003811115610988576109886124be565b81526020016000820160019054906101000a90046001600160a01b03166001600160a01b03166001600160a01b0316815260200160018201548152602001600282015481526020016003820154815250508152602001906001019061093c565b5050505060095461145f565b600061053f6004805480602002602001604051908101604052809291908181526020016000905b82821015610828576000848152602090206040805160a08101909152600484029091018054829060ff166003811115610a5657610a566124be565b6003811115610a6757610a676124be565b81526020016000820160019054906101000a90046001600160a01b03166001600160a01b03166001600160a01b03168152602001600182015481526020016002820154815260200160038201548152505081526020019060010190610a1b565b805160009015610af75781600081518110610ae457610ae46124d4565b6020026020010151608001519050919050565b506000919050565b6000546001600160a01b03163314610b295760405162461bcd60e51b81526004016105e690612209565b610b336000611616565b565b6000610c086004805480602002602001604051908101604052809291908181526020016000905b828210156109e8576000848152602090206040805160a08101909152600484029091018054829060ff166003811115610b9757610b976124be565b6003811115610ba857610ba86124be565b81526020016000820160019054906101000a90046001600160a01b03166001600160a01b03166001600160a01b03168152602001600182015481526020016002820154815260200160038201548152505081526020019060010190610b5c565b8210801561045f5750610c19611666565b1592915050565b60606004805480602002602001604051908101604052809291908181526020016000905b82821015610cf0576000848152602090206040805160a08101909152600484029091018054829060ff166003811115610c7f57610c7f6124be565b6003811115610c9057610c906124be565b81526020016000820160019054906101000a90046001600160a01b03166001600160a01b03166001600160a01b03168152602001600182015481526020016002820154815260200160038201548152505081526020019060010190610c44565b50505050905090565b60009182526001602090815260408084206001600160a01b0393909316845291905290205460ff1690565b610db4604051806102000160405280600081526020016000815260200160008152602001600081526020016000815260200160008152602001600015158152602001600015158152602001600015158152602001600015158152602001600015158152602001600081526020016000815260200160608152602001600060ff168152602001600060ff1681525090565b604051806102000160405280610dc86104c3565b8152602001610dd561174d565b8051600090610de657610de66124d4565b6020026020010151815260200160065481526020016007548152602001610e0b61174d565b80516002908110610e1e57610e1e6124d4565b60200260200101518152602001610e33610f3e565b8152602001610e40610544565b1515815260085460ff90811615156020830152600b541615156040820152606001610e69611821565b15158152602001610e78611666565b151581526020016009548152602001600a548152602001600d8054610e9c90612458565b80601f0160208091040260200160405190810160405280929190818152602001828054610ec890612458565b8015610f155780601f10610eea57610100808354040283529160200191610f15565b820191906000526020600020905b815481529060010190602001808311610ef857829003601f168201915b5050509183525050600e5460ff9081166020830152600b54610100900416604090910152919050565b600061053f6004805480602002602001604051908101604052809291908181526020016000905b82821015611011576000848152602090206040805160a08101909152600484029091018054829060ff166003811115610fa057610fa06124be565b6003811115610fb157610fb16124be565b81526020016000820160019054906101000a90046001600160a01b03166001600160a01b03166001600160a01b03168152602001600182015481526020016002820154815260200160038201548152505081526020019060010190610f65565b50505050610ac7565b7fc002a6b5f9f56101ba6339b1b95d171fadf6e41e005b91c80d686aef7516e75961104481611383565b60006110526002338561182c565b905061105d81611570565b50505050565b6060600d805461107290612458565b80601f016020809104026020016040519081016040528092919081815260200182805461109e90612458565b80156110eb5780601f106110c0576101008083540402835291602001916110eb565b820191906000526020600020905b8154815290600101906020018083116110ce57829003601f168201915b5050505050905090565b6111d06004805480602002602001604051908101604052809291908181526020016000905b828210156111c6576000848152602090206040805160a08101909152600484029091018054829060ff166003811115611155576111556124be565b6003811115611166576111666124be565b81526020016000820160019054906101000a90046001600160a01b03166001600160a01b03166001600160a01b0316815260200160018201548152602001600282015481526020016003820154815250508152602001906001019061111a565b5050505082611951565b60006111dd81338461182c565b905061057581611570565b6000828152600160208190526040909120015461120481611383565b61057583836113f8565b600080805b6004548110156112e15761122a62015180856123fe565b6004828154811061123d5761123d6124d4565b906000526020600020906004020160020154111561125c575092915050565b600060048281548110611271576112716124d4565b600091825260209091206004909102015460ff166003811115611296576112966124be565b14156112cf57600481815481106112af576112af6124d4565b906000526020600020906004020160010154826112cc91906123a5565b91505b806112d98161248d565b915050611213565b5092915050565b6000546001600160a01b031633146113125760405162461bcd60e51b81526004016105e690612209565b6001600160a01b0381166113775760405162461bcd60e51b815260206004820152602660248201527f4f776e61626c653a206e6577206f776e657220697320746865207a65726f206160448201526564647265737360d01b60648201526084016105e6565b61138081611616565b50565b611380813361195b565b6113978282610cf9565b6105f95760008281526001602081815260408084206001600160a01b0386168086529252808420805460ff19169093179092559051339285917f2f8788117e7eff1d82e926ec794901d17c78024a50270940304540a733656f0d9190a45050565b6114028282610cf9565b156105f95760008281526001602090815260408083206001600160a01b0385168085529252808320805460ff1916905551339285917ff6391f5c32d9c69d2a47ea670b442974b53935d1edc7fd64eb21e047a839171b9190a45050565b60008061146b84610ac7565b90508061147c57600091505061045f565b61148683826123a5565b949350505050565b611496611666565b156114b457604051632e08f66d60e11b815260040160405180910390fd5b6105f982826119bf565b600360009054906101000a90046001600160a01b03166001600160a01b031663985bdacb6040518163ffffffff1660e01b8152600401600060405180830381600087803b15801561150e57600080fd5b505af1158015611522573d6000803e3d6000fd5b5050505060006115306119ef565b9050611550600333836115416104c3565b61154b91906123fe565b61182c565b508015611380576005546105f9906001906001600160a01b03168361182c565b600081600301546000146115c65760405162461bcd60e51b815260206004820152601c60248201527f5472616e73616374696f6e20697320616c72656164792070617965640000000060448201526064016105e6565b4260038301556000825460ff1660038111156115e4576115e46124be565b14156115f75761045f8260010154611b27565b8154600183015461045f9161010090046001600160a01b031690611bc0565b600080546001600160a01b038381166001600160a01b0319831681178455604051919092169283917f8be0079c531659141344cd1fd0a4f28419497f9722a3daafe3b4186f6b6457e09190a35050565b6004546000905b801561174557600060046116826001846123fe565b81548110611692576116926124d4565b600091825260209091206040805160a081019091526004909202018054829060ff1660038111156116c5576116c56124be565b60038111156116d6576116d66124be565b8152815461010090046001600160a01b03166020820152600182015460408201526002820154606082015260039182015460809091015290915081516003811115611723576117236124be565b14156117325760019250505090565b508061173d81612441565b91505061166d565b506000905090565b60408051600480825260a08201909252606091600091906020820160808036833701905050905060005b60045481101561181b5760048181548110611794576117946124d4565b90600052602060002090600402016001015482600483815481106117ba576117ba6124d4565b600091825260209091206004909102015460ff1660038111156117df576117df6124be565b60ff16815181106117f2576117f26124d4565b6020026020010181815161180691906123a5565b905250806118138161248d565b915050611777565b50919050565b600061053f42611c0f565b6000806040518060a0016040528086600381111561184c5761184c6124be565b81526001600160a01b03861660208201526040810185905242606082015260006080909101819052600480546001818101835592829052835191027f8a35acfbc15ff81a39ae7d344fd709f28e8600b4aa8c65c6b64bfe7fe36bd19b01805493945084939092839160ff1916908360038111156118cb576118cb6124be565b0217905550602082015181546001600160a01b0390911661010002610100600160a81b0319909116178155604082015160018083019190915560608301516002830155608090920151600390910155600480549091611929916123fe565b81548110611939576119396124d4565b90600052602060002090600402019150509392505050565b6105f98282611ce2565b6119658282610cf9565b6105f95761197d816001600160a01b03166014611d13565b611988836020611d13565b6040516020016119999291906120eb565b60408051601f198184030181529082905262461bcd60e51b82526105e6916004016121f6565b600b5460ff161580156119d157504281115b156105f957604051631bc5fe1160e31b815260040160405180910390fd5b6000611ac26004805480602002602001604051908101604052809291908181526020016000905b828210156109e8576000848152602090206040805160a08101909152600484029091018054829060ff166003811115611a5157611a516124be565b6003811115611a6257611a626124be565b81526020016000820160019054906101000a90046001600160a01b03166001600160a01b03166001600160a01b03168152602001600182015481526020016002820154815260200160038201548152505081526020019060010190611a16565b421115611acf5750600090565b6000611ad961174d565b80516002908110611aec57611aec6124d4565b60200260200101519050612710600b60019054906101000a900460ff1660ff1682611b1791906123df565b611b2191906123bd565b91505090565b600080336002546040516323b872dd60e01b81526001600160a01b038084166004830152306024830152604482018790529293509116906323b872dd90606401602060405180830381600087803b158015611b8157600080fd5b505af1158015611b95573d6000803e3d6000fd5b505050506040513d601f19601f82011682018060405250810190611bb99190612015565b9392505050565b60025460405163a9059cbb60e01b81526001600160a01b03848116600483015260248201849052600092169063a9059cbb90604401602060405180830381600087803b158015611b8157600080fd5b6000610c086004805480602002602001604051908101604052809291908181526020016000905b82821015610828576000848152602090206040805160a08101909152600484029091018054829060ff166003811115611c7157611c716124be565b6003811115611c8257611c826124be565b81526020016000820160019054906101000a90046001600160a01b03166001600160a01b03166001600160a01b03168152602001600182015481526020016002820154815260200160038201548152505081526020019060010190611c36565b60085460ff16158015611cf55750815115155b156105f9576040516341df992760e01b815260040160405180910390fd5b60606000611d228360026123df565b611d2d9060026123a5565b67ffffffffffffffff811115611d4557611d456124ea565b6040519080825280601f01601f191660200182016040528015611d6f576020820181803683370190505b509050600360fc1b81600081518110611d8a57611d8a6124d4565b60200101906001600160f81b031916908160001a905350600f60fb1b81600181518110611db957611db96124d4565b60200101906001600160f81b031916908160001a9053506000611ddd8460026123df565b611de89060016123a5565b90505b6001811115611e60576f181899199a1a9b1b9c1cb0b131b232b360811b85600f1660108110611e1c57611e1c6124d4565b1a60f81b828281518110611e3257611e326124d4565b60200101906001600160f81b031916908160001a90535060049490941c93611e5981612441565b9050611deb565b508315611bb95760405162461bcd60e51b815260206004820181905260248201527f537472696e67733a20686578206c656e67746820696e73756666696369656e7460448201526064016105e6565b80356001600160a01b0381168114611ec657600080fd5b919050565b600060208284031215611edd57600080fd5b611bb982611eaf565b60008060408385031215611ef957600080fd5b611f0283611eaf565b946020939093013593505050565b60006020808385031215611f2357600080fd5b823567ffffffffffffffff80821115611f3b57600080fd5b818501915085601f830112611f4f57600080fd5b813581811115611f6157611f616124ea565b611f6f848260051b01612374565b818152848101925083850160a0808402860187018a1015611f8f57600080fd5b600095505b838610156120075780828b031215611fab57600080fd5b611fb361234b565b823560048110611fc257600080fd5b8152611fcf838901611eaf565b818901526040838101359082015260608084013590820152608080840135908201528552600195909501949386019390810190611f94565b509098975050505050505050565b60006020828403121561202757600080fd5b81518015158114611bb957600080fd5b60006020828403121561204957600080fd5b5035919050565b6000806040838503121561206357600080fd5b8235915061207360208401611eaf565b90509250929050565b60006020828403121561208e57600080fd5b81356001600160e01b031981168114611bb957600080fd5b6000602082840312156120b857600080fd5b5051919050565b600081518084526120d7816020860160208601612415565b601f01601f19169290920160200192915050565b7f416363657373436f6e74726f6c3a206163636f756e7420000000000000000000815260008351612123816017850160208801612415565b7001034b99036b4b9b9b4b733903937b6329607d1b6017918401918201528351612154816028840160208801612415565b01602801949350505050565b60208082528251828201819052600091906040908185019086840185805b838110156121e8578251805160048082106121a657634e487b7160e01b855260218152602485fd5b508652808801516001600160a01b0316888701528681015187870152606080820151908701526080908101519086015260a0909401939186019160010161217e565b509298975050505050505050565b602081526000611bb960208301846120bf565b6020808252818101527f4f776e61626c653a2063616c6c6572206973206e6f7420746865206f776e6572604082015260600190565b6020815281516020820152602082015160408201526040820151606082015260608201516080820152608082015160a082015260a082015160c0820152600060c083015161229060e084018215159052565b5060e08301516101006122a68185018315159052565b84015190506101206122bb8482018315159052565b84015190506101406122d08482018315159052565b84015190506101606122e58482018315159052565b840151610180848101919091528401516101a0808501919091528401516102006101c0808601829052919250906123206102208601846120bf565b908601519092506101e06123388682018360ff169052565b9095015160ff1693019290925250919050565b60405160a0810167ffffffffffffffff8111828210171561236e5761236e6124ea565b60405290565b604051601f8201601f1916810167ffffffffffffffff8111828210171561239d5761239d6124ea565b604052919050565b600082198211156123b8576123b86124a8565b500190565b6000826123da57634e487b7160e01b600052601260045260246000fd5b500490565b60008160001904831182151516156123f9576123f96124a8565b500290565b600082821015612410576124106124a8565b500390565b60005b83811015612430578181015183820152602001612418565b8381111561105d5750506000910152565b600081612450576124506124a8565b506000190190565b600181811c9082168061246c57607f821691505b6020821081141561181b57634e487b7160e01b600052602260045260246000fd5b60006000198214156124a1576124a16124a8565b5060010190565b634e487b7160e01b600052601160045260246000fd5b634e487b7160e01b600052602160045260246000fd5b634e487b7160e01b600052603260045260246000fd5b634e487b7160e01b600052604160045260246000fdfea2646970667358221220c4d74c38d05e1e175902a0dafdfdfebf53e1e652282475d0274f7538f1ca58fd64736f6c63430008070033a26469706673582212208a3689e568a561c85bfc6c11897973c84851417ba70b9e0ebd951c44fc896c7a64736f6c63430008070033496e697469616c697a61626c653a20636f6e747261637420697320616c726561",
  "immutableReferences": {},
  "source": "// SPDX-License-Identifier: MIT\npragma solidity 0.8.7;\n\nimport \"@openzeppelin/contracts/proxy/utils/Initializable.sol\";\n\nimport \"../Date.sol\";\nimport \"../Refillable.sol\";\nimport \"./ILaunchpool.sol\";\nimport \"./Deposit.sol\";\n\n/**\n * @dev Launchpool\n */\ncontract Launchpool is BankAccount, Refillable, Initializable, ILaunchpool {\n    struct DepositListItems {\n        address agreement;\n        Deposit.DepositParameters parameters;\n    }\n\n    Deposit[] private _deposits;\n\n    Deposit.ProgramParameters[] private _depositPrograms;\n\n    mapping(address => Deposit[]) private _ownerDeposits;\n\n    mapping(uint256 => mapping(address => uint256)) private _rewards;\n\n    mapping(uint256 => uint256) private _transfers;\n\n    IBankAccount private _treasury;\n\n    error LaunchpoolDepositProgramNotExists(string program);\n\n    event LaunchpoolDepositCreated(Deposit deposit);\n\n    constructor(\n        IBankAccount treasury,\n        Deposit.ProgramParameters[] memory depositPrograms,\n        Refillable.RefillableSupplier[] memory refillableAgreements\n    ) BankAccount(treasury.getToken()) Refillable(refillableAgreements) {\n        initialize(depositPrograms, refillableAgreements);\n\n        _treasury = treasury;\n    }\n\n    function createDeposit(string memory program) external {\n        address owner = _msgSender();\n\n        Deposit deposit = new Deposit(\n            this,\n            _treasury,\n            getDepositProgram(program)\n        );\n\n        _deposits.push(deposit);\n\n        _ownerDeposits[owner].push(deposit);\n\n        deposit.transferOwnership(owner);\n\n        emit LaunchpoolDepositCreated(deposit);\n    }\n\n    function initialize(\n        Deposit.ProgramParameters[] memory depositPrograms,\n        Refillable.RefillableSupplier[] memory refillableAgreements\n    ) public initializer {\n        delete _depositPrograms;\n\n        for (uint8 i = 0; i < depositPrograms.length; i++) {\n            _depositPrograms.push(depositPrograms[i]);\n        }\n\n        _setRefillableAgreements(refillableAgreements);\n    }\n\n    function isReadyToRefill(uint256 date)\n        external\n        view\n        override\n        returns (bool)\n    {\n        if (_hasActiveDepositsOnDate(date)) {\n            return true;\n        }\n\n        return false;\n    }\n\n    function getDeposits() external view returns (DepositListItems[] memory) {\n        address owner = _msgSender();\n\n        DepositListItems[] memory deposits = new DepositListItems[](\n            _ownerDeposits[owner].length\n        );\n\n        for (uint256 i = 0; i < _ownerDeposits[owner].length; i++) {\n            Deposit deposit = _ownerDeposits[owner][i];\n\n            deposits[i] = DepositListItems({\n                agreement: address(deposit),\n                parameters: deposit.getParameters()\n            });\n        }\n\n        return deposits;\n    }\n\n    function getDepositProgram(string memory program)\n        public\n        view\n        returns (Deposit.ProgramParameters memory)\n    {\n        for (uint8 i = 0; i < _depositPrograms.length; i++) {\n            if (_isEqual(_depositPrograms[i].program, program)) {\n                return _depositPrograms[i];\n            }\n        }\n\n        revert LaunchpoolDepositProgramNotExists(program);\n    }\n\n    function getDepositPrograms()\n        public\n        view\n        returns (Deposit.ProgramParameters[] memory)\n    {\n        return _depositPrograms;\n    }\n\n    function getTransfersAmount(uint256 date) external view returns (uint256) {\n        return _transfers[_getKey(date)];\n    }\n\n    function transferDailyRewards() external override {\n        // TODO can be runned not only by deposit\n        address deposit = _msgSender();\n\n        uint256 amount = _getDepositRewards(deposit);\n\n        this.getToken().approve(deposit, amount);\n\n        Deposit(deposit).reward(amount);\n    }\n\n    function _calculateRewards(uint256 date) private {\n        uint256 totalRate = 0;\n\n        for (uint256 i = 0; i < _deposits.length; i++) {\n            if (_deposits[i].isActive(date)) {\n                uint256 rate = _deposits[i].getBaseToCalculateReward(date);\n\n                _rewards[_getKey(date)][address(_deposits[i])] = rate;\n\n                totalRate += rate;\n            }\n        }\n\n        if (totalRate == 0) {\n            return;\n        }\n\n        for (uint256 i = 0; i < _deposits.length; i++) {\n            if (_deposits[i].isActive(date)) {\n                uint256 rate = _rewards[_getKey(date)][address(_deposits[i])];\n\n                _rewards[_getKey(date)][address(_deposits[i])] =\n                    (rate * _transfers[_getKey(date)]) /\n                    totalRate;\n            }\n        }\n    }\n\n    function _hasActiveDepositsOnDate(uint256 date)\n        private\n        view\n        returns (bool)\n    {\n        for (uint256 i = 0; i < _deposits.length; i++) {\n            if (_deposits[i].isActive(date)) {\n                return true;\n            }\n        }\n\n        return false;\n    }\n\n    function _isEqual(string memory program1, string memory program2)\n        private\n        pure\n        returns (bool)\n    {\n        return (keccak256(abi.encodePacked(program1)) ==\n            keccak256(abi.encodePacked(program2)));\n    }\n\n    function _getDepositRewards(address deposit)\n        private\n        view\n        returns (uint256)\n    {\n        uint256 amount;\n\n        uint256 date = Deposit(deposit).getBeginDateTime();\n        uint256 end = Deposit(deposit).getPeriodMaximumDateTime();\n\n        while (date <= end) {\n            amount += _rewards[_getKey(date)][address(deposit)];\n            date += 1 days;\n        }\n\n        return amount;\n    }\n\n    function _getKey(uint256 date) private pure returns (uint256) {\n        return Date.toDate(date);\n    }\n\n    function _postTransferFromSupplier(uint256 date, uint256 amount)\n        internal\n        override\n    {\n        _transfers[_getKey(date)] += amount;\n\n        _calculateRewards(date - 1 days);\n    }\n}\n",
  "sourcePath": "/Users/ievgencherkaskyi/Projects/tivan/launchpool/contracts/Launchpool/Launchpool.sol",
  "compiler": {
    "name": "solc",
    "version": "0.8.7+commit.e28d00a7.Emscripten.clang"
  },
  "schemaVersion": "3.4.7",
  "updatedAt": "2022-06-14T15:58:42.381Z",
  "networkType": "ethereum",
  "devdoc": {
    "details": "Launchpool",
    "kind": "dev",
    "methods": {},
    "version": 1
  },
  "userdoc": {
    "kind": "user",
    "methods": {},
    "version": 1
  }
}