{
  "contractName": "Mint",
  "abi": [
    {
      "inputs": [
        {
          "internalType": "uint8",
          "name": "maxNumber",
          "type": "uint8"
        }
      ],
      "name": "BankAccountSupplierTooMuchRecipients",
      "type": "error"
    },
    {
      "inputs": [],
      "name": "BankAccountSuppliertTotalSharesIsNotValid",
      "type": "error"
    },
    {
      "anonymous": false,
      "inputs": [
        {
          "indexed": false,
          "internalType": "uint8",
          "name": "version",
          "type": "uint8"
        }
      ],
      "name": "Initialized",
      "type": "event"
    },
    {
      "anonymous": false,
      "inputs": [
        {
          "indexed": true,
          "internalType": "address",
          "name": "previousOwner",
          "type": "address"
        },
        {
          "indexed": true,
          "internalType": "address",
          "name": "newOwner",
          "type": "address"
        }
      ],
      "name": "OwnershipTransferred",
      "type": "event"
    },
    {
      "inputs": [],
      "name": "getBalance",
      "outputs": [
        {
          "internalType": "uint256",
          "name": "",
          "type": "uint256"
        }
      ],
      "stateMutability": "view",
      "type": "function",
      "constant": true
    },
    {
      "inputs": [],
      "name": "getPayments",
      "outputs": [
        {
          "components": [
            {
              "internalType": "contract Refillable",
              "name": "agreement",
              "type": "address"
            },
            {
              "internalType": "uint256",
              "name": "amount",
              "type": "uint256"
            },
            {
              "internalType": "uint256",
              "name": "date",
              "type": "uint256"
            },
            {
              "internalType": "uint256",
              "name": "payed",
              "type": "uint256"
            },
            {
              "internalType": "uint8",
              "name": "share",
              "type": "uint8"
            }
          ],
          "internalType": "struct Payment[]",
          "name": "",
          "type": "tuple[]"
        }
      ],
      "stateMutability": "view",
      "type": "function",
      "constant": true
    },
    {
      "inputs": [],
      "name": "getRecipients",
      "outputs": [
        {
          "components": [
            {
              "internalType": "contract Refillable",
              "name": "agreement",
              "type": "address"
            },
            {
              "internalType": "uint8",
              "name": "share",
              "type": "uint8"
            }
          ],
          "internalType": "struct BankAccountRecipient[]",
          "name": "",
          "type": "tuple[]"
        }
      ],
      "stateMutability": "view",
      "type": "function",
      "constant": true
    },
    {
      "inputs": [],
      "name": "getToken",
      "outputs": [
        {
          "internalType": "contract IERC20",
          "name": "",
          "type": "address"
        }
      ],
      "stateMutability": "view",
      "type": "function",
      "constant": true
    },
    {
      "inputs": [],
      "name": "owner",
      "outputs": [
        {
          "internalType": "address",
          "name": "",
          "type": "address"
        }
      ],
      "stateMutability": "view",
      "type": "function",
      "constant": true
    },
    {
      "inputs": [
        {
          "internalType": "address",
          "name": "sender",
          "type": "address"
        }
      ],
      "name": "pay",
      "outputs": [],
      "stateMutability": "nonpayable",
      "type": "function"
    },
    {
      "inputs": [],
      "name": "renounceOwnership",
      "outputs": [],
      "stateMutability": "nonpayable",
      "type": "function"
    },
    {
      "inputs": [
        {
          "components": [
            {
              "internalType": "contract Refillable",
              "name": "agreement",
              "type": "address"
            },
            {
              "internalType": "uint8",
              "name": "share",
              "type": "uint8"
            }
          ],
          "internalType": "struct BankAccountRecipient[]",
          "name": "recipients",
          "type": "tuple[]"
        }
      ],
      "name": "setRecipients",
      "outputs": [],
      "stateMutability": "nonpayable",
      "type": "function"
    },
    {
      "inputs": [
        {
          "internalType": "address",
          "name": "to",
          "type": "address"
        },
        {
          "internalType": "uint256",
          "name": "amount",
          "type": "uint256"
        }
      ],
      "name": "transferFrom",
      "outputs": [
        {
          "internalType": "bool",
          "name": "",
          "type": "bool"
        }
      ],
      "stateMutability": "nonpayable",
      "type": "function"
    },
    {
      "inputs": [
        {
          "internalType": "address",
          "name": "newOwner",
          "type": "address"
        }
      ],
      "name": "transferOwnership",
      "outputs": [],
      "stateMutability": "nonpayable",
      "type": "function"
    },
    {
      "inputs": [
        {
          "internalType": "uint256",
          "name": "amount",
          "type": "uint256"
        }
      ],
      "name": "transferTo",
      "outputs": [
        {
          "internalType": "bool",
          "name": "",
          "type": "bool"
        }
      ],
      "stateMutability": "nonpayable",
      "type": "function"
    },
    {
      "inputs": [],
      "name": "distribute",
      "outputs": [],
      "stateMutability": "nonpayable",
      "type": "function"
    },
    {
      "inputs": [
        {
          "internalType": "contract IERC20",
          "name": "token",
          "type": "address"
        }
      ],
      "name": "initialize",
      "outputs": [],
      "stateMutability": "nonpayable",
      "type": "function"
    },
    {
      "inputs": [
        {
          "internalType": "uint256",
          "name": "numberOfDays",
          "type": "uint256"
        }
      ],
      "name": "getDistributionAmounts",
      "outputs": [
        {
          "internalType": "uint256[]",
          "name": "",
          "type": "uint256[]"
        }
      ],
      "stateMutability": "view",
      "type": "function",
      "constant": true
    }
  ],
  "bytecode": "0x608060405234801561001057600080fd5b50611576806100206000396000f3fe608060405234801561001057600080fd5b50600436106100ea5760003560e01c80638da5cb5b1161008c578063d56bd14211610066578063d56bd142146101d9578063d78d610b146101ee578063e4fc6b6d14610203578063f2fde38b1461020b57600080fd5b80638da5cb5b146101a2578063ba0f49b7146101b3578063c4d66de8146101c657600080fd5b806321df0da7116100c857806321df0da714610142578063322bf7bf146101675780633449b70614610187578063715018a61461019a57600080fd5b806301c6adc3146100ef5780630c11dedd1461011757806312065fe01461012c575b600080fd5b6101026100fd36600461104a565b61021e565b60405190151581526020015b60405180910390f35b61012a61012536600461102d565b6102ad565b005b6101346103f2565b60405190815260200161010e565b6065546001600160a01b03165b6040516001600160a01b03909116815260200161010e565b61017a610175366004611180565b610473565b60405161010e919061127a565b61012a610195366004611076565b610506565b61012a610625565b6033546001600160a01b031661014f565b6101026101c1366004611180565b61065b565b61012a6101d436600461102d565b610668565b6101e16106de565b60405161010e919061120d565b6101f6610775565b60405161010e91906111b2565b61012a6107e2565b61012a61021936600461102d565b610861565b60655460405163a9059cbb60e01b81526001600160a01b03848116600483015260248201849052600092169063a9059cbb906044015b602060405180830381600087803b15801561026e57600080fd5b505af1158015610282573d6000803e3d6000fd5b505050506040513d601f19601f820116820180604052508101906102a6919061115e565b9392505050565b60675433905b80156103ed57600060676102c8600184611456565b815481106102d8576102d86114ff565b6000918252602090912060059091020180549091506001600160a01b03848116911614156103da576003810154156103105750505050565b42600382018190556040805160a08101825283546001600160a01b03168152600184015460208201526002840154918101919091526060810191909152600482015460ff166080820152610363906108fc565b50805460028201546001830154604051632832157960e21b8152600481019290925260248201526001600160a01b0386811660448301529091169063a0c855e490606401600060405180830381600087803b1580156103c157600080fd5b505af11580156103d5573d6000803e3d6000fd5b505050505b50806103e58161146d565b9150506102b3565b505050565b6065546040516370a0823160e01b81523060048201526000916001600160a01b0316906370a082319060240160206040518083038186803b15801561043657600080fd5b505afa15801561044a573d6000803e3d6000fd5b505050506040513d601f19601f8201168201806040525081019061046e9190611199565b905090565b606060008267ffffffffffffffff81111561049057610490611515565b6040519080825280602002602001820160405280156104b9578160200160208202803683370190505b50905060005b838110156104ff576104d0816109f4565b8282815181106104e2576104e26114ff565b6020908102919091010152806104f781611484565b9150506104bf565b5092915050565b6033546001600160a01b031633146105395760405162461bcd60e51b81526004016105309061130c565b60405180910390fd5b805160ff101561055f5760405163bf767af760e01b815260ff6004820152602401610530565b61056881610a48565b60ff1660641461058b5760405163a44e5b1b60e01b815260040160405180910390fd5b61059760666000610ff1565b60005b81518160ff161015610621576066828260ff16815181106105bd576105bd6114ff565b6020908102919091018101518254600181018455600093845292829020815193018054919092015160ff16600160a01b026001600160a81b03199091166001600160a01b0390931692909217919091179055806106198161149f565b91505061059a565b5050565b6033546001600160a01b0316331461064f5760405162461bcd60e51b81526004016105309061130c565b6106596000610a99565b565b6000336102a68184610aeb565b60006106746001610b2b565b9050801561068c576000805461ff0019166101001790555b61069582610bb3565b8015610621576000805461ff0019169055604051600181527f7f26b83ff96e1f2b6a682f133852f6798a09c465da95921460cefb38474024989060200160405180910390a15050565b60606067805480602002602001604051908101604052809291908181526020016000905b8282101561076c5760008481526020908190206040805160a0810182526005860290920180546001600160a01b0316835260018082015484860152600282015492840192909252600381015460608401526004015460ff1660808301529083529092019101610702565b50505050905090565b60606066805480602002602001604051908101604052809291908181526020016000905b8282101561076c57600084815260209081902060408051808201909152908401546001600160a01b0381168252600160a01b900460ff1681830152825260019092019101610799565b60006107ec610beb565b9050806107ff576107fc42610c33565b90505b6000610809610c52565b90508061081c5761081942610c33565b90505b428210156106215761084d82610848620151806108398584611456565b6108439190611423565b6109f4565b610c71565b61085a62015180836113e6565b915061081c565b6033546001600160a01b0316331461088b5760405162461bcd60e51b81526004016105309061130c565b6001600160a01b0381166108f05760405162461bcd60e51b815260206004820152602660248201527f4f776e61626c653a206e6577206f776e657220697320746865207a65726f206160448201526564647265737360d01b6064820152608401610530565b6108f981610a99565b50565b6065548151604051636eb1769f60e11b81523060048201526001600160a01b0391821660248201526000928392169063dd62ed3e9060440160206040518083038186803b15801561094c57600080fd5b505afa158015610960573d6000803e3d6000fd5b505050506040513d601f19601f820116820180604052508101906109849190611199565b606554845160208601519293506001600160a01b039091169163095ea7b391906109ae90856113e6565b6040516001600160e01b031960e085901b1681526001600160a01b0390921660048301526024820152604401602060405180830381600087803b15801561026e57600080fd5b6000806109ff6103f2565b90506000612710610a1385620120f4611437565b610a219063038444c0611456565b610a2d90610120611437565b610a379190611423565b9050808210156102a6575092915050565b600080805b83518160ff1610156104ff57838160ff1681518110610a6e57610a6e6114ff565b60200260200101516020015182610a8591906113fe565b915080610a918161149f565b915050610a4d565b603380546001600160a01b038381166001600160a01b0319831681179093556040519116919082907f8be0079c531659141344cd1fd0a4f28419497f9722a3daafe3b4186f6b6457e090600090a35050565b6065546040516323b872dd60e01b81526001600160a01b0384811660048301523060248301526044820184905260009216906323b872dd90606401610254565b60008054610100900460ff1615610b72578160ff166001148015610b4e5750303b155b610b6a5760405162461bcd60e51b8152600401610530906112be565b506000919050565b60005460ff808416911610610b995760405162461bcd60e51b8152600401610530906112be565b506000805460ff191660ff92909216919091179055600190565b600054610100900460ff16610bda5760405162461bcd60e51b815260040161053090611341565b610be2610f1a565b6108f981610f49565b60675460009015610c2d5760678054610c0690600190611456565b81548110610c1657610c166114ff565b906000526020600020906005020160020154905090565b50600090565b6000610c4262015180836114bf565b610c4c9083611456565b92915050565b60675460009015610c2d576067600081548110610c1657610c166114ff565b60005b60665460ff821610156103ed57600060668260ff1681548110610c9957610c996114ff565b6000918252602090912001546040516331c84fc360e11b8152600481018690526001600160a01b03909116906363909f869060240160206040518083038186803b158015610ce657600080fd5b505afa158015610cfa573d6000803e3d6000fd5b505050506040513d601f19601f82011682018060405250810190610d1e919061115e565b610d29576000610d6b565b606460668360ff1681548110610d4157610d416114ff565b600091825260209091200154610d6190600160a01b900460ff1685611437565b610d6b9190611423565b905060006040518060a0016040528060668560ff1681548110610d9057610d906114ff565b600091825260209182902001546001600160a01b0316825281018490526040810187905260600183610dc25742610dc5565b60005b815260200160668560ff1681548110610de057610de06114ff565b600091825260208083209190910154600160a01b900460ff90811690935260678054600181018255925283517f9787eeb91fe3101235e4a76063c7023ecb40f923f97916639c598592fa30d6ae600590930292830180546001600160a01b0319166001600160a01b039092169190911790558301517f9787eeb91fe3101235e4a76063c7023ecb40f923f97916639c598592fa30d6af82015560408301517f9787eeb91fe3101235e4a76063c7023ecb40f923f97916639c598592fa30d6b082015560608301517f9787eeb91fe3101235e4a76063c7023ecb40f923f97916639c598592fa30d6b18201556080909201517f9787eeb91fe3101235e4a76063c7023ecb40f923f97916639c598592fa30d6b2909201805460ff19169290911691909117905550819050610f128161149f565b915050610c74565b600054610100900460ff16610f415760405162461bcd60e51b815260040161053090611341565b610659610f9a565b600054610100900460ff16610f705760405162461bcd60e51b815260040161053090611341565b610f78610fca565b606580546001600160a01b0319166001600160a01b0392909216919091179055565b600054610100900460ff16610fc15760405162461bcd60e51b815260040161053090611341565b61065933610a99565b600054610100900460ff166106595760405162461bcd60e51b815260040161053090611341565b50805460008255906000526020600020908101906108f991905b808211156110295780546001600160a81b031916815560010161100b565b5090565b60006020828403121561103f57600080fd5b81356102a68161152b565b6000806040838503121561105d57600080fd5b82356110688161152b565b946020939093013593505050565b6000602080838503121561108957600080fd5b823567ffffffffffffffff808211156110a157600080fd5b818501915085601f8301126110b557600080fd5b8135818111156110c7576110c7611515565b6110d5848260051b016113b5565b8181528481019250838501600683901b850186018910156110f557600080fd5b600094505b8285101561115257604080828b03121561111357600080fd5b61111b61138c565b82356111268161152b565b81528288013560ff8116811461113b57600080fd5b8189015285526001959095019493860193016110fa565b50979650505050505050565b60006020828403121561117057600080fd5b815180151581146102a657600080fd5b60006020828403121561119257600080fd5b5035919050565b6000602082840312156111ab57600080fd5b5051919050565b602080825282518282018190526000919060409081850190868401855b8281101561120057815180516001600160a01b0316855286015160ff168685015292840192908501906001016111cf565b5091979650505050505050565b602080825282518282018190526000919060409081850190868401855b8281101561120057815180516001600160a01b03168552868101518786015285810151868601526060808201519086015260809081015160ff169085015260a0909301929085019060010161122a565b6020808252825182820181905260009190848201906040850190845b818110156112b257835183529284019291840191600101611296565b50909695505050505050565b6020808252602e908201527f496e697469616c697a61626c653a20636f6e747261637420697320616c72656160408201526d191e481a5b9a5d1a585b1a5e995960921b606082015260800190565b6020808252818101527f4f776e61626c653a2063616c6c6572206973206e6f7420746865206f776e6572604082015260600190565b6020808252602b908201527f496e697469616c697a61626c653a20636f6e7472616374206973206e6f74206960408201526a6e697469616c697a696e6760a81b606082015260800190565b6040805190810167ffffffffffffffff811182821017156113af576113af611515565b60405290565b604051601f8201601f1916810167ffffffffffffffff811182821017156113de576113de611515565b604052919050565b600082198211156113f9576113f96114d3565b500190565b600060ff821660ff84168060ff0382111561141b5761141b6114d3565b019392505050565b600082611432576114326114e9565b500490565b6000816000190483118215151615611451576114516114d3565b500290565b600082821015611468576114686114d3565b500390565b60008161147c5761147c6114d3565b506000190190565b6000600019821415611498576114986114d3565b5060010190565b600060ff821660ff8114156114b6576114b66114d3565b60010192915050565b6000826114ce576114ce6114e9565b500690565b634e487b7160e01b600052601160045260246000fd5b634e487b7160e01b600052601260045260246000fd5b634e487b7160e01b600052603260045260246000fd5b634e487b7160e01b600052604160045260246000fd5b6001600160a01b03811681146108f957600080fdfea2646970667358221220c6e4872405316d68415a394a6c446398c41b926a12e2e83cc95266b20613f30c64736f6c63430008070033",
  "immutableReferences": {},
  "source": "// SPDX-License-Identifier: MIT\npragma solidity 0.8.7;\n\nimport \"@openzeppelin/contracts-upgradeable/proxy/utils/Initializable.sol\";\n\nimport \"./BankAccountSupplier.sol\";\n\ncontract Mint is Initializable, BankAccountSupplier {\n    function distribute() external override {\n        uint256 date = _getLastPaymentDate();\n\n        if (date == 0) {\n            date = Date.toDate(block.timestamp);\n        }\n\n        uint256 firstDate = _getFirstPaymentDate();\n\n        if (firstDate == 0) {\n            firstDate = Date.toDate(block.timestamp);\n        }\n\n        while (date < block.timestamp) {\n            _createPayments(date, _getAmountOnDay((date - firstDate) / 1 days));\n\n            date += 1 days;\n        }\n    }\n\n    function initialize(IERC20 token) public initializer {\n        __BankAccountSupplier_init(token);\n    }\n\n    function getDistributionAmounts(uint256 numberOfDays)\n        external\n        view\n        returns (uint256[] memory)\n    {\n        uint256[] memory amounts = new uint256[](numberOfDays);\n\n        for (uint256 i = 0; i < numberOfDays; i++) {\n            amounts[i] = _getAmountOnDay(i);\n        }\n\n        return amounts;\n    }\n\n    function _getAmountOnDay(uint256 day) private view returns (uint256) {\n        uint256 balance = getBalance();\n\n        uint256 amount = (288 * (59 * 10**6 - day * 73972)) / 10**4;\n\n        if (balance < amount) {\n            return balance;\n        }\n\n        return amount;\n    }\n}\n",
  "sourcePath": "/Users/ievgencherkaskyi/Projects/tivan/launchpool/contracts/Mint.sol",
  "compiler": {
    "name": "solc",
    "version": "0.8.7+commit.e28d00a7.Emscripten.clang"
  },
  "schemaVersion": "3.3.3",
  "updatedAt": "2022-06-29T07:06:10.370Z",
  "networkType": "ethereum",
  "devdoc": {
    "kind": "dev",
    "methods": {
      "owner()": {
        "details": "Returns the address of the current owner."
      },
      "renounceOwnership()": {
        "details": "Leaves the contract without owner. It will not be possible to call `onlyOwner` functions anymore. Can only be called by the current owner. NOTE: Renouncing ownership will leave the contract without an owner, thereby removing any functionality that is only available to the owner."
      },
      "transferOwnership(address)": {
        "details": "Transfers ownership of the contract to a new account (`newOwner`). Can only be called by the current owner."
      }
    },
    "version": 1
  },
  "userdoc": {
    "kind": "user",
    "methods": {},
    "version": 1
  }
}