{
  "contractName": "Mint",
  "abi": [
    {
      "inputs": [
        {
          "internalType": "uint8",
          "name": "maxNumber",
          "type": "uint8"
        }
      ],
      "name": "BankAccountSupplierTooMuchRecipients",
      "type": "error"
    },
    {
      "inputs": [],
      "name": "BankAccountSuppliertTotalSharesIsNotValid",
      "type": "error"
    },
    {
      "anonymous": false,
      "inputs": [
        {
          "indexed": false,
          "internalType": "uint8",
          "name": "version",
          "type": "uint8"
        }
      ],
      "name": "Initialized",
      "type": "event"
    },
    {
      "anonymous": false,
      "inputs": [
        {
          "indexed": true,
          "internalType": "address",
          "name": "previousOwner",
          "type": "address"
        },
        {
          "indexed": true,
          "internalType": "address",
          "name": "newOwner",
          "type": "address"
        }
      ],
      "name": "OwnershipTransferred",
      "type": "event"
    },
    {
      "inputs": [],
      "name": "getBalance",
      "outputs": [
        {
          "internalType": "uint256",
          "name": "",
          "type": "uint256"
        }
      ],
      "stateMutability": "view",
      "type": "function"
    },
    {
      "inputs": [],
      "name": "getPayments",
      "outputs": [
        {
          "components": [
            {
              "internalType": "contract Refillable",
              "name": "agreement",
              "type": "address"
            },
            {
              "internalType": "uint256",
              "name": "amount",
              "type": "uint256"
            },
            {
              "internalType": "uint256",
              "name": "date",
              "type": "uint256"
            },
            {
              "internalType": "uint256",
              "name": "payed",
              "type": "uint256"
            },
            {
              "internalType": "uint8",
              "name": "share",
              "type": "uint8"
            }
          ],
          "internalType": "struct Payment[]",
          "name": "",
          "type": "tuple[]"
        }
      ],
      "stateMutability": "view",
      "type": "function"
    },
    {
      "inputs": [],
      "name": "getRecipients",
      "outputs": [
        {
          "components": [
            {
              "internalType": "contract Refillable",
              "name": "agreement",
              "type": "address"
            },
            {
              "internalType": "uint8",
              "name": "share",
              "type": "uint8"
            }
          ],
          "internalType": "struct BankAccountRecipient[]",
          "name": "",
          "type": "tuple[]"
        }
      ],
      "stateMutability": "view",
      "type": "function"
    },
    {
      "inputs": [],
      "name": "getToken",
      "outputs": [
        {
          "internalType": "contract IERC20",
          "name": "",
          "type": "address"
        }
      ],
      "stateMutability": "view",
      "type": "function"
    },
    {
      "inputs": [],
      "name": "owner",
      "outputs": [
        {
          "internalType": "address",
          "name": "",
          "type": "address"
        }
      ],
      "stateMutability": "view",
      "type": "function"
    },
    {
      "inputs": [
        {
          "internalType": "address",
          "name": "sender",
          "type": "address"
        }
      ],
      "name": "pay",
      "outputs": [],
      "stateMutability": "nonpayable",
      "type": "function"
    },
    {
      "inputs": [],
      "name": "renounceOwnership",
      "outputs": [],
      "stateMutability": "nonpayable",
      "type": "function"
    },
    {
      "inputs": [
        {
          "components": [
            {
              "internalType": "contract Refillable",
              "name": "agreement",
              "type": "address"
            },
            {
              "internalType": "uint8",
              "name": "share",
              "type": "uint8"
            }
          ],
          "internalType": "struct BankAccountRecipient[]",
          "name": "recipients",
          "type": "tuple[]"
        }
      ],
      "name": "setRecipients",
      "outputs": [],
      "stateMutability": "nonpayable",
      "type": "function"
    },
    {
      "inputs": [
        {
          "internalType": "address",
          "name": "to",
          "type": "address"
        },
        {
          "internalType": "uint256",
          "name": "amount",
          "type": "uint256"
        }
      ],
      "name": "transferFrom",
      "outputs": [
        {
          "internalType": "bool",
          "name": "",
          "type": "bool"
        }
      ],
      "stateMutability": "nonpayable",
      "type": "function"
    },
    {
      "inputs": [
        {
          "internalType": "address",
          "name": "newOwner",
          "type": "address"
        }
      ],
      "name": "transferOwnership",
      "outputs": [],
      "stateMutability": "nonpayable",
      "type": "function"
    },
    {
      "inputs": [
        {
          "internalType": "address",
          "name": "from",
          "type": "address"
        },
        {
          "internalType": "uint256",
          "name": "amount",
          "type": "uint256"
        }
      ],
      "name": "transferTo",
      "outputs": [
        {
          "internalType": "bool",
          "name": "",
          "type": "bool"
        }
      ],
      "stateMutability": "nonpayable",
      "type": "function"
    },
    {
      "inputs": [],
      "name": "distribute",
      "outputs": [],
      "stateMutability": "nonpayable",
      "type": "function"
    },
    {
      "inputs": [
        {
          "internalType": "contract IERC20",
          "name": "token",
          "type": "address"
        }
      ],
      "name": "__Mint_init",
      "outputs": [],
      "stateMutability": "nonpayable",
      "type": "function"
    },
    {
      "inputs": [
        {
          "internalType": "uint256",
          "name": "numberOfDays",
          "type": "uint256"
        }
      ],
      "name": "getDistributionAmounts",
      "outputs": [
        {
          "internalType": "uint256[]",
          "name": "",
          "type": "uint256[]"
        }
      ],
      "stateMutability": "view",
      "type": "function"
    }
  ],
  "bytecode": "0x608060405234801561001057600080fd5b50611565806100206000396000f3fe608060405234801561001057600080fd5b50600436106100ea5760003560e01c80635eba91581161008c578063d56bd14211610066578063d56bd142146101d9578063d78d610b146101ee578063e4fc6b6d14610203578063f2fde38b1461020b57600080fd5b80635eba9158146101ad578063715018a6146101c05780638da5cb5b146101c857600080fd5b806321df0da7116100c857806321df0da7146101425780632ccb1b3014610167578063322bf7bf1461017a5780633449b7061461019a57600080fd5b806301c6adc3146100ef5780630c11dedd1461011757806312065fe01461012c575b600080fd5b6101026100fd366004611039565b61021e565b60405190151581526020015b60405180910390f35b61012a61012536600461101c565b6102ad565b005b6101346103f2565b60405190815260200161010e565b6065546001600160a01b03165b6040516001600160a01b03909116815260200161010e565b610102610175366004611039565b610473565b61018d61018836600461116f565b6104b3565b60405161010e9190611269565b61012a6101a8366004611065565b610546565b61012a6101bb36600461101c565b610665565b61012a6106db565b6033546001600160a01b031661014f565b6101e1610711565b60405161010e91906111fc565b6101f66107a8565b60405161010e91906111a1565b61012a610815565b61012a61021936600461101c565b610894565b60655460405163a9059cbb60e01b81526001600160a01b03848116600483015260248201849052600092169063a9059cbb906044015b602060405180830381600087803b15801561026e57600080fd5b505af1158015610282573d6000803e3d6000fd5b505050506040513d601f19601f820116820180604052508101906102a6919061114d565b9392505050565b60675433905b80156103ed57600060676102c8600184611445565b815481106102d8576102d86114ee565b6000918252602090912060059091020180549091506001600160a01b03848116911614156103da576003810154156103105750505050565b42600382018190556040805160a08101825283546001600160a01b03168152600184015460208201526002840154918101919091526060810191909152600482015460ff1660808201526103639061092f565b50805460028201546001830154604051632832157960e21b8152600481019290925260248201526001600160a01b0386811660448301529091169063a0c855e490606401600060405180830381600087803b1580156103c157600080fd5b505af11580156103d5573d6000803e3d6000fd5b505050505b50806103e58161145c565b9150506102b3565b505050565b6065546040516370a0823160e01b81523060048201526000916001600160a01b0316906370a082319060240160206040518083038186803b15801561043657600080fd5b505afa15801561044a573d6000803e3d6000fd5b505050506040513d601f19601f8201168201806040525081019061046e9190611188565b905090565b6065546040516323b872dd60e01b81526001600160a01b0384811660048301523060248301526044820184905260009216906323b872dd90606401610254565b606060008267ffffffffffffffff8111156104d0576104d0611504565b6040519080825280602002602001820160405280156104f9578160200160208202803683370190505b50905060005b8381101561053f5761051081610a27565b828281518110610522576105226114ee565b60209081029190910101528061053781611473565b9150506104ff565b5092915050565b6033546001600160a01b031633146105795760405162461bcd60e51b8152600401610570906112fb565b60405180910390fd5b805160ff101561059f5760405163bf767af760e01b815260ff6004820152602401610570565b6105a881610a7b565b60ff166064146105cb5760405163a44e5b1b60e01b815260040160405180910390fd5b6105d760666000610fe0565b60005b81518160ff161015610661576066828260ff16815181106105fd576105fd6114ee565b6020908102919091018101518254600181018455600093845292829020815193018054919092015160ff16600160a01b026001600160a81b03199091166001600160a01b0390931692909217919091179055806106598161148e565b9150506105da565b5050565b60006106716001610acc565b90508015610689576000805461ff0019166101001790555b61069282610b54565b8015610661576000805461ff0019169055604051600181527f7f26b83ff96e1f2b6a682f133852f6798a09c465da95921460cefb38474024989060200160405180910390a15050565b6033546001600160a01b031633146107055760405162461bcd60e51b8152600401610570906112fb565b61070f6000610b8c565b565b60606067805480602002602001604051908101604052809291908181526020016000905b8282101561079f5760008481526020908190206040805160a0810182526005860290920180546001600160a01b0316835260018082015484860152600282015492840192909252600381015460608401526004015460ff1660808301529083529092019101610735565b50505050905090565b60606066805480602002602001604051908101604052809291908181526020016000905b8282101561079f57600084815260209081902060408051808201909152908401546001600160a01b0381168252600160a01b900460ff16818301528252600190920191016107cc565b600061081f610bde565b9050806108325761082f42610c26565b90505b600061083c610c45565b90508061084f5761084c42610c26565b90505b42821015610661576108808261087b6201518061086c8584611445565b6108769190611412565b610a27565b610c64565b61088d62015180836113d5565b915061084f565b6033546001600160a01b031633146108be5760405162461bcd60e51b8152600401610570906112fb565b6001600160a01b0381166109235760405162461bcd60e51b815260206004820152602660248201527f4f776e61626c653a206e6577206f776e657220697320746865207a65726f206160448201526564647265737360d01b6064820152608401610570565b61092c81610b8c565b50565b6065548151604051636eb1769f60e11b81523060048201526001600160a01b0391821660248201526000928392169063dd62ed3e9060440160206040518083038186803b15801561097f57600080fd5b505afa158015610993573d6000803e3d6000fd5b505050506040513d601f19601f820116820180604052508101906109b79190611188565b606554845160208601519293506001600160a01b039091169163095ea7b391906109e190856113d5565b6040516001600160e01b031960e085901b1681526001600160a01b0390921660048301526024820152604401602060405180830381600087803b15801561026e57600080fd5b600080610a326103f2565b90506000612710610a4685620120f4611426565b610a549063038444c0611445565b610a6090610120611426565b610a6a9190611412565b9050808210156102a6575092915050565b600080805b83518160ff16101561053f57838160ff1681518110610aa157610aa16114ee565b60200260200101516020015182610ab891906113ed565b915080610ac48161148e565b915050610a80565b60008054610100900460ff1615610b13578160ff166001148015610aef5750303b155b610b0b5760405162461bcd60e51b8152600401610570906112ad565b506000919050565b60005460ff808416911610610b3a5760405162461bcd60e51b8152600401610570906112ad565b506000805460ff191660ff92909216919091179055600190565b600054610100900460ff16610b7b5760405162461bcd60e51b815260040161057090611330565b610b83610f0d565b61092c81610f3c565b603380546001600160a01b038381166001600160a01b0319831681179093556040519116919082907f8be0079c531659141344cd1fd0a4f28419497f9722a3daafe3b4186f6b6457e090600090a35050565b60675460009015610c205760678054610bf990600190611445565b81548110610c0957610c096114ee565b906000526020600020906005020160020154905090565b50600090565b6000610c3562015180836114ae565b610c3f9083611445565b92915050565b60675460009015610c20576067600081548110610c0957610c096114ee565b60005b60665460ff821610156103ed57600060668260ff1681548110610c8c57610c8c6114ee565b6000918252602090912001546040516331c84fc360e11b8152600481018690526001600160a01b03909116906363909f869060240160206040518083038186803b158015610cd957600080fd5b505afa158015610ced573d6000803e3d6000fd5b505050506040513d601f19601f82011682018060405250810190610d11919061114d565b610d1c576000610d5e565b606460668360ff1681548110610d3457610d346114ee565b600091825260209091200154610d5490600160a01b900460ff1685611426565b610d5e9190611412565b905060006040518060a0016040528060668560ff1681548110610d8357610d836114ee565b600091825260209182902001546001600160a01b0316825281018490526040810187905260600183610db55742610db8565b60005b815260200160668560ff1681548110610dd357610dd36114ee565b600091825260208083209190910154600160a01b900460ff90811690935260678054600181018255925283517f9787eeb91fe3101235e4a76063c7023ecb40f923f97916639c598592fa30d6ae600590930292830180546001600160a01b0319166001600160a01b039092169190911790558301517f9787eeb91fe3101235e4a76063c7023ecb40f923f97916639c598592fa30d6af82015560408301517f9787eeb91fe3101235e4a76063c7023ecb40f923f97916639c598592fa30d6b082015560608301517f9787eeb91fe3101235e4a76063c7023ecb40f923f97916639c598592fa30d6b18201556080909201517f9787eeb91fe3101235e4a76063c7023ecb40f923f97916639c598592fa30d6b2909201805460ff19169290911691909117905550819050610f058161148e565b915050610c67565b600054610100900460ff16610f345760405162461bcd60e51b815260040161057090611330565b61070f610f89565b600054610100900460ff16610f635760405162461bcd60e51b815260040161057090611330565b610f6b610fb9565b606580546001600160a01b0319166001600160a01b03831617905550565b600054610100900460ff16610fb05760405162461bcd60e51b815260040161057090611330565b61070f33610b8c565b600054610100900460ff1661070f5760405162461bcd60e51b815260040161057090611330565b508054600082559060005260206000209081019061092c91905b808211156110185780546001600160a81b0319168155600101610ffa565b5090565b60006020828403121561102e57600080fd5b81356102a68161151a565b6000806040838503121561104c57600080fd5b82356110578161151a565b946020939093013593505050565b6000602080838503121561107857600080fd5b823567ffffffffffffffff8082111561109057600080fd5b818501915085601f8301126110a457600080fd5b8135818111156110b6576110b6611504565b6110c4848260051b016113a4565b8181528481019250838501600683901b850186018910156110e457600080fd5b600094505b8285101561114157604080828b03121561110257600080fd5b61110a61137b565b82356111158161151a565b81528288013560ff8116811461112a57600080fd5b8189015285526001959095019493860193016110e9565b50979650505050505050565b60006020828403121561115f57600080fd5b815180151581146102a657600080fd5b60006020828403121561118157600080fd5b5035919050565b60006020828403121561119a57600080fd5b5051919050565b602080825282518282018190526000919060409081850190868401855b828110156111ef57815180516001600160a01b0316855286015160ff168685015292840192908501906001016111be565b5091979650505050505050565b602080825282518282018190526000919060409081850190868401855b828110156111ef57815180516001600160a01b03168552868101518786015285810151868601526060808201519086015260809081015160ff169085015260a09093019290850190600101611219565b6020808252825182820181905260009190848201906040850190845b818110156112a157835183529284019291840191600101611285565b50909695505050505050565b6020808252602e908201527f496e697469616c697a61626c653a20636f6e747261637420697320616c72656160408201526d191e481a5b9a5d1a585b1a5e995960921b606082015260800190565b6020808252818101527f4f776e61626c653a2063616c6c6572206973206e6f7420746865206f776e6572604082015260600190565b6020808252602b908201527f496e697469616c697a61626c653a20636f6e7472616374206973206e6f74206960408201526a6e697469616c697a696e6760a81b606082015260800190565b6040805190810167ffffffffffffffff8111828210171561139e5761139e611504565b60405290565b604051601f8201601f1916810167ffffffffffffffff811182821017156113cd576113cd611504565b604052919050565b600082198211156113e8576113e86114c2565b500190565b600060ff821660ff84168060ff0382111561140a5761140a6114c2565b019392505050565b600082611421576114216114d8565b500490565b6000816000190483118215151615611440576114406114c2565b500290565b600082821015611457576114576114c2565b500390565b60008161146b5761146b6114c2565b506000190190565b6000600019821415611487576114876114c2565b5060010190565b600060ff821660ff8114156114a5576114a56114c2565b60010192915050565b6000826114bd576114bd6114d8565b500690565b634e487b7160e01b600052601160045260246000fd5b634e487b7160e01b600052601260045260246000fd5b634e487b7160e01b600052603260045260246000fd5b634e487b7160e01b600052604160045260246000fd5b6001600160a01b038116811461092c57600080fdfea264697066735822122074af8c4f2167cf85f0870610d2f8ed8035194ca6b49be8fe5776f1f64d572ab964736f6c63430008070033",
  "immutableReferences": {},
  "source": "// SPDX-License-Identifier: MIT\npragma solidity 0.8.7;\n\nimport \"@openzeppelin/contracts-upgradeable/proxy/utils/Initializable.sol\";\n\nimport \"./BankAccountSupplier.sol\";\n\ncontract Mint is Initializable, BankAccountSupplier {\n    function distribute() external override {\n        uint256 date = _getLastPaymentDate();\n\n        if (date == 0) {\n            date = Date.toDate(block.timestamp);\n        }\n\n        uint256 firstDate = _getFirstPaymentDate();\n\n        if (firstDate == 0) {\n            firstDate = Date.toDate(block.timestamp);\n        }\n\n        while (date < block.timestamp) {\n            _createPayments(date, _getAmountOnDay((date - firstDate) / 1 days));\n\n            date += 1 days;\n        }\n    }\n\n    function __Mint_init(IERC20 token) public initializer {\n        __BankAccountSupplier_init(token);\n    }\n\n    function getDistributionAmounts(uint256 numberOfDays)\n        external\n        view\n        returns (uint256[] memory)\n    {\n        uint256[] memory amounts = new uint256[](numberOfDays);\n\n        for (uint256 i = 0; i < numberOfDays; i++) {\n            amounts[i] = _getAmountOnDay(i);\n        }\n\n        return amounts;\n    }\n\n    function _getAmountOnDay(uint256 day) private view returns (uint256) {\n        uint256 balance = getBalance();\n\n        uint256 amount = (288 * (59 * 10**6 - day * 73972)) / 10**4;\n\n        if (balance < amount) {\n            return balance;\n        }\n\n        return amount;\n    }\n}\n",
  "sourcePath": "/Users/ievgencherkaskyi/Projects/tivan/hexagons/contracts/Mint.sol",
  "compiler": {
    "name": "solc",
    "version": "0.8.7+commit.e28d00a7.Emscripten.clang"
  },
  "schemaVersion": "3.3.3",
  "updatedAt": "2022-07-11T22:06:52.766Z",
  "devdoc": {
    "kind": "dev",
    "methods": {
      "owner()": {
        "details": "Returns the address of the current owner."
      },
      "renounceOwnership()": {
        "details": "Leaves the contract without owner. It will not be possible to call `onlyOwner` functions anymore. Can only be called by the current owner. NOTE: Renouncing ownership will leave the contract without an owner, thereby removing any functionality that is only available to the owner."
      },
      "transferOwnership(address)": {
        "details": "Transfers ownership of the contract to a new account (`newOwner`). Can only be called by the current owner."
      }
    },
    "version": 1
  },
  "userdoc": {
    "kind": "user",
    "methods": {},
    "version": 1
  }
}