{
  "contractName": "Mint",
  "abi": [
    {
      "inputs": [
        {
          "internalType": "contract IERC20",
          "name": "token",
          "type": "address"
        }
      ],
      "stateMutability": "nonpayable",
      "type": "constructor"
    },
    {
      "inputs": [
        {
          "internalType": "uint8",
          "name": "maxNumber",
          "type": "uint8"
        }
      ],
      "name": "BankAccountSupplierTooMuchAgreements",
      "type": "error"
    },
    {
      "inputs": [],
      "name": "BankAccountSuppliertTotalSharesIsNotValid",
      "type": "error"
    },
    {
      "anonymous": false,
      "inputs": [
        {
          "indexed": false,
          "internalType": "uint8",
          "name": "version",
          "type": "uint8"
        }
      ],
      "name": "Initialized",
      "type": "event"
    },
    {
      "inputs": [],
      "name": "getBalance",
      "outputs": [
        {
          "internalType": "uint256",
          "name": "",
          "type": "uint256"
        }
      ],
      "stateMutability": "view",
      "type": "function",
      "constant": true
    },
    {
      "inputs": [],
      "name": "getPayments",
      "outputs": [
        {
          "components": [
            {
              "internalType": "contract Refillable",
              "name": "agreement",
              "type": "address"
            },
            {
              "internalType": "uint256",
              "name": "amount",
              "type": "uint256"
            },
            {
              "internalType": "uint256",
              "name": "date",
              "type": "uint256"
            },
            {
              "internalType": "uint256",
              "name": "payed",
              "type": "uint256"
            },
            {
              "internalType": "uint8",
              "name": "share",
              "type": "uint8"
            }
          ],
          "internalType": "struct Payment[]",
          "name": "",
          "type": "tuple[]"
        }
      ],
      "stateMutability": "view",
      "type": "function",
      "constant": true
    },
    {
      "inputs": [],
      "name": "getRecipients",
      "outputs": [
        {
          "components": [
            {
              "internalType": "contract Refillable",
              "name": "agreement",
              "type": "address"
            },
            {
              "internalType": "uint8",
              "name": "share",
              "type": "uint8"
            }
          ],
          "internalType": "struct BankAccountRecipient[]",
          "name": "",
          "type": "tuple[]"
        }
      ],
      "stateMutability": "view",
      "type": "function",
      "constant": true
    },
    {
      "inputs": [],
      "name": "getToken",
      "outputs": [
        {
          "internalType": "contract IERC20",
          "name": "",
          "type": "address"
        }
      ],
      "stateMutability": "view",
      "type": "function",
      "constant": true
    },
    {
      "inputs": [
        {
          "components": [
            {
              "internalType": "contract Refillable",
              "name": "agreement",
              "type": "address"
            },
            {
              "internalType": "uint8",
              "name": "share",
              "type": "uint8"
            }
          ],
          "internalType": "struct BankAccountRecipient[]",
          "name": "recipients",
          "type": "tuple[]"
        }
      ],
      "name": "initialize",
      "outputs": [],
      "stateMutability": "nonpayable",
      "type": "function"
    },
    {
      "inputs": [
        {
          "internalType": "address",
          "name": "sender",
          "type": "address"
        }
      ],
      "name": "pay",
      "outputs": [],
      "stateMutability": "nonpayable",
      "type": "function"
    },
    {
      "inputs": [
        {
          "internalType": "address",
          "name": "to",
          "type": "address"
        },
        {
          "internalType": "uint256",
          "name": "amount",
          "type": "uint256"
        }
      ],
      "name": "transferFrom",
      "outputs": [
        {
          "internalType": "bool",
          "name": "",
          "type": "bool"
        }
      ],
      "stateMutability": "nonpayable",
      "type": "function"
    },
    {
      "inputs": [
        {
          "internalType": "uint256",
          "name": "amount",
          "type": "uint256"
        }
      ],
      "name": "transferTo",
      "outputs": [
        {
          "internalType": "bool",
          "name": "",
          "type": "bool"
        }
      ],
      "stateMutability": "nonpayable",
      "type": "function"
    },
    {
      "inputs": [],
      "name": "distribute",
      "outputs": [],
      "stateMutability": "nonpayable",
      "type": "function"
    },
    {
      "inputs": [
        {
          "internalType": "uint256",
          "name": "numberOfDays",
          "type": "uint256"
        }
      ],
      "name": "getDistributionAmounts",
      "outputs": [
        {
          "internalType": "uint256[]",
          "name": "",
          "type": "uint256[]"
        }
      ],
      "stateMutability": "view",
      "type": "function",
      "constant": true
    }
  ],
  "bytecode": "0x608060405234801561001057600080fd5b5060405161135a38038061135a83398101604081905261002f91610054565b600080546001600160a01b0319166001600160a01b0392909216919091179055610084565b60006020828403121561006657600080fd5b81516001600160a01b038116811461007d57600080fd5b9392505050565b6112c7806100936000396000f3fe608060405234801561001057600080fd5b506004361061009e5760003560e01c8063322bf7bf11610066578063322bf7bf14610124578063ba0f49b714610144578063d56bd14214610157578063d78d610b1461016c578063e4fc6b6d1461018157600080fd5b806301c6adc3146100a35780630c11dedd146100cb57806312065fe0146100e057806321df0da7146100f65780632c4b24ae14610111575b600080fd5b6100b66100b1366004610e37565b610189565b60405190151581526020015b60405180910390f35b6100de6100d9366004610e1a565b610218565b005b6100e861035d565b6040519081526020016100c2565b6000546040516001600160a01b0390911681526020016100c2565b6100de61011f366004610e63565b6103de565b610137610132366004610f6d565b610540565b6040516100c29190611067565b6100b6610152366004610f6d565b6105d3565b61015f61062d565b6040516100c29190610ffa565b6101746106c4565b6040516100c29190610f9f565b6100de610731565b6000805460405163a9059cbb60e01b81526001600160a01b038581166004830152602482018590529091169063a9059cbb906044015b602060405180830381600087803b1580156101d957600080fd5b505af11580156101ed573d6000803e3d6000fd5b505050506040513d601f19601f820116820180604052508101906102119190610f4b565b9392505050565b60025433905b801561035857600060026102336001846111d1565b8154811061024357610243611250565b6000918252602090912060059091020180549091506001600160a01b03848116911614156103455760038101541561027b5750505050565b42600382018190556040805160a08101825283546001600160a01b03168152600184015460208201526002840154918101919091526060810191909152600482015460ff1660808201526102ce906108a2565b50805460028201546001830154604051632832157960e21b8152600481019290925260248201526001600160a01b0386811660448301529091169063a0c855e490606401600060405180830381600087803b15801561032c57600080fd5b505af1158015610340573d6000803e3d6000fd5b505050505b5080610350816111e8565b91505061021e565b505050565b600080546040516370a0823160e01b81523060048201526001600160a01b03909116906370a082319060240160206040518083038186803b1580156103a157600080fd5b505afa1580156103b5573d6000803e3d6000fd5b505050506040513d601f19601f820116820180604052508101906103d99190610f86565b905090565b60006103ea6001610986565b90508015610406576000805460ff60a81b1916600160a81b1790555b815160ff101561043157604051636982464560e01b815260ff60048201526024015b60405180910390fd5b61043a82610a21565b60ff1660641461045d5760405163a44e5b1b60e01b815260040160405180910390fd5b61046960016000610dd6565b60005b82518160ff1610156104f3576001838260ff168151811061048f5761048f611250565b6020908102919091018101518254600181018455600093845292829020815193018054919092015160ff16600160a01b026001600160a81b03199091166001600160a01b0390931692909217919091179055806104eb8161121a565b91505061046c565b50801561053c576000805460ff60a81b19169055604051600181527f7f26b83ff96e1f2b6a682f133852f6798a09c465da95921460cefb38474024989060200160405180910390a15b5050565b606060008267ffffffffffffffff81111561055d5761055d611266565b604051908082528060200260200182016040528015610586578160200160208202803683370190505b50905060005b838110156105cc5761059d81610a72565b8282815181106105af576105af611250565b6020908102919091010152806105c4816111ff565b91505061058c565b5092915050565b600080336000546040516323b872dd60e01b81526001600160a01b038084166004830152306024830152604482018790529293509116906323b872dd90606401602060405180830381600087803b1580156101d957600080fd5b60606002805480602002602001604051908101604052809291908181526020016000905b828210156106bb5760008481526020908190206040805160a0810182526005860290920180546001600160a01b0316835260018082015484860152600282015492840192909252600381015460608401526004015460ff1660808301529083529092019101610651565b50505050905090565b60606001805480602002602001604051908101604052809291908181526020016000905b828210156106bb57600084815260209081902060408051808201909152908401546001600160a01b0381168252600160a01b900460ff16818301528252600190920191016106e8565b600061073b610ac6565b9050806107c75760405163a11e22d960e01b815242600482015273__Date__________________________________9063a11e22d99060240160206040518083038186803b15801561078c57600080fd5b505af41580156107a0573d6000803e3d6000fd5b505050506040513d601f19601f820116820180604052508101906107c49190610f86565b90505b60006107d1610b0e565b90508061085d5760405163a11e22d960e01b815242600482015273__Date__________________________________9063a11e22d99060240160206040518083038186803b15801561082257600080fd5b505af4158015610836573d6000803e3d6000fd5b505050506040513d601f19601f8201168201806040525081019061085a9190610f86565b90505b4282101561053c5761088e826108896201518061087a85846111d1565b6108849190611190565b610a72565b610b2d565b61089b6201518083611153565b915061085d565b600080548251604051636eb1769f60e11b81523060048201526001600160a01b0391821660248201528392919091169063dd62ed3e9060440160206040518083038186803b1580156108f357600080fd5b505afa158015610907573d6000803e3d6000fd5b505050506040513d601f19601f8201168201806040525081019061092b9190610f86565b600054845160208601519293506001600160a01b039091169163095ea7b391906109559085611153565b6040516001600160e01b031960e085901b1681526001600160a01b03909216600483015260248201526044016101bf565b60008054600160a81b900460ff16156109cf578160ff1660011480156109ab5750303b155b6109c75760405162461bcd60e51b8152600401610428906110ab565b506000919050565b60005460ff808416600160a01b90920416106109fd5760405162461bcd60e51b8152600401610428906110ab565b506000805460ff909216600160a01b0260ff60a01b19909216919091179055600190565b600080805b83518160ff1610156105cc57838160ff1681518110610a4757610a47611250565b60200260200101516020015182610a5e919061116b565b915080610a6a8161121a565b915050610a26565b600080610a7d61035d565b90506000612710610a9185620120f46111b2565b610a9f9063038444c06111d1565b610aab906101206111b2565b610ab59190611190565b905080821015610211575092915050565b60025460009015610b085760028054610ae1906001906111d1565b81548110610af157610af1611250565b906000526020600020906005020160020154905090565b50600090565b60025460009015610b08576002600081548110610af157610af1611250565b60005b60015460ff8216101561035857600060018260ff1681548110610b5557610b55611250565b6000918252602090912001546040516331c84fc360e11b8152600481018690526001600160a01b03909116906363909f869060240160206040518083038186803b158015610ba257600080fd5b505afa158015610bb6573d6000803e3d6000fd5b505050506040513d601f19601f82011682018060405250810190610bda9190610f4b565b610be5576000610c27565b606460018360ff1681548110610bfd57610bfd611250565b600091825260209091200154610c1d90600160a01b900460ff16856111b2565b610c279190611190565b905060006040518060a0016040528060018560ff1681548110610c4c57610c4c611250565b600091825260209182902001546001600160a01b0316825281018490526040810187905260600183610c7e5742610c81565b60005b815260200160018560ff1681548110610c9c57610c9c611250565b600091825260208083209190910154600160a01b900460ff90811690935260028054600181018255925283517f405787fa12a823e0f2b7631cc41b3ba8828b3321ca811111fa75cd3aa3bb5ace600590930292830180546001600160a01b0319166001600160a01b039092169190911790558301517f405787fa12a823e0f2b7631cc41b3ba8828b3321ca811111fa75cd3aa3bb5acf82015560408301517f405787fa12a823e0f2b7631cc41b3ba8828b3321ca811111fa75cd3aa3bb5ad082015560608301517f405787fa12a823e0f2b7631cc41b3ba8828b3321ca811111fa75cd3aa3bb5ad18201556080909201517f405787fa12a823e0f2b7631cc41b3ba8828b3321ca811111fa75cd3aa3bb5ad2909201805460ff19169290911691909117905550819050610dce8161121a565b915050610b30565b5080546000825590600052602060002090810190610df49190610df7565b50565b5b80821115610e165780546001600160a81b0319168155600101610df8565b5090565b600060208284031215610e2c57600080fd5b81356102118161127c565b60008060408385031215610e4a57600080fd5b8235610e558161127c565b946020939093013593505050565b60006020808385031215610e7657600080fd5b823567ffffffffffffffff80821115610e8e57600080fd5b818501915085601f830112610ea257600080fd5b813581811115610eb457610eb4611266565b610ec2848260051b01611122565b8181528481019250838501600683901b85018601891015610ee257600080fd5b600094505b82851015610f3f57604080828b031215610f0057600080fd5b610f086110f9565b8235610f138161127c565b81528288013560ff81168114610f2857600080fd5b818901528552600195909501949386019301610ee7565b50979650505050505050565b600060208284031215610f5d57600080fd5b8151801515811461021157600080fd5b600060208284031215610f7f57600080fd5b5035919050565b600060208284031215610f9857600080fd5b5051919050565b602080825282518282018190526000919060409081850190868401855b82811015610fed57815180516001600160a01b0316855286015160ff16868501529284019290850190600101610fbc565b5091979650505050505050565b602080825282518282018190526000919060409081850190868401855b82811015610fed57815180516001600160a01b03168552868101518786015285810151868601526060808201519086015260809081015160ff169085015260a09093019290850190600101611017565b6020808252825182820181905260009190848201906040850190845b8181101561109f57835183529284019291840191600101611083565b50909695505050505050565b6020808252602e908201527f496e697469616c697a61626c653a20636f6e747261637420697320616c72656160408201526d191e481a5b9a5d1a585b1a5e995960921b606082015260800190565b6040805190810167ffffffffffffffff8111828210171561111c5761111c611266565b60405290565b604051601f8201601f1916810167ffffffffffffffff8111828210171561114b5761114b611266565b604052919050565b600082198211156111665761116661123a565b500190565b600060ff821660ff84168060ff038211156111885761118861123a565b019392505050565b6000826111ad57634e487b7160e01b600052601260045260246000fd5b500490565b60008160001904831182151516156111cc576111cc61123a565b500290565b6000828210156111e3576111e361123a565b500390565b6000816111f7576111f761123a565b506000190190565b60006000198214156112135761121361123a565b5060010190565b600060ff821660ff8114156112315761123161123a565b60010192915050565b634e487b7160e01b600052601160045260246000fd5b634e487b7160e01b600052603260045260246000fd5b634e487b7160e01b600052604160045260246000fd5b6001600160a01b0381168114610df457600080fdfea26469706673582212202d14d3cefb2b068753c18745061e7ff999e414cbabe3702b2b3d97d6061b3f9264736f6c63430008070033",
  "immutableReferences": {},
  "source": "// SPDX-License-Identifier: MIT\npragma solidity 0.8.7;\n\nimport \"./BankAccountSupplier.sol\";\n\ncontract Mint is BankAccountSupplier {\n    constructor(IERC20 token) BankAccountSupplier(token) {}\n\n    function distribute() external override {\n        uint256 date = _getLastPaymentDate();\n\n        if (date == 0) {\n            date = Date.toDate(block.timestamp);\n        }\n\n        uint256 firstDate = _getFirstPaymentDate();\n\n        if (firstDate == 0) {\n            firstDate = Date.toDate(block.timestamp);\n        }\n\n        while (date < block.timestamp) {\n            _createPayments(date, _getAmountOnDay((date - firstDate) / 1 days));\n\n            date += 1 days;\n        }\n    }\n\n    function getDistributionAmounts(uint256 numberOfDays)\n        external\n        view\n        returns (uint256[] memory)\n    {\n        uint256[] memory amounts = new uint256[](numberOfDays);\n\n        for (uint256 i = 0; i < numberOfDays; i++) {\n            amounts[i] = _getAmountOnDay(i);\n        }\n\n        return amounts;\n    }\n\n    function _getAmountOnDay(uint256 day) private view returns (uint256) {\n        uint256 balance = getBalance();\n\n        uint256 amount = (288 * (59 * 10**6 - day * 73972)) / 10**4;\n\n        if (balance < amount) {\n            return balance;\n        }\n\n        return amount;\n    }\n}\n",
  "sourcePath": "/Users/ievgencherkaskyi/Projects/tivan/launchpool/contracts/Mint.sol",
  "compiler": {
    "name": "solc",
    "version": "0.8.7+commit.e28d00a7.Emscripten.clang"
  },
  "schemaVersion": "3.4.7",
  "updatedAt": "2022-06-13T07:52:39.943Z",
  "networkType": "ethereum",
  "devdoc": {
    "kind": "dev",
    "methods": {},
    "version": 1
  },
  "userdoc": {
    "kind": "user",
    "methods": {},
    "version": 1
  }
}