{
  "contractName": "PollManager",
  "abi": [
    {
      "inputs": [
        {
          "internalType": "uint256",
          "name": "index",
          "type": "uint256"
        },
        {
          "internalType": "uint256",
          "name": "endDateTime",
          "type": "uint256"
        }
      ],
      "name": "PollAlreadyFinished",
      "type": "error"
    },
    {
      "inputs": [
        {
          "internalType": "uint256",
          "name": "index",
          "type": "uint256"
        }
      ],
      "name": "PollAlreadyVoted",
      "type": "error"
    },
    {
      "inputs": [
        {
          "internalType": "uint256",
          "name": "index",
          "type": "uint256"
        }
      ],
      "name": "PollDoesNotExist",
      "type": "error"
    },
    {
      "inputs": [
        {
          "internalType": "uint256",
          "name": "index",
          "type": "uint256"
        },
        {
          "internalType": "uint256",
          "name": "endDateTime",
          "type": "uint256"
        }
      ],
      "name": "PollHasNotFinished",
      "type": "error"
    },
    {
      "inputs": [
        {
          "internalType": "uint256",
          "name": "index",
          "type": "uint256"
        },
        {
          "internalType": "uint256",
          "name": "startDateTime",
          "type": "uint256"
        }
      ],
      "name": "PollHasNotStarted",
      "type": "error"
    },
    {
      "inputs": [],
      "name": "PollNotAuthorize",
      "type": "error"
    },
    {
      "anonymous": false,
      "inputs": [
        {
          "indexed": false,
          "internalType": "uint8",
          "name": "version",
          "type": "uint8"
        }
      ],
      "name": "Initialized",
      "type": "event"
    },
    {
      "anonymous": false,
      "inputs": [
        {
          "indexed": true,
          "internalType": "address",
          "name": "previousOwner",
          "type": "address"
        },
        {
          "indexed": true,
          "internalType": "address",
          "name": "newOwner",
          "type": "address"
        }
      ],
      "name": "OwnershipTransferred",
      "type": "event"
    },
    {
      "inputs": [],
      "name": "owner",
      "outputs": [
        {
          "internalType": "address",
          "name": "",
          "type": "address"
        }
      ],
      "stateMutability": "view",
      "type": "function",
      "constant": true
    },
    {
      "inputs": [],
      "name": "renounceOwnership",
      "outputs": [],
      "stateMutability": "nonpayable",
      "type": "function"
    },
    {
      "inputs": [
        {
          "internalType": "address",
          "name": "newOwner",
          "type": "address"
        }
      ],
      "name": "transferOwnership",
      "outputs": [],
      "stateMutability": "nonpayable",
      "type": "function"
    },
    {
      "inputs": [
        {
          "internalType": "address",
          "name": "proxy",
          "type": "address"
        },
        {
          "internalType": "contract IUpgradeable",
          "name": "implementation",
          "type": "address"
        },
        {
          "internalType": "uint256",
          "name": "startDateTime",
          "type": "uint256"
        },
        {
          "internalType": "uint256",
          "name": "endDateTime",
          "type": "uint256"
        }
      ],
      "name": "create",
      "outputs": [],
      "stateMutability": "nonpayable",
      "type": "function"
    },
    {
      "inputs": [
        {
          "internalType": "contract TVTBToken",
          "name": "token",
          "type": "address"
        }
      ],
      "name": "initialize",
      "outputs": [],
      "stateMutability": "nonpayable",
      "type": "function"
    },
    {
      "inputs": [],
      "name": "getResult",
      "outputs": [
        {
          "components": [
            {
              "internalType": "address",
              "name": "proxy",
              "type": "address"
            },
            {
              "internalType": "contract IUpgradeable",
              "name": "implementation",
              "type": "address"
            },
            {
              "internalType": "uint256",
              "name": "startDateTime",
              "type": "uint256"
            },
            {
              "internalType": "uint256",
              "name": "endDateTime",
              "type": "uint256"
            },
            {
              "internalType": "uint256",
              "name": "agreeNumber",
              "type": "uint256"
            },
            {
              "internalType": "uint256",
              "name": "disagreeNumber",
              "type": "uint256"
            }
          ],
          "internalType": "struct PollManager.PollResult[]",
          "name": "",
          "type": "tuple[]"
        }
      ],
      "stateMutability": "view",
      "type": "function",
      "constant": true
    },
    {
      "inputs": [],
      "name": "getToken",
      "outputs": [
        {
          "internalType": "contract TVTBToken",
          "name": "token",
          "type": "address"
        }
      ],
      "stateMutability": "view",
      "type": "function",
      "constant": true
    },
    {
      "inputs": [
        {
          "internalType": "uint256",
          "name": "index",
          "type": "uint256"
        },
        {
          "internalType": "bool",
          "name": "answer",
          "type": "bool"
        }
      ],
      "name": "vote",
      "outputs": [],
      "stateMutability": "nonpayable",
      "type": "function"
    }
  ],
  "bytecode": "0x608060405234801561001057600080fd5b50610f3e806100206000396000f3fe608060405234801561001057600080fd5b50600436106100885760003560e01c8063c9d27afe1161005b578063c9d27afe146100e5578063d5c44c69146100f8578063de2927891461010b578063f2fde38b1461012057600080fd5b806321df0da71461008d578063715018a6146100b75780638da5cb5b146100c1578063c4d66de8146100d2575b600080fd5b6066546001600160a01b03165b6040516001600160a01b0390911681526020015b60405180910390f35b6100bf610133565b005b6033546001600160a01b031661009a565b6100bf6100e0366004610caa565b61019e565b6100bf6100f3366004610d2d565b610237565b6100bf610106366004610cce565b610470565b6101136105dc565b6040516100ae9190610d62565b6100bf61012e366004610caa565b61083c565b6033546001600160a01b031633146101925760405162461bcd60e51b815260206004820181905260248201527f4f776e61626c653a2063616c6c6572206973206e6f7420746865206f776e657260448201526064015b60405180910390fd5b61019c6000610907565b565b60006101aa6001610959565b905080156101c2576000805461ff0019166101001790555b6101ca6109e1565b6101d2610a08565b606680546001600160a01b0319166001600160a01b0384161790558015610233576000805461ff0019169055604051600181527f7f26b83ff96e1f2b6a682f133852f6798a09c465da95921460cefb38474024989060200160405180910390a15b5050565b3361024181610a37565b61025e57604051634c7481a160e01b815260040160405180910390fd5b600061026984610abf565b905042816002015411156102a0576002810154604051634f9380a160e01b8152610189918691600401918252602082015260400190565b42816003015410156102d5576003810154604051630935dc2f60e31b8152610189918691600401918252602082015260400190565b6040805160c08101825282546001600160a01b039081168252600184015416602080830191909152600284015482840152600384015460608301526004840180548451818402810184019095528085526103dd948693608086019391929083018282801561036c57602002820191906000526020600020905b81546001600160a01b0316815260019091019060200180831161034e575b50505050508152602001600582018054806020026020016040519081016040528092919081815260200182805480156103ce57602002820191906000526020600020905b81546001600160a01b031681526001909101906020018083116103b0575b50505050508152505083610b12565b156103fe5760405163168237e160e11b815260048101859052602401610189565b821561043957600481018054600181018255600091825260209091200180546001600160a01b0319166001600160a01b03841617905561046a565b600581018054600181018255600091825260209091200180546001600160a01b0319166001600160a01b0384161790555b50505050565b6040805160c0810182526001600160a01b038087168252858116602080840191825293830186815260608481018781526080860182815260a0870183905260658054600181018255600091909152875160069091027f8ff97419363ffd7000167f130ef7168fbea05faf9251824ca5043f113cc6a7c7810180549289166001600160a01b031993841617815596517f8ff97419363ffd7000167f130ef7168fbea05faf9251824ca5043f113cc6a7c8820180549190991692169190911790965592517f8ff97419363ffd7000167f130ef7168fbea05faf9251824ca5043f113cc6a7c9860155517f8ff97419363ffd7000167f130ef7168fbea05faf9251824ca5043f113cc6a7ca85015590518051919585946105b5937f8ff97419363ffd7000167f130ef7168fbea05faf9251824ca5043f113cc6a7cb9091019290910190610c30565b5060a082015180516105d1916005840191602090910190610c30565b505050505050505050565b60655460609060009067ffffffffffffffff8111156105fd576105fd610edd565b60405190808252806020026020018201604052801561067957816020015b6106666040518060c0016040528060006001600160a01b0316815260200160006001600160a01b03168152602001600081526020016000815260200160008152602001600081525090565b81526020019060019003908161061b5790505b50905060005b6065548110156108365760006065828154811061069e5761069e610ec7565b60009182526020918290206040805160c081018252600690930290910180546001600160a01b03908116845260018201541683850152600281015483830152600381015460608401526004810180548351818702810187019094528084529394919360808601939283018282801561073f57602002820191906000526020600020905b81546001600160a01b03168152600190910190602001808311610721575b50505050508152602001600582018054806020026020016040519081016040528092919081815260200182805480156107a157602002820191906000526020600020905b81546001600160a01b03168152600190910190602001808311610783575b50505050508152505090506040518060c0016040528082600001516001600160a01b0316815260200182602001516001600160a01b03168152602001826040015181526020018260600151815260200182608001515181526020018260a001515181525083838151811061081757610817610ec7565b602002602001018190525050808061082e90610e96565b91505061067f565b50919050565b6033546001600160a01b031633146108965760405162461bcd60e51b815260206004820181905260248201527f4f776e61626c653a2063616c6c6572206973206e6f7420746865206f776e65726044820152606401610189565b6001600160a01b0381166108fb5760405162461bcd60e51b815260206004820152602660248201527f4f776e61626c653a206e6577206f776e657220697320746865207a65726f206160448201526564647265737360d01b6064820152608401610189565b61090481610907565b50565b603380546001600160a01b038381166001600160a01b0319831681179093556040519116919082907f8be0079c531659141344cd1fd0a4f28419497f9722a3daafe3b4186f6b6457e090600090a35050565b60008054610100900460ff16156109a0578160ff16600114801561097c5750303b155b6109985760405162461bcd60e51b815260040161018990610de6565b506000919050565b60005460ff8084169116106109c75760405162461bcd60e51b815260040161018990610de6565b506000805460ff191660ff92909216919091179055600190565b600054610100900460ff1661019c5760405162461bcd60e51b815260040161018990610e34565b600054610100900460ff16610a2f5760405162461bcd60e51b815260040161018990610e34565b61019c610be6565b6066546040516370a0823160e01b81526001600160a01b03838116600483015260009283929116906370a082319060240160206040518083038186803b158015610a8057600080fd5b505afa158015610a94573d6000803e3d6000fd5b505050506040513d601f19601f82011682018060405250810190610ab89190610d14565b1192915050565b6000610aca82610c16565b610aea5760405163a86ecdd560e01b815260048101839052602401610189565b60658281548110610afd57610afd610ec7565b90600052602060002090600602019050919050565b6000805b836080015151811015610b7657826001600160a01b031684608001518281518110610b4357610b43610ec7565b60200260200101516001600160a01b03161415610b64576001915050610be0565b80610b6e81610e96565b915050610b16565b5060005b8360a0015151811015610bda57826001600160a01b03168460a001518281518110610ba757610ba7610ec7565b60200260200101516001600160a01b03161415610bc8576001915050610be0565b80610bd281610e96565b915050610b7a565b50600090505b92915050565b600054610100900460ff16610c0d5760405162461bcd60e51b815260040161018990610e34565b61019c33610907565b6000606554610c2790600190610e7f565b82111592915050565b828054828255906000526020600020908101928215610c85579160200282015b82811115610c8557825182546001600160a01b0319166001600160a01b03909116178255602090920191600190910190610c50565b50610c91929150610c95565b5090565b5b80821115610c915760008155600101610c96565b600060208284031215610cbc57600080fd5b8135610cc781610ef3565b9392505050565b60008060008060808587031215610ce457600080fd5b8435610cef81610ef3565b93506020850135610cff81610ef3565b93969395505050506040820135916060013590565b600060208284031215610d2657600080fd5b5051919050565b60008060408385031215610d4057600080fd5b8235915060208301358015158114610d5757600080fd5b809150509250929050565b602080825282518282018190526000919060409081850190868401855b82811015610dd957815180516001600160a01b0390811686528782015116878601528581015186860152606080820151908601526080808201519086015260a0908101519085015260c09093019290850190600101610d7f565b5091979650505050505050565b6020808252602e908201527f496e697469616c697a61626c653a20636f6e747261637420697320616c72656160408201526d191e481a5b9a5d1a585b1a5e995960921b606082015260800190565b6020808252602b908201527f496e697469616c697a61626c653a20636f6e7472616374206973206e6f74206960408201526a6e697469616c697a696e6760a81b606082015260800190565b600082821015610e9157610e91610eb1565b500390565b6000600019821415610eaa57610eaa610eb1565b5060010190565b634e487b7160e01b600052601160045260246000fd5b634e487b7160e01b600052603260045260246000fd5b634e487b7160e01b600052604160045260246000fd5b6001600160a01b038116811461090457600080fdfea264697066735822122092c49dd3bd82ac50b73c5debc5a646a7bea2906d4f18a3c92412361475862b9f64736f6c63430008070033",
  "immutableReferences": {},
  "source": "// SPDX-License-Identifier: MIT\npragma solidity 0.8.7;\n\nimport \"@openzeppelin/contracts-upgradeable/access/OwnableUpgradeable.sol\";\nimport \"@openzeppelin/contracts-upgradeable/proxy/utils/Initializable.sol\";\nimport \"@openzeppelin/contracts-upgradeable/utils/ContextUpgradeable.sol\";\n\nimport \"./TVTB/TVTBToken.sol\";\n\nimport \"./IUpgradeable.sol\";\n\n/**\n * @title Poll manager\n */\ncontract PollManager is Initializable, ContextUpgradeable, OwnableUpgradeable {\n    struct Poll {\n        address proxy;\n        IUpgradeable implementation;\n        uint256 startDateTime;\n        uint256 endDateTime;\n        address[] agree;\n        address[] disagree;\n    }\n\n    struct PollResult {\n        address proxy;\n        IUpgradeable implementation;\n        uint256 startDateTime;\n        uint256 endDateTime;\n        uint256 agreeNumber;\n        uint256 disagreeNumber;\n    }\n\n    Poll[] internal _polls;\n\n    TVTBToken internal _token;\n\n    error PollAlreadyFinished(uint256 index, uint256 endDateTime);\n    error PollAlreadyVoted(uint256 index);\n    error PollDoesNotExist(uint256 index);\n    error PollHasNotFinished(uint256 index, uint256 endDateTime);\n    error PollHasNotStarted(uint256 index, uint256 startDateTime);\n    error PollNotAuthorize();\n\n    function create(\n        address proxy,\n        IUpgradeable implementation,\n        uint256 startDateTime,\n        uint256 endDateTime\n    ) external {\n        address[] memory result;\n\n        Poll memory poll = Poll({\n            proxy: proxy,\n            implementation: implementation,\n            startDateTime: startDateTime,\n            endDateTime: endDateTime,\n            agree: result,\n            disagree: result\n        });\n\n        _polls.push(poll);\n    }\n\n    function initialize(TVTBToken token) public initializer {\n        __Context_init();\n        __Ownable_init();\n\n        _token = token;\n    }\n\n    function getResult() external view returns (PollResult[] memory) {\n        PollResult[] memory pollsResult = new PollResult[](_polls.length);\n\n        for (uint256 i = 0; i < _polls.length; i++) {\n            Poll memory poll = _polls[i];\n\n            pollsResult[i] = PollResult({\n                proxy: poll.proxy,\n                implementation: poll.implementation,\n                startDateTime: poll.startDateTime,\n                endDateTime: poll.endDateTime,\n                agreeNumber: poll.agree.length,\n                disagreeNumber: poll.disagree.length\n            });\n        }\n\n        return pollsResult;\n    }\n\n    function getToken() external view returns (TVTBToken token) {\n        return _token;\n    }\n\n    function vote(uint256 index, bool answer) external {\n        address voter = _msgSender();\n\n        if (!_hasToken(voter)) {\n            revert PollNotAuthorize();\n        }\n\n        Poll storage poll = _get(index);\n\n        if (poll.startDateTime > block.timestamp) {\n            revert PollHasNotStarted(index, poll.startDateTime);\n        }\n\n        if (poll.endDateTime < block.timestamp) {\n            revert PollAlreadyFinished(index, poll.endDateTime);\n        }\n\n        if (_isVoted(poll, voter)) {\n            revert PollAlreadyVoted(index);\n        }\n\n        if (answer) {\n            poll.agree.push(voter);\n        } else {\n            poll.disagree.push(voter);\n        }\n    }\n\n    function _isVoted(Poll memory poll, address voter)\n        internal\n        pure\n        returns (bool)\n    {\n        for (uint256 i = 0; i < poll.agree.length; i++) {\n            if (poll.agree[i] == voter) {\n                return true;\n            }\n        }\n\n        for (uint256 i = 0; i < poll.disagree.length; i++) {\n            if (poll.disagree[i] == voter) {\n                return true;\n            }\n        }\n\n        return false;\n    }\n\n    function _isExists(uint256 index) internal view returns (bool) {\n        return 0 <= index && index <= _polls.length - 1;\n    }\n\n    function _get(uint256 index) internal view returns (Poll storage) {\n        if (!_isExists(index)) {\n            revert PollDoesNotExist(index);\n        }\n\n        return _polls[index];\n    }\n\n    function _hasToken(address voter) internal view returns (bool) {\n        return _token.balanceOf(voter) > 0;\n    }\n}\n",
  "sourcePath": "/Users/ievgencherkaskyi/Projects/tivan/launchpool/contracts/PollManager.sol",
  "compiler": {
    "name": "solc",
    "version": "0.8.7+commit.e28d00a7.Emscripten.clang"
  },
  "schemaVersion": "3.3.3",
  "updatedAt": "2022-06-29T21:43:59.535Z",
  "networkType": "ethereum",
  "devdoc": {
    "kind": "dev",
    "methods": {
      "owner()": {
        "details": "Returns the address of the current owner."
      },
      "renounceOwnership()": {
        "details": "Leaves the contract without owner. It will not be possible to call `onlyOwner` functions anymore. Can only be called by the current owner. NOTE: Renouncing ownership will leave the contract without an owner, thereby removing any functionality that is only available to the owner."
      },
      "transferOwnership(address)": {
        "details": "Transfers ownership of the contract to a new account (`newOwner`). Can only be called by the current owner."
      }
    },
    "title": "Poll manager",
    "version": 1
  },
  "userdoc": {
    "kind": "user",
    "methods": {},
    "version": 1
  }
}