{
  "contractName": "Presale",
  "abi": [
    {
      "inputs": [
        {
          "internalType": "address",
          "name": "_addressTVTtoken",
          "type": "address"
        },
        {
          "internalType": "bool",
          "name": "_paused",
          "type": "bool"
        }
      ],
      "stateMutability": "nonpayable",
      "type": "constructor"
    },
    {
      "anonymous": false,
      "inputs": [
        {
          "indexed": true,
          "internalType": "address",
          "name": "_from",
          "type": "address"
        },
        {
          "indexed": true,
          "internalType": "address",
          "name": "_refferrer",
          "type": "address"
        },
        {
          "indexed": false,
          "internalType": "uint256",
          "name": "_amount",
          "type": "uint256"
        }
      ],
      "name": "BuyTokenRef",
      "type": "event"
    },
    {
      "anonymous": false,
      "inputs": [
        {
          "indexed": true,
          "internalType": "address",
          "name": "previousOwner",
          "type": "address"
        },
        {
          "indexed": true,
          "internalType": "address",
          "name": "newOwner",
          "type": "address"
        }
      ],
      "name": "OwnershipTransferred",
      "type": "event"
    },
    {
      "inputs": [],
      "name": "Paused",
      "outputs": [
        {
          "internalType": "bool",
          "name": "",
          "type": "bool"
        }
      ],
      "stateMutability": "view",
      "type": "function"
    },
    {
      "inputs": [],
      "name": "ReferalStatus",
      "outputs": [
        {
          "internalType": "bool",
          "name": "",
          "type": "bool"
        }
      ],
      "stateMutability": "view",
      "type": "function"
    },
    {
      "inputs": [],
      "name": "TotalTokensSold",
      "outputs": [
        {
          "internalType": "uint256",
          "name": "",
          "type": "uint256"
        }
      ],
      "stateMutability": "view",
      "type": "function"
    },
    {
      "inputs": [],
      "name": "addressTVTtoken",
      "outputs": [
        {
          "internalType": "address",
          "name": "",
          "type": "address"
        }
      ],
      "stateMutability": "view",
      "type": "function"
    },
    {
      "inputs": [
        {
          "internalType": "uint256",
          "name": "",
          "type": "uint256"
        }
      ],
      "name": "listOfPair",
      "outputs": [
        {
          "internalType": "address",
          "name": "",
          "type": "address"
        }
      ],
      "stateMutability": "view",
      "type": "function"
    },
    {
      "inputs": [],
      "name": "minAmountOut",
      "outputs": [
        {
          "internalType": "uint256",
          "name": "",
          "type": "uint256"
        }
      ],
      "stateMutability": "view",
      "type": "function"
    },
    {
      "inputs": [],
      "name": "minToStartRefer",
      "outputs": [
        {
          "internalType": "uint256",
          "name": "",
          "type": "uint256"
        }
      ],
      "stateMutability": "view",
      "type": "function"
    },
    {
      "inputs": [],
      "name": "owner",
      "outputs": [
        {
          "internalType": "address",
          "name": "",
          "type": "address"
        }
      ],
      "stateMutability": "view",
      "type": "function"
    },
    {
      "inputs": [],
      "name": "referBont",
      "outputs": [
        {
          "internalType": "bool",
          "name": "status",
          "type": "bool"
        },
        {
          "internalType": "uint256",
          "name": "A",
          "type": "uint256"
        },
        {
          "internalType": "uint256",
          "name": "B",
          "type": "uint256"
        }
      ],
      "stateMutability": "view",
      "type": "function"
    },
    {
      "inputs": [
        {
          "internalType": "address",
          "name": "",
          "type": "address"
        }
      ],
      "name": "referWallets",
      "outputs": [
        {
          "internalType": "bool",
          "name": "status",
          "type": "bool"
        },
        {
          "internalType": "uint256",
          "name": "totalAmount",
          "type": "uint256"
        }
      ],
      "stateMutability": "view",
      "type": "function"
    },
    {
      "inputs": [],
      "name": "renounceOwnership",
      "outputs": [],
      "stateMutability": "nonpayable",
      "type": "function"
    },
    {
      "inputs": [
        {
          "internalType": "address",
          "name": "",
          "type": "address"
        }
      ],
      "name": "sellPairsAddress",
      "outputs": [
        {
          "internalType": "address",
          "name": "w_address",
          "type": "address"
        },
        {
          "internalType": "bool",
          "name": "status",
          "type": "bool"
        },
        {
          "internalType": "uint256",
          "name": "A",
          "type": "uint256"
        },
        {
          "internalType": "uint256",
          "name": "B",
          "type": "uint256"
        }
      ],
      "stateMutability": "view",
      "type": "function"
    },
    {
      "inputs": [
        {
          "internalType": "address",
          "name": "newOwner",
          "type": "address"
        }
      ],
      "name": "transferOwnership",
      "outputs": [],
      "stateMutability": "nonpayable",
      "type": "function"
    },
    {
      "inputs": [
        {
          "internalType": "bool",
          "name": "_paused",
          "type": "bool"
        }
      ],
      "name": "setPaused",
      "outputs": [],
      "stateMutability": "nonpayable",
      "type": "function"
    },
    {
      "inputs": [
        {
          "internalType": "address",
          "name": "_address",
          "type": "address"
        }
      ],
      "name": "addReferrer",
      "outputs": [],
      "stateMutability": "nonpayable",
      "type": "function"
    },
    {
      "inputs": [
        {
          "internalType": "uint256",
          "name": "_MinAmountOut",
          "type": "uint256"
        }
      ],
      "name": "setMinAmountOut",
      "outputs": [],
      "stateMutability": "nonpayable",
      "type": "function"
    },
    {
      "inputs": [
        {
          "internalType": "bool",
          "name": "_status",
          "type": "bool"
        },
        {
          "internalType": "uint256",
          "name": "_raiseAmount",
          "type": "uint256"
        },
        {
          "internalType": "uint256",
          "name": "_bontReferrer",
          "type": "uint256"
        }
      ],
      "name": "setRefBont",
      "outputs": [],
      "stateMutability": "nonpayable",
      "type": "function"
    },
    {
      "inputs": [
        {
          "internalType": "uint256",
          "name": "_amount",
          "type": "uint256"
        }
      ],
      "name": "ladingTokens",
      "outputs": [],
      "stateMutability": "nonpayable",
      "type": "function"
    },
    {
      "inputs": [
        {
          "internalType": "address",
          "name": "_contract",
          "type": "address"
        },
        {
          "internalType": "uint256",
          "name": "_A",
          "type": "uint256"
        },
        {
          "internalType": "uint256",
          "name": "_B",
          "type": "uint256"
        }
      ],
      "name": "addSellPair",
      "outputs": [],
      "stateMutability": "nonpayable",
      "type": "function"
    },
    {
      "inputs": [
        {
          "internalType": "bool",
          "name": "_status",
          "type": "bool"
        }
      ],
      "name": "setStatusReferralProgramm",
      "outputs": [],
      "stateMutability": "nonpayable",
      "type": "function"
    },
    {
      "inputs": [],
      "name": "ApprovalTVTToken",
      "outputs": [],
      "stateMutability": "nonpayable",
      "type": "function"
    },
    {
      "inputs": [
        {
          "internalType": "address",
          "name": "_contract",
          "type": "address"
        }
      ],
      "name": "ApprovalToken",
      "outputs": [],
      "stateMutability": "nonpayable",
      "type": "function"
    },
    {
      "inputs": [
        {
          "internalType": "address",
          "name": "_token",
          "type": "address"
        },
        {
          "internalType": "address",
          "name": "_wallet",
          "type": "address"
        },
        {
          "internalType": "uint256",
          "name": "_amountIn",
          "type": "uint256"
        },
        {
          "internalType": "uint256",
          "name": "_amountOut",
          "type": "uint256"
        }
      ],
      "name": "buyToken",
      "outputs": [],
      "stateMutability": "nonpayable",
      "type": "function"
    },
    {
      "inputs": [
        {
          "internalType": "address",
          "name": "_token",
          "type": "address"
        },
        {
          "internalType": "address",
          "name": "_wallet",
          "type": "address"
        },
        {
          "internalType": "address",
          "name": "_referrer",
          "type": "address"
        },
        {
          "internalType": "uint256",
          "name": "_amountIn",
          "type": "uint256"
        },
        {
          "internalType": "uint256",
          "name": "_amountOut",
          "type": "uint256"
        },
        {
          "internalType": "uint256",
          "name": "_amountOutBon",
          "type": "uint256"
        }
      ],
      "name": "buyTokenRef",
      "outputs": [],
      "stateMutability": "nonpayable",
      "type": "function"
    },
    {
      "inputs": [
        {
          "internalType": "address",
          "name": "_address",
          "type": "address"
        }
      ],
      "name": "getRefInfo",
      "outputs": [
        {
          "components": [
            {
              "internalType": "bool",
              "name": "status",
              "type": "bool"
            },
            {
              "internalType": "uint256",
              "name": "totalAmount",
              "type": "uint256"
            },
            {
              "internalType": "uint256",
              "name": "needAmount",
              "type": "uint256"
            },
            {
              "internalType": "uint256",
              "name": "needMoreAmount",
              "type": "uint256"
            }
          ],
          "internalType": "struct Presale.refWalletInfo",
          "name": "_result",
          "type": "tuple"
        }
      ],
      "stateMutability": "view",
      "type": "function"
    },
    {
      "inputs": [],
      "name": "getTVTBalanceOf",
      "outputs": [
        {
          "internalType": "uint256",
          "name": "",
          "type": "uint256"
        }
      ],
      "stateMutability": "view",
      "type": "function"
    },
    {
      "inputs": [
        {
          "internalType": "address",
          "name": "_address",
          "type": "address"
        }
      ],
      "name": "getTokensBalanceOf",
      "outputs": [
        {
          "internalType": "uint256",
          "name": "",
          "type": "uint256"
        }
      ],
      "stateMutability": "view",
      "type": "function"
    },
    {
      "inputs": [],
      "name": "withdrawTVT",
      "outputs": [],
      "stateMutability": "nonpayable",
      "type": "function"
    },
    {
      "inputs": [],
      "name": "withdrawAll",
      "outputs": [],
      "stateMutability": "nonpayable",
      "type": "function"
    },
    {
      "inputs": [],
      "name": "getCountPairs",
      "outputs": [
        {
          "internalType": "uint256",
          "name": "",
          "type": "uint256"
        }
      ],
      "stateMutability": "view",
      "type": "function"
    },
    {
      "inputs": [
        {
          "internalType": "uint256",
          "name": "_id",
          "type": "uint256"
        }
      ],
      "name": "getPairId",
      "outputs": [
        {
          "components": [
            {
              "internalType": "address",
              "name": "w_address",
              "type": "address"
            },
            {
              "internalType": "bool",
              "name": "status",
              "type": "bool"
            },
            {
              "internalType": "uint256",
              "name": "A",
              "type": "uint256"
            },
            {
              "internalType": "uint256",
              "name": "B",
              "type": "uint256"
            }
          ],
          "internalType": "struct Presale.pPair",
          "name": "",
          "type": "tuple"
        }
      ],
      "stateMutability": "view",
      "type": "function"
    },
    {
      "inputs": [],
      "name": "getAllPairs",
      "outputs": [
        {
          "components": [
            {
              "internalType": "address",
              "name": "w_address",
              "type": "address"
            },
            {
              "internalType": "bool",
              "name": "status",
              "type": "bool"
            },
            {
              "internalType": "uint256",
              "name": "A",
              "type": "uint256"
            },
            {
              "internalType": "uint256",
              "name": "B",
              "type": "uint256"
            }
          ],
          "internalType": "struct Presale.pPair[]",
          "name": "",
          "type": "tuple[]"
        }
      ],
      "stateMutability": "view",
      "type": "function"
    },
    {
      "inputs": [],
      "name": "getBid",
      "outputs": [
        {
          "components": [
            {
              "internalType": "address",
              "name": "w_address",
              "type": "address"
            },
            {
              "internalType": "bool",
              "name": "status",
              "type": "bool"
            },
            {
              "internalType": "uint256",
              "name": "A",
              "type": "uint256"
            },
            {
              "internalType": "uint256",
              "name": "B",
              "type": "uint256"
            }
          ],
          "internalType": "struct Presale.pPair[]",
          "name": "",
          "type": "tuple[]"
        }
      ],
      "stateMutability": "view",
      "type": "function"
    }
  ],
  "bytecode": "0x6001805460ff60a01b1916905560e06040526000608081905260a081905260c08190526006805460ff1916905560078190556008819055600955680ad78ebc5ac6200000600a55678ac7230489e80000600b553480156200005f57600080fd5b506040516200234b3803806200234b833981016040819052620000829162000115565b6200008d33620000c5565b600180546001600160a01b0319166001600160a01b0393909316929092179091556005805460ff191691151591909117905562000163565b600080546001600160a01b038381166001600160a01b0319831681178455604051919092169283917f8be0079c531659141344cd1fd0a4f28419497f9722a3daafe3b4186f6b6457e09190a35050565b600080604083850312156200012957600080fd5b82516001600160a01b03811681146200014157600080fd5b602084015190925080151581146200015857600080fd5b809150509250929050565b6121d880620001736000396000f3fe608060405234801561001057600080fd5b50600436106101fb5760003560e01c80637d17ff3d1161011a578063cd96c17f116100ad578063f2fde38b1161007c578063f2fde38b146104dd578063f775cca7146104f0578063f800ece914610503578063fc97a3161461050b578063fefa9bb11461051e57600080fd5b8063cd96c17f1461048d578063dff9a6c1146104a0578063e5ee1d40146104c0578063e855fb45146104c957600080fd5b80639d7dc1d5116100e95780639d7dc1d51461044d5780639e87fac814610455578063a561464214610472578063b7a201241461047a57600080fd5b80637d17ff3d146104195780638069a8d81461042c578063853828b6146104345780638da5cb5b1461043c57600080fd5b8063246c821a1161019257806347e865b61161016157806347e865b6146103915780636d0b123f1461039a578063715018a6146103a35780637423bcef146103ab57600080fd5b8063246c821a146103115780632b0556ad1461035557806332631c881461037657806347a1663f1461038957600080fd5b8063148db3c9116101ce578063148db3c91461028e57806316c38b3c146102a15780631a681e07146102b45780631ec626fe146102e657600080fd5b806304f6d6461461020057806304fe2b7a1461025157806307f4779314610266578063099a019d14610279575b600080fd5b61021361020e366004611e46565b610531565b604051610248919081511515815260208083015190820152604080830151908201526060918201519181019190915260800190565b60405180910390f35b61026461025f366004611f6f565b6105de565b005b610264610274366004611e61565b610643565b610281610cea565b6040516102489190611fe5565b61026461029c366004611e46565b610e0d565b6102646102af366004611f35565b610ec8565b6006546007546008546102c99260ff16919083565b604080519315158452602084019290925290820152606001610248565b6001546102f9906001600160a01b031681565b6040516001600160a01b039091168152602001610248565b61033e61031f366004611e46565b6002602052600090815260409020805460019091015460ff9091169082565b604080519215158352602083019190915201610248565b610368610363366004611e46565b610f05565b604051908152602001610248565b610264610384366004611f35565b610f85565b610264610fcd565b61036860095481565b610368600a5481565b61026461108b565b6103ef6103b9366004611e46565b6003602052600090815260409020805460018201546002909201546001600160a01b03821692600160a01b90920460ff16919084565b604080516001600160a01b0390951685529215156020850152918301526060820152608001610248565b610264610427366004611ec0565b6110c1565b610368611545565b6102646115c6565b6000546001600160a01b03166102f9565b610264611758565b6005546104629060ff1681565b6040519015158152602001610248565b600454610368565b610264610488366004611f02565b611827565b61026461049b366004611f8f565b611a33565b6104b36104ae366004611f8f565b611a91565b6040516102489190612091565b610368600b5481565b60015461046290600160a01b900460ff1681565b6102646104eb366004611e46565b611b19565b6102646104fe366004611f8f565b611bb1565b610281611be0565b6102f9610519366004611f8f565b611cfd565b61026461052c366004611e46565b611d27565b61055e60405180608001604052806000151581526020016000815260200160008152602001600081525090565b6001600160a01b0382166000818152600260208181526040808420805460ff161515875260010154868301819052600a549187018290529490935252116105ab5760006060820152919050565b6001600160a01b038216600090815260026020526040902060010154600a546105d391611d75565b60608201525b919050565b6000546001600160a01b031633146106115760405162461bcd60e51b81526004016106089061205c565b60405180910390fd5b604080516060810182529315158085526020850184905293018190526006805460ff1916909317909255600755600855565b60055460ff16156106885760405162461bcd60e51b815260206004820152600f60248201526e10dbdb9d1c9858dd0814185d5cd959608a1b6044820152606401610608565b600b548110156106cb5760405162461bcd60e51b815260206004820152600e60248201526d11985a5b17d05b5bdd5b97d3dd5d60921b6044820152606401610608565b836001600160a01b0316856001600160a01b0316141561071c5760405162461bcd60e51b815260206004820152600c60248201526b22b9392fb932b332b93932b960a11b6044820152606401610608565b6001600160a01b03841660009081526002602052604090205460ff1615156001146107775760405162461bcd60e51b815260206004820152600b60248201526a2737afa932b332b93932b960a91b6044820152606401610608565b60018054600160a01b900460ff161515146107c35760405162461bcd60e51b815260206004820152600c60248201526b14995997d11a5cd8589b195960a21b6044820152606401610608565b6001600160a01b0386166000908152600360205260409020600101546108155760405162461bcd60e51b81526020600482015260076024820152662727afa820a4a960c91b6044820152606401610608565b6040516370a0823160e01b815233600482015283906001600160a01b038816906370a082319060240160206040518083038186803b15801561085657600080fd5b505afa15801561086a573d6000803e3d6000fd5b505050506040513d601f19601f8201168201806040525081019061088e9190611fa8565b10156108c85760405162461bcd60e51b81526020600482015260096024820152684e4f5f544f4b454e5360b81b6044820152606401610608565b6001600160a01b0386166000908152600360205260408120600281015460019091015461090191906108fb908790611d88565b90611d94565b9050600061092d826109276006600101546108fb6103e887611d8890919063ffffffff16565b90611da0565b905080831461096f5760405162461bcd60e51b815260206004820152600e60248201526d115c9c9bdc880814995c5d595cdd60921b6044820152606401610608565b600854600090610985906108fb856103e8611d88565b90506109918582611da0565b6001546040516370a0823160e01b81523060048201526001600160a01b03909116906370a082319060240160206040518083038186803b1580156109d457600080fd5b505afa1580156109e8573d6000803e3d6000fd5b505050506040513d601f19601f82011682018060405250810190610a0c9190611fa8565b1015610a4f5760405162461bcd60e51b81526020600482015260126024820152714e4f5f434f4e54524143545f544f4b454e5360701b6044820152606401610608565b6040516323b872dd60e01b81526001600160a01b038a16906323b872dd90610a7f90339030908b90600401611fc1565b602060405180830381600087803b158015610a9957600080fd5b505af1158015610aad573d6000803e3d6000fd5b505050506040513d601f19601f82011682018060405250810190610ad19190611f52565b506001546040516323b872dd60e01b81526001600160a01b03909116906323b872dd90610b069030908c908990600401611fc1565b602060405180830381600087803b158015610b2057600080fd5b505af1158015610b34573d6000803e3d6000fd5b505050506040513d601f19601f82011682018060405250810190610b589190611f52565b506001546040516323b872dd60e01b81526001600160a01b03909116906323b872dd90610b8d9030908b908690600401611fc1565b602060405180830381600087803b158015610ba757600080fd5b505af1158015610bbb573d6000803e3d6000fd5b505050506040513d601f19601f82011682018060405250810190610bdf9190611f52565b503360009081526002602052604081206001018054879290610c029084906120c7565b90915550503360009081526002602052604090205460ff16610c7057600a543360009081526002602052604090206001015410610c5857336000908152600260205260409020805460ff19166001179055610c70565b336000908152600260205260409020805460ff191690555b610c7a8582611da0565b60096000828254610c8b91906120c7565b92505081905550866001600160a01b0316886001600160a01b03167f7d6e5bf53f95491be6e88dfbc93170db27846e7be8fa33bf7713dda5f977d0da83604051610cd791815260200190565b60405180910390a3505050505050505050565b60045460609060009067ffffffffffffffff811115610d0b57610d0b61217e565b604051908082528060200260200182016040528015610d4457816020015b610d31611dfc565b815260200190600190039081610d295790505b50905060005b600454811015610e075760006003600060048481548110610d6d57610d6d612168565b6000918252602080832091909101546001600160a01b039081168452838201949094526040928301909120825160808101845281549485168152600160a01b90940460ff16151591840191909152600181015491830191909152600281015460608301528451909250849084908110610de857610de8612168565b6020026020010181905250508080610dff90612137565b915050610d4a565b50919050565b6000546001600160a01b03163314610e375760405162461bcd60e51b81526004016106089061205c565b60405163095ea7b360e01b81523060048201526c01431e0fae6d7217caa000000060248201526001600160a01b0382169063095ea7b3906044015b602060405180830381600087803b158015610e8c57600080fd5b505af1158015610ea0573d6000803e3d6000fd5b505050506040513d601f19601f82011682018060405250810190610ec49190611f52565b5050565b6000546001600160a01b03163314610ef25760405162461bcd60e51b81526004016106089061205c565b6005805460ff1916911515919091179055565b6040516370a0823160e01b81523060048201526000906001600160a01b038316906370a082319060240160206040518083038186803b158015610f4757600080fd5b505afa158015610f5b573d6000803e3d6000fd5b505050506040513d601f19601f82011682018060405250810190610f7f9190611fa8565b92915050565b6000546001600160a01b03163314610faf5760405162461bcd60e51b81526004016106089061205c565b60018054911515600160a01b0260ff60a01b19909216919091179055565b6000546001600160a01b03163314610ff75760405162461bcd60e51b81526004016106089061205c565b60015460405163095ea7b360e01b81523060048201526c01431e0fae6d7217caa000000060248201526001600160a01b039091169063095ea7b3906044015b602060405180830381600087803b15801561105057600080fd5b505af1158015611064573d6000803e3d6000fd5b505050506040513d601f19601f820116820180604052508101906110889190611f52565b50565b6000546001600160a01b031633146110b55760405162461bcd60e51b81526004016106089061205c565b6110bf6000611dac565b565b60055460ff16156111065760405162461bcd60e51b815260206004820152600f60248201526e10dbdb9d1c9858dd0814185d5cd959608a1b6044820152606401610608565b600b548110156111495760405162461bcd60e51b815260206004820152600e60248201526d11985a5b17d05b5bdd5b97d3dd5d60921b6044820152606401610608565b6001600160a01b038416600090815260036020526040902054600160a01b900460ff1615156001146111a75760405162461bcd60e51b81526020600482015260076024820152662727afa820a4a960c91b6044820152606401610608565b6040516370a0823160e01b815233600482015282906001600160a01b038616906370a082319060240160206040518083038186803b1580156111e857600080fd5b505afa1580156111fc573d6000803e3d6000fd5b505050506040513d601f19601f820116820180604052508101906112209190611fa8565b101561125a5760405162461bcd60e51b81526020600482015260096024820152684e4f20544f4b454e5360b81b6044820152606401610608565b6001600160a01b0384166000908152600360205260408120600281015460019091015461128d91906108fb908690611d88565b90508082146112cf5760405162461bcd60e51b815260206004820152600e60248201526d115c9c9bdc880814995c5d595cdd60921b6044820152606401610608565b6001546040516370a0823160e01b815230600482015283916001600160a01b0316906370a082319060240160206040518083038186803b15801561131257600080fd5b505afa158015611326573d6000803e3d6000fd5b505050506040513d601f19601f8201168201806040525081019061134a9190611fa8565b101561138d5760405162461bcd60e51b81526020600482015260126024820152714e4f20434f4e545241435420544f4b454e5360701b6044820152606401610608565b6040516323b872dd60e01b81526001600160a01b038616906323b872dd906113bd90339030908890600401611fc1565b602060405180830381600087803b1580156113d757600080fd5b505af11580156113eb573d6000803e3d6000fd5b505050506040513d601f19601f8201168201806040525081019061140f9190611f52565b506001546040516323b872dd60e01b81526001600160a01b03909116906323b872dd9061144490309088908790600401611fc1565b602060405180830381600087803b15801561145e57600080fd5b505af1158015611472573d6000803e3d6000fd5b505050506040513d601f19601f820116820180604052508101906114969190611f52565b5033600090815260026020526040812060010180548492906114b99084906120c7565b90915550503360009081526002602052604090205460ff1661152757600a54336000908152600260205260409020600101541061150f57336000908152600260205260409020805460ff19166001179055611527565b336000908152600260205260409020805460ff191690555b816009600082825461153991906120c7565b90915550505050505050565b6001546040516370a0823160e01b81523060048201526000916001600160a01b0316906370a082319060240160206040518083038186803b15801561158957600080fd5b505afa15801561159d573d6000803e3d6000fd5b505050506040513d601f19601f820116820180604052508101906115c19190611fa8565b905090565b6000546001600160a01b031633146115f05760405162461bcd60e51b81526004016106089061205c565b60005b600454811015611088576004818154811061161057611610612168565b9060005260206000200160009054906101000a90046001600160a01b03166001600160a01b03166323b872dd30336004858154811061165157611651612168565b6000918252602090912001546040516370a0823160e01b81523060048201526001600160a01b03909116906370a082319060240160206040518083038186803b15801561169d57600080fd5b505afa1580156116b1573d6000803e3d6000fd5b505050506040513d601f19601f820116820180604052508101906116d59190611fa8565b6040518463ffffffff1660e01b81526004016116f393929190611fc1565b602060405180830381600087803b15801561170d57600080fd5b505af1158015611721573d6000803e3d6000fd5b505050506040513d601f19601f820116820180604052508101906117459190611f52565b508061175081612137565b9150506115f3565b6000546001600160a01b031633146117825760405162461bcd60e51b81526004016106089061205c565b6001546040516370a0823160e01b815230600482018190526001600160a01b03909216916323b872dd91339084906370a082319060240160206040518083038186803b1580156117d157600080fd5b505afa1580156117e5573d6000803e3d6000fd5b505050506040513d601f19601f820116820180604052508101906118099190611fa8565b6040518463ffffffff1660e01b815260040161103693929190611fc1565b6000546001600160a01b031633146118515760405162461bcd60e51b81526004016106089061205c565b6001600160a01b038316600090815260036020526040902054600160a01b900460ff166119ba57604080516080810182526001600160a01b03858116808352600160208085018281528587018981526060870189815260008681526003909452928890209651875492511515600160a01b026001600160a81b03199093169616959095171785559251908401559051600290920191909155905163095ea7b360e01b81523060048201526a52b7d2dcc80cd2e4000000602482015263095ea7b390604401602060405180830381600087803b15801561192f57600080fd5b505af1158015611943573d6000803e3d6000fd5b505050506040513d601f19601f820116820180604052508101906119679190611f52565b50600480546001810182556000919091527f8a35acfbc15ff81a39ae7d344fd709f28e8600b4aa8c65c6b64bfe7fe36bd19b0180546001600160a01b0385166001600160a01b0319909116179055505050565b604080516080810182526001600160a01b03808616808352600160208085018281528587018981526060870189815260009586526003909352969093209451855493511515600160a01b026001600160a81b03199094169416939093179190911783559251928201929092559051600290910155505050565b6000546001600160a01b03163314611a5d5760405162461bcd60e51b81526004016106089061205c565b6001546040516323b872dd60e01b81526001600160a01b03909116906323b872dd90610e7290339030908690600401611fc1565b611a99611dfc565b6003600060048481548110611ab057611ab0612168565b6000918252602080832091909101546001600160a01b039081168452838201949094526040928301909120825160808101845281549485168152600160a01b90940460ff1615159184019190915260018101549183019190915260020154606082015292915050565b6000546001600160a01b03163314611b435760405162461bcd60e51b81526004016106089061205c565b6001600160a01b038116611ba85760405162461bcd60e51b815260206004820152602660248201527f4f776e61626c653a206e6577206f776e657220697320746865207a65726f206160448201526564647265737360d01b6064820152608401610608565b61108881611dac565b6000546001600160a01b03163314611bdb5760405162461bcd60e51b81526004016106089061205c565b600b55565b60045460609060009067ffffffffffffffff811115611c0157611c0161217e565b604051908082528060200260200182016040528015611c3a57816020015b611c27611dfc565b815260200190600190039081611c1f5790505b50905060005b600454811015610e075760006003600060048481548110611c6357611c63612168565b6000918252602080832091909101546001600160a01b039081168452838201949094526040928301909120825160808101845281549485168152600160a01b90940460ff16151591840191909152600181015491830191909152600281015460608301528451909250849084908110611cde57611cde612168565b6020026020010181905250508080611cf590612137565b915050611c40565b60048181548110611d0d57600080fd5b6000918252602090912001546001600160a01b0316905081565b6000546001600160a01b03163314611d515760405162461bcd60e51b81526004016106089061205c565b6001600160a01b03166000908152600260205260409020805460ff19166001179055565b6000611d818284612120565b9392505050565b6000611d8182846120df565b6000611d818284612101565b6000611d8182846120c7565b600080546001600160a01b038381166001600160a01b0319831681178455604051919092169283917f8be0079c531659141344cd1fd0a4f28419497f9722a3daafe3b4186f6b6457e09190a35050565b604051806080016040528060006001600160a01b0316815260200160001515815260200160008152602001600081525090565b80356001600160a01b03811681146105d957600080fd5b600060208284031215611e5857600080fd5b611d8182611e2f565b60008060008060008060c08789031215611e7a57600080fd5b611e8387611e2f565b9550611e9160208801611e2f565b9450611e9f60408801611e2f565b9350606087013592506080870135915060a087013590509295509295509295565b60008060008060808587031215611ed657600080fd5b611edf85611e2f565b9350611eed60208601611e2f565b93969395505050506040820135916060013590565b600080600060608486031215611f1757600080fd5b611f2084611e2f565b95602085013595506040909401359392505050565b600060208284031215611f4757600080fd5b8135611d8181612194565b600060208284031215611f6457600080fd5b8151611d8181612194565b600080600060608486031215611f8457600080fd5b8335611f2081612194565b600060208284031215611fa157600080fd5b5035919050565b600060208284031215611fba57600080fd5b5051919050565b6001600160a01b039384168152919092166020820152604081019190915260600190565b6020808252825182820181905260009190848201906040850190845b818110156120505761203d83855180516001600160a01b0316825260208082015115159083015260408082015190830152606090810151910152565b9284019260809290920191600101612001565b50909695505050505050565b6020808252818101527f4f776e61626c653a2063616c6c6572206973206e6f7420746865206f776e6572604082015260600190565b81516001600160a01b03168152602080830151151590820152604080830151908201526060808301519082015260808101610f7f565b600082198211156120da576120da612152565b500190565b6000826120fc57634e487b7160e01b600052601260045260246000fd5b500490565b600081600019048311821515161561211b5761211b612152565b500290565b60008282101561213257612132612152565b500390565b600060001982141561214b5761214b612152565b5060010190565b634e487b7160e01b600052601160045260246000fd5b634e487b7160e01b600052603260045260246000fd5b634e487b7160e01b600052604160045260246000fd5b801515811461108857600080fdfea2646970667358221220e531df60735b4719bf4230fce3dcb0a182d1f4fd8091e4b9cda1db4928ddb22264736f6c63430008070033",
  "immutableReferences": {},
  "source": "// SPDX-License-Identifier: MIT\npragma solidity 0.8.7;\n\nimport \"@openzeppelin/contracts/access/Ownable.sol\";\nimport \"@openzeppelin/contracts/token/ERC20/IERC20.sol\";\nimport \"@openzeppelin/contracts/utils/math/SafeMath.sol\";\n\ncontract Presale is Ownable {\n    using SafeMath for uint256;\n    using SafeMath for uint256;\n\n    struct pPair {\n        address w_address;\n        bool status;\n        uint256 A;\n        uint256 B;\n    }\n\n    struct rfStatus {\n        bool status;\n        uint256 A;\n        uint256 B;\n    }\n\n    struct refWallet {\n        bool status;\n        uint256 totalAmount;\n    }\n\n    struct refWalletInfo {\n        bool status;\n        uint256 totalAmount;\n        uint256 needAmount;\n        uint256 needMoreAmount;\n    }\n\n    address public addressTVTtoken;\n\n    bool public ReferalStatus = false;\n\n    mapping(address => refWallet) public referWallets;\n    mapping(address => pPair) public sellPairsAddress;\n    address[] public listOfPair;\n    bool public Paused;\n    rfStatus public referBont = rfStatus(false, 0, 0);\n    uint256 public TotalTokensSold = 0;\n    uint256 public minToStartRefer = 200 * 1e18;\n\n    event BuyTokenRef(\n        address indexed _from,\n        address indexed _refferrer,\n        uint256 _amount\n    );\n\n    uint256 public minAmountOut = 10 * 1e18;\n\n    constructor(address _addressTVTtoken, bool _paused) {\n        addressTVTtoken = _addressTVTtoken;\n        Paused = _paused;\n    }\n\n    function setPaused(bool _paused) public onlyOwner {\n        Paused = _paused;\n    }\n\n    function addReferrer(address _address) public onlyOwner {\n        referWallets[_address].status = true;\n    }\n\n    function setMinAmountOut(uint256 _MinAmountOut) public onlyOwner {\n        minAmountOut = _MinAmountOut;\n    }\n\n    function setRefBont(\n        bool _status,\n        uint256 _raiseAmount,\n        uint256 _bontReferrer\n    ) public onlyOwner {\n        referBont = rfStatus(_status, _raiseAmount, _bontReferrer);\n    }\n\n    function ladingTokens(uint256 _amount) public onlyOwner {\n        IERC20(addressTVTtoken).transferFrom(\n            msg.sender,\n            address(this),\n            _amount\n        );\n    }\n\n    function addSellPair(\n        address _contract,\n        uint256 _A,\n        uint256 _B\n    ) public onlyOwner {\n        if (sellPairsAddress[_contract].status == false) {\n            sellPairsAddress[_contract] = pPair(_contract, true, _A, _B);\n\n            IERC20(_contract).approve(address(this), 100000000 * 1e18);\n\n            listOfPair.push(_contract);\n        } else {\n            sellPairsAddress[_contract] = pPair(_contract, true, _A, _B);\n        }\n    }\n\n    function setStatusReferralProgramm(bool _status) public onlyOwner {\n        ReferalStatus = _status;\n    }\n\n    function ApprovalTVTToken() public onlyOwner {\n        IERC20(addressTVTtoken).approve(address(this), 100000000000 * 1e18);\n    }\n\n    function ApprovalToken(address _contract) public onlyOwner {\n        IERC20(_contract).approve(address(this), 100000000000 * 1e18);\n    }\n\n    function buyToken(\n        address _token,\n        address _wallet,\n        uint256 _amountIn,\n        uint256 _amountOut\n    ) public {\n        require(Paused == false, \"Contract Paused\");\n\n        require(_amountOut >= minAmountOut, \"Fail_Amoun_Out\");\n\n        require(sellPairsAddress[_token].status == true, \"NO_PAIR\");\n\n        require(IERC20(_token).balanceOf(msg.sender) >= _amountIn, \"NO TOKENS\");\n\n        uint256 amt = (_amountIn.div(sellPairsAddress[_token].A)).mul(\n            sellPairsAddress[_token].B\n        );\n\n        require(_amountOut == amt, \"Error  Request\");\n\n        require(\n            IERC20(addressTVTtoken).balanceOf(address(this)) >= _amountOut,\n            \"NO CONTRACT TOKENS\"\n        );\n\n        IERC20(_token).transferFrom(msg.sender, address(this), _amountIn);\n\n        IERC20(addressTVTtoken).transferFrom(\n            address(this),\n            _wallet,\n            _amountOut\n        );\n\n        referWallets[msg.sender].totalAmount += _amountOut;\n        if (!referWallets[msg.sender].status) {\n            if (referWallets[msg.sender].totalAmount >= minToStartRefer) {\n                referWallets[msg.sender].status = true;\n            } else {\n                referWallets[msg.sender].status = false;\n            }\n        }\n        TotalTokensSold += _amountOut;\n    }\n\n    function buyTokenRef(\n        address _token,\n        address _wallet,\n        address _referrer,\n        uint256 _amountIn,\n        uint256 _amountOut,\n        uint256 _amountOutBon\n    ) public {\n        require(Paused == false, \"Contract Paused\");\n\n        require(_amountOutBon >= minAmountOut, \"Fail_Amoun_Out\");\n\n        require(_wallet != _referrer, \"Err_referrer\");\n\n        require(referWallets[_referrer].status == true, \"No_Referrer\");\n        require(ReferalStatus == true, \"Ref_Disabled\");\n        require(sellPairsAddress[_token].A > 0, \"NO_PAIR\");\n        require(IERC20(_token).balanceOf(msg.sender) >= _amountIn, \"NO_TOKENS\");\n        uint256 amt = (_amountIn.div(sellPairsAddress[_token].A)).mul(\n            sellPairsAddress[_token].B\n        );\n        uint256 amtBob = ((amt.div(1000)).mul(referBont.A)).add(amt);\n        require(_amountOutBon == amtBob, \"Error  Request\");\n        uint256 rBonus = (amt.div(1000)).mul(referBont.B);\n        require(\n            IERC20(addressTVTtoken).balanceOf(address(this)) >=\n                _amountOut.add(rBonus),\n            \"NO_CONTRACT_TOKENS\"\n        );\n        IERC20(_token).transferFrom(msg.sender, address(this), _amountIn);\n        IERC20(addressTVTtoken).transferFrom(\n            address(this),\n            _wallet,\n            _amountOutBon\n        );\n        IERC20(addressTVTtoken).transferFrom(address(this), _referrer, rBonus);\n        referWallets[msg.sender].totalAmount += _amountOut;\n\n        if (!referWallets[msg.sender].status) {\n            if (referWallets[msg.sender].totalAmount >= minToStartRefer) {\n                referWallets[msg.sender].status = true;\n            } else {\n                referWallets[msg.sender].status = false;\n            }\n        }\n\n        TotalTokensSold += _amountOut.add(rBonus);\n        emit BuyTokenRef(_wallet, _referrer, rBonus);\n    }\n\n    function getRefInfo(address _address)\n        public\n        view\n        returns (refWalletInfo memory _result)\n    {\n        _result.status = referWallets[_address].status;\n        _result.totalAmount = referWallets[_address].totalAmount;\n        _result.needAmount = minToStartRefer;\n\n        if (referWallets[_address].totalAmount >= minToStartRefer) {\n            _result.needMoreAmount = 0;\n        } else {\n            _result.needMoreAmount = minToStartRefer.sub(\n                referWallets[_address].totalAmount\n            );\n        }\n        return _result;\n    }\n\n    function getTVTBalanceOf() public view returns (uint256) {\n        return IERC20(addressTVTtoken).balanceOf(address(this));\n    }\n\n    function getTokensBalanceOf(address _address)\n        public\n        view\n        returns (uint256)\n    {\n        return IERC20(_address).balanceOf(address(this));\n    }\n\n    function withdrawTVT() public onlyOwner {\n        IERC20(addressTVTtoken).transferFrom(\n            address(this),\n            msg.sender,\n            IERC20(addressTVTtoken).balanceOf(address(this))\n        );\n    }\n\n    function withdrawAll() public onlyOwner {\n        for (uint256 i = 0; i < listOfPair.length; i++) {\n            IERC20(listOfPair[i]).transferFrom(\n                address(this),\n                msg.sender,\n                IERC20(listOfPair[i]).balanceOf(address(this))\n            );\n        }\n    }\n\n    function getCountPairs() public view returns (uint256) {\n        return listOfPair.length;\n    }\n\n    function getPairId(uint256 _id) public view returns (pPair memory) {\n        return sellPairsAddress[listOfPair[_id]];\n    }\n\n    function getAllPairs() public view returns (pPair[] memory) {\n        pPair[] memory rt_pPair = new pPair[](listOfPair.length);\n        for (uint256 i = 0; i < listOfPair.length; i++) {\n            pPair storage tmp_pair = sellPairsAddress[listOfPair[i]];\n            rt_pPair[i] = tmp_pair;\n        }\n        return rt_pPair;\n    }\n\n    function getBid() public view returns (pPair[] memory) {\n        pPair[] memory lBids = new pPair[](listOfPair.length);\n        for (uint256 i = 0; i < listOfPair.length; i++) {\n            pPair storage lBid = sellPairsAddress[listOfPair[i]];\n            lBids[i] = lBid;\n        }\n        return lBids;\n    }\n}\n",
  "sourcePath": "/Users/ievgencherkaskyi/Projects/tivan/hexagons/contracts/Presale.sol",
  "compiler": {
    "name": "solc",
    "version": "0.8.7+commit.e28d00a7.Emscripten.clang"
  },
  "schemaVersion": "3.3.3",
  "updatedAt": "2022-07-09T11:06:58.197Z",
  "devdoc": {
    "kind": "dev",
    "methods": {
      "owner()": {
        "details": "Returns the address of the current owner."
      },
      "renounceOwnership()": {
        "details": "Leaves the contract without owner. It will not be possible to call `onlyOwner` functions anymore. Can only be called by the current owner. NOTE: Renouncing ownership will leave the contract without an owner, thereby removing any functionality that is only available to the owner."
      },
      "transferOwnership(address)": {
        "details": "Transfers ownership of the contract to a new account (`newOwner`). Can only be called by the current owner."
      }
    },
    "version": 1
  },
  "userdoc": {
    "kind": "user",
    "methods": {},
    "version": 1
  }
}