{
  "contractName": "Treasury",
  "abi": [
    {
      "inputs": [
        {
          "internalType": "uint8",
          "name": "maxNumber",
          "type": "uint8"
        }
      ],
      "name": "BankAccountSupplierTooMuchRecipients",
      "type": "error"
    },
    {
      "inputs": [],
      "name": "BankAccountSuppliertTotalSharesIsNotValid",
      "type": "error"
    },
    {
      "anonymous": false,
      "inputs": [
        {
          "indexed": false,
          "internalType": "uint8",
          "name": "version",
          "type": "uint8"
        }
      ],
      "name": "Initialized",
      "type": "event"
    },
    {
      "anonymous": false,
      "inputs": [
        {
          "indexed": true,
          "internalType": "address",
          "name": "previousOwner",
          "type": "address"
        },
        {
          "indexed": true,
          "internalType": "address",
          "name": "newOwner",
          "type": "address"
        }
      ],
      "name": "OwnershipTransferred",
      "type": "event"
    },
    {
      "inputs": [],
      "name": "distribute",
      "outputs": [],
      "stateMutability": "nonpayable",
      "type": "function"
    },
    {
      "inputs": [],
      "name": "getBalance",
      "outputs": [
        {
          "internalType": "uint256",
          "name": "",
          "type": "uint256"
        }
      ],
      "stateMutability": "view",
      "type": "function"
    },
    {
      "inputs": [],
      "name": "getPayments",
      "outputs": [
        {
          "components": [
            {
              "internalType": "contract Refillable",
              "name": "agreement",
              "type": "address"
            },
            {
              "internalType": "uint256",
              "name": "amount",
              "type": "uint256"
            },
            {
              "internalType": "uint256",
              "name": "date",
              "type": "uint256"
            },
            {
              "internalType": "uint256",
              "name": "payed",
              "type": "uint256"
            },
            {
              "internalType": "uint8",
              "name": "share",
              "type": "uint8"
            }
          ],
          "internalType": "struct Payment[]",
          "name": "",
          "type": "tuple[]"
        }
      ],
      "stateMutability": "view",
      "type": "function"
    },
    {
      "inputs": [],
      "name": "getRecipients",
      "outputs": [
        {
          "components": [
            {
              "internalType": "contract Refillable",
              "name": "agreement",
              "type": "address"
            },
            {
              "internalType": "uint8",
              "name": "share",
              "type": "uint8"
            }
          ],
          "internalType": "struct BankAccountRecipient[]",
          "name": "",
          "type": "tuple[]"
        }
      ],
      "stateMutability": "view",
      "type": "function"
    },
    {
      "inputs": [],
      "name": "getToken",
      "outputs": [
        {
          "internalType": "contract IERC20",
          "name": "",
          "type": "address"
        }
      ],
      "stateMutability": "view",
      "type": "function"
    },
    {
      "inputs": [],
      "name": "owner",
      "outputs": [
        {
          "internalType": "address",
          "name": "",
          "type": "address"
        }
      ],
      "stateMutability": "view",
      "type": "function"
    },
    {
      "inputs": [
        {
          "internalType": "address",
          "name": "sender",
          "type": "address"
        }
      ],
      "name": "pay",
      "outputs": [],
      "stateMutability": "nonpayable",
      "type": "function"
    },
    {
      "inputs": [],
      "name": "renounceOwnership",
      "outputs": [],
      "stateMutability": "nonpayable",
      "type": "function"
    },
    {
      "inputs": [
        {
          "components": [
            {
              "internalType": "contract Refillable",
              "name": "agreement",
              "type": "address"
            },
            {
              "internalType": "uint8",
              "name": "share",
              "type": "uint8"
            }
          ],
          "internalType": "struct BankAccountRecipient[]",
          "name": "recipients",
          "type": "tuple[]"
        }
      ],
      "name": "setRecipients",
      "outputs": [],
      "stateMutability": "nonpayable",
      "type": "function"
    },
    {
      "inputs": [
        {
          "internalType": "address",
          "name": "to",
          "type": "address"
        },
        {
          "internalType": "uint256",
          "name": "amount",
          "type": "uint256"
        }
      ],
      "name": "transferFrom",
      "outputs": [
        {
          "internalType": "bool",
          "name": "",
          "type": "bool"
        }
      ],
      "stateMutability": "nonpayable",
      "type": "function"
    },
    {
      "inputs": [
        {
          "internalType": "address",
          "name": "newOwner",
          "type": "address"
        }
      ],
      "name": "transferOwnership",
      "outputs": [],
      "stateMutability": "nonpayable",
      "type": "function"
    },
    {
      "inputs": [
        {
          "internalType": "address",
          "name": "from",
          "type": "address"
        },
        {
          "internalType": "uint256",
          "name": "amount",
          "type": "uint256"
        }
      ],
      "name": "transferTo",
      "outputs": [
        {
          "internalType": "bool",
          "name": "",
          "type": "bool"
        }
      ],
      "stateMutability": "nonpayable",
      "type": "function"
    },
    {
      "inputs": [
        {
          "internalType": "contract IERC20",
          "name": "token",
          "type": "address"
        }
      ],
      "name": "__Treasury_init",
      "outputs": [],
      "stateMutability": "nonpayable",
      "type": "function"
    }
  ],
  "bytecode": "0x608060405234801561001057600080fd5b50610fbf806100206000396000f3fe608060405234801561001057600080fd5b50600436106100cf5760003560e01c80636d4da83b1161008c578063d56bd14211610066578063d56bd1421461019e578063d78d610b146101b3578063e4fc6b6d1461010f578063f2fde38b146101c857600080fd5b80636d4da83b14610172578063715018a6146101855780638da5cb5b1461018d57600080fd5b806301c6adc3146100d45780630c11dedd146100fc57806312065fe01461011157806321df0da7146101275780632ccb1b301461014c5780633449b7061461015f575b600080fd5b6100e76100e2366004610b68565b6101db565b60405190151581526020015b60405180910390f35b61010f61010a366004610b4b565b61026a565b005b6101196103af565b6040519081526020016100f3565b6065546001600160a01b03165b6040516001600160a01b0390911681526020016100f3565b6100e761015a366004610b68565b610430565b61010f61016d366004610b94565b610470565b61010f610180366004610b4b565b61058f565b61010f610605565b6033546001600160a01b0316610134565b6101a661063b565b6040516100f39190610d12565b6101bb6106d2565b6040516100f39190610cb7565b61010f6101d6366004610b4b565b61073f565b60655460405163a9059cbb60e01b81526001600160a01b03848116600483015260248201849052600092169063a9059cbb906044015b602060405180830381600087803b15801561022b57600080fd5b505af115801561023f573d6000803e3d6000fd5b505050506040513d601f19601f820116820180604052508101906102639190610c7c565b9392505050565b60675433905b80156103aa5760006067610285600184610ee4565b8154811061029557610295610f48565b6000918252602090912060059091020180549091506001600160a01b0384811691161415610397576003810154156102cd5750505050565b42600382018190556040805160a08101825283546001600160a01b03168152600184015460208201526002840154918101919091526060810191909152600482015460ff166080820152610320906107da565b50805460028201546001830154604051632832157960e21b8152600481019290925260248201526001600160a01b0386811660448301529091169063a0c855e490606401600060405180830381600087803b15801561037e57600080fd5b505af1158015610392573d6000803e3d6000fd5b505050505b50806103a281610efb565b915050610270565b505050565b6065546040516370a0823160e01b81523060048201526000916001600160a01b0316906370a082319060240160206040518083038186803b1580156103f357600080fd5b505afa158015610407573d6000803e3d6000fd5b505050506040513d601f19601f8201168201806040525081019061042b9190610c9e565b905090565b6065546040516323b872dd60e01b81526001600160a01b0384811660048301523060248301526044820184905260009216906323b872dd90606401610211565b6033546001600160a01b031633146104a35760405162461bcd60e51b815260040161049a90610dcd565b60405180910390fd5b805160ff10156104c95760405163bf767af760e01b815260ff600482015260240161049a565b6104d2816108d2565b60ff166064146104f55760405163a44e5b1b60e01b815260040160405180910390fd5b61050160666000610b0f565b60005b81518160ff16101561058b576066828260ff168151811061052757610527610f48565b6020908102919091018101518254600181018455600093845292829020815193018054919092015160ff16600160a01b026001600160a81b03199091166001600160a01b03909316929092179190911790558061058381610f12565b915050610504565b5050565b600061059b600161092a565b905080156105b3576000805461ff0019166101001790555b6105bc826109b2565b801561058b576000805461ff0019169055604051600181527f7f26b83ff96e1f2b6a682f133852f6798a09c465da95921460cefb38474024989060200160405180910390a15050565b6033546001600160a01b0316331461062f5760405162461bcd60e51b815260040161049a90610dcd565b61063960006109ea565b565b60606067805480602002602001604051908101604052809291908181526020016000905b828210156106c95760008481526020908190206040805160a0810182526005860290920180546001600160a01b0316835260018082015484860152600282015492840192909252600381015460608401526004015460ff166080830152908352909201910161065f565b50505050905090565b60606066805480602002602001604051908101604052809291908181526020016000905b828210156106c957600084815260209081902060408051808201909152908401546001600160a01b0381168252600160a01b900460ff16818301528252600190920191016106f6565b6033546001600160a01b031633146107695760405162461bcd60e51b815260040161049a90610dcd565b6001600160a01b0381166107ce5760405162461bcd60e51b815260206004820152602660248201527f4f776e61626c653a206e6577206f776e657220697320746865207a65726f206160448201526564647265737360d01b606482015260840161049a565b6107d7816109ea565b50565b6065548151604051636eb1769f60e11b81523060048201526001600160a01b0391821660248201526000928392169063dd62ed3e9060440160206040518083038186803b15801561082a57600080fd5b505afa15801561083e573d6000803e3d6000fd5b505050506040513d601f19601f820116820180604052508101906108629190610c9e565b606554845160208601519293506001600160a01b039091169163095ea7b3919061088c9085610ea7565b6040516001600160e01b031960e085901b1681526001600160a01b0390921660048301526024820152604401602060405180830381600087803b15801561022b57600080fd5b600080805b83518160ff16101561092357838160ff16815181106108f8576108f8610f48565b6020026020010151602001518261090f9190610ebf565b91508061091b81610f12565b9150506108d7565b5092915050565b60008054610100900460ff1615610971578160ff16600114801561094d5750303b155b6109695760405162461bcd60e51b815260040161049a90610d7f565b506000919050565b60005460ff8084169116106109985760405162461bcd60e51b815260040161049a90610d7f565b506000805460ff191660ff92909216919091179055600190565b600054610100900460ff166109d95760405162461bcd60e51b815260040161049a90610e02565b6109e1610a3c565b6107d781610a6b565b603380546001600160a01b038381166001600160a01b0319831681179093556040519116919082907f8be0079c531659141344cd1fd0a4f28419497f9722a3daafe3b4186f6b6457e090600090a35050565b600054610100900460ff16610a635760405162461bcd60e51b815260040161049a90610e02565b610639610ab8565b600054610100900460ff16610a925760405162461bcd60e51b815260040161049a90610e02565b610a9a610ae8565b606580546001600160a01b0319166001600160a01b03831617905550565b600054610100900460ff16610adf5760405162461bcd60e51b815260040161049a90610e02565b610639336109ea565b600054610100900460ff166106395760405162461bcd60e51b815260040161049a90610e02565b50805460008255906000526020600020908101906107d791905b80821115610b475780546001600160a81b0319168155600101610b29565b5090565b600060208284031215610b5d57600080fd5b813561026381610f74565b60008060408385031215610b7b57600080fd5b8235610b8681610f74565b946020939093013593505050565b60006020808385031215610ba757600080fd5b823567ffffffffffffffff80821115610bbf57600080fd5b818501915085601f830112610bd357600080fd5b813581811115610be557610be5610f5e565b610bf3848260051b01610e76565b8181528481019250838501600683901b85018601891015610c1357600080fd5b600094505b82851015610c7057604080828b031215610c3157600080fd5b610c39610e4d565b8235610c4481610f74565b81528288013560ff81168114610c5957600080fd5b818901528552600195909501949386019301610c18565b50979650505050505050565b600060208284031215610c8e57600080fd5b8151801515811461026357600080fd5b600060208284031215610cb057600080fd5b5051919050565b602080825282518282018190526000919060409081850190868401855b82811015610d0557815180516001600160a01b0316855286015160ff16868501529284019290850190600101610cd4565b5091979650505050505050565b602080825282518282018190526000919060409081850190868401855b82811015610d0557815180516001600160a01b03168552868101518786015285810151868601526060808201519086015260809081015160ff169085015260a09093019290850190600101610d2f565b6020808252602e908201527f496e697469616c697a61626c653a20636f6e747261637420697320616c72656160408201526d191e481a5b9a5d1a585b1a5e995960921b606082015260800190565b6020808252818101527f4f776e61626c653a2063616c6c6572206973206e6f7420746865206f776e6572604082015260600190565b6020808252602b908201527f496e697469616c697a61626c653a20636f6e7472616374206973206e6f74206960408201526a6e697469616c697a696e6760a81b606082015260800190565b6040805190810167ffffffffffffffff81118282101715610e7057610e70610f5e565b60405290565b604051601f8201601f1916810167ffffffffffffffff81118282101715610e9f57610e9f610f5e565b604052919050565b60008219821115610eba57610eba610f32565b500190565b600060ff821660ff84168060ff03821115610edc57610edc610f32565b019392505050565b600082821015610ef657610ef6610f32565b500390565b600081610f0a57610f0a610f32565b506000190190565b600060ff821660ff811415610f2957610f29610f32565b60010192915050565b634e487b7160e01b600052601160045260246000fd5b634e487b7160e01b600052603260045260246000fd5b634e487b7160e01b600052604160045260246000fd5b6001600160a01b03811681146107d757600080fdfea2646970667358221220ae53697191d323c1272e45d5c982da51ba356372fbfbabe26026bf4c66fddb4964736f6c63430008070033",
  "immutableReferences": {},
  "source": "// SPDX-License-Identifier: MIT\npragma solidity 0.8.7;\n\nimport \"@openzeppelin/contracts-upgradeable/proxy/utils/Initializable.sol\";\n\nimport \"./BankAccountSupplier.sol\";\n\ncontract Treasury is Initializable, BankAccountSupplier {\n    function __Treasury_init(IERC20 token) public initializer {\n        __BankAccountSupplier_init(token);\n    }\n}\n",
  "sourcePath": "/Users/ievgencherkaskyi/Projects/tivan/hexagons/contracts/Treasury.sol",
  "compiler": {
    "name": "solc",
    "version": "0.8.7+commit.e28d00a7.Emscripten.clang"
  },
  "schemaVersion": "3.3.3",
  "updatedAt": "2022-07-11T22:06:52.814Z",
  "devdoc": {
    "kind": "dev",
    "methods": {
      "owner()": {
        "details": "Returns the address of the current owner."
      },
      "renounceOwnership()": {
        "details": "Leaves the contract without owner. It will not be possible to call `onlyOwner` functions anymore. Can only be called by the current owner. NOTE: Renouncing ownership will leave the contract without an owner, thereby removing any functionality that is only available to the owner."
      },
      "transferOwnership(address)": {
        "details": "Transfers ownership of the contract to a new account (`newOwner`). Can only be called by the current owner."
      }
    },
    "version": 1
  },
  "userdoc": {
    "kind": "user",
    "methods": {},
    "version": 1
  }
}