{
  "contractName": "Treasury",
  "abi": [
    {
      "inputs": [
        {
          "internalType": "contract IERC20",
          "name": "token",
          "type": "address"
        }
      ],
      "stateMutability": "nonpayable",
      "type": "constructor"
    },
    {
      "inputs": [
        {
          "internalType": "uint8",
          "name": "maxNumber",
          "type": "uint8"
        }
      ],
      "name": "BankAccountSupplierTooMuchAgreements",
      "type": "error"
    },
    {
      "inputs": [],
      "name": "BankAccountSuppliertTotalSharesIsNotValid",
      "type": "error"
    },
    {
      "anonymous": false,
      "inputs": [
        {
          "indexed": false,
          "internalType": "uint8",
          "name": "version",
          "type": "uint8"
        }
      ],
      "name": "Initialized",
      "type": "event"
    },
    {
      "inputs": [],
      "name": "distribute",
      "outputs": [],
      "stateMutability": "nonpayable",
      "type": "function"
    },
    {
      "inputs": [],
      "name": "getBalance",
      "outputs": [
        {
          "internalType": "uint256",
          "name": "",
          "type": "uint256"
        }
      ],
      "stateMutability": "view",
      "type": "function",
      "constant": true
    },
    {
      "inputs": [],
      "name": "getPayments",
      "outputs": [
        {
          "components": [
            {
              "internalType": "contract Refillable",
              "name": "agreement",
              "type": "address"
            },
            {
              "internalType": "uint256",
              "name": "amount",
              "type": "uint256"
            },
            {
              "internalType": "uint256",
              "name": "date",
              "type": "uint256"
            },
            {
              "internalType": "uint256",
              "name": "payed",
              "type": "uint256"
            },
            {
              "internalType": "uint8",
              "name": "share",
              "type": "uint8"
            }
          ],
          "internalType": "struct Payment[]",
          "name": "",
          "type": "tuple[]"
        }
      ],
      "stateMutability": "view",
      "type": "function",
      "constant": true
    },
    {
      "inputs": [],
      "name": "getRecipients",
      "outputs": [
        {
          "components": [
            {
              "internalType": "contract Refillable",
              "name": "agreement",
              "type": "address"
            },
            {
              "internalType": "uint8",
              "name": "share",
              "type": "uint8"
            }
          ],
          "internalType": "struct BankAccountRecipient[]",
          "name": "",
          "type": "tuple[]"
        }
      ],
      "stateMutability": "view",
      "type": "function",
      "constant": true
    },
    {
      "inputs": [],
      "name": "getToken",
      "outputs": [
        {
          "internalType": "contract IERC20",
          "name": "",
          "type": "address"
        }
      ],
      "stateMutability": "view",
      "type": "function",
      "constant": true
    },
    {
      "inputs": [
        {
          "components": [
            {
              "internalType": "contract Refillable",
              "name": "agreement",
              "type": "address"
            },
            {
              "internalType": "uint8",
              "name": "share",
              "type": "uint8"
            }
          ],
          "internalType": "struct BankAccountRecipient[]",
          "name": "recipients",
          "type": "tuple[]"
        }
      ],
      "name": "initialize",
      "outputs": [],
      "stateMutability": "nonpayable",
      "type": "function"
    },
    {
      "inputs": [
        {
          "internalType": "address",
          "name": "sender",
          "type": "address"
        }
      ],
      "name": "pay",
      "outputs": [],
      "stateMutability": "nonpayable",
      "type": "function"
    },
    {
      "inputs": [
        {
          "internalType": "address",
          "name": "to",
          "type": "address"
        },
        {
          "internalType": "uint256",
          "name": "amount",
          "type": "uint256"
        }
      ],
      "name": "transferFrom",
      "outputs": [
        {
          "internalType": "bool",
          "name": "",
          "type": "bool"
        }
      ],
      "stateMutability": "nonpayable",
      "type": "function"
    },
    {
      "inputs": [
        {
          "internalType": "uint256",
          "name": "amount",
          "type": "uint256"
        }
      ],
      "name": "transferTo",
      "outputs": [
        {
          "internalType": "bool",
          "name": "",
          "type": "bool"
        }
      ],
      "stateMutability": "nonpayable",
      "type": "function"
    }
  ],
  "bytecode": "0x608060405234801561001057600080fd5b50604051610d26380380610d2683398101604081905261002f91610054565b600080546001600160a01b0319166001600160a01b0392909216919091179055610084565b60006020828403121561006657600080fd5b81516001600160a01b038116811461007d57600080fd5b9392505050565b610c93806100936000396000f3fe608060405234801561001057600080fd5b50600436106100935760003560e01c80632c4b24ae116100665780632c4b24ae14610106578063ba0f49b714610119578063d56bd1421461012c578063d78d610b14610141578063e4fc6b6d146100d357600080fd5b806301c6adc3146100985780630c11dedd146100c057806312065fe0146100d557806321df0da7146100eb575b600080fd5b6100ab6100a63660046108a3565b610156565b60405190151581526020015b60405180910390f35b6100d36100ce366004610886565b6101e5565b005b6100dd61032a565b6040519081526020016100b7565b6000546040516001600160a01b0390911681526020016100b7565b6100d36101143660046108cf565b6103ab565b6100ab6101273660046109d9565b61050d565b610134610567565b6040516100b79190610a66565b6101496105fe565b6040516100b79190610a0b565b6000805460405163a9059cbb60e01b81526001600160a01b038581166004830152602482018590529091169063a9059cbb906044015b602060405180830381600087803b1580156101a657600080fd5b505af11580156101ba573d6000803e3d6000fd5b505050506040513d601f19601f820116820180604052508101906101de91906109b7565b9392505050565b60025433905b80156103255760006002610200600184610bb8565b8154811061021057610210610c1c565b6000918252602090912060059091020180549091506001600160a01b0384811691161415610312576003810154156102485750505050565b42600382018190556040805160a08101825283546001600160a01b03168152600184015460208201526002840154918101919091526060810191909152600482015460ff16608082015261029b9061066b565b50805460028201546001830154604051632832157960e21b8152600481019290925260248201526001600160a01b0386811660448301529091169063a0c855e490606401600060405180830381600087803b1580156102f957600080fd5b505af115801561030d573d6000803e3d6000fd5b505050505b508061031d81610bcf565b9150506101eb565b505050565b600080546040516370a0823160e01b81523060048201526001600160a01b03909116906370a082319060240160206040518083038186803b15801561036e57600080fd5b505afa158015610382573d6000803e3d6000fd5b505050506040513d601f19601f820116820180604052508101906103a691906109f2565b905090565b60006103b7600161074f565b905080156103d3576000805460ff60a81b1916600160a81b1790555b815160ff10156103fe57604051636982464560e01b815260ff60048201526024015b60405180910390fd5b610407826107ea565b60ff1660641461042a5760405163a44e5b1b60e01b815260040160405180910390fd5b61043660016000610842565b60005b82518160ff1610156104c0576001838260ff168151811061045c5761045c610c1c565b6020908102919091018101518254600181018455600093845292829020815193018054919092015160ff16600160a01b026001600160a81b03199091166001600160a01b0390931692909217919091179055806104b881610be6565b915050610439565b508015610509576000805460ff60a81b19169055604051600181527f7f26b83ff96e1f2b6a682f133852f6798a09c465da95921460cefb38474024989060200160405180910390a15b5050565b600080336000546040516323b872dd60e01b81526001600160a01b038084166004830152306024830152604482018790529293509116906323b872dd90606401602060405180830381600087803b1580156101a657600080fd5b60606002805480602002602001604051908101604052809291908181526020016000905b828210156105f55760008481526020908190206040805160a0810182526005860290920180546001600160a01b0316835260018082015484860152600282015492840192909252600381015460608401526004015460ff166080830152908352909201910161058b565b50505050905090565b60606001805480602002602001604051908101604052809291908181526020016000905b828210156105f557600084815260209081902060408051808201909152908401546001600160a01b0381168252600160a01b900460ff1681830152825260019092019101610622565b600080548251604051636eb1769f60e11b81523060048201526001600160a01b0391821660248201528392919091169063dd62ed3e9060440160206040518083038186803b1580156106bc57600080fd5b505afa1580156106d0573d6000803e3d6000fd5b505050506040513d601f19601f820116820180604052508101906106f491906109f2565b600054845160208601519293506001600160a01b039091169163095ea7b3919061071e9085610b7b565b6040516001600160e01b031960e085901b1681526001600160a01b039092166004830152602482015260440161018c565b60008054600160a81b900460ff1615610798578160ff1660011480156107745750303b155b6107905760405162461bcd60e51b81526004016103f590610ad3565b506000919050565b60005460ff808416600160a01b90920416106107c65760405162461bcd60e51b81526004016103f590610ad3565b506000805460ff909216600160a01b0260ff60a01b19909216919091179055600190565b600080805b83518160ff16101561083b57838160ff168151811061081057610810610c1c565b602002602001015160200151826108279190610b93565b91508061083381610be6565b9150506107ef565b5092915050565b50805460008255906000526020600020908101906108609190610863565b50565b5b808211156108825780546001600160a81b0319168155600101610864565b5090565b60006020828403121561089857600080fd5b81356101de81610c48565b600080604083850312156108b657600080fd5b82356108c181610c48565b946020939093013593505050565b600060208083850312156108e257600080fd5b823567ffffffffffffffff808211156108fa57600080fd5b818501915085601f83011261090e57600080fd5b81358181111561092057610920610c32565b61092e848260051b01610b4a565b8181528481019250838501600683901b8501860189101561094e57600080fd5b600094505b828510156109ab57604080828b03121561096c57600080fd5b610974610b21565b823561097f81610c48565b81528288013560ff8116811461099457600080fd5b818901528552600195909501949386019301610953565b50979650505050505050565b6000602082840312156109c957600080fd5b815180151581146101de57600080fd5b6000602082840312156109eb57600080fd5b5035919050565b600060208284031215610a0457600080fd5b5051919050565b602080825282518282018190526000919060409081850190868401855b82811015610a5957815180516001600160a01b0316855286015160ff16868501529284019290850190600101610a28565b5091979650505050505050565b602080825282518282018190526000919060409081850190868401855b82811015610a5957815180516001600160a01b03168552868101518786015285810151868601526060808201519086015260809081015160ff169085015260a09093019290850190600101610a83565b6020808252602e908201527f496e697469616c697a61626c653a20636f6e747261637420697320616c72656160408201526d191e481a5b9a5d1a585b1a5e995960921b606082015260800190565b6040805190810167ffffffffffffffff81118282101715610b4457610b44610c32565b60405290565b604051601f8201601f1916810167ffffffffffffffff81118282101715610b7357610b73610c32565b604052919050565b60008219821115610b8e57610b8e610c06565b500190565b600060ff821660ff84168060ff03821115610bb057610bb0610c06565b019392505050565b600082821015610bca57610bca610c06565b500390565b600081610bde57610bde610c06565b506000190190565b600060ff821660ff811415610bfd57610bfd610c06565b60010192915050565b634e487b7160e01b600052601160045260246000fd5b634e487b7160e01b600052603260045260246000fd5b634e487b7160e01b600052604160045260246000fd5b6001600160a01b038116811461086057600080fdfea26469706673582212206976aade04b6970666d5ed09cf59410a4aa02cbc5bd02aa6421d9ba94136122064736f6c63430008070033",
  "immutableReferences": {},
  "source": "// SPDX-License-Identifier: MIT\npragma solidity 0.8.7;\n\nimport \"./BankAccountSupplier.sol\";\n\ncontract Treasury is BankAccountSupplier {\n    constructor(IERC20 token) BankAccountSupplier(token) {}\n}\n",
  "sourcePath": "/Users/ievgencherkaskyi/Projects/tivan/launchpool/contracts/Treasury.sol",
  "compiler": {
    "name": "solc",
    "version": "0.8.7+commit.e28d00a7.Emscripten.clang"
  },
  "schemaVersion": "3.4.7",
  "updatedAt": "2022-06-13T07:52:39.948Z",
  "networkType": "ethereum",
  "devdoc": {
    "kind": "dev",
    "methods": {},
    "version": 1
  },
  "userdoc": {
    "kind": "user",
    "methods": {},
    "version": 1
  }
}