{
  "contractName": "TVT",
  "abi": [
    {
      "inputs": [
        {
          "internalType": "string",
          "name": "name",
          "type": "string"
        },
        {
          "internalType": "string",
          "name": "symbol",
          "type": "string"
        }
      ],
      "stateMutability": "nonpayable",
      "type": "constructor"
    },
    {
      "anonymous": false,
      "inputs": [
        {
          "indexed": true,
          "internalType": "address",
          "name": "owner",
          "type": "address"
        },
        {
          "indexed": true,
          "internalType": "address",
          "name": "spender",
          "type": "address"
        },
        {
          "indexed": false,
          "internalType": "uint256",
          "name": "value",
          "type": "uint256"
        }
      ],
      "name": "Approval",
      "type": "event"
    },
    {
      "anonymous": false,
      "inputs": [
        {
          "indexed": true,
          "internalType": "address",
          "name": "delegator",
          "type": "address"
        },
        {
          "indexed": true,
          "internalType": "address",
          "name": "fromDelegate",
          "type": "address"
        },
        {
          "indexed": true,
          "internalType": "address",
          "name": "toDelegate",
          "type": "address"
        }
      ],
      "name": "DelegateChanged",
      "type": "event"
    },
    {
      "anonymous": false,
      "inputs": [
        {
          "indexed": true,
          "internalType": "address",
          "name": "delegate",
          "type": "address"
        },
        {
          "indexed": false,
          "internalType": "uint256",
          "name": "previousBalance",
          "type": "uint256"
        },
        {
          "indexed": false,
          "internalType": "uint256",
          "name": "newBalance",
          "type": "uint256"
        }
      ],
      "name": "DelegateVotesChanged",
      "type": "event"
    },
    {
      "anonymous": false,
      "inputs": [
        {
          "indexed": true,
          "internalType": "address",
          "name": "previousOwner",
          "type": "address"
        },
        {
          "indexed": true,
          "internalType": "address",
          "name": "newOwner",
          "type": "address"
        }
      ],
      "name": "OwnershipTransferred",
      "type": "event"
    },
    {
      "anonymous": false,
      "inputs": [
        {
          "indexed": true,
          "internalType": "address",
          "name": "from",
          "type": "address"
        },
        {
          "indexed": true,
          "internalType": "address",
          "name": "to",
          "type": "address"
        },
        {
          "indexed": false,
          "internalType": "uint256",
          "name": "value",
          "type": "uint256"
        }
      ],
      "name": "Transfer",
      "type": "event"
    },
    {
      "inputs": [],
      "name": "DELEGATION_TYPEHASH",
      "outputs": [
        {
          "internalType": "bytes32",
          "name": "",
          "type": "bytes32"
        }
      ],
      "stateMutability": "view",
      "type": "function",
      "constant": true
    },
    {
      "inputs": [],
      "name": "DOMAIN_TYPEHASH",
      "outputs": [
        {
          "internalType": "bytes32",
          "name": "",
          "type": "bytes32"
        }
      ],
      "stateMutability": "view",
      "type": "function",
      "constant": true
    },
    {
      "inputs": [
        {
          "internalType": "address",
          "name": "owner",
          "type": "address"
        },
        {
          "internalType": "address",
          "name": "spender",
          "type": "address"
        }
      ],
      "name": "allowance",
      "outputs": [
        {
          "internalType": "uint256",
          "name": "",
          "type": "uint256"
        }
      ],
      "stateMutability": "view",
      "type": "function",
      "constant": true
    },
    {
      "inputs": [
        {
          "internalType": "address",
          "name": "spender",
          "type": "address"
        },
        {
          "internalType": "uint256",
          "name": "amount",
          "type": "uint256"
        }
      ],
      "name": "approve",
      "outputs": [
        {
          "internalType": "bool",
          "name": "",
          "type": "bool"
        }
      ],
      "stateMutability": "nonpayable",
      "type": "function"
    },
    {
      "inputs": [
        {
          "internalType": "address",
          "name": "account",
          "type": "address"
        }
      ],
      "name": "balanceOf",
      "outputs": [
        {
          "internalType": "uint256",
          "name": "",
          "type": "uint256"
        }
      ],
      "stateMutability": "view",
      "type": "function",
      "constant": true
    },
    {
      "inputs": [
        {
          "internalType": "address",
          "name": "",
          "type": "address"
        },
        {
          "internalType": "uint32",
          "name": "",
          "type": "uint32"
        }
      ],
      "name": "checkpoints",
      "outputs": [
        {
          "internalType": "uint32",
          "name": "fromBlock",
          "type": "uint32"
        },
        {
          "internalType": "uint256",
          "name": "votes",
          "type": "uint256"
        }
      ],
      "stateMutability": "view",
      "type": "function",
      "constant": true
    },
    {
      "inputs": [],
      "name": "decimals",
      "outputs": [
        {
          "internalType": "uint8",
          "name": "",
          "type": "uint8"
        }
      ],
      "stateMutability": "view",
      "type": "function",
      "constant": true
    },
    {
      "inputs": [
        {
          "internalType": "address",
          "name": "spender",
          "type": "address"
        },
        {
          "internalType": "uint256",
          "name": "subtractedValue",
          "type": "uint256"
        }
      ],
      "name": "decreaseAllowance",
      "outputs": [
        {
          "internalType": "bool",
          "name": "",
          "type": "bool"
        }
      ],
      "stateMutability": "nonpayable",
      "type": "function"
    },
    {
      "inputs": [],
      "name": "getOwner",
      "outputs": [
        {
          "internalType": "address",
          "name": "",
          "type": "address"
        }
      ],
      "stateMutability": "view",
      "type": "function",
      "constant": true
    },
    {
      "inputs": [
        {
          "internalType": "address",
          "name": "spender",
          "type": "address"
        },
        {
          "internalType": "uint256",
          "name": "addedValue",
          "type": "uint256"
        }
      ],
      "name": "increaseAllowance",
      "outputs": [
        {
          "internalType": "bool",
          "name": "",
          "type": "bool"
        }
      ],
      "stateMutability": "nonpayable",
      "type": "function"
    },
    {
      "inputs": [],
      "name": "maxSupply",
      "outputs": [
        {
          "internalType": "uint256",
          "name": "",
          "type": "uint256"
        }
      ],
      "stateMutability": "pure",
      "type": "function",
      "constant": true
    },
    {
      "inputs": [],
      "name": "name",
      "outputs": [
        {
          "internalType": "string",
          "name": "",
          "type": "string"
        }
      ],
      "stateMutability": "view",
      "type": "function",
      "constant": true
    },
    {
      "inputs": [
        {
          "internalType": "address",
          "name": "",
          "type": "address"
        }
      ],
      "name": "nonces",
      "outputs": [
        {
          "internalType": "uint256",
          "name": "",
          "type": "uint256"
        }
      ],
      "stateMutability": "view",
      "type": "function",
      "constant": true
    },
    {
      "inputs": [
        {
          "internalType": "address",
          "name": "",
          "type": "address"
        }
      ],
      "name": "numCheckpoints",
      "outputs": [
        {
          "internalType": "uint32",
          "name": "",
          "type": "uint32"
        }
      ],
      "stateMutability": "view",
      "type": "function",
      "constant": true
    },
    {
      "inputs": [],
      "name": "owner",
      "outputs": [
        {
          "internalType": "address",
          "name": "",
          "type": "address"
        }
      ],
      "stateMutability": "view",
      "type": "function",
      "constant": true
    },
    {
      "inputs": [],
      "name": "preMineSupply",
      "outputs": [
        {
          "internalType": "uint256",
          "name": "",
          "type": "uint256"
        }
      ],
      "stateMutability": "pure",
      "type": "function",
      "constant": true
    },
    {
      "inputs": [],
      "name": "renounceOwnership",
      "outputs": [],
      "stateMutability": "nonpayable",
      "type": "function"
    },
    {
      "inputs": [],
      "name": "symbol",
      "outputs": [
        {
          "internalType": "string",
          "name": "",
          "type": "string"
        }
      ],
      "stateMutability": "view",
      "type": "function",
      "constant": true
    },
    {
      "inputs": [],
      "name": "totalSupply",
      "outputs": [
        {
          "internalType": "uint256",
          "name": "",
          "type": "uint256"
        }
      ],
      "stateMutability": "view",
      "type": "function",
      "constant": true
    },
    {
      "inputs": [
        {
          "internalType": "address",
          "name": "recipient",
          "type": "address"
        },
        {
          "internalType": "uint256",
          "name": "amount",
          "type": "uint256"
        }
      ],
      "name": "transfer",
      "outputs": [
        {
          "internalType": "bool",
          "name": "",
          "type": "bool"
        }
      ],
      "stateMutability": "nonpayable",
      "type": "function"
    },
    {
      "inputs": [
        {
          "internalType": "address",
          "name": "sender",
          "type": "address"
        },
        {
          "internalType": "address",
          "name": "recipient",
          "type": "address"
        },
        {
          "internalType": "uint256",
          "name": "amount",
          "type": "uint256"
        }
      ],
      "name": "transferFrom",
      "outputs": [
        {
          "internalType": "bool",
          "name": "",
          "type": "bool"
        }
      ],
      "stateMutability": "nonpayable",
      "type": "function"
    },
    {
      "inputs": [
        {
          "internalType": "address",
          "name": "newOwner",
          "type": "address"
        }
      ],
      "name": "transferOwnership",
      "outputs": [],
      "stateMutability": "nonpayable",
      "type": "function"
    },
    {
      "inputs": [
        {
          "internalType": "address",
          "name": "_to",
          "type": "address"
        },
        {
          "internalType": "uint256",
          "name": "_amount",
          "type": "uint256"
        }
      ],
      "name": "mint",
      "outputs": [
        {
          "internalType": "bool",
          "name": "",
          "type": "bool"
        }
      ],
      "stateMutability": "nonpayable",
      "type": "function"
    },
    {
      "inputs": [
        {
          "internalType": "uint256",
          "name": "amount",
          "type": "uint256"
        }
      ],
      "name": "mint",
      "outputs": [
        {
          "internalType": "bool",
          "name": "",
          "type": "bool"
        }
      ],
      "stateMutability": "nonpayable",
      "type": "function"
    },
    {
      "inputs": [
        {
          "internalType": "address",
          "name": "delegator",
          "type": "address"
        }
      ],
      "name": "delegates",
      "outputs": [
        {
          "internalType": "address",
          "name": "",
          "type": "address"
        }
      ],
      "stateMutability": "view",
      "type": "function",
      "constant": true
    },
    {
      "inputs": [
        {
          "internalType": "address",
          "name": "delegatee",
          "type": "address"
        }
      ],
      "name": "delegate",
      "outputs": [],
      "stateMutability": "nonpayable",
      "type": "function"
    },
    {
      "inputs": [
        {
          "internalType": "address",
          "name": "delegatee",
          "type": "address"
        },
        {
          "internalType": "uint256",
          "name": "nonce",
          "type": "uint256"
        },
        {
          "internalType": "uint256",
          "name": "expiry",
          "type": "uint256"
        },
        {
          "internalType": "uint8",
          "name": "v",
          "type": "uint8"
        },
        {
          "internalType": "bytes32",
          "name": "r",
          "type": "bytes32"
        },
        {
          "internalType": "bytes32",
          "name": "s",
          "type": "bytes32"
        }
      ],
      "name": "delegateBySig",
      "outputs": [],
      "stateMutability": "nonpayable",
      "type": "function"
    },
    {
      "inputs": [
        {
          "internalType": "address",
          "name": "account",
          "type": "address"
        }
      ],
      "name": "getCurrentVotes",
      "outputs": [
        {
          "internalType": "uint256",
          "name": "",
          "type": "uint256"
        }
      ],
      "stateMutability": "view",
      "type": "function",
      "constant": true
    },
    {
      "inputs": [
        {
          "internalType": "address",
          "name": "account",
          "type": "address"
        },
        {
          "internalType": "uint256",
          "name": "blockNumber",
          "type": "uint256"
        }
      ],
      "name": "getPriorVotes",
      "outputs": [
        {
          "internalType": "uint256",
          "name": "",
          "type": "uint256"
        }
      ],
      "stateMutability": "view",
      "type": "function",
      "constant": true
    },
    {
      "inputs": [
        {
          "internalType": "address",
          "name": "_addMinter",
          "type": "address"
        }
      ],
      "name": "addMinter",
      "outputs": [
        {
          "internalType": "bool",
          "name": "",
          "type": "bool"
        }
      ],
      "stateMutability": "nonpayable",
      "type": "function"
    },
    {
      "inputs": [
        {
          "internalType": "address",
          "name": "_delMinter",
          "type": "address"
        }
      ],
      "name": "delMinter",
      "outputs": [
        {
          "internalType": "bool",
          "name": "",
          "type": "bool"
        }
      ],
      "stateMutability": "nonpayable",
      "type": "function"
    },
    {
      "inputs": [],
      "name": "getMinterLength",
      "outputs": [
        {
          "internalType": "uint256",
          "name": "",
          "type": "uint256"
        }
      ],
      "stateMutability": "view",
      "type": "function",
      "constant": true
    },
    {
      "inputs": [
        {
          "internalType": "address",
          "name": "account",
          "type": "address"
        }
      ],
      "name": "isMinter",
      "outputs": [
        {
          "internalType": "bool",
          "name": "",
          "type": "bool"
        }
      ],
      "stateMutability": "view",
      "type": "function",
      "constant": true
    },
    {
      "inputs": [
        {
          "internalType": "uint256",
          "name": "_index",
          "type": "uint256"
        }
      ],
      "name": "getMinter",
      "outputs": [
        {
          "internalType": "address",
          "name": "",
          "type": "address"
        }
      ],
      "stateMutability": "view",
      "type": "function",
      "constant": true
    }
  ],
  "bytecode": "0x60806040523480156200001157600080fd5b5060405162002316380380620023168339810160408190526200003491620003a9565b818162000041336200009c565b8151620000569060049060208501906200024c565b5080516200006c9060059060208401906200024c565b506006805460ff1916601217905562000091336a05ca4ec2a79a7f67000000620000ec565b50505050506200048d565b600080546001600160a01b038381166001600160a01b0319831681178455604051919092169283917f8be0079c531659141344cd1fd0a4f28419497f9722a3daafe3b4186f6b6457e09190a35050565b60006001600160a01b038316620001495760405162461bcd60e51b815260206004820152601f60248201527f42455032303a206d696e7420746f20746865207a65726f206164647265737300604482015260640160405180910390fd5b6b024306c4097859c43c00000062000172600354846200023760201b6200106a1790919060201c565b1115620001825750600062000231565b6200019e826003546200023760201b6200106a1790919060201c565b6003556001600160a01b038316600090815260016020908152604090912054620001d39184906200106a62000237821b17901c565b6001600160a01b0384166000818152600160205260408082209390935591519091907fddf252ad1be2c89b69c2b068fc378daa952ba7f163c4a11628f55a4df523b3ef90620002259086815260200190565b60405180910390a35060015b92915050565b600062000245828462000413565b9392505050565b8280546200025a906200043a565b90600052602060002090601f0160209004810192826200027e5760008555620002c9565b82601f106200029957805160ff1916838001178555620002c9565b82800160010185558215620002c9579182015b82811115620002c9578251825591602001919060010190620002ac565b50620002d7929150620002db565b5090565b5b80821115620002d75760008155600101620002dc565b600082601f8301126200030457600080fd5b81516001600160401b038082111562000321576200032162000477565b604051601f8301601f19908116603f011681019082821181831017156200034c576200034c62000477565b816040528381526020925086838588010111156200036957600080fd5b600091505b838210156200038d57858201830151818301840152908201906200036e565b838211156200039f5760008385830101525b9695505050505050565b60008060408385031215620003bd57600080fd5b82516001600160401b0380821115620003d557600080fd5b620003e386838701620002f2565b93506020850151915080821115620003fa57600080fd5b506200040985828601620002f2565b9150509250929050565b600082198211156200043557634e487b7160e01b600052601160045260246000fd5b500190565b600181811c908216806200044f57607f821691505b602082108114156200047157634e487b7160e01b600052602260045260246000fd5b50919050565b634e487b7160e01b600052604160045260246000fd5b611e79806200049d6000396000f3fe608060405234801561001057600080fd5b50600436106102065760003560e01c8063782d6fe11161011a578063a9059cbb116100ad578063d5abeb011161007c578063d5abeb01146104a8578063dd62ed3e146104ba578063e7a324dc146104f3578063f1127ed81461051a578063f2fde38b1461057157600080fd5b8063a9059cbb1461045c578063aa271e1a1461046f578063b4b5ea5714610482578063c3cda5201461049557600080fd5b806395d89b41116100e957806395d89b411461041b578063983b2d5614610423578063a0712d6814610436578063a457c2d71461044957600080fd5b8063782d6fe1146103d75780637ecebe00146103ea578063893d20e81461040a5780638da5cb5b1461040a57600080fd5b8063313ce5671161019d5780635b7121f81161016c5780635b7121f8146103435780635c19a95c146103565780636fcfff451461036b57806370a08231146103a6578063715018a6146103cf57600080fd5b8063313ce567146102c457806339509351146102d957806340c10f19146102ec578063587cde1e146102ff57600080fd5b806318160ddd116101d957806318160ddd1461026f57806320606b701461027757806323338b881461029e57806323b872dd146102b157600080fd5b80630323aac71461020b57806306fdde0314610226578063095ea7b31461023b5780630c16ea831461025e575b600080fd5b610213610584565b6040519081526020015b60405180910390f35b61022e610595565b60405161021d9190611bce565b61024e610249366004611aeb565b610627565b604051901515815260200161021d565b6a05ca4ec2a79a7f67000000610213565b600354610213565b6102137f8cad95687ba82c2ce50e74f7b754645e5117c3a5bec8151c0726d5857980a86681565b61024e6102ac366004611a61565b61063e565b61024e6102bf366004611aaf565b6106e7565b60065460405160ff909116815260200161021d565b61024e6102e7366004611aeb565b610750565b61024e6102fa366004611aeb565b610786565b61032b61030d366004611a61565b6001600160a01b039081166000908152600960205260409020541690565b6040516001600160a01b03909116815260200161021d565b61032b610351366004611bb5565b61080d565b610369610364366004611a61565b6108a6565b005b610391610379366004611a61565b600b6020526000908152604090205463ffffffff1681565b60405163ffffffff909116815260200161021d565b6102136103b4366004611a61565b6001600160a01b031660009081526001602052604090205490565b6103696108b3565b6102136103e5366004611aeb565b6108e9565b6102136103f8366004611a61565b600c6020526000908152604090205481565b6000546001600160a01b031661032b565b61022e610b4d565b61024e610431366004611a61565b610b5c565b61024e610444366004611bb5565b610bf4565b61024e610457366004611aeb565b610c29565b61024e61046a366004611aeb565b610c78565b61024e61047d366004611a61565b610c85565b610213610490366004611a61565b610c92565b6103696104a3366004611b15565b610d07565b6b024306c4097859c43c000000610213565b6102136104c8366004611a7c565b6001600160a01b03918216600090815260026020908152604080832093909416825291909152205490565b6102137fe48329057bfd03d55e49b547132e39cffd9c1820ad7b9d4c5307691425d15adf81565b610555610528366004611b75565b600a6020908152600092835260408084209091529082529020805460019091015463ffffffff9091169082565b6040805163ffffffff909316835260208301919091520161021d565b61036961057f366004611a61565b610fd2565b60006105906007611076565b905090565b6060600480546105a490611d05565b80601f01602080910402602001604051908101604052809291908181526020018280546105d090611d05565b801561061d5780601f106105f25761010080835404028352916020019161061d565b820191906000526020600020905b81548152906001019060200180831161060057829003601f168201915b5050505050905090565b6000610634338484611080565b5060015b92915050565b600080546001600160a01b031633146106725760405162461bcd60e51b815260040161066990611c23565b60405180910390fd5b6001600160a01b0382166106d45760405162461bcd60e51b815260206004820152602360248201527f5456543a205f64656c4d696e74657220697320746865207a65726f206164647260448201526265737360e81b6064820152608401610669565b6106df6007836111a5565b90505b919050565b60006106f48484846111ba565b610746843361074185604051806060016040528060288152602001611d9e602891396001600160a01b038a1660009081526002602090815260408083203384529091529020549190611340565b611080565b5060019392505050565b3360008181526002602090815260408083206001600160a01b03871684529091528120549091610634918590610741908661106a565b600061079133610c85565b6107dd5760405162461bcd60e51b815260206004820152601860248201527f63616c6c6572206973206e6f7420746865206d696e74657200000000000000006044820152606401610669565b6107e7838361136c565b506001600160a01b03808416600090815260096020526040812054610634921684611489565b600080546001600160a01b031633146108385760405162461bcd60e51b815260040161066990611c23565b6001610842610584565b61084c9190611cc9565b82111561089b5760405162461bcd60e51b815260206004820152601860248201527f5456543a20696e646578206f7574206f6620626f756e647300000000000000006044820152606401610669565b6106df6007836115ed565b6108b033826115f9565b50565b6000546001600160a01b031633146108dd5760405162461bcd60e51b815260040161066990611c23565b6108e76000611679565b565b60004382106109495760405162461bcd60e51b815260206004820152602660248201527f5456543a3a6765745072696f72566f7465733a206e6f742079657420646574656044820152651c9b5a5b995960d21b6064820152608401610669565b6001600160a01b0383166000908152600b602052604090205463ffffffff1680610977576000915050610638565b6001600160a01b0384166000908152600a60205260408120849161099c600185611ce0565b63ffffffff90811682526020820192909252604001600020541611610a05576001600160a01b0384166000908152600a60205260408120906109df600184611ce0565b63ffffffff1663ffffffff16815260200190815260200160002060010154915050610638565b6001600160a01b0384166000908152600a6020908152604080832083805290915290205463ffffffff16831015610a40576000915050610638565b600080610a4e600184611ce0565b90505b8163ffffffff168163ffffffff161115610b165760006002610a738484611ce0565b610a7d9190611c98565b610a879083611ce0565b6001600160a01b0388166000908152600a6020908152604080832063ffffffff8086168552908352928190208151808301909252805490931680825260019093015491810191909152919250871415610aea576020015194506106389350505050565b805163ffffffff16871115610b0157819350610b0f565b610b0c600183611ce0565b92505b5050610a51565b506001600160a01b0385166000908152600a6020908152604080832063ffffffff9094168352929052206001015491505092915050565b6060600580546105a490611d05565b600080546001600160a01b03163314610b875760405162461bcd60e51b815260040161066990611c23565b6001600160a01b038216610be95760405162461bcd60e51b815260206004820152602360248201527f5456543a205f6164644d696e74657220697320746865207a65726f206164647260448201526265737360e81b6064820152608401610669565b6106df6007836116c9565b600080546001600160a01b03163314610c1f5760405162461bcd60e51b815260040161066990611c23565b610634338361136c565b6000610634338461074185604051806060016040528060258152602001611e1f602591393360009081526002602090815260408083206001600160a01b038d1684529091529020549190611340565b60006106343384846111ba565b60006106df6007836116de565b6001600160a01b0381166000908152600b602052604081205463ffffffff1680610cbd576000610d00565b6001600160a01b0383166000908152600a6020526040812090610ce1600184611ce0565b63ffffffff1663ffffffff168152602001908152602001600020600101545b9392505050565b60007f8cad95687ba82c2ce50e74f7b754645e5117c3a5bec8151c0726d5857980a866610d32610595565b80519060200120610d404690565b60408051602080820195909552808201939093526060830191909152306080808401919091528151808403909101815260a0830182528051908401207fe48329057bfd03d55e49b547132e39cffd9c1820ad7b9d4c5307691425d15adf60c08401526001600160a01b038b1660e084015261010083018a90526101208084018a90528251808503909101815261014084019092528151919093012061190160f01b610160830152610162820183905261018282018190529192506000906101a20160408051601f198184030181528282528051602091820120600080855291840180845281905260ff8a169284019290925260608301889052608083018790529092509060019060a0016020604051602081039080840390855afa158015610e6c573d6000803e3d6000fd5b5050604051601f1901519150506001600160a01b038116610edd5760405162461bcd60e51b815260206004820152602560248201527f5456543a3a64656c656761746542795369673a20696e76616c6964207369676e604482015264617475726560d81b6064820152608401610669565b6001600160a01b0381166000908152600c60205260408120805491610f0183611d40565b919050558914610f5d5760405162461bcd60e51b815260206004820152602160248201527f5456543a3a64656c656761746542795369673a20696e76616c6964206e6f6e636044820152606560f81b6064820152608401610669565b87421115610fbb5760405162461bcd60e51b815260206004820152602560248201527f5456543a3a64656c656761746542795369673a207369676e61747572652065786044820152641c1a5c995960da1b6064820152608401610669565b610fc5818b6115f9565b505050505b505050505050565b6000546001600160a01b03163314610ffc5760405162461bcd60e51b815260040161066990611c23565b6001600160a01b0381166110615760405162461bcd60e51b815260206004820152602660248201527f4f776e61626c653a206e6577206f776e657220697320746865207a65726f206160448201526564647265737360d01b6064820152608401610669565b6108b081611679565b6000610d008284611c58565b60006106df825490565b6001600160a01b0383166110e25760405162461bcd60e51b8152602060048201526024808201527f42455032303a20617070726f76652066726f6d20746865207a65726f206164646044820152637265737360e01b6064820152608401610669565b6001600160a01b0382166111435760405162461bcd60e51b815260206004820152602260248201527f42455032303a20617070726f766520746f20746865207a65726f206164647265604482015261737360f01b6064820152608401610669565b6001600160a01b0383811660008181526002602090815260408083209487168084529482529182902085905590518481527f8c5be1e5ebec7d5bd14f71427d1e84f3dd0314c0f7b2291e5b200ac8c7c3b92591015b60405180910390a3505050565b6000610d00836001600160a01b038416611700565b6001600160a01b03831661121e5760405162461bcd60e51b815260206004820152602560248201527f42455032303a207472616e736665722066726f6d20746865207a65726f206164604482015264647265737360d81b6064820152608401610669565b6001600160a01b0382166112805760405162461bcd60e51b815260206004820152602360248201527f42455032303a207472616e7366657220746f20746865207a65726f206164647260448201526265737360e81b6064820152608401610669565b6112bd81604051806060016040528060268152602001611df9602691396001600160a01b0386166000908152600160205260409020549190611340565b6001600160a01b0380851660009081526001602052604080822093909355908416815220546112ec908261106a565b6001600160a01b0380841660008181526001602052604090819020939093559151908516907fddf252ad1be2c89b69c2b068fc378daa952ba7f163c4a11628f55a4df523b3ef906111989085815260200190565b600081848411156113645760405162461bcd60e51b81526004016106699190611bce565b505050900390565b60006001600160a01b0383166113c45760405162461bcd60e51b815260206004820152601f60248201527f42455032303a206d696e7420746f20746865207a65726f2061646472657373006044820152606401610669565b6b024306c4097859c43c0000006113e66003548461106a90919063ffffffff16565b11156113f457506000610638565b600354611401908361106a565b6003556001600160a01b038316600090815260016020526040902054611427908361106a565b6001600160a01b0384166000818152600160205260408082209390935591519091907fddf252ad1be2c89b69c2b068fc378daa952ba7f163c4a11628f55a4df523b3ef906114789086815260200190565b60405180910390a350600192915050565b816001600160a01b0316836001600160a01b0316141580156114ab5750600081115b156115e8576001600160a01b0383161561154e576001600160a01b0383166000908152600b602052604081205463ffffffff1690816114eb57600061152e565b6001600160a01b0385166000908152600a602052604081209061150f600185611ce0565b63ffffffff1663ffffffff168152602001908152602001600020600101545b9050600061153c82856117f3565b905061154a868484846117ff565b5050505b6001600160a01b038216156115e8576001600160a01b0382166000908152600b602052604081205463ffffffff1690816115895760006115cc565b6001600160a01b0384166000908152600a60205260408120906115ad600185611ce0565b63ffffffff1663ffffffff168152602001908152602001600020600101545b905060006115da828561106a565b9050610fca858484846117ff565b505050565b6000610d0083836119a1565b6001600160a01b03828116600081815260096020818152604080842080546001845282862054949093528787166001600160a01b03198416811790915590519190951694919391928592917f3134e8a2e6d97e929a7e54011ea5485d7d196dd5f0ba4d4ef95803e8e3fc257f9190a4611673828483611489565b50505050565b600080546001600160a01b038381166001600160a01b0319831681178455604051919092169283917f8be0079c531659141344cd1fd0a4f28419497f9722a3daafe3b4186f6b6457e09190a35050565b6000610d00836001600160a01b0384166119cb565b6001600160a01b03811660009081526001830160205260408120541515610d00565b600081815260018301602052604081205480156117e9576000611724600183611cc9565b855490915060009061173890600190611cc9565b905081811461179d57600086600001828154811061175857611758611d87565b906000526020600020015490508087600001848154811061177b5761177b611d87565b6000918252602080832090910192909255918252600188019052604090208390555b85548690806117ae576117ae611d71565b600190038181906000526020600020016000905590558560010160008681526020019081526020016000206000905560019350505050610638565b6000915050610638565b6000610d008284611cc9565b600061182343604051806060016040528060338152602001611dc660339139611a1a565b905060008463ffffffff1611801561187d57506001600160a01b0385166000908152600a6020526040812063ffffffff831691611861600188611ce0565b63ffffffff908116825260208201929092526040016000205416145b156118c6576001600160a01b0385166000908152600a6020526040812083916118a7600188611ce0565b63ffffffff168152602081019190915260400160002060010155611956565b60408051808201825263ffffffff838116825260208083018681526001600160a01b038a166000908152600a83528581208a851682529092529390209151825463ffffffff191691161781559051600191820155611925908590611c70565b6001600160a01b0386166000908152600b60205260409020805463ffffffff191663ffffffff929092169190911790555b60408051848152602081018490526001600160a01b038716917fdec2bacdd2f05b59de34da9b523dff8be42e5e38e818c82fdb0bae774387a724910160405180910390a25050505050565b60008260000182815481106119b8576119b8611d87565b9060005260206000200154905092915050565b6000818152600183016020526040812054611a1257508154600181810184556000848152602080822090930184905584548482528286019093526040902091909155610638565b506000610638565b6000816401000000008410611a425760405162461bcd60e51b81526004016106699190611bce565b509192915050565b80356001600160a01b03811681146106e257600080fd5b600060208284031215611a7357600080fd5b610d0082611a4a565b60008060408385031215611a8f57600080fd5b611a9883611a4a565b9150611aa660208401611a4a565b90509250929050565b600080600060608486031215611ac457600080fd5b611acd84611a4a565b9250611adb60208501611a4a565b9150604084013590509250925092565b60008060408385031215611afe57600080fd5b611b0783611a4a565b946020939093013593505050565b60008060008060008060c08789031215611b2e57600080fd5b611b3787611a4a565b95506020870135945060408701359350606087013560ff81168114611b5b57600080fd5b9598949750929560808101359460a0909101359350915050565b60008060408385031215611b8857600080fd5b611b9183611a4a565b9150602083013563ffffffff81168114611baa57600080fd5b809150509250929050565b600060208284031215611bc757600080fd5b5035919050565b600060208083528351808285015260005b81811015611bfb57858101830151858201604001528201611bdf565b81811115611c0d576000604083870101525b50601f01601f1916929092016040019392505050565b6020808252818101527f4f776e61626c653a2063616c6c6572206973206e6f7420746865206f776e6572604082015260600190565b60008219821115611c6b57611c6b611d5b565b500190565b600063ffffffff808316818516808303821115611c8f57611c8f611d5b565b01949350505050565b600063ffffffff80841680611cbd57634e487b7160e01b600052601260045260246000fd5b92169190910492915050565b600082821015611cdb57611cdb611d5b565b500390565b600063ffffffff83811690831681811015611cfd57611cfd611d5b565b039392505050565b600181811c90821680611d1957607f821691505b60208210811415611d3a57634e487b7160e01b600052602260045260246000fd5b50919050565b6000600019821415611d5457611d54611d5b565b5060010190565b634e487b7160e01b600052601160045260246000fd5b634e487b7160e01b600052603160045260246000fd5b634e487b7160e01b600052603260045260246000fdfe42455032303a207472616e7366657220616d6f756e74206578636565647320616c6c6f77616e63655456543a3a5f7772697465436865636b706f696e743a20626c6f636b206e756d6265722065786365656473203332206269747342455032303a207472616e7366657220616d6f756e7420657863656564732062616c616e636542455032303a2064656372656173656420616c6c6f77616e63652062656c6f77207a65726fa26469706673582212201425605b17a79ac791dc839e7cd9eb600a9978c1b31b5ad08f9860e654cd61e964736f6c63430008070033",
  "immutableReferences": {},
  "source": "// SPDX-License-Identifier: MIT\npragma solidity 0.8.7;\n\nimport \"@openzeppelin/contracts/utils/structs/EnumerableSet.sol\";\n\nimport \"./BEP20.sol\";\n\ncontract TVT is BEP20 {\n    using SafeMath for uint256;\n\n    using EnumerableSet for EnumerableSet.AddressSet;\n    EnumerableSet.AddressSet private _minters;\n\n    constructor(string memory name, string memory symbol) BEP20(name, symbol) {}\n\n    /// @notice Creates `_amount` token to `_to`.\n    function mint(address _to, uint256 _amount)\n        public\n        onlyMinter\n        returns (bool)\n    {\n        _mint(_to, _amount);\n        _moveDelegates(address(0), _delegates[_to], _amount);\n        return true;\n    }\n\n    // Copied and modified from YAM code:\n    // https://github.com/yam-finance/yam-protocol/blob/master/contracts/token/YAMGovernanceStorage.sol\n    // https://github.com/yam-finance/yam-protocol/blob/master/contracts/token/YAMGovernance.sol\n    // Which is copied and modified from COMPOUND:\n    // https://github.com/compound-finance/compound-protocol/blob/master/contracts/Governance/Comp.sol\n\n    /// @notice A record of each accounts delegate\n    mapping(address => address) internal _delegates;\n\n    /// @notice A checkpoint for marking number of votes from a given block\n    struct Checkpoint {\n        uint32 fromBlock;\n        uint256 votes;\n    }\n\n    /// @notice A record of votes checkpoints for each account, by index\n    mapping(address => mapping(uint32 => Checkpoint)) public checkpoints;\n\n    /// @notice The number of checkpoints for each account\n    mapping(address => uint32) public numCheckpoints;\n\n    /// @notice The EIP-712 typehash for the contract's domain\n    bytes32 public constant DOMAIN_TYPEHASH =\n        keccak256(\n            \"EIP712Domain(string name,uint256 chainId,address verifyingContract)\"\n        );\n\n    /// @notice The EIP-712 typehash for the delegation struct used by the contract\n    bytes32 public constant DELEGATION_TYPEHASH =\n        keccak256(\"Delegation(address delegatee,uint256 nonce,uint256 expiry)\");\n\n    /// @notice A record of states for signing / validating signatures\n    mapping(address => uint256) public nonces;\n\n    /// @notice An event thats emitted when an account changes its delegate\n    event DelegateChanged(\n        address indexed delegator,\n        address indexed fromDelegate,\n        address indexed toDelegate\n    );\n\n    /// @notice An event thats emitted when a delegate account's vote balance changes\n    event DelegateVotesChanged(\n        address indexed delegate,\n        uint256 previousBalance,\n        uint256 newBalance\n    );\n\n    /**\n     * @notice Delegate votes from `msg.sender` to `delegatee`\n     * @param delegator The address to get delegatee for\n     */\n    function delegates(address delegator) external view returns (address) {\n        return _delegates[delegator];\n    }\n\n    /**\n     * @notice Delegate votes from `msg.sender` to `delegatee`\n     * @param delegatee The address to delegate votes to\n     */\n    function delegate(address delegatee) external {\n        return _delegate(msg.sender, delegatee);\n    }\n\n    /**\n     * @notice Delegates votes from signatory to `delegatee`\n     * @param delegatee The address to delegate votes to\n     * @param nonce The contract state required to match the signature\n     * @param expiry The time at which to expire the signature\n     * @param v The recovery byte of the signature\n     * @param r Half of the ECDSA signature pair\n     * @param s Half of the ECDSA signature pair\n     */\n    function delegateBySig(\n        address delegatee,\n        uint256 nonce,\n        uint256 expiry,\n        uint8 v,\n        bytes32 r,\n        bytes32 s\n    ) external {\n        bytes32 domainSeparator = keccak256(\n            abi.encode(\n                DOMAIN_TYPEHASH,\n                keccak256(bytes(name())),\n                getChainId(),\n                address(this)\n            )\n        );\n\n        bytes32 structHash = keccak256(\n            abi.encode(DELEGATION_TYPEHASH, delegatee, nonce, expiry)\n        );\n\n        bytes32 digest = keccak256(\n            abi.encodePacked(\"\\x19\\x01\", domainSeparator, structHash)\n        );\n\n        address signatory = ecrecover(digest, v, r, s);\n        require(\n            signatory != address(0),\n            \"TVT::delegateBySig: invalid signature\"\n        );\n        require(\n            nonce == nonces[signatory]++,\n            \"TVT::delegateBySig: invalid nonce\"\n        );\n        require(\n            block.timestamp <= expiry,\n            \"TVT::delegateBySig: signature expired\"\n        );\n        return _delegate(signatory, delegatee);\n    }\n\n    /**\n     * @notice Gets the current votes balance for `account`\n     * @param account The address to get votes balance\n     * @return The number of current votes for `account`\n     */\n    function getCurrentVotes(address account) external view returns (uint256) {\n        uint32 nCheckpoints = numCheckpoints[account];\n        return\n            nCheckpoints > 0 ? checkpoints[account][nCheckpoints - 1].votes : 0;\n    }\n\n    /**\n     * @notice Determine the prior number of votes for an account as of a block number\n     * @dev Block number must be a finalized block or else this function will revert to prevent misinformation.\n     * @param account The address of the account to check\n     * @param blockNumber The block number to get the vote balance at\n     * @return The number of votes the account had as of the given block\n     */\n    function getPriorVotes(address account, uint256 blockNumber)\n        external\n        view\n        returns (uint256)\n    {\n        require(\n            blockNumber < block.number,\n            \"TVT::getPriorVotes: not yet determined\"\n        );\n\n        uint32 nCheckpoints = numCheckpoints[account];\n        if (nCheckpoints == 0) {\n            return 0;\n        }\n\n        // First check most recent balance\n        if (checkpoints[account][nCheckpoints - 1].fromBlock <= blockNumber) {\n            return checkpoints[account][nCheckpoints - 1].votes;\n        }\n\n        // Next check implicit zero balance\n        if (checkpoints[account][0].fromBlock > blockNumber) {\n            return 0;\n        }\n\n        uint32 lower = 0;\n        uint32 upper = nCheckpoints - 1;\n        while (upper > lower) {\n            uint32 center = upper - (upper - lower) / 2; // ceil, avoiding overflow\n            Checkpoint memory cp = checkpoints[account][center];\n            if (cp.fromBlock == blockNumber) {\n                return cp.votes;\n            } else if (cp.fromBlock < blockNumber) {\n                lower = center;\n            } else {\n                upper = center - 1;\n            }\n        }\n        return checkpoints[account][lower].votes;\n    }\n\n    function _delegate(address delegator, address delegatee) internal {\n        address currentDelegate = _delegates[delegator];\n        uint256 delegatorBalance = balanceOf(delegator); // balance of underlying TVTs (not scaled);\n        _delegates[delegator] = delegatee;\n\n        emit DelegateChanged(delegator, currentDelegate, delegatee);\n\n        _moveDelegates(currentDelegate, delegatee, delegatorBalance);\n    }\n\n    function _moveDelegates(\n        address srcRep,\n        address dstRep,\n        uint256 amount\n    ) internal {\n        if (srcRep != dstRep && amount > 0) {\n            if (srcRep != address(0)) {\n                // decrease old representative\n                uint32 srcRepNum = numCheckpoints[srcRep];\n                uint256 srcRepOld = srcRepNum > 0\n                    ? checkpoints[srcRep][srcRepNum - 1].votes\n                    : 0;\n                uint256 srcRepNew = srcRepOld.sub(amount);\n                _writeCheckpoint(srcRep, srcRepNum, srcRepOld, srcRepNew);\n            }\n\n            if (dstRep != address(0)) {\n                // increase new representative\n                uint32 dstRepNum = numCheckpoints[dstRep];\n                uint256 dstRepOld = dstRepNum > 0\n                    ? checkpoints[dstRep][dstRepNum - 1].votes\n                    : 0;\n                uint256 dstRepNew = dstRepOld.add(amount);\n                _writeCheckpoint(dstRep, dstRepNum, dstRepOld, dstRepNew);\n            }\n        }\n    }\n\n    function _writeCheckpoint(\n        address delegatee,\n        uint32 nCheckpoints,\n        uint256 oldVotes,\n        uint256 newVotes\n    ) internal {\n        uint32 blockNumber = safe32(\n            block.number,\n            \"TVT::_writeCheckpoint: block number exceeds 32 bits\"\n        );\n\n        if (\n            nCheckpoints > 0 &&\n            checkpoints[delegatee][nCheckpoints - 1].fromBlock == blockNumber\n        ) {\n            checkpoints[delegatee][nCheckpoints - 1].votes = newVotes;\n        } else {\n            checkpoints[delegatee][nCheckpoints] = Checkpoint(\n                blockNumber,\n                newVotes\n            );\n            numCheckpoints[delegatee] = nCheckpoints + 1;\n        }\n\n        emit DelegateVotesChanged(delegatee, oldVotes, newVotes);\n    }\n\n    function safe32(uint256 n, string memory errorMessage)\n        internal\n        pure\n        returns (uint32)\n    {\n        require(n < 2**32, errorMessage);\n        return uint32(n);\n    }\n\n    function getChainId() internal view returns (uint256) {\n        uint256 chainId;\n        assembly {\n            chainId := chainid()\n        }\n        return chainId;\n    }\n\n    function addMinter(address _addMinter) public onlyOwner returns (bool) {\n        require(\n            _addMinter != address(0),\n            \"TVT: _addMinter is the zero address\"\n        );\n        return EnumerableSet.add(_minters, _addMinter);\n    }\n\n    function delMinter(address _delMinter) public onlyOwner returns (bool) {\n        require(\n            _delMinter != address(0),\n            \"TVT: _delMinter is the zero address\"\n        );\n        return EnumerableSet.remove(_minters, _delMinter);\n    }\n\n    function getMinterLength() public view returns (uint256) {\n        return EnumerableSet.length(_minters);\n    }\n\n    function isMinter(address account) public view returns (bool) {\n        return EnumerableSet.contains(_minters, account);\n    }\n\n    function getMinter(uint256 _index) public view onlyOwner returns (address) {\n        require(_index <= getMinterLength() - 1, \"TVT: index out of bounds\");\n        return EnumerableSet.at(_minters, _index);\n    }\n\n    // modifier for mint function\n    modifier onlyMinter() {\n        require(isMinter(msg.sender), \"caller is not the minter\");\n        _;\n    }\n}\n",
  "sourcePath": "/Users/ievgencherkaskyi/Projects/tivan/launchpool/contracts/TVT/TVT.sol",
  "compiler": {
    "name": "solc",
    "version": "0.8.7+commit.e28d00a7.Emscripten.clang"
  },
  "schemaVersion": "3.3.3",
  "updatedAt": "2022-06-29T07:06:09.506Z",
  "networkType": "ethereum",
  "devdoc": {
    "kind": "dev",
    "methods": {
      "allowance(address,address)": {
        "details": "See {BEP20-allowance}."
      },
      "approve(address,uint256)": {
        "details": "See {BEP20-approve}. Requirements: - `spender` cannot be the zero address."
      },
      "balanceOf(address)": {
        "details": "See {BEP20-balanceOf}."
      },
      "decimals()": {
        "details": "Returns the token decimals."
      },
      "decreaseAllowance(address,uint256)": {
        "details": "Atomically decreases the allowance granted to `spender` by the caller. This is an alternative to {approve} that can be used as a mitigation for problems described in {BEP20-approve}. Emits an {Approval} event indicating the updated allowance. Requirements: - `spender` cannot be the zero address. - `spender` must have allowance for the caller of at least `subtractedValue`."
      },
      "delegate(address)": {
        "params": {
          "delegatee": "The address to delegate votes to"
        }
      },
      "delegateBySig(address,uint256,uint256,uint8,bytes32,bytes32)": {
        "params": {
          "delegatee": "The address to delegate votes to",
          "expiry": "The time at which to expire the signature",
          "nonce": "The contract state required to match the signature",
          "r": "Half of the ECDSA signature pair",
          "s": "Half of the ECDSA signature pair",
          "v": "The recovery byte of the signature"
        }
      },
      "delegates(address)": {
        "params": {
          "delegator": "The address to get delegatee for"
        }
      },
      "getCurrentVotes(address)": {
        "params": {
          "account": "The address to get votes balance"
        },
        "returns": {
          "_0": "The number of current votes for `account`"
        }
      },
      "getOwner()": {
        "details": "Returns the bep token owner."
      },
      "getPriorVotes(address,uint256)": {
        "details": "Block number must be a finalized block or else this function will revert to prevent misinformation.",
        "params": {
          "account": "The address of the account to check",
          "blockNumber": "The block number to get the vote balance at"
        },
        "returns": {
          "_0": "The number of votes the account had as of the given block"
        }
      },
      "increaseAllowance(address,uint256)": {
        "details": "Atomically increases the allowance granted to `spender` by the caller. This is an alternative to {approve} that can be used as a mitigation for problems described in {BEP20-approve}. Emits an {Approval} event indicating the updated allowance. Requirements: - `spender` cannot be the zero address."
      },
      "mint(uint256)": {
        "details": "Creates `amount` tokens and assigns them to `msg.sender`, increasing the total supply. Requirements - `msg.sender` must be the token owner"
      },
      "name()": {
        "details": "Returns the token name."
      },
      "owner()": {
        "details": "Returns the address of the current owner."
      },
      "renounceOwnership()": {
        "details": "Leaves the contract without owner. It will not be possible to call `onlyOwner` functions anymore. Can only be called by the current owner. NOTE: Renouncing ownership will leave the contract without an owner, thereby removing any functionality that is only available to the owner."
      },
      "symbol()": {
        "details": "Returns the token symbol."
      },
      "totalSupply()": {
        "details": "See {BEP20-totalSupply}."
      },
      "transfer(address,uint256)": {
        "details": "See {BEP20-transfer}. Requirements: - `recipient` cannot be the zero address. - the caller must have a balance of at least `amount`."
      },
      "transferFrom(address,address,uint256)": {
        "details": "See {BEP20-transferFrom}. Emits an {Approval} event indicating the updated allowance. This is not required by the EIP. See the note at the beginning of {BEP20}; Requirements: - `sender` and `recipient` cannot be the zero address. - `sender` must have a balance of at least `amount`. - the caller must have allowance for `sender`'s tokens of at least `amount`."
      },
      "transferOwnership(address)": {
        "details": "Transfers ownership of the contract to a new account (`newOwner`). Can only be called by the current owner."
      }
    },
    "version": 1
  },
  "userdoc": {
    "events": {
      "DelegateChanged(address,address,address)": {
        "notice": "An event thats emitted when an account changes its delegate"
      },
      "DelegateVotesChanged(address,uint256,uint256)": {
        "notice": "An event thats emitted when a delegate account's vote balance changes"
      }
    },
    "kind": "user",
    "methods": {
      "DELEGATION_TYPEHASH()": {
        "notice": "The EIP-712 typehash for the delegation struct used by the contract"
      },
      "DOMAIN_TYPEHASH()": {
        "notice": "The EIP-712 typehash for the contract's domain"
      },
      "checkpoints(address,uint32)": {
        "notice": "A record of votes checkpoints for each account, by index"
      },
      "delegate(address)": {
        "notice": "Delegate votes from `msg.sender` to `delegatee`"
      },
      "delegateBySig(address,uint256,uint256,uint8,bytes32,bytes32)": {
        "notice": "Delegates votes from signatory to `delegatee`"
      },
      "delegates(address)": {
        "notice": "Delegate votes from `msg.sender` to `delegatee`"
      },
      "getCurrentVotes(address)": {
        "notice": "Gets the current votes balance for `account`"
      },
      "getPriorVotes(address,uint256)": {
        "notice": "Determine the prior number of votes for an account as of a block number"
      },
      "mint(address,uint256)": {
        "notice": "Creates `_amount` token to `_to`."
      },
      "nonces(address)": {
        "notice": "A record of states for signing / validating signatures"
      },
      "numCheckpoints(address)": {
        "notice": "The number of checkpoints for each account"
      }
    },
    "version": 1
  }
}