{
  "contractName": "TVTBToken",
  "abi": [
    {
      "inputs": [
        {
          "internalType": "string",
          "name": "name",
          "type": "string"
        },
        {
          "internalType": "string",
          "name": "symbol",
          "type": "string"
        },
        {
          "internalType": "string",
          "name": "baseTokenURI",
          "type": "string"
        }
      ],
      "stateMutability": "nonpayable",
      "type": "constructor"
    },
    {
      "anonymous": false,
      "inputs": [
        {
          "indexed": true,
          "internalType": "address",
          "name": "owner",
          "type": "address"
        },
        {
          "indexed": true,
          "internalType": "address",
          "name": "approved",
          "type": "address"
        },
        {
          "indexed": true,
          "internalType": "uint256",
          "name": "tokenId",
          "type": "uint256"
        }
      ],
      "name": "Approval",
      "type": "event"
    },
    {
      "anonymous": false,
      "inputs": [
        {
          "indexed": true,
          "internalType": "address",
          "name": "owner",
          "type": "address"
        },
        {
          "indexed": true,
          "internalType": "address",
          "name": "operator",
          "type": "address"
        },
        {
          "indexed": false,
          "internalType": "bool",
          "name": "approved",
          "type": "bool"
        }
      ],
      "name": "ApprovalForAll",
      "type": "event"
    },
    {
      "anonymous": false,
      "inputs": [
        {
          "indexed": false,
          "internalType": "address",
          "name": "account",
          "type": "address"
        }
      ],
      "name": "Paused",
      "type": "event"
    },
    {
      "anonymous": false,
      "inputs": [
        {
          "indexed": true,
          "internalType": "bytes32",
          "name": "role",
          "type": "bytes32"
        },
        {
          "indexed": true,
          "internalType": "bytes32",
          "name": "previousAdminRole",
          "type": "bytes32"
        },
        {
          "indexed": true,
          "internalType": "bytes32",
          "name": "newAdminRole",
          "type": "bytes32"
        }
      ],
      "name": "RoleAdminChanged",
      "type": "event"
    },
    {
      "anonymous": false,
      "inputs": [
        {
          "indexed": true,
          "internalType": "bytes32",
          "name": "role",
          "type": "bytes32"
        },
        {
          "indexed": true,
          "internalType": "address",
          "name": "account",
          "type": "address"
        },
        {
          "indexed": true,
          "internalType": "address",
          "name": "sender",
          "type": "address"
        }
      ],
      "name": "RoleGranted",
      "type": "event"
    },
    {
      "anonymous": false,
      "inputs": [
        {
          "indexed": true,
          "internalType": "bytes32",
          "name": "role",
          "type": "bytes32"
        },
        {
          "indexed": true,
          "internalType": "address",
          "name": "account",
          "type": "address"
        },
        {
          "indexed": true,
          "internalType": "address",
          "name": "sender",
          "type": "address"
        }
      ],
      "name": "RoleRevoked",
      "type": "event"
    },
    {
      "anonymous": false,
      "inputs": [
        {
          "indexed": true,
          "internalType": "address",
          "name": "from",
          "type": "address"
        },
        {
          "indexed": true,
          "internalType": "address",
          "name": "to",
          "type": "address"
        },
        {
          "indexed": true,
          "internalType": "uint256",
          "name": "tokenId",
          "type": "uint256"
        }
      ],
      "name": "Transfer",
      "type": "event"
    },
    {
      "anonymous": false,
      "inputs": [
        {
          "indexed": false,
          "internalType": "address",
          "name": "account",
          "type": "address"
        }
      ],
      "name": "Unpaused",
      "type": "event"
    },
    {
      "inputs": [],
      "name": "DEFAULT_ADMIN_ROLE",
      "outputs": [
        {
          "internalType": "bytes32",
          "name": "",
          "type": "bytes32"
        }
      ],
      "stateMutability": "view",
      "type": "function"
    },
    {
      "inputs": [],
      "name": "MINTER_ROLE",
      "outputs": [
        {
          "internalType": "bytes32",
          "name": "",
          "type": "bytes32"
        }
      ],
      "stateMutability": "view",
      "type": "function"
    },
    {
      "inputs": [],
      "name": "PAUSER_ROLE",
      "outputs": [
        {
          "internalType": "bytes32",
          "name": "",
          "type": "bytes32"
        }
      ],
      "stateMutability": "view",
      "type": "function"
    },
    {
      "inputs": [
        {
          "internalType": "address",
          "name": "to",
          "type": "address"
        },
        {
          "internalType": "uint256",
          "name": "tokenId",
          "type": "uint256"
        }
      ],
      "name": "approve",
      "outputs": [],
      "stateMutability": "nonpayable",
      "type": "function"
    },
    {
      "inputs": [
        {
          "internalType": "address",
          "name": "owner",
          "type": "address"
        }
      ],
      "name": "balanceOf",
      "outputs": [
        {
          "internalType": "uint256",
          "name": "",
          "type": "uint256"
        }
      ],
      "stateMutability": "view",
      "type": "function"
    },
    {
      "inputs": [
        {
          "internalType": "uint256",
          "name": "tokenId",
          "type": "uint256"
        }
      ],
      "name": "getApproved",
      "outputs": [
        {
          "internalType": "address",
          "name": "",
          "type": "address"
        }
      ],
      "stateMutability": "view",
      "type": "function"
    },
    {
      "inputs": [
        {
          "internalType": "bytes32",
          "name": "role",
          "type": "bytes32"
        }
      ],
      "name": "getRoleAdmin",
      "outputs": [
        {
          "internalType": "bytes32",
          "name": "",
          "type": "bytes32"
        }
      ],
      "stateMutability": "view",
      "type": "function"
    },
    {
      "inputs": [
        {
          "internalType": "bytes32",
          "name": "role",
          "type": "bytes32"
        },
        {
          "internalType": "uint256",
          "name": "index",
          "type": "uint256"
        }
      ],
      "name": "getRoleMember",
      "outputs": [
        {
          "internalType": "address",
          "name": "",
          "type": "address"
        }
      ],
      "stateMutability": "view",
      "type": "function"
    },
    {
      "inputs": [
        {
          "internalType": "bytes32",
          "name": "role",
          "type": "bytes32"
        }
      ],
      "name": "getRoleMemberCount",
      "outputs": [
        {
          "internalType": "uint256",
          "name": "",
          "type": "uint256"
        }
      ],
      "stateMutability": "view",
      "type": "function"
    },
    {
      "inputs": [
        {
          "internalType": "bytes32",
          "name": "role",
          "type": "bytes32"
        },
        {
          "internalType": "address",
          "name": "account",
          "type": "address"
        }
      ],
      "name": "grantRole",
      "outputs": [],
      "stateMutability": "nonpayable",
      "type": "function"
    },
    {
      "inputs": [
        {
          "internalType": "bytes32",
          "name": "role",
          "type": "bytes32"
        },
        {
          "internalType": "address",
          "name": "account",
          "type": "address"
        }
      ],
      "name": "hasRole",
      "outputs": [
        {
          "internalType": "bool",
          "name": "",
          "type": "bool"
        }
      ],
      "stateMutability": "view",
      "type": "function"
    },
    {
      "inputs": [
        {
          "internalType": "address",
          "name": "owner",
          "type": "address"
        },
        {
          "internalType": "address",
          "name": "operator",
          "type": "address"
        }
      ],
      "name": "isApprovedForAll",
      "outputs": [
        {
          "internalType": "bool",
          "name": "",
          "type": "bool"
        }
      ],
      "stateMutability": "view",
      "type": "function"
    },
    {
      "inputs": [],
      "name": "name",
      "outputs": [
        {
          "internalType": "string",
          "name": "",
          "type": "string"
        }
      ],
      "stateMutability": "view",
      "type": "function"
    },
    {
      "inputs": [
        {
          "internalType": "uint256",
          "name": "tokenId",
          "type": "uint256"
        }
      ],
      "name": "ownerOf",
      "outputs": [
        {
          "internalType": "address",
          "name": "",
          "type": "address"
        }
      ],
      "stateMutability": "view",
      "type": "function"
    },
    {
      "inputs": [],
      "name": "pause",
      "outputs": [],
      "stateMutability": "nonpayable",
      "type": "function"
    },
    {
      "inputs": [],
      "name": "paused",
      "outputs": [
        {
          "internalType": "bool",
          "name": "",
          "type": "bool"
        }
      ],
      "stateMutability": "view",
      "type": "function"
    },
    {
      "inputs": [
        {
          "internalType": "bytes32",
          "name": "role",
          "type": "bytes32"
        },
        {
          "internalType": "address",
          "name": "account",
          "type": "address"
        }
      ],
      "name": "renounceRole",
      "outputs": [],
      "stateMutability": "nonpayable",
      "type": "function"
    },
    {
      "inputs": [
        {
          "internalType": "bytes32",
          "name": "role",
          "type": "bytes32"
        },
        {
          "internalType": "address",
          "name": "account",
          "type": "address"
        }
      ],
      "name": "revokeRole",
      "outputs": [],
      "stateMutability": "nonpayable",
      "type": "function"
    },
    {
      "inputs": [
        {
          "internalType": "address",
          "name": "from",
          "type": "address"
        },
        {
          "internalType": "address",
          "name": "to",
          "type": "address"
        },
        {
          "internalType": "uint256",
          "name": "tokenId",
          "type": "uint256"
        }
      ],
      "name": "safeTransferFrom",
      "outputs": [],
      "stateMutability": "nonpayable",
      "type": "function"
    },
    {
      "inputs": [
        {
          "internalType": "address",
          "name": "from",
          "type": "address"
        },
        {
          "internalType": "address",
          "name": "to",
          "type": "address"
        },
        {
          "internalType": "uint256",
          "name": "tokenId",
          "type": "uint256"
        },
        {
          "internalType": "bytes",
          "name": "_data",
          "type": "bytes"
        }
      ],
      "name": "safeTransferFrom",
      "outputs": [],
      "stateMutability": "nonpayable",
      "type": "function"
    },
    {
      "inputs": [
        {
          "internalType": "address",
          "name": "operator",
          "type": "address"
        },
        {
          "internalType": "bool",
          "name": "approved",
          "type": "bool"
        }
      ],
      "name": "setApprovalForAll",
      "outputs": [],
      "stateMutability": "nonpayable",
      "type": "function"
    },
    {
      "inputs": [
        {
          "internalType": "bytes4",
          "name": "interfaceId",
          "type": "bytes4"
        }
      ],
      "name": "supportsInterface",
      "outputs": [
        {
          "internalType": "bool",
          "name": "",
          "type": "bool"
        }
      ],
      "stateMutability": "view",
      "type": "function"
    },
    {
      "inputs": [],
      "name": "symbol",
      "outputs": [
        {
          "internalType": "string",
          "name": "",
          "type": "string"
        }
      ],
      "stateMutability": "view",
      "type": "function"
    },
    {
      "inputs": [
        {
          "internalType": "uint256",
          "name": "index",
          "type": "uint256"
        }
      ],
      "name": "tokenByIndex",
      "outputs": [
        {
          "internalType": "uint256",
          "name": "",
          "type": "uint256"
        }
      ],
      "stateMutability": "view",
      "type": "function"
    },
    {
      "inputs": [
        {
          "internalType": "address",
          "name": "owner",
          "type": "address"
        },
        {
          "internalType": "uint256",
          "name": "index",
          "type": "uint256"
        }
      ],
      "name": "tokenOfOwnerByIndex",
      "outputs": [
        {
          "internalType": "uint256",
          "name": "",
          "type": "uint256"
        }
      ],
      "stateMutability": "view",
      "type": "function"
    },
    {
      "inputs": [
        {
          "internalType": "uint256",
          "name": "tokenId",
          "type": "uint256"
        }
      ],
      "name": "tokenURI",
      "outputs": [
        {
          "internalType": "string",
          "name": "",
          "type": "string"
        }
      ],
      "stateMutability": "view",
      "type": "function"
    },
    {
      "inputs": [],
      "name": "totalSupply",
      "outputs": [
        {
          "internalType": "uint256",
          "name": "",
          "type": "uint256"
        }
      ],
      "stateMutability": "view",
      "type": "function"
    },
    {
      "inputs": [
        {
          "internalType": "address",
          "name": "from",
          "type": "address"
        },
        {
          "internalType": "address",
          "name": "to",
          "type": "address"
        },
        {
          "internalType": "uint256",
          "name": "tokenId",
          "type": "uint256"
        }
      ],
      "name": "transferFrom",
      "outputs": [],
      "stateMutability": "nonpayable",
      "type": "function"
    },
    {
      "inputs": [],
      "name": "unpause",
      "outputs": [],
      "stateMutability": "nonpayable",
      "type": "function"
    },
    {
      "inputs": [
        {
          "internalType": "uint256",
          "name": "tokenId",
          "type": "uint256"
        }
      ],
      "name": "burn",
      "outputs": [],
      "stateMutability": "nonpayable",
      "type": "function"
    },
    {
      "inputs": [],
      "name": "getNumber",
      "outputs": [
        {
          "internalType": "uint256",
          "name": "",
          "type": "uint256"
        }
      ],
      "stateMutability": "view",
      "type": "function"
    },
    {
      "inputs": [
        {
          "internalType": "address",
          "name": "to",
          "type": "address"
        }
      ],
      "name": "mint",
      "outputs": [],
      "stateMutability": "nonpayable",
      "type": "function"
    }
  ],
  "bytecode": "0x60806040523480156200001157600080fd5b5060405162002b2338038062002b238339810160408190526200003491620003bd565b828282828281600290805190602001906200005192919062000260565b5080516200006790600390602084019062000260565b5050600c805460ff191690555080516200008990600e90602084019062000260565b5062000097600033620000fb565b620000c37f9f2df0fed2c77648de5860a4cc508cd0818c85b8b8a1ab4ceeef8d981c8956a633620000fb565b620000ef7f65d7a28e3265b37a6474929f336521b332c1681b933f6cb9f3376673440d862a33620000fb565b505050505050620004a1565b6200010782826200010b565b5050565b6200012282826200014e60201b62000d4a1760201c565b60008281526001602090815260409091206200014991839062000dce620001ee821b17901c565b505050565b6000828152602081815260408083206001600160a01b038516845290915290205460ff1662000107576000828152602081815260408083206001600160a01b03851684529091529020805460ff19166001179055620001aa3390565b6001600160a01b0316816001600160a01b0316837f2f8788117e7eff1d82e926ec794901d17c78024a50270940304540a733656f0d60405160405180910390a45050565b600062000205836001600160a01b0384166200020e565b90505b92915050565b6000818152600183016020526040812054620002575750815460018181018455600084815260208082209093018490558454848252828601909352604090209190915562000208565b50600062000208565b8280546200026e906200044e565b90600052602060002090601f016020900481019282620002925760008555620002dd565b82601f10620002ad57805160ff1916838001178555620002dd565b82800160010185558215620002dd579182015b82811115620002dd578251825591602001919060010190620002c0565b50620002eb929150620002ef565b5090565b5b80821115620002eb5760008155600101620002f0565b600082601f8301126200031857600080fd5b81516001600160401b03808211156200033557620003356200048b565b604051601f8301601f19908116603f011681019082821181831017156200036057620003606200048b565b816040528381526020925086838588010111156200037d57600080fd5b600091505b83821015620003a1578582018301518183018401529082019062000382565b83821115620003b35760008385830101525b9695505050505050565b600080600060608486031215620003d357600080fd5b83516001600160401b0380821115620003eb57600080fd5b620003f98783880162000306565b945060208601519150808211156200041057600080fd5b6200041e8783880162000306565b935060408601519150808211156200043557600080fd5b50620004448682870162000306565b9150509250925092565b600181811c908216806200046357607f821691505b602082108114156200048557634e487b7160e01b600052602260045260246000fd5b50919050565b634e487b7160e01b600052604160045260246000fd5b61267280620004b16000396000f3fe608060405234801561001057600080fd5b50600436106101f05760003560e01c80636a6278421161010f578063b88d4fde116100a2578063d547741f11610071578063d547741f14610429578063e63ab1e91461043c578063e985e9c514610463578063f2c9ecd81461049f57600080fd5b8063b88d4fde146103c9578063c87b56dd146103dc578063ca15c873146103ef578063d53913931461040257600080fd5b806391d14854116100de57806391d148541461039357806395d89b41146103a6578063a217fddf146103ae578063a22cb465146103b657600080fd5b80636a6278421461035257806370a08231146103655780638456cb59146103785780639010d07c1461038057600080fd5b80632f745c591161018757806342966c681161015657806342966c681461030e5780634f6ccce7146103215780635c975abb146103345780636352211e1461033f57600080fd5b80632f745c59146102cd57806336568abe146102e05780633f4ba83a146102f357806342842e0e146102fb57600080fd5b806318160ddd116101c357806318160ddd1461027257806323b872dd14610284578063248a9ca3146102975780632f2ff15d146102ba57600080fd5b806301ffc9a7146101f557806306fdde031461021d578063081812fc14610232578063095ea7b31461025d575b600080fd5b6102086102033660046122ac565b6104a7565b60405190151581526020015b60405180910390f35b6102256104b8565b60405161021491906123f3565b61024561024036600461224e565b61054a565b6040516001600160a01b039091168152602001610214565b61027061026b366004612224565b6105e4565b005b600a545b604051908152602001610214565b6102706102923660046120d0565b6106fa565b6102766102a536600461224e565b60009081526020819052604090206001015490565b6102706102c8366004612267565b61072c565b6102766102db366004612224565b610751565b6102706102ee366004612267565b6107e7565b610270610865565b6102706103093660046120d0565b61090d565b61027061031c36600461224e565b610928565b61027661032f36600461224e565b61093e565b600c5460ff16610208565b61024561034d36600461224e565b6109d1565b610270610360366004612082565b610a48565b610276610373366004612082565b610a5f565b610270610ae6565b61024561038e36600461228a565b610b8a565b6102086103a1366004612267565b610ba9565b610225610bd2565b610276600081565b6102706103c43660046121e8565b610be1565b6102706103d736600461210c565b610bec565b6102256103ea36600461224e565b610c24565b6102766103fd36600461224e565b610cfe565b6102767f9f2df0fed2c77648de5860a4cc508cd0818c85b8b8a1ab4ceeef8d981c8956a681565b610270610437366004612267565b610d15565b6102767f65d7a28e3265b37a6474929f336521b332c1681b933f6cb9f3376673440d862a81565b61020861047136600461209d565b6001600160a01b03918216600090815260076020908152604080832093909416825291909152205460ff1690565b610276610d3a565b60006104b282610de3565b92915050565b6060600280546104c79061254e565b80601f01602080910402602001604051908101604052809291908181526020018280546104f39061254e565b80156105405780601f1061051557610100808354040283529160200191610540565b820191906000526020600020905b81548152906001019060200180831161052357829003601f168201915b5050505050905090565b6000818152600460205260408120546001600160a01b03166105c85760405162461bcd60e51b815260206004820152602c60248201527f4552433732313a20617070726f76656420717565727920666f72206e6f6e657860448201526b34b9ba32b73a103a37b5b2b760a11b60648201526084015b60405180910390fd5b506000908152600660205260409020546001600160a01b031690565b60006105ef826109d1565b9050806001600160a01b0316836001600160a01b0316141561065d5760405162461bcd60e51b815260206004820152602160248201527f4552433732313a20617070726f76616c20746f2063757272656e74206f776e656044820152603960f91b60648201526084016105bf565b336001600160a01b038216148061067957506106798133610471565b6106eb5760405162461bcd60e51b815260206004820152603860248201527f4552433732313a20617070726f76652063616c6c6572206973206e6f74206f7760448201527f6e6572206e6f7220617070726f76656420666f7220616c6c000000000000000060648201526084016105bf565b6106f58383610e08565b505050565b610705335b82610e76565b6107215760405162461bcd60e51b81526004016105bf90612458565b6106f5838383610f6d565b60008281526020819052604090206001015461074781611114565b6106f5838361111e565b600061075c83610a5f565b82106107be5760405162461bcd60e51b815260206004820152602b60248201527f455243373231456e756d657261626c653a206f776e657220696e646578206f7560448201526a74206f6620626f756e647360a81b60648201526084016105bf565b506001600160a01b03919091166000908152600860209081526040808320938352929052205490565b6001600160a01b03811633146108575760405162461bcd60e51b815260206004820152602f60248201527f416363657373436f6e74726f6c3a2063616e206f6e6c792072656e6f756e636560448201526e103937b632b9903337b91039b2b63360891b60648201526084016105bf565b6108618282611140565b5050565b61088f7f65d7a28e3265b37a6474929f336521b332c1681b933f6cb9f3376673440d862a33610ba9565b610903576040805162461bcd60e51b81526020600482015260248101919091527f4552433732315072657365744d696e7465725061757365724175746f49643a2060448201527f6d75737420686176652070617573657220726f6c6520746f20756e706175736560648201526084016105bf565b61090b611162565b565b6106f583838360405180602001604052806000815250610bec565b610931816111f5565b61093b600f61126c565b50565b6000610949600a5490565b82106109ac5760405162461bcd60e51b815260206004820152602c60248201527f455243373231456e756d657261626c653a20676c6f62616c20696e646578206f60448201526b7574206f6620626f756e647360a01b60648201526084016105bf565b600a82815481106109bf576109bf6125fa565b90600052602060002001549050919050565b6000818152600460205260408120546001600160a01b0316806104b25760405162461bcd60e51b815260206004820152602960248201527f4552433732313a206f776e657220717565727920666f72206e6f6e657869737460448201526832b73a103a37b5b2b760b91b60648201526084016105bf565b610a51816112c3565b61093b600f80546001019055565b60006001600160a01b038216610aca5760405162461bcd60e51b815260206004820152602a60248201527f4552433732313a2062616c616e636520717565727920666f7220746865207a65604482015269726f206164647265737360b01b60648201526084016105bf565b506001600160a01b031660009081526005602052604090205490565b610b107f65d7a28e3265b37a6474929f336521b332c1681b933f6cb9f3376673440d862a33610ba9565b610b825760405162461bcd60e51b815260206004820152603e60248201527f4552433732315072657365744d696e7465725061757365724175746f49643a2060448201527f6d75737420686176652070617573657220726f6c6520746f207061757365000060648201526084016105bf565b61090b61137f565b6000828152600160205260408120610ba290836113fa565b9392505050565b6000918252602082815260408084206001600160a01b0393909316845291905290205460ff1690565b6060600380546104c79061254e565b610861338383611406565b610bf63383610e76565b610c125760405162461bcd60e51b81526004016105bf90612458565b610c1e848484846114d5565b50505050565b6000818152600460205260409020546060906001600160a01b0316610ca35760405162461bcd60e51b815260206004820152602f60248201527f4552433732314d657461646174613a2055524920717565727920666f72206e6f60448201526e3732bc34b9ba32b73a103a37b5b2b760891b60648201526084016105bf565b6000610cad611508565b90506000815111610ccd5760405180602001604052806000815250610ba2565b80610cd784611517565b604051602001610ce8929190612312565b6040516020818303038152906040529392505050565b60008181526001602052604081206104b290611615565b600082815260208190526040902060010154610d3081611114565b6106f58383611140565b6000610d45600f5490565b905090565b610d548282610ba9565b610861576000828152602081815260408083206001600160a01b03851684529091529020805460ff19166001179055610d8a3390565b6001600160a01b0316816001600160a01b0316837f2f8788117e7eff1d82e926ec794901d17c78024a50270940304540a733656f0d60405160405180910390a45050565b6000610ba2836001600160a01b03841661161f565b60006001600160e01b0319821663780e9d6360e01b14806104b257506104b28261166e565b600081815260066020526040902080546001600160a01b0319166001600160a01b0384169081179091558190610e3d826109d1565b6001600160a01b03167f8c5be1e5ebec7d5bd14f71427d1e84f3dd0314c0f7b2291e5b200ac8c7c3b92560405160405180910390a45050565b6000818152600460205260408120546001600160a01b0316610eef5760405162461bcd60e51b815260206004820152602c60248201527f4552433732313a206f70657261746f7220717565727920666f72206e6f6e657860448201526b34b9ba32b73a103a37b5b2b760a11b60648201526084016105bf565b6000610efa836109d1565b9050806001600160a01b0316846001600160a01b03161480610f4157506001600160a01b0380821660009081526007602090815260408083209388168352929052205460ff165b80610f655750836001600160a01b0316610f5a8461054a565b6001600160a01b0316145b949350505050565b826001600160a01b0316610f80826109d1565b6001600160a01b031614610fe45760405162461bcd60e51b815260206004820152602560248201527f4552433732313a207472616e736665722066726f6d20696e636f72726563742060448201526437bbb732b960d91b60648201526084016105bf565b6001600160a01b0382166110465760405162461bcd60e51b8152602060048201526024808201527f4552433732313a207472616e7366657220746f20746865207a65726f206164646044820152637265737360e01b60648201526084016105bf565b6110518383836116ae565b61105c600082610e08565b6001600160a01b03831660009081526005602052604081208054600192906110859084906124f4565b90915550506001600160a01b03821660009081526005602052604081208054600192906110b39084906124a9565b909155505060008181526004602052604080822080546001600160a01b0319166001600160a01b0386811691821790925591518493918716917fddf252ad1be2c89b69c2b068fc378daa952ba7f163c4a11628f55a4df523b3ef91a4505050565b61093b81336116b9565b6111288282610d4a565b60008281526001602052604090206106f59082610dce565b61114a828261171d565b60008281526001602052604090206106f59082611782565b600c5460ff166111ab5760405162461bcd60e51b815260206004820152601460248201527314185d5cd8589b194e881b9bdd081c185d5cd95960621b60448201526064016105bf565b600c805460ff191690557f5db9ee0a495bf2e6ff9c91a7834c1ba4fdd244a5e8aa4e537bd38aeae4b073aa335b6040516001600160a01b03909116815260200160405180910390a1565b6111fe336106ff565b6112635760405162461bcd60e51b815260206004820152603060248201527f4552433732314275726e61626c653a2063616c6c6572206973206e6f74206f7760448201526f1b995c881b9bdc88185c1c1c9bdd995960821b60648201526084016105bf565b61093b81611797565b8054806112bb5760405162461bcd60e51b815260206004820152601b60248201527f436f756e7465723a2064656372656d656e74206f766572666c6f77000000000060448201526064016105bf565b600019019055565b6112ed7f9f2df0fed2c77648de5860a4cc508cd0818c85b8b8a1ab4ceeef8d981c8956a633610ba9565b61135f5760405162461bcd60e51b815260206004820152603d60248201527f4552433732315072657365744d696e7465725061757365724175746f49643a2060448201527f6d7573742068617665206d696e74657220726f6c6520746f206d696e7400000060648201526084016105bf565b6113718161136c600d5490565b61183e565b61093b600d80546001019055565b600c5460ff16156113c55760405162461bcd60e51b815260206004820152601060248201526f14185d5cd8589b194e881c185d5cd95960821b60448201526064016105bf565b600c805460ff191660011790557f62e78cea01bee320cd4e420270b5ea74000d11b0c9f74754ebdbfc544b05a2586111d83390565b6000610ba2838361198c565b816001600160a01b0316836001600160a01b031614156114685760405162461bcd60e51b815260206004820152601960248201527f4552433732313a20617070726f766520746f2063616c6c65720000000000000060448201526064016105bf565b6001600160a01b03838116600081815260076020908152604080832094871680845294825291829020805460ff191686151590811790915591519182527f17307eab39ab6107e8899845ad3d59bd9653f200f220920489ca2b5937696c31910160405180910390a3505050565b6114e0848484610f6d565b6114ec848484846119b6565b610c1e5760405162461bcd60e51b81526004016105bf90612406565b6060600e80546104c79061254e565b60608161153b5750506040805180820190915260018152600360fc1b602082015290565b8160005b8115611565578061154f81612589565b915061155e9050600a836124c1565b915061153f565b60008167ffffffffffffffff81111561158057611580612610565b6040519080825280601f01601f1916602001820160405280156115aa576020820181803683370190505b5090505b8415610f65576115bf6001836124f4565b91506115cc600a866125a4565b6115d79060306124a9565b60f81b8183815181106115ec576115ec6125fa565b60200101906001600160f81b031916908160001a90535061160e600a866124c1565b94506115ae565b60006104b2825490565b6000818152600183016020526040812054611666575081546001818101845560008481526020808220909301849055845484825282860190935260409020919091556104b2565b5060006104b2565b60006001600160e01b031982166380ac58cd60e01b148061169f57506001600160e01b03198216635b5e139f60e01b145b806104b257506104b282611ac3565b6106f5838383611ae8565b6116c38282610ba9565b610861576116db816001600160a01b03166014611b5a565b6116e6836020611b5a565b6040516020016116f7929190612341565b60408051601f198184030181529082905262461bcd60e51b82526105bf916004016123f3565b6117278282610ba9565b15610861576000828152602081815260408083206001600160a01b0385168085529252808320805460ff1916905551339285917ff6391f5c32d9c69d2a47ea670b442974b53935d1edc7fd64eb21e047a839171b9190a45050565b6000610ba2836001600160a01b038416611cf6565b60006117a2826109d1565b90506117b0816000846116ae565b6117bb600083610e08565b6001600160a01b03811660009081526005602052604081208054600192906117e49084906124f4565b909155505060008281526004602052604080822080546001600160a01b0319169055518391906001600160a01b038416907fddf252ad1be2c89b69c2b068fc378daa952ba7f163c4a11628f55a4df523b3ef908390a45050565b6001600160a01b0382166118945760405162461bcd60e51b815260206004820181905260248201527f4552433732313a206d696e7420746f20746865207a65726f206164647265737360448201526064016105bf565b6000818152600460205260409020546001600160a01b0316156118f95760405162461bcd60e51b815260206004820152601c60248201527f4552433732313a20746f6b656e20616c7265616479206d696e7465640000000060448201526064016105bf565b611905600083836116ae565b6001600160a01b038216600090815260056020526040812080546001929061192e9084906124a9565b909155505060008181526004602052604080822080546001600160a01b0319166001600160a01b03861690811790915590518392907fddf252ad1be2c89b69c2b068fc378daa952ba7f163c4a11628f55a4df523b3ef908290a45050565b60008260000182815481106119a3576119a36125fa565b9060005260206000200154905092915050565b60006001600160a01b0384163b15611ab857604051630a85bd0160e11b81526001600160a01b0385169063150b7a02906119fa9033908990889088906004016123b6565b602060405180830381600087803b158015611a1457600080fd5b505af1925050508015611a44575060408051601f3d908101601f19168201909252611a41918101906122c9565b60015b611a9e573d808015611a72576040519150601f19603f3d011682016040523d82523d6000602084013e611a77565b606091505b508051611a965760405162461bcd60e51b81526004016105bf90612406565b805181602001fd5b6001600160e01b031916630a85bd0160e11b149050610f65565b506001949350505050565b60006001600160e01b03198216635a05180f60e01b14806104b257506104b282611de9565b611af3838383611e1e565b600c5460ff16156106f55760405162461bcd60e51b815260206004820152602b60248201527f4552433732315061757361626c653a20746f6b656e207472616e73666572207760448201526a1a1a5b19481c185d5cd95960aa1b60648201526084016105bf565b60606000611b698360026124d5565b611b749060026124a9565b67ffffffffffffffff811115611b8c57611b8c612610565b6040519080825280601f01601f191660200182016040528015611bb6576020820181803683370190505b509050600360fc1b81600081518110611bd157611bd16125fa565b60200101906001600160f81b031916908160001a905350600f60fb1b81600181518110611c0057611c006125fa565b60200101906001600160f81b031916908160001a9053506000611c248460026124d5565b611c2f9060016124a9565b90505b6001811115611ca7576f181899199a1a9b1b9c1cb0b131b232b360811b85600f1660108110611c6357611c636125fa565b1a60f81b828281518110611c7957611c796125fa565b60200101906001600160f81b031916908160001a90535060049490941c93611ca081612537565b9050611c32565b508315610ba25760405162461bcd60e51b815260206004820181905260248201527f537472696e67733a20686578206c656e67746820696e73756666696369656e7460448201526064016105bf565b60008181526001830160205260408120548015611ddf576000611d1a6001836124f4565b8554909150600090611d2e906001906124f4565b9050818114611d93576000866000018281548110611d4e57611d4e6125fa565b9060005260206000200154905080876000018481548110611d7157611d716125fa565b6000918252602080832090910192909255918252600188019052604090208390555b8554869080611da457611da46125e4565b6001900381819060005260206000200160009055905585600101600086815260200190815260200160002060009055600193505050506104b2565b60009150506104b2565b60006001600160e01b03198216637965db0b60e01b14806104b257506301ffc9a760e01b6001600160e01b03198316146104b2565b6001600160a01b038316611e7957611e7481600a80546000838152600b60205260408120829055600182018355919091527fc65a7bb8d6351c1cf70c95a316cc6a92839c986682d98bc35f958f4883f9d2a80155565b611e9c565b816001600160a01b0316836001600160a01b031614611e9c57611e9c8382611ed6565b6001600160a01b038216611eb3576106f581611f73565b826001600160a01b0316826001600160a01b0316146106f5576106f58282612022565b60006001611ee384610a5f565b611eed91906124f4565b600083815260096020526040902054909150808214611f40576001600160a01b03841660009081526008602090815260408083208584528252808320548484528184208190558352600990915290208190555b5060009182526009602090815260408084208490556001600160a01b039094168352600881528383209183525290812055565b600a54600090611f85906001906124f4565b6000838152600b6020526040812054600a8054939450909284908110611fad57611fad6125fa565b9060005260206000200154905080600a8381548110611fce57611fce6125fa565b6000918252602080832090910192909255828152600b9091526040808220849055858252812055600a805480612006576120066125e4565b6001900381819060005260206000200160009055905550505050565b600061202d83610a5f565b6001600160a01b039093166000908152600860209081526040808320868452825280832085905593825260099052919091209190915550565b80356001600160a01b038116811461207d57600080fd5b919050565b60006020828403121561209457600080fd5b610ba282612066565b600080604083850312156120b057600080fd5b6120b983612066565b91506120c760208401612066565b90509250929050565b6000806000606084860312156120e557600080fd5b6120ee84612066565b92506120fc60208501612066565b9150604084013590509250925092565b6000806000806080858703121561212257600080fd5b61212b85612066565b935061213960208601612066565b925060408501359150606085013567ffffffffffffffff8082111561215d57600080fd5b818701915087601f83011261217157600080fd5b81358181111561218357612183612610565b604051601f8201601f19908116603f011681019083821181831017156121ab576121ab612610565b816040528281528a60208487010111156121c457600080fd5b82602086016020830137600060208483010152809550505050505092959194509250565b600080604083850312156121fb57600080fd5b61220483612066565b91506020830135801515811461221957600080fd5b809150509250929050565b6000806040838503121561223757600080fd5b61224083612066565b946020939093013593505050565b60006020828403121561226057600080fd5b5035919050565b6000806040838503121561227a57600080fd5b823591506120c760208401612066565b6000806040838503121561229d57600080fd5b50508035926020909101359150565b6000602082840312156122be57600080fd5b8135610ba281612626565b6000602082840312156122db57600080fd5b8151610ba281612626565b600081518084526122fe81602086016020860161250b565b601f01601f19169290920160200192915050565b6000835161232481846020880161250b565b83519083019061233881836020880161250b565b01949350505050565b7f416363657373436f6e74726f6c3a206163636f756e742000000000000000000081526000835161237981601785016020880161250b565b7001034b99036b4b9b9b4b733903937b6329607d1b60179184019182015283516123aa81602884016020880161250b565b01602801949350505050565b6001600160a01b03858116825284166020820152604081018390526080606082018190526000906123e9908301846122e6565b9695505050505050565b602081526000610ba260208301846122e6565b60208082526032908201527f4552433732313a207472616e7366657220746f206e6f6e20455243373231526560408201527131b2b4bb32b91034b6b83632b6b2b73a32b960711b606082015260800190565b60208082526031908201527f4552433732313a207472616e736665722063616c6c6572206973206e6f74206f6040820152701ddb995c881b9bdc88185c1c1c9bdd9959607a1b606082015260800190565b600082198211156124bc576124bc6125b8565b500190565b6000826124d0576124d06125ce565b500490565b60008160001904831182151516156124ef576124ef6125b8565b500290565b600082821015612506576125066125b8565b500390565b60005b8381101561252657818101518382015260200161250e565b83811115610c1e5750506000910152565b600081612546576125466125b8565b506000190190565b600181811c9082168061256257607f821691505b6020821081141561258357634e487b7160e01b600052602260045260246000fd5b50919050565b600060001982141561259d5761259d6125b8565b5060010190565b6000826125b3576125b36125ce565b500690565b634e487b7160e01b600052601160045260246000fd5b634e487b7160e01b600052601260045260246000fd5b634e487b7160e01b600052603160045260246000fd5b634e487b7160e01b600052603260045260246000fd5b634e487b7160e01b600052604160045260246000fd5b6001600160e01b03198116811461093b57600080fdfea2646970667358221220a97286e57e7d7c0a563b19ad42d481b21da21956b76f10b7a72de32e860d259964736f6c63430008070033",
  "immutableReferences": {},
  "source": "// SPDX-License-Identifier: MIT\npragma solidity 0.8.7;\n\nimport \"@openzeppelin/contracts/token/ERC721/presets/ERC721PresetMinterPauserAutoId.sol\";\nimport \"@openzeppelin/contracts/utils/Counters.sol\";\n\ncontract TVTBToken is ERC721PresetMinterPauserAutoId {\n    using Counters for Counters.Counter;\n\n    Counters.Counter private _counterTracker;\n\n    constructor(\n        string memory name,\n        string memory symbol,\n        string memory baseTokenURI\n    ) ERC721PresetMinterPauserAutoId(name, symbol, baseTokenURI) {}\n\n    function burn(uint256 tokenId) public override {\n        super.burn(tokenId);\n\n        _counterTracker.decrement();\n    }\n\n    function getNumber() external view returns (uint256) {\n        return _counterTracker.current();\n    }\n\n    function mint(address to) public override {\n        super.mint(to);\n\n        _counterTracker.increment();\n    }\n}\n",
  "sourcePath": "/Users/ievgencherkaskyi/Projects/tivan/launchpool/contracts/TVTB/TVTBToken.sol",
  "compiler": {
    "name": "solc",
    "version": "0.8.7+commit.e28d00a7.Emscripten.clang"
  },
  "schemaVersion": "3.4.7",
  "updatedAt": "2022-06-12T04:35:15.366Z",
  "devdoc": {
    "kind": "dev",
    "methods": {
      "approve(address,uint256)": {
        "details": "See {IERC721-approve}."
      },
      "balanceOf(address)": {
        "details": "See {IERC721-balanceOf}."
      },
      "burn(uint256)": {
        "details": "Burns `tokenId`. See {ERC721-_burn}. Requirements: - The caller must own `tokenId` or be an approved operator."
      },
      "getApproved(uint256)": {
        "details": "See {IERC721-getApproved}."
      },
      "getRoleAdmin(bytes32)": {
        "details": "Returns the admin role that controls `role`. See {grantRole} and {revokeRole}. To change a role's admin, use {_setRoleAdmin}."
      },
      "getRoleMember(bytes32,uint256)": {
        "details": "Returns one of the accounts that have `role`. `index` must be a value between 0 and {getRoleMemberCount}, non-inclusive. Role bearers are not sorted in any particular way, and their ordering may change at any point. WARNING: When using {getRoleMember} and {getRoleMemberCount}, make sure you perform all queries on the same block. See the following https://forum.openzeppelin.com/t/iterating-over-elements-on-enumerableset-in-openzeppelin-contracts/2296[forum post] for more information."
      },
      "getRoleMemberCount(bytes32)": {
        "details": "Returns the number of accounts that have `role`. Can be used together with {getRoleMember} to enumerate all bearers of a role."
      },
      "grantRole(bytes32,address)": {
        "details": "Grants `role` to `account`. If `account` had not been already granted `role`, emits a {RoleGranted} event. Requirements: - the caller must have ``role``'s admin role."
      },
      "hasRole(bytes32,address)": {
        "details": "Returns `true` if `account` has been granted `role`."
      },
      "isApprovedForAll(address,address)": {
        "details": "See {IERC721-isApprovedForAll}."
      },
      "mint(address)": {
        "details": "Creates a new token for `to`. Its token ID will be automatically assigned (and available on the emitted {IERC721-Transfer} event), and the token URI autogenerated based on the base URI passed at construction. See {ERC721-_mint}. Requirements: - the caller must have the `MINTER_ROLE`."
      },
      "name()": {
        "details": "See {IERC721Metadata-name}."
      },
      "ownerOf(uint256)": {
        "details": "See {IERC721-ownerOf}."
      },
      "pause()": {
        "details": "Pauses all token transfers. See {ERC721Pausable} and {Pausable-_pause}. Requirements: - the caller must have the `PAUSER_ROLE`."
      },
      "paused()": {
        "details": "Returns true if the contract is paused, and false otherwise."
      },
      "renounceRole(bytes32,address)": {
        "details": "Revokes `role` from the calling account. Roles are often managed via {grantRole} and {revokeRole}: this function's purpose is to provide a mechanism for accounts to lose their privileges if they are compromised (such as when a trusted device is misplaced). If the calling account had been revoked `role`, emits a {RoleRevoked} event. Requirements: - the caller must be `account`."
      },
      "revokeRole(bytes32,address)": {
        "details": "Revokes `role` from `account`. If `account` had been granted `role`, emits a {RoleRevoked} event. Requirements: - the caller must have ``role``'s admin role."
      },
      "safeTransferFrom(address,address,uint256)": {
        "details": "See {IERC721-safeTransferFrom}."
      },
      "safeTransferFrom(address,address,uint256,bytes)": {
        "details": "See {IERC721-safeTransferFrom}."
      },
      "setApprovalForAll(address,bool)": {
        "details": "See {IERC721-setApprovalForAll}."
      },
      "supportsInterface(bytes4)": {
        "details": "See {IERC165-supportsInterface}."
      },
      "symbol()": {
        "details": "See {IERC721Metadata-symbol}."
      },
      "tokenByIndex(uint256)": {
        "details": "See {IERC721Enumerable-tokenByIndex}."
      },
      "tokenOfOwnerByIndex(address,uint256)": {
        "details": "See {IERC721Enumerable-tokenOfOwnerByIndex}."
      },
      "tokenURI(uint256)": {
        "details": "See {IERC721Metadata-tokenURI}."
      },
      "totalSupply()": {
        "details": "See {IERC721Enumerable-totalSupply}."
      },
      "transferFrom(address,address,uint256)": {
        "details": "See {IERC721-transferFrom}."
      },
      "unpause()": {
        "details": "Unpauses all token transfers. See {ERC721Pausable} and {Pausable-_unpause}. Requirements: - the caller must have the `PAUSER_ROLE`."
      }
    },
    "version": 1
  },
  "userdoc": {
    "kind": "user",
    "methods": {},
    "version": 1
  }
}