{
  "contractName": "TVTBTokenCrowdsale",
  "abi": [
    {
      "inputs": [
        {
          "internalType": "uint256",
          "name": "rate",
          "type": "uint256"
        },
        {
          "internalType": "contract ERC721PresetMinterPauserAutoId",
          "name": "token",
          "type": "address"
        }
      ],
      "stateMutability": "nonpayable",
      "type": "constructor"
    },
    {
      "inputs": [],
      "name": "TVTTokenAlreadyBought",
      "type": "error"
    },
    {
      "inputs": [],
      "name": "TVTTokenOnlyOne",
      "type": "error"
    },
    {
      "anonymous": false,
      "inputs": [
        {
          "indexed": true,
          "internalType": "address",
          "name": "beneficiary",
          "type": "address"
        },
        {
          "indexed": false,
          "internalType": "uint256",
          "name": "value",
          "type": "uint256"
        },
        {
          "indexed": false,
          "internalType": "uint256",
          "name": "amount",
          "type": "uint256"
        }
      ],
      "name": "AfterCrowdsaleBuyTokens",
      "type": "event"
    },
    {
      "anonymous": false,
      "inputs": [
        {
          "indexed": false,
          "internalType": "uint256",
          "name": "oldRate",
          "type": "uint256"
        },
        {
          "indexed": false,
          "internalType": "uint256",
          "name": "newRate",
          "type": "uint256"
        }
      ],
      "name": "BeforeCrowdsaleSetRate",
      "type": "event"
    },
    {
      "anonymous": false,
      "inputs": [
        {
          "indexed": true,
          "internalType": "address",
          "name": "previousOwner",
          "type": "address"
        },
        {
          "indexed": true,
          "internalType": "address",
          "name": "newOwner",
          "type": "address"
        }
      ],
      "name": "OwnershipTransferred",
      "type": "event"
    },
    {
      "inputs": [],
      "name": "buyTokens",
      "outputs": [],
      "stateMutability": "payable",
      "type": "function",
      "payable": true
    },
    {
      "inputs": [],
      "name": "getRate",
      "outputs": [
        {
          "internalType": "uint256",
          "name": "",
          "type": "uint256"
        }
      ],
      "stateMutability": "view",
      "type": "function",
      "constant": true
    },
    {
      "inputs": [],
      "name": "getWeiRaised",
      "outputs": [
        {
          "internalType": "uint256",
          "name": "",
          "type": "uint256"
        }
      ],
      "stateMutability": "view",
      "type": "function",
      "constant": true
    },
    {
      "inputs": [],
      "name": "owner",
      "outputs": [
        {
          "internalType": "address",
          "name": "",
          "type": "address"
        }
      ],
      "stateMutability": "view",
      "type": "function",
      "constant": true
    },
    {
      "inputs": [],
      "name": "renounceOwnership",
      "outputs": [],
      "stateMutability": "nonpayable",
      "type": "function"
    },
    {
      "inputs": [
        {
          "internalType": "uint256",
          "name": "rate",
          "type": "uint256"
        }
      ],
      "name": "setRate",
      "outputs": [],
      "stateMutability": "nonpayable",
      "type": "function"
    },
    {
      "inputs": [
        {
          "internalType": "address",
          "name": "newOwner",
          "type": "address"
        }
      ],
      "name": "transferOwnership",
      "outputs": [],
      "stateMutability": "nonpayable",
      "type": "function"
    },
    {
      "stateMutability": "payable",
      "type": "receive",
      "payable": true
    },
    {
      "inputs": [],
      "name": "getToken",
      "outputs": [
        {
          "internalType": "contract ERC721PresetMinterPauserAutoId",
          "name": "",
          "type": "address"
        }
      ],
      "stateMutability": "view",
      "type": "function",
      "constant": true
    }
  ],
  "bytecode": "0x608060405234801561001057600080fd5b506040516109af3803806109af83398101604081905261002f9161016a565b816100393361011a565b600180558061008f5760405162461bcd60e51b815260206004820152601460248201527f43726f776473616c653a2072617465206973203000000000000000000000000060448201526064015b60405180910390fd5b6002556001600160a01b0381166100f45760405162461bcd60e51b8152602060048201526024808201527f43726f776473616c653a20746f6b656e20697320746865207a65726f206164646044820152637265737360e01b6064820152608401610086565b600480546001600160a01b0319166001600160a01b0392909216919091179055506101a7565b600080546001600160a01b038381166001600160a01b0319831681178455604051919092169283917f8be0079c531659141344cd1fd0a4f28419497f9722a3daafe3b4186f6b6457e09190a35050565b6000806040838503121561017d57600080fd5b825160208401519092506001600160a01b038116811461019c57600080fd5b809150509250929050565b6107f9806101b66000396000f3fe60806040526004361061007f5760003560e01c8063715018a61161004e578063715018a6146101185780638da5cb5b1461012d578063d0febe4c1461014b578063f2fde38b1461015357600080fd5b806321df0da71461008b57806334fcf437146100c257806340582f13146100e4578063679aefce1461010357600080fd5b3661008657005b600080fd5b34801561009757600080fd5b506004546001600160a01b03165b6040516001600160a01b0390911681526020015b60405180910390f35b3480156100ce57600080fd5b506100e26100dd3660046106f4565b610173565b005b3480156100f057600080fd5b506003545b6040519081526020016100b9565b34801561010f57600080fd5b506002546100f5565b34801561012457600080fd5b506100e26101e7565b34801561013957600080fd5b506000546001600160a01b03166100a5565b6100e261021d565b34801561015f57600080fd5b506100e261016e3660046106cb565b6102ff565b6000546001600160a01b031633146101a65760405162461bcd60e51b815260040161019d90610726565b60405180910390fd5b60025460408051918252602082018390527f087f280cda785760f07a7708d1eca30d6ced75d7319a3404b02c5d98b6500f23910160405180910390a1600255565b6000546001600160a01b031633146102115760405162461bcd60e51b815260040161019d90610726565b61021b600061039a565b565b600260015414156102705760405162461bcd60e51b815260206004820152601f60248201527f5265656e7472616e637947756172643a207265656e7472616e742063616c6c00604482015260640161019d565b6002600155333461028182826103ea565b600061028c82610454565b60035490915061029c9083610478565b6003556102a9838261048b565b60408051838152602081018390526001600160a01b038516917f85bec9fa7bf00761dd3badd9aebcb5ca4147d2abf1b17864efcb6627e33ad2c4910160405180910390a26102f682610499565b50506001805550565b6000546001600160a01b031633146103295760405162461bcd60e51b815260040161019d90610726565b6001600160a01b03811661038e5760405162461bcd60e51b815260206004820152602660248201527f4f776e61626c653a206e6577206f776e657220697320746865207a65726f206160448201526564647265737360d01b606482015260840161019d565b6103978161039a565b50565b600080546001600160a01b038381166001600160a01b0319831681178455604051919092169283917f8be0079c531659141344cd1fd0a4f28419497f9722a3daafe3b4186f6b6457e09190a35050565b6103f482826104aa565b60006103ff82610454565b905080600114610422576040516315b2471760e01b815260040160405180910390fd5b600061042d84610560565b9050801561044e57604051632a21471160e01b815260040160405180910390fd5b50505050565b60006002546000141561046957506001919050565b610472826105ef565b92915050565b6000610484828461075b565b9392505050565b6104958282610606565b5050565b600254156103975761039781610692565b6001600160a01b0382166105135760405162461bcd60e51b815260206004820152602a60248201527f43726f776473616c653a2062656e656669636961727920697320746865207a65604482015269726f206164647265737360b01b606482015260840161019d565b806104955760405162461bcd60e51b815260206004820152601960248201527f43726f776473616c653a20776569416d6f756e74206973203000000000000000604482015260640161019d565b60006105746004546001600160a01b031690565b6040516370a0823160e01b81526001600160a01b03848116600483015291909116906370a082319060240160206040518083038186803b1580156105b757600080fd5b505afa1580156105cb573d6000803e3d6000fd5b505050506040513d601f19601f82011682018060405250810190610472919061070d565b6000610472600254836106bf90919063ffffffff16565b60005b8181101561068d576004546001600160a01b03166040516335313c2160e11b81526001600160a01b0385811660048301529190911690636a62784290602401600060405180830381600087803b15801561066257600080fd5b505af1158015610676573d6000803e3d6000fd5b50505050808061068590610792565b915050610609565b505050565b604051309082156108fc029083906000818181858888f19350505050158015610495573d6000803e3d6000fd5b60006104848284610773565b6000602082840312156106dd57600080fd5b81356001600160a01b038116811461048457600080fd5b60006020828403121561070657600080fd5b5035919050565b60006020828403121561071f57600080fd5b5051919050565b6020808252818101527f4f776e61626c653a2063616c6c6572206973206e6f7420746865206f776e6572604082015260600190565b6000821982111561076e5761076e6107ad565b500190565b600081600019048311821515161561078d5761078d6107ad565b500290565b60006000198214156107a6576107a66107ad565b5060010190565b634e487b7160e01b600052601160045260246000fdfea264697066735822122080569a2837360bc4c9d24fec4eda6e2c37eac59a8e3dd349a86c3e76880b54c264736f6c63430008070033",
  "immutableReferences": {},
  "source": "// SPDX-License-Identifier: MIT\npragma solidity 0.8.7;\n\nimport \"@openzeppelin/contracts/token/ERC721/presets/ERC721PresetMinterPauserAutoId.sol\";\n\nimport \"../Crowdsale.sol\";\n\n/**\n * @title TVTBTokenCrowdsale\n * @dev Extension of Crowdsale contract whose tokens are minted in each purchase.\n * Token ownership should be transferred to TVTBTokenCrowdsale for minting.\n */\ncontract TVTBTokenCrowdsale is Crowdsale {\n    // The token being sold\n    ERC721PresetMinterPauserAutoId private _token;\n\n    error TVTTokenAlreadyBought();\n    error TVTTokenOnlyOne();\n\n    constructor(uint256 rate, ERC721PresetMinterPauserAutoId token)\n        Crowdsale(rate)\n    {\n        require(\n            address(token) != address(0),\n            \"Crowdsale: token is the zero address\"\n        );\n\n        _token = token;\n    }\n\n    /**\n     * @return the token being sold.\n     */\n    function getToken() public view returns (ERC721PresetMinterPauserAutoId) {\n        return ERC721PresetMinterPauserAutoId(address(_token));\n    }\n\n    function _balanceOf(address beneficiary) internal view returns (uint256) {\n        return getToken().balanceOf(beneficiary);\n    }\n\n    /**\n     * @dev Overrides delivery by minting tokens upon purchase.\n     * @param beneficiary Token purchaser\n     * @param tokenAmount Number of tokens to be minted\n     */\n    function _deliverTokens(address beneficiary, uint256 tokenAmount)\n        internal\n        override\n    {\n        for (uint256 i = 0; i < tokenAmount; i++) {\n            getToken().mint(beneficiary);\n        }\n    }\n\n    /**\n     * @dev Determines how ETH is stored/forwarded on purchases.\n     */\n    function _forwardFunds(uint256 weiAmount) internal override {\n        if (_rate != 0) {\n            super._forwardFunds(weiAmount);\n        }\n    }\n\n    /**\n     * @dev Override to extend the way in which ether is converted to tokens.\n     * @param weiAmount Value in wei to be converted into tokens\n     * @return Number of tokens that can be purchased with the specified _weiAmount\n     */\n    function _getTokenAmount(uint256 weiAmount)\n        internal\n        view\n        override\n        returns (uint256)\n    {\n        if (_rate == 0) {\n            return 1;\n        }\n\n        return super._getTokenAmount(weiAmount);\n    }\n\n    function _preValidatePurchase(address beneficiary, uint256 weiAmount)\n        internal\n        view\n        override\n    {\n        super._preValidatePurchase(beneficiary, weiAmount);\n\n        uint256 tokenAmount = _getTokenAmount(weiAmount);\n\n        if (tokenAmount != 1) {\n            revert TVTTokenOnlyOne();\n        }\n\n        uint256 balance = _balanceOf(beneficiary);\n\n        if (balance != 0) {\n            revert TVTTokenAlreadyBought();\n        }\n    }\n}\n",
  "sourcePath": "/Users/ievgencherkaskyi/Projects/tivan/launchpool/contracts/TVTB/TVTBTokenCrowdsale.sol",
  "compiler": {
    "name": "solc",
    "version": "0.8.7+commit.e28d00a7.Emscripten.clang"
  },
  "schemaVersion": "3.3.3",
  "updatedAt": "2022-06-29T07:06:06.665Z",
  "networkType": "ethereum",
  "devdoc": {
    "details": "Extension of Crowdsale contract whose tokens are minted in each purchase. Token ownership should be transferred to TVTBTokenCrowdsale for minting.",
    "kind": "dev",
    "methods": {
      "buyTokens()": {
        "details": "low level token purchase ***DO NOT OVERRIDE*** This function has a non-reentrancy guard, so it shouldn't be called by another `nonReentrant` function."
      },
      "getRate()": {
        "returns": {
          "_0": "the number of token units a buyer gets per wei."
        }
      },
      "getToken()": {
        "returns": {
          "_0": "the token being sold."
        }
      },
      "getWeiRaised()": {
        "returns": {
          "_0": "the amount of wei raised."
        }
      },
      "owner()": {
        "details": "Returns the address of the current owner."
      },
      "renounceOwnership()": {
        "details": "Leaves the contract without owner. It will not be possible to call `onlyOwner` functions anymore. Can only be called by the current owner. NOTE: Renouncing ownership will leave the contract without an owner, thereby removing any functionality that is only available to the owner."
      },
      "setRate(uint256)": {
        "params": {
          "rate": "Number of token units a buyer gets per wei"
        }
      },
      "transferOwnership(address)": {
        "details": "Transfers ownership of the contract to a new account (`newOwner`). Can only be called by the current owner."
      }
    },
    "title": "TVTBTokenCrowdsale",
    "version": 1
  },
  "userdoc": {
    "events": {
      "AfterCrowdsaleBuyTokens(address,uint256,uint256)": {
        "notice": "Event for token purchase logging"
      }
    },
    "kind": "user",
    "methods": {
      "setRate(uint256)": {
        "notice": "This function set the rate of token"
      }
    },
    "version": 1
  }
}