{
  "contractName": "TVTL",
  "abi": [
    {
      "anonymous": false,
      "inputs": [
        {
          "indexed": true,
          "internalType": "address",
          "name": "owner",
          "type": "address"
        },
        {
          "indexed": true,
          "internalType": "address",
          "name": "approved",
          "type": "address"
        },
        {
          "indexed": true,
          "internalType": "uint256",
          "name": "tokenId",
          "type": "uint256"
        }
      ],
      "name": "Approval",
      "type": "event"
    },
    {
      "anonymous": false,
      "inputs": [
        {
          "indexed": true,
          "internalType": "address",
          "name": "owner",
          "type": "address"
        },
        {
          "indexed": true,
          "internalType": "address",
          "name": "operator",
          "type": "address"
        },
        {
          "indexed": false,
          "internalType": "bool",
          "name": "approved",
          "type": "bool"
        }
      ],
      "name": "ApprovalForAll",
      "type": "event"
    },
    {
      "anonymous": false,
      "inputs": [
        {
          "indexed": false,
          "internalType": "uint8",
          "name": "version",
          "type": "uint8"
        }
      ],
      "name": "Initialized",
      "type": "event"
    },
    {
      "anonymous": false,
      "inputs": [
        {
          "indexed": true,
          "internalType": "address",
          "name": "previousOwner",
          "type": "address"
        },
        {
          "indexed": true,
          "internalType": "address",
          "name": "newOwner",
          "type": "address"
        }
      ],
      "name": "OwnershipTransferred",
      "type": "event"
    },
    {
      "anonymous": false,
      "inputs": [
        {
          "indexed": false,
          "internalType": "address",
          "name": "account",
          "type": "address"
        }
      ],
      "name": "Paused",
      "type": "event"
    },
    {
      "anonymous": false,
      "inputs": [
        {
          "indexed": true,
          "internalType": "bytes32",
          "name": "role",
          "type": "bytes32"
        },
        {
          "indexed": true,
          "internalType": "bytes32",
          "name": "previousAdminRole",
          "type": "bytes32"
        },
        {
          "indexed": true,
          "internalType": "bytes32",
          "name": "newAdminRole",
          "type": "bytes32"
        }
      ],
      "name": "RoleAdminChanged",
      "type": "event"
    },
    {
      "anonymous": false,
      "inputs": [
        {
          "indexed": true,
          "internalType": "bytes32",
          "name": "role",
          "type": "bytes32"
        },
        {
          "indexed": true,
          "internalType": "address",
          "name": "account",
          "type": "address"
        },
        {
          "indexed": true,
          "internalType": "address",
          "name": "sender",
          "type": "address"
        }
      ],
      "name": "RoleGranted",
      "type": "event"
    },
    {
      "anonymous": false,
      "inputs": [
        {
          "indexed": true,
          "internalType": "bytes32",
          "name": "role",
          "type": "bytes32"
        },
        {
          "indexed": true,
          "internalType": "address",
          "name": "account",
          "type": "address"
        },
        {
          "indexed": true,
          "internalType": "address",
          "name": "sender",
          "type": "address"
        }
      ],
      "name": "RoleRevoked",
      "type": "event"
    },
    {
      "anonymous": false,
      "inputs": [
        {
          "components": [
            {
              "internalType": "uint8",
              "name": "color",
              "type": "uint8"
            },
            {
              "components": [
                {
                  "internalType": "uint256",
                  "name": "performance",
                  "type": "uint256"
                },
                {
                  "internalType": "uint256",
                  "name": "startDateTime",
                  "type": "uint256"
                },
                {
                  "internalType": "uint256",
                  "name": "endDateTime",
                  "type": "uint256"
                }
              ],
              "internalType": "struct TVTL.License",
              "name": "license",
              "type": "tuple"
            },
            {
              "internalType": "string",
              "name": "message",
              "type": "string"
            },
            {
              "internalType": "uint8",
              "name": "purpose",
              "type": "uint8"
            },
            {
              "components": [
                {
                  "internalType": "address",
                  "name": "landlord",
                  "type": "address"
                },
                {
                  "internalType": "address",
                  "name": "tenant",
                  "type": "address"
                },
                {
                  "internalType": "uint256",
                  "name": "startDateTime",
                  "type": "uint256"
                },
                {
                  "internalType": "uint256",
                  "name": "endDateTime",
                  "type": "uint256"
                }
              ],
              "internalType": "struct TVTL.Rent[]",
              "name": "rents",
              "type": "tuple[]"
            },
            {
              "internalType": "uint256",
              "name": "tokenId",
              "type": "uint256"
            }
          ],
          "indexed": false,
          "internalType": "struct TVTL.Land",
          "name": "land",
          "type": "tuple"
        }
      ],
      "name": "TVTLRent",
      "type": "event"
    },
    {
      "anonymous": false,
      "inputs": [
        {
          "indexed": true,
          "internalType": "address",
          "name": "from",
          "type": "address"
        },
        {
          "indexed": true,
          "internalType": "address",
          "name": "to",
          "type": "address"
        },
        {
          "indexed": true,
          "internalType": "uint256",
          "name": "tokenId",
          "type": "uint256"
        }
      ],
      "name": "Transfer",
      "type": "event"
    },
    {
      "anonymous": false,
      "inputs": [
        {
          "indexed": false,
          "internalType": "address",
          "name": "account",
          "type": "address"
        }
      ],
      "name": "Unpaused",
      "type": "event"
    },
    {
      "inputs": [],
      "name": "DEFAULT_ADMIN_ROLE",
      "outputs": [
        {
          "internalType": "bytes32",
          "name": "",
          "type": "bytes32"
        }
      ],
      "stateMutability": "view",
      "type": "function",
      "constant": true
    },
    {
      "inputs": [],
      "name": "MINTER_ROLE",
      "outputs": [
        {
          "internalType": "bytes32",
          "name": "",
          "type": "bytes32"
        }
      ],
      "stateMutability": "view",
      "type": "function",
      "constant": true
    },
    {
      "inputs": [],
      "name": "PAUSER_ROLE",
      "outputs": [
        {
          "internalType": "bytes32",
          "name": "",
          "type": "bytes32"
        }
      ],
      "stateMutability": "view",
      "type": "function",
      "constant": true
    },
    {
      "inputs": [
        {
          "internalType": "address",
          "name": "to",
          "type": "address"
        },
        {
          "internalType": "uint256",
          "name": "tokenId",
          "type": "uint256"
        }
      ],
      "name": "approve",
      "outputs": [],
      "stateMutability": "nonpayable",
      "type": "function"
    },
    {
      "inputs": [
        {
          "internalType": "address",
          "name": "owner",
          "type": "address"
        }
      ],
      "name": "balanceOf",
      "outputs": [
        {
          "internalType": "uint256",
          "name": "",
          "type": "uint256"
        }
      ],
      "stateMutability": "view",
      "type": "function",
      "constant": true
    },
    {
      "inputs": [
        {
          "internalType": "uint256",
          "name": "tokenId",
          "type": "uint256"
        }
      ],
      "name": "burn",
      "outputs": [],
      "stateMutability": "nonpayable",
      "type": "function"
    },
    {
      "inputs": [
        {
          "internalType": "uint256",
          "name": "tokenId",
          "type": "uint256"
        }
      ],
      "name": "getApproved",
      "outputs": [
        {
          "internalType": "address",
          "name": "",
          "type": "address"
        }
      ],
      "stateMutability": "view",
      "type": "function",
      "constant": true
    },
    {
      "inputs": [
        {
          "internalType": "bytes32",
          "name": "role",
          "type": "bytes32"
        }
      ],
      "name": "getRoleAdmin",
      "outputs": [
        {
          "internalType": "bytes32",
          "name": "",
          "type": "bytes32"
        }
      ],
      "stateMutability": "view",
      "type": "function",
      "constant": true
    },
    {
      "inputs": [
        {
          "internalType": "bytes32",
          "name": "role",
          "type": "bytes32"
        },
        {
          "internalType": "uint256",
          "name": "index",
          "type": "uint256"
        }
      ],
      "name": "getRoleMember",
      "outputs": [
        {
          "internalType": "address",
          "name": "",
          "type": "address"
        }
      ],
      "stateMutability": "view",
      "type": "function",
      "constant": true
    },
    {
      "inputs": [
        {
          "internalType": "bytes32",
          "name": "role",
          "type": "bytes32"
        }
      ],
      "name": "getRoleMemberCount",
      "outputs": [
        {
          "internalType": "uint256",
          "name": "",
          "type": "uint256"
        }
      ],
      "stateMutability": "view",
      "type": "function",
      "constant": true
    },
    {
      "inputs": [
        {
          "internalType": "bytes32",
          "name": "role",
          "type": "bytes32"
        },
        {
          "internalType": "address",
          "name": "account",
          "type": "address"
        }
      ],
      "name": "grantRole",
      "outputs": [],
      "stateMutability": "nonpayable",
      "type": "function"
    },
    {
      "inputs": [
        {
          "internalType": "bytes32",
          "name": "role",
          "type": "bytes32"
        },
        {
          "internalType": "address",
          "name": "account",
          "type": "address"
        }
      ],
      "name": "hasRole",
      "outputs": [
        {
          "internalType": "bool",
          "name": "",
          "type": "bool"
        }
      ],
      "stateMutability": "view",
      "type": "function",
      "constant": true
    },
    {
      "inputs": [
        {
          "internalType": "string",
          "name": "name",
          "type": "string"
        },
        {
          "internalType": "string",
          "name": "symbol",
          "type": "string"
        },
        {
          "internalType": "string",
          "name": "baseTokenURI",
          "type": "string"
        }
      ],
      "name": "initialize",
      "outputs": [],
      "stateMutability": "nonpayable",
      "type": "function"
    },
    {
      "inputs": [
        {
          "internalType": "address",
          "name": "owner",
          "type": "address"
        },
        {
          "internalType": "address",
          "name": "operator",
          "type": "address"
        }
      ],
      "name": "isApprovedForAll",
      "outputs": [
        {
          "internalType": "bool",
          "name": "",
          "type": "bool"
        }
      ],
      "stateMutability": "view",
      "type": "function",
      "constant": true
    },
    {
      "inputs": [
        {
          "internalType": "address",
          "name": "to",
          "type": "address"
        }
      ],
      "name": "mint",
      "outputs": [],
      "stateMutability": "nonpayable",
      "type": "function"
    },
    {
      "inputs": [],
      "name": "name",
      "outputs": [
        {
          "internalType": "string",
          "name": "",
          "type": "string"
        }
      ],
      "stateMutability": "view",
      "type": "function",
      "constant": true
    },
    {
      "inputs": [],
      "name": "owner",
      "outputs": [
        {
          "internalType": "address",
          "name": "",
          "type": "address"
        }
      ],
      "stateMutability": "view",
      "type": "function",
      "constant": true
    },
    {
      "inputs": [
        {
          "internalType": "uint256",
          "name": "tokenId",
          "type": "uint256"
        }
      ],
      "name": "ownerOf",
      "outputs": [
        {
          "internalType": "address",
          "name": "",
          "type": "address"
        }
      ],
      "stateMutability": "view",
      "type": "function",
      "constant": true
    },
    {
      "inputs": [],
      "name": "pause",
      "outputs": [],
      "stateMutability": "nonpayable",
      "type": "function"
    },
    {
      "inputs": [],
      "name": "paused",
      "outputs": [
        {
          "internalType": "bool",
          "name": "",
          "type": "bool"
        }
      ],
      "stateMutability": "view",
      "type": "function",
      "constant": true
    },
    {
      "inputs": [],
      "name": "renounceOwnership",
      "outputs": [],
      "stateMutability": "nonpayable",
      "type": "function"
    },
    {
      "inputs": [
        {
          "internalType": "bytes32",
          "name": "role",
          "type": "bytes32"
        },
        {
          "internalType": "address",
          "name": "account",
          "type": "address"
        }
      ],
      "name": "renounceRole",
      "outputs": [],
      "stateMutability": "nonpayable",
      "type": "function"
    },
    {
      "inputs": [
        {
          "internalType": "bytes32",
          "name": "role",
          "type": "bytes32"
        },
        {
          "internalType": "address",
          "name": "account",
          "type": "address"
        }
      ],
      "name": "revokeRole",
      "outputs": [],
      "stateMutability": "nonpayable",
      "type": "function"
    },
    {
      "inputs": [
        {
          "internalType": "address",
          "name": "from",
          "type": "address"
        },
        {
          "internalType": "address",
          "name": "to",
          "type": "address"
        },
        {
          "internalType": "uint256",
          "name": "tokenId",
          "type": "uint256"
        }
      ],
      "name": "safeTransferFrom",
      "outputs": [],
      "stateMutability": "nonpayable",
      "type": "function"
    },
    {
      "inputs": [
        {
          "internalType": "address",
          "name": "from",
          "type": "address"
        },
        {
          "internalType": "address",
          "name": "to",
          "type": "address"
        },
        {
          "internalType": "uint256",
          "name": "tokenId",
          "type": "uint256"
        },
        {
          "internalType": "bytes",
          "name": "_data",
          "type": "bytes"
        }
      ],
      "name": "safeTransferFrom",
      "outputs": [],
      "stateMutability": "nonpayable",
      "type": "function"
    },
    {
      "inputs": [
        {
          "internalType": "address",
          "name": "operator",
          "type": "address"
        },
        {
          "internalType": "bool",
          "name": "approved",
          "type": "bool"
        }
      ],
      "name": "setApprovalForAll",
      "outputs": [],
      "stateMutability": "nonpayable",
      "type": "function"
    },
    {
      "inputs": [
        {
          "internalType": "bytes4",
          "name": "interfaceId",
          "type": "bytes4"
        }
      ],
      "name": "supportsInterface",
      "outputs": [
        {
          "internalType": "bool",
          "name": "",
          "type": "bool"
        }
      ],
      "stateMutability": "view",
      "type": "function",
      "constant": true
    },
    {
      "inputs": [],
      "name": "symbol",
      "outputs": [
        {
          "internalType": "string",
          "name": "",
          "type": "string"
        }
      ],
      "stateMutability": "view",
      "type": "function",
      "constant": true
    },
    {
      "inputs": [
        {
          "internalType": "uint256",
          "name": "index",
          "type": "uint256"
        }
      ],
      "name": "tokenByIndex",
      "outputs": [
        {
          "internalType": "uint256",
          "name": "",
          "type": "uint256"
        }
      ],
      "stateMutability": "view",
      "type": "function",
      "constant": true
    },
    {
      "inputs": [
        {
          "internalType": "address",
          "name": "owner",
          "type": "address"
        },
        {
          "internalType": "uint256",
          "name": "index",
          "type": "uint256"
        }
      ],
      "name": "tokenOfOwnerByIndex",
      "outputs": [
        {
          "internalType": "uint256",
          "name": "",
          "type": "uint256"
        }
      ],
      "stateMutability": "view",
      "type": "function",
      "constant": true
    },
    {
      "inputs": [
        {
          "internalType": "uint256",
          "name": "tokenId",
          "type": "uint256"
        }
      ],
      "name": "tokenURI",
      "outputs": [
        {
          "internalType": "string",
          "name": "",
          "type": "string"
        }
      ],
      "stateMutability": "view",
      "type": "function",
      "constant": true
    },
    {
      "inputs": [],
      "name": "totalSupply",
      "outputs": [
        {
          "internalType": "uint256",
          "name": "",
          "type": "uint256"
        }
      ],
      "stateMutability": "view",
      "type": "function",
      "constant": true
    },
    {
      "inputs": [
        {
          "internalType": "address",
          "name": "from",
          "type": "address"
        },
        {
          "internalType": "address",
          "name": "to",
          "type": "address"
        },
        {
          "internalType": "uint256",
          "name": "tokenId",
          "type": "uint256"
        }
      ],
      "name": "transferFrom",
      "outputs": [],
      "stateMutability": "nonpayable",
      "type": "function"
    },
    {
      "inputs": [
        {
          "internalType": "address",
          "name": "newOwner",
          "type": "address"
        }
      ],
      "name": "transferOwnership",
      "outputs": [],
      "stateMutability": "nonpayable",
      "type": "function"
    },
    {
      "inputs": [],
      "name": "unpause",
      "outputs": [],
      "stateMutability": "nonpayable",
      "type": "function"
    },
    {
      "inputs": [
        {
          "internalType": "string",
          "name": "name",
          "type": "string"
        },
        {
          "internalType": "string",
          "name": "symbol",
          "type": "string"
        },
        {
          "internalType": "string",
          "name": "baseTokenURI",
          "type": "string"
        },
        {
          "internalType": "contract Wallet",
          "name": "wallet",
          "type": "address"
        },
        {
          "internalType": "uint16",
          "name": "initialSupply",
          "type": "uint16"
        }
      ],
      "name": "__TVTL_init",
      "outputs": [],
      "stateMutability": "nonpayable",
      "type": "function"
    },
    {
      "inputs": [
        {
          "internalType": "uint256",
          "name": "tokens",
          "type": "uint256"
        }
      ],
      "name": "init",
      "outputs": [],
      "stateMutability": "nonpayable",
      "type": "function"
    },
    {
      "inputs": [
        {
          "internalType": "uint256",
          "name": "tokenId",
          "type": "uint256"
        },
        {
          "internalType": "uint8",
          "name": "licenseId",
          "type": "uint8"
        }
      ],
      "name": "buyLicense",
      "outputs": [],
      "stateMutability": "payable",
      "type": "function",
      "payable": true
    },
    {
      "inputs": [
        {
          "internalType": "uint256",
          "name": "tokenId",
          "type": "uint256"
        }
      ],
      "name": "getLand",
      "outputs": [
        {
          "components": [
            {
              "internalType": "uint8",
              "name": "color",
              "type": "uint8"
            },
            {
              "components": [
                {
                  "internalType": "uint256",
                  "name": "performance",
                  "type": "uint256"
                },
                {
                  "internalType": "uint256",
                  "name": "startDateTime",
                  "type": "uint256"
                },
                {
                  "internalType": "uint256",
                  "name": "endDateTime",
                  "type": "uint256"
                }
              ],
              "internalType": "struct TVTL.License",
              "name": "license",
              "type": "tuple"
            },
            {
              "internalType": "string",
              "name": "message",
              "type": "string"
            },
            {
              "internalType": "uint8",
              "name": "purpose",
              "type": "uint8"
            },
            {
              "components": [
                {
                  "internalType": "address",
                  "name": "landlord",
                  "type": "address"
                },
                {
                  "internalType": "address",
                  "name": "tenant",
                  "type": "address"
                },
                {
                  "internalType": "uint256",
                  "name": "startDateTime",
                  "type": "uint256"
                },
                {
                  "internalType": "uint256",
                  "name": "endDateTime",
                  "type": "uint256"
                }
              ],
              "internalType": "struct TVTL.Rent[]",
              "name": "rents",
              "type": "tuple[]"
            },
            {
              "internalType": "uint256",
              "name": "tokenId",
              "type": "uint256"
            }
          ],
          "internalType": "struct TVTL.Land",
          "name": "",
          "type": "tuple"
        }
      ],
      "stateMutability": "view",
      "type": "function",
      "constant": true
    },
    {
      "inputs": [],
      "name": "getWallet",
      "outputs": [
        {
          "internalType": "contract Wallet",
          "name": "",
          "type": "address"
        }
      ],
      "stateMutability": "view",
      "type": "function",
      "constant": true
    },
    {
      "inputs": [
        {
          "internalType": "uint256",
          "name": "tokenId",
          "type": "uint256"
        }
      ],
      "name": "rent",
      "outputs": [],
      "stateMutability": "payable",
      "type": "function",
      "payable": true
    },
    {
      "inputs": [
        {
          "internalType": "uint256",
          "name": "tokenId",
          "type": "uint256"
        },
        {
          "internalType": "string",
          "name": "message",
          "type": "string"
        }
      ],
      "name": "setMessage",
      "outputs": [],
      "stateMutability": "nonpayable",
      "type": "function"
    },
    {
      "inputs": [
        {
          "internalType": "contract Wallet",
          "name": "wallet",
          "type": "address"
        }
      ],
      "name": "setWallet",
      "outputs": [],
      "stateMutability": "nonpayable",
      "type": "function"
    },
    {
      "inputs": [
        {
          "internalType": "uint256",
          "name": "tokenId",
          "type": "uint256"
        },
        {
          "internalType": "address",
          "name": "tenant",
          "type": "address"
        }
      ],
      "name": "subRent",
      "outputs": [],
      "stateMutability": "payable",
      "type": "function",
      "payable": true
    }
  ],
  "bytecode": "0x608060405234801561001057600080fd5b50613fb7806100206000396000f3fe6080604052600436106102675760003560e01c80637456be7d11610144578063b88d4fde116100b6578063d547741f1161007a578063d547741f14610719578063deaa59df14610739578063e63ab1e914610759578063e985e9c51461077b578063f02dd53f146107c4578063f2fde38b146107f157600080fd5b8063b88d4fde14610672578063c781d00214610692578063c87b56dd146106a5578063ca15c873146106c5578063d5391393146106e557600080fd5b806395d89b411161010857806395d89b41146105d5578063a217fddf146105ea578063a2232460146105ff578063a22cb46514610612578063a6487c5314610632578063b7b0422d1461065257600080fd5b80637456be7d1461054e5780638456cb59146105615780638da5cb5b146105765780639010d07c1461059557806391d14854146105b557600080fd5b80633f4ba83a116101dd5780635c975abb116101a15780635c975abb146104a05780636352211e146104b9578063648345c8146104d95780636a627842146104f957806370a0823114610519578063715018a61461053957600080fd5b80633f4ba83a1461040b57806341c361a81461042057806342842e0e1461044057806342966c68146104605780634f6ccce71461048057600080fd5b806318160ddd1161022f57806318160ddd1461033c57806323b872dd1461035b578063248a9ca31461037b5780632f2ff15d146103ab5780632f745c59146103cb57806336568abe146103eb57600080fd5b806301ffc9a71461026c57806306fdde03146102a1578063081812fc146102c3578063095ea7b3146102fb578063132996041461031d575b600080fd5b34801561027857600080fd5b5061028c6102873660046135e7565b610811565b60405190151581526020015b60405180910390f35b3480156102ad57600080fd5b506102b6610822565b6040516102989190613afe565b3480156102cf57600080fd5b506102e36102de366004613587565b6108b4565b6040516001600160a01b039091168152602001610298565b34801561030757600080fd5b5061031b61031636600461353e565b61094e565b005b34801561032957600080fd5b5061022a546001600160a01b03166102e3565b34801561034857600080fd5b5060fd545b604051908152602001610298565b34801561036757600080fd5b5061031b61037636600461344f565b610a64565b34801561038757600080fd5b5061034d610396366004613587565b60009081526065602052604090206001015490565b3480156103b757600080fd5b5061031b6103c63660046135a0565b610a96565b3480156103d757600080fd5b5061034d6103e636600461353e565b610abb565b3480156103f757600080fd5b5061031b6104063660046135a0565b610b51565b34801561041757600080fd5b5061031b610bcf565b34801561042c57600080fd5b5061031b61043b3660046136a9565b610c65565b34801561044c57600080fd5b5061031b61045b36600461344f565b610cfc565b34801561046c57600080fd5b5061031b61047b366004613587565b610d17565b34801561048c57600080fd5b5061034d61049b366004613587565b610d91565b3480156104ac57600080fd5b5061015f5460ff1661028c565b3480156104c557600080fd5b506102e36104d4366004613587565b610e24565b3480156104e557600080fd5b5061031b6104f436600461381b565b610e9b565b34801561050557600080fd5b5061031b6105143660046133f9565b610f36565b34801561052557600080fd5b5061034d6105343660046133f9565b610ff4565b34801561054557600080fd5b5061031b61107b565b61031b61055c366004613587565b6110b0565b34801561056d57600080fd5b5061031b611406565b34801561058257600080fd5b506101f5546001600160a01b03166102e3565b3480156105a157600080fd5b506102e36105b03660046135c5565b611498565b3480156105c157600080fd5b5061028c6105d03660046135a0565b6114b7565b3480156105e157600080fd5b506102b66114e2565b3480156105f657600080fd5b5061034d600081565b61031b61060d366004613862565b6114f1565b34801561061e57600080fd5b5061031b61062d366004613510565b6116ce565b34801561063e57600080fd5b5061031b61064d366004613621565b6116d9565b34801561065e57600080fd5b5061031b61066d366004613587565b611754565b34801561067e57600080fd5b5061031b61068d366004613490565b6117f7565b61031b6106a03660046135a0565b611829565b3480156106b157600080fd5b506102b66106c0366004613587565b611a3e565b3480156106d157600080fd5b5061034d6106e0366004613587565b611b18565b3480156106f157600080fd5b5061034d7f9f2df0fed2c77648de5860a4cc508cd0818c85b8b8a1ab4ceeef8d981c8956a681565b34801561072557600080fd5b5061031b6107343660046135a0565b611b2f565b34801561074557600080fd5b5061031b6107543660046133f9565b611b54565b34801561076557600080fd5b5061034d600080516020613f6283398151915281565b34801561078757600080fd5b5061028c610796366004613416565b6001600160a01b03918216600090815260ce6020908152604080832093909416825291909152205460ff1690565b3480156107d057600080fd5b506107e46107df366004613587565b611ba2565b6040516102989190613c82565b3480156107fd57600080fd5b5061031b61080c3660046133f9565b611d38565b600061081c82611dd1565b92915050565b606060c9805461083190613e41565b80601f016020809104026020016040519081016040528092919081815260200182805461085d90613e41565b80156108aa5780601f1061087f576101008083540402835291602001916108aa565b820191906000526020600020905b81548152906001019060200180831161088d57829003601f168201915b5050505050905090565b600081815260cb60205260408120546001600160a01b03166109325760405162461bcd60e51b815260206004820152602c60248201527f4552433732313a20617070726f76656420717565727920666f72206e6f6e657860448201526b34b9ba32b73a103a37b5b2b760a11b60648201526084015b60405180910390fd5b50600090815260cd60205260409020546001600160a01b031690565b600061095982610e24565b9050806001600160a01b0316836001600160a01b031614156109c75760405162461bcd60e51b815260206004820152602160248201527f4552433732313a20617070726f76616c20746f2063757272656e74206f776e656044820152603960f91b6064820152608401610929565b336001600160a01b03821614806109e357506109e38133610796565b610a555760405162461bcd60e51b815260206004820152603860248201527f4552433732313a20617070726f76652063616c6c6572206973206e6f74206f7760448201527f6e6572206e6f7220617070726f76656420666f7220616c6c00000000000000006064820152608401610929565b610a5f8383611df6565b505050565b610a6f335b82611e64565b610a8b5760405162461bcd60e51b815260040161092990613be6565b610a5f838383611f5b565b600082815260656020526040902060010154610ab181612108565b610a5f8383612112565b6000610ac683610ff4565b8210610b285760405162461bcd60e51b815260206004820152602b60248201527f455243373231456e756d657261626c653a206f776e657220696e646578206f7560448201526a74206f6620626f756e647360a81b6064820152608401610929565b506001600160a01b0391909116600090815260fb60209081526040808320938352929052205490565b6001600160a01b0381163314610bc15760405162461bcd60e51b815260206004820152602f60248201527f416363657373436f6e74726f6c3a2063616e206f6e6c792072656e6f756e636560448201526e103937b632b9903337b91039b2b63360891b6064820152608401610929565b610bcb8282612134565b5050565b610be7600080516020613f62833981519152336114b7565b610c5b576040805162461bcd60e51b81526020600482015260248101919091527f4552433732315072657365744d696e7465725061757365724175746f49643a2060448201527f6d75737420686176652070617573657220726f6c6520746f20756e70617573656064820152608401610929565b610c63612156565b565b6000610c7160016121eb565b90508015610c89576000805461ff0019166101001790555b610c94868686612273565b610c9c6122b7565b610ca583611b54565b61ffff8216610228558015610cf4576000805461ff0019169055604051600181527f7f26b83ff96e1f2b6a682f133852f6798a09c465da95921460cefb38474024989060200160405180910390a15b505050505050565b610a5f838383604051806020016040528060008152506117f7565b610d2033610a69565b610d855760405162461bcd60e51b815260206004820152603060248201527f4552433732314275726e61626c653a2063616c6c6572206973206e6f74206f7760448201526f1b995c881b9bdc88185c1c1c9bdd995960821b6064820152608401610929565b610d8e816122e6565b50565b6000610d9c60fd5490565b8210610dff5760405162461bcd60e51b815260206004820152602c60248201527f455243373231456e756d657261626c653a20676c6f62616c20696e646578206f60448201526b7574206f6620626f756e647360a01b6064820152608401610929565b60fd8281548110610e1257610e12613eed565b90600052602060002001549050919050565b600081815260cb60205260408120546001600160a01b03168061081c5760405162461bcd60e51b815260206004820152602960248201527f4552433732313a206f776e657220717565727920666f72206e6f6e657869737460448201526832b73a103a37b5b2b760b91b6064820152608401610929565b610ea482610e24565b6001600160a01b0316336001600160a01b031614610f105760405162461bcd60e51b8152602060048201526024808201527f596f7520617265206e6f7420617574686f72697a65206368616e6765206d65736044820152637361676560e01b6064820152608401610929565b6000828152610227602090815260409091208251610a5f9260049092019184019061326c565b610f607f9f2df0fed2c77648de5860a4cc508cd0818c85b8b8a1ab4ceeef8d981c8956a6336114b7565b610fd25760405162461bcd60e51b815260206004820152603d60248201527f4552433732315072657365744d696e7465725061757365724175746f49643a2060448201527f6d7573742068617665206d696e74657220726f6c6520746f206d696e740000006064820152608401610929565b610fe581610fe06101c35490565b612395565b610d8e6101c380546001019055565b60006001600160a01b03821661105f5760405162461bcd60e51b815260206004820152602a60248201527f4552433732313a2062616c616e636520717565727920666f7220746865207a65604482015269726f206164647265737360b01b6064820152608401610929565b506001600160a01b0316600090815260cc602052604090205490565b6101f5546001600160a01b031633146110a65760405162461bcd60e51b815260040161092990613bb1565b610c6360006124eb565b60006110c56101f5546001600160a01b031690565b9050336110d183610e24565b6001600160a01b0316826001600160a01b0316146111285760405162461bcd60e51b815260206004820152601460248201527313185b990818d85b89dd081899481c995b9d195960621b6044820152606401610929565b611133828285611f5b565b6000838152610227602052604080822061022a5460068201549251638c05cbe360e01b81529193926001600160a01b0390911691638c05cbe39161117d9160040190815260200190565b604080518083038186803b15801561119457600080fd5b505afa1580156111a8573d6000803e3d6000fd5b505050506040513d601f19601f820116820180604052508101906111cc91906137cc565b90506111d785610e24565b6001600160a01b0316846001600160a01b03161461122e5760405162461bcd60e51b815260206004820152601460248201527313185b990818d85b89dd081899481c995b9d195960621b6044820152606401610929565b611240670de0b6b3a764000034613db4565b8160200151146112885760405162461bcd60e51b8152602060048201526013602482015272105b5bdd5b9d081a5cc81b9bdd08195c5d585b606a1b6044820152606401610929565b816006016040518060800160405280866001600160a01b03168152602001856001600160a01b031681526020014281526020018360000151426112cb9190613d9c565b905281546001818101845560009384526020938490208351600493840290910180546001600160a01b039283166001600160a01b03199182161782558686015193820180549484169490911693909317909255604080850151600284015560609094015160039092019190915561022a549385015192516302ccb1b360e41b8152931692632ccb1b3092611375928892016001600160a01b03929092168252602082015260400190565b602060405180830381600087803b15801561138f57600080fd5b505af11580156113a3573d6000803e3d6000fd5b505050506040513d601f19601f820116820180604052508101906113c7919061356a565b507f95e82aacf1d8120f67f40f411286b68263849abf90310e1318034ada4bc25357826040516113f79190613d18565b60405180910390a15050505050565b61141e600080516020613f62833981519152336114b7565b6114905760405162461bcd60e51b815260206004820152603e60248201527f4552433732315072657365744d696e7465725061757365724175746f49643a2060448201527f6d75737420686176652070617573657220726f6c6520746f20706175736500006064820152608401610929565b610c6361253e565b60008281526097602052604081206114b090836125bb565b9392505050565b60009182526065602090815260408084206001600160a01b0393909316845291905290205460ff1690565b606060ca805461083190613e41565b6000828152610227602052604080822061022a549151631311567d60e31b815260ff851660048201529092916001600160a01b03169063988ab3e89060240160806040518083038186803b15801561154857600080fd5b505afa15801561155c573d6000803e3d6000fd5b505050506040513d601f19601f820116820180604052508101906115809190613760565b9050348160400151146115ea5760405162461bcd60e51b815260206004820152602c60248201527f4c6963656e7365207072696365206973206e6f7420657175616c20746f20736560448201526b1b991a5b99c8185b5bdd5b9d60a21b6064820152608401610929565b6040518060600160405280826000015181526020014281526020018260200151426116159190613d9c565b9052805160018401556020810151600284015560400151600383015561022a546001600160a01b0316632ccb1b303360408085015190516001600160e01b031960e085901b1681526001600160a01b0390921660048301526024820152604401602060405180830381600087803b15801561168f57600080fd5b505af11580156116a3573d6000803e3d6000fd5b505050506040513d601f19601f820116820180604052508101906116c7919061356a565b5050505050565b610bcb3383836125c7565b60006116e560016121eb565b905080156116fd576000805461ff0019166101001790555b611708848484612273565b801561174e576000805461ff0019169055604051600181527f7f26b83ff96e1f2b6a682f133852f6798a09c465da95921460cefb38474024989060200160405180910390a15b50505050565b6102285461022954106117a95760405162461bcd60e51b815260206004820152601a60248201527f416c6c20746f6b656e747320616c7265616479206d696e7465640000000000006044820152606401610929565b60006117be6101f5546001600160a01b031690565b905060005b82811080156117d757506102285461022954105b15610a5f576117e582610f36565b806117ef81613e7c565b9150506117c3565b6118013383611e64565b61181d5760405162461bcd60e51b815260040161092990613be6565b61174e84848484612696565b600082815261022760205260409020600681015460011461187f5760405162461bcd60e51b815260206004820152601060248201526f13185b99081a5cc81b9bdd081c995b9d60821b6044820152606401610929565b3361188984610e24565b6001600160a01b0316816001600160a01b0316146118e95760405162461bcd60e51b815260206004820152601860248201527f4c616e642063616e2774206265207375622072656e74656400000000000000006044820152606401610929565b6119028460405180602001604052806000815250610e9b565b61190d818486611f5b565b61022a546006830154604051638c05cbe360e01b815260048101919091526000916001600160a01b031690638c05cbe390602401604080518083038186803b15801561195857600080fd5b505afa15801561196c573d6000803e3d6000fd5b505050506040513d601f19601f8201168201806040525081019061199091906137cc565b9050826006016040518060800160405280846001600160a01b03168152602001866001600160a01b031681526020014281526020018360000151426119d59190613d9c565b90528154600181810184556000938452602093849020835160049093020180546001600160a01b039384166001600160a01b0319918216178255948401519181018054929093169190941617905560408101516002830155606001516003909101555050505050565b600081815260cb60205260409020546060906001600160a01b0316611abd5760405162461bcd60e51b815260206004820152602f60248201527f4552433732314d657461646174613a2055524920717565727920666f72206e6f60448201526e3732bc34b9ba32b73a103a37b5b2b760891b6064820152608401610929565b6000611ac76126c9565b90506000815111611ae757604051806020016040528060008152506114b0565b80611af1846126d9565b604051602001611b02929190613a1d565b6040516020818303038152906040529392505050565b600081815260976020526040812061081c906127d7565b600082815260656020526040902060010154611b4a81612108565b610a5f8383612134565b6101f5546001600160a01b03163314611b7f5760405162461bcd60e51b815260040161092990613bb1565b61022a80546001600160a01b0319166001600160a01b0392909216919091179055565b611baa6132f0565b60008281526102276020908152604091829020825160c081018452815460ff168152835160608101855260018301548152600283015481850152600383015481860152928101929092526004810180549293919291840191611c0b90613e41565b80601f0160208091040260200160405190810160405280929190818152602001828054611c3790613e41565b8015611c845780601f10611c5957610100808354040283529160200191611c84565b820191906000526020600020905b815481529060010190602001808311611c6757829003601f168201915b5050509183525050600582015460ff16602080830191909152600683018054604080518285028101850182528281529401939260009084015b82821015611d1f576000848152602090819020604080516080810182526004860290920180546001600160a01b039081168452600180830154909116848601526002820154928401929092526003015460608301529083529092019101611cbd565b5050505081526020016007820154815250509050919050565b6101f5546001600160a01b03163314611d635760405162461bcd60e51b815260040161092990613bb1565b6001600160a01b038116611dc85760405162461bcd60e51b815260206004820152602660248201527f4f776e61626c653a206e6577206f776e657220697320746865207a65726f206160448201526564647265737360d01b6064820152608401610929565b610d8e816124eb565b60006001600160e01b0319821663780e9d6360e01b148061081c575061081c826127e1565b600081815260cd6020526040902080546001600160a01b0319166001600160a01b0384169081179091558190611e2b82610e24565b6001600160a01b03167f8c5be1e5ebec7d5bd14f71427d1e84f3dd0314c0f7b2291e5b200ac8c7c3b92560405160405180910390a45050565b600081815260cb60205260408120546001600160a01b0316611edd5760405162461bcd60e51b815260206004820152602c60248201527f4552433732313a206f70657261746f7220717565727920666f72206e6f6e657860448201526b34b9ba32b73a103a37b5b2b760a11b6064820152608401610929565b6000611ee883610e24565b9050806001600160a01b0316846001600160a01b03161480611f2f57506001600160a01b03808216600090815260ce602090815260408083209388168352929052205460ff165b80611f535750836001600160a01b0316611f48846108b4565b6001600160a01b0316145b949350505050565b826001600160a01b0316611f6e82610e24565b6001600160a01b031614611fd25760405162461bcd60e51b815260206004820152602560248201527f4552433732313a207472616e736665722066726f6d20696e636f72726563742060448201526437bbb732b960d91b6064820152608401610929565b6001600160a01b0382166120345760405162461bcd60e51b8152602060048201526024808201527f4552433732313a207472616e7366657220746f20746865207a65726f206164646044820152637265737360e01b6064820152608401610929565b61203f838383612821565b61204a600082611df6565b6001600160a01b038316600090815260cc60205260408120805460019290612073908490613de7565b90915550506001600160a01b038216600090815260cc602052604081208054600192906120a1908490613d9c565b9091555050600081815260cb602052604080822080546001600160a01b0319166001600160a01b0386811691821790925591518493918716917fddf252ad1be2c89b69c2b068fc378daa952ba7f163c4a11628f55a4df523b3ef91a4610a5f83838361282c565b610d8e8133612882565b61211c82826128e6565b6000828152609760205260409020610a5f908261296c565b61213e8282612981565b6000828152609760205260409020610a5f90826129e8565b61015f5460ff166121a05760405162461bcd60e51b815260206004820152601460248201527314185d5cd8589b194e881b9bdd081c185d5cd95960621b6044820152606401610929565b61015f805460ff191690557f5db9ee0a495bf2e6ff9c91a7834c1ba4fdd244a5e8aa4e537bd38aeae4b073aa335b6040516001600160a01b03909116815260200160405180910390a1565b60008054610100900460ff1615612232578160ff16600114801561220e5750303b155b61222a5760405162461bcd60e51b815260040161092990613b63565b506000919050565b60005460ff8084169116106122595760405162461bcd60e51b815260040161092990613b63565b506000805460ff191660ff92909216919091179055600190565b600054610100900460ff1661229a5760405162461bcd60e51b815260040161092990613c37565b6122a483836129fd565b6122ac612a4b565b610a5f838383612a7f565b600054610100900460ff166122de5760405162461bcd60e51b815260040161092990613c37565b610c63612b08565b60006122f182610e24565b90506122ff81600084612821565b61230a600083611df6565b6001600160a01b038116600090815260cc60205260408120805460019290612333908490613de7565b9091555050600082815260cb602052604080822080546001600160a01b0319169055518391906001600160a01b038416907fddf252ad1be2c89b69c2b068fc378daa952ba7f163c4a11628f55a4df523b3ef908390a4610bcb8160008461282c565b6001600160a01b0382166123eb5760405162461bcd60e51b815260206004820181905260248201527f4552433732313a206d696e7420746f20746865207a65726f20616464726573736044820152606401610929565b600081815260cb60205260409020546001600160a01b0316156124505760405162461bcd60e51b815260206004820152601c60248201527f4552433732313a20746f6b656e20616c7265616479206d696e746564000000006044820152606401610929565b61245c60008383612821565b6001600160a01b038216600090815260cc60205260408120805460019290612485908490613d9c565b9091555050600081815260cb602052604080822080546001600160a01b0319166001600160a01b03861690811790915590518392907fddf252ad1be2c89b69c2b068fc378daa952ba7f163c4a11628f55a4df523b3ef908290a4610bcb6000838361282c565b6101f580546001600160a01b038381166001600160a01b0319831681179093556040519116919082907f8be0079c531659141344cd1fd0a4f28419497f9722a3daafe3b4186f6b6457e090600090a35050565b61015f5460ff16156125855760405162461bcd60e51b815260206004820152601060248201526f14185d5cd8589b194e881c185d5cd95960821b6044820152606401610929565b61015f805460ff191660011790557f62e78cea01bee320cd4e420270b5ea74000d11b0c9f74754ebdbfc544b05a2586121ce3390565b60006114b08383612b38565b816001600160a01b0316836001600160a01b031614156126295760405162461bcd60e51b815260206004820152601960248201527f4552433732313a20617070726f766520746f2063616c6c6572000000000000006044820152606401610929565b6001600160a01b03838116600081815260ce6020908152604080832094871680845294825291829020805460ff191686151590811790915591519182527f17307eab39ab6107e8899845ad3d59bd9653f200f220920489ca2b5937696c31910160405180910390a3505050565b6126a1848484611f5b565b6126ad84848484612b62565b61174e5760405162461bcd60e51b815260040161092990613b11565b60606101c4805461083190613e41565b6060816126fd5750506040805180820190915260018152600360fc1b602082015290565b8160005b8115612727578061271181613e7c565b91506127209050600a83613db4565b9150612701565b60008167ffffffffffffffff81111561274257612742613f03565b6040519080825280601f01601f19166020018201604052801561276c576020820181803683370190505b5090505b8415611f5357612781600183613de7565b915061278e600a86613e97565b612799906030613d9c565b60f81b8183815181106127ae576127ae613eed565b60200101906001600160f81b031916908160001a9053506127d0600a86613db4565b9450612770565b600061081c825490565b60006001600160e01b031982166380ac58cd60e01b148061281257506001600160e01b03198216635b5e139f60e01b145b8061081c575061081c82612c6f565b610a5f838383612c94565b6001600160a01b038316610a5f576102298054600181019091557fb2908d3c6bbcc650627dd31890ddad23e4bcc754fc3daa98d751d51bd01a189901819055600081815261022760205260409020600701555050565b61288c82826114b7565b610bcb576128a4816001600160a01b03166014612d07565b6128af836020612d07565b6040516020016128c0929190613a4c565b60408051601f198184030181529082905262461bcd60e51b825261092991600401613afe565b6128f082826114b7565b610bcb5760008281526065602090815260408083206001600160a01b03851684529091529020805460ff191660011790556129283390565b6001600160a01b0316816001600160a01b0316837f2f8788117e7eff1d82e926ec794901d17c78024a50270940304540a733656f0d60405160405180910390a45050565b60006114b0836001600160a01b038416612ea3565b61298b82826114b7565b15610bcb5760008281526065602090815260408083206001600160a01b0385168085529252808320805460ff1916905551339285917ff6391f5c32d9c69d2a47ea670b442974b53935d1edc7fd64eb21e047a839171b9190a45050565b60006114b0836001600160a01b038416612ef2565b600054610100900460ff16612a245760405162461bcd60e51b815260040161092990613c37565b8151612a379060c990602085019061326c565b508051610a5f9060ca90602084019061326c565b600054610100900460ff16612a725760405162461bcd60e51b815260040161092990613c37565b61015f805460ff19169055565b600054610100900460ff16612aa65760405162461bcd60e51b815260040161092990613c37565b8051612aba906101c490602084019061326c565b50612ac6600033612fe5565b612af07f9f2df0fed2c77648de5860a4cc508cd0818c85b8b8a1ab4ceeef8d981c8956a633612fe5565b610a5f600080516020613f6283398151915233612fe5565b600054610100900460ff16612b2f5760405162461bcd60e51b815260040161092990613c37565b610c63336124eb565b6000826000018281548110612b4f57612b4f613eed565b9060005260206000200154905092915050565b60006001600160a01b0384163b15612c6457604051630a85bd0160e11b81526001600160a01b0385169063150b7a0290612ba6903390899088908890600401613ac1565b602060405180830381600087803b158015612bc057600080fd5b505af1925050508015612bf0575060408051601f3d908101601f19168201909252612bed91810190613604565b60015b612c4a573d808015612c1e576040519150601f19603f3d011682016040523d82523d6000602084013e612c23565b606091505b508051612c425760405162461bcd60e51b815260040161092990613b11565b805181602001fd5b6001600160e01b031916630a85bd0160e11b149050611f53565b506001949350505050565b60006001600160e01b03198216635a05180f60e01b148061081c575061081c82612fef565b612c9f838383613024565b61015f5460ff1615610a5f5760405162461bcd60e51b815260206004820152602b60248201527f4552433732315061757361626c653a20746f6b656e207472616e73666572207760448201526a1a1a5b19481c185d5cd95960aa1b6064820152608401610929565b60606000612d16836002613dc8565b612d21906002613d9c565b67ffffffffffffffff811115612d3957612d39613f03565b6040519080825280601f01601f191660200182016040528015612d63576020820181803683370190505b509050600360fc1b81600081518110612d7e57612d7e613eed565b60200101906001600160f81b031916908160001a905350600f60fb1b81600181518110612dad57612dad613eed565b60200101906001600160f81b031916908160001a9053506000612dd1846002613dc8565b612ddc906001613d9c565b90505b6001811115612e54576f181899199a1a9b1b9c1cb0b131b232b360811b85600f1660108110612e1057612e10613eed565b1a60f81b828281518110612e2657612e26613eed565b60200101906001600160f81b031916908160001a90535060049490941c93612e4d81613e2a565b9050612ddf565b5083156114b05760405162461bcd60e51b815260206004820181905260248201527f537472696e67733a20686578206c656e67746820696e73756666696369656e746044820152606401610929565b6000818152600183016020526040812054612eea5750815460018181018455600084815260208082209093018490558454848252828601909352604090209190915561081c565b50600061081c565b60008181526001830160205260408120548015612fdb576000612f16600183613de7565b8554909150600090612f2a90600190613de7565b9050818114612f8f576000866000018281548110612f4a57612f4a613eed565b9060005260206000200154905080876000018481548110612f6d57612f6d613eed565b6000918252602080832090910192909255918252600188019052604090208390555b8554869080612fa057612fa0613ed7565b60019003818190600052602060002001600090559055856001016000868152602001908152602001600020600090556001935050505061081c565b600091505061081c565b610bcb8282612112565b60006001600160e01b03198216637965db0b60e01b148061081c57506301ffc9a760e01b6001600160e01b031983161461081c565b6001600160a01b03831661307f5761307a8160fd8054600083815260fe60205260408120829055600182018355919091527f9346ac6dd7de6b96975fec380d4d994c4c12e6a8897544f22915316cc6cca2800155565b6130a2565b816001600160a01b0316836001600160a01b0316146130a2576130a283826130dc565b6001600160a01b0382166130b957610a5f81613179565b826001600160a01b0316826001600160a01b031614610a5f57610a5f8282613228565b600060016130e984610ff4565b6130f39190613de7565b600083815260fc6020526040902054909150808214613146576001600160a01b038416600090815260fb60209081526040808320858452825280832054848452818420819055835260fc90915290208190555b50600091825260fc602090815260408084208490556001600160a01b03909416835260fb81528383209183525290812055565b60fd5460009061318b90600190613de7565b600083815260fe602052604081205460fd80549394509092849081106131b3576131b3613eed565b906000526020600020015490508060fd83815481106131d4576131d4613eed565b600091825260208083209091019290925582815260fe909152604080822084905585825281205560fd80548061320c5761320c613ed7565b6001900381819060005260206000200160009055905550505050565b600061323383610ff4565b6001600160a01b03909316600090815260fb60209081526040808320868452825280832085905593825260fc9052919091209190915550565b82805461327890613e41565b90600052602060002090601f01602090048101928261329a57600085556132e0565b82601f106132b357805160ff19168380011785556132e0565b828001600101855582156132e0579182015b828111156132e05782518255916020019190600101906132c5565b506132ec92915061334e565b5090565b6040518060c00160405280600060ff16815260200161332960405180606001604052806000815260200160008152602001600081525090565b815260200160608152602001600060ff16815260200160608152602001600081525090565b5b808211156132ec576000815560010161334f565b600067ffffffffffffffff8084111561337e5761337e613f03565b604051601f8501601f19908116603f011681019082821181831017156133a6576133a6613f03565b816040528093508581528686860111156133bf57600080fd5b858560208301376000602087830101525050509392505050565b600082601f8301126133ea57600080fd5b6114b083833560208501613363565b60006020828403121561340b57600080fd5b81356114b081613f19565b6000806040838503121561342957600080fd5b823561343481613f19565b9150602083013561344481613f19565b809150509250929050565b60008060006060848603121561346457600080fd5b833561346f81613f19565b9250602084013561347f81613f19565b929592945050506040919091013590565b600080600080608085870312156134a657600080fd5b84356134b181613f19565b935060208501356134c181613f19565b925060408501359150606085013567ffffffffffffffff8111156134e457600080fd5b8501601f810187136134f557600080fd5b61350487823560208401613363565b91505092959194509250565b6000806040838503121561352357600080fd5b823561352e81613f19565b9150602083013561344481613f2e565b6000806040838503121561355157600080fd5b823561355c81613f19565b946020939093013593505050565b60006020828403121561357c57600080fd5b81516114b081613f2e565b60006020828403121561359957600080fd5b5035919050565b600080604083850312156135b357600080fd5b82359150602083013561344481613f19565b600080604083850312156135d857600080fd5b50508035926020909101359150565b6000602082840312156135f957600080fd5b81356114b081613f3c565b60006020828403121561361657600080fd5b81516114b081613f3c565b60008060006060848603121561363657600080fd5b833567ffffffffffffffff8082111561364e57600080fd5b61365a878388016133d9565b9450602086013591508082111561367057600080fd5b61367c878388016133d9565b9350604086013591508082111561369257600080fd5b5061369f868287016133d9565b9150509250925092565b600080600080600060a086880312156136c157600080fd5b853567ffffffffffffffff808211156136d957600080fd5b6136e589838a016133d9565b965060208801359150808211156136fb57600080fd5b61370789838a016133d9565b9550604088013591508082111561371d57600080fd5b5061372a888289016133d9565b935050606086013561373b81613f19565b9150608086013561ffff8116811461375257600080fd5b809150509295509295909350565b60006080828403121561377257600080fd5b6040516080810181811067ffffffffffffffff8211171561379557613795613f03565b806040525082518152602083015160208201526040830151604082015260608301516137c081613f52565b60608201529392505050565b6000604082840312156137de57600080fd5b6040516040810181811067ffffffffffffffff8211171561380157613801613f03565b604052825181526020928301519281019290925250919050565b6000806040838503121561382e57600080fd5b82359150602083013567ffffffffffffffff81111561384c57600080fd5b613858858286016133d9565b9150509250929050565b6000806040838503121561387557600080fd5b82359150602083013561344481613f52565b600081518084526020808501945080840160005b838110156138e357815180516001600160a01b03908116895284820151168489015260408082015190890152606090810151908801526080909601959082019060010161389b565b509495945050505050565b6000815480845260208085019450836000528060002060005b838110156138e35781546001600160a01b03908116885260018381015490911684890152600283015460408901526003830154606089015260809097019660049092019101613907565b60008151808452613969816020860160208601613dfe565b601f01601f19169290920160200192915050565b8054600090600181811c908083168061399757607f831692505b60208084108214156139b957634e487b7160e01b600052602260045260246000fd5b838852602088018280156139d457600181146139e557613a10565b60ff19871682528282019750613a10565b60008981526020902060005b87811015613a0a578154848201529086019084016139f1565b83019850505b5050505050505092915050565b60008351613a2f818460208801613dfe565b835190830190613a43818360208801613dfe565b01949350505050565b7f416363657373436f6e74726f6c3a206163636f756e7420000000000000000000815260008351613a84816017850160208801613dfe565b7001034b99036b4b9b9b4b733903937b6329607d1b6017918401918201528351613ab5816028840160208801613dfe565b01602801949350505050565b6001600160a01b0385811682528416602082015260408101839052608060608201819052600090613af490830184613951565b9695505050505050565b6020815260006114b06020830184613951565b60208082526032908201527f4552433732313a207472616e7366657220746f206e6f6e20455243373231526560408201527131b2b4bb32b91034b6b83632b6b2b73a32b960711b606082015260800190565b6020808252602e908201527f496e697469616c697a61626c653a20636f6e747261637420697320616c72656160408201526d191e481a5b9a5d1a585b1a5e995960921b606082015260800190565b6020808252818101527f4f776e61626c653a2063616c6c6572206973206e6f7420746865206f776e6572604082015260600190565b60208082526031908201527f4552433732313a207472616e736665722063616c6c6572206973206e6f74206f6040820152701ddb995c881b9bdc88185c1c1c9bdd9959607a1b606082015260800190565b6020808252602b908201527f496e697469616c697a61626c653a20636f6e7472616374206973206e6f74206960408201526a6e697469616c697a696e6760a81b606082015260800190565b6020815260ff8251166020820152600060208301518051604084015260208101516060840152604081015160808401525060408301516101008060a0850152613ccf610120850183613951565b91506060850151613ce560c086018260ff169052565b506080850151848303601f190160e0860152613d018382613887565b92505060a085015181850152508091505092915050565b6020815260ff825416602082015260018201546040820152600282015460608201526003820154608082015260006101008060a0840152613d6061012084016004860161397d565b600585015460ff1660c0850152601f198482030160e0850152613d8681600687016138ee565b9050600785015482850152809250505092915050565b60008219821115613daf57613daf613eab565b500190565b600082613dc357613dc3613ec1565b500490565b6000816000190483118215151615613de257613de2613eab565b500290565b600082821015613df957613df9613eab565b500390565b60005b83811015613e19578181015183820152602001613e01565b8381111561174e5750506000910152565b600081613e3957613e39613eab565b506000190190565b600181811c90821680613e5557607f821691505b60208210811415613e7657634e487b7160e01b600052602260045260246000fd5b50919050565b6000600019821415613e9057613e90613eab565b5060010190565b600082613ea657613ea6613ec1565b500690565b634e487b7160e01b600052601160045260246000fd5b634e487b7160e01b600052601260045260246000fd5b634e487b7160e01b600052603160045260246000fd5b634e487b7160e01b600052603260045260246000fd5b634e487b7160e01b600052604160045260246000fd5b6001600160a01b0381168114610d8e57600080fd5b8015158114610d8e57600080fd5b6001600160e01b031981168114610d8e57600080fd5b60ff81168114610d8e57600080fdfe65d7a28e3265b37a6474929f336521b332c1681b933f6cb9f3376673440d862aa264697066735822122017c0add220c8d3af3c5d508a94149d4b2674762b601041d49f1a35e5ab00f6c564736f6c63430008070033",
  "immutableReferences": {},
  "source": "// SPDX-License-Identifier: MIT\npragma solidity 0.8.7;\n\nimport \"@openzeppelin/contracts/token/ERC20/IERC20.sol\";\nimport \"@openzeppelin/contracts-upgradeable/access/OwnableUpgradeable.sol\";\nimport \"@openzeppelin/contracts-upgradeable/token/ERC721/presets/ERC721PresetMinterPauserAutoIdUpgradeable.sol\";\n\nimport \"../Wallet/Wallet.sol\";\n\nimport \"./Landlord.sol\";\n\ncontract TVTL is ERC721PresetMinterPauserAutoIdUpgradeable, OwnableUpgradeable {\n    struct License {\n        uint256 performance;\n        uint256 startDateTime;\n        uint256 endDateTime;\n    }\n\n    struct Rent {\n        address landlord;\n        address tenant;\n        uint256 startDateTime;\n        uint256 endDateTime;\n    }\n\n    struct Land {\n        uint8 color;\n        License license;\n        string message;\n        uint8 purpose;\n        Rent[] rents;\n        uint256 tokenId;\n    }\n\n    // tokenId -> Land\n    mapping(uint256 => Land) private _lands;\n\n    uint256 private _initialSupply;\n\n    uint256[] private _tokenIds;\n\n    Wallet private _wallet;\n\n    event TVTLRent(Land land);\n\n    function __TVTL_init(\n        string memory name,\n        string memory symbol,\n        string memory baseTokenURI,\n        Wallet wallet,\n        uint16 initialSupply\n    ) public initializer {\n        __ERC721PresetMinterPauserAutoId_init(name, symbol, baseTokenURI);\n        __Ownable_init();\n\n        setWallet(wallet);\n\n        _initialSupply = initialSupply;\n    }\n\n    function init(uint256 tokens) public {\n        require(\n            _tokenIds.length < _initialSupply,\n            \"All tokents already minted\"\n        );\n\n        address owner = owner();\n\n        for (\n            uint256 i = 0;\n            i < tokens && _tokenIds.length < _initialSupply;\n            i++\n        ) {\n            mint(owner);\n        }\n    }\n\n    function buyLicense(uint256 tokenId, uint8 licenseId) public payable {\n        Land storage land = _lands[tokenId];\n\n        Landlord.License memory license = _wallet.getLandlordLicense(licenseId);\n\n        require(\n            license.price == msg.value,\n            \"License price is not equal to sending amount\"\n        );\n\n        // TODO pay profit\n\n        land.license = License({\n            performance: license.performance,\n            startDateTime: block.timestamp,\n            endDateTime: block.timestamp + license.period\n        });\n\n        _wallet.transferTo(_msgSender(), license.price);\n    }\n\n    function getLand(uint256 tokenId) public view returns (Land memory) {\n        return _lands[tokenId];\n    }\n\n    function getWallet() external view returns (Wallet) {\n        return _wallet;\n    }\n\n    function rent(uint256 tokenId) public payable {\n        address landlord = owner();\n        address tenant = _msgSender();\n\n        require(landlord == ownerOf(tokenId), \"Land can't be rented\");\n\n        _transfer(landlord, tenant, tokenId);\n\n        Land storage land = _lands[tokenId];\n\n        Landlord.Rent memory rentParams = _wallet.getLandlordRent(\n            land.rents.length\n        );\n\n        require(landlord == ownerOf(tokenId), \"Land can't be rented\");\n\n        require(rentParams.price == msg.value / 10**18, \"Amount is not equal\");\n\n        land.rents.push(\n            Rent({\n                landlord: landlord,\n                tenant: tenant,\n                startDateTime: block.timestamp,\n                endDateTime: block.timestamp + rentParams.period\n            })\n        );\n\n        _wallet.transferTo(tenant, rentParams.price);\n\n        emit TVTLRent(land);\n    }\n\n    function setMessage(uint256 tokenId, string memory message) public {\n        require(\n            _msgSender() == ownerOf(tokenId),\n            \"You are not authorize change message\"\n        );\n\n        _lands[tokenId].message = message;\n    }\n\n    function setWallet(Wallet wallet) public onlyOwner {\n        _wallet = wallet;\n    }\n\n    function subRent(uint256 tokenId, address tenant) public payable {\n        Land storage land = _lands[tokenId];\n\n        require(land.rents.length == 1, \"Land is not rent\");\n\n        address landlord = _msgSender();\n\n        require(landlord == ownerOf(tokenId), \"Land can't be sub rented\");\n\n        setMessage(tokenId, \"\");\n\n        _transfer(landlord, tenant, tokenId);\n\n        Landlord.Rent memory rentParams = _wallet.getLandlordRent(\n            land.rents.length\n        );\n\n        land.rents.push(\n            Rent({\n                landlord: landlord,\n                tenant: tenant,\n                startDateTime: block.timestamp,\n                endDateTime: block.timestamp + rentParams.period\n            })\n        );\n    }\n\n    function _afterTokenTransfer(\n        address from,\n        address to,\n        uint256 tokenId\n    ) internal virtual override {\n        super._afterTokenTransfer(from, to, tokenId);\n\n        if (from == address(0)) {\n            _tokenIds.push(tokenId);\n\n            _lands[tokenId].tokenId = tokenId;\n        }\n    }\n}\n",
  "sourcePath": "/Users/ievgencherkaskyi/Projects/tivan/hexagons/contracts/Landlord/TVTL.sol",
  "compiler": {
    "name": "solc",
    "version": "0.8.7+commit.e28d00a7.Emscripten.clang"
  },
  "schemaVersion": "3.3.3",
  "updatedAt": "2022-07-19T17:43:06.269Z",
  "networkType": "ethereum",
  "devdoc": {
    "kind": "dev",
    "methods": {
      "approve(address,uint256)": {
        "details": "See {IERC721-approve}."
      },
      "balanceOf(address)": {
        "details": "See {IERC721-balanceOf}."
      },
      "burn(uint256)": {
        "details": "Burns `tokenId`. See {ERC721-_burn}. Requirements: - The caller must own `tokenId` or be an approved operator."
      },
      "getApproved(uint256)": {
        "details": "See {IERC721-getApproved}."
      },
      "getRoleAdmin(bytes32)": {
        "details": "Returns the admin role that controls `role`. See {grantRole} and {revokeRole}. To change a role's admin, use {_setRoleAdmin}."
      },
      "getRoleMember(bytes32,uint256)": {
        "details": "Returns one of the accounts that have `role`. `index` must be a value between 0 and {getRoleMemberCount}, non-inclusive. Role bearers are not sorted in any particular way, and their ordering may change at any point. WARNING: When using {getRoleMember} and {getRoleMemberCount}, make sure you perform all queries on the same block. See the following https://forum.openzeppelin.com/t/iterating-over-elements-on-enumerableset-in-openzeppelin-contracts/2296[forum post] for more information."
      },
      "getRoleMemberCount(bytes32)": {
        "details": "Returns the number of accounts that have `role`. Can be used together with {getRoleMember} to enumerate all bearers of a role."
      },
      "grantRole(bytes32,address)": {
        "details": "Grants `role` to `account`. If `account` had not been already granted `role`, emits a {RoleGranted} event. Requirements: - the caller must have ``role``'s admin role."
      },
      "hasRole(bytes32,address)": {
        "details": "Returns `true` if `account` has been granted `role`."
      },
      "isApprovedForAll(address,address)": {
        "details": "See {IERC721-isApprovedForAll}."
      },
      "mint(address)": {
        "details": "Creates a new token for `to`. Its token ID will be automatically assigned (and available on the emitted {IERC721-Transfer} event), and the token URI autogenerated based on the base URI passed at construction. See {ERC721-_mint}. Requirements: - the caller must have the `MINTER_ROLE`."
      },
      "name()": {
        "details": "See {IERC721Metadata-name}."
      },
      "owner()": {
        "details": "Returns the address of the current owner."
      },
      "ownerOf(uint256)": {
        "details": "See {IERC721-ownerOf}."
      },
      "pause()": {
        "details": "Pauses all token transfers. See {ERC721Pausable} and {Pausable-_pause}. Requirements: - the caller must have the `PAUSER_ROLE`."
      },
      "paused()": {
        "details": "Returns true if the contract is paused, and false otherwise."
      },
      "renounceOwnership()": {
        "details": "Leaves the contract without owner. It will not be possible to call `onlyOwner` functions anymore. Can only be called by the current owner. NOTE: Renouncing ownership will leave the contract without an owner, thereby removing any functionality that is only available to the owner."
      },
      "renounceRole(bytes32,address)": {
        "details": "Revokes `role` from the calling account. Roles are often managed via {grantRole} and {revokeRole}: this function's purpose is to provide a mechanism for accounts to lose their privileges if they are compromised (such as when a trusted device is misplaced). If the calling account had been revoked `role`, emits a {RoleRevoked} event. Requirements: - the caller must be `account`."
      },
      "revokeRole(bytes32,address)": {
        "details": "Revokes `role` from `account`. If `account` had been granted `role`, emits a {RoleRevoked} event. Requirements: - the caller must have ``role``'s admin role."
      },
      "safeTransferFrom(address,address,uint256)": {
        "details": "See {IERC721-safeTransferFrom}."
      },
      "safeTransferFrom(address,address,uint256,bytes)": {
        "details": "See {IERC721-safeTransferFrom}."
      },
      "setApprovalForAll(address,bool)": {
        "details": "See {IERC721-setApprovalForAll}."
      },
      "supportsInterface(bytes4)": {
        "details": "See {IERC165-supportsInterface}."
      },
      "symbol()": {
        "details": "See {IERC721Metadata-symbol}."
      },
      "tokenByIndex(uint256)": {
        "details": "See {IERC721Enumerable-tokenByIndex}."
      },
      "tokenOfOwnerByIndex(address,uint256)": {
        "details": "See {IERC721Enumerable-tokenOfOwnerByIndex}."
      },
      "tokenURI(uint256)": {
        "details": "See {IERC721Metadata-tokenURI}."
      },
      "totalSupply()": {
        "details": "See {IERC721Enumerable-totalSupply}."
      },
      "transferFrom(address,address,uint256)": {
        "details": "See {IERC721-transferFrom}."
      },
      "transferOwnership(address)": {
        "details": "Transfers ownership of the contract to a new account (`newOwner`). Can only be called by the current owner."
      },
      "unpause()": {
        "details": "Unpauses all token transfers. See {ERC721Pausable} and {Pausable-_unpause}. Requirements: - the caller must have the `PAUSER_ROLE`."
      }
    },
    "version": 1
  },
  "userdoc": {
    "kind": "user",
    "methods": {},
    "version": 1
  }
}