{
  "contractName": "TVTL",
  "abi": [
    {
      "inputs": [
        {
          "internalType": "string",
          "name": "landId",
          "type": "string"
        }
      ],
      "name": "TVTLRent",
      "type": "error"
    },
    {
      "anonymous": false,
      "inputs": [
        {
          "indexed": true,
          "internalType": "address",
          "name": "owner",
          "type": "address"
        },
        {
          "indexed": true,
          "internalType": "address",
          "name": "approved",
          "type": "address"
        },
        {
          "indexed": true,
          "internalType": "uint256",
          "name": "tokenId",
          "type": "uint256"
        }
      ],
      "name": "Approval",
      "type": "event"
    },
    {
      "anonymous": false,
      "inputs": [
        {
          "indexed": true,
          "internalType": "address",
          "name": "owner",
          "type": "address"
        },
        {
          "indexed": true,
          "internalType": "address",
          "name": "operator",
          "type": "address"
        },
        {
          "indexed": false,
          "internalType": "bool",
          "name": "approved",
          "type": "bool"
        }
      ],
      "name": "ApprovalForAll",
      "type": "event"
    },
    {
      "anonymous": false,
      "inputs": [
        {
          "indexed": false,
          "internalType": "uint8",
          "name": "version",
          "type": "uint8"
        }
      ],
      "name": "Initialized",
      "type": "event"
    },
    {
      "anonymous": false,
      "inputs": [
        {
          "indexed": true,
          "internalType": "address",
          "name": "previousOwner",
          "type": "address"
        },
        {
          "indexed": true,
          "internalType": "address",
          "name": "newOwner",
          "type": "address"
        }
      ],
      "name": "OwnershipTransferred",
      "type": "event"
    },
    {
      "anonymous": false,
      "inputs": [
        {
          "indexed": false,
          "internalType": "address",
          "name": "account",
          "type": "address"
        }
      ],
      "name": "Paused",
      "type": "event"
    },
    {
      "anonymous": false,
      "inputs": [
        {
          "indexed": true,
          "internalType": "bytes32",
          "name": "role",
          "type": "bytes32"
        },
        {
          "indexed": true,
          "internalType": "bytes32",
          "name": "previousAdminRole",
          "type": "bytes32"
        },
        {
          "indexed": true,
          "internalType": "bytes32",
          "name": "newAdminRole",
          "type": "bytes32"
        }
      ],
      "name": "RoleAdminChanged",
      "type": "event"
    },
    {
      "anonymous": false,
      "inputs": [
        {
          "indexed": true,
          "internalType": "bytes32",
          "name": "role",
          "type": "bytes32"
        },
        {
          "indexed": true,
          "internalType": "address",
          "name": "account",
          "type": "address"
        },
        {
          "indexed": true,
          "internalType": "address",
          "name": "sender",
          "type": "address"
        }
      ],
      "name": "RoleGranted",
      "type": "event"
    },
    {
      "anonymous": false,
      "inputs": [
        {
          "indexed": true,
          "internalType": "bytes32",
          "name": "role",
          "type": "bytes32"
        },
        {
          "indexed": true,
          "internalType": "address",
          "name": "account",
          "type": "address"
        },
        {
          "indexed": true,
          "internalType": "address",
          "name": "sender",
          "type": "address"
        }
      ],
      "name": "RoleRevoked",
      "type": "event"
    },
    {
      "anonymous": false,
      "inputs": [
        {
          "indexed": true,
          "internalType": "address",
          "name": "from",
          "type": "address"
        },
        {
          "indexed": true,
          "internalType": "address",
          "name": "to",
          "type": "address"
        },
        {
          "indexed": true,
          "internalType": "uint256",
          "name": "tokenId",
          "type": "uint256"
        }
      ],
      "name": "Transfer",
      "type": "event"
    },
    {
      "anonymous": false,
      "inputs": [
        {
          "indexed": false,
          "internalType": "address",
          "name": "account",
          "type": "address"
        }
      ],
      "name": "Unpaused",
      "type": "event"
    },
    {
      "inputs": [],
      "name": "DEFAULT_ADMIN_ROLE",
      "outputs": [
        {
          "internalType": "bytes32",
          "name": "",
          "type": "bytes32"
        }
      ],
      "stateMutability": "view",
      "type": "function"
    },
    {
      "inputs": [],
      "name": "MINTER_ROLE",
      "outputs": [
        {
          "internalType": "bytes32",
          "name": "",
          "type": "bytes32"
        }
      ],
      "stateMutability": "view",
      "type": "function"
    },
    {
      "inputs": [],
      "name": "PAUSER_ROLE",
      "outputs": [
        {
          "internalType": "bytes32",
          "name": "",
          "type": "bytes32"
        }
      ],
      "stateMutability": "view",
      "type": "function"
    },
    {
      "inputs": [
        {
          "internalType": "address",
          "name": "to",
          "type": "address"
        },
        {
          "internalType": "uint256",
          "name": "tokenId",
          "type": "uint256"
        }
      ],
      "name": "approve",
      "outputs": [],
      "stateMutability": "nonpayable",
      "type": "function"
    },
    {
      "inputs": [
        {
          "internalType": "address",
          "name": "owner",
          "type": "address"
        }
      ],
      "name": "balanceOf",
      "outputs": [
        {
          "internalType": "uint256",
          "name": "",
          "type": "uint256"
        }
      ],
      "stateMutability": "view",
      "type": "function"
    },
    {
      "inputs": [
        {
          "internalType": "uint256",
          "name": "tokenId",
          "type": "uint256"
        }
      ],
      "name": "burn",
      "outputs": [],
      "stateMutability": "nonpayable",
      "type": "function"
    },
    {
      "inputs": [
        {
          "internalType": "uint256",
          "name": "tokenId",
          "type": "uint256"
        }
      ],
      "name": "getApproved",
      "outputs": [
        {
          "internalType": "address",
          "name": "",
          "type": "address"
        }
      ],
      "stateMutability": "view",
      "type": "function"
    },
    {
      "inputs": [
        {
          "internalType": "bytes32",
          "name": "role",
          "type": "bytes32"
        }
      ],
      "name": "getRoleAdmin",
      "outputs": [
        {
          "internalType": "bytes32",
          "name": "",
          "type": "bytes32"
        }
      ],
      "stateMutability": "view",
      "type": "function"
    },
    {
      "inputs": [
        {
          "internalType": "bytes32",
          "name": "role",
          "type": "bytes32"
        },
        {
          "internalType": "uint256",
          "name": "index",
          "type": "uint256"
        }
      ],
      "name": "getRoleMember",
      "outputs": [
        {
          "internalType": "address",
          "name": "",
          "type": "address"
        }
      ],
      "stateMutability": "view",
      "type": "function"
    },
    {
      "inputs": [
        {
          "internalType": "bytes32",
          "name": "role",
          "type": "bytes32"
        }
      ],
      "name": "getRoleMemberCount",
      "outputs": [
        {
          "internalType": "uint256",
          "name": "",
          "type": "uint256"
        }
      ],
      "stateMutability": "view",
      "type": "function"
    },
    {
      "inputs": [
        {
          "internalType": "bytes32",
          "name": "role",
          "type": "bytes32"
        },
        {
          "internalType": "address",
          "name": "account",
          "type": "address"
        }
      ],
      "name": "grantRole",
      "outputs": [],
      "stateMutability": "nonpayable",
      "type": "function"
    },
    {
      "inputs": [
        {
          "internalType": "bytes32",
          "name": "role",
          "type": "bytes32"
        },
        {
          "internalType": "address",
          "name": "account",
          "type": "address"
        }
      ],
      "name": "hasRole",
      "outputs": [
        {
          "internalType": "bool",
          "name": "",
          "type": "bool"
        }
      ],
      "stateMutability": "view",
      "type": "function"
    },
    {
      "inputs": [
        {
          "internalType": "string",
          "name": "name",
          "type": "string"
        },
        {
          "internalType": "string",
          "name": "symbol",
          "type": "string"
        },
        {
          "internalType": "string",
          "name": "baseTokenURI",
          "type": "string"
        }
      ],
      "name": "initialize",
      "outputs": [],
      "stateMutability": "nonpayable",
      "type": "function"
    },
    {
      "inputs": [
        {
          "internalType": "address",
          "name": "owner",
          "type": "address"
        },
        {
          "internalType": "address",
          "name": "operator",
          "type": "address"
        }
      ],
      "name": "isApprovedForAll",
      "outputs": [
        {
          "internalType": "bool",
          "name": "",
          "type": "bool"
        }
      ],
      "stateMutability": "view",
      "type": "function"
    },
    {
      "inputs": [
        {
          "internalType": "address",
          "name": "to",
          "type": "address"
        }
      ],
      "name": "mint",
      "outputs": [],
      "stateMutability": "nonpayable",
      "type": "function"
    },
    {
      "inputs": [],
      "name": "name",
      "outputs": [
        {
          "internalType": "string",
          "name": "",
          "type": "string"
        }
      ],
      "stateMutability": "view",
      "type": "function"
    },
    {
      "inputs": [],
      "name": "owner",
      "outputs": [
        {
          "internalType": "address",
          "name": "",
          "type": "address"
        }
      ],
      "stateMutability": "view",
      "type": "function"
    },
    {
      "inputs": [
        {
          "internalType": "uint256",
          "name": "tokenId",
          "type": "uint256"
        }
      ],
      "name": "ownerOf",
      "outputs": [
        {
          "internalType": "address",
          "name": "",
          "type": "address"
        }
      ],
      "stateMutability": "view",
      "type": "function"
    },
    {
      "inputs": [],
      "name": "pause",
      "outputs": [],
      "stateMutability": "nonpayable",
      "type": "function"
    },
    {
      "inputs": [],
      "name": "paused",
      "outputs": [
        {
          "internalType": "bool",
          "name": "",
          "type": "bool"
        }
      ],
      "stateMutability": "view",
      "type": "function"
    },
    {
      "inputs": [],
      "name": "renounceOwnership",
      "outputs": [],
      "stateMutability": "nonpayable",
      "type": "function"
    },
    {
      "inputs": [
        {
          "internalType": "bytes32",
          "name": "role",
          "type": "bytes32"
        },
        {
          "internalType": "address",
          "name": "account",
          "type": "address"
        }
      ],
      "name": "renounceRole",
      "outputs": [],
      "stateMutability": "nonpayable",
      "type": "function"
    },
    {
      "inputs": [
        {
          "internalType": "bytes32",
          "name": "role",
          "type": "bytes32"
        },
        {
          "internalType": "address",
          "name": "account",
          "type": "address"
        }
      ],
      "name": "revokeRole",
      "outputs": [],
      "stateMutability": "nonpayable",
      "type": "function"
    },
    {
      "inputs": [
        {
          "internalType": "address",
          "name": "from",
          "type": "address"
        },
        {
          "internalType": "address",
          "name": "to",
          "type": "address"
        },
        {
          "internalType": "uint256",
          "name": "tokenId",
          "type": "uint256"
        }
      ],
      "name": "safeTransferFrom",
      "outputs": [],
      "stateMutability": "nonpayable",
      "type": "function"
    },
    {
      "inputs": [
        {
          "internalType": "address",
          "name": "from",
          "type": "address"
        },
        {
          "internalType": "address",
          "name": "to",
          "type": "address"
        },
        {
          "internalType": "uint256",
          "name": "tokenId",
          "type": "uint256"
        },
        {
          "internalType": "bytes",
          "name": "_data",
          "type": "bytes"
        }
      ],
      "name": "safeTransferFrom",
      "outputs": [],
      "stateMutability": "nonpayable",
      "type": "function"
    },
    {
      "inputs": [
        {
          "internalType": "address",
          "name": "operator",
          "type": "address"
        },
        {
          "internalType": "bool",
          "name": "approved",
          "type": "bool"
        }
      ],
      "name": "setApprovalForAll",
      "outputs": [],
      "stateMutability": "nonpayable",
      "type": "function"
    },
    {
      "inputs": [
        {
          "internalType": "bytes4",
          "name": "interfaceId",
          "type": "bytes4"
        }
      ],
      "name": "supportsInterface",
      "outputs": [
        {
          "internalType": "bool",
          "name": "",
          "type": "bool"
        }
      ],
      "stateMutability": "view",
      "type": "function"
    },
    {
      "inputs": [],
      "name": "symbol",
      "outputs": [
        {
          "internalType": "string",
          "name": "",
          "type": "string"
        }
      ],
      "stateMutability": "view",
      "type": "function"
    },
    {
      "inputs": [
        {
          "internalType": "uint256",
          "name": "index",
          "type": "uint256"
        }
      ],
      "name": "tokenByIndex",
      "outputs": [
        {
          "internalType": "uint256",
          "name": "",
          "type": "uint256"
        }
      ],
      "stateMutability": "view",
      "type": "function"
    },
    {
      "inputs": [
        {
          "internalType": "address",
          "name": "owner",
          "type": "address"
        },
        {
          "internalType": "uint256",
          "name": "index",
          "type": "uint256"
        }
      ],
      "name": "tokenOfOwnerByIndex",
      "outputs": [
        {
          "internalType": "uint256",
          "name": "",
          "type": "uint256"
        }
      ],
      "stateMutability": "view",
      "type": "function"
    },
    {
      "inputs": [
        {
          "internalType": "uint256",
          "name": "tokenId",
          "type": "uint256"
        }
      ],
      "name": "tokenURI",
      "outputs": [
        {
          "internalType": "string",
          "name": "",
          "type": "string"
        }
      ],
      "stateMutability": "view",
      "type": "function"
    },
    {
      "inputs": [],
      "name": "totalSupply",
      "outputs": [
        {
          "internalType": "uint256",
          "name": "",
          "type": "uint256"
        }
      ],
      "stateMutability": "view",
      "type": "function"
    },
    {
      "inputs": [
        {
          "internalType": "address",
          "name": "from",
          "type": "address"
        },
        {
          "internalType": "address",
          "name": "to",
          "type": "address"
        },
        {
          "internalType": "uint256",
          "name": "tokenId",
          "type": "uint256"
        }
      ],
      "name": "transferFrom",
      "outputs": [],
      "stateMutability": "nonpayable",
      "type": "function"
    },
    {
      "inputs": [
        {
          "internalType": "address",
          "name": "newOwner",
          "type": "address"
        }
      ],
      "name": "transferOwnership",
      "outputs": [],
      "stateMutability": "nonpayable",
      "type": "function"
    },
    {
      "inputs": [],
      "name": "unpause",
      "outputs": [],
      "stateMutability": "nonpayable",
      "type": "function"
    },
    {
      "inputs": [
        {
          "internalType": "string",
          "name": "name",
          "type": "string"
        },
        {
          "internalType": "string",
          "name": "symbol",
          "type": "string"
        },
        {
          "internalType": "string",
          "name": "baseTokenURI",
          "type": "string"
        },
        {
          "internalType": "string[]",
          "name": "landIds",
          "type": "string[]"
        },
        {
          "components": [
            {
              "internalType": "uint256",
              "name": "performance",
              "type": "uint256"
            },
            {
              "internalType": "uint8",
              "name": "purpose",
              "type": "uint8"
            }
          ],
          "internalType": "struct TVTL.Licence[]",
          "name": "licences",
          "type": "tuple[]"
        },
        {
          "internalType": "contract Wallet",
          "name": "wallet",
          "type": "address"
        }
      ],
      "name": "__TVTL_init",
      "outputs": [],
      "stateMutability": "nonpayable",
      "type": "function"
    },
    {
      "inputs": [
        {
          "internalType": "string",
          "name": "landId",
          "type": "string"
        },
        {
          "internalType": "uint8",
          "name": "licenceId",
          "type": "uint8"
        }
      ],
      "name": "buyLicence",
      "outputs": [],
      "stateMutability": "payable",
      "type": "function"
    },
    {
      "inputs": [
        {
          "internalType": "string",
          "name": "landId",
          "type": "string"
        }
      ],
      "name": "getLand",
      "outputs": [
        {
          "components": [
            {
              "internalType": "uint8",
              "name": "color",
              "type": "uint8"
            },
            {
              "internalType": "string",
              "name": "landId",
              "type": "string"
            },
            {
              "components": [
                {
                  "internalType": "uint256",
                  "name": "performance",
                  "type": "uint256"
                },
                {
                  "internalType": "uint256",
                  "name": "startDateTime",
                  "type": "uint256"
                },
                {
                  "internalType": "uint256",
                  "name": "endDateTime",
                  "type": "uint256"
                }
              ],
              "internalType": "struct TVTL.ActiveLicence",
              "name": "licence",
              "type": "tuple"
            },
            {
              "internalType": "string",
              "name": "message",
              "type": "string"
            },
            {
              "internalType": "uint8",
              "name": "purpose",
              "type": "uint8"
            },
            {
              "components": [
                {
                  "internalType": "address",
                  "name": "landlord",
                  "type": "address"
                },
                {
                  "internalType": "address",
                  "name": "tenant",
                  "type": "address"
                },
                {
                  "internalType": "uint256",
                  "name": "startDateTime",
                  "type": "uint256"
                },
                {
                  "internalType": "uint256",
                  "name": "endDateTime",
                  "type": "uint256"
                }
              ],
              "internalType": "struct TVTL.Rent[]",
              "name": "rents",
              "type": "tuple[]"
            }
          ],
          "internalType": "struct TVTL.Land",
          "name": "land",
          "type": "tuple"
        }
      ],
      "stateMutability": "view",
      "type": "function"
    },
    {
      "inputs": [],
      "name": "getLands",
      "outputs": [
        {
          "components": [
            {
              "internalType": "uint8",
              "name": "color",
              "type": "uint8"
            },
            {
              "internalType": "string",
              "name": "landId",
              "type": "string"
            },
            {
              "components": [
                {
                  "internalType": "uint256",
                  "name": "performance",
                  "type": "uint256"
                },
                {
                  "internalType": "uint256",
                  "name": "startDateTime",
                  "type": "uint256"
                },
                {
                  "internalType": "uint256",
                  "name": "endDateTime",
                  "type": "uint256"
                }
              ],
              "internalType": "struct TVTL.ActiveLicence",
              "name": "licence",
              "type": "tuple"
            },
            {
              "internalType": "string",
              "name": "message",
              "type": "string"
            },
            {
              "internalType": "uint8",
              "name": "purpose",
              "type": "uint8"
            },
            {
              "components": [
                {
                  "internalType": "address",
                  "name": "landlord",
                  "type": "address"
                },
                {
                  "internalType": "address",
                  "name": "tenant",
                  "type": "address"
                },
                {
                  "internalType": "uint256",
                  "name": "startDateTime",
                  "type": "uint256"
                },
                {
                  "internalType": "uint256",
                  "name": "endDateTime",
                  "type": "uint256"
                }
              ],
              "internalType": "struct TVTL.Rent[]",
              "name": "rents",
              "type": "tuple[]"
            }
          ],
          "internalType": "struct TVTL.Land[]",
          "name": "",
          "type": "tuple[]"
        }
      ],
      "stateMutability": "view",
      "type": "function"
    },
    {
      "inputs": [],
      "name": "getLicences",
      "outputs": [
        {
          "components": [
            {
              "internalType": "uint256",
              "name": "performance",
              "type": "uint256"
            },
            {
              "internalType": "uint8",
              "name": "purpose",
              "type": "uint8"
            }
          ],
          "internalType": "struct TVTL.Licence[]",
          "name": "",
          "type": "tuple[]"
        }
      ],
      "stateMutability": "view",
      "type": "function"
    },
    {
      "inputs": [],
      "name": "getLicencePeriod",
      "outputs": [
        {
          "internalType": "uint256",
          "name": "",
          "type": "uint256"
        }
      ],
      "stateMutability": "pure",
      "type": "function"
    },
    {
      "inputs": [],
      "name": "getRentPeriod",
      "outputs": [
        {
          "internalType": "uint256",
          "name": "",
          "type": "uint256"
        }
      ],
      "stateMutability": "pure",
      "type": "function"
    },
    {
      "inputs": [],
      "name": "getRentPrice",
      "outputs": [
        {
          "internalType": "uint256",
          "name": "",
          "type": "uint256"
        }
      ],
      "stateMutability": "pure",
      "type": "function"
    },
    {
      "inputs": [],
      "name": "getSubRentPeriod",
      "outputs": [
        {
          "internalType": "uint256",
          "name": "",
          "type": "uint256"
        }
      ],
      "stateMutability": "pure",
      "type": "function"
    },
    {
      "inputs": [],
      "name": "getWallet",
      "outputs": [
        {
          "internalType": "contract Wallet",
          "name": "",
          "type": "address"
        }
      ],
      "stateMutability": "view",
      "type": "function"
    },
    {
      "inputs": [
        {
          "internalType": "string",
          "name": "landId",
          "type": "string"
        }
      ],
      "name": "rent",
      "outputs": [],
      "stateMutability": "nonpayable",
      "type": "function"
    },
    {
      "inputs": [
        {
          "components": [
            {
              "internalType": "uint256",
              "name": "performance",
              "type": "uint256"
            },
            {
              "internalType": "uint8",
              "name": "purpose",
              "type": "uint8"
            }
          ],
          "internalType": "struct TVTL.Licence[]",
          "name": "licences",
          "type": "tuple[]"
        }
      ],
      "name": "setLicences",
      "outputs": [],
      "stateMutability": "nonpayable",
      "type": "function"
    },
    {
      "inputs": [
        {
          "internalType": "string",
          "name": "landId",
          "type": "string"
        },
        {
          "internalType": "string",
          "name": "message",
          "type": "string"
        }
      ],
      "name": "setMessage",
      "outputs": [],
      "stateMutability": "nonpayable",
      "type": "function"
    },
    {
      "inputs": [
        {
          "internalType": "contract Wallet",
          "name": "wallet",
          "type": "address"
        }
      ],
      "name": "setWallet",
      "outputs": [],
      "stateMutability": "nonpayable",
      "type": "function"
    }
  ],
  "bytecode": "0x608060405234801561001057600080fd5b5061448d806100206000396000f3fe6080604052600436106102ae5760003560e01c80636a62784211610175578063a22cb465116100dc578063d539139311610095578063e466670d1161006f578063e466670d14610839578063e63ab1e91461084c578063e985e9c51461086e578063f2fde38b146108b757600080fd5b8063d5391393146107c5578063d547741f146107f9578063deaa59df1461081957600080fd5b8063a22cb46514610705578063a6487c5314610725578063b88d4fde14610745578063c87b56dd14610765578063ca15c87314610785578063d37121c9146107a557600080fd5b80638da5cb5b1161012e5780638da5cb5b1461065c5780639010d07c1461067b57806391d148541461069b57806395d89b41146106bb5780639cd38a49146106d0578063a217fddf146106f057600080fd5b80636a627842146105a35780636c844a7b146105c35780636fe0c906146105f057806370a0823114610612578063715018a6146106325780638456cb591461064757600080fd5b80632f745c591161021957806342966c68116101d257806342966c68146104e85780634c81ca4e146105085780634f6ccce71461052a5780635277081c1461054a5780635c975abb1461056a5780636352211e1461058357600080fd5b80632f745c591461045f5780632f93b5b31461047f578063348db3611461036457806336568abe146104935780633f4ba83a146104b357806342842e0e146104c857600080fd5b80631396c42e1161026b5780631396c42e146103a357806318160ddd146103ba57806323b872dd146103cf578063248a9ca3146103ef578063293169481461041f5780632f2ff15d1461043f57600080fd5b806301ffc9a7146102b357806306fdde03146102e8578063081812fc1461030a578063095ea7b31461034257806309ac2e34146103645780631329960414610384575b600080fd5b3480156102bf57600080fd5b506102d36102ce366004613a35565b6108d7565b60405190151581526020015b60405180910390f35b3480156102f457600080fd5b506102fd6108e8565b6040516102df9190613fad565b34801561031657600080fd5b5061032a6103253660046139d5565b61097a565b6040516001600160a01b0390911681526020016102df565b34801561034e57600080fd5b5061036261035d366004613958565b610a14565b005b34801561037057600080fd5b5062278d005b6040519081526020016102df565b34801561039057600080fd5b5061022b546001600160a01b031661032a565b3480156103af57600080fd5b506301e13380610376565b3480156103c657600080fd5b5060fd54610376565b3480156103db57600080fd5b506103626103ea36600461386a565b610b2a565b3480156103fb57600080fd5b5061037661040a3660046139d5565b60009081526065602052604090206001015490565b34801561042b57600080fd5b5061036261043a366004613b8d565b610b5c565b34801561044b57600080fd5b5061036261045a3660046139ee565b610c89565b34801561046b57600080fd5b5061037661047a366004613958565b610cae565b34801561048b57600080fd5b506064610376565b34801561049f57600080fd5b506103626104ae3660046139ee565b610d44565b3480156104bf57600080fd5b50610362610dc2565b3480156104d457600080fd5b506103626104e336600461386a565b610e58565b3480156104f457600080fd5b506103626105033660046139d5565b610e73565b34801561051457600080fd5b5061051d610eed565b6040516102df9190613f5b565b34801561053657600080fd5b506103766105453660046139d5565b610f5d565b34801561055657600080fd5b50610362610565366004613a6f565b610ff0565b34801561057657600080fd5b5061015f5460ff166102d3565b34801561058f57600080fd5b5061032a61059e3660046139d5565b61109f565b3480156105af57600080fd5b506103626105be366004613814565b611116565b3480156105cf57600080fd5b506105e36105de366004613a6f565b6111d4565b6040516102df91906141d9565b3480156105fc57600080fd5b5061060561141b565b6040516102df9190613ef9565b34801561061e57600080fd5b5061037661062d366004613814565b61151d565b34801561063e57600080fd5b506103626115a4565b34801561065357600080fd5b506103626115d9565b34801561066857600080fd5b506101f5546001600160a01b031661032a565b34801561068757600080fd5b5061032a610696366004613a13565b61166b565b3480156106a757600080fd5b506102d36106b63660046139ee565b61168a565b3480156106c757600080fd5b506102fd6116b5565b3480156106dc57600080fd5b506103626106eb366004613aa3565b6116c4565b3480156106fc57600080fd5b50610376600081565b34801561071157600080fd5b5061036261072036600461392a565b611713565b34801561073157600080fd5b50610362610740366004613b06565b61171e565b34801561075157600080fd5b506103626107603660046138ab565b611798565b34801561077157600080fd5b506102fd6107803660046139d5565b6117ca565b34801561079157600080fd5b506103766107a03660046139d5565b6118a4565b3480156107b157600080fd5b506103626107c0366004613984565b6118bb565b3480156107d157600080fd5b506103767f9f2df0fed2c77648de5860a4cc508cd0818c85b8b8a1ab4ceeef8d981c8956a681565b34801561080557600080fd5b506103626108143660046139ee565b61196b565b34801561082557600080fd5b50610362610834366004613814565b611990565b610362610847366004613c6d565b6119de565b34801561085857600080fd5b5061037660008051602061443883398151915281565b34801561087a57600080fd5b506102d3610889366004613831565b6001600160a01b03918216600090815260ce6020908152604080832093909416825291909152205460ff1690565b3480156108c357600080fd5b506103626108d2366004613814565b611bfe565b60006108e282611c97565b92915050565b606060c980546108f79061430c565b80601f01602080910402602001604051908101604052809291908181526020018280546109239061430c565b80156109705780601f1061094557610100808354040283529160200191610970565b820191906000526020600020905b81548152906001019060200180831161095357829003601f168201915b5050505050905090565b600081815260cb60205260408120546001600160a01b03166109f85760405162461bcd60e51b815260206004820152602c60248201527f4552433732313a20617070726f76656420717565727920666f72206e6f6e657860448201526b34b9ba32b73a103a37b5b2b760a11b60648201526084015b60405180910390fd5b50600090815260cd60205260409020546001600160a01b031690565b6000610a1f8261109f565b9050806001600160a01b0316836001600160a01b03161415610a8d5760405162461bcd60e51b815260206004820152602160248201527f4552433732313a20617070726f76616c20746f2063757272656e74206f776e656044820152603960f91b60648201526084016109ef565b336001600160a01b0382161480610aa95750610aa98133610889565b610b1b5760405162461bcd60e51b815260206004820152603860248201527f4552433732313a20617070726f76652063616c6c6572206973206e6f74206f7760448201527f6e6572206e6f7220617070726f76656420666f7220616c6c000000000000000060648201526084016109ef565b610b258383611cbc565b505050565b610b35335b82611d2a565b610b515760405162461bcd60e51b81526004016109ef9061413d565b610b25838383611e21565b6000610b686001611fce565b90508015610b80576000805461ff0019166101001790555b610b8b87878761205b565b610b9361209f565b610b9c836118bb565b610ba582611990565b835115610bb157610c3a565b6000610bc66101f5546001600160a01b031690565b905060005b8551811015610c3757610227868281518110610be957610be96143d2565b60209081029190910181015182546001810184556000938452928290208151610c1b949190910192919091019061352c565b50610c2582611116565b80610c2f81614341565b915050610bcb565b50505b8015610c80576000805461ff0019169055604051600181527f7f26b83ff96e1f2b6a682f133852f6798a09c465da95921460cefb38474024989060200160405180910390a15b50505050505050565b600082815260656020526040902060010154610ca4816120ce565b610b2583836120d8565b6000610cb98361151d565b8210610d1b5760405162461bcd60e51b815260206004820152602b60248201527f455243373231456e756d657261626c653a206f776e657220696e646578206f7560448201526a74206f6620626f756e647360a81b60648201526084016109ef565b506001600160a01b0391909116600090815260fb60209081526040808320938352929052205490565b6001600160a01b0381163314610db45760405162461bcd60e51b815260206004820152602f60248201527f416363657373436f6e74726f6c3a2063616e206f6e6c792072656e6f756e636560448201526e103937b632b9903337b91039b2b63360891b60648201526084016109ef565b610dbe82826120fa565b5050565b610dda6000805160206144388339815191523361168a565b610e4e576040805162461bcd60e51b81526020600482015260248101919091527f4552433732315072657365744d696e7465725061757365724175746f49643a2060448201527f6d75737420686176652070617573657220726f6c6520746f20756e706175736560648201526084016109ef565b610e5661211c565b565b610b2583838360405180602001604052806000815250611798565b610e7c33610b2f565b610ee15760405162461bcd60e51b815260206004820152603060248201527f4552433732314275726e61626c653a2063616c6c6572206973206e6f74206f7760448201526f1b995c881b9bdc88185c1c1c9bdd995960821b60648201526084016109ef565b610eea816121b1565b50565b606061022a805480602002602001604051908101604052809291908181526020016000905b82821015610f5457600084815260209081902060408051808201909152600285029091018054825260019081015460ff16828401529083529092019101610f12565b50505050905090565b6000610f6860fd5490565b8210610fcb5760405162461bcd60e51b815260206004820152602c60248201527f455243373231456e756d657261626c653a20676c6f62616c20696e646578206f60448201526b7574206f6620626f756e647360a01b60648201526084016109ef565b60fd8281548110610fde57610fde6143d2565b90600052602060002001549050919050565b6000610228826040516110039190613dfc565b908152602001604051809103902054905060006110296101f5546001600160a01b031690565b9050336110358361109f565b6001600160a01b0316826001600160a01b03161461108e5760405162461bcd60e51b815260206004820152601660248201527513185b99081a5cc8185b1c9958591e481c995b9d195960521b60448201526064016109ef565b611099828285611e21565b50505050565b600081815260cb60205260408120546001600160a01b0316806108e25760405162461bcd60e51b815260206004820152602960248201527f4552433732313a206f776e657220717565727920666f72206e6f6e657869737460448201526832b73a103a37b5b2b760b91b60648201526084016109ef565b6111407f9f2df0fed2c77648de5860a4cc508cd0818c85b8b8a1ab4ceeef8d981c8956a63361168a565b6111b25760405162461bcd60e51b815260206004820152603d60248201527f4552433732315072657365744d696e7465725061757365724175746f49643a2060448201527f6d7573742068617665206d696e74657220726f6c6520746f206d696e7400000060648201526084016109ef565b6111c5816111c06101c35490565b612260565b610eea6101c380546001019055565b6111dc6135b0565b6000610228836040516111ef9190613dfc565b908152604080519182900360209081018320546000818152610229835283902060c08501909352825460ff16845260018301805491955091840191906112349061430c565b80601f01602080910402602001604051908101604052809291908181526020018280546112609061430c565b80156112ad5780601f10611282576101008083540402835291602001916112ad565b820191906000526020600020905b81548152906001019060200180831161129057829003601f168201915b5050505050815260200160028201604051806060016040529081600082015481526020016001820154815260200160028201548152505081526020016005820180546112f89061430c565b80601f01602080910402602001604051908101604052809291908181526020018280546113249061430c565b80156113715780601f1061134657610100808354040283529160200191611371565b820191906000526020600020905b81548152906001019060200180831161135457829003601f168201915b5050509183525050600682015460ff16602080830191909152600783018054604080518285028101850182528281529401939260009084015b8282101561140c576000848152602090819020604080516080810182526004860290920180546001600160a01b0390811684526001808301549091168486015260028201549284019290925260030154606083015290835290920191016113aa565b50505091525090949350505050565b60608060005b61022754611431906001906142b2565b811015611517576114e7610227828154811061144f5761144f6143d2565b9060005260206000200180546114649061430c565b80601f01602080910402602001604051908101604052809291908181526020018280546114909061430c565b80156114dd5780601f106114b2576101008083540402835291602001916114dd565b820191906000526020600020905b8154815290600101906020018083116114c057829003601f168201915b50505050506111d4565b8282815181106114f9576114f96143d2565b6020026020010181905250808061150f90614341565b915050611421565b50919050565b60006001600160a01b0382166115885760405162461bcd60e51b815260206004820152602a60248201527f4552433732313a2062616c616e636520717565727920666f7220746865207a65604482015269726f206164647265737360b01b60648201526084016109ef565b506001600160a01b0316600090815260cc602052604090205490565b6101f5546001600160a01b031633146115cf5760405162461bcd60e51b81526004016109ef90614108565b610e5660006123b6565b6115f16000805160206144388339815191523361168a565b6116635760405162461bcd60e51b815260206004820152603e60248201527f4552433732315072657365744d696e7465725061757365724175746f49643a2060448201527f6d75737420686176652070617573657220726f6c6520746f207061757365000060648201526084016109ef565b610e56612409565b60008281526097602052604081206116839083612486565b9392505050565b60009182526065602090815260408084206001600160a01b0393909316845291905290205460ff1690565b606060ca80546108f79061430c565b6000610228836040516116d79190613dfc565b9081526020016040518091039020549050816102296000838152602001908152602001600020600501908051906020019061109992919061352c565b610dbe338383612492565b600061172a6001611fce565b90508015611742576000805461ff0019166101001790555b61174d84848461205b565b8015611099576000805461ff0019169055604051600181527f7f26b83ff96e1f2b6a682f133852f6798a09c465da95921460cefb38474024989060200160405180910390a150505050565b6117a23383611d2a565b6117be5760405162461bcd60e51b81526004016109ef9061413d565b61109984848484612561565b600081815260cb60205260409020546060906001600160a01b03166118495760405162461bcd60e51b815260206004820152602f60248201527f4552433732314d657461646174613a2055524920717565727920666f72206e6f60448201526e3732bc34b9ba32b73a103a37b5b2b760891b60648201526084016109ef565b6000611853612594565b905060008151116118735760405180602001604052806000815250611683565b8061187d846125a4565b60405160200161188e929190613e18565b6040516020818303038152906040529392505050565b60008181526097602052604081206108e2906126a1565b6101f5546001600160a01b031633146118e65760405162461bcd60e51b81526004016109ef90614108565b6118f361022a6000613609565b60005b81518160ff161015610dbe5761022a828260ff168151811061191a5761191a6143d2565b60209081029190910181015182546001808201855560009485529383902082516002909202019081559101519101805460ff191660ff909216919091179055806119638161435c565b9150506118f6565b600082815260656020526040902060010154611986816120ce565b610b2583836120fa565b6101f5546001600160a01b031633146119bb5760405162461bcd60e51b81526004016109ef90614108565b61022b80546001600160a01b0319166001600160a01b0392909216919091179055565b6000610228836040516119f19190613dfc565b9081526020016040518091039020549050600061022960008381526020019081526020016000209050600061022a8460ff1681548110611a3357611a336143d2565b60009182526020808320604080518082018252600294909402909101805484526001015460ff9081169284019290925261022b5490516368d2a04760e11b815291881660048301529193506001600160a01b039091169063d1a5408e9060240160206040518083038186803b158015611aab57600080fd5b505afa158015611abf573d6000803e3d6000fd5b505050506040513d601f19601f82011682018060405250810190611ae39190613cba565b9050348114611b2a5760405162461bcd60e51b8152602060048201526013602482015272105b5bdd5b9d081a5cc81b9bdd08195c5d585b606a1b60448201526064016109ef565b604080516060810182528351815242602082015290810162278d00611b4f9042614267565b9052805160028501556020810151600385015560400151600484015561022b546001600160a01b0316632ccb1b30336040516001600160e01b031960e084901b1681526001600160a01b03909116600482015260248101849052604401602060405180830381600087803b158015611bc657600080fd5b505af1158015611bda573d6000803e3d6000fd5b505050506040513d601f19601f82011682018060405250810190610c8091906139b8565b6101f5546001600160a01b03163314611c295760405162461bcd60e51b81526004016109ef90614108565b6001600160a01b038116611c8e5760405162461bcd60e51b815260206004820152602660248201527f4f776e61626c653a206e6577206f776e657220697320746865207a65726f206160448201526564647265737360d01b60648201526084016109ef565b610eea816123b6565b60006001600160e01b0319821663780e9d6360e01b14806108e257506108e2826126ab565b600081815260cd6020526040902080546001600160a01b0319166001600160a01b0384169081179091558190611cf18261109f565b6001600160a01b03167f8c5be1e5ebec7d5bd14f71427d1e84f3dd0314c0f7b2291e5b200ac8c7c3b92560405160405180910390a45050565b600081815260cb60205260408120546001600160a01b0316611da35760405162461bcd60e51b815260206004820152602c60248201527f4552433732313a206f70657261746f7220717565727920666f72206e6f6e657860448201526b34b9ba32b73a103a37b5b2b760a11b60648201526084016109ef565b6000611dae8361109f565b9050806001600160a01b0316846001600160a01b03161480611df557506001600160a01b03808216600090815260ce602090815260408083209388168352929052205460ff165b80611e195750836001600160a01b0316611e0e8461097a565b6001600160a01b0316145b949350505050565b826001600160a01b0316611e348261109f565b6001600160a01b031614611e985760405162461bcd60e51b815260206004820152602560248201527f4552433732313a207472616e736665722066726f6d20696e636f72726563742060448201526437bbb732b960d91b60648201526084016109ef565b6001600160a01b038216611efa5760405162461bcd60e51b8152602060048201526024808201527f4552433732313a207472616e7366657220746f20746865207a65726f206164646044820152637265737360e01b60648201526084016109ef565b611f058383836126eb565b611f10600082611cbc565b6001600160a01b038316600090815260cc60205260408120805460019290611f399084906142b2565b90915550506001600160a01b038216600090815260cc60205260408120805460019290611f67908490614267565b9091555050600081815260cb602052604080822080546001600160a01b0319166001600160a01b0386811691821790925591518493918716917fddf252ad1be2c89b69c2b068fc378daa952ba7f163c4a11628f55a4df523b3ef91a4610b258383836126f6565b60008054610100900460ff1615612015578160ff166001148015611ff15750303b155b61200d5760405162461bcd60e51b81526004016109ef906140ba565b506000919050565b60005460ff80841691161061203c5760405162461bcd60e51b81526004016109ef906140ba565b506000805460ff191660ff92909216919091179055600190565b919050565b600054610100900460ff166120825760405162461bcd60e51b81526004016109ef9061418e565b61208c8383612b43565b612094612b91565b610b25838383612bc5565b600054610100900460ff166120c65760405162461bcd60e51b81526004016109ef9061418e565b610e56612c4e565b610eea8133612c7e565b6120e28282612ce2565b6000828152609760205260409020610b259082612d68565b6121048282612d7d565b6000828152609760205260409020610b259082612de4565b61015f5460ff166121665760405162461bcd60e51b815260206004820152601460248201527314185d5cd8589b194e881b9bdd081c185d5cd95960621b60448201526064016109ef565b61015f805460ff191690557f5db9ee0a495bf2e6ff9c91a7834c1ba4fdd244a5e8aa4e537bd38aeae4b073aa335b6040516001600160a01b03909116815260200160405180910390a1565b60006121bc8261109f565b90506121ca816000846126eb565b6121d5600083611cbc565b6001600160a01b038116600090815260cc602052604081208054600192906121fe9084906142b2565b9091555050600082815260cb602052604080822080546001600160a01b0319169055518391906001600160a01b038416907fddf252ad1be2c89b69c2b068fc378daa952ba7f163c4a11628f55a4df523b3ef908390a4610dbe816000846126f6565b6001600160a01b0382166122b65760405162461bcd60e51b815260206004820181905260248201527f4552433732313a206d696e7420746f20746865207a65726f206164647265737360448201526064016109ef565b600081815260cb60205260409020546001600160a01b03161561231b5760405162461bcd60e51b815260206004820152601c60248201527f4552433732313a20746f6b656e20616c7265616479206d696e7465640000000060448201526064016109ef565b612327600083836126eb565b6001600160a01b038216600090815260cc60205260408120805460019290612350908490614267565b9091555050600081815260cb602052604080822080546001600160a01b0319166001600160a01b03861690811790915590518392907fddf252ad1be2c89b69c2b068fc378daa952ba7f163c4a11628f55a4df523b3ef908290a4610dbe600083836126f6565b6101f580546001600160a01b038381166001600160a01b0319831681179093556040519116919082907f8be0079c531659141344cd1fd0a4f28419497f9722a3daafe3b4186f6b6457e090600090a35050565b61015f5460ff16156124505760405162461bcd60e51b815260206004820152601060248201526f14185d5cd8589b194e881c185d5cd95960821b60448201526064016109ef565b61015f805460ff191660011790557f62e78cea01bee320cd4e420270b5ea74000d11b0c9f74754ebdbfc544b05a2586121943390565b60006116838383612df9565b816001600160a01b0316836001600160a01b031614156124f45760405162461bcd60e51b815260206004820152601960248201527f4552433732313a20617070726f766520746f2063616c6c65720000000000000060448201526064016109ef565b6001600160a01b03838116600081815260ce6020908152604080832094871680845294825291829020805460ff191686151590811790915591519182527f17307eab39ab6107e8899845ad3d59bd9653f200f220920489ca2b5937696c31910160405180910390a3505050565b61256c848484611e21565b61257884848484612e23565b6110995760405162461bcd60e51b81526004016109ef90614068565b60606101c480546108f79061430c565b6060816125c85750506040805180820190915260018152600360fc1b602082015290565b8160005b81156125f257806125dc81614341565b91506125eb9050600a8361427f565b91506125cc565b6000816001600160401b0381111561260c5761260c6143e8565b6040519080825280601f01601f191660200182016040528015612636576020820181803683370190505b5090505b8415611e195761264b6001836142b2565b9150612658600a8661437c565b612663906030614267565b60f81b818381518110612678576126786143d2565b60200101906001600160f81b031916908160001a90535061269a600a8661427f565b945061263a565b60006108e2825490565b60006001600160e01b031982166380ac58cd60e01b14806126dc57506001600160e01b03198216635b5e139f60e01b145b806108e257506108e282612f30565b610b25838383612f55565b6001600160a01b0383166127e657610227805460009190612719906001906142b2565b81548110612729576127296143d2565b90600052602060002001805461273e9061430c565b80601f016020809104026020016040519081016040528092919081815260200182805461276a9061430c565b80156127b75780601f1061278c576101008083540402835291602001916127b7565b820191906000526020600020905b81548152906001019060200180831161279a57829003601f168201915b5050505050905081610228826040516127d09190613dfc565b9081526040519081900360200190205550505050565b60008181526102296020526040812090805b600783015460ff8216101561290a5760ff8216156128b257826007018160ff1681548110612828576128286143d2565b60009182526020822060049091020180546001600160a01b031990811682556001820180549091169055600281018290556003015560078301805480612870576128706143bc565b60008281526020812060046000199093019283020180546001600160a01b031990811682556001820180549091169055600281018290556003015590556128f8565b846001600160a01b0316836007018260ff16815481106128d4576128d46143d2565b60009182526020909120600490910201546001600160a01b031614156128f8578091505b806129028161435c565b9150506127f8565b5060ff81161561291b575050505050565b6007820154612a6857816007016040518060800160405280876001600160a01b03168152602001866001600160a01b031681526020014281526020016129626301e1338090565b61296c9042614267565b90528154600180820184556000938452602093849020835160049093020180546001600160a01b03199081166001600160a01b03948516178255948401519181018054909516918316919091179093556040820151600284015560609091015160039092019190915561022b5416632ccb1b308560646040516001600160e01b031960e085901b1681526001600160a01b0390921660048301526024820152604401602060405180830381600087803b158015612a2857600080fd5b505af1158015612a3c573d6000803e3d6000fd5b505050506040513d601f19601f82011682018060405250810190612a6091906139b8565b505050505050565b600782015460011415612b2557816007016040518060800160405280876001600160a01b03168152602001866001600160a01b03168152602001428152602001612ab262278d0090565b612abc9042614267565b90528154600181810184556000938452602093849020835160049093020180546001600160a01b039384166001600160a01b0319918216178255948401519181018054929093169190941617905560408101516002830155606001516003909101555050505050565b81600101604051633d237de760e01b81526004016109ef9190613fc0565b600054610100900460ff16612b6a5760405162461bcd60e51b81526004016109ef9061418e565b8151612b7d9060c990602085019061352c565b508051610b259060ca90602084019061352c565b600054610100900460ff16612bb85760405162461bcd60e51b81526004016109ef9061418e565b61015f805460ff19169055565b600054610100900460ff16612bec5760405162461bcd60e51b81526004016109ef9061418e565b8051612c00906101c490602084019061352c565b50612c0c600033612fc8565b612c367f9f2df0fed2c77648de5860a4cc508cd0818c85b8b8a1ab4ceeef8d981c8956a633612fc8565b610b2560008051602061443883398151915233612fc8565b600054610100900460ff16612c755760405162461bcd60e51b81526004016109ef9061418e565b610e56336123b6565b612c88828261168a565b610dbe57612ca0816001600160a01b03166014612fd2565b612cab836020612fd2565b604051602001612cbc929190613e47565b60408051601f198184030181529082905262461bcd60e51b82526109ef91600401613fad565b612cec828261168a565b610dbe5760008281526065602090815260408083206001600160a01b03851684529091529020805460ff19166001179055612d243390565b6001600160a01b0316816001600160a01b0316837f2f8788117e7eff1d82e926ec794901d17c78024a50270940304540a733656f0d60405160405180910390a45050565b6000611683836001600160a01b03841661316d565b612d87828261168a565b15610dbe5760008281526065602090815260408083206001600160a01b0385168085529252808320805460ff1916905551339285917ff6391f5c32d9c69d2a47ea670b442974b53935d1edc7fd64eb21e047a839171b9190a45050565b6000611683836001600160a01b0384166131bc565b6000826000018281548110612e1057612e106143d2565b9060005260206000200154905092915050565b60006001600160a01b0384163b15612f2557604051630a85bd0160e11b81526001600160a01b0385169063150b7a0290612e67903390899088908890600401613ebc565b602060405180830381600087803b158015612e8157600080fd5b505af1925050508015612eb1575060408051601f3d908101601f19168201909252612eae91810190613a52565b60015b612f0b573d808015612edf576040519150601f19603f3d011682016040523d82523d6000602084013e612ee4565b606091505b508051612f035760405162461bcd60e51b81526004016109ef90614068565b805181602001fd5b6001600160e01b031916630a85bd0160e11b149050611e19565b506001949350505050565b60006001600160e01b03198216635a05180f60e01b14806108e257506108e2826132af565b612f608383836132e4565b61015f5460ff1615610b255760405162461bcd60e51b815260206004820152602b60248201527f4552433732315061757361626c653a20746f6b656e207472616e73666572207760448201526a1a1a5b19481c185d5cd95960aa1b60648201526084016109ef565b610dbe82826120d8565b60606000612fe1836002614293565b612fec906002614267565b6001600160401b03811115613003576130036143e8565b6040519080825280601f01601f19166020018201604052801561302d576020820181803683370190505b509050600360fc1b81600081518110613048576130486143d2565b60200101906001600160f81b031916908160001a905350600f60fb1b81600181518110613077576130776143d2565b60200101906001600160f81b031916908160001a905350600061309b846002614293565b6130a6906001614267565b90505b600181111561311e576f181899199a1a9b1b9c1cb0b131b232b360811b85600f16601081106130da576130da6143d2565b1a60f81b8282815181106130f0576130f06143d2565b60200101906001600160f81b031916908160001a90535060049490941c93613117816142f5565b90506130a9565b5083156116835760405162461bcd60e51b815260206004820181905260248201527f537472696e67733a20686578206c656e67746820696e73756666696369656e7460448201526064016109ef565b60008181526001830160205260408120546131b4575081546001818101845560008481526020808220909301849055845484825282860190935260409020919091556108e2565b5060006108e2565b600081815260018301602052604081205480156132a55760006131e06001836142b2565b85549091506000906131f4906001906142b2565b9050818114613259576000866000018281548110613214576132146143d2565b9060005260206000200154905080876000018481548110613237576132376143d2565b6000918252602080832090910192909255918252600188019052604090208390555b855486908061326a5761326a6143bc565b6001900381819060005260206000200160009055905585600101600086815260200190815260200160002060009055600193505050506108e2565b60009150506108e2565b60006001600160e01b03198216637965db0b60e01b14806108e257506301ffc9a760e01b6001600160e01b03198316146108e2565b6001600160a01b03831661333f5761333a8160fd8054600083815260fe60205260408120829055600182018355919091527f9346ac6dd7de6b96975fec380d4d994c4c12e6a8897544f22915316cc6cca2800155565b613362565b816001600160a01b0316836001600160a01b03161461336257613362838261339c565b6001600160a01b03821661337957610b2581613439565b826001600160a01b0316826001600160a01b031614610b2557610b2582826134e8565b600060016133a98461151d565b6133b391906142b2565b600083815260fc6020526040902054909150808214613406576001600160a01b038416600090815260fb60209081526040808320858452825280832054848452818420819055835260fc90915290208190555b50600091825260fc602090815260408084208490556001600160a01b03909416835260fb81528383209183525290812055565b60fd5460009061344b906001906142b2565b600083815260fe602052604081205460fd8054939450909284908110613473576134736143d2565b906000526020600020015490508060fd8381548110613494576134946143d2565b600091825260208083209091019290925582815260fe909152604080822084905585825281205560fd8054806134cc576134cc6143bc565b6001900381819060005260206000200160009055905550505050565b60006134f38361151d565b6001600160a01b03909316600090815260fb60209081526040808320868452825280832085905593825260fc9052919091209190915550565b8280546135389061430c565b90600052602060002090601f01602090048101928261355a57600085556135a0565b82601f1061357357805160ff19168380011785556135a0565b828001600101855582156135a0579182015b828111156135a0578251825591602001919060010190613585565b506135ac92915061362a565b5090565b6040518060c00160405280600060ff168152602001606081526020016135f060405180606001604052806000815260200160008152602001600081525090565b8152606060208201819052600060408301529081015290565b5080546000825560020290600052602060002090810190610eea919061363f565b5b808211156135ac576000815560010161362b565b5b808211156135ac576000815560018101805460ff19169055600201613640565b60006001600160401b03831115613679576136796143e8565b61368c601f8401601f1916602001614214565b90508281528383830111156136a057600080fd5b828260208301376000602084830101529392505050565b600082601f8301126136c857600080fd5b813560206136dd6136d883614244565b614214565b80838252828201915082860187848660051b89010111156136fd57600080fd5b6000805b8681101561373f5782356001600160401b0381111561371e578283fd5b61372c8b88838d01016137e3565b8652509385019391850191600101613701565b509198975050505050505050565b600082601f83011261375e57600080fd5b8135602061376e6136d883614244565b80838252828201915082860187848660061b890101111561378e57600080fd5b6000805b8681101561373f57604080848c0312156137aa578283fd5b6137b26141ec565b843581526137c1888601613803565b818901528652948601949290920191600101613792565b8035612056816143fe565b600082601f8301126137f457600080fd5b61168383833560208501613660565b803560ff8116811461205657600080fd5b60006020828403121561382657600080fd5b8135611683816143fe565b6000806040838503121561384457600080fd5b823561384f816143fe565b9150602083013561385f816143fe565b809150509250929050565b60008060006060848603121561387f57600080fd5b833561388a816143fe565b9250602084013561389a816143fe565b929592945050506040919091013590565b600080600080608085870312156138c157600080fd5b84356138cc816143fe565b935060208501356138dc816143fe565b92506040850135915060608501356001600160401b038111156138fe57600080fd5b8501601f8101871361390f57600080fd5b61391e87823560208401613660565b91505092959194509250565b6000806040838503121561393d57600080fd5b8235613948816143fe565b9150602083013561385f81614413565b6000806040838503121561396b57600080fd5b8235613976816143fe565b946020939093013593505050565b60006020828403121561399657600080fd5b81356001600160401b038111156139ac57600080fd5b611e198482850161374d565b6000602082840312156139ca57600080fd5b815161168381614413565b6000602082840312156139e757600080fd5b5035919050565b60008060408385031215613a0157600080fd5b82359150602083013561385f816143fe565b60008060408385031215613a2657600080fd5b50508035926020909101359150565b600060208284031215613a4757600080fd5b813561168381614421565b600060208284031215613a6457600080fd5b815161168381614421565b600060208284031215613a8157600080fd5b81356001600160401b03811115613a9757600080fd5b611e19848285016137e3565b60008060408385031215613ab657600080fd5b82356001600160401b0380821115613acd57600080fd5b613ad9868387016137e3565b93506020850135915080821115613aef57600080fd5b50613afc858286016137e3565b9150509250929050565b600080600060608486031215613b1b57600080fd5b83356001600160401b0380821115613b3257600080fd5b613b3e878388016137e3565b94506020860135915080821115613b5457600080fd5b613b60878388016137e3565b93506040860135915080821115613b7657600080fd5b50613b83868287016137e3565b9150509250925092565b60008060008060008060c08789031215613ba657600080fd5b86356001600160401b0380821115613bbd57600080fd5b613bc98a838b016137e3565b97506020890135915080821115613bdf57600080fd5b613beb8a838b016137e3565b96506040890135915080821115613c0157600080fd5b613c0d8a838b016137e3565b95506060890135915080821115613c2357600080fd5b613c2f8a838b016136b7565b94506080890135915080821115613c4557600080fd5b50613c5289828a0161374d565b925050613c6160a088016137d8565b90509295509295509295565b60008060408385031215613c8057600080fd5b82356001600160401b03811115613c9657600080fd5b613ca2858286016137e3565b925050613cb160208401613803565b90509250929050565b600060208284031215613ccc57600080fd5b5051919050565b600081518084526020808501945080840160005b83811015613d2f57815180516001600160a01b039081168952848201511684890152604080820151908901526060908101519088015260809096019590820190600101613ce7565b509495945050505050565b60008151808452613d528160208601602086016142c9565b601f01601f19169290920160200192915050565b600061010060ff83511684526020830151816020860152613d8982860182613d3a565b915050604083015180516040860152602081015160608601526040810151608086015250606083015184820360a0860152613dc48282613d3a565b9150506080830151613ddb60c086018260ff169052565b5060a083015184820360e0860152613df38282613cd3565b95945050505050565b60008251613e0e8184602087016142c9565b9190910192915050565b60008351613e2a8184602088016142c9565b835190830190613e3e8183602088016142c9565b01949350505050565b7f416363657373436f6e74726f6c3a206163636f756e7420000000000000000000815260008351613e7f8160178501602088016142c9565b7001034b99036b4b9b9b4b733903937b6329607d1b6017918401918201528351613eb08160288401602088016142c9565b01602801949350505050565b6001600160a01b0385811682528416602082015260408101839052608060608201819052600090613eef90830184613d3a565b9695505050505050565b6000602080830181845280855180835260408601915060408160051b870101925083870160005b82811015613f4e57603f19888603018452613f3c858351613d66565b94509285019290850190600101613f20565b5092979650505050505050565b602080825282518282018190526000919060409081850190868401855b82811015613fa05781518051855286015160ff16868501529284019290850190600101613f78565b5091979650505050505050565b6020815260006116836020830184613d3a565b600060208083526000845481600182811c915080831680613fe257607f831692505b85831081141561400057634e487b7160e01b85526022600452602485fd5b87860183815260200181801561401d576001811461402e57614059565b60ff19861682528782019650614059565b60008b81526020902060005b868110156140535781548482015290850190890161403a565b83019750505b50949998505050505050505050565b60208082526032908201527f4552433732313a207472616e7366657220746f206e6f6e20455243373231526560408201527131b2b4bb32b91034b6b83632b6b2b73a32b960711b606082015260800190565b6020808252602e908201527f496e697469616c697a61626c653a20636f6e747261637420697320616c72656160408201526d191e481a5b9a5d1a585b1a5e995960921b606082015260800190565b6020808252818101527f4f776e61626c653a2063616c6c6572206973206e6f7420746865206f776e6572604082015260600190565b60208082526031908201527f4552433732313a207472616e736665722063616c6c6572206973206e6f74206f6040820152701ddb995c881b9bdc88185c1c1c9bdd9959607a1b606082015260800190565b6020808252602b908201527f496e697469616c697a61626c653a20636f6e7472616374206973206e6f74206960408201526a6e697469616c697a696e6760a81b606082015260800190565b6020815260006116836020830184613d66565b604080519081016001600160401b038111828210171561420e5761420e6143e8565b60405290565b604051601f8201601f191681016001600160401b038111828210171561423c5761423c6143e8565b604052919050565b60006001600160401b0382111561425d5761425d6143e8565b5060051b60200190565b6000821982111561427a5761427a614390565b500190565b60008261428e5761428e6143a6565b500490565b60008160001904831182151516156142ad576142ad614390565b500290565b6000828210156142c4576142c4614390565b500390565b60005b838110156142e45781810151838201526020016142cc565b838111156110995750506000910152565b60008161430457614304614390565b506000190190565b600181811c9082168061432057607f821691505b6020821081141561151757634e487b7160e01b600052602260045260246000fd5b600060001982141561435557614355614390565b5060010190565b600060ff821660ff81141561437357614373614390565b60010192915050565b60008261438b5761438b6143a6565b500690565b634e487b7160e01b600052601160045260246000fd5b634e487b7160e01b600052601260045260246000fd5b634e487b7160e01b600052603160045260246000fd5b634e487b7160e01b600052603260045260246000fd5b634e487b7160e01b600052604160045260246000fd5b6001600160a01b0381168114610eea57600080fd5b8015158114610eea57600080fd5b6001600160e01b031981168114610eea57600080fdfe65d7a28e3265b37a6474929f336521b332c1681b933f6cb9f3376673440d862aa2646970667358221220812a8be01e093b329fd4d3c1d951d9025d571b167170bf241ead2caebdb3c26264736f6c63430008070033",
  "immutableReferences": {},
  "source": "// SPDX-License-Identifier: MIT\npragma solidity 0.8.7;\n\nimport \"@openzeppelin/contracts/token/ERC20/IERC20.sol\";\nimport \"@openzeppelin/contracts-upgradeable/access/OwnableUpgradeable.sol\";\nimport \"@openzeppelin/contracts-upgradeable/token/ERC721/presets/ERC721PresetMinterPauserAutoIdUpgradeable.sol\";\n\nimport \"../Wallet.sol\";\n\ncontract TVTL is ERC721PresetMinterPauserAutoIdUpgradeable, OwnableUpgradeable {\n    struct ActiveLicence {\n        uint256 performance;\n        uint256 startDateTime;\n        uint256 endDateTime;\n    }\n\n    struct Licence {\n        uint256 performance;\n        uint8 purpose;\n    }\n\n    struct Rent {\n        address landlord;\n        address tenant;\n        uint256 startDateTime;\n        uint256 endDateTime;\n    }\n\n    struct Land {\n        uint8 color;\n        string landId;\n        ActiveLicence licence;\n        string message;\n        uint8 purpose;\n        Rent[] rents;\n    }\n\n    string[] private _landIds;\n\n    // landId -> tokenId\n    mapping(string => uint256) private _landIdToTokenId;\n\n    // tokenId -> Land\n    mapping(uint256 => Land) private _lands;\n\n    Licence[] private _licences;\n\n    Wallet private _wallet;\n\n    error TVTLRent(string landId);\n\n    function __TVTL_init(\n        string memory name,\n        string memory symbol,\n        string memory baseTokenURI,\n        string[] memory landIds,\n        Licence[] memory licences,\n        Wallet wallet\n    ) public initializer {\n        __ERC721PresetMinterPauserAutoId_init(name, symbol, baseTokenURI);\n        __Ownable_init();\n\n        setLicences(licences);\n        setWallet(wallet);\n\n        if (landIds.length != 0) {\n            return;\n        }\n\n        address owner = owner();\n\n        for (uint256 i = 0; i < landIds.length; i++) {\n            _landIds.push(landIds[i]);\n\n            mint(owner);\n        }\n    }\n\n    function buyLicence(string memory landId, uint8 licenceId) public payable {\n        uint256 tokenId = _landIdToTokenId[landId];\n\n        Land storage land = _lands[tokenId];\n\n        Licence memory licence = _licences[licenceId];\n\n        uint256 price = _wallet.getTVTLLicencePrice(licenceId);\n\n        require(price == msg.value, \"Amount is not equal\");\n\n        land.licence = ActiveLicence({\n            performance: licence.performance,\n            startDateTime: block.timestamp,\n            endDateTime: block.timestamp + getLicencePeriod()\n        });\n\n        _wallet.transferTo(_msgSender(), price);\n    }\n\n    function getLand(string memory landId)\n        public\n        view\n        returns (Land memory land)\n    {\n        uint256 tokenId = _landIdToTokenId[landId];\n\n        return _lands[tokenId];\n    }\n\n    function getLands() external view returns (Land[] memory) {\n        Land[] memory lands;\n\n        for (uint256 i = 0; i < _landIds.length - 1; i++) {\n            lands[i] = getLand(_landIds[i]);\n        }\n\n        return lands;\n    }\n\n    function getLicences() external view returns (Licence[] memory) {\n        return _licences;\n    }\n\n    function getLicencePeriod() public pure returns (uint256) {\n        return 30 * 24 * 60 * 60;\n    }\n\n    function getRentPeriod() public pure returns (uint256) {\n        return 365 * 24 * 60 * 60;\n    }\n\n    function getRentPrice() public pure returns (uint256) {\n        return 100;\n    }\n\n    function getSubRentPeriod() public pure returns (uint256) {\n        return 30 * 24 * 60 * 60;\n    }\n\n    function getWallet() external view returns (Wallet) {\n        return _wallet;\n    }\n\n    function rent(string memory landId) external {\n        uint256 tokenId = _landIdToTokenId[landId];\n\n        address landlord = owner();\n        address tenant = _msgSender();\n\n        require(landlord == ownerOf(tokenId), \"Land is already rented\");\n\n        _transfer(landlord, tenant, tokenId);\n    }\n\n    function setLicences(Licence[] memory licences) public onlyOwner {\n        delete _licences;\n\n        for (uint8 i = 0; i < licences.length; i++) {\n            _licences.push(licences[i]);\n        }\n    }\n\n    function setMessage(string memory landId, string memory message) public {\n        uint256 tokenId = _landIdToTokenId[landId];\n\n        _lands[tokenId].message = message;\n    }\n\n    function setWallet(Wallet wallet) public onlyOwner {\n        _wallet = wallet;\n    }\n\n    function _afterTokenTransfer(\n        address from,\n        address to,\n        uint256 tokenId\n    ) internal virtual override {\n        super._afterTokenTransfer(from, to, tokenId);\n\n        if (from == address(0)) {\n            // token miting\n            string memory landId = _landIds[_landIds.length - 1];\n\n            _landIdToTokenId[landId] = tokenId;\n        } else {\n            Land storage land = _lands[tokenId];\n\n            uint8 rentIndex;\n\n            for (uint8 i = 0; i < land.rents.length; i++) {\n                if (rentIndex > 0) {\n                    // dirty code, delete and pop two different elements from array\n                    delete land.rents[i];\n                    land.rents.pop();\n\n                    continue;\n                }\n\n                if (land.rents[i].landlord == to) {\n                    rentIndex = i;\n                }\n            }\n\n            if (rentIndex > 0) {\n                return;\n            }\n\n            if (land.rents.length == 0) {\n                // token renting\n                land.rents.push(\n                    Rent({\n                        landlord: from,\n                        tenant: to,\n                        startDateTime: block.timestamp,\n                        endDateTime: block.timestamp + getRentPeriod()\n                    })\n                );\n\n                _wallet.transferTo(to, getRentPrice());\n\n                return;\n            }\n\n            if (land.rents.length == 1) {\n                // token subrenting\n                land.rents.push(\n                    Rent({\n                        landlord: from,\n                        tenant: to,\n                        startDateTime: block.timestamp,\n                        endDateTime: block.timestamp + getSubRentPeriod()\n                    })\n                );\n\n                return;\n            }\n\n            revert TVTLRent({landId: land.landId});\n        }\n    }\n}\n",
  "sourcePath": "/Users/ievgencherkaskyi/Projects/tivan/hexagons/contracts/Landlord/TVTL.sol",
  "compiler": {
    "name": "solc",
    "version": "0.8.7+commit.e28d00a7.Emscripten.clang"
  },
  "schemaVersion": "3.3.3",
  "updatedAt": "2022-07-11T22:06:52.655Z",
  "devdoc": {
    "kind": "dev",
    "methods": {
      "approve(address,uint256)": {
        "details": "See {IERC721-approve}."
      },
      "balanceOf(address)": {
        "details": "See {IERC721-balanceOf}."
      },
      "burn(uint256)": {
        "details": "Burns `tokenId`. See {ERC721-_burn}. Requirements: - The caller must own `tokenId` or be an approved operator."
      },
      "getApproved(uint256)": {
        "details": "See {IERC721-getApproved}."
      },
      "getRoleAdmin(bytes32)": {
        "details": "Returns the admin role that controls `role`. See {grantRole} and {revokeRole}. To change a role's admin, use {_setRoleAdmin}."
      },
      "getRoleMember(bytes32,uint256)": {
        "details": "Returns one of the accounts that have `role`. `index` must be a value between 0 and {getRoleMemberCount}, non-inclusive. Role bearers are not sorted in any particular way, and their ordering may change at any point. WARNING: When using {getRoleMember} and {getRoleMemberCount}, make sure you perform all queries on the same block. See the following https://forum.openzeppelin.com/t/iterating-over-elements-on-enumerableset-in-openzeppelin-contracts/2296[forum post] for more information."
      },
      "getRoleMemberCount(bytes32)": {
        "details": "Returns the number of accounts that have `role`. Can be used together with {getRoleMember} to enumerate all bearers of a role."
      },
      "grantRole(bytes32,address)": {
        "details": "Grants `role` to `account`. If `account` had not been already granted `role`, emits a {RoleGranted} event. Requirements: - the caller must have ``role``'s admin role."
      },
      "hasRole(bytes32,address)": {
        "details": "Returns `true` if `account` has been granted `role`."
      },
      "isApprovedForAll(address,address)": {
        "details": "See {IERC721-isApprovedForAll}."
      },
      "mint(address)": {
        "details": "Creates a new token for `to`. Its token ID will be automatically assigned (and available on the emitted {IERC721-Transfer} event), and the token URI autogenerated based on the base URI passed at construction. See {ERC721-_mint}. Requirements: - the caller must have the `MINTER_ROLE`."
      },
      "name()": {
        "details": "See {IERC721Metadata-name}."
      },
      "owner()": {
        "details": "Returns the address of the current owner."
      },
      "ownerOf(uint256)": {
        "details": "See {IERC721-ownerOf}."
      },
      "pause()": {
        "details": "Pauses all token transfers. See {ERC721Pausable} and {Pausable-_pause}. Requirements: - the caller must have the `PAUSER_ROLE`."
      },
      "paused()": {
        "details": "Returns true if the contract is paused, and false otherwise."
      },
      "renounceOwnership()": {
        "details": "Leaves the contract without owner. It will not be possible to call `onlyOwner` functions anymore. Can only be called by the current owner. NOTE: Renouncing ownership will leave the contract without an owner, thereby removing any functionality that is only available to the owner."
      },
      "renounceRole(bytes32,address)": {
        "details": "Revokes `role` from the calling account. Roles are often managed via {grantRole} and {revokeRole}: this function's purpose is to provide a mechanism for accounts to lose their privileges if they are compromised (such as when a trusted device is misplaced). If the calling account had been revoked `role`, emits a {RoleRevoked} event. Requirements: - the caller must be `account`."
      },
      "revokeRole(bytes32,address)": {
        "details": "Revokes `role` from `account`. If `account` had been granted `role`, emits a {RoleRevoked} event. Requirements: - the caller must have ``role``'s admin role."
      },
      "safeTransferFrom(address,address,uint256)": {
        "details": "See {IERC721-safeTransferFrom}."
      },
      "safeTransferFrom(address,address,uint256,bytes)": {
        "details": "See {IERC721-safeTransferFrom}."
      },
      "setApprovalForAll(address,bool)": {
        "details": "See {IERC721-setApprovalForAll}."
      },
      "supportsInterface(bytes4)": {
        "details": "See {IERC165-supportsInterface}."
      },
      "symbol()": {
        "details": "See {IERC721Metadata-symbol}."
      },
      "tokenByIndex(uint256)": {
        "details": "See {IERC721Enumerable-tokenByIndex}."
      },
      "tokenOfOwnerByIndex(address,uint256)": {
        "details": "See {IERC721Enumerable-tokenOfOwnerByIndex}."
      },
      "tokenURI(uint256)": {
        "details": "See {IERC721Metadata-tokenURI}."
      },
      "totalSupply()": {
        "details": "See {IERC721Enumerable-totalSupply}."
      },
      "transferFrom(address,address,uint256)": {
        "details": "See {IERC721-transferFrom}."
      },
      "transferOwnership(address)": {
        "details": "Transfers ownership of the contract to a new account (`newOwner`). Can only be called by the current owner."
      },
      "unpause()": {
        "details": "Unpauses all token transfers. See {ERC721Pausable} and {Pausable-_unpause}. Requirements: - the caller must have the `PAUSER_ROLE`."
      }
    },
    "version": 1
  },
  "userdoc": {
    "kind": "user",
    "methods": {},
    "version": 1
  }
}