{
  "contractName": "TVTTokenCrowdsale",
  "abi": [
    {
      "inputs": [
        {
          "internalType": "uint256",
          "name": "rate",
          "type": "uint256"
        },
        {
          "internalType": "contract ERC20PresetMinterPauser",
          "name": "token",
          "type": "address"
        }
      ],
      "stateMutability": "nonpayable",
      "type": "constructor"
    },
    {
      "anonymous": false,
      "inputs": [
        {
          "indexed": true,
          "internalType": "address",
          "name": "beneficiary",
          "type": "address"
        },
        {
          "indexed": false,
          "internalType": "uint256",
          "name": "value",
          "type": "uint256"
        },
        {
          "indexed": false,
          "internalType": "uint256",
          "name": "amount",
          "type": "uint256"
        }
      ],
      "name": "AfterCrowdsaleBuyTokens",
      "type": "event"
    },
    {
      "anonymous": false,
      "inputs": [
        {
          "indexed": false,
          "internalType": "uint256",
          "name": "oldRate",
          "type": "uint256"
        },
        {
          "indexed": false,
          "internalType": "uint256",
          "name": "newRate",
          "type": "uint256"
        }
      ],
      "name": "BeforeCrowdsaleSetRate",
      "type": "event"
    },
    {
      "anonymous": false,
      "inputs": [
        {
          "indexed": true,
          "internalType": "address",
          "name": "previousOwner",
          "type": "address"
        },
        {
          "indexed": true,
          "internalType": "address",
          "name": "newOwner",
          "type": "address"
        }
      ],
      "name": "OwnershipTransferred",
      "type": "event"
    },
    {
      "inputs": [],
      "name": "buyTokens",
      "outputs": [],
      "stateMutability": "payable",
      "type": "function",
      "payable": true
    },
    {
      "inputs": [],
      "name": "getRate",
      "outputs": [
        {
          "internalType": "uint256",
          "name": "",
          "type": "uint256"
        }
      ],
      "stateMutability": "view",
      "type": "function",
      "constant": true
    },
    {
      "inputs": [],
      "name": "getWeiRaised",
      "outputs": [
        {
          "internalType": "uint256",
          "name": "",
          "type": "uint256"
        }
      ],
      "stateMutability": "view",
      "type": "function",
      "constant": true
    },
    {
      "inputs": [],
      "name": "owner",
      "outputs": [
        {
          "internalType": "address",
          "name": "",
          "type": "address"
        }
      ],
      "stateMutability": "view",
      "type": "function",
      "constant": true
    },
    {
      "inputs": [],
      "name": "renounceOwnership",
      "outputs": [],
      "stateMutability": "nonpayable",
      "type": "function"
    },
    {
      "inputs": [
        {
          "internalType": "uint256",
          "name": "rate",
          "type": "uint256"
        }
      ],
      "name": "setRate",
      "outputs": [],
      "stateMutability": "nonpayable",
      "type": "function"
    },
    {
      "inputs": [
        {
          "internalType": "address",
          "name": "newOwner",
          "type": "address"
        }
      ],
      "name": "transferOwnership",
      "outputs": [],
      "stateMutability": "nonpayable",
      "type": "function"
    },
    {
      "stateMutability": "payable",
      "type": "receive",
      "payable": true
    },
    {
      "inputs": [],
      "name": "getToken",
      "outputs": [
        {
          "internalType": "contract ERC20PresetMinterPauser",
          "name": "",
          "type": "address"
        }
      ],
      "stateMutability": "view",
      "type": "function",
      "constant": true
    }
  ],
  "bytecode": "0x608060405234801561001057600080fd5b5060405161083b38038061083b83398101604081905261002f9161016a565b816100393361011a565b600180558061008f5760405162461bcd60e51b815260206004820152601460248201527f43726f776473616c653a2072617465206973203000000000000000000000000060448201526064015b60405180910390fd5b6002556001600160a01b0381166100f45760405162461bcd60e51b8152602060048201526024808201527f43726f776473616c653a20746f6b656e20697320746865207a65726f206164646044820152637265737360e01b6064820152608401610086565b600480546001600160a01b0319166001600160a01b0392909216919091179055506101a7565b600080546001600160a01b038381166001600160a01b0319831681178455604051919092169283917f8be0079c531659141344cd1fd0a4f28419497f9722a3daafe3b4186f6b6457e09190a35050565b6000806040838503121561017d57600080fd5b825160208401519092506001600160a01b038116811461019c57600080fd5b809150509250929050565b610685806101b66000396000f3fe60806040526004361061007f5760003560e01c8063715018a61161004e578063715018a6146101185780638da5cb5b1461012d578063d0febe4c1461014b578063f2fde38b1461015357600080fd5b806321df0da71461008b57806334fcf437146100c257806340582f13146100e4578063679aefce1461010357600080fd5b3661008657005b600080fd5b34801561009757600080fd5b506004546001600160a01b03165b6040516001600160a01b0390911681526020015b60405180910390f35b3480156100ce57600080fd5b506100e26100dd3660046105b4565b610173565b005b3480156100f057600080fd5b506003545b6040519081526020016100b9565b34801561010f57600080fd5b506002546100f5565b34801561012457600080fd5b506100e26101e7565b34801561013957600080fd5b506000546001600160a01b03166100a5565b6100e261021d565b34801561015f57600080fd5b506100e261016e36600461058b565b6102ff565b6000546001600160a01b031633146101a65760405162461bcd60e51b815260040161019d906105cd565b60405180910390fd5b60025460408051918252602082018390527f087f280cda785760f07a7708d1eca30d6ced75d7319a3404b02c5d98b6500f23910160405180910390a1600255565b6000546001600160a01b031633146102115760405162461bcd60e51b815260040161019d906105cd565b61021b600061039a565b565b600260015414156102705760405162461bcd60e51b815260206004820152601f60248201527f5265656e7472616e637947756172643a207265656e7472616e742063616c6c00604482015260640161019d565b6002600155333461028182826103ea565b600061028c826104a4565b60035490915061029c90836104c1565b6003556102a983826104d4565b60408051838152602081018390526001600160a01b038516917f85bec9fa7bf00761dd3badd9aebcb5ca4147d2abf1b17864efcb6627e33ad2c4910160405180910390a26102f6826104de565b50506001805550565b6000546001600160a01b031633146103295760405162461bcd60e51b815260040161019d906105cd565b6001600160a01b03811661038e5760405162461bcd60e51b815260206004820152602660248201527f4f776e61626c653a206e6577206f776e657220697320746865207a65726f206160448201526564647265737360d01b606482015260840161019d565b6103978161039a565b50565b600080546001600160a01b038381166001600160a01b0319831681178455604051919092169283917f8be0079c531659141344cd1fd0a4f28419497f9722a3daafe3b4186f6b6457e09190a35050565b6001600160a01b0382166104535760405162461bcd60e51b815260206004820152602a60248201527f43726f776473616c653a2062656e656669636961727920697320746865207a65604482015269726f206164647265737360b01b606482015260840161019d565b806104a05760405162461bcd60e51b815260206004820152601960248201527f43726f776473616c653a20776569416d6f756e74206973203000000000000000604482015260640161019d565b5050565b60006104bb6002548361050b90919063ffffffff16565b92915050565b60006104cd8284610602565b9392505050565b6104a08282610517565b604051309082156108fc029083906000818181858888f193505050501580156104a0573d6000803e3d6000fd5b60006104cd828461061a565b6004546001600160a01b03166040516340c10f1960e01b81526001600160a01b0384811660048301526024820184905291909116906340c10f1990604401600060405180830381600087803b15801561056f57600080fd5b505af1158015610583573d6000803e3d6000fd5b505050505050565b60006020828403121561059d57600080fd5b81356001600160a01b03811681146104cd57600080fd5b6000602082840312156105c657600080fd5b5035919050565b6020808252818101527f4f776e61626c653a2063616c6c6572206973206e6f7420746865206f776e6572604082015260600190565b6000821982111561061557610615610639565b500190565b600081600019048311821515161561063457610634610639565b500290565b634e487b7160e01b600052601160045260246000fdfea2646970667358221220fb2511f05a3427adf57e8e9f52bb1526e4da9f5e518d0c7a6d0f2e6b02350fdd64736f6c63430008070033",
  "immutableReferences": {},
  "source": "// SPDX-License-Identifier: MIT\npragma solidity 0.8.7;\n\nimport \"@openzeppelin/contracts/token/ERC20/presets/ERC20PresetMinterPauser.sol\";\n\nimport \"../Crowdsale.sol\";\n\n/**\n * @title TVTTokenCrowdsale\n * @dev Extension of ERC20Crowdsale contract whose tokens are minted in each purchase.\n * Token ownership should be transferred to TVTTokenCrowdsale for minting.\n */\ncontract TVTTokenCrowdsale is Crowdsale {\n    using SafeERC20 for IERC20;\n\n    // The token being sold\n    ERC20PresetMinterPauser private _token;\n\n    constructor(uint256 rate, ERC20PresetMinterPauser token) Crowdsale(rate) {\n        require(\n            address(token) != address(0),\n            \"Crowdsale: token is the zero address\"\n        );\n\n        _token = token;\n    }\n\n    /**\n     * @return the token being sold.\n     */\n    function getToken() public view returns (ERC20PresetMinterPauser) {\n        return ERC20PresetMinterPauser(address(_token));\n    }\n\n    /**\n     * @dev Overrides delivery by minting tokens upon purchase.\n     * @param beneficiary Token purchaser\n     * @param tokenAmount Number of tokens to be minted\n     */\n    function _deliverTokens(address beneficiary, uint256 tokenAmount)\n        internal\n        override\n    {\n        getToken().mint(beneficiary, tokenAmount);\n    }\n}\n",
  "sourcePath": "/Users/ievgencherkaskyi/Projects/tivan/launchpool/contracts/TVT/TVTTokenCrowdsale.sol",
  "compiler": {
    "name": "solc",
    "version": "0.8.7+commit.e28d00a7.Emscripten.clang"
  },
  "schemaVersion": "3.3.3",
  "updatedAt": "2022-06-29T07:06:05.988Z",
  "networkType": "ethereum",
  "devdoc": {
    "details": "Extension of ERC20Crowdsale contract whose tokens are minted in each purchase. Token ownership should be transferred to TVTTokenCrowdsale for minting.",
    "kind": "dev",
    "methods": {
      "buyTokens()": {
        "details": "low level token purchase ***DO NOT OVERRIDE*** This function has a non-reentrancy guard, so it shouldn't be called by another `nonReentrant` function."
      },
      "getRate()": {
        "returns": {
          "_0": "the number of token units a buyer gets per wei."
        }
      },
      "getToken()": {
        "returns": {
          "_0": "the token being sold."
        }
      },
      "getWeiRaised()": {
        "returns": {
          "_0": "the amount of wei raised."
        }
      },
      "owner()": {
        "details": "Returns the address of the current owner."
      },
      "renounceOwnership()": {
        "details": "Leaves the contract without owner. It will not be possible to call `onlyOwner` functions anymore. Can only be called by the current owner. NOTE: Renouncing ownership will leave the contract without an owner, thereby removing any functionality that is only available to the owner."
      },
      "setRate(uint256)": {
        "params": {
          "rate": "Number of token units a buyer gets per wei"
        }
      },
      "transferOwnership(address)": {
        "details": "Transfers ownership of the contract to a new account (`newOwner`). Can only be called by the current owner."
      }
    },
    "title": "TVTTokenCrowdsale",
    "version": 1
  },
  "userdoc": {
    "events": {
      "AfterCrowdsaleBuyTokens(address,uint256,uint256)": {
        "notice": "Event for token purchase logging"
      }
    },
    "kind": "user",
    "methods": {
      "setRate(uint256)": {
        "notice": "This function set the rate of token"
      }
    },
    "version": 1
  }
}