{
  "contractName": "TVTVCrowdsale",
  "abi": [
    {
      "inputs": [
        {
          "internalType": "uint256",
          "name": "rate",
          "type": "uint256"
        },
        {
          "internalType": "contract IBankAccount",
          "name": "wallet",
          "type": "address"
        },
        {
          "internalType": "contract ERC721PresetMinterPauserAutoId",
          "name": "token",
          "type": "address"
        }
      ],
      "stateMutability": "nonpayable",
      "type": "constructor"
    },
    {
      "inputs": [],
      "name": "TVTVAlreadyBought",
      "type": "error"
    },
    {
      "inputs": [],
      "name": "TVTVOnlyOne",
      "type": "error"
    },
    {
      "anonymous": false,
      "inputs": [
        {
          "indexed": true,
          "internalType": "address",
          "name": "beneficiary",
          "type": "address"
        },
        {
          "indexed": false,
          "internalType": "uint256",
          "name": "value",
          "type": "uint256"
        },
        {
          "indexed": false,
          "internalType": "uint256",
          "name": "amount",
          "type": "uint256"
        }
      ],
      "name": "AfterCrowdsaleBuyTokens",
      "type": "event"
    },
    {
      "anonymous": false,
      "inputs": [
        {
          "indexed": false,
          "internalType": "uint256",
          "name": "oldRate",
          "type": "uint256"
        },
        {
          "indexed": false,
          "internalType": "uint256",
          "name": "newRate",
          "type": "uint256"
        }
      ],
      "name": "BeforeCrowdsaleSetRate",
      "type": "event"
    },
    {
      "anonymous": false,
      "inputs": [
        {
          "indexed": true,
          "internalType": "address",
          "name": "previousOwner",
          "type": "address"
        },
        {
          "indexed": true,
          "internalType": "address",
          "name": "newOwner",
          "type": "address"
        }
      ],
      "name": "OwnershipTransferred",
      "type": "event"
    },
    {
      "inputs": [
        {
          "internalType": "address",
          "name": "beneficiary",
          "type": "address"
        }
      ],
      "name": "buyTokens",
      "outputs": [],
      "stateMutability": "payable",
      "type": "function"
    },
    {
      "inputs": [],
      "name": "getRate",
      "outputs": [
        {
          "internalType": "uint256",
          "name": "",
          "type": "uint256"
        }
      ],
      "stateMutability": "view",
      "type": "function"
    },
    {
      "inputs": [],
      "name": "getWallet",
      "outputs": [
        {
          "internalType": "contract IBankAccount",
          "name": "",
          "type": "address"
        }
      ],
      "stateMutability": "view",
      "type": "function"
    },
    {
      "inputs": [],
      "name": "getWeiRaised",
      "outputs": [
        {
          "internalType": "uint256",
          "name": "",
          "type": "uint256"
        }
      ],
      "stateMutability": "view",
      "type": "function"
    },
    {
      "inputs": [],
      "name": "owner",
      "outputs": [
        {
          "internalType": "address",
          "name": "",
          "type": "address"
        }
      ],
      "stateMutability": "view",
      "type": "function"
    },
    {
      "inputs": [],
      "name": "renounceOwnership",
      "outputs": [],
      "stateMutability": "nonpayable",
      "type": "function"
    },
    {
      "inputs": [
        {
          "internalType": "uint256",
          "name": "rate",
          "type": "uint256"
        }
      ],
      "name": "setRate",
      "outputs": [],
      "stateMutability": "nonpayable",
      "type": "function"
    },
    {
      "inputs": [
        {
          "internalType": "address",
          "name": "newOwner",
          "type": "address"
        }
      ],
      "name": "transferOwnership",
      "outputs": [],
      "stateMutability": "nonpayable",
      "type": "function"
    },
    {
      "stateMutability": "payable",
      "type": "receive"
    },
    {
      "inputs": [],
      "name": "getToken",
      "outputs": [
        {
          "internalType": "contract ERC721PresetMinterPauserAutoId",
          "name": "",
          "type": "address"
        }
      ],
      "stateMutability": "view",
      "type": "function"
    }
  ],
  "bytecode": "0x608060405234801561001057600080fd5b50604051610b54380380610b5483398101604081905261002f91610184565b828261003a33610134565b60018055816100905760405162461bcd60e51b815260206004820152601460248201527f43726f776473616c653a2072617465206973203000000000000000000000000060448201526064015b60405180910390fd5b600291909155600380546001600160a01b0319166001600160a01b03928316179055811661010c5760405162461bcd60e51b8152602060048201526024808201527f43726f776473616c653a20746f6b656e20697320746865207a65726f206164646044820152637265737360e01b6064820152608401610087565b600580546001600160a01b0319166001600160a01b0392909216919091179055506101df9050565b600080546001600160a01b038381166001600160a01b0319831681178455604051919092169283917f8be0079c531659141344cd1fd0a4f28419497f9722a3daafe3b4186f6b6457e09190a35050565b60008060006060848603121561019957600080fd5b8351925060208401516101ab816101c7565b60408501519092506101bc816101c7565b809150509250925092565b6001600160a01b03811681146101dc57600080fd5b50565b610966806101ee6000396000f3fe60806040526004361061008a5760003560e01c8063679aefce11610059578063679aefce14610138578063715018a61461014d5780638da5cb5b14610162578063ec8ac4d814610180578063f2fde38b1461018e57600080fd5b806313299604146100a457806321df0da7146100db57806334fcf437146100f957806340582f131461011957600080fd5b3661009f5761009d336101ae565b6101ae565b005b600080fd5b3480156100b057600080fd5b506003546001600160a01b03165b6040516001600160a01b0390911681526020015b60405180910390f35b3480156100e757600080fd5b506005546001600160a01b03166100be565b34801561010557600080fd5b5061009d61011436600461082a565b6102aa565b34801561012557600080fd5b506004545b6040519081526020016100d2565b34801561014457600080fd5b5060025461012a565b34801561015957600080fd5b5061009d610315565b34801561016e57600080fd5b506000546001600160a01b03166100be565b61009d6100983660046107ce565b34801561019a57600080fd5b5061009d6101a93660046107ce565b61034b565b600260015414156102065760405162461bcd60e51b815260206004820152601f60248201527f5265656e7472616e637947756172643a207265656e7472616e742063616c6c0060448201526064015b60405180910390fd5b6002600155600061021f670de0b6b3a7640000346108a9565b905061022b82826103e6565b600061023682610450565b600454909150610246908361046d565b6004556102538382610480565b60408051838152602081018390526001600160a01b038516917f85bec9fa7bf00761dd3badd9aebcb5ca4147d2abf1b17864efcb6627e33ad2c4910160405180910390a26102a1838361048e565b50506001805550565b6000546001600160a01b031633146102d45760405162461bcd60e51b81526004016101fd9061085c565b60025460408051918252602082018390527f087f280cda785760f07a7708d1eca30d6ced75d7319a3404b02c5d98b6500f23910160405180910390a1600255565b6000546001600160a01b0316331461033f5760405162461bcd60e51b81526004016101fd9061085c565b61034960006105a6565b565b6000546001600160a01b031633146103755760405162461bcd60e51b81526004016101fd9061085c565b6001600160a01b0381166103da5760405162461bcd60e51b815260206004820152602660248201527f4f776e61626c653a206e6577206f776e657220697320746865207a65726f206160448201526564647265737360d01b60648201526084016101fd565b6103e3816105a6565b50565b6103f082826105f6565b60006103fb82610450565b90508060011461041e57604051630d985cf760e01b815260040160405180910390fd5b6000610429846106ac565b9050801561044a576040516355afcf1160e01b815260040160405180910390fd5b50505050565b60006104676002548361073b90919063ffffffff16565b92915050565b60006104798284610891565b9392505050565b61048a8282610747565b5050565b600360009054906101000a90046001600160a01b03166001600160a01b03166321df0da76040518163ffffffff1660e01b815260040160206040518083038186803b1580156104dc57600080fd5b505afa1580156104f0573d6000803e3d6000fd5b505050506040513d601f19601f82011682018060405250810190610514919061080d565b6003546040516323b872dd60e01b81526001600160a01b0385811660048301529182166024820152604481018490529116906323b872dd90606401602060405180830381600087803b15801561056957600080fd5b505af115801561057d573d6000803e3d6000fd5b505050506040513d601f19601f820116820180604052508101906105a191906107eb565b505050565b600080546001600160a01b038381166001600160a01b0319831681178455604051919092169283917f8be0079c531659141344cd1fd0a4f28419497f9722a3daafe3b4186f6b6457e09190a35050565b6001600160a01b03821661065f5760405162461bcd60e51b815260206004820152602a60248201527f43726f776473616c653a2062656e656669636961727920697320746865207a65604482015269726f206164647265737360b01b60648201526084016101fd565b8061048a5760405162461bcd60e51b815260206004820152601960248201527f43726f776473616c653a20776569416d6f756e7420697320300000000000000060448201526064016101fd565b60006106c06005546001600160a01b031690565b6040516370a0823160e01b81526001600160a01b03848116600483015291909116906370a082319060240160206040518083038186803b15801561070357600080fd5b505afa158015610717573d6000803e3d6000fd5b505050506040513d601f19601f820116820180604052508101906104679190610843565b600061047982846108cb565b60005b818110156105a1576005546001600160a01b03166040516335313c2160e11b81526001600160a01b0385811660048301529190911690636a62784290602401600060405180830381600087803b1580156107a357600080fd5b505af11580156107b7573d6000803e3d6000fd5b5050505080806107c6906108ea565b91505061074a565b6000602082840312156107e057600080fd5b81356104798161091b565b6000602082840312156107fd57600080fd5b8151801515811461047957600080fd5b60006020828403121561081f57600080fd5b81516104798161091b565b60006020828403121561083c57600080fd5b5035919050565b60006020828403121561085557600080fd5b5051919050565b6020808252818101527f4f776e61626c653a2063616c6c6572206973206e6f7420746865206f776e6572604082015260600190565b600082198211156108a4576108a4610905565b500190565b6000826108c657634e487b7160e01b600052601260045260246000fd5b500490565b60008160001904831182151516156108e5576108e5610905565b500290565b60006000198214156108fe576108fe610905565b5060010190565b634e487b7160e01b600052601160045260246000fd5b6001600160a01b03811681146103e357600080fdfea2646970667358221220f3a2750031e1aed124c3bf70165fe911c4b45ebd22270a6204c7ad6d9804887964736f6c63430008070033",
  "immutableReferences": {},
  "source": "// SPDX-License-Identifier: MIT\npragma solidity 0.8.7;\n\nimport \"@openzeppelin/contracts/token/ERC721/presets/ERC721PresetMinterPauserAutoId.sol\";\n\nimport \"../IBankAccount.sol\";\n\nimport \"./Crowdsale.sol\";\n\n/**\n * @title TVTVCrowdsale\n * @dev Extension of Crowdsale contract whose tokens are minted in each purchase.\n * Token ownership should be transferred to TVTVCrowdsale for minting.\n */\ncontract TVTVCrowdsale is Crowdsale {\n    // The token being sold\n    ERC721PresetMinterPauserAutoId private _token;\n\n    error TVTVAlreadyBought();\n    error TVTVOnlyOne();\n\n    constructor(\n        uint256 rate,\n        IBankAccount wallet,\n        ERC721PresetMinterPauserAutoId token\n    ) Crowdsale(rate, wallet) {\n        require(\n            address(token) != address(0),\n            \"Crowdsale: token is the zero address\"\n        );\n\n        _token = token;\n    }\n\n    /**\n     * @return the token being sold.\n     */\n    function getToken() public view returns (ERC721PresetMinterPauserAutoId) {\n        return ERC721PresetMinterPauserAutoId(address(_token));\n    }\n\n    function _balanceOf(address beneficiary) internal view returns (uint256) {\n        return getToken().balanceOf(beneficiary);\n    }\n\n    /**\n     * @dev Overrides delivery by minting tokens upon purchase.\n     * @param beneficiary Token purchaser\n     * @param tokenAmount Number of tokens to be minted\n     */\n    function _deliverTokens(address beneficiary, uint256 tokenAmount)\n        internal\n        override\n    {\n        for (uint256 i = 0; i < tokenAmount; i++) {\n            getToken().mint(beneficiary);\n        }\n    }\n\n    function _preValidatePurchase(address beneficiary, uint256 weiAmount)\n        internal\n        view\n        override\n    {\n        super._preValidatePurchase(beneficiary, weiAmount);\n\n        uint256 tokenAmount = _getTokenAmount(weiAmount);\n\n        if (tokenAmount != 1) {\n            revert TVTVOnlyOne();\n        }\n\n        uint256 balance = _balanceOf(beneficiary);\n\n        if (balance != 0) {\n            revert TVTVAlreadyBought();\n        }\n    }\n}\n",
  "sourcePath": "/Users/ievgencherkaskyi/Projects/tivan/hexagons/contracts/TVTV/TVTVCrowdsale.sol",
  "compiler": {
    "name": "solc",
    "version": "0.8.7+commit.e28d00a7.Emscripten.clang"
  },
  "schemaVersion": "3.3.3",
  "updatedAt": "2022-07-11T22:06:52.811Z",
  "devdoc": {
    "details": "Extension of Crowdsale contract whose tokens are minted in each purchase. Token ownership should be transferred to TVTVCrowdsale for minting.",
    "kind": "dev",
    "methods": {
      "buyTokens(address)": {
        "details": "low level token purchase ***DO NOT OVERRIDE*** This function has a non-reentrancy guard, so it shouldn't be called by another `nonReentrant` function."
      },
      "getRate()": {
        "returns": {
          "_0": "the number of token units a buyer gets per wei."
        }
      },
      "getToken()": {
        "returns": {
          "_0": "the token being sold."
        }
      },
      "getWallet()": {
        "returns": {
          "_0": "the address where funds are collected."
        }
      },
      "getWeiRaised()": {
        "returns": {
          "_0": "the amount of wei raised."
        }
      },
      "owner()": {
        "details": "Returns the address of the current owner."
      },
      "renounceOwnership()": {
        "details": "Leaves the contract without owner. It will not be possible to call `onlyOwner` functions anymore. Can only be called by the current owner. NOTE: Renouncing ownership will leave the contract without an owner, thereby removing any functionality that is only available to the owner."
      },
      "setRate(uint256)": {
        "params": {
          "rate": "Number of token units a buyer gets per wei"
        }
      },
      "transferOwnership(address)": {
        "details": "Transfers ownership of the contract to a new account (`newOwner`). Can only be called by the current owner."
      }
    },
    "title": "TVTVCrowdsale",
    "version": 1
  },
  "userdoc": {
    "events": {
      "AfterCrowdsaleBuyTokens(address,uint256,uint256)": {
        "notice": "Event for token purchase logging"
      }
    },
    "kind": "user",
    "methods": {
      "setRate(uint256)": {
        "notice": "This function set the rate of token"
      }
    },
    "version": 1
  }
}