{
  "contractName": "TVTV",
  "abi": [
    {
      "anonymous": false,
      "inputs": [
        {
          "indexed": true,
          "internalType": "address",
          "name": "owner",
          "type": "address"
        },
        {
          "indexed": true,
          "internalType": "address",
          "name": "approved",
          "type": "address"
        },
        {
          "indexed": true,
          "internalType": "uint256",
          "name": "tokenId",
          "type": "uint256"
        }
      ],
      "name": "Approval",
      "type": "event"
    },
    {
      "anonymous": false,
      "inputs": [
        {
          "indexed": true,
          "internalType": "address",
          "name": "owner",
          "type": "address"
        },
        {
          "indexed": true,
          "internalType": "address",
          "name": "operator",
          "type": "address"
        },
        {
          "indexed": false,
          "internalType": "bool",
          "name": "approved",
          "type": "bool"
        }
      ],
      "name": "ApprovalForAll",
      "type": "event"
    },
    {
      "anonymous": false,
      "inputs": [
        {
          "indexed": false,
          "internalType": "uint8",
          "name": "version",
          "type": "uint8"
        }
      ],
      "name": "Initialized",
      "type": "event"
    },
    {
      "anonymous": false,
      "inputs": [
        {
          "indexed": false,
          "internalType": "address",
          "name": "account",
          "type": "address"
        }
      ],
      "name": "Paused",
      "type": "event"
    },
    {
      "anonymous": false,
      "inputs": [
        {
          "indexed": true,
          "internalType": "bytes32",
          "name": "role",
          "type": "bytes32"
        },
        {
          "indexed": true,
          "internalType": "bytes32",
          "name": "previousAdminRole",
          "type": "bytes32"
        },
        {
          "indexed": true,
          "internalType": "bytes32",
          "name": "newAdminRole",
          "type": "bytes32"
        }
      ],
      "name": "RoleAdminChanged",
      "type": "event"
    },
    {
      "anonymous": false,
      "inputs": [
        {
          "indexed": true,
          "internalType": "bytes32",
          "name": "role",
          "type": "bytes32"
        },
        {
          "indexed": true,
          "internalType": "address",
          "name": "account",
          "type": "address"
        },
        {
          "indexed": true,
          "internalType": "address",
          "name": "sender",
          "type": "address"
        }
      ],
      "name": "RoleGranted",
      "type": "event"
    },
    {
      "anonymous": false,
      "inputs": [
        {
          "indexed": true,
          "internalType": "bytes32",
          "name": "role",
          "type": "bytes32"
        },
        {
          "indexed": true,
          "internalType": "address",
          "name": "account",
          "type": "address"
        },
        {
          "indexed": true,
          "internalType": "address",
          "name": "sender",
          "type": "address"
        }
      ],
      "name": "RoleRevoked",
      "type": "event"
    },
    {
      "anonymous": false,
      "inputs": [
        {
          "indexed": true,
          "internalType": "address",
          "name": "from",
          "type": "address"
        },
        {
          "indexed": true,
          "internalType": "address",
          "name": "to",
          "type": "address"
        },
        {
          "indexed": true,
          "internalType": "uint256",
          "name": "tokenId",
          "type": "uint256"
        }
      ],
      "name": "Transfer",
      "type": "event"
    },
    {
      "anonymous": false,
      "inputs": [
        {
          "indexed": false,
          "internalType": "address",
          "name": "account",
          "type": "address"
        }
      ],
      "name": "Unpaused",
      "type": "event"
    },
    {
      "inputs": [],
      "name": "DEFAULT_ADMIN_ROLE",
      "outputs": [
        {
          "internalType": "bytes32",
          "name": "",
          "type": "bytes32"
        }
      ],
      "stateMutability": "view",
      "type": "function"
    },
    {
      "inputs": [],
      "name": "MINTER_ROLE",
      "outputs": [
        {
          "internalType": "bytes32",
          "name": "",
          "type": "bytes32"
        }
      ],
      "stateMutability": "view",
      "type": "function"
    },
    {
      "inputs": [],
      "name": "PAUSER_ROLE",
      "outputs": [
        {
          "internalType": "bytes32",
          "name": "",
          "type": "bytes32"
        }
      ],
      "stateMutability": "view",
      "type": "function"
    },
    {
      "inputs": [
        {
          "internalType": "address",
          "name": "to",
          "type": "address"
        },
        {
          "internalType": "uint256",
          "name": "tokenId",
          "type": "uint256"
        }
      ],
      "name": "approve",
      "outputs": [],
      "stateMutability": "nonpayable",
      "type": "function"
    },
    {
      "inputs": [
        {
          "internalType": "address",
          "name": "owner",
          "type": "address"
        }
      ],
      "name": "balanceOf",
      "outputs": [
        {
          "internalType": "uint256",
          "name": "",
          "type": "uint256"
        }
      ],
      "stateMutability": "view",
      "type": "function"
    },
    {
      "inputs": [
        {
          "internalType": "uint256",
          "name": "tokenId",
          "type": "uint256"
        }
      ],
      "name": "burn",
      "outputs": [],
      "stateMutability": "nonpayable",
      "type": "function"
    },
    {
      "inputs": [
        {
          "internalType": "uint256",
          "name": "tokenId",
          "type": "uint256"
        }
      ],
      "name": "getApproved",
      "outputs": [
        {
          "internalType": "address",
          "name": "",
          "type": "address"
        }
      ],
      "stateMutability": "view",
      "type": "function"
    },
    {
      "inputs": [
        {
          "internalType": "bytes32",
          "name": "role",
          "type": "bytes32"
        }
      ],
      "name": "getRoleAdmin",
      "outputs": [
        {
          "internalType": "bytes32",
          "name": "",
          "type": "bytes32"
        }
      ],
      "stateMutability": "view",
      "type": "function"
    },
    {
      "inputs": [
        {
          "internalType": "bytes32",
          "name": "role",
          "type": "bytes32"
        },
        {
          "internalType": "uint256",
          "name": "index",
          "type": "uint256"
        }
      ],
      "name": "getRoleMember",
      "outputs": [
        {
          "internalType": "address",
          "name": "",
          "type": "address"
        }
      ],
      "stateMutability": "view",
      "type": "function"
    },
    {
      "inputs": [
        {
          "internalType": "bytes32",
          "name": "role",
          "type": "bytes32"
        }
      ],
      "name": "getRoleMemberCount",
      "outputs": [
        {
          "internalType": "uint256",
          "name": "",
          "type": "uint256"
        }
      ],
      "stateMutability": "view",
      "type": "function"
    },
    {
      "inputs": [
        {
          "internalType": "bytes32",
          "name": "role",
          "type": "bytes32"
        },
        {
          "internalType": "address",
          "name": "account",
          "type": "address"
        }
      ],
      "name": "grantRole",
      "outputs": [],
      "stateMutability": "nonpayable",
      "type": "function"
    },
    {
      "inputs": [
        {
          "internalType": "bytes32",
          "name": "role",
          "type": "bytes32"
        },
        {
          "internalType": "address",
          "name": "account",
          "type": "address"
        }
      ],
      "name": "hasRole",
      "outputs": [
        {
          "internalType": "bool",
          "name": "",
          "type": "bool"
        }
      ],
      "stateMutability": "view",
      "type": "function"
    },
    {
      "inputs": [
        {
          "internalType": "string",
          "name": "name",
          "type": "string"
        },
        {
          "internalType": "string",
          "name": "symbol",
          "type": "string"
        },
        {
          "internalType": "string",
          "name": "baseTokenURI",
          "type": "string"
        }
      ],
      "name": "initialize",
      "outputs": [],
      "stateMutability": "nonpayable",
      "type": "function"
    },
    {
      "inputs": [
        {
          "internalType": "address",
          "name": "owner",
          "type": "address"
        },
        {
          "internalType": "address",
          "name": "operator",
          "type": "address"
        }
      ],
      "name": "isApprovedForAll",
      "outputs": [
        {
          "internalType": "bool",
          "name": "",
          "type": "bool"
        }
      ],
      "stateMutability": "view",
      "type": "function"
    },
    {
      "inputs": [
        {
          "internalType": "address",
          "name": "to",
          "type": "address"
        }
      ],
      "name": "mint",
      "outputs": [],
      "stateMutability": "nonpayable",
      "type": "function"
    },
    {
      "inputs": [],
      "name": "name",
      "outputs": [
        {
          "internalType": "string",
          "name": "",
          "type": "string"
        }
      ],
      "stateMutability": "view",
      "type": "function"
    },
    {
      "inputs": [
        {
          "internalType": "uint256",
          "name": "tokenId",
          "type": "uint256"
        }
      ],
      "name": "ownerOf",
      "outputs": [
        {
          "internalType": "address",
          "name": "",
          "type": "address"
        }
      ],
      "stateMutability": "view",
      "type": "function"
    },
    {
      "inputs": [],
      "name": "pause",
      "outputs": [],
      "stateMutability": "nonpayable",
      "type": "function"
    },
    {
      "inputs": [],
      "name": "paused",
      "outputs": [
        {
          "internalType": "bool",
          "name": "",
          "type": "bool"
        }
      ],
      "stateMutability": "view",
      "type": "function"
    },
    {
      "inputs": [
        {
          "internalType": "bytes32",
          "name": "role",
          "type": "bytes32"
        },
        {
          "internalType": "address",
          "name": "account",
          "type": "address"
        }
      ],
      "name": "renounceRole",
      "outputs": [],
      "stateMutability": "nonpayable",
      "type": "function"
    },
    {
      "inputs": [
        {
          "internalType": "bytes32",
          "name": "role",
          "type": "bytes32"
        },
        {
          "internalType": "address",
          "name": "account",
          "type": "address"
        }
      ],
      "name": "revokeRole",
      "outputs": [],
      "stateMutability": "nonpayable",
      "type": "function"
    },
    {
      "inputs": [
        {
          "internalType": "address",
          "name": "from",
          "type": "address"
        },
        {
          "internalType": "address",
          "name": "to",
          "type": "address"
        },
        {
          "internalType": "uint256",
          "name": "tokenId",
          "type": "uint256"
        }
      ],
      "name": "safeTransferFrom",
      "outputs": [],
      "stateMutability": "nonpayable",
      "type": "function"
    },
    {
      "inputs": [
        {
          "internalType": "address",
          "name": "from",
          "type": "address"
        },
        {
          "internalType": "address",
          "name": "to",
          "type": "address"
        },
        {
          "internalType": "uint256",
          "name": "tokenId",
          "type": "uint256"
        },
        {
          "internalType": "bytes",
          "name": "_data",
          "type": "bytes"
        }
      ],
      "name": "safeTransferFrom",
      "outputs": [],
      "stateMutability": "nonpayable",
      "type": "function"
    },
    {
      "inputs": [
        {
          "internalType": "address",
          "name": "operator",
          "type": "address"
        },
        {
          "internalType": "bool",
          "name": "approved",
          "type": "bool"
        }
      ],
      "name": "setApprovalForAll",
      "outputs": [],
      "stateMutability": "nonpayable",
      "type": "function"
    },
    {
      "inputs": [
        {
          "internalType": "bytes4",
          "name": "interfaceId",
          "type": "bytes4"
        }
      ],
      "name": "supportsInterface",
      "outputs": [
        {
          "internalType": "bool",
          "name": "",
          "type": "bool"
        }
      ],
      "stateMutability": "view",
      "type": "function"
    },
    {
      "inputs": [],
      "name": "symbol",
      "outputs": [
        {
          "internalType": "string",
          "name": "",
          "type": "string"
        }
      ],
      "stateMutability": "view",
      "type": "function"
    },
    {
      "inputs": [
        {
          "internalType": "uint256",
          "name": "index",
          "type": "uint256"
        }
      ],
      "name": "tokenByIndex",
      "outputs": [
        {
          "internalType": "uint256",
          "name": "",
          "type": "uint256"
        }
      ],
      "stateMutability": "view",
      "type": "function"
    },
    {
      "inputs": [
        {
          "internalType": "address",
          "name": "owner",
          "type": "address"
        },
        {
          "internalType": "uint256",
          "name": "index",
          "type": "uint256"
        }
      ],
      "name": "tokenOfOwnerByIndex",
      "outputs": [
        {
          "internalType": "uint256",
          "name": "",
          "type": "uint256"
        }
      ],
      "stateMutability": "view",
      "type": "function"
    },
    {
      "inputs": [
        {
          "internalType": "uint256",
          "name": "tokenId",
          "type": "uint256"
        }
      ],
      "name": "tokenURI",
      "outputs": [
        {
          "internalType": "string",
          "name": "",
          "type": "string"
        }
      ],
      "stateMutability": "view",
      "type": "function"
    },
    {
      "inputs": [],
      "name": "totalSupply",
      "outputs": [
        {
          "internalType": "uint256",
          "name": "",
          "type": "uint256"
        }
      ],
      "stateMutability": "view",
      "type": "function"
    },
    {
      "inputs": [
        {
          "internalType": "address",
          "name": "from",
          "type": "address"
        },
        {
          "internalType": "address",
          "name": "to",
          "type": "address"
        },
        {
          "internalType": "uint256",
          "name": "tokenId",
          "type": "uint256"
        }
      ],
      "name": "transferFrom",
      "outputs": [],
      "stateMutability": "nonpayable",
      "type": "function"
    },
    {
      "inputs": [],
      "name": "unpause",
      "outputs": [],
      "stateMutability": "nonpayable",
      "type": "function"
    },
    {
      "inputs": [
        {
          "internalType": "string",
          "name": "name",
          "type": "string"
        },
        {
          "internalType": "string",
          "name": "symbol",
          "type": "string"
        },
        {
          "internalType": "string",
          "name": "baseTokenURI",
          "type": "string"
        }
      ],
      "name": "__TVTV_init",
      "outputs": [],
      "stateMutability": "nonpayable",
      "type": "function"
    }
  ],
  "bytecode": "0x608060405234801561001057600080fd5b50612a36806100206000396000f3fe608060405234801561001057600080fd5b50600436106101fb5760003560e01c80636352211e1161011a578063a22cb465116100ad578063ca15c8731161007c578063ca15c8731461040e578063d539139314610421578063d547741f14610448578063e63ab1e91461045b578063e985e9c51461047057600080fd5b8063a22cb465146103d5578063a6487c5314610306578063b88d4fde146103e8578063c87b56dd146103fb57600080fd5b80639010d07c116100e95780639010d07c1461039f57806391d14854146103b257806395d89b41146103c5578063a217fddf146103cd57600080fd5b80636352211e1461035e5780636a6278421461037157806370a08231146103845780638456cb591461039757600080fd5b80632f745c591161019257806342842e0e1161016157806342842e0e1461031957806342966c681461032c5780634f6ccce71461033f5780635c975abb1461035257600080fd5b80632f745c59146102d857806336568abe146102eb5780633f4ba83a146102fe57806341f213d31461030657600080fd5b806318160ddd116101ce57806318160ddd1461027d57806323b872dd1461028f578063248a9ca3146102a25780632f2ff15d146102c557600080fd5b806301ffc9a71461020057806306fdde0314610228578063081812fc1461023d578063095ea7b314610268575b600080fd5b61021361020e36600461252f565b6104ac565b60405190151581526020015b60405180910390f35b6102306104bd565b60405161021f91906126fe565b61025061024b3660046124d1565b61054f565b6040516001600160a01b03909116815260200161021f565b61027b6102763660046124a7565b6105e9565b005b60fd545b60405190815260200161021f565b61027b61029d3660046123b3565b6106ff565b6102816102b03660046124d1565b60009081526065602052604090206001015490565b61027b6102d33660046124ea565b610731565b6102816102e63660046124a7565b610756565b61027b6102f93660046124ea565b6107ec565b61027b61086a565b61027b610314366004612569565b610900565b61027b6103273660046123b3565b61097b565b61027b61033a3660046124d1565b610996565b61028161034d3660046124d1565b610a10565b61015f5460ff16610213565b61025061036c3660046124d1565b610aa3565b61027b61037f366004612365565b610b1a565b610281610392366004612365565b610bd8565b61027b610c5f565b6102506103ad36600461250d565b610cf1565b6102136103c03660046124ea565b610d10565b610230610d3b565b610281600081565b61027b6103e336600461246b565b610d4a565b61027b6103f63660046123ef565b610d55565b6102306104093660046124d1565b610d87565b61028161041c3660046124d1565b610e61565b6102817f9f2df0fed2c77648de5860a4cc508cd0818c85b8b8a1ab4ceeef8d981c8956a681565b61027b6104563660046124ea565b610e78565b6102816000805160206129e183398151915281565b61021361047e366004612380565b6001600160a01b03918216600090815260ce6020908152604080832093909416825291909152205460ff1690565b60006104b782610e9d565b92915050565b606060c980546104cc906128f2565b80601f01602080910402602001604051908101604052809291908181526020018280546104f8906128f2565b80156105455780601f1061051a57610100808354040283529160200191610545565b820191906000526020600020905b81548152906001019060200180831161052857829003601f168201915b5050505050905090565b600081815260cb60205260408120546001600160a01b03166105cd5760405162461bcd60e51b815260206004820152602c60248201527f4552433732313a20617070726f76656420717565727920666f72206e6f6e657860448201526b34b9ba32b73a103a37b5b2b760a11b60648201526084015b60405180910390fd5b50600090815260cd60205260409020546001600160a01b031690565b60006105f482610aa3565b9050806001600160a01b0316836001600160a01b031614156106625760405162461bcd60e51b815260206004820152602160248201527f4552433732313a20617070726f76616c20746f2063757272656e74206f776e656044820152603960f91b60648201526084016105c4565b336001600160a01b038216148061067e575061067e813361047e565b6106f05760405162461bcd60e51b815260206004820152603860248201527f4552433732313a20617070726f76652063616c6c6572206973206e6f74206f7760448201527f6e6572206e6f7220617070726f76656420666f7220616c6c000000000000000060648201526084016105c4565b6106fa8383610ec2565b505050565b61070a335b82610f30565b6107265760405162461bcd60e51b81526004016105c4906127b1565b6106fa838383611027565b60008281526065602052604090206001015461074c816111ce565b6106fa83836111d8565b600061076183610bd8565b82106107c35760405162461bcd60e51b815260206004820152602b60248201527f455243373231456e756d657261626c653a206f776e657220696e646578206f7560448201526a74206f6620626f756e647360a81b60648201526084016105c4565b506001600160a01b0391909116600090815260fb60209081526040808320938352929052205490565b6001600160a01b038116331461085c5760405162461bcd60e51b815260206004820152602f60248201527f416363657373436f6e74726f6c3a2063616e206f6e6c792072656e6f756e636560448201526e103937b632b9903337b91039b2b63360891b60648201526084016105c4565b61086682826111fa565b5050565b6108826000805160206129e183398151915233610d10565b6108f6576040805162461bcd60e51b81526020600482015260248101919091527f4552433732315072657365744d696e7465725061757365724175746f49643a2060448201527f6d75737420686176652070617573657220726f6c6520746f20756e706175736560648201526084016105c4565b6108fe61121c565b565b600061090c60016112b1565b90508015610924576000805461ff0019166101001790555b61092f84848461133e565b8015610975576000805461ff0019169055604051600181527f7f26b83ff96e1f2b6a682f133852f6798a09c465da95921460cefb38474024989060200160405180910390a15b50505050565b6106fa83838360405180602001604052806000815250610d55565b61099f33610704565b610a045760405162461bcd60e51b815260206004820152603060248201527f4552433732314275726e61626c653a2063616c6c6572206973206e6f74206f7760448201526f1b995c881b9bdc88185c1c1c9bdd995960821b60648201526084016105c4565b610a0d81611382565b50565b6000610a1b60fd5490565b8210610a7e5760405162461bcd60e51b815260206004820152602c60248201527f455243373231456e756d657261626c653a20676c6f62616c20696e646578206f60448201526b7574206f6620626f756e647360a01b60648201526084016105c4565b60fd8281548110610a9157610a9161299e565b90600052602060002001549050919050565b600081815260cb60205260408120546001600160a01b0316806104b75760405162461bcd60e51b815260206004820152602960248201527f4552433732313a206f776e657220717565727920666f72206e6f6e657869737460448201526832b73a103a37b5b2b760b91b60648201526084016105c4565b610b447f9f2df0fed2c77648de5860a4cc508cd0818c85b8b8a1ab4ceeef8d981c8956a633610d10565b610bb65760405162461bcd60e51b815260206004820152603d60248201527f4552433732315072657365744d696e7465725061757365724175746f49643a2060448201527f6d7573742068617665206d696e74657220726f6c6520746f206d696e7400000060648201526084016105c4565b610bc981610bc46101c35490565b611429565b610a0d6101c380546001019055565b60006001600160a01b038216610c435760405162461bcd60e51b815260206004820152602a60248201527f4552433732313a2062616c616e636520717565727920666f7220746865207a65604482015269726f206164647265737360b01b60648201526084016105c4565b506001600160a01b0316600090815260cc602052604090205490565b610c776000805160206129e183398151915233610d10565b610ce95760405162461bcd60e51b815260206004820152603e60248201527f4552433732315072657365744d696e7465725061757365724175746f49643a2060448201527f6d75737420686176652070617573657220726f6c6520746f207061757365000060648201526084016105c4565b6108fe611577565b6000828152609760205260408120610d0990836115f4565b9392505050565b60009182526065602090815260408084206001600160a01b0393909316845291905290205460ff1690565b606060ca80546104cc906128f2565b610866338383611600565b610d5f3383610f30565b610d7b5760405162461bcd60e51b81526004016105c4906127b1565b610975848484846116cf565b600081815260cb60205260409020546060906001600160a01b0316610e065760405162461bcd60e51b815260206004820152602f60248201527f4552433732314d657461646174613a2055524920717565727920666f72206e6f60448201526e3732bc34b9ba32b73a103a37b5b2b760891b60648201526084016105c4565b6000610e10611702565b90506000815111610e305760405180602001604052806000815250610d09565b80610e3a84611712565b604051602001610e4b92919061261d565b6040516020818303038152906040529392505050565b60008181526097602052604081206104b790611810565b600082815260656020526040902060010154610e93816111ce565b6106fa83836111fa565b60006001600160e01b0319821663780e9d6360e01b14806104b757506104b78261181a565b600081815260cd6020526040902080546001600160a01b0319166001600160a01b0384169081179091558190610ef782610aa3565b6001600160a01b03167f8c5be1e5ebec7d5bd14f71427d1e84f3dd0314c0f7b2291e5b200ac8c7c3b92560405160405180910390a45050565b600081815260cb60205260408120546001600160a01b0316610fa95760405162461bcd60e51b815260206004820152602c60248201527f4552433732313a206f70657261746f7220717565727920666f72206e6f6e657860448201526b34b9ba32b73a103a37b5b2b760a11b60648201526084016105c4565b6000610fb483610aa3565b9050806001600160a01b0316846001600160a01b03161480610ffb57506001600160a01b03808216600090815260ce602090815260408083209388168352929052205460ff165b8061101f5750836001600160a01b03166110148461054f565b6001600160a01b0316145b949350505050565b826001600160a01b031661103a82610aa3565b6001600160a01b03161461109e5760405162461bcd60e51b815260206004820152602560248201527f4552433732313a207472616e736665722066726f6d20696e636f72726563742060448201526437bbb732b960d91b60648201526084016105c4565b6001600160a01b0382166111005760405162461bcd60e51b8152602060048201526024808201527f4552433732313a207472616e7366657220746f20746865207a65726f206164646044820152637265737360e01b60648201526084016105c4565b61110b83838361185a565b611116600082610ec2565b6001600160a01b038316600090815260cc6020526040812080546001929061113f908490612898565b90915550506001600160a01b038216600090815260cc6020526040812080546001929061116d90849061284d565b9091555050600081815260cb602052604080822080546001600160a01b0319166001600160a01b0386811691821790925591518493918716917fddf252ad1be2c89b69c2b068fc378daa952ba7f163c4a11628f55a4df523b3ef91a4505050565b610a0d8133611865565b6111e282826118c9565b60008281526097602052604090206106fa908261194f565b6112048282611964565b60008281526097602052604090206106fa90826119cb565b61015f5460ff166112665760405162461bcd60e51b815260206004820152601460248201527314185d5cd8589b194e881b9bdd081c185d5cd95960621b60448201526064016105c4565b61015f805460ff191690557f5db9ee0a495bf2e6ff9c91a7834c1ba4fdd244a5e8aa4e537bd38aeae4b073aa335b6040516001600160a01b03909116815260200160405180910390a1565b60008054610100900460ff16156112f8578160ff1660011480156112d45750303b155b6112f05760405162461bcd60e51b81526004016105c490612763565b506000919050565b60005460ff80841691161061131f5760405162461bcd60e51b81526004016105c490612763565b506000805460ff191660ff92909216919091179055600190565b919050565b600054610100900460ff166113655760405162461bcd60e51b81526004016105c490612802565b61136f83836119e0565b611377611a2e565b6106fa838383611a62565b600061138d82610aa3565b905061139b8160008461185a565b6113a6600083610ec2565b6001600160a01b038116600090815260cc602052604081208054600192906113cf908490612898565b9091555050600082815260cb602052604080822080546001600160a01b0319169055518391906001600160a01b038416907fddf252ad1be2c89b69c2b068fc378daa952ba7f163c4a11628f55a4df523b3ef908390a45050565b6001600160a01b03821661147f5760405162461bcd60e51b815260206004820181905260248201527f4552433732313a206d696e7420746f20746865207a65726f206164647265737360448201526064016105c4565b600081815260cb60205260409020546001600160a01b0316156114e45760405162461bcd60e51b815260206004820152601c60248201527f4552433732313a20746f6b656e20616c7265616479206d696e7465640000000060448201526064016105c4565b6114f06000838361185a565b6001600160a01b038216600090815260cc6020526040812080546001929061151990849061284d565b9091555050600081815260cb602052604080822080546001600160a01b0319166001600160a01b03861690811790915590518392907fddf252ad1be2c89b69c2b068fc378daa952ba7f163c4a11628f55a4df523b3ef908290a45050565b61015f5460ff16156115be5760405162461bcd60e51b815260206004820152601060248201526f14185d5cd8589b194e881c185d5cd95960821b60448201526064016105c4565b61015f805460ff191660011790557f62e78cea01bee320cd4e420270b5ea74000d11b0c9f74754ebdbfc544b05a2586112943390565b6000610d098383611aeb565b816001600160a01b0316836001600160a01b031614156116625760405162461bcd60e51b815260206004820152601960248201527f4552433732313a20617070726f766520746f2063616c6c65720000000000000060448201526064016105c4565b6001600160a01b03838116600081815260ce6020908152604080832094871680845294825291829020805460ff191686151590811790915591519182527f17307eab39ab6107e8899845ad3d59bd9653f200f220920489ca2b5937696c31910160405180910390a3505050565b6116da848484611027565b6116e684848484611b15565b6109755760405162461bcd60e51b81526004016105c490612711565b60606101c480546104cc906128f2565b6060816117365750506040805180820190915260018152600360fc1b602082015290565b8160005b8115611760578061174a8161292d565b91506117599050600a83612865565b915061173a565b60008167ffffffffffffffff81111561177b5761177b6129b4565b6040519080825280601f01601f1916602001820160405280156117a5576020820181803683370190505b5090505b841561101f576117ba600183612898565b91506117c7600a86612948565b6117d290603061284d565b60f81b8183815181106117e7576117e761299e565b60200101906001600160f81b031916908160001a905350611809600a86612865565b94506117a9565b60006104b7825490565b60006001600160e01b031982166380ac58cd60e01b148061184b57506001600160e01b03198216635b5e139f60e01b145b806104b757506104b782611c22565b6106fa838383611c47565b61186f8282610d10565b61086657611887816001600160a01b03166014611cba565b611892836020611cba565b6040516020016118a392919061264c565b60408051601f198184030181529082905262461bcd60e51b82526105c4916004016126fe565b6118d38282610d10565b6108665760008281526065602090815260408083206001600160a01b03851684529091529020805460ff1916600117905561190b3390565b6001600160a01b0316816001600160a01b0316837f2f8788117e7eff1d82e926ec794901d17c78024a50270940304540a733656f0d60405160405180910390a45050565b6000610d09836001600160a01b038416611e56565b61196e8282610d10565b156108665760008281526065602090815260408083206001600160a01b0385168085529252808320805460ff1916905551339285917ff6391f5c32d9c69d2a47ea670b442974b53935d1edc7fd64eb21e047a839171b9190a45050565b6000610d09836001600160a01b038416611ea5565b600054610100900460ff16611a075760405162461bcd60e51b81526004016105c490612802565b8151611a1a9060c990602085019061221f565b5080516106fa9060ca90602084019061221f565b600054610100900460ff16611a555760405162461bcd60e51b81526004016105c490612802565b61015f805460ff19169055565b600054610100900460ff16611a895760405162461bcd60e51b81526004016105c490612802565b8051611a9d906101c490602084019061221f565b50611aa9600033611f98565b611ad37f9f2df0fed2c77648de5860a4cc508cd0818c85b8b8a1ab4ceeef8d981c8956a633611f98565b6106fa6000805160206129e183398151915233611f98565b6000826000018281548110611b0257611b0261299e565b9060005260206000200154905092915050565b60006001600160a01b0384163b15611c1757604051630a85bd0160e11b81526001600160a01b0385169063150b7a0290611b599033908990889088906004016126c1565b602060405180830381600087803b158015611b7357600080fd5b505af1925050508015611ba3575060408051601f3d908101601f19168201909252611ba09181019061254c565b60015b611bfd573d808015611bd1576040519150601f19603f3d011682016040523d82523d6000602084013e611bd6565b606091505b508051611bf55760405162461bcd60e51b81526004016105c490612711565b805181602001fd5b6001600160e01b031916630a85bd0160e11b14905061101f565b506001949350505050565b60006001600160e01b03198216635a05180f60e01b14806104b757506104b782611fa2565b611c52838383611fd7565b61015f5460ff16156106fa5760405162461bcd60e51b815260206004820152602b60248201527f4552433732315061757361626c653a20746f6b656e207472616e73666572207760448201526a1a1a5b19481c185d5cd95960aa1b60648201526084016105c4565b60606000611cc9836002612879565b611cd490600261284d565b67ffffffffffffffff811115611cec57611cec6129b4565b6040519080825280601f01601f191660200182016040528015611d16576020820181803683370190505b509050600360fc1b81600081518110611d3157611d3161299e565b60200101906001600160f81b031916908160001a905350600f60fb1b81600181518110611d6057611d6061299e565b60200101906001600160f81b031916908160001a9053506000611d84846002612879565b611d8f90600161284d565b90505b6001811115611e07576f181899199a1a9b1b9c1cb0b131b232b360811b85600f1660108110611dc357611dc361299e565b1a60f81b828281518110611dd957611dd961299e565b60200101906001600160f81b031916908160001a90535060049490941c93611e00816128db565b9050611d92565b508315610d095760405162461bcd60e51b815260206004820181905260248201527f537472696e67733a20686578206c656e67746820696e73756666696369656e7460448201526064016105c4565b6000818152600183016020526040812054611e9d575081546001818101845560008481526020808220909301849055845484825282860190935260409020919091556104b7565b5060006104b7565b60008181526001830160205260408120548015611f8e576000611ec9600183612898565b8554909150600090611edd90600190612898565b9050818114611f42576000866000018281548110611efd57611efd61299e565b9060005260206000200154905080876000018481548110611f2057611f2061299e565b6000918252602080832090910192909255918252600188019052604090208390555b8554869080611f5357611f53612988565b6001900381819060005260206000200160009055905585600101600086815260200190815260200160002060009055600193505050506104b7565b60009150506104b7565b61086682826111d8565b60006001600160e01b03198216637965db0b60e01b14806104b757506301ffc9a760e01b6001600160e01b03198316146104b7565b6001600160a01b0383166120325761202d8160fd8054600083815260fe60205260408120829055600182018355919091527f9346ac6dd7de6b96975fec380d4d994c4c12e6a8897544f22915316cc6cca2800155565b612055565b816001600160a01b0316836001600160a01b03161461205557612055838261208f565b6001600160a01b03821661206c576106fa8161212c565b826001600160a01b0316826001600160a01b0316146106fa576106fa82826121db565b6000600161209c84610bd8565b6120a69190612898565b600083815260fc60205260409020549091508082146120f9576001600160a01b038416600090815260fb60209081526040808320858452825280832054848452818420819055835260fc90915290208190555b50600091825260fc602090815260408084208490556001600160a01b03909416835260fb81528383209183525290812055565b60fd5460009061213e90600190612898565b600083815260fe602052604081205460fd80549394509092849081106121665761216661299e565b906000526020600020015490508060fd83815481106121875761218761299e565b600091825260208083209091019290925582815260fe909152604080822084905585825281205560fd8054806121bf576121bf612988565b6001900381819060005260206000200160009055905550505050565b60006121e683610bd8565b6001600160a01b03909316600090815260fb60209081526040808320868452825280832085905593825260fc9052919091209190915550565b82805461222b906128f2565b90600052602060002090601f01602090048101928261224d5760008555612293565b82601f1061226657805160ff1916838001178555612293565b82800160010185558215612293579182015b82811115612293578251825591602001919060010190612278565b5061229f9291506122a3565b5090565b5b8082111561229f57600081556001016122a4565b600067ffffffffffffffff808411156122d3576122d36129b4565b604051601f8501601f19908116603f011681019082821181831017156122fb576122fb6129b4565b8160405280935085815286868601111561231457600080fd5b858560208301376000602087830101525050509392505050565b80356001600160a01b038116811461133957600080fd5b600082601f83011261235657600080fd5b610d09838335602085016122b8565b60006020828403121561237757600080fd5b610d098261232e565b6000806040838503121561239357600080fd5b61239c8361232e565b91506123aa6020840161232e565b90509250929050565b6000806000606084860312156123c857600080fd5b6123d18461232e565b92506123df6020850161232e565b9150604084013590509250925092565b6000806000806080858703121561240557600080fd5b61240e8561232e565b935061241c6020860161232e565b925060408501359150606085013567ffffffffffffffff81111561243f57600080fd5b8501601f8101871361245057600080fd5b61245f878235602084016122b8565b91505092959194509250565b6000806040838503121561247e57600080fd5b6124878361232e565b91506020830135801515811461249c57600080fd5b809150509250929050565b600080604083850312156124ba57600080fd5b6124c38361232e565b946020939093013593505050565b6000602082840312156124e357600080fd5b5035919050565b600080604083850312156124fd57600080fd5b823591506123aa6020840161232e565b6000806040838503121561252057600080fd5b50508035926020909101359150565b60006020828403121561254157600080fd5b8135610d09816129ca565b60006020828403121561255e57600080fd5b8151610d09816129ca565b60008060006060848603121561257e57600080fd5b833567ffffffffffffffff8082111561259657600080fd5b6125a287838801612345565b945060208601359150808211156125b857600080fd5b6125c487838801612345565b935060408601359150808211156125da57600080fd5b506125e786828701612345565b9150509250925092565b600081518084526126098160208601602086016128af565b601f01601f19169290920160200192915050565b6000835161262f8184602088016128af565b8351908301906126438183602088016128af565b01949350505050565b7f416363657373436f6e74726f6c3a206163636f756e74200000000000000000008152600083516126848160178501602088016128af565b7001034b99036b4b9b9b4b733903937b6329607d1b60179184019182015283516126b58160288401602088016128af565b01602801949350505050565b6001600160a01b03858116825284166020820152604081018390526080606082018190526000906126f4908301846125f1565b9695505050505050565b602081526000610d0960208301846125f1565b60208082526032908201527f4552433732313a207472616e7366657220746f206e6f6e20455243373231526560408201527131b2b4bb32b91034b6b83632b6b2b73a32b960711b606082015260800190565b6020808252602e908201527f496e697469616c697a61626c653a20636f6e747261637420697320616c72656160408201526d191e481a5b9a5d1a585b1a5e995960921b606082015260800190565b60208082526031908201527f4552433732313a207472616e736665722063616c6c6572206973206e6f74206f6040820152701ddb995c881b9bdc88185c1c1c9bdd9959607a1b606082015260800190565b6020808252602b908201527f496e697469616c697a61626c653a20636f6e7472616374206973206e6f74206960408201526a6e697469616c697a696e6760a81b606082015260800190565b600082198211156128605761286061295c565b500190565b60008261287457612874612972565b500490565b60008160001904831182151516156128935761289361295c565b500290565b6000828210156128aa576128aa61295c565b500390565b60005b838110156128ca5781810151838201526020016128b2565b838111156109755750506000910152565b6000816128ea576128ea61295c565b506000190190565b600181811c9082168061290657607f821691505b6020821081141561292757634e487b7160e01b600052602260045260246000fd5b50919050565b60006000198214156129415761294161295c565b5060010190565b60008261295757612957612972565b500690565b634e487b7160e01b600052601160045260246000fd5b634e487b7160e01b600052601260045260246000fd5b634e487b7160e01b600052603160045260246000fd5b634e487b7160e01b600052603260045260246000fd5b634e487b7160e01b600052604160045260246000fd5b6001600160e01b031981168114610a0d57600080fdfe65d7a28e3265b37a6474929f336521b332c1681b933f6cb9f3376673440d862aa2646970667358221220271958aac31e2bdfb98c84ffd639302ac7ce0f9c86e25e6890309c4e5a49e3ce64736f6c63430008070033",
  "immutableReferences": {},
  "source": "// SPDX-License-Identifier: MIT\npragma solidity 0.8.7;\n\nimport \"@openzeppelin/contracts-upgradeable/token/ERC721/presets/ERC721PresetMinterPauserAutoIdUpgradeable.sol\";\n\ncontract TVTV is ERC721PresetMinterPauserAutoIdUpgradeable {\n    function __TVTV_init(\n        string memory name,\n        string memory symbol,\n        string memory baseTokenURI\n    ) public initializer {\n        __ERC721PresetMinterPauserAutoId_init(name, symbol, baseTokenURI);\n    }\n}\n",
  "sourcePath": "/Users/ievgencherkaskyi/Projects/tivan/hexagons/contracts/TVTV/TVTV.sol",
  "compiler": {
    "name": "solc",
    "version": "0.8.7+commit.e28d00a7.Emscripten.clang"
  },
  "schemaVersion": "3.3.3",
  "updatedAt": "2022-07-17T22:08:55.215Z",
  "devdoc": {
    "kind": "dev",
    "methods": {
      "approve(address,uint256)": {
        "details": "See {IERC721-approve}."
      },
      "balanceOf(address)": {
        "details": "See {IERC721-balanceOf}."
      },
      "burn(uint256)": {
        "details": "Burns `tokenId`. See {ERC721-_burn}. Requirements: - The caller must own `tokenId` or be an approved operator."
      },
      "getApproved(uint256)": {
        "details": "See {IERC721-getApproved}."
      },
      "getRoleAdmin(bytes32)": {
        "details": "Returns the admin role that controls `role`. See {grantRole} and {revokeRole}. To change a role's admin, use {_setRoleAdmin}."
      },
      "getRoleMember(bytes32,uint256)": {
        "details": "Returns one of the accounts that have `role`. `index` must be a value between 0 and {getRoleMemberCount}, non-inclusive. Role bearers are not sorted in any particular way, and their ordering may change at any point. WARNING: When using {getRoleMember} and {getRoleMemberCount}, make sure you perform all queries on the same block. See the following https://forum.openzeppelin.com/t/iterating-over-elements-on-enumerableset-in-openzeppelin-contracts/2296[forum post] for more information."
      },
      "getRoleMemberCount(bytes32)": {
        "details": "Returns the number of accounts that have `role`. Can be used together with {getRoleMember} to enumerate all bearers of a role."
      },
      "grantRole(bytes32,address)": {
        "details": "Grants `role` to `account`. If `account` had not been already granted `role`, emits a {RoleGranted} event. Requirements: - the caller must have ``role``'s admin role."
      },
      "hasRole(bytes32,address)": {
        "details": "Returns `true` if `account` has been granted `role`."
      },
      "isApprovedForAll(address,address)": {
        "details": "See {IERC721-isApprovedForAll}."
      },
      "mint(address)": {
        "details": "Creates a new token for `to`. Its token ID will be automatically assigned (and available on the emitted {IERC721-Transfer} event), and the token URI autogenerated based on the base URI passed at construction. See {ERC721-_mint}. Requirements: - the caller must have the `MINTER_ROLE`."
      },
      "name()": {
        "details": "See {IERC721Metadata-name}."
      },
      "ownerOf(uint256)": {
        "details": "See {IERC721-ownerOf}."
      },
      "pause()": {
        "details": "Pauses all token transfers. See {ERC721Pausable} and {Pausable-_pause}. Requirements: - the caller must have the `PAUSER_ROLE`."
      },
      "paused()": {
        "details": "Returns true if the contract is paused, and false otherwise."
      },
      "renounceRole(bytes32,address)": {
        "details": "Revokes `role` from the calling account. Roles are often managed via {grantRole} and {revokeRole}: this function's purpose is to provide a mechanism for accounts to lose their privileges if they are compromised (such as when a trusted device is misplaced). If the calling account had been revoked `role`, emits a {RoleRevoked} event. Requirements: - the caller must be `account`."
      },
      "revokeRole(bytes32,address)": {
        "details": "Revokes `role` from `account`. If `account` had been granted `role`, emits a {RoleRevoked} event. Requirements: - the caller must have ``role``'s admin role."
      },
      "safeTransferFrom(address,address,uint256)": {
        "details": "See {IERC721-safeTransferFrom}."
      },
      "safeTransferFrom(address,address,uint256,bytes)": {
        "details": "See {IERC721-safeTransferFrom}."
      },
      "setApprovalForAll(address,bool)": {
        "details": "See {IERC721-setApprovalForAll}."
      },
      "supportsInterface(bytes4)": {
        "details": "See {IERC165-supportsInterface}."
      },
      "symbol()": {
        "details": "See {IERC721Metadata-symbol}."
      },
      "tokenByIndex(uint256)": {
        "details": "See {IERC721Enumerable-tokenByIndex}."
      },
      "tokenOfOwnerByIndex(address,uint256)": {
        "details": "See {IERC721Enumerable-tokenOfOwnerByIndex}."
      },
      "tokenURI(uint256)": {
        "details": "See {IERC721Metadata-tokenURI}."
      },
      "totalSupply()": {
        "details": "See {IERC721Enumerable-totalSupply}."
      },
      "transferFrom(address,address,uint256)": {
        "details": "See {IERC721-transferFrom}."
      },
      "unpause()": {
        "details": "Unpauses all token transfers. See {ERC721Pausable} and {Pausable-_unpause}. Requirements: - the caller must have the `PAUSER_ROLE`."
      }
    },
    "version": 1
  },
  "userdoc": {
    "kind": "user",
    "methods": {},
    "version": 1
  }
}