{
  "contractName": "User",
  "abi": [
    {
      "anonymous": false,
      "inputs": [
        {
          "indexed": false,
          "internalType": "uint8",
          "name": "version",
          "type": "uint8"
        }
      ],
      "name": "Initialized",
      "type": "event"
    },
    {
      "inputs": [
        {
          "internalType": "contract Wallet",
          "name": "wallet",
          "type": "address"
        }
      ],
      "name": "__User_init",
      "outputs": [],
      "stateMutability": "nonpayable",
      "type": "function"
    },
    {
      "inputs": [],
      "name": "getProfile",
      "outputs": [
        {
          "components": [
            {
              "internalType": "string",
              "name": "username",
              "type": "string"
            }
          ],
          "internalType": "struct User.Profile",
          "name": "profile",
          "type": "tuple"
        }
      ],
      "stateMutability": "view",
      "type": "function"
    },
    {
      "inputs": [],
      "name": "getWallet",
      "outputs": [
        {
          "internalType": "contract Wallet",
          "name": "",
          "type": "address"
        }
      ],
      "stateMutability": "view",
      "type": "function"
    },
    {
      "inputs": [
        {
          "internalType": "string",
          "name": "username",
          "type": "string"
        }
      ],
      "name": "setUsername",
      "outputs": [],
      "stateMutability": "payable",
      "type": "function"
    }
  ],
  "bytecode": "0x608060405234801561001057600080fd5b5061079c806100206000396000f3fe60806040526004361061003f5760003560e01c806313299604146100445780631af8bc9914610071578063d6afc9b114610093578063ed59313a146100b5575b600080fd5b34801561005057600080fd5b506035546040516001600160a01b0390911681526020015b60405180910390f35b34801561007d57600080fd5b5061009161008c366004610554565b6100c8565b005b34801561009f57600080fd5b506100a8610159565b6040516100689190610695565b6100916100c336600461057d565b610217565b60006100d4600161039d565b905080156100ec576000805461ff0019166101001790555b6100f4610425565b603580546001600160a01b0319166001600160a01b0384161790558015610155576000805461ff0019169055604051600181527f7f26b83ff96e1f2b6a682f133852f6798a09c465da95921460cefb38474024989060200160405180910390a15b5050565b6040805160208082018352606082523360009081526033825283902083519182019093528254919290918290829061019090610715565b80601f01602080910402602001604051908101604052809291908181526020018280546101bc90610715565b80156102095780601f106101de57610100808354040283529160200191610209565b820191906000526020600020905b8154815290600101906020018083116101ec57829003601f168201915b505050505081525050905090565b336000818152603360209081526040909120835161023792850190610492565b5060355460408051636feab9c560e11b815290516000926001600160a01b03169163dfd5738a916004808301926020929190829003018186803b15801561027d57600080fd5b505afa158015610291573d6000803e3d6000fd5b505050506040513d601f19601f820116820180604052508101906102b5919061062e565b9050806102ca670de0b6b3a7640000346106f3565b146103125760405162461bcd60e51b8152602060048201526013602482015272105b5bdd5b9d081a5cc81b9bdd08195c5d585b606a1b60448201526064015b60405180910390fd5b6035546040516302ccb1b360e41b81526001600160a01b03848116600483015234602483015290911690632ccb1b3090604401602060405180830381600087803b15801561035f57600080fd5b505af1158015610373573d6000803e3d6000fd5b505050506040513d601f19601f82011682018060405250810190610397919061052b565b50505050565b60008054610100900460ff16156103e4578160ff1660011480156103c05750303b155b6103dc5760405162461bcd60e51b815260040161030990610647565b506000919050565b60005460ff80841691161061040b5760405162461bcd60e51b815260040161030990610647565b506000805460ff191660ff92909216919091179055600190565b600054610100900460ff166104905760405162461bcd60e51b815260206004820152602b60248201527f496e697469616c697a61626c653a20636f6e7472616374206973206e6f74206960448201526a6e697469616c697a696e6760a81b6064820152608401610309565b565b82805461049e90610715565b90600052602060002090601f0160209004810192826104c05760008555610506565b82601f106104d957805160ff1916838001178555610506565b82800160010185558215610506579182015b828111156105065782518255916020019190600101906104eb565b50610512929150610516565b5090565b5b808211156105125760008155600101610517565b60006020828403121561053d57600080fd5b8151801515811461054d57600080fd5b9392505050565b60006020828403121561056657600080fd5b81356001600160a01b038116811461054d57600080fd5b60006020828403121561058f57600080fd5b813567ffffffffffffffff808211156105a757600080fd5b818401915084601f8301126105bb57600080fd5b8135818111156105cd576105cd610750565b604051601f8201601f19908116603f011681019083821181831017156105f5576105f5610750565b8160405282815287602084870101111561060e57600080fd5b826020860160208301376000928101602001929092525095945050505050565b60006020828403121561064057600080fd5b5051919050565b6020808252602e908201527f496e697469616c697a61626c653a20636f6e747261637420697320616c72656160408201526d191e481a5b9a5d1a585b1a5e995960921b606082015260800190565b6000602080835283518182850152805180604086015260005b818110156106ca578281018401518682016060015283016106ae565b818111156106dc576000606083880101525b50601f01601f191693909301606001949350505050565b60008261071057634e487b7160e01b600052601260045260246000fd5b500490565b600181811c9082168061072957607f821691505b6020821081141561074a57634e487b7160e01b600052602260045260246000fd5b50919050565b634e487b7160e01b600052604160045260246000fdfea26469706673582212204cac07eef006b32643824e7d707c5b67749cadd6833f02b4b580fd98722a2fa864736f6c63430008070033",
  "immutableReferences": {},
  "source": "// SPDX-License-Identifier: MIT\npragma solidity 0.8.7;\n\nimport \"@openzeppelin/contracts/token/ERC20/IERC20.sol\";\nimport \"@openzeppelin/contracts-upgradeable/proxy/utils/Initializable.sol\";\nimport \"@openzeppelin/contracts-upgradeable/utils/ContextUpgradeable.sol\";\n\nimport \"./Wallet.sol\";\n\ncontract User is ContextUpgradeable {\n    struct Profile {\n        string username;\n    }\n\n    mapping(address => Profile) private _profiles;\n\n    address[] private _users;\n\n    Wallet private _wallet;\n\n    function __User_init(Wallet wallet) public initializer {\n        __Context_init();\n\n        _wallet = wallet;\n    }\n\n    function getProfile() public view returns (Profile memory profile) {\n        return _profiles[_msgSender()];\n    }\n\n    function getWallet() public view returns (Wallet) {\n        return _wallet;\n    }\n\n    function setUsername(string memory username) external payable {\n        address user = _msgSender();\n\n        _profiles[user].username = username;\n\n        uint256 price = _wallet.getUserUsernameChangingFee();\n\n        require(msg.value / 10**18 == price, \"Amount is not equal\");\n\n        _wallet.transferTo(user, msg.value);\n    }\n}\n",
  "sourcePath": "/Users/ievgencherkaskyi/Projects/tivan/hexagons/contracts/User.sol",
  "compiler": {
    "name": "solc",
    "version": "0.8.7+commit.e28d00a7.Emscripten.clang"
  },
  "schemaVersion": "3.3.3",
  "updatedAt": "2022-07-11T22:06:52.817Z",
  "devdoc": {
    "kind": "dev",
    "methods": {},
    "version": 1
  },
  "userdoc": {
    "kind": "user",
    "methods": {},
    "version": 1
  }
}