{
  "contractName": "User",
  "abi": [
    {
      "anonymous": false,
      "inputs": [
        {
          "indexed": false,
          "internalType": "uint8",
          "name": "version",
          "type": "uint8"
        }
      ],
      "name": "Initialized",
      "type": "event"
    },
    {
      "anonymous": false,
      "inputs": [
        {
          "indexed": true,
          "internalType": "address",
          "name": "previousOwner",
          "type": "address"
        },
        {
          "indexed": true,
          "internalType": "address",
          "name": "newOwner",
          "type": "address"
        }
      ],
      "name": "OwnershipTransferred",
      "type": "event"
    },
    {
      "inputs": [],
      "name": "owner",
      "outputs": [
        {
          "internalType": "address",
          "name": "",
          "type": "address"
        }
      ],
      "stateMutability": "view",
      "type": "function",
      "constant": true
    },
    {
      "inputs": [],
      "name": "renounceOwnership",
      "outputs": [],
      "stateMutability": "nonpayable",
      "type": "function"
    },
    {
      "inputs": [
        {
          "internalType": "address",
          "name": "newOwner",
          "type": "address"
        }
      ],
      "name": "transferOwnership",
      "outputs": [],
      "stateMutability": "nonpayable",
      "type": "function"
    },
    {
      "inputs": [
        {
          "internalType": "contract Wallet",
          "name": "wallet",
          "type": "address"
        }
      ],
      "name": "__User_init",
      "outputs": [],
      "stateMutability": "nonpayable",
      "type": "function"
    },
    {
      "inputs": [],
      "name": "getProfile",
      "outputs": [
        {
          "components": [
            {
              "internalType": "string",
              "name": "username",
              "type": "string"
            }
          ],
          "internalType": "struct User.Profile",
          "name": "profile",
          "type": "tuple"
        }
      ],
      "stateMutability": "view",
      "type": "function",
      "constant": true
    },
    {
      "inputs": [],
      "name": "getWallet",
      "outputs": [
        {
          "internalType": "contract Wallet",
          "name": "",
          "type": "address"
        }
      ],
      "stateMutability": "view",
      "type": "function",
      "constant": true
    },
    {
      "inputs": [
        {
          "internalType": "string",
          "name": "username",
          "type": "string"
        }
      ],
      "name": "setUsername",
      "outputs": [],
      "stateMutability": "payable",
      "type": "function",
      "payable": true
    },
    {
      "inputs": [
        {
          "internalType": "contract Wallet",
          "name": "wallet",
          "type": "address"
        }
      ],
      "name": "setWallet",
      "outputs": [],
      "stateMutability": "nonpayable",
      "type": "function"
    }
  ],
  "bytecode": "0x608060405234801561001057600080fd5b50610a33806100206000396000f3fe60806040526004361061007b5760003560e01c8063d6afc9b11161004e578063d6afc9b11461010c578063deaa59df1461012e578063ed59313a1461014e578063f2fde38b1461016157600080fd5b806313299604146100805780631af8bc99146100b7578063715018a6146100d95780638da5cb5b146100ee575b600080fd5b34801561008c57600080fd5b506067546001600160a01b03165b6040516001600160a01b0390911681526020015b60405180910390f35b3480156100c357600080fd5b506100d76100d2366004610739565b610181565b005b3480156100e557600080fd5b506100d7610200565b3480156100fa57600080fd5b506033546001600160a01b031661009a565b34801561011857600080fd5b5061012161023f565b6040516100ae9190610917565b34801561013a57600080fd5b506100d7610149366004610739565b6102fe565b6100d761015c36600461077f565b61034a565b34801561016d57600080fd5b506100d761017c366004610739565b6104cc565b600061018d6001610567565b905080156101a5576000805461ff0019166101001790555b6101ad6105ef565b6101b6826102fe565b80156101fc576000805461ff0019169055604051600181527f7f26b83ff96e1f2b6a682f133852f6798a09c465da95921460cefb38474024989060200160405180910390a15b5050565b6033546001600160a01b031633146102335760405162461bcd60e51b815260040161022a90610897565b60405180910390fd5b61023d600061061e565b565b6040805160208082018352606082523360008181526065835284902084519283019094528354929390928290829061027690610997565b80601f01602080910402602001604051908101604052809291908181526020018280546102a290610997565b80156102ef5780601f106102c4576101008083540402835291602001916102ef565b820191906000526020600020905b8154815290600101906020018083116102d257829003601f168201915b50505050508152505091505090565b6033546001600160a01b031633146103285760405162461bcd60e51b815260040161022a90610897565b606780546001600160a01b0319166001600160a01b0392909216919091179055565b336000818152606560209081526040909120835161036a928501906106a0565b5060675460408051639299712360e01b815290516000926001600160a01b0316916392997123916004808301926020929190829003018186803b1580156103b057600080fd5b505afa1580156103c4573d6000803e3d6000fd5b505050506040513d601f19601f820116820180604052508101906103e89190610830565b9050806103fd670de0b6b3a764000034610975565b146104405760405162461bcd60e51b8152602060048201526013602482015272105b5bdd5b9d081a5cc81b9bdd08195c5d585b606a1b604482015260640161022a565b6067546040516302ccb1b360e41b81526001600160a01b0384811660048301526024820184905290911690632ccb1b3090604401602060405180830381600087803b15801561048e57600080fd5b505af11580156104a2573d6000803e3d6000fd5b505050506040513d601f19601f820116820180604052508101906104c6919061075d565b50505050565b6033546001600160a01b031633146104f65760405162461bcd60e51b815260040161022a90610897565b6001600160a01b03811661055b5760405162461bcd60e51b815260206004820152602660248201527f4f776e61626c653a206e6577206f776e657220697320746865207a65726f206160448201526564647265737360d01b606482015260840161022a565b6105648161061e565b50565b60008054610100900460ff16156105ae578160ff16600114801561058a5750303b155b6105a65760405162461bcd60e51b815260040161022a90610849565b506000919050565b60005460ff8084169116106105d55760405162461bcd60e51b815260040161022a90610849565b506000805460ff191660ff92909216919091179055600190565b600054610100900460ff166106165760405162461bcd60e51b815260040161022a906108cc565b61023d610670565b603380546001600160a01b038381166001600160a01b0319831681179093556040519116919082907f8be0079c531659141344cd1fd0a4f28419497f9722a3daafe3b4186f6b6457e090600090a35050565b600054610100900460ff166106975760405162461bcd60e51b815260040161022a906108cc565b61023d3361061e565b8280546106ac90610997565b90600052602060002090601f0160209004810192826106ce5760008555610714565b82601f106106e757805160ff1916838001178555610714565b82800160010185558215610714579182015b828111156107145782518255916020019190600101906106f9565b50610720929150610724565b5090565b5b808211156107205760008155600101610725565b60006020828403121561074b57600080fd5b8135610756816109e8565b9392505050565b60006020828403121561076f57600080fd5b8151801515811461075657600080fd5b60006020828403121561079157600080fd5b813567ffffffffffffffff808211156107a957600080fd5b818401915084601f8301126107bd57600080fd5b8135818111156107cf576107cf6109d2565b604051601f8201601f19908116603f011681019083821181831017156107f7576107f76109d2565b8160405282815287602084870101111561081057600080fd5b826020860160208301376000928101602001929092525095945050505050565b60006020828403121561084257600080fd5b5051919050565b6020808252602e908201527f496e697469616c697a61626c653a20636f6e747261637420697320616c72656160408201526d191e481a5b9a5d1a585b1a5e995960921b606082015260800190565b6020808252818101527f4f776e61626c653a2063616c6c6572206973206e6f7420746865206f776e6572604082015260600190565b6020808252602b908201527f496e697469616c697a61626c653a20636f6e7472616374206973206e6f74206960408201526a6e697469616c697a696e6760a81b606082015260800190565b6000602080835283518182850152805180604086015260005b8181101561094c57828101840151868201606001528301610930565b8181111561095e576000606083880101525b50601f01601f191693909301606001949350505050565b60008261099257634e487b7160e01b600052601260045260246000fd5b500490565b600181811c908216806109ab57607f821691505b602082108114156109cc57634e487b7160e01b600052602260045260246000fd5b50919050565b634e487b7160e01b600052604160045260246000fd5b6001600160a01b038116811461056457600080fdfea26469706673582212200f4bff531bc8238c6ee50498e2b9eed51cf214858f19668b74dbb03a67833b2e64736f6c63430008070033",
  "immutableReferences": {},
  "source": "// SPDX-License-Identifier: MIT\npragma solidity 0.8.7;\n\nimport \"@openzeppelin/contracts/token/ERC20/IERC20.sol\";\nimport \"@openzeppelin/contracts-upgradeable/access/OwnableUpgradeable.sol\";\nimport \"@openzeppelin/contracts-upgradeable/proxy/utils/Initializable.sol\";\n\nimport \"./Wallet/Wallet.sol\";\n\ncontract User is OwnableUpgradeable {\n    struct Profile {\n        string username;\n    }\n\n    mapping(address => Profile) private _profiles;\n\n    address[] private _users;\n\n    Wallet private _wallet;\n\n    function __User_init(Wallet wallet) public initializer {\n        __Ownable_init();\n\n        setWallet(wallet);\n    }\n\n    function getProfile() public view returns (Profile memory profile) {\n        address sender = _msgSender();\n\n        return _profiles[sender];\n    }\n\n    function getWallet() public view returns (Wallet) {\n        return _wallet;\n    }\n\n    function setUsername(string memory username) external payable {\n        address sender = _msgSender();\n\n        _profiles[sender].username = username;\n\n        uint256 price = _wallet.getUserSetUsernamePrice();\n\n        require(msg.value / 10**18 == price, \"Amount is not equal\");\n\n        _wallet.transferTo(sender, price);\n    }\n\n    function setWallet(Wallet wallet) public onlyOwner {\n        _wallet = wallet;\n    }\n}\n",
  "sourcePath": "/Users/ievgencherkaskyi/Projects/tivan/hexagons/contracts/User.sol",
  "compiler": {
    "name": "solc",
    "version": "0.8.7+commit.e28d00a7.Emscripten.clang"
  },
  "schemaVersion": "3.3.3",
  "updatedAt": "2022-07-19T21:28:16.916Z",
  "networkType": "ethereum",
  "devdoc": {
    "kind": "dev",
    "methods": {
      "owner()": {
        "details": "Returns the address of the current owner."
      },
      "renounceOwnership()": {
        "details": "Leaves the contract without owner. It will not be possible to call `onlyOwner` functions anymore. Can only be called by the current owner. NOTE: Renouncing ownership will leave the contract without an owner, thereby removing any functionality that is only available to the owner."
      },
      "transferOwnership(address)": {
        "details": "Transfers ownership of the contract to a new account (`newOwner`). Can only be called by the current owner."
      }
    },
    "version": 1
  },
  "userdoc": {
    "kind": "user",
    "methods": {},
    "version": 1
  }
}