{
  "contractName": "VotingManager",
  "abi": [
    {
      "inputs": [
        {
          "internalType": "bytes32",
          "name": "id",
          "type": "bytes32"
        }
      ],
      "name": "VotingAlreadyApproved",
      "type": "error"
    },
    {
      "inputs": [
        {
          "internalType": "bytes32",
          "name": "id",
          "type": "bytes32"
        },
        {
          "internalType": "uint256",
          "name": "endDateTime",
          "type": "uint256"
        }
      ],
      "name": "VotingAlreadyEnded",
      "type": "error"
    },
    {
      "inputs": [
        {
          "internalType": "bytes32",
          "name": "id",
          "type": "bytes32"
        }
      ],
      "name": "VotingAlreadyVoted",
      "type": "error"
    },
    {
      "inputs": [
        {
          "internalType": "bytes32",
          "name": "id",
          "type": "bytes32"
        }
      ],
      "name": "VotingDoesNotExist",
      "type": "error"
    },
    {
      "inputs": [
        {
          "internalType": "bytes32",
          "name": "id",
          "type": "bytes32"
        },
        {
          "internalType": "uint256",
          "name": "endDateTime",
          "type": "uint256"
        }
      ],
      "name": "VotingHasNotFinished",
      "type": "error"
    },
    {
      "inputs": [
        {
          "internalType": "bytes32",
          "name": "id",
          "type": "bytes32"
        },
        {
          "internalType": "uint256",
          "name": "startDateTime",
          "type": "uint256"
        }
      ],
      "name": "VotingHasNotStarted",
      "type": "error"
    },
    {
      "inputs": [],
      "name": "VotingNotAuthorize",
      "type": "error"
    },
    {
      "inputs": [
        {
          "internalType": "bytes32",
          "name": "id",
          "type": "bytes32"
        },
        {
          "internalType": "uint256",
          "name": "endDateTime",
          "type": "uint256"
        }
      ],
      "name": "VotingNotEnded",
      "type": "error"
    },
    {
      "inputs": [
        {
          "internalType": "bytes32",
          "name": "id",
          "type": "bytes32"
        }
      ],
      "name": "VotintApprovedIsNotPossible",
      "type": "error"
    },
    {
      "anonymous": false,
      "inputs": [
        {
          "indexed": false,
          "internalType": "uint8",
          "name": "version",
          "type": "uint8"
        }
      ],
      "name": "Initialized",
      "type": "event"
    },
    {
      "anonymous": false,
      "inputs": [
        {
          "indexed": true,
          "internalType": "address",
          "name": "previousOwner",
          "type": "address"
        },
        {
          "indexed": true,
          "internalType": "address",
          "name": "newOwner",
          "type": "address"
        }
      ],
      "name": "OwnershipTransferred",
      "type": "event"
    },
    {
      "anonymous": false,
      "inputs": [
        {
          "indexed": false,
          "internalType": "bytes32",
          "name": "id",
          "type": "bytes32"
        }
      ],
      "name": "VotingManagerAdded",
      "type": "event"
    },
    {
      "inputs": [],
      "name": "owner",
      "outputs": [
        {
          "internalType": "address",
          "name": "",
          "type": "address"
        }
      ],
      "stateMutability": "view",
      "type": "function"
    },
    {
      "inputs": [],
      "name": "renounceOwnership",
      "outputs": [],
      "stateMutability": "nonpayable",
      "type": "function"
    },
    {
      "inputs": [
        {
          "internalType": "address",
          "name": "newOwner",
          "type": "address"
        }
      ],
      "name": "transferOwnership",
      "outputs": [],
      "stateMutability": "nonpayable",
      "type": "function"
    },
    {
      "inputs": [
        {
          "internalType": "address",
          "name": "proxy",
          "type": "address"
        },
        {
          "internalType": "contract IUpgradeable",
          "name": "implementation",
          "type": "address"
        },
        {
          "internalType": "uint256",
          "name": "startDateTime",
          "type": "uint256"
        },
        {
          "internalType": "uint256",
          "name": "endDateTime",
          "type": "uint256"
        }
      ],
      "name": "add",
      "outputs": [],
      "stateMutability": "nonpayable",
      "type": "function"
    },
    {
      "inputs": [
        {
          "internalType": "bytes32",
          "name": "id",
          "type": "bytes32"
        }
      ],
      "name": "approve",
      "outputs": [],
      "stateMutability": "nonpayable",
      "type": "function"
    },
    {
      "inputs": [
        {
          "internalType": "contract TVTVToken",
          "name": "token",
          "type": "address"
        }
      ],
      "name": "initialize",
      "outputs": [],
      "stateMutability": "nonpayable",
      "type": "function"
    },
    {
      "inputs": [],
      "name": "getResult",
      "outputs": [
        {
          "components": [
            {
              "internalType": "bytes32",
              "name": "id",
              "type": "bytes32"
            },
            {
              "internalType": "address",
              "name": "proxy",
              "type": "address"
            },
            {
              "internalType": "contract IUpgradeable",
              "name": "implementation",
              "type": "address"
            },
            {
              "internalType": "uint256",
              "name": "startDateTime",
              "type": "uint256"
            },
            {
              "internalType": "uint256",
              "name": "endDateTime",
              "type": "uint256"
            },
            {
              "internalType": "uint256",
              "name": "agreeNumber",
              "type": "uint256"
            },
            {
              "internalType": "bool",
              "name": "isAgree",
              "type": "bool"
            },
            {
              "internalType": "uint256",
              "name": "disagreeNumber",
              "type": "uint256"
            },
            {
              "internalType": "bool",
              "name": "isDisagree",
              "type": "bool"
            },
            {
              "internalType": "uint256",
              "name": "approvedDateTime",
              "type": "uint256"
            }
          ],
          "internalType": "struct VotingManager.VotingResult[]",
          "name": "",
          "type": "tuple[]"
        }
      ],
      "stateMutability": "view",
      "type": "function"
    },
    {
      "inputs": [],
      "name": "getToken",
      "outputs": [
        {
          "internalType": "contract TVTVToken",
          "name": "token",
          "type": "address"
        }
      ],
      "stateMutability": "view",
      "type": "function"
    },
    {
      "inputs": [
        {
          "internalType": "bytes32",
          "name": "id",
          "type": "bytes32"
        }
      ],
      "name": "remove",
      "outputs": [],
      "stateMutability": "nonpayable",
      "type": "function"
    },
    {
      "inputs": [
        {
          "internalType": "bytes32",
          "name": "id",
          "type": "bytes32"
        },
        {
          "internalType": "bool",
          "name": "answer",
          "type": "bool"
        }
      ],
      "name": "vote",
      "outputs": [],
      "stateMutability": "nonpayable",
      "type": "function"
    }
  ],
  "bytecode": "0x608060405234801561001057600080fd5b506113da806100206000396000f3fe608060405234801561001057600080fd5b506004361061009e5760003560e01c80639f2ce678116100665780639f2ce6781461010e578063a53a1adf14610121578063c4d66de814610134578063de29278914610147578063f2fde38b1461015c57600080fd5b806321df0da7146100a35780634efd1551146100cd578063715018a6146100e25780638da5cb5b146100ea57806395bc2673146100fb575b600080fd5b6066546001600160a01b03165b6040516001600160a01b0390911681526020015b60405180910390f35b6100e06100db3660046110bf565b61016f565b005b6100e06103bd565b6033546001600160a01b03166100b0565b6100e0610109366004611105565b6103f3565b6100e061011c36600461111e565b6105e3565b6100e061012f366004611105565b610830565b6100e061014236600461109b565b6108cc565b61014f610965565b6040516100c4919061116c565b6100e061016a36600461109b565b610c1f565b6033546001600160a01b031633146101a25760405162461bcd60e51b81526004016101999061126d565b60405180910390fd5b6040805161010081018252606086811b6bffffffffffffffffffffffff1990811661012084015286821b16610134830152825180830361012801815261014883018452805160209182012083526001600160a01b038089168285019081528189169585019586528385018881526080860188815260a0870186815260c08801879052600060e08901819052606580546001810182559152885160089091027f8ff97419363ffd7000167f130ef7168fbea05faf9251824ca5043f113cc6a7c7810191825594517f8ff97419363ffd7000167f130ef7168fbea05faf9251824ca5043f113cc6a7c8860180549188166001600160a01b031992831617905599517f8ff97419363ffd7000167f130ef7168fbea05faf9251824ca5043f113cc6a7c986018054919097169a169990991790945590517f8ff97419363ffd7000167f130ef7168fbea05faf9251824ca5043f113cc6a7ca830155517f8ff97419363ffd7000167f130ef7168fbea05faf9251824ca5043f113cc6a7cb82015590518051939585949093610356937f8ff97419363ffd7000167f130ef7168fbea05faf9251824ca5043f113cc6a7cc01920190610fc7565b5060c08201518051610372916006840191602090910190610fc7565b5060e0919091015160079091015580516040519081527f99cc78d80e01fa480754ef20cc3e650993ab0586a39a4f4c4bcd2395add5d2279060200160405180910390a1505050505050565b6033546001600160a01b031633146103e75760405162461bcd60e51b81526004016101999061126d565b6103f16000610cba565b565b6033546001600160a01b0316331461041d5760405162461bcd60e51b81526004016101999061126d565b6000805b60655461043090600190611305565b81101561055f57811580156104685750826065828154811061045457610454611363565b906000526020600020906008020160000154145b1561047257600191505b811561054d5760656104858260016112ed565b8154811061049557610495611363565b9060005260206000209060080201606582815481106104b6576104b6611363565b60009182526020909120825460089092020190815560018083015490820180546001600160a01b039283166001600160a01b031991821617909155600280850154908401805491909316911617905560038083015490820155600480830154908201556005808301805461052d928401919061102c565b5060068281018054610542928401919061102c565b506007918201549101555b806105578161131c565b915050610421565b5060658054806105715761057161134d565b6000828152602081206008600019909301928302018181556001810180546001600160a01b031990811690915560028201805490911690556003810182905560048101829055906105c5600583018261106c565b6105d360068301600061106c565b6007820160009055505090555050565b336105ed81610d0c565b61060a57604051631f1fd57560e21b815260040160405180910390fd5b600061061584610d94565b9050428160030154111561064c57600381015460405163a0f77ea960e01b8152610199918691600401918252602082015260400190565b428160040154101561067e57600480820154604051630f41b26f60e11b81529182018690526024820152604401610199565b60408051610100810182528254815260018301546001600160a01b03908116602080840191909152600285015490911682840152600384015460608301526004840154608083015260058401805484518184028101840190955280855261079d94869360a086019391929083018282801561072257602002820191906000526020600020905b81546001600160a01b03168152600190910190602001808311610704575b505050505081526020016006820180548060200260200160405190810160405280929190818152602001828054801561078457602002820191906000526020600020905b81546001600160a01b03168152600190910190602001808311610766575b5050505050815260200160078201548152505083610e26565b156107be57604051638df5cb1b60e01b815260048101859052602401610199565b82156107f957600581018054600181018255600091825260209091200180546001600160a01b0319166001600160a01b03841617905561082a565b600681018054600181018255600091825260209091200180546001600160a01b0319166001600160a01b0384161790555b50505050565b600061083b82610d94565b9050806007015460001461086557604051636bc77dcf60e11b815260048101839052602401610199565b600681015460058201541161089057604051630facc84b60e41b815260048101839052602401610199565b42816004015411156108c25760048082015460405163233e879f60e11b81529182018490526024820152604401610199565b4260079091015550565b60006108d86001610e53565b905080156108f0576000805461ff0019166101001790555b6108f8610edb565b610900610f02565b606680546001600160a01b0319166001600160a01b0384161790558015610961576000805461ff0019169055604051600181527f7f26b83ff96e1f2b6a682f133852f6798a09c465da95921460cefb38474024989060200160405180910390a15b5050565b606554606090339060009067ffffffffffffffff81111561098857610988611379565b604051908082528060200260200182016040528015610a0757816020015b604080516101408101825260008082526020808301829052928201819052606082018190526080820181905260a0820181905260c0820181905260e08201819052610100820181905261012082015282526000199092019101816109a65790505b50905060005b606554811015610c1857600060658281548110610a2c57610a2c611363565b6000918252602091829020604080516101008101825260089093029091018054835260018101546001600160a01b03908116848601526002820154168383015260038101546060840152600481015460808401526005810180548351818702810187019094528084529394919360a086019392830182828015610ad857602002820191906000526020600020905b81546001600160a01b03168152600190910190602001808311610aba575b5050505050815260200160068201805480602002602001604051908101604052809291908181526020018280548015610b3a57602002820191906000526020600020905b81546001600160a01b03168152600190910190602001808311610b1c575b5050505050815260200160078201548152505090506040518061014001604052808260000151815260200182602001516001600160a01b0316815260200182604001516001600160a01b0316815260200182606001518152602001826080015181526020018260a00151518152602001610bb88360a0015187610f31565b151581526020018260c00151518152602001610bd88360c0015187610f31565b151581526020018260e00151815250838381518110610bf957610bf9611363565b6020026020010181905250508080610c109061131c565b915050610a0d565b5092915050565b6033546001600160a01b03163314610c495760405162461bcd60e51b81526004016101999061126d565b6001600160a01b038116610cae5760405162461bcd60e51b815260206004820152602660248201527f4f776e61626c653a206e6577206f776e657220697320746865207a65726f206160448201526564647265737360d01b6064820152608401610199565b610cb781610cba565b50565b603380546001600160a01b038381166001600160a01b0319831681179093556040519116919082907f8be0079c531659141344cd1fd0a4f28419497f9722a3daafe3b4186f6b6457e090600090a35050565b6066546040516370a0823160e01b81526001600160a01b03838116600483015260009283929116906370a082319060240160206040518083038186803b158015610d5557600080fd5b505afa158015610d69573d6000803e3d6000fd5b505050506040513d601f19601f82011682018060405250810190610d8d9190611153565b1192915050565b6000805b606554811015610e09578260658281548110610db657610db6611363565b9060005260206000209060080201600001541415610df75760658181548110610de157610de1611363565b9060005260206000209060080201915050919050565b80610e018161131c565b915050610d98565b50604051635306c40b60e01b815260048101839052602401610199565b6000610e368360a0015183610f31565b80610e4a5750610e4a8360c0015183610f31565b90505b92915050565b60008054610100900460ff1615610e9a578160ff166001148015610e765750303b155b610e925760405162461bcd60e51b81526004016101999061121f565b506000919050565b60005460ff808416911610610ec15760405162461bcd60e51b81526004016101999061121f565b506000805460ff191660ff92909216919091179055600190565b600054610100900460ff166103f15760405162461bcd60e51b8152600401610199906112a2565b600054610100900460ff16610f295760405162461bcd60e51b8152600401610199906112a2565b6103f1610f97565b6000805b8351811015610f8d57826001600160a01b0316848281518110610f5a57610f5a611363565b60200260200101516001600160a01b03161415610f7b576001915050610e4d565b80610f858161131c565b915050610f35565b5060009392505050565b600054610100900460ff16610fbe5760405162461bcd60e51b8152600401610199906112a2565b6103f133610cba565b82805482825590600052602060002090810192821561101c579160200282015b8281111561101c57825182546001600160a01b0319166001600160a01b03909116178255602090920191600190910190610fe7565b50611028929150611086565b5090565b82805482825590600052602060002090810192821561101c5760005260206000209182015b8281111561101c578254825591600101919060010190611051565b5080546000825590600052602060002090810190610cb791905b5b808211156110285760008155600101611087565b6000602082840312156110ad57600080fd5b81356110b88161138f565b9392505050565b600080600080608085870312156110d557600080fd5b84356110e08161138f565b935060208501356110f08161138f565b93969395505050506040820135916060013590565b60006020828403121561111757600080fd5b5035919050565b6000806040838503121561113157600080fd5b823591506020830135801515811461114857600080fd5b809150509250929050565b60006020828403121561116557600080fd5b5051919050565b602080825282518282018190526000919060409081850190868401855b8281101561121257815180518552868101516001600160a01b0390811688870152868201511686860152606080820151908601526080808201519086015260a0808201519086015260c08082015115159086015260e080820151908601526101008082015115159086015261012090810151908501526101409093019290850190600101611189565b5091979650505050505050565b6020808252602e908201527f496e697469616c697a61626c653a20636f6e747261637420697320616c72656160408201526d191e481a5b9a5d1a585b1a5e995960921b606082015260800190565b6020808252818101527f4f776e61626c653a2063616c6c6572206973206e6f7420746865206f776e6572604082015260600190565b6020808252602b908201527f496e697469616c697a61626c653a20636f6e7472616374206973206e6f74206960408201526a6e697469616c697a696e6760a81b606082015260800190565b6000821982111561130057611300611337565b500190565b60008282101561131757611317611337565b500390565b600060001982141561133057611330611337565b5060010190565b634e487b7160e01b600052601160045260246000fd5b634e487b7160e01b600052603160045260246000fd5b634e487b7160e01b600052603260045260246000fd5b634e487b7160e01b600052604160045260246000fd5b6001600160a01b0381168114610cb757600080fdfea26469706673582212207956f40b4fad11ee59bc4297daccf1366d406e3065e35c3be00f6aa97133dfef64736f6c63430008070033",
  "immutableReferences": {},
  "source": "// SPDX-License-Identifier: MIT\npragma solidity 0.8.7;\n\nimport \"@openzeppelin/contracts-upgradeable/access/OwnableUpgradeable.sol\";\nimport \"@openzeppelin/contracts-upgradeable/proxy/utils/Initializable.sol\";\nimport \"@openzeppelin/contracts-upgradeable/utils/ContextUpgradeable.sol\";\n\nimport \"./TVTV/TVTVToken.sol\";\n\nimport \"./IUpgradeable.sol\";\n\n/**\n * @title Voating manager\n */\ncontract VotingManager is\n    Initializable,\n    ContextUpgradeable,\n    OwnableUpgradeable\n{\n    struct Voting {\n        bytes32 id;\n        address proxy;\n        IUpgradeable implementation;\n        uint256 startDateTime;\n        uint256 endDateTime;\n        address[] agree;\n        address[] disagree;\n        uint256 approvedDateTime;\n    }\n\n    struct VotingResult {\n        bytes32 id;\n        address proxy;\n        IUpgradeable implementation;\n        uint256 startDateTime;\n        uint256 endDateTime;\n        uint256 agreeNumber;\n        bool isAgree;\n        uint256 disagreeNumber;\n        bool isDisagree;\n        uint256 approvedDateTime;\n    }\n\n    Voting[] internal _votings;\n\n    TVTVToken internal _token;\n\n    error VotingAlreadyApproved(bytes32 id);\n    error VotingAlreadyEnded(bytes32 id, uint256 endDateTime);\n    error VotingAlreadyVoted(bytes32 id);\n    error VotingDoesNotExist(bytes32 id);\n    error VotingHasNotFinished(bytes32 id, uint256 endDateTime);\n    error VotingHasNotStarted(bytes32 id, uint256 startDateTime);\n    error VotingNotAuthorize();\n    error VotingNotEnded(bytes32 id, uint256 endDateTime);\n    error VotintApprovedIsNotPossible(bytes32 id);\n\n    event VotingManagerAdded(bytes32 id);\n\n    function add(\n        address proxy,\n        IUpgradeable implementation,\n        uint256 startDateTime,\n        uint256 endDateTime\n    ) external onlyOwner {\n        address[] memory result;\n\n        Voting memory voting = Voting({\n            id: keccak256(abi.encodePacked(proxy, implementation)),\n            proxy: proxy,\n            implementation: implementation,\n            startDateTime: startDateTime,\n            endDateTime: endDateTime,\n            agree: result,\n            disagree: result,\n            approvedDateTime: 0\n        });\n\n        _votings.push(voting);\n\n        emit VotingManagerAdded(voting.id);\n    }\n\n    function approve(bytes32 id) external {\n        Voting storage voting = _get(id);\n\n        if (voting.approvedDateTime != 0) {\n            revert VotingAlreadyApproved(id);\n        }\n\n        if (voting.agree.length <= voting.disagree.length) {\n            revert VotintApprovedIsNotPossible(id);\n        }\n\n        if (voting.endDateTime > block.timestamp) {\n            revert VotingNotEnded(id, voting.endDateTime);\n        }\n\n        voting.approvedDateTime = block.timestamp;\n    }\n\n    function initialize(TVTVToken token) public initializer {\n        __Context_init();\n        __Ownable_init();\n\n        _token = token;\n    }\n\n    function getResult() external view returns (VotingResult[] memory) {\n        address voter = _msgSender();\n\n        VotingResult[] memory votingsResult = new VotingResult[](\n            _votings.length\n        );\n\n        for (uint256 i = 0; i < _votings.length; i++) {\n            Voting memory voting = _votings[i];\n\n            votingsResult[i] = VotingResult({\n                id: voting.id,\n                proxy: voting.proxy,\n                implementation: voting.implementation,\n                startDateTime: voting.startDateTime,\n                endDateTime: voting.endDateTime,\n                agreeNumber: voting.agree.length,\n                isAgree: _isInVoters(voting.agree, voter),\n                disagreeNumber: voting.disagree.length,\n                isDisagree: _isInVoters(voting.disagree, voter),\n                approvedDateTime: voting.approvedDateTime\n            });\n        }\n\n        return votingsResult;\n    }\n\n    function getToken() external view returns (TVTVToken token) {\n        return _token;\n    }\n\n    function remove(bytes32 id) external onlyOwner {\n        bool found = false;\n\n        for (uint256 i = 0; i < _votings.length - 1; i++) {\n            if (!found && _votings[i].id == id) {\n                found = true;\n            }\n\n            if (found) {\n                _votings[i] = _votings[i + 1];\n            }\n        }\n\n        _votings.pop();\n    }\n\n    function vote(bytes32 id, bool answer) external {\n        address voter = _msgSender();\n\n        if (!_hasToken(voter)) {\n            revert VotingNotAuthorize();\n        }\n\n        Voting storage voting = _get(id);\n\n        if (voting.startDateTime > block.timestamp) {\n            revert VotingHasNotStarted(id, voting.startDateTime);\n        }\n\n        if (voting.endDateTime < block.timestamp) {\n            revert VotingAlreadyEnded(id, voting.endDateTime);\n        }\n\n        if (_isVoted(voting, voter)) {\n            revert VotingAlreadyVoted(id);\n        }\n\n        if (answer) {\n            voting.agree.push(voter);\n        } else {\n            voting.disagree.push(voter);\n        }\n    }\n\n    function _isInVoters(address[] memory voters, address voter)\n        internal\n        pure\n        returns (bool)\n    {\n        for (uint256 i = 0; i < voters.length; i++) {\n            if (voters[i] == voter) {\n                return true;\n            }\n        }\n\n        return false;\n    }\n\n    function _isVoted(Voting memory voting, address voter)\n        internal\n        pure\n        returns (bool)\n    {\n        return\n            _isInVoters(voting.agree, voter) ||\n            _isInVoters(voting.disagree, voter);\n    }\n\n    function _get(bytes32 id) internal view returns (Voting storage) {\n        for (uint256 i = 0; i < _votings.length; i++) {\n            if (_votings[i].id == id) {\n                return _votings[i];\n            }\n        }\n\n        revert VotingDoesNotExist(id);\n    }\n\n    function _hasToken(address voter) internal view returns (bool) {\n        return _token.balanceOf(voter) > 0;\n    }\n}\n",
  "sourcePath": "/Users/ievgencherkaskyi/Projects/tivan/launchpool/contracts/VotingManager.sol",
  "compiler": {
    "name": "solc",
    "version": "0.8.7+commit.e28d00a7.Emscripten.clang"
  },
  "schemaVersion": "3.3.3",
  "updatedAt": "2022-07-01T16:27:34.554Z",
  "devdoc": {
    "kind": "dev",
    "methods": {
      "owner()": {
        "details": "Returns the address of the current owner."
      },
      "renounceOwnership()": {
        "details": "Leaves the contract without owner. It will not be possible to call `onlyOwner` functions anymore. Can only be called by the current owner. NOTE: Renouncing ownership will leave the contract without an owner, thereby removing any functionality that is only available to the owner."
      },
      "transferOwnership(address)": {
        "details": "Transfers ownership of the contract to a new account (`newOwner`). Can only be called by the current owner."
      }
    },
    "title": "Voating manager",
    "version": 1
  },
  "userdoc": {
    "kind": "user",
    "methods": {},
    "version": 1
  }
}