{
  "contractName": "VotingManager",
  "abi": [
    {
      "inputs": [
        {
          "internalType": "uint256",
          "name": "index",
          "type": "uint256"
        },
        {
          "internalType": "uint256",
          "name": "endDateTime",
          "type": "uint256"
        }
      ],
      "name": "VotingAlreadyFinished",
      "type": "error"
    },
    {
      "inputs": [
        {
          "internalType": "uint256",
          "name": "index",
          "type": "uint256"
        }
      ],
      "name": "VotingAlreadyVoted",
      "type": "error"
    },
    {
      "inputs": [
        {
          "internalType": "uint256",
          "name": "index",
          "type": "uint256"
        }
      ],
      "name": "VotingDoesNotExist",
      "type": "error"
    },
    {
      "inputs": [
        {
          "internalType": "uint256",
          "name": "index",
          "type": "uint256"
        },
        {
          "internalType": "uint256",
          "name": "endDateTime",
          "type": "uint256"
        }
      ],
      "name": "VotingHasNotFinished",
      "type": "error"
    },
    {
      "inputs": [
        {
          "internalType": "uint256",
          "name": "index",
          "type": "uint256"
        },
        {
          "internalType": "uint256",
          "name": "startDateTime",
          "type": "uint256"
        }
      ],
      "name": "VotingHasNotStarted",
      "type": "error"
    },
    {
      "inputs": [],
      "name": "VotingNotAuthorize",
      "type": "error"
    },
    {
      "anonymous": false,
      "inputs": [
        {
          "indexed": false,
          "internalType": "uint8",
          "name": "version",
          "type": "uint8"
        }
      ],
      "name": "Initialized",
      "type": "event"
    },
    {
      "anonymous": false,
      "inputs": [
        {
          "indexed": true,
          "internalType": "address",
          "name": "previousOwner",
          "type": "address"
        },
        {
          "indexed": true,
          "internalType": "address",
          "name": "newOwner",
          "type": "address"
        }
      ],
      "name": "OwnershipTransferred",
      "type": "event"
    },
    {
      "inputs": [],
      "name": "owner",
      "outputs": [
        {
          "internalType": "address",
          "name": "",
          "type": "address"
        }
      ],
      "stateMutability": "view",
      "type": "function",
      "constant": true
    },
    {
      "inputs": [],
      "name": "renounceOwnership",
      "outputs": [],
      "stateMutability": "nonpayable",
      "type": "function"
    },
    {
      "inputs": [
        {
          "internalType": "address",
          "name": "newOwner",
          "type": "address"
        }
      ],
      "name": "transferOwnership",
      "outputs": [],
      "stateMutability": "nonpayable",
      "type": "function"
    },
    {
      "inputs": [
        {
          "internalType": "address",
          "name": "proxy",
          "type": "address"
        },
        {
          "internalType": "contract IUpgradeable",
          "name": "implementation",
          "type": "address"
        },
        {
          "internalType": "uint256",
          "name": "startDateTime",
          "type": "uint256"
        },
        {
          "internalType": "uint256",
          "name": "endDateTime",
          "type": "uint256"
        }
      ],
      "name": "add",
      "outputs": [],
      "stateMutability": "nonpayable",
      "type": "function"
    },
    {
      "inputs": [
        {
          "internalType": "contract TVTVToken",
          "name": "token",
          "type": "address"
        }
      ],
      "name": "initialize",
      "outputs": [],
      "stateMutability": "nonpayable",
      "type": "function"
    },
    {
      "inputs": [],
      "name": "getResult",
      "outputs": [
        {
          "components": [
            {
              "internalType": "address",
              "name": "proxy",
              "type": "address"
            },
            {
              "internalType": "contract IUpgradeable",
              "name": "implementation",
              "type": "address"
            },
            {
              "internalType": "uint256",
              "name": "startDateTime",
              "type": "uint256"
            },
            {
              "internalType": "uint256",
              "name": "endDateTime",
              "type": "uint256"
            },
            {
              "internalType": "uint256",
              "name": "agreeNumber",
              "type": "uint256"
            },
            {
              "internalType": "bool",
              "name": "isAgree",
              "type": "bool"
            },
            {
              "internalType": "uint256",
              "name": "disagreeNumber",
              "type": "uint256"
            },
            {
              "internalType": "bool",
              "name": "isDisagree",
              "type": "bool"
            }
          ],
          "internalType": "struct VotingManager.VotingResult[]",
          "name": "",
          "type": "tuple[]"
        }
      ],
      "stateMutability": "view",
      "type": "function",
      "constant": true
    },
    {
      "inputs": [],
      "name": "getToken",
      "outputs": [
        {
          "internalType": "contract TVTVToken",
          "name": "token",
          "type": "address"
        }
      ],
      "stateMutability": "view",
      "type": "function",
      "constant": true
    },
    {
      "inputs": [
        {
          "internalType": "uint256",
          "name": "index",
          "type": "uint256"
        }
      ],
      "name": "remove",
      "outputs": [],
      "stateMutability": "nonpayable",
      "type": "function"
    },
    {
      "inputs": [
        {
          "internalType": "uint256",
          "name": "index",
          "type": "uint256"
        },
        {
          "internalType": "bool",
          "name": "answer",
          "type": "bool"
        }
      ],
      "name": "vote",
      "outputs": [],
      "stateMutability": "nonpayable",
      "type": "function"
    }
  ],
  "bytecode": "0x608060405234801561001057600080fd5b506111b0806100206000396000f3fe608060405234801561001057600080fd5b50600436106100935760003560e01c80638da5cb5b116100665780638da5cb5b146100f2578063c4d66de814610103578063c9d27afe14610116578063de29278914610129578063f2fde38b1461013e57600080fd5b806321df0da7146100985780634cc82215146100c25780634efd1551146100d7578063715018a6146100ea575b600080fd5b6066546001600160a01b03165b6040516001600160a01b0390911681526020015b60405180910390f35b6100d56100d0366004610ef1565b610151565b005b6100d56100e5366004610eab565b61030d565b6100d56104a3565b6033546001600160a01b03166100a5565b6100d5610111366004610e87565b6104d9565b6100d5610124366004610f23565b610572565b6101316107ab565b6040516100b99190610f58565b6100d561014c366004610e87565b610a2c565b6033546001600160a01b031633146101845760405162461bcd60e51b815260040161017b90611043565b60405180910390fd5b61018d81610ac7565b6101ad57604051631cefedb160e31b81526004810182905260240161017b565b805b6065546101be906001906110db565b81101561029a5760656101d28260016110c3565b815481106101e2576101e2611139565b90600052602060002090600602016065828154811061020357610203611139565b60009182526020909120825460069092020180546001600160a01b039283166001600160a01b031991821617825560018085015490830180549190941691161790915560028083015490820155600380830154908201556004808301805461026e9284019190610daf565b50600582810180546102839284019190610daf565b509050508080610292906110f2565b9150506101af565b5060658054806102ac576102ac611123565b60008281526020812060066000199093019283020180546001600160a01b0319908116825560018201805490911690556002810182905560038101829055906102f86004830182610dff565b610306600583016000610dff565b5050905550565b6033546001600160a01b031633146103375760405162461bcd60e51b815260040161017b90611043565b6040805160c0810182526001600160a01b038087168252858116602080840191825293830186815260608481018781526080860182815260a0870183905260658054600181018255600091909152875160069091027f8ff97419363ffd7000167f130ef7168fbea05faf9251824ca5043f113cc6a7c7810180549289166001600160a01b031993841617815596517f8ff97419363ffd7000167f130ef7168fbea05faf9251824ca5043f113cc6a7c8820180549190991692169190911790965592517f8ff97419363ffd7000167f130ef7168fbea05faf9251824ca5043f113cc6a7c9860155517f8ff97419363ffd7000167f130ef7168fbea05faf9251824ca5043f113cc6a7ca850155905180519195859461047c937f8ff97419363ffd7000167f130ef7168fbea05faf9251824ca5043f113cc6a7cb9091019290910190610e1d565b5060a08201518051610498916005840191602090910190610e1d565b505050505050505050565b6033546001600160a01b031633146104cd5760405162461bcd60e51b815260040161017b90611043565b6104d76000610ae1565b565b60006104e56001610b33565b905080156104fd576000805461ff0019166101001790555b610505610bbb565b61050d610be2565b606680546001600160a01b0319166001600160a01b038416179055801561056e576000805461ff0019169055604051600181527f7f26b83ff96e1f2b6a682f133852f6798a09c465da95921460cefb38474024989060200160405180910390a15b5050565b3361057c81610c11565b61059957604051631f1fd57560e21b815260040160405180910390fd5b60006105a484610c99565b905042816002015411156105db576002810154604051630121448560e71b815261017b918691600401918252602082015260400190565b42816003015410156106105760038101546040516307793abb60e21b815261017b918691600401918252602082015260400190565b6040805160c08101825282546001600160a01b0390811682526001840154166020808301919091526002840154828401526003840154606083015260048401805484518184028101840190955280855261071894869360808601939192908301828280156106a757602002820191906000526020600020905b81546001600160a01b03168152600190910190602001808311610689575b505050505081526020016005820180548060200260200160405190810160405280929190818152602001828054801561070957602002820191906000526020600020905b81546001600160a01b031681526001909101906020018083116106eb575b50505050508152505083610cec565b156107395760405163c036301b60e01b81526004810185905260240161017b565b821561077457600481018054600181018255600091825260209091200180546001600160a01b0319166001600160a01b0384161790556107a5565b600581018054600181018255600091825260209091200180546001600160a01b0319166001600160a01b0384161790555b50505050565b606554606090339060009067ffffffffffffffff8111156107ce576107ce61114f565b60405190808252806020026020018201604052801561083d57816020015b604080516101008101825260008082526020808301829052928201819052606082018190526080820181905260a0820181905260c0820181905260e082015282526000199092019101816107ec5790505b50905060005b606554811015610a255760006065828154811061086257610862611139565b60009182526020918290206040805160c081018252600690930290910180546001600160a01b03908116845260018201541683850152600281015483830152600381015460608401526004810180548351818702810187019094528084529394919360808601939283018282801561090357602002820191906000526020600020905b81546001600160a01b031681526001909101906020018083116108e5575b505050505081526020016005820180548060200260200160405190810160405280929190818152602001828054801561096557602002820191906000526020600020905b81546001600160a01b03168152600190910190602001808311610947575b505050505081525050905060405180610100016040528082600001516001600160a01b0316815260200182602001516001600160a01b03168152602001826040015181526020018260600151815260200182608001515181526020016109cf836080015187610d19565b151581526020018260a001515181526020016109ef8360a0015187610d19565b1515815250838381518110610a0657610a06611139565b6020026020010181905250508080610a1d906110f2565b915050610843565b5092915050565b6033546001600160a01b03163314610a565760405162461bcd60e51b815260040161017b90611043565b6001600160a01b038116610abb5760405162461bcd60e51b815260206004820152602660248201527f4f776e61626c653a206e6577206f776e657220697320746865207a65726f206160448201526564647265737360d01b606482015260840161017b565b610ac481610ae1565b50565b6000606554610ad8906001906110db565b82111592915050565b603380546001600160a01b038381166001600160a01b0319831681179093556040519116919082907f8be0079c531659141344cd1fd0a4f28419497f9722a3daafe3b4186f6b6457e090600090a35050565b60008054610100900460ff1615610b7a578160ff166001148015610b565750303b155b610b725760405162461bcd60e51b815260040161017b90610ff5565b506000919050565b60005460ff808416911610610ba15760405162461bcd60e51b815260040161017b90610ff5565b506000805460ff191660ff92909216919091179055600190565b600054610100900460ff166104d75760405162461bcd60e51b815260040161017b90611078565b600054610100900460ff16610c095760405162461bcd60e51b815260040161017b90611078565b6104d7610d7f565b6066546040516370a0823160e01b81526001600160a01b03838116600483015260009283929116906370a082319060240160206040518083038186803b158015610c5a57600080fd5b505afa158015610c6e573d6000803e3d6000fd5b505050506040513d601f19601f82011682018060405250810190610c929190610f0a565b1192915050565b6000610ca482610ac7565b610cc457604051631cefedb160e31b81526004810183905260240161017b565b60658281548110610cd757610cd7611139565b90600052602060002090600602019050919050565b6000610cfc836080015183610d19565b80610d105750610d108360a0015183610d19565b90505b92915050565b6000805b8351811015610d7557826001600160a01b0316848281518110610d4257610d42611139565b60200260200101516001600160a01b03161415610d63576001915050610d13565b80610d6d816110f2565b915050610d1d565b5060009392505050565b600054610100900460ff16610da65760405162461bcd60e51b815260040161017b90611078565b6104d733610ae1565b828054828255906000526020600020908101928215610def5760005260206000209182015b82811115610def578254825591600101919060010190610dd4565b50610dfb929150610e72565b5090565b5080546000825590600052602060002090810190610ac49190610e72565b828054828255906000526020600020908101928215610def579160200282015b82811115610def57825182546001600160a01b0319166001600160a01b03909116178255602090920191600190910190610e3d565b5b80821115610dfb5760008155600101610e73565b600060208284031215610e9957600080fd5b8135610ea481611165565b9392505050565b60008060008060808587031215610ec157600080fd5b8435610ecc81611165565b93506020850135610edc81611165565b93969395505050506040820135916060013590565b600060208284031215610f0357600080fd5b5035919050565b600060208284031215610f1c57600080fd5b5051919050565b60008060408385031215610f3657600080fd5b8235915060208301358015158114610f4d57600080fd5b809150509250929050565b602080825282518282018190526000919060409081850190868401855b82811015610fe857815180516001600160a01b0390811686528782015116878601528581015186860152606080820151908601526080808201519086015260a08082015115159086015260c0808201519086015260e0908101511515908501526101009093019290850190600101610f75565b5091979650505050505050565b6020808252602e908201527f496e697469616c697a61626c653a20636f6e747261637420697320616c72656160408201526d191e481a5b9a5d1a585b1a5e995960921b606082015260800190565b6020808252818101527f4f776e61626c653a2063616c6c6572206973206e6f7420746865206f776e6572604082015260600190565b6020808252602b908201527f496e697469616c697a61626c653a20636f6e7472616374206973206e6f74206960408201526a6e697469616c697a696e6760a81b606082015260800190565b600082198211156110d6576110d661110d565b500190565b6000828210156110ed576110ed61110d565b500390565b60006000198214156111065761110661110d565b5060010190565b634e487b7160e01b600052601160045260246000fd5b634e487b7160e01b600052603160045260246000fd5b634e487b7160e01b600052603260045260246000fd5b634e487b7160e01b600052604160045260246000fd5b6001600160a01b0381168114610ac457600080fdfea2646970667358221220589db83c78873becdb326d54cf03d3638468485822311fc2d694d09bf8f6340764736f6c63430008070033",
  "immutableReferences": {},
  "source": "// SPDX-License-Identifier: MIT\npragma solidity 0.8.7;\n\nimport \"@openzeppelin/contracts-upgradeable/access/OwnableUpgradeable.sol\";\nimport \"@openzeppelin/contracts-upgradeable/proxy/utils/Initializable.sol\";\nimport \"@openzeppelin/contracts-upgradeable/utils/ContextUpgradeable.sol\";\n\nimport \"./TVTV/TVTVToken.sol\";\n\nimport \"./IUpgradeable.sol\";\n\n/**\n * @title Voating manager\n */\ncontract VotingManager is\n    Initializable,\n    ContextUpgradeable,\n    OwnableUpgradeable\n{\n    struct Voting {\n        address proxy;\n        IUpgradeable implementation;\n        uint256 startDateTime;\n        uint256 endDateTime;\n        address[] agree;\n        address[] disagree;\n    }\n\n    struct VotingResult {\n        address proxy;\n        IUpgradeable implementation;\n        uint256 startDateTime;\n        uint256 endDateTime;\n        uint256 agreeNumber;\n        bool isAgree;\n        uint256 disagreeNumber;\n        bool isDisagree;\n    }\n\n    Voting[] internal _votings;\n\n    TVTVToken internal _token;\n\n    error VotingAlreadyFinished(uint256 index, uint256 endDateTime);\n    error VotingAlreadyVoted(uint256 index);\n    error VotingDoesNotExist(uint256 index);\n    error VotingHasNotFinished(uint256 index, uint256 endDateTime);\n    error VotingHasNotStarted(uint256 index, uint256 startDateTime);\n    error VotingNotAuthorize();\n\n    function add(\n        address proxy,\n        IUpgradeable implementation,\n        uint256 startDateTime,\n        uint256 endDateTime\n    ) external onlyOwner {\n        address[] memory result;\n\n        Voting memory voting = Voting({\n            proxy: proxy,\n            implementation: implementation,\n            startDateTime: startDateTime,\n            endDateTime: endDateTime,\n            agree: result,\n            disagree: result\n        });\n\n        _votings.push(voting);\n    }\n\n    function initialize(TVTVToken token) public initializer {\n        __Context_init();\n        __Ownable_init();\n\n        _token = token;\n    }\n\n    function getResult() external view returns (VotingResult[] memory) {\n        address voter = _msgSender();\n\n        VotingResult[] memory votingsResult = new VotingResult[](\n            _votings.length\n        );\n\n        for (uint256 i = 0; i < _votings.length; i++) {\n            Voting memory voting = _votings[i];\n\n            votingsResult[i] = VotingResult({\n                proxy: voting.proxy,\n                implementation: voting.implementation,\n                startDateTime: voting.startDateTime,\n                endDateTime: voting.endDateTime,\n                agreeNumber: voting.agree.length,\n                isAgree: _isInVoters(voting.agree, voter),\n                disagreeNumber: voting.disagree.length,\n                isDisagree: _isInVoters(voting.disagree, voter)\n            });\n        }\n\n        return votingsResult;\n    }\n\n    function getToken() external view returns (TVTVToken token) {\n        return _token;\n    }\n\n    function remove(uint256 index) external onlyOwner {\n        if (!_isExists(index)) {\n            revert VotingDoesNotExist(index);\n        }\n\n        for (uint256 i = index; i < _votings.length - 1; i++) {\n            _votings[i] = _votings[i + 1];\n        }\n\n        _votings.pop();\n    }\n\n    function vote(uint256 index, bool answer) external {\n        address voter = _msgSender();\n\n        if (!_hasToken(voter)) {\n            revert VotingNotAuthorize();\n        }\n\n        Voting storage voting = _get(index);\n\n        if (voting.startDateTime > block.timestamp) {\n            revert VotingHasNotStarted(index, voting.startDateTime);\n        }\n\n        if (voting.endDateTime < block.timestamp) {\n            revert VotingAlreadyFinished(index, voting.endDateTime);\n        }\n\n        if (_isVoted(voting, voter)) {\n            revert VotingAlreadyVoted(index);\n        }\n\n        if (answer) {\n            voting.agree.push(voter);\n        } else {\n            voting.disagree.push(voter);\n        }\n    }\n\n    function _isExists(uint256 index) internal view returns (bool) {\n        return 0 <= index && index <= _votings.length - 1;\n    }\n\n    function _isInVoters(address[] memory voters, address voter)\n        internal\n        pure\n        returns (bool)\n    {\n        for (uint256 i = 0; i < voters.length; i++) {\n            if (voters[i] == voter) {\n                return true;\n            }\n        }\n\n        return false;\n    }\n\n    function _isVoted(Voting memory voting, address voter)\n        internal\n        pure\n        returns (bool)\n    {\n        return\n            _isInVoters(voting.agree, voter) ||\n            _isInVoters(voting.disagree, voter);\n    }\n\n    function _get(uint256 index) internal view returns (Voting storage) {\n        if (!_isExists(index)) {\n            revert VotingDoesNotExist(index);\n        }\n\n        return _votings[index];\n    }\n\n    function _hasToken(address voter) internal view returns (bool) {\n        return _token.balanceOf(voter) > 0;\n    }\n}\n",
  "sourcePath": "/Users/ievgencherkaskyi/Projects/tivan/launchpool/contracts/VotingManager.sol",
  "compiler": {
    "name": "solc",
    "version": "0.8.7+commit.e28d00a7.Emscripten.clang"
  },
  "schemaVersion": "3.3.3",
  "updatedAt": "2022-07-01T08:56:43.734Z",
  "networkType": "ethereum",
  "devdoc": {
    "kind": "dev",
    "methods": {
      "owner()": {
        "details": "Returns the address of the current owner."
      },
      "renounceOwnership()": {
        "details": "Leaves the contract without owner. It will not be possible to call `onlyOwner` functions anymore. Can only be called by the current owner. NOTE: Renouncing ownership will leave the contract without an owner, thereby removing any functionality that is only available to the owner."
      },
      "transferOwnership(address)": {
        "details": "Transfers ownership of the contract to a new account (`newOwner`). Can only be called by the current owner."
      }
    },
    "title": "Voating manager",
    "version": 1
  },
  "userdoc": {
    "kind": "user",
    "methods": {},
    "version": 1
  }
}