{
  "contractName": "VotingManager",
  "abi": [
    {
      "inputs": [
        {
          "internalType": "bytes32",
          "name": "id",
          "type": "bytes32"
        }
      ],
      "name": "VotingAlreadyApproved",
      "type": "error"
    },
    {
      "inputs": [
        {
          "internalType": "bytes32",
          "name": "id",
          "type": "bytes32"
        },
        {
          "internalType": "uint256",
          "name": "endDateTime",
          "type": "uint256"
        }
      ],
      "name": "VotingAlreadyEnded",
      "type": "error"
    },
    {
      "inputs": [
        {
          "internalType": "bytes32",
          "name": "id",
          "type": "bytes32"
        }
      ],
      "name": "VotingAlreadyVoted",
      "type": "error"
    },
    {
      "inputs": [
        {
          "internalType": "bytes32",
          "name": "id",
          "type": "bytes32"
        }
      ],
      "name": "VotingDoesNotExist",
      "type": "error"
    },
    {
      "inputs": [
        {
          "internalType": "bytes32",
          "name": "id",
          "type": "bytes32"
        },
        {
          "internalType": "uint256",
          "name": "endDateTime",
          "type": "uint256"
        }
      ],
      "name": "VotingHasNotFinished",
      "type": "error"
    },
    {
      "inputs": [],
      "name": "VotingNotAuthorize",
      "type": "error"
    },
    {
      "inputs": [
        {
          "internalType": "bytes32",
          "name": "id",
          "type": "bytes32"
        },
        {
          "internalType": "uint256",
          "name": "endDateTime",
          "type": "uint256"
        }
      ],
      "name": "VotingNotEnded",
      "type": "error"
    },
    {
      "inputs": [
        {
          "internalType": "bytes32",
          "name": "id",
          "type": "bytes32"
        }
      ],
      "name": "VotintApprovedIsNotPossible",
      "type": "error"
    },
    {
      "anonymous": false,
      "inputs": [
        {
          "indexed": false,
          "internalType": "uint8",
          "name": "version",
          "type": "uint8"
        }
      ],
      "name": "Initialized",
      "type": "event"
    },
    {
      "anonymous": false,
      "inputs": [
        {
          "indexed": true,
          "internalType": "address",
          "name": "previousOwner",
          "type": "address"
        },
        {
          "indexed": true,
          "internalType": "address",
          "name": "newOwner",
          "type": "address"
        }
      ],
      "name": "OwnershipTransferred",
      "type": "event"
    },
    {
      "anonymous": false,
      "inputs": [
        {
          "indexed": false,
          "internalType": "bytes32",
          "name": "id",
          "type": "bytes32"
        }
      ],
      "name": "VotingManagerAdded",
      "type": "event"
    },
    {
      "inputs": [],
      "name": "owner",
      "outputs": [
        {
          "internalType": "address",
          "name": "",
          "type": "address"
        }
      ],
      "stateMutability": "view",
      "type": "function"
    },
    {
      "inputs": [],
      "name": "renounceOwnership",
      "outputs": [],
      "stateMutability": "nonpayable",
      "type": "function"
    },
    {
      "inputs": [
        {
          "internalType": "address",
          "name": "newOwner",
          "type": "address"
        }
      ],
      "name": "transferOwnership",
      "outputs": [],
      "stateMutability": "nonpayable",
      "type": "function"
    },
    {
      "inputs": [
        {
          "internalType": "address",
          "name": "proxy",
          "type": "address"
        },
        {
          "internalType": "contract IUpgradeable",
          "name": "implementation",
          "type": "address"
        },
        {
          "internalType": "uint256",
          "name": "endDateTime",
          "type": "uint256"
        },
        {
          "internalType": "string",
          "name": "git",
          "type": "string"
        }
      ],
      "name": "add",
      "outputs": [],
      "stateMutability": "nonpayable",
      "type": "function"
    },
    {
      "inputs": [
        {
          "internalType": "bytes32",
          "name": "id",
          "type": "bytes32"
        }
      ],
      "name": "approve",
      "outputs": [],
      "stateMutability": "nonpayable",
      "type": "function"
    },
    {
      "inputs": [
        {
          "internalType": "contract TVTV",
          "name": "token",
          "type": "address"
        }
      ],
      "name": "__VotingManager_init",
      "outputs": [],
      "stateMutability": "nonpayable",
      "type": "function"
    },
    {
      "inputs": [],
      "name": "getResult",
      "outputs": [
        {
          "components": [
            {
              "internalType": "bytes32",
              "name": "id",
              "type": "bytes32"
            },
            {
              "internalType": "address",
              "name": "proxy",
              "type": "address"
            },
            {
              "internalType": "contract IUpgradeable",
              "name": "implementation",
              "type": "address"
            },
            {
              "internalType": "uint256",
              "name": "endDateTime",
              "type": "uint256"
            },
            {
              "internalType": "string",
              "name": "git",
              "type": "string"
            },
            {
              "internalType": "uint256",
              "name": "agreeNumber",
              "type": "uint256"
            },
            {
              "internalType": "bool",
              "name": "isAgree",
              "type": "bool"
            },
            {
              "internalType": "uint256",
              "name": "disagreeNumber",
              "type": "uint256"
            },
            {
              "internalType": "bool",
              "name": "isDisagree",
              "type": "bool"
            },
            {
              "internalType": "uint256",
              "name": "approvedDateTime",
              "type": "uint256"
            }
          ],
          "internalType": "struct VotingManager.VotingResult[]",
          "name": "",
          "type": "tuple[]"
        }
      ],
      "stateMutability": "view",
      "type": "function"
    },
    {
      "inputs": [],
      "name": "getToken",
      "outputs": [
        {
          "internalType": "contract TVTV",
          "name": "token",
          "type": "address"
        }
      ],
      "stateMutability": "view",
      "type": "function"
    },
    {
      "inputs": [
        {
          "internalType": "bytes32",
          "name": "id",
          "type": "bytes32"
        }
      ],
      "name": "remove",
      "outputs": [],
      "stateMutability": "nonpayable",
      "type": "function"
    },
    {
      "inputs": [
        {
          "internalType": "bytes32",
          "name": "id",
          "type": "bytes32"
        },
        {
          "internalType": "bool",
          "name": "answer",
          "type": "bool"
        }
      ],
      "name": "vote",
      "outputs": [],
      "stateMutability": "nonpayable",
      "type": "function"
    }
  ],
  "bytecode": "0x608060405234801561001057600080fd5b5061175e806100206000396000f3fe608060405234801561001057600080fd5b506004361061009e5760003560e01c806395bc26731161006657806395bc26731461010e5780639f2ce67814610121578063a53a1adf14610134578063de29278914610147578063f2fde38b1461015c57600080fd5b806321df0da7146100a357806326c5b516146100cd578063715018a6146100e2578063740c7be3146100ea5780638da5cb5b146100fd575b600080fd5b6066546001600160a01b03165b6040516001600160a01b0390911681526020015b60405180910390f35b6100e06100db3660046112ee565b61016f565b005b6100e06103b3565b6100e06100f83660046112ca565b6103e9565b6033546001600160a01b03166100b0565b6100e061011c3660046113ce565b610482565b6100e061012f3660046113e7565b61068f565b6100e06101423660046113ce565b610938565b61014f6109d7565b6040516100c49190611482565b6100e061016a3660046112ca565b610d26565b6033546001600160a01b031633146101a25760405162461bcd60e51b8152600401610199906115b6565b60405180910390fd5b6040805161010081018252606086811b6bffffffffffffffffffffffff1990811661012084015286821b16610134830152825180830361012801815261014883018452805160209182012083526001600160a01b038089168285019081528189169585019586528385018881526080860188815260a0870186905260c08701869052600060e08801819052606580546001810182559152875160089091027f8ff97419363ffd7000167f130ef7168fbea05faf9251824ca5043f113cc6a7c7810191825593517f8ff97419363ffd7000167f130ef7168fbea05faf9251824ca5043f113cc6a7c8850180549187166001600160a01b031992831617905598517f8ff97419363ffd7000167f130ef7168fbea05faf9251824ca5043f113cc6a7c98501805491909616991698909817909355517f8ff97419363ffd7000167f130ef7168fbea05faf9251824ca5043f113cc6a7ca82015590518051939585949093610330937f8ff97419363ffd7000167f130ef7168fbea05faf9251824ca5043f113cc6a7cb019201906110ce565b5060a0820151805161034c916005840191602090910190611152565b5060c08201518051610368916006840191602090910190611152565b5060e0919091015160079091015580516040519081527f99cc78d80e01fa480754ef20cc3e650993ab0586a39a4f4c4bcd2395add5d2279060200160405180910390a1505050505050565b6033546001600160a01b031633146103dd5760405162461bcd60e51b8152600401610199906115b6565b6103e76000610dc1565b565b60006103f56001610e13565b9050801561040d576000805461ff0019166101001790555b610415610e9b565b61041d610ec2565b606680546001600160a01b0319166001600160a01b038416179055801561047e576000805461ff0019169055604051600181527f7f26b83ff96e1f2b6a682f133852f6798a09c465da95921460cefb38474024989060200160405180910390a15b5050565b6033546001600160a01b031633146104ac5760405162461bcd60e51b8152600401610199906115b6565b6000805b6065546104bf9060019061164e565b81101561060457811580156104f7575082606582815481106104e3576104e36116e7565b906000526020600020906008020160000154145b1561050157600191505b81156105f2576065610514826001611636565b81548110610524576105246116e7565b906000526020600020906008020160658281548110610545576105456116e7565b60009182526020909120825460089092020190815560018083015490820180546001600160a01b039283166001600160a01b03199182161790915560028085015490840180549190931691161790556003808301549082015560048083018054918301916105b290611665565b6105bd9291906111a7565b50600582810180546105d29284019190611222565b50600682810180546105e79284019190611222565b506007918201549101555b806105fc816116a0565b9150506104b0565b506065805480610616576106166116d1565b6000828152602081206008600019909301928302018181556001810180546001600160a01b0319908116909155600282018054909116905560038101829055906106636004830182611261565b61067160058301600061129b565b61067f60068301600061129b565b6007820160009055505090555050565b3361069981610ef1565b6106b657604051631f1fd57560e21b815260040160405180910390fd5b60006106c184610f79565b905042816003015410156106f8576003810154604051630f41b26f60e11b8152610199918691600401918252602082015260400190565b60408051610100810182528254815260018301546001600160a01b03908116602083015260028401541691810191909152600382015460608201526004820180546108a59291849160808401919061074f90611665565b80601f016020809104026020016040519081016040528092919081815260200182805461077b90611665565b80156107c85780601f1061079d576101008083540402835291602001916107c8565b820191906000526020600020905b8154815290600101906020018083116107ab57829003601f168201915b505050505081526020016005820180548060200260200160405190810160405280929190818152602001828054801561082a57602002820191906000526020600020905b81546001600160a01b0316815260019091019060200180831161080c575b505050505081526020016006820180548060200260200160405190810160405280929190818152602001828054801561088c57602002820191906000526020600020905b81546001600160a01b0316815260019091019060200180831161086e575b505050505081526020016007820154815250508361100b565b156108c657604051638df5cb1b60e01b815260048101859052602401610199565b821561090157600581018054600181018255600091825260209091200180546001600160a01b0319166001600160a01b038416179055610932565b600681018054600181018255600091825260209091200180546001600160a01b0319166001600160a01b0384161790555b50505050565b600061094382610f79565b9050806007015460001461096d57604051636bc77dcf60e11b815260048101839052602401610199565b600681015460058201541161099857604051630facc84b60e41b815260048101839052602401610199565b42816003015411156109cd57600381015460405163233e879f60e11b8152610199918491600401918252602082015260400190565b4260079091015550565b606554606090339060009067ffffffffffffffff8111156109fa576109fa6116fd565b604051908082528060200260200182016040528015610a7857816020015b6040805161014081018252600080825260208083018290529282018190526060808301829052608083015260a0820181905260c0820181905260e0820181905261010082018190526101208201528252600019909201910181610a185790505b50905060005b606554811015610d1f57600060658281548110610a9d57610a9d6116e7565b6000918252602091829020604080516101008101825260089093029091018054835260018101546001600160a01b039081169484019490945260028101549093169082015260038201546060820152600482018054919291608084019190610b0490611665565b80601f0160208091040260200160405190810160405280929190818152602001828054610b3090611665565b8015610b7d5780601f10610b5257610100808354040283529160200191610b7d565b820191906000526020600020905b815481529060010190602001808311610b6057829003601f168201915b5050505050815260200160058201805480602002602001604051908101604052809291908181526020018280548015610bdf57602002820191906000526020600020905b81546001600160a01b03168152600190910190602001808311610bc1575b5050505050815260200160068201805480602002602001604051908101604052809291908181526020018280548015610c4157602002820191906000526020600020905b81546001600160a01b03168152600190910190602001808311610c23575b5050505050815260200160078201548152505090506040518061014001604052808260000151815260200182602001516001600160a01b0316815260200182604001516001600160a01b0316815260200182606001518152602001826080015181526020018260a00151518152602001610cbf8360a0015187611038565b151581526020018260c00151518152602001610cdf8360c0015187611038565b151581526020018260e00151815250838381518110610d0057610d006116e7565b6020026020010181905250508080610d17906116a0565b915050610a7e565b5092915050565b6033546001600160a01b03163314610d505760405162461bcd60e51b8152600401610199906115b6565b6001600160a01b038116610db55760405162461bcd60e51b815260206004820152602660248201527f4f776e61626c653a206e6577206f776e657220697320746865207a65726f206160448201526564647265737360d01b6064820152608401610199565b610dbe81610dc1565b50565b603380546001600160a01b038381166001600160a01b0319831681179093556040519116919082907f8be0079c531659141344cd1fd0a4f28419497f9722a3daafe3b4186f6b6457e090600090a35050565b60008054610100900460ff1615610e5a578160ff166001148015610e365750303b155b610e525760405162461bcd60e51b815260040161019990611568565b506000919050565b60005460ff808416911610610e815760405162461bcd60e51b815260040161019990611568565b506000805460ff191660ff92909216919091179055600190565b600054610100900460ff166103e75760405162461bcd60e51b8152600401610199906115eb565b600054610100900460ff16610ee95760405162461bcd60e51b8152600401610199906115eb565b6103e761109e565b6066546040516370a0823160e01b81526001600160a01b03838116600483015260009283929116906370a082319060240160206040518083038186803b158015610f3a57600080fd5b505afa158015610f4e573d6000803e3d6000fd5b505050506040513d601f19601f82011682018060405250810190610f72919061141c565b1192915050565b6000805b606554811015610fee578260658281548110610f9b57610f9b6116e7565b9060005260206000209060080201600001541415610fdc5760658181548110610fc657610fc66116e7565b9060005260206000209060080201915050919050565b80610fe6816116a0565b915050610f7d565b50604051635306c40b60e01b815260048101839052602401610199565b600061101b8360a0015183611038565b8061102f575061102f8360c0015183611038565b90505b92915050565b6000805b835181101561109457826001600160a01b0316848281518110611061576110616116e7565b60200260200101516001600160a01b03161415611082576001915050611032565b8061108c816116a0565b91505061103c565b5060009392505050565b600054610100900460ff166110c55760405162461bcd60e51b8152600401610199906115eb565b6103e733610dc1565b8280546110da90611665565b90600052602060002090601f0160209004810192826110fc5760008555611142565b82601f1061111557805160ff1916838001178555611142565b82800160010185558215611142579182015b82811115611142578251825591602001919060010190611127565b5061114e9291506112b5565b5090565b828054828255906000526020600020908101928215611142579160200282015b8281111561114257825182546001600160a01b0319166001600160a01b03909116178255602090920191600190910190611172565b8280546111b390611665565b90600052602060002090601f0160209004810192826111d55760008555611142565b82601f106111e65780548555611142565b8280016001018555821561114257600052602060002091601f016020900482015b82811115611142578254825591600101919060010190611207565b82805482825590600052602060002090810192821561114257600052602060002091820182811115611142578254825591600101919060010190611207565b50805461126d90611665565b6000825580601f1061127d575050565b601f016020900490600052602060002090810190610dbe91906112b5565b5080546000825590600052602060002090810190610dbe91905b5b8082111561114e57600081556001016112b6565b6000602082840312156112dc57600080fd5b81356112e781611713565b9392505050565b6000806000806080858703121561130457600080fd5b843561130f81611713565b9350602085013561131f81611713565b925060408501359150606085013567ffffffffffffffff8082111561134357600080fd5b818701915087601f83011261135757600080fd5b813581811115611369576113696116fd565b604051601f8201601f19908116603f01168101908382118183101715611391576113916116fd565b816040528281528a60208487010111156113aa57600080fd5b82602086016020830137600060208483010152809550505050505092959194509250565b6000602082840312156113e057600080fd5b5035919050565b600080604083850312156113fa57600080fd5b823591506020830135801515811461141157600080fd5b809150509250929050565b60006020828403121561142e57600080fd5b5051919050565b6000815180845260005b8181101561145b5760208185018101518683018201520161143f565b8181111561146d576000602083870101525b50601f01601f19169290920160200192915050565b60006020808301818452808551808352604092508286019150828160051b87010184880160005b8381101561155a57603f19898403018552815180518452878101516001600160a01b039081168986015287820151168785015260608082015190850152608080820151610140828701819052919061150383880182611435565b9250505060a080830151818701525060c0808301516115258288018215159052565b505060e082810151908601526101008083015115159086015261012091820151919094015293860193908601906001016114a9565b509098975050505050505050565b6020808252602e908201527f496e697469616c697a61626c653a20636f6e747261637420697320616c72656160408201526d191e481a5b9a5d1a585b1a5e995960921b606082015260800190565b6020808252818101527f4f776e61626c653a2063616c6c6572206973206e6f7420746865206f776e6572604082015260600190565b6020808252602b908201527f496e697469616c697a61626c653a20636f6e7472616374206973206e6f74206960408201526a6e697469616c697a696e6760a81b606082015260800190565b60008219821115611649576116496116bb565b500190565b600082821015611660576116606116bb565b500390565b600181811c9082168061167957607f821691505b6020821081141561169a57634e487b7160e01b600052602260045260246000fd5b50919050565b60006000198214156116b4576116b46116bb565b5060010190565b634e487b7160e01b600052601160045260246000fd5b634e487b7160e01b600052603160045260246000fd5b634e487b7160e01b600052603260045260246000fd5b634e487b7160e01b600052604160045260246000fd5b6001600160a01b0381168114610dbe57600080fdfea2646970667358221220027e83f02ba65dcc7f2721b9c94175e95be47b9fec278bcf74ccebbf9851390064736f6c63430008070033",
  "immutableReferences": {},
  "source": "// SPDX-License-Identifier: MIT\npragma solidity 0.8.7;\n\nimport \"@openzeppelin/contracts-upgradeable/access/OwnableUpgradeable.sol\";\nimport \"@openzeppelin/contracts-upgradeable/proxy/utils/Initializable.sol\";\nimport \"@openzeppelin/contracts-upgradeable/utils/ContextUpgradeable.sol\";\n\nimport \"./TVTV/TVTV.sol\";\n\nimport \"./IUpgradeable.sol\";\n\n/**\n * @title Voating manager\n */\ncontract VotingManager is\n    Initializable,\n    ContextUpgradeable,\n    OwnableUpgradeable\n{\n    struct Voting {\n        bytes32 id;\n        address proxy;\n        IUpgradeable implementation;\n        uint256 endDateTime;\n        string git;\n        address[] agree;\n        address[] disagree;\n        uint256 approvedDateTime;\n    }\n\n    struct VotingResult {\n        bytes32 id;\n        address proxy;\n        IUpgradeable implementation;\n        uint256 endDateTime;\n        string git;\n        uint256 agreeNumber;\n        bool isAgree;\n        uint256 disagreeNumber;\n        bool isDisagree;\n        uint256 approvedDateTime;\n    }\n\n    Voting[] internal _votings;\n\n    TVTV internal _token;\n\n    error VotingAlreadyApproved(bytes32 id);\n    error VotingAlreadyEnded(bytes32 id, uint256 endDateTime);\n    error VotingAlreadyVoted(bytes32 id);\n    error VotingDoesNotExist(bytes32 id);\n    error VotingHasNotFinished(bytes32 id, uint256 endDateTime);\n    error VotingNotAuthorize();\n    error VotingNotEnded(bytes32 id, uint256 endDateTime);\n    error VotintApprovedIsNotPossible(bytes32 id);\n\n    event VotingManagerAdded(bytes32 id);\n\n    function add(\n        address proxy,\n        IUpgradeable implementation,\n        uint256 endDateTime,\n        string memory git\n    ) external onlyOwner {\n        address[] memory result;\n\n        Voting memory voting = Voting({\n            id: keccak256(abi.encodePacked(proxy, implementation)),\n            proxy: proxy,\n            implementation: implementation,\n            endDateTime: endDateTime,\n            git: git,\n            agree: result,\n            disagree: result,\n            approvedDateTime: 0\n        });\n\n        _votings.push(voting);\n\n        emit VotingManagerAdded(voting.id);\n    }\n\n    function approve(bytes32 id) external {\n        Voting storage voting = _get(id);\n\n        if (voting.approvedDateTime != 0) {\n            revert VotingAlreadyApproved(id);\n        }\n\n        if (voting.agree.length <= voting.disagree.length) {\n            revert VotintApprovedIsNotPossible(id);\n        }\n\n        if (voting.endDateTime > block.timestamp) {\n            revert VotingNotEnded(id, voting.endDateTime);\n        }\n\n        voting.approvedDateTime = block.timestamp;\n    }\n\n    function __VotingManager_init(TVTV token) public initializer {\n        __Context_init();\n        __Ownable_init();\n\n        _token = token;\n    }\n\n    function getResult() external view returns (VotingResult[] memory) {\n        address voter = _msgSender();\n\n        VotingResult[] memory votingsResult = new VotingResult[](\n            _votings.length\n        );\n\n        for (uint256 i = 0; i < _votings.length; i++) {\n            Voting memory voting = _votings[i];\n\n            votingsResult[i] = VotingResult({\n                id: voting.id,\n                proxy: voting.proxy,\n                implementation: voting.implementation,\n                endDateTime: voting.endDateTime,\n                git: voting.git,\n                agreeNumber: voting.agree.length,\n                isAgree: _isInVoters(voting.agree, voter),\n                disagreeNumber: voting.disagree.length,\n                isDisagree: _isInVoters(voting.disagree, voter),\n                approvedDateTime: voting.approvedDateTime\n            });\n        }\n\n        return votingsResult;\n    }\n\n    function getToken() external view returns (TVTV token) {\n        return _token;\n    }\n\n    function remove(bytes32 id) external onlyOwner {\n        bool found = false;\n\n        for (uint256 i = 0; i < _votings.length - 1; i++) {\n            if (!found && _votings[i].id == id) {\n                found = true;\n            }\n\n            if (found) {\n                _votings[i] = _votings[i + 1];\n            }\n        }\n\n        _votings.pop();\n    }\n\n    function vote(bytes32 id, bool answer) external {\n        address voter = _msgSender();\n\n        if (!_hasToken(voter)) {\n            revert VotingNotAuthorize();\n        }\n\n        Voting storage voting = _get(id);\n\n        if (voting.endDateTime < block.timestamp) {\n            revert VotingAlreadyEnded(id, voting.endDateTime);\n        }\n\n        if (_isVoted(voting, voter)) {\n            revert VotingAlreadyVoted(id);\n        }\n\n        if (answer) {\n            voting.agree.push(voter);\n        } else {\n            voting.disagree.push(voter);\n        }\n    }\n\n    function _isInVoters(address[] memory voters, address voter)\n        internal\n        pure\n        returns (bool)\n    {\n        for (uint256 i = 0; i < voters.length; i++) {\n            if (voters[i] == voter) {\n                return true;\n            }\n        }\n\n        return false;\n    }\n\n    function _isVoted(Voting memory voting, address voter)\n        internal\n        pure\n        returns (bool)\n    {\n        return\n            _isInVoters(voting.agree, voter) ||\n            _isInVoters(voting.disagree, voter);\n    }\n\n    function _get(bytes32 id) internal view returns (Voting storage) {\n        for (uint256 i = 0; i < _votings.length; i++) {\n            if (_votings[i].id == id) {\n                return _votings[i];\n            }\n        }\n\n        revert VotingDoesNotExist(id);\n    }\n\n    function _hasToken(address voter) internal view returns (bool) {\n        return _token.balanceOf(voter) > 0;\n    }\n}\n",
  "sourcePath": "/Users/ievgencherkaskyi/Projects/tivan/hexagons/contracts/VotingManager.sol",
  "compiler": {
    "name": "solc",
    "version": "0.8.7+commit.e28d00a7.Emscripten.clang"
  },
  "schemaVersion": "3.3.3",
  "updatedAt": "2022-07-11T22:06:52.819Z",
  "devdoc": {
    "kind": "dev",
    "methods": {
      "owner()": {
        "details": "Returns the address of the current owner."
      },
      "renounceOwnership()": {
        "details": "Leaves the contract without owner. It will not be possible to call `onlyOwner` functions anymore. Can only be called by the current owner. NOTE: Renouncing ownership will leave the contract without an owner, thereby removing any functionality that is only available to the owner."
      },
      "transferOwnership(address)": {
        "details": "Transfers ownership of the contract to a new account (`newOwner`). Can only be called by the current owner."
      }
    },
    "title": "Voating manager",
    "version": 1
  },
  "userdoc": {
    "kind": "user",
    "methods": {},
    "version": 1
  }
}