{
  "contractName": "VotingManager",
  "abi": [
    {
      "inputs": [
        {
          "internalType": "bytes32",
          "name": "id",
          "type": "bytes32"
        }
      ],
      "name": "VotingAlreadyApproved",
      "type": "error"
    },
    {
      "inputs": [
        {
          "internalType": "bytes32",
          "name": "id",
          "type": "bytes32"
        },
        {
          "internalType": "uint256",
          "name": "endDateTime",
          "type": "uint256"
        }
      ],
      "name": "VotingAlreadyEnded",
      "type": "error"
    },
    {
      "inputs": [
        {
          "internalType": "bytes32",
          "name": "id",
          "type": "bytes32"
        }
      ],
      "name": "VotingAlreadyVoted",
      "type": "error"
    },
    {
      "inputs": [
        {
          "internalType": "bytes32",
          "name": "id",
          "type": "bytes32"
        }
      ],
      "name": "VotingDoesNotExist",
      "type": "error"
    },
    {
      "inputs": [
        {
          "internalType": "bytes32",
          "name": "id",
          "type": "bytes32"
        },
        {
          "internalType": "uint256",
          "name": "endDateTime",
          "type": "uint256"
        }
      ],
      "name": "VotingHasNotFinished",
      "type": "error"
    },
    {
      "inputs": [],
      "name": "VotingNotAuthorize",
      "type": "error"
    },
    {
      "inputs": [
        {
          "internalType": "bytes32",
          "name": "id",
          "type": "bytes32"
        },
        {
          "internalType": "uint256",
          "name": "endDateTime",
          "type": "uint256"
        }
      ],
      "name": "VotingNotEnded",
      "type": "error"
    },
    {
      "inputs": [
        {
          "internalType": "bytes32",
          "name": "id",
          "type": "bytes32"
        }
      ],
      "name": "VotintApprovedIsNotPossible",
      "type": "error"
    },
    {
      "anonymous": false,
      "inputs": [
        {
          "indexed": false,
          "internalType": "uint8",
          "name": "version",
          "type": "uint8"
        }
      ],
      "name": "Initialized",
      "type": "event"
    },
    {
      "anonymous": false,
      "inputs": [
        {
          "indexed": true,
          "internalType": "address",
          "name": "previousOwner",
          "type": "address"
        },
        {
          "indexed": true,
          "internalType": "address",
          "name": "newOwner",
          "type": "address"
        }
      ],
      "name": "OwnershipTransferred",
      "type": "event"
    },
    {
      "anonymous": false,
      "inputs": [
        {
          "indexed": false,
          "internalType": "bytes32",
          "name": "id",
          "type": "bytes32"
        }
      ],
      "name": "VotingManagerAdded",
      "type": "event"
    },
    {
      "inputs": [],
      "name": "owner",
      "outputs": [
        {
          "internalType": "address",
          "name": "",
          "type": "address"
        }
      ],
      "stateMutability": "view",
      "type": "function"
    },
    {
      "inputs": [],
      "name": "renounceOwnership",
      "outputs": [],
      "stateMutability": "nonpayable",
      "type": "function"
    },
    {
      "inputs": [
        {
          "internalType": "address",
          "name": "newOwner",
          "type": "address"
        }
      ],
      "name": "transferOwnership",
      "outputs": [],
      "stateMutability": "nonpayable",
      "type": "function"
    },
    {
      "inputs": [
        {
          "internalType": "address",
          "name": "proxy",
          "type": "address"
        },
        {
          "internalType": "contract IUpgradeable",
          "name": "implementation",
          "type": "address"
        },
        {
          "internalType": "uint256",
          "name": "endDateTime",
          "type": "uint256"
        }
      ],
      "name": "add",
      "outputs": [],
      "stateMutability": "nonpayable",
      "type": "function"
    },
    {
      "inputs": [
        {
          "internalType": "bytes32",
          "name": "id",
          "type": "bytes32"
        }
      ],
      "name": "approve",
      "outputs": [],
      "stateMutability": "nonpayable",
      "type": "function"
    },
    {
      "inputs": [
        {
          "internalType": "contract TVTVToken",
          "name": "token",
          "type": "address"
        }
      ],
      "name": "initialize",
      "outputs": [],
      "stateMutability": "nonpayable",
      "type": "function"
    },
    {
      "inputs": [],
      "name": "getResult",
      "outputs": [
        {
          "components": [
            {
              "internalType": "bytes32",
              "name": "id",
              "type": "bytes32"
            },
            {
              "internalType": "address",
              "name": "proxy",
              "type": "address"
            },
            {
              "internalType": "contract IUpgradeable",
              "name": "implementation",
              "type": "address"
            },
            {
              "internalType": "uint256",
              "name": "endDateTime",
              "type": "uint256"
            },
            {
              "internalType": "uint256",
              "name": "agreeNumber",
              "type": "uint256"
            },
            {
              "internalType": "bool",
              "name": "isAgree",
              "type": "bool"
            },
            {
              "internalType": "uint256",
              "name": "disagreeNumber",
              "type": "uint256"
            },
            {
              "internalType": "bool",
              "name": "isDisagree",
              "type": "bool"
            },
            {
              "internalType": "uint256",
              "name": "approvedDateTime",
              "type": "uint256"
            }
          ],
          "internalType": "struct VotingManager.VotingResult[]",
          "name": "",
          "type": "tuple[]"
        }
      ],
      "stateMutability": "view",
      "type": "function"
    },
    {
      "inputs": [],
      "name": "getToken",
      "outputs": [
        {
          "internalType": "contract TVTVToken",
          "name": "token",
          "type": "address"
        }
      ],
      "stateMutability": "view",
      "type": "function"
    },
    {
      "inputs": [
        {
          "internalType": "bytes32",
          "name": "id",
          "type": "bytes32"
        }
      ],
      "name": "remove",
      "outputs": [],
      "stateMutability": "nonpayable",
      "type": "function"
    },
    {
      "inputs": [
        {
          "internalType": "bytes32",
          "name": "id",
          "type": "bytes32"
        },
        {
          "internalType": "bool",
          "name": "answer",
          "type": "bool"
        }
      ],
      "name": "vote",
      "outputs": [],
      "stateMutability": "nonpayable",
      "type": "function"
    }
  ],
  "bytecode": "0x608060405234801561001057600080fd5b50611333806100206000396000f3fe608060405234801561001057600080fd5b506004361061009e5760003560e01c80639f2ce678116100665780639f2ce6781461010e578063a53a1adf14610121578063c4d66de814610134578063de29278914610147578063f2fde38b1461015c57600080fd5b806321df0da7146100a3578063551f8e2a146100cd578063715018a6146100e25780638da5cb5b146100ea57806395bc2673146100fb575b600080fd5b6066546001600160a01b03165b6040516001600160a01b0390911681526020015b60405180910390f35b6100e06100db366004611028565b61016f565b005b6100e061038e565b6033546001600160a01b03166100b0565b6100e0610109366004611069565b6103c4565b6100e061011c366004611082565b6105a3565b6100e061012f366004611069565b6107b3565b6100e0610142366004611004565b610852565b61014f6108eb565b6040516100c491906110d0565b6100e061016a366004611004565b610b88565b6033546001600160a01b031633146101a25760405162461bcd60e51b8152600401610199906111c6565b60405180910390fd5b6040805160e081018252606085811b6bffffffffffffffffffffffff1990811661010084015285821b16610114830152825180830361010801815261012883018452805160209182012083526001600160a01b038088168285019081528188169585019586528385018781526080860185815260a08701869052600060c08801819052606580546001810182559152875160079091027f8ff97419363ffd7000167f130ef7168fbea05faf9251824ca5043f113cc6a7c7810191825593517f8ff97419363ffd7000167f130ef7168fbea05faf9251824ca5043f113cc6a7c8850180549187166001600160a01b031992831617905598517f8ff97419363ffd7000167f130ef7168fbea05faf9251824ca5043f113cc6a7c98501805491909616991698909817909355517f8ff97419363ffd7000167f130ef7168fbea05faf9251824ca5043f113cc6a7ca82015590518051939585949093610328937f8ff97419363ffd7000167f130ef7168fbea05faf9251824ca5043f113cc6a7cb01920190610f30565b5060a08201518051610344916005840191602090910190610f30565b5060c0919091015160069091015580516040519081527f99cc78d80e01fa480754ef20cc3e650993ab0586a39a4f4c4bcd2395add5d2279060200160405180910390a15050505050565b6033546001600160a01b031633146103b85760405162461bcd60e51b8152600401610199906111c6565b6103c26000610c23565b565b6033546001600160a01b031633146103ee5760405162461bcd60e51b8152600401610199906111c6565b6000805b6065546104019060019061125e565b811015610526578115801561043957508260658281548110610425576104256112bc565b906000526020600020906007020160000154145b1561044357600191505b8115610514576065610456826001611246565b81548110610466576104666112bc565b906000526020600020906007020160658281548110610487576104876112bc565b60009182526020909120825460079092020190815560018083015490820180546001600160a01b039283166001600160a01b031991821617909155600280850154908401805491909316911617905560038083015490820155600480830180546104f49284019190610f95565b50600582810180546105099284019190610f95565b506006918201549101555b8061051e81611275565b9150506103f2565b506065805480610538576105386112a6565b6000828152602081206007600019909301928302018181556001810180546001600160a01b0319908116909155600282018054909116905560038101829055906105856004830182610fd5565b610593600583016000610fd5565b6006820160009055505090555050565b336105ad81610c75565b6105ca57604051631f1fd57560e21b815260040160405180910390fd5b60006105d584610cfd565b9050428160030154101561060c576003810154604051630f41b26f60e11b8152610199918691600401918252602082015260400190565b6040805160e0810182528254815260018301546001600160a01b039081166020808401919091526002850154909116828401526003840154606083015260048401805484518184028101840190955280855261072094869360808601939192908301828280156106a557602002820191906000526020600020905b81546001600160a01b03168152600190910190602001808311610687575b505050505081526020016005820180548060200260200160405190810160405280929190818152602001828054801561070757602002820191906000526020600020905b81546001600160a01b031681526001909101906020018083116106e9575b5050505050815260200160068201548152505083610d8f565b1561074157604051638df5cb1b60e01b815260048101859052602401610199565b821561077c57600481018054600181018255600091825260209091200180546001600160a01b0319166001600160a01b0384161790556107ad565b600581018054600181018255600091825260209091200180546001600160a01b0319166001600160a01b0384161790555b50505050565b60006107be82610cfd565b905080600601546000146107e857604051636bc77dcf60e11b815260048101839052602401610199565b600581015460048201541161081357604051630facc84b60e41b815260048101839052602401610199565b428160030154111561084857600381015460405163233e879f60e11b8152610199918491600401918252602082015260400190565b4260069091015550565b600061085e6001610dbc565b90508015610876576000805461ff0019166101001790555b61087e610e44565b610886610e6b565b606680546001600160a01b0319166001600160a01b03841617905580156108e7576000805461ff0019169055604051600181527f7f26b83ff96e1f2b6a682f133852f6798a09c465da95921460cefb38474024989060200160405180910390a15b5050565b606554606090339060009067ffffffffffffffff81111561090e5761090e6112d2565b60405190808252806020026020018201604052801561098557816020015b604080516101208101825260008082526020808301829052928201819052606082018190526080820181905260a0820181905260c0820181905260e08201819052610100820152825260001990920191018161092c5790505b50905060005b606554811015610b81576000606582815481106109aa576109aa6112bc565b60009182526020918290206040805160e08101825260079093029091018054835260018101546001600160a01b0390811684860152600282015416838301526003810154606084015260048101805483518187028101870190945280845293949193608086019392830182828015610a4b57602002820191906000526020600020905b81546001600160a01b03168152600190910190602001808311610a2d575b5050505050815260200160058201805480602002602001604051908101604052809291908181526020018280548015610aad57602002820191906000526020600020905b81546001600160a01b03168152600190910190602001808311610a8f575b5050505050815260200160068201548152505090506040518061012001604052808260000151815260200182602001516001600160a01b0316815260200182604001516001600160a01b03168152602001826060015181526020018260800151518152602001610b21836080015187610e9a565b151581526020018260a00151518152602001610b418360a0015187610e9a565b151581526020018260c00151815250838381518110610b6257610b626112bc565b6020026020010181905250508080610b7990611275565b91505061098b565b5092915050565b6033546001600160a01b03163314610bb25760405162461bcd60e51b8152600401610199906111c6565b6001600160a01b038116610c175760405162461bcd60e51b815260206004820152602660248201527f4f776e61626c653a206e6577206f776e657220697320746865207a65726f206160448201526564647265737360d01b6064820152608401610199565b610c2081610c23565b50565b603380546001600160a01b038381166001600160a01b0319831681179093556040519116919082907f8be0079c531659141344cd1fd0a4f28419497f9722a3daafe3b4186f6b6457e090600090a35050565b6066546040516370a0823160e01b81526001600160a01b03838116600483015260009283929116906370a082319060240160206040518083038186803b158015610cbe57600080fd5b505afa158015610cd2573d6000803e3d6000fd5b505050506040513d601f19601f82011682018060405250810190610cf691906110b7565b1192915050565b6000805b606554811015610d72578260658281548110610d1f57610d1f6112bc565b9060005260206000209060070201600001541415610d605760658181548110610d4a57610d4a6112bc565b9060005260206000209060070201915050919050565b80610d6a81611275565b915050610d01565b50604051635306c40b60e01b815260048101839052602401610199565b6000610d9f836080015183610e9a565b80610db35750610db38360a0015183610e9a565b90505b92915050565b60008054610100900460ff1615610e03578160ff166001148015610ddf5750303b155b610dfb5760405162461bcd60e51b815260040161019990611178565b506000919050565b60005460ff808416911610610e2a5760405162461bcd60e51b815260040161019990611178565b506000805460ff191660ff92909216919091179055600190565b600054610100900460ff166103c25760405162461bcd60e51b8152600401610199906111fb565b600054610100900460ff16610e925760405162461bcd60e51b8152600401610199906111fb565b6103c2610f00565b6000805b8351811015610ef657826001600160a01b0316848281518110610ec357610ec36112bc565b60200260200101516001600160a01b03161415610ee4576001915050610db6565b80610eee81611275565b915050610e9e565b5060009392505050565b600054610100900460ff16610f275760405162461bcd60e51b8152600401610199906111fb565b6103c233610c23565b828054828255906000526020600020908101928215610f85579160200282015b82811115610f8557825182546001600160a01b0319166001600160a01b03909116178255602090920191600190910190610f50565b50610f91929150610fef565b5090565b828054828255906000526020600020908101928215610f855760005260206000209182015b82811115610f85578254825591600101919060010190610fba565b5080546000825590600052602060002090810190610c2091905b5b80821115610f915760008155600101610ff0565b60006020828403121561101657600080fd5b8135611021816112e8565b9392505050565b60008060006060848603121561103d57600080fd5b8335611048816112e8565b92506020840135611058816112e8565b929592945050506040919091013590565b60006020828403121561107b57600080fd5b5035919050565b6000806040838503121561109557600080fd5b82359150602083013580151581146110ac57600080fd5b809150509250929050565b6000602082840312156110c957600080fd5b5051919050565b602080825282518282018190526000919060409081850190868401855b8281101561116b57815180518552868101516001600160a01b0390811688870152868201511686860152606080820151908601526080808201519086015260a08082015115159086015260c0808201519086015260e080820151151590860152610100908101519085015261012090930192908501906001016110ed565b5091979650505050505050565b6020808252602e908201527f496e697469616c697a61626c653a20636f6e747261637420697320616c72656160408201526d191e481a5b9a5d1a585b1a5e995960921b606082015260800190565b6020808252818101527f4f776e61626c653a2063616c6c6572206973206e6f7420746865206f776e6572604082015260600190565b6020808252602b908201527f496e697469616c697a61626c653a20636f6e7472616374206973206e6f74206960408201526a6e697469616c697a696e6760a81b606082015260800190565b6000821982111561125957611259611290565b500190565b60008282101561127057611270611290565b500390565b600060001982141561128957611289611290565b5060010190565b634e487b7160e01b600052601160045260246000fd5b634e487b7160e01b600052603160045260246000fd5b634e487b7160e01b600052603260045260246000fd5b634e487b7160e01b600052604160045260246000fd5b6001600160a01b0381168114610c2057600080fdfea2646970667358221220ca943de9101a54954f5855e968377cf328d31183d35ecb10b995d3b8b4e10d2d64736f6c63430008070033",
  "immutableReferences": {},
  "source": "// SPDX-License-Identifier: MIT\npragma solidity 0.8.7;\n\nimport \"@openzeppelin/contracts-upgradeable/access/OwnableUpgradeable.sol\";\nimport \"@openzeppelin/contracts-upgradeable/proxy/utils/Initializable.sol\";\nimport \"@openzeppelin/contracts-upgradeable/utils/ContextUpgradeable.sol\";\n\nimport \"./TVTV/TVTVToken.sol\";\n\nimport \"./IUpgradeable.sol\";\n\n/**\n * @title Voating manager\n */\ncontract VotingManager is\n    Initializable,\n    ContextUpgradeable,\n    OwnableUpgradeable\n{\n    struct Voting {\n        bytes32 id;\n        address proxy;\n        IUpgradeable implementation;\n        uint256 endDateTime;\n        address[] agree;\n        address[] disagree;\n        uint256 approvedDateTime;\n    }\n\n    struct VotingResult {\n        bytes32 id;\n        address proxy;\n        IUpgradeable implementation;\n        uint256 endDateTime;\n        uint256 agreeNumber;\n        bool isAgree;\n        uint256 disagreeNumber;\n        bool isDisagree;\n        uint256 approvedDateTime;\n    }\n\n    Voting[] internal _votings;\n\n    TVTVToken internal _token;\n\n    error VotingAlreadyApproved(bytes32 id);\n    error VotingAlreadyEnded(bytes32 id, uint256 endDateTime);\n    error VotingAlreadyVoted(bytes32 id);\n    error VotingDoesNotExist(bytes32 id);\n    error VotingHasNotFinished(bytes32 id, uint256 endDateTime);\n    error VotingNotAuthorize();\n    error VotingNotEnded(bytes32 id, uint256 endDateTime);\n    error VotintApprovedIsNotPossible(bytes32 id);\n\n    event VotingManagerAdded(bytes32 id);\n\n    function add(\n        address proxy,\n        IUpgradeable implementation,\n        uint256 endDateTime\n    ) external onlyOwner {\n        address[] memory result;\n\n        Voting memory voting = Voting({\n            id: keccak256(abi.encodePacked(proxy, implementation)),\n            proxy: proxy,\n            implementation: implementation,\n            endDateTime: endDateTime,\n            agree: result,\n            disagree: result,\n            approvedDateTime: 0\n        });\n\n        _votings.push(voting);\n\n        emit VotingManagerAdded(voting.id);\n    }\n\n    function approve(bytes32 id) external {\n        Voting storage voting = _get(id);\n\n        if (voting.approvedDateTime != 0) {\n            revert VotingAlreadyApproved(id);\n        }\n\n        if (voting.agree.length <= voting.disagree.length) {\n            revert VotintApprovedIsNotPossible(id);\n        }\n\n        if (voting.endDateTime > block.timestamp) {\n            revert VotingNotEnded(id, voting.endDateTime);\n        }\n\n        voting.approvedDateTime = block.timestamp;\n    }\n\n    function initialize(TVTVToken token) public initializer {\n        __Context_init();\n        __Ownable_init();\n\n        _token = token;\n    }\n\n    function getResult() external view returns (VotingResult[] memory) {\n        address voter = _msgSender();\n\n        VotingResult[] memory votingsResult = new VotingResult[](\n            _votings.length\n        );\n\n        for (uint256 i = 0; i < _votings.length; i++) {\n            Voting memory voting = _votings[i];\n\n            votingsResult[i] = VotingResult({\n                id: voting.id,\n                proxy: voting.proxy,\n                implementation: voting.implementation,\n                endDateTime: voting.endDateTime,\n                agreeNumber: voting.agree.length,\n                isAgree: _isInVoters(voting.agree, voter),\n                disagreeNumber: voting.disagree.length,\n                isDisagree: _isInVoters(voting.disagree, voter),\n                approvedDateTime: voting.approvedDateTime\n            });\n        }\n\n        return votingsResult;\n    }\n\n    function getToken() external view returns (TVTVToken token) {\n        return _token;\n    }\n\n    function remove(bytes32 id) external onlyOwner {\n        bool found = false;\n\n        for (uint256 i = 0; i < _votings.length - 1; i++) {\n            if (!found && _votings[i].id == id) {\n                found = true;\n            }\n\n            if (found) {\n                _votings[i] = _votings[i + 1];\n            }\n        }\n\n        _votings.pop();\n    }\n\n    function vote(bytes32 id, bool answer) external {\n        address voter = _msgSender();\n\n        if (!_hasToken(voter)) {\n            revert VotingNotAuthorize();\n        }\n\n        Voting storage voting = _get(id);\n\n        if (voting.endDateTime < block.timestamp) {\n            revert VotingAlreadyEnded(id, voting.endDateTime);\n        }\n\n        if (_isVoted(voting, voter)) {\n            revert VotingAlreadyVoted(id);\n        }\n\n        if (answer) {\n            voting.agree.push(voter);\n        } else {\n            voting.disagree.push(voter);\n        }\n    }\n\n    function _isInVoters(address[] memory voters, address voter)\n        internal\n        pure\n        returns (bool)\n    {\n        for (uint256 i = 0; i < voters.length; i++) {\n            if (voters[i] == voter) {\n                return true;\n            }\n        }\n\n        return false;\n    }\n\n    function _isVoted(Voting memory voting, address voter)\n        internal\n        pure\n        returns (bool)\n    {\n        return\n            _isInVoters(voting.agree, voter) ||\n            _isInVoters(voting.disagree, voter);\n    }\n\n    function _get(bytes32 id) internal view returns (Voting storage) {\n        for (uint256 i = 0; i < _votings.length; i++) {\n            if (_votings[i].id == id) {\n                return _votings[i];\n            }\n        }\n\n        revert VotingDoesNotExist(id);\n    }\n\n    function _hasToken(address voter) internal view returns (bool) {\n        return _token.balanceOf(voter) > 0;\n    }\n}\n",
  "sourcePath": "/Users/ievgencherkaskyi/Projects/tivan/launchpool/contracts/VotingManager.sol",
  "compiler": {
    "name": "solc",
    "version": "0.8.7+commit.e28d00a7.Emscripten.clang"
  },
  "schemaVersion": "3.3.3",
  "updatedAt": "2022-07-02T07:41:52.292Z",
  "devdoc": {
    "kind": "dev",
    "methods": {
      "owner()": {
        "details": "Returns the address of the current owner."
      },
      "renounceOwnership()": {
        "details": "Leaves the contract without owner. It will not be possible to call `onlyOwner` functions anymore. Can only be called by the current owner. NOTE: Renouncing ownership will leave the contract without an owner, thereby removing any functionality that is only available to the owner."
      },
      "transferOwnership(address)": {
        "details": "Transfers ownership of the contract to a new account (`newOwner`). Can only be called by the current owner."
      }
    },
    "title": "Voating manager",
    "version": 1
  },
  "userdoc": {
    "kind": "user",
    "methods": {},
    "version": 1
  }
}