{
  "contractName": "Wallet",
  "abi": [
    {
      "anonymous": false,
      "inputs": [
        {
          "indexed": false,
          "internalType": "uint8",
          "name": "version",
          "type": "uint8"
        }
      ],
      "name": "Initialized",
      "type": "event"
    },
    {
      "inputs": [],
      "name": "getBalance",
      "outputs": [
        {
          "internalType": "uint256",
          "name": "",
          "type": "uint256"
        }
      ],
      "stateMutability": "view",
      "type": "function"
    },
    {
      "inputs": [],
      "name": "getToken",
      "outputs": [
        {
          "internalType": "contract IERC20",
          "name": "",
          "type": "address"
        }
      ],
      "stateMutability": "view",
      "type": "function"
    },
    {
      "inputs": [
        {
          "internalType": "address",
          "name": "to",
          "type": "address"
        },
        {
          "internalType": "uint256",
          "name": "amount",
          "type": "uint256"
        }
      ],
      "name": "transferFrom",
      "outputs": [
        {
          "internalType": "bool",
          "name": "",
          "type": "bool"
        }
      ],
      "stateMutability": "nonpayable",
      "type": "function"
    },
    {
      "inputs": [
        {
          "internalType": "address",
          "name": "from",
          "type": "address"
        },
        {
          "internalType": "uint256",
          "name": "amount",
          "type": "uint256"
        }
      ],
      "name": "transferTo",
      "outputs": [
        {
          "internalType": "bool",
          "name": "",
          "type": "bool"
        }
      ],
      "stateMutability": "nonpayable",
      "type": "function"
    },
    {
      "inputs": [
        {
          "internalType": "contract IERC20",
          "name": "token",
          "type": "address"
        }
      ],
      "name": "__Wallet_init",
      "outputs": [],
      "stateMutability": "nonpayable",
      "type": "function"
    },
    {
      "inputs": [
        {
          "internalType": "uint8",
          "name": "",
          "type": "uint8"
        }
      ],
      "name": "getTVTLLicencePrice",
      "outputs": [
        {
          "internalType": "uint256",
          "name": "",
          "type": "uint256"
        }
      ],
      "stateMutability": "pure",
      "type": "function"
    },
    {
      "inputs": [],
      "name": "getUserUsernameChangingFee",
      "outputs": [
        {
          "internalType": "uint256",
          "name": "",
          "type": "uint256"
        }
      ],
      "stateMutability": "pure",
      "type": "function"
    }
  ],
  "bytecode": "0x608060405234801561001057600080fd5b5061057a806100206000396000f3fe608060405234801561001057600080fd5b506004361061007d5760003560e01c80632ccb1b301161005b5780632ccb1b30146100db578063493ff004146100ee578063d1a5408e14610103578063dfd5738a1461011757600080fd5b806301c6adc31461008257806312065fe0146100aa57806321df0da7146100c0575b600080fd5b6100956100903660046103ef565b61011e565b60405190151581526020015b60405180910390f35b6100b26101ad565b6040519081526020016100a1565b6033546040516001600160a01b0390911681526020016100a1565b6100956100e93660046103ef565b61022e565b6101016100fc36600461043d565b61026e565b005b6100b2610111366004610473565b50600190565b60016100b2565b60335460405163a9059cbb60e01b81526001600160a01b03848116600483015260248201849052600092169063a9059cbb906044015b602060405180830381600087803b15801561016e57600080fd5b505af1158015610182573d6000803e3d6000fd5b505050506040513d601f19601f820116820180604052508101906101a6919061041b565b9392505050565b6033546040516370a0823160e01b81523060048201526000916001600160a01b0316906370a082319060240160206040518083038186803b1580156101f157600080fd5b505afa158015610205573d6000803e3d6000fd5b505050506040513d601f19601f82011682018060405250810190610229919061045a565b905090565b6033546040516323b872dd60e01b81526001600160a01b0384811660048301523060248301526044820184905260009216906323b872dd90606401610154565b600061027a60016102e5565b90508015610292576000805461ff0019166101001790555b61029b82610376565b80156102e1576000805461ff0019169055604051600181527f7f26b83ff96e1f2b6a682f133852f6798a09c465da95921460cefb38474024989060200160405180910390a15b5050565b60008054610100900460ff1615610335578160ff1660011480156103085750303b155b61032d5760405162461bcd60e51b815260040161032490610496565b60405180910390fd5b506000919050565b60005460ff80841691161061035c5760405162461bcd60e51b815260040161032490610496565b506000805460ff191660ff92909216919091179055600190565b600054610100900460ff1661039d5760405162461bcd60e51b8152600401610324906104e4565b6103a56103c6565b603380546001600160a01b0319166001600160a01b03831617905550565b50565b600054610100900460ff166103ed5760405162461bcd60e51b8152600401610324906104e4565b565b6000806040838503121561040257600080fd5b823561040d8161052f565b946020939093013593505050565b60006020828403121561042d57600080fd5b815180151581146101a657600080fd5b60006020828403121561044f57600080fd5b81356101a68161052f565b60006020828403121561046c57600080fd5b5051919050565b60006020828403121561048557600080fd5b813560ff811681146101a657600080fd5b6020808252602e908201527f496e697469616c697a61626c653a20636f6e747261637420697320616c72656160408201526d191e481a5b9a5d1a585b1a5e995960921b606082015260800190565b6020808252602b908201527f496e697469616c697a61626c653a20636f6e7472616374206973206e6f74206960408201526a6e697469616c697a696e6760a81b606082015260800190565b6001600160a01b03811681146103c357600080fdfea26469706673582212205f685df708cb0493af94c7ca48a59681131c7e7a8697fd5e50ddf5eae5c8327264736f6c63430008070033",
  "immutableReferences": {},
  "source": "// SPDX-License-Identifier: MIT\npragma solidity 0.8.7;\n\nimport \"@openzeppelin/contracts-upgradeable/proxy/utils/Initializable.sol\";\nimport \"@openzeppelin/contracts-upgradeable/utils/ContextUpgradeable.sol\";\n\nimport \"./BankAccountUpgradeable.sol\";\n\ncontract Wallet is Initializable, BankAccountUpgradeable {\n    function __Wallet_init(IERC20 token) public initializer {\n        __BankAccount_init(token);\n    }\n\n    function getTVTLLicencePrice(uint8) public pure returns (uint256) {\n        return 1;\n    }\n\n    function getUserUsernameChangingFee() public pure returns (uint256) {\n        return 1;\n    }\n}\n",
  "sourcePath": "/Users/ievgencherkaskyi/Projects/tivan/hexagons/contracts/Wallet.sol",
  "compiler": {
    "name": "solc",
    "version": "0.8.7+commit.e28d00a7.Emscripten.clang"
  },
  "schemaVersion": "3.3.3",
  "updatedAt": "2022-07-11T22:06:52.827Z",
  "devdoc": {
    "kind": "dev",
    "methods": {},
    "version": 1
  },
  "userdoc": {
    "kind": "user",
    "methods": {},
    "version": 1
  }
}