{
  "contractName": "Wallet",
  "abi": [
    {
      "anonymous": false,
      "inputs": [
        {
          "indexed": false,
          "internalType": "uint8",
          "name": "version",
          "type": "uint8"
        }
      ],
      "name": "Initialized",
      "type": "event"
    },
    {
      "anonymous": false,
      "inputs": [
        {
          "indexed": true,
          "internalType": "address",
          "name": "previousOwner",
          "type": "address"
        },
        {
          "indexed": true,
          "internalType": "address",
          "name": "newOwner",
          "type": "address"
        }
      ],
      "name": "OwnershipTransferred",
      "type": "event"
    },
    {
      "inputs": [
        {
          "components": [
            {
              "internalType": "uint256",
              "name": "performance",
              "type": "uint256"
            },
            {
              "internalType": "uint256",
              "name": "period",
              "type": "uint256"
            },
            {
              "internalType": "uint256",
              "name": "price",
              "type": "uint256"
            },
            {
              "internalType": "uint8",
              "name": "purpose",
              "type": "uint8"
            }
          ],
          "internalType": "struct Landlord.License[]",
          "name": "licenses",
          "type": "tuple[]"
        },
        {
          "components": [
            {
              "internalType": "uint256",
              "name": "period",
              "type": "uint256"
            },
            {
              "internalType": "uint256",
              "name": "price",
              "type": "uint256"
            }
          ],
          "internalType": "struct Landlord.Rent[]",
          "name": "rents",
          "type": "tuple[]"
        }
      ],
      "name": "__WalletLandlord_init",
      "outputs": [],
      "stateMutability": "nonpayable",
      "type": "function"
    },
    {
      "inputs": [],
      "name": "__WalletUser_init",
      "outputs": [],
      "stateMutability": "nonpayable",
      "type": "function"
    },
    {
      "inputs": [],
      "name": "getBalance",
      "outputs": [
        {
          "internalType": "uint256",
          "name": "",
          "type": "uint256"
        }
      ],
      "stateMutability": "view",
      "type": "function",
      "constant": true
    },
    {
      "inputs": [
        {
          "internalType": "uint8",
          "name": "licenseId",
          "type": "uint8"
        }
      ],
      "name": "getLandlordLicense",
      "outputs": [
        {
          "components": [
            {
              "internalType": "uint256",
              "name": "performance",
              "type": "uint256"
            },
            {
              "internalType": "uint256",
              "name": "period",
              "type": "uint256"
            },
            {
              "internalType": "uint256",
              "name": "price",
              "type": "uint256"
            },
            {
              "internalType": "uint8",
              "name": "purpose",
              "type": "uint8"
            }
          ],
          "internalType": "struct Landlord.License",
          "name": "",
          "type": "tuple"
        }
      ],
      "stateMutability": "view",
      "type": "function",
      "constant": true
    },
    {
      "inputs": [],
      "name": "getLandlordLicenses",
      "outputs": [
        {
          "components": [
            {
              "internalType": "uint256",
              "name": "performance",
              "type": "uint256"
            },
            {
              "internalType": "uint256",
              "name": "period",
              "type": "uint256"
            },
            {
              "internalType": "uint256",
              "name": "price",
              "type": "uint256"
            },
            {
              "internalType": "uint8",
              "name": "purpose",
              "type": "uint8"
            }
          ],
          "internalType": "struct Landlord.License[]",
          "name": "",
          "type": "tuple[]"
        }
      ],
      "stateMutability": "view",
      "type": "function",
      "constant": true
    },
    {
      "inputs": [
        {
          "internalType": "uint256",
          "name": "rentId",
          "type": "uint256"
        }
      ],
      "name": "getLandlordRent",
      "outputs": [
        {
          "components": [
            {
              "internalType": "uint256",
              "name": "period",
              "type": "uint256"
            },
            {
              "internalType": "uint256",
              "name": "price",
              "type": "uint256"
            }
          ],
          "internalType": "struct Landlord.Rent",
          "name": "",
          "type": "tuple"
        }
      ],
      "stateMutability": "view",
      "type": "function",
      "constant": true
    },
    {
      "inputs": [],
      "name": "getLandlordRents",
      "outputs": [
        {
          "components": [
            {
              "internalType": "uint256",
              "name": "period",
              "type": "uint256"
            },
            {
              "internalType": "uint256",
              "name": "price",
              "type": "uint256"
            }
          ],
          "internalType": "struct Landlord.Rent[]",
          "name": "",
          "type": "tuple[]"
        }
      ],
      "stateMutability": "view",
      "type": "function",
      "constant": true
    },
    {
      "inputs": [],
      "name": "getToken",
      "outputs": [
        {
          "internalType": "contract IERC20",
          "name": "",
          "type": "address"
        }
      ],
      "stateMutability": "view",
      "type": "function",
      "constant": true
    },
    {
      "inputs": [],
      "name": "getUserSetUsernamePrice",
      "outputs": [
        {
          "internalType": "uint256",
          "name": "",
          "type": "uint256"
        }
      ],
      "stateMutability": "pure",
      "type": "function",
      "constant": true
    },
    {
      "inputs": [],
      "name": "owner",
      "outputs": [
        {
          "internalType": "address",
          "name": "",
          "type": "address"
        }
      ],
      "stateMutability": "view",
      "type": "function",
      "constant": true
    },
    {
      "inputs": [],
      "name": "renounceOwnership",
      "outputs": [],
      "stateMutability": "nonpayable",
      "type": "function"
    },
    {
      "inputs": [
        {
          "components": [
            {
              "internalType": "uint256",
              "name": "performance",
              "type": "uint256"
            },
            {
              "internalType": "uint256",
              "name": "period",
              "type": "uint256"
            },
            {
              "internalType": "uint256",
              "name": "price",
              "type": "uint256"
            },
            {
              "internalType": "uint8",
              "name": "purpose",
              "type": "uint8"
            }
          ],
          "internalType": "struct Landlord.License[]",
          "name": "licenses",
          "type": "tuple[]"
        }
      ],
      "name": "setLandlordLicenses",
      "outputs": [],
      "stateMutability": "nonpayable",
      "type": "function"
    },
    {
      "inputs": [
        {
          "components": [
            {
              "internalType": "uint256",
              "name": "period",
              "type": "uint256"
            },
            {
              "internalType": "uint256",
              "name": "price",
              "type": "uint256"
            }
          ],
          "internalType": "struct Landlord.Rent[]",
          "name": "rents",
          "type": "tuple[]"
        }
      ],
      "name": "setLandlordRents",
      "outputs": [],
      "stateMutability": "nonpayable",
      "type": "function"
    },
    {
      "inputs": [
        {
          "internalType": "address",
          "name": "to",
          "type": "address"
        },
        {
          "internalType": "uint256",
          "name": "amount",
          "type": "uint256"
        }
      ],
      "name": "transferFrom",
      "outputs": [
        {
          "internalType": "bool",
          "name": "",
          "type": "bool"
        }
      ],
      "stateMutability": "nonpayable",
      "type": "function"
    },
    {
      "inputs": [
        {
          "internalType": "address",
          "name": "newOwner",
          "type": "address"
        }
      ],
      "name": "transferOwnership",
      "outputs": [],
      "stateMutability": "nonpayable",
      "type": "function"
    },
    {
      "inputs": [
        {
          "internalType": "address",
          "name": "from",
          "type": "address"
        },
        {
          "internalType": "uint256",
          "name": "amount",
          "type": "uint256"
        }
      ],
      "name": "transferTo",
      "outputs": [
        {
          "internalType": "bool",
          "name": "",
          "type": "bool"
        }
      ],
      "stateMutability": "nonpayable",
      "type": "function"
    },
    {
      "inputs": [
        {
          "internalType": "contract IERC20",
          "name": "token",
          "type": "address"
        },
        {
          "components": [
            {
              "internalType": "uint256",
              "name": "performance",
              "type": "uint256"
            },
            {
              "internalType": "uint256",
              "name": "period",
              "type": "uint256"
            },
            {
              "internalType": "uint256",
              "name": "price",
              "type": "uint256"
            },
            {
              "internalType": "uint8",
              "name": "purpose",
              "type": "uint8"
            }
          ],
          "internalType": "struct Landlord.License[]",
          "name": "licenses",
          "type": "tuple[]"
        },
        {
          "components": [
            {
              "internalType": "uint256",
              "name": "period",
              "type": "uint256"
            },
            {
              "internalType": "uint256",
              "name": "price",
              "type": "uint256"
            }
          ],
          "internalType": "struct Landlord.Rent[]",
          "name": "rents",
          "type": "tuple[]"
        }
      ],
      "name": "__Wallet_init",
      "outputs": [],
      "stateMutability": "nonpayable",
      "type": "function"
    }
  ],
  "bytecode": "0x608060405234801561001057600080fd5b5061121b806100206000396000f3fe608060405234801561001057600080fd5b506004361061010b5760003560e01c8063890baeb0116100a2578063988ab3e811610071578063988ab3e8146102185780639dc7ef4614610238578063b02c83081461024b578063b3fa45ca14610253578063f2fde38b1461026657600080fd5b8063890baeb0146101cd5780638c05cbe3146101e05780638da5cb5b14610200578063929971231461021157600080fd5b80632ccb1b30116100de5780632ccb1b301461018857806369d2a99f1461019b578063715018a6146101b05780638343f8ee146101b857600080fd5b806301c6adc31461011057806312065fe01461013857806321df0da71461014e5780632adf756014610173575b600080fd5b61012361011e366004610d12565b610279565b60405190151581526020015b60405180910390f35b61014061030a565b60405190815260200161012f565b6033546001600160a01b03165b6040516001600160a01b03909116815260200161012f565b61017b61038b565b60405161012f9190610ef9565b610123610196366004610d12565b61040f565b6101ae6101a9366004610ddf565b61044f565b005b6101ae6104f9565b6101c061052f565b60405161012f9190610f6b565b6101ae6101db366004610e36565b610599565b6101f36101ee366004610eac565b610624565b60405161012f91906110be565b6034546001600160a01b031661015b565b6001610140565b61022b610226366004610ede565b61067f565b60405161012f9190611090565b6101ae610246366004610d3e565b61070d565b6101ae6107d5565b6101ae610261366004610d7b565b61084a565b6101ae610274366004610cee565b6108d3565b60335460405163a9059cbb60e01b81526001600160a01b03848116600483015260248201849052600092169063a9059cbb906044015b602060405180830381600087803b1580156102c957600080fd5b505af11580156102dd573d6000803e3d6000fd5b505050506040513d601f19601f820116820180604052508101906103019190610e14565b90505b92915050565b6033546040516370a0823160e01b81523060048201526000916001600160a01b0316906370a082319060240160206040518083038186803b15801561034e57600080fd5b505afa158015610362573d6000803e3d6000fd5b505050506040513d601f19601f820116820180604052508101906103869190610ec5565b905090565b60606066805480602002602001604051908101604052809291908181526020016000905b82821015610406576000848152602090819020604080516080810182526004860290920180548352600180820154848601526002820154928401929092526003015460ff16606083015290835290920191016103af565b50505050905090565b6033546040516323b872dd60e01b81526001600160a01b0384811660048301523060248301526044820184905260009216906323b872dd906064016102af565b6034546001600160a01b031633146104825760405162461bcd60e51b815260040161047990611010565b60405180910390fd5b61048e60676000610b19565b60005b81518160ff1610156104f5576067828260ff16815181106104b4576104b46111a4565b6020908102919091018101518254600181810185556000948552938390208251600290920201908155910151910155806104ed81611176565b915050610491565b5050565b6034546001600160a01b031633146105235760405162461bcd60e51b815260040161047990611010565b61052d6000610967565b565b60606067805480602002602001604051908101604052809291908181526020016000905b8282101561040657838290600052602060002090600202016040518060400160405290816000820154815260200160018201548152505081526020019060010190610553565b60006105a560016109b9565b905080156105bd576000805461ff0019166101001790555b6105c684610a46565b6105d0838361084a565b6105d86107d5565b801561061e576000805461ff0019169055604051600181527f7f26b83ff96e1f2b6a682f133852f6798a09c465da95921460cefb38474024989060200160405180910390a15b50505050565b60408051808201909152600080825260208201526067828154811061064b5761064b6111a4565b9060005260206000209060020201604051806040016040529081600082015481526020016001820154815250509050919050565b6106ad6040518060800160405280600081526020016000815260200160008152602001600060ff1681525090565b60668260ff16815481106106c3576106c36111a4565b60009182526020918290206040805160808101825260049093029091018054835260018101549383019390935260028301549082015260039091015460ff16606082015292915050565b6034546001600160a01b031633146107375760405162461bcd60e51b815260040161047990611010565b61074360666000610b3a565b60005b81518160ff1610156104f5576066828260ff1681518110610769576107696111a4565b60209081029190910181015182546001808201855560009485529383902082516004909202019081559181015192820192909255604082015160028201556060909101516003909101805460ff191660ff909216919091179055806107cd81611176565b915050610746565b60006107e160016109b9565b905080156107f9576000805461ff0019166101001790555b610801610a93565b8015610847576000805461ff0019169055604051600181527f7f26b83ff96e1f2b6a682f133852f6798a09c465da95921460cefb38474024989060200160405180910390a15b50565b600061085660016109b9565b9050801561086e576000805461ff0019166101001790555b610876610a93565b61087f8361070d565b6108888261044f565b80156108ce576000805461ff0019169055604051600181527f7f26b83ff96e1f2b6a682f133852f6798a09c465da95921460cefb38474024989060200160405180910390a15b505050565b6034546001600160a01b031633146108fd5760405162461bcd60e51b815260040161047990611010565b6001600160a01b0381166109625760405162461bcd60e51b815260206004820152602660248201527f4f776e61626c653a206e6577206f776e657220697320746865207a65726f206160448201526564647265737360d01b6064820152608401610479565b610847815b603480546001600160a01b038381166001600160a01b0319831681179093556040519116919082907f8be0079c531659141344cd1fd0a4f28419497f9722a3daafe3b4186f6b6457e090600090a35050565b60008054610100900460ff1615610a00578160ff1660011480156109dc5750303b155b6109f85760405162461bcd60e51b815260040161047990610fc2565b506000919050565b60005460ff808416911610610a275760405162461bcd60e51b815260040161047990610fc2565b506000805460ff191660ff92909216919091179055600190565b919050565b600054610100900460ff16610a6d5760405162461bcd60e51b815260040161047990611045565b610a75610ac2565b603380546001600160a01b0319166001600160a01b03831617905550565b600054610100900460ff16610aba5760405162461bcd60e51b815260040161047990611045565b61052d610ae9565b600054610100900460ff1661052d5760405162461bcd60e51b815260040161047990611045565b600054610100900460ff16610b105760405162461bcd60e51b815260040161047990611045565b61052d33610967565b50805460008255600202906000526020600020908101906108479190610b5b565b50805460008255600402906000526020600020908101906108479190610b7a565b5b80821115610b765760008082556001820155600201610b5c565b5090565b5b80821115610b7657600080825560018201819055600282015560038101805460ff19169055600401610b7b565b600082601f830112610bb957600080fd5b81356020610bce610bc983611152565b611121565b80838252828201915082860187848660071b8901011115610bee57600080fd5b6000805b86811015610c4c57608080848c031215610c0a578283fd5b610c126110d5565b843581528785013588820152604080860135908201526060610c35818701610cdd565b908201528652948601949290920191600101610bf2565b509198975050505050505050565b600082601f830112610c6b57600080fd5b81356020610c7b610bc983611152565b80838252828201915082860187848660061b8901011115610c9b57600080fd5b6000805b86811015610c4c57604080848c031215610cb7578283fd5b610cbf6110fe565b84358152878501358882015286529486019490920191600101610c9f565b803560ff81168114610a4157600080fd5b600060208284031215610d0057600080fd5b8135610d0b816111d0565b9392505050565b60008060408385031215610d2557600080fd5b8235610d30816111d0565b946020939093013593505050565b600060208284031215610d5057600080fd5b813567ffffffffffffffff811115610d6757600080fd5b610d7384828501610ba8565b949350505050565b60008060408385031215610d8e57600080fd5b823567ffffffffffffffff80821115610da657600080fd5b610db286838701610ba8565b93506020850135915080821115610dc857600080fd5b50610dd585828601610c5a565b9150509250929050565b600060208284031215610df157600080fd5b813567ffffffffffffffff811115610e0857600080fd5b610d7384828501610c5a565b600060208284031215610e2657600080fd5b81518015158114610d0b57600080fd5b600080600060608486031215610e4b57600080fd5b8335610e56816111d0565b9250602084013567ffffffffffffffff80821115610e7357600080fd5b610e7f87838801610ba8565b93506040860135915080821115610e9557600080fd5b50610ea286828701610c5a565b9150509250925092565b600060208284031215610ebe57600080fd5b5035919050565b600060208284031215610ed757600080fd5b5051919050565b600060208284031215610ef057600080fd5b61030182610cdd565b6020808252825182820181905260009190848201906040850190845b81811015610f5f57610f4c83855180518252602081015160208301526040810151604083015260ff60608201511660608301525050565b9284019260809290920191600101610f15565b50909695505050505050565b602080825282518282018190526000919060409081850190868401855b82811015610fb557610fa584835180518252602090810151910152565b9284019290850190600101610f88565b5091979650505050505050565b6020808252602e908201527f496e697469616c697a61626c653a20636f6e747261637420697320616c72656160408201526d191e481a5b9a5d1a585b1a5e995960921b606082015260800190565b6020808252818101527f4f776e61626c653a2063616c6c6572206973206e6f7420746865206f776e6572604082015260600190565b6020808252602b908201527f496e697469616c697a61626c653a20636f6e7472616374206973206e6f74206960408201526a6e697469616c697a696e6760a81b606082015260800190565b81518152602080830151908201526040808301519082015260608083015160ff169082015260808101610304565b815181526020808301519082015260408101610304565b6040516080810167ffffffffffffffff811182821017156110f8576110f86111ba565b60405290565b6040805190810167ffffffffffffffff811182821017156110f8576110f86111ba565b604051601f8201601f1916810167ffffffffffffffff8111828210171561114a5761114a6111ba565b604052919050565b600067ffffffffffffffff82111561116c5761116c6111ba565b5060051b60200190565b600060ff821660ff81141561119b57634e487b7160e01b600052601160045260246000fd5b60010192915050565b634e487b7160e01b600052603260045260246000fd5b634e487b7160e01b600052604160045260246000fd5b6001600160a01b038116811461084757600080fdfea26469706673582212208e8c6d88e58ae33b9865fdd028d69edc7b0a3e051254ff5cb7ccc368058a2a6a64736f6c63430008070033",
  "immutableReferences": {},
  "source": "// SPDX-License-Identifier: MIT\npragma solidity 0.8.7;\n\nimport \"@openzeppelin/contracts-upgradeable/access/OwnableUpgradeable.sol\";\nimport \"@openzeppelin/contracts-upgradeable/proxy/utils/Initializable.sol\";\n\nimport \"../BankAccountUpgradeable.sol\";\n\nimport \"./WalletLandlord.sol\";\nimport \"./WalletUser.sol\";\n\ncontract Wallet is\n    Initializable,\n    BankAccountUpgradeable,\n    WalletLandlord,\n    WalletUser\n{\n    function __Wallet_init(\n        IERC20 token,\n        Landlord.License[] memory licenses,\n        Landlord.Rent[] memory rents\n    ) public initializer {\n        __BankAccount_init(token);\n        __WalletLandlord_init(licenses, rents);\n        __WalletUser_init();\n    }\n}\n",
  "sourcePath": "/Users/ievgencherkaskyi/Projects/tivan/hexagons/contracts/Wallet/Wallet.sol",
  "compiler": {
    "name": "solc",
    "version": "0.8.7+commit.e28d00a7.Emscripten.clang"
  },
  "schemaVersion": "3.3.3",
  "updatedAt": "2022-07-19T17:43:06.284Z",
  "networkType": "ethereum",
  "devdoc": {
    "kind": "dev",
    "methods": {
      "owner()": {
        "details": "Returns the address of the current owner."
      },
      "renounceOwnership()": {
        "details": "Leaves the contract without owner. It will not be possible to call `onlyOwner` functions anymore. Can only be called by the current owner. NOTE: Renouncing ownership will leave the contract without an owner, thereby removing any functionality that is only available to the owner."
      },
      "transferOwnership(address)": {
        "details": "Transfers ownership of the contract to a new account (`newOwner`). Can only be called by the current owner."
      }
    },
    "version": 1
  },
  "userdoc": {
    "kind": "user",
    "methods": {},
    "version": 1
  }
}