{
  "contractName": "Wallet",
  "abi": [
    {
      "anonymous": false,
      "inputs": [
        {
          "indexed": false,
          "internalType": "uint8",
          "name": "version",
          "type": "uint8"
        }
      ],
      "name": "Initialized",
      "type": "event"
    },
    {
      "anonymous": false,
      "inputs": [
        {
          "indexed": true,
          "internalType": "address",
          "name": "previousOwner",
          "type": "address"
        },
        {
          "indexed": true,
          "internalType": "address",
          "name": "newOwner",
          "type": "address"
        }
      ],
      "name": "OwnershipTransferred",
      "type": "event"
    },
    {
      "inputs": [
        {
          "components": [
            {
              "internalType": "uint256",
              "name": "performance",
              "type": "uint256"
            },
            {
              "internalType": "uint256",
              "name": "period",
              "type": "uint256"
            },
            {
              "internalType": "uint256",
              "name": "price",
              "type": "uint256"
            },
            {
              "internalType": "uint8",
              "name": "purpose",
              "type": "uint8"
            }
          ],
          "internalType": "struct Landlord.LicenseParams[]",
          "name": "licensesParams",
          "type": "tuple[]"
        },
        {
          "components": [
            {
              "internalType": "uint256",
              "name": "period",
              "type": "uint256"
            },
            {
              "internalType": "uint256",
              "name": "price",
              "type": "uint256"
            }
          ],
          "internalType": "struct Landlord.RentParams[]",
          "name": "rentsParams",
          "type": "tuple[]"
        }
      ],
      "name": "__WalletLandlord_init",
      "outputs": [],
      "stateMutability": "nonpayable",
      "type": "function"
    },
    {
      "inputs": [],
      "name": "__WalletUser_init",
      "outputs": [],
      "stateMutability": "nonpayable",
      "type": "function"
    },
    {
      "inputs": [],
      "name": "getBalance",
      "outputs": [
        {
          "internalType": "uint256",
          "name": "",
          "type": "uint256"
        }
      ],
      "stateMutability": "view",
      "type": "function",
      "constant": true
    },
    {
      "inputs": [
        {
          "internalType": "uint8",
          "name": "licenseId",
          "type": "uint8"
        }
      ],
      "name": "getLandlordLicenseParams",
      "outputs": [
        {
          "components": [
            {
              "internalType": "uint256",
              "name": "performance",
              "type": "uint256"
            },
            {
              "internalType": "uint256",
              "name": "period",
              "type": "uint256"
            },
            {
              "internalType": "uint256",
              "name": "price",
              "type": "uint256"
            },
            {
              "internalType": "uint8",
              "name": "purpose",
              "type": "uint8"
            }
          ],
          "internalType": "struct Landlord.LicenseParams",
          "name": "",
          "type": "tuple"
        }
      ],
      "stateMutability": "view",
      "type": "function",
      "constant": true
    },
    {
      "inputs": [],
      "name": "getLandlordLicensesParams",
      "outputs": [
        {
          "components": [
            {
              "internalType": "uint256",
              "name": "performance",
              "type": "uint256"
            },
            {
              "internalType": "uint256",
              "name": "period",
              "type": "uint256"
            },
            {
              "internalType": "uint256",
              "name": "price",
              "type": "uint256"
            },
            {
              "internalType": "uint8",
              "name": "purpose",
              "type": "uint8"
            }
          ],
          "internalType": "struct Landlord.LicenseParams[]",
          "name": "",
          "type": "tuple[]"
        }
      ],
      "stateMutability": "view",
      "type": "function",
      "constant": true
    },
    {
      "inputs": [
        {
          "internalType": "uint256",
          "name": "rentId",
          "type": "uint256"
        }
      ],
      "name": "getLandlordRentParams",
      "outputs": [
        {
          "components": [
            {
              "internalType": "uint256",
              "name": "period",
              "type": "uint256"
            },
            {
              "internalType": "uint256",
              "name": "price",
              "type": "uint256"
            }
          ],
          "internalType": "struct Landlord.RentParams",
          "name": "",
          "type": "tuple"
        }
      ],
      "stateMutability": "view",
      "type": "function",
      "constant": true
    },
    {
      "inputs": [],
      "name": "getLandlordRentsParams",
      "outputs": [
        {
          "components": [
            {
              "internalType": "uint256",
              "name": "period",
              "type": "uint256"
            },
            {
              "internalType": "uint256",
              "name": "price",
              "type": "uint256"
            }
          ],
          "internalType": "struct Landlord.RentParams[]",
          "name": "",
          "type": "tuple[]"
        }
      ],
      "stateMutability": "view",
      "type": "function",
      "constant": true
    },
    {
      "inputs": [],
      "name": "getToken",
      "outputs": [
        {
          "internalType": "contract IERC20",
          "name": "",
          "type": "address"
        }
      ],
      "stateMutability": "view",
      "type": "function",
      "constant": true
    },
    {
      "inputs": [],
      "name": "getUserSetUsernamePrice",
      "outputs": [
        {
          "internalType": "uint256",
          "name": "",
          "type": "uint256"
        }
      ],
      "stateMutability": "pure",
      "type": "function",
      "constant": true
    },
    {
      "inputs": [],
      "name": "owner",
      "outputs": [
        {
          "internalType": "address",
          "name": "",
          "type": "address"
        }
      ],
      "stateMutability": "view",
      "type": "function",
      "constant": true
    },
    {
      "inputs": [],
      "name": "renounceOwnership",
      "outputs": [],
      "stateMutability": "nonpayable",
      "type": "function"
    },
    {
      "inputs": [
        {
          "components": [
            {
              "internalType": "uint256",
              "name": "performance",
              "type": "uint256"
            },
            {
              "internalType": "uint256",
              "name": "period",
              "type": "uint256"
            },
            {
              "internalType": "uint256",
              "name": "price",
              "type": "uint256"
            },
            {
              "internalType": "uint8",
              "name": "purpose",
              "type": "uint8"
            }
          ],
          "internalType": "struct Landlord.LicenseParams[]",
          "name": "licensesParams",
          "type": "tuple[]"
        }
      ],
      "name": "setLandlordLicensesParams",
      "outputs": [],
      "stateMutability": "nonpayable",
      "type": "function"
    },
    {
      "inputs": [
        {
          "components": [
            {
              "internalType": "uint256",
              "name": "period",
              "type": "uint256"
            },
            {
              "internalType": "uint256",
              "name": "price",
              "type": "uint256"
            }
          ],
          "internalType": "struct Landlord.RentParams[]",
          "name": "rentsParams",
          "type": "tuple[]"
        }
      ],
      "name": "setLandlordRentsParams",
      "outputs": [],
      "stateMutability": "nonpayable",
      "type": "function"
    },
    {
      "inputs": [
        {
          "internalType": "address",
          "name": "to",
          "type": "address"
        },
        {
          "internalType": "uint256",
          "name": "amount",
          "type": "uint256"
        }
      ],
      "name": "transferFrom",
      "outputs": [
        {
          "internalType": "bool",
          "name": "",
          "type": "bool"
        }
      ],
      "stateMutability": "nonpayable",
      "type": "function"
    },
    {
      "inputs": [
        {
          "internalType": "address",
          "name": "newOwner",
          "type": "address"
        }
      ],
      "name": "transferOwnership",
      "outputs": [],
      "stateMutability": "nonpayable",
      "type": "function"
    },
    {
      "inputs": [
        {
          "internalType": "address",
          "name": "from",
          "type": "address"
        },
        {
          "internalType": "uint256",
          "name": "amount",
          "type": "uint256"
        }
      ],
      "name": "transferTo",
      "outputs": [
        {
          "internalType": "bool",
          "name": "",
          "type": "bool"
        }
      ],
      "stateMutability": "nonpayable",
      "type": "function"
    },
    {
      "inputs": [
        {
          "internalType": "contract IERC20",
          "name": "token",
          "type": "address"
        },
        {
          "components": [
            {
              "internalType": "uint256",
              "name": "performance",
              "type": "uint256"
            },
            {
              "internalType": "uint256",
              "name": "period",
              "type": "uint256"
            },
            {
              "internalType": "uint256",
              "name": "price",
              "type": "uint256"
            },
            {
              "internalType": "uint8",
              "name": "purpose",
              "type": "uint8"
            }
          ],
          "internalType": "struct Landlord.LicenseParams[]",
          "name": "licensesParams",
          "type": "tuple[]"
        },
        {
          "components": [
            {
              "internalType": "uint256",
              "name": "period",
              "type": "uint256"
            },
            {
              "internalType": "uint256",
              "name": "price",
              "type": "uint256"
            }
          ],
          "internalType": "struct Landlord.RentParams[]",
          "name": "rentsParams",
          "type": "tuple[]"
        }
      ],
      "name": "__Wallet_init",
      "outputs": [],
      "stateMutability": "nonpayable",
      "type": "function"
    }
  ],
  "bytecode": "0x608060405234801561001057600080fd5b5061121e806100206000396000f3fe608060405234801561001057600080fd5b506004361061010a5760003560e01c8063715018a6116100a25780639642c3a1116100715780639642c3a114610215578063b02c830814610235578063b3fa45ca1461023d578063f2fde38b14610250578063fb305d9e1461026357600080fd5b8063715018a6146101e2578063890baeb0146101ea5780638da5cb5b146101fd578063929971231461020e57600080fd5b806321df0da7116100de57806321df0da71461018257806329108d39146101a75780632ccb1b30146101ba57806341b6ecc2146101cd57600080fd5b806233305f1461010f57806301c6adc314610124578063117f1c5b1461014c57806312065fe01461016c575b600080fd5b61012261011d366004610de2565b610278565b005b610137610132366004610d15565b610322565b60405190151581526020015b60405180910390f35b61015f61015a366004610eaf565b6103b3565b60405161014391906110c1565b61017461040e565b604051908152602001610143565b6033546001600160a01b03165b6040516001600160a01b039091168152602001610143565b6101226101b5366004610d41565b61048f565b6101376101c8366004610d15565b610557565b6101d5610597565b6040516101439190610f6e565b61012261060a565b6101226101f8366004610e39565b610640565b6034546001600160a01b031661018f565b6001610174565b610228610223366004610ee1565b6106cb565b6040516101439190611093565b610122610759565b61012261024b366004610d7e565b6107ce565b61012261025e366004610cf1565b610857565b61026b6108ef565b6040516101439190610efc565b6034546001600160a01b031633146102ab5760405162461bcd60e51b81526004016102a290611013565b60405180910390fd5b6102b760676000610b1c565b60005b81518160ff16101561031e576067828260ff16815181106102dd576102dd6111a7565b60209081029190910181015182546001818101855560009485529383902082516002909202019081559101519101558061031681611179565b9150506102ba565b5050565b60335460405163a9059cbb60e01b81526001600160a01b03848116600483015260248201849052600092169063a9059cbb906044015b602060405180830381600087803b15801561037257600080fd5b505af1158015610386573d6000803e3d6000fd5b505050506040513d601f19601f820116820180604052508101906103aa9190610e17565b90505b92915050565b6040805180820190915260008082526020820152606782815481106103da576103da6111a7565b9060005260206000209060020201604051806040016040529081600082015481526020016001820154815250509050919050565b6033546040516370a0823160e01b81523060048201526000916001600160a01b0316906370a082319060240160206040518083038186803b15801561045257600080fd5b505afa158015610466573d6000803e3d6000fd5b505050506040513d601f19601f8201168201806040525081019061048a9190610ec8565b905090565b6034546001600160a01b031633146104b95760405162461bcd60e51b81526004016102a290611013565b6104c560666000610b3d565b60005b81518160ff16101561031e576066828260ff16815181106104eb576104eb6111a7565b60209081029190910181015182546001808201855560009485529383902082516004909202019081559181015192820192909255604082015160028201556060909101516003909101805460ff191660ff9092169190911790558061054f81611179565b9150506104c8565b6033546040516323b872dd60e01b81526001600160a01b0384811660048301523060248301526044820184905260009216906323b872dd90606401610358565b60606067805480602002602001604051908101604052809291908181526020016000905b82821015610601578382906000526020600020906002020160405180604001604052908160008201548152602001600182015481525050815260200190600101906105bb565b50505050905090565b6034546001600160a01b031633146106345760405162461bcd60e51b81526004016102a290611013565b61063e600061096a565b565b600061064c60016109bc565b90508015610664576000805461ff0019166101001790555b61066d84610a49565b61067783836107ce565b61067f610759565b80156106c5576000805461ff0019169055604051600181527f7f26b83ff96e1f2b6a682f133852f6798a09c465da95921460cefb38474024989060200160405180910390a15b50505050565b6106f96040518060800160405280600081526020016000815260200160008152602001600060ff1681525090565b60668260ff168154811061070f5761070f6111a7565b60009182526020918290206040805160808101825260049093029091018054835260018101549383019390935260028301549082015260039091015460ff16606082015292915050565b600061076560016109bc565b9050801561077d576000805461ff0019166101001790555b610785610a96565b80156107cb576000805461ff0019169055604051600181527f7f26b83ff96e1f2b6a682f133852f6798a09c465da95921460cefb38474024989060200160405180910390a15b50565b60006107da60016109bc565b905080156107f2576000805461ff0019166101001790555b6107fa610a96565b6108038361048f565b61080c82610278565b8015610852576000805461ff0019169055604051600181527f7f26b83ff96e1f2b6a682f133852f6798a09c465da95921460cefb38474024989060200160405180910390a15b505050565b6034546001600160a01b031633146108815760405162461bcd60e51b81526004016102a290611013565b6001600160a01b0381166108e65760405162461bcd60e51b815260206004820152602660248201527f4f776e61626c653a206e6577206f776e657220697320746865207a65726f206160448201526564647265737360d01b60648201526084016102a2565b6107cb8161096a565b60606066805480602002602001604051908101604052809291908181526020016000905b82821015610601576000848152602090819020604080516080810182526004860290920180548352600180820154848601526002820154928401929092526003015460ff1660608301529083529092019101610913565b603480546001600160a01b038381166001600160a01b0319831681179093556040519116919082907f8be0079c531659141344cd1fd0a4f28419497f9722a3daafe3b4186f6b6457e090600090a35050565b60008054610100900460ff1615610a03578160ff1660011480156109df5750303b155b6109fb5760405162461bcd60e51b81526004016102a290610fc5565b506000919050565b60005460ff808416911610610a2a5760405162461bcd60e51b81526004016102a290610fc5565b506000805460ff191660ff92909216919091179055600190565b919050565b600054610100900460ff16610a705760405162461bcd60e51b81526004016102a290611048565b610a78610ac5565b603380546001600160a01b0319166001600160a01b03831617905550565b600054610100900460ff16610abd5760405162461bcd60e51b81526004016102a290611048565b61063e610aec565b600054610100900460ff1661063e5760405162461bcd60e51b81526004016102a290611048565b600054610100900460ff16610b135760405162461bcd60e51b81526004016102a290611048565b61063e3361096a565b50805460008255600202906000526020600020908101906107cb9190610b5e565b50805460008255600402906000526020600020908101906107cb9190610b7d565b5b80821115610b795760008082556001820155600201610b5f565b5090565b5b80821115610b7957600080825560018201819055600282015560038101805460ff19169055600401610b7e565b600082601f830112610bbc57600080fd5b81356020610bd1610bcc83611155565b611124565b80838252828201915082860187848660071b8901011115610bf157600080fd5b6000805b86811015610c4f57608080848c031215610c0d578283fd5b610c156110d8565b843581528785013588820152604080860135908201526060610c38818701610ce0565b908201528652948601949290920191600101610bf5565b509198975050505050505050565b600082601f830112610c6e57600080fd5b81356020610c7e610bcc83611155565b80838252828201915082860187848660061b8901011115610c9e57600080fd5b6000805b86811015610c4f57604080848c031215610cba578283fd5b610cc2611101565b84358152878501358882015286529486019490920191600101610ca2565b803560ff81168114610a4457600080fd5b600060208284031215610d0357600080fd5b8135610d0e816111d3565b9392505050565b60008060408385031215610d2857600080fd5b8235610d33816111d3565b946020939093013593505050565b600060208284031215610d5357600080fd5b813567ffffffffffffffff811115610d6a57600080fd5b610d7684828501610bab565b949350505050565b60008060408385031215610d9157600080fd5b823567ffffffffffffffff80821115610da957600080fd5b610db586838701610bab565b93506020850135915080821115610dcb57600080fd5b50610dd885828601610c5d565b9150509250929050565b600060208284031215610df457600080fd5b813567ffffffffffffffff811115610e0b57600080fd5b610d7684828501610c5d565b600060208284031215610e2957600080fd5b81518015158114610d0e57600080fd5b600080600060608486031215610e4e57600080fd5b8335610e59816111d3565b9250602084013567ffffffffffffffff80821115610e7657600080fd5b610e8287838801610bab565b93506040860135915080821115610e9857600080fd5b50610ea586828701610c5d565b9150509250925092565b600060208284031215610ec157600080fd5b5035919050565b600060208284031215610eda57600080fd5b5051919050565b600060208284031215610ef357600080fd5b6103aa82610ce0565b6020808252825182820181905260009190848201906040850190845b81811015610f6257610f4f83855180518252602081015160208301526040810151604083015260ff60608201511660608301525050565b9284019260809290920191600101610f18565b50909695505050505050565b602080825282518282018190526000919060409081850190868401855b82811015610fb857610fa884835180518252602090810151910152565b9284019290850190600101610f8b565b5091979650505050505050565b6020808252602e908201527f496e697469616c697a61626c653a20636f6e747261637420697320616c72656160408201526d191e481a5b9a5d1a585b1a5e995960921b606082015260800190565b6020808252818101527f4f776e61626c653a2063616c6c6572206973206e6f7420746865206f776e6572604082015260600190565b6020808252602b908201527f496e697469616c697a61626c653a20636f6e7472616374206973206e6f74206960408201526a6e697469616c697a696e6760a81b606082015260800190565b81518152602080830151908201526040808301519082015260608083015160ff1690820152608081016103ad565b8151815260208083015190820152604081016103ad565b6040516080810167ffffffffffffffff811182821017156110fb576110fb6111bd565b60405290565b6040805190810167ffffffffffffffff811182821017156110fb576110fb6111bd565b604051601f8201601f1916810167ffffffffffffffff8111828210171561114d5761114d6111bd565b604052919050565b600067ffffffffffffffff82111561116f5761116f6111bd565b5060051b60200190565b600060ff821660ff81141561119e57634e487b7160e01b600052601160045260246000fd5b60010192915050565b634e487b7160e01b600052603260045260246000fd5b634e487b7160e01b600052604160045260246000fd5b6001600160a01b03811681146107cb57600080fdfea2646970667358221220857de992887938ad45c8e03b587f6ffb58cb98a5c88d8c1045d3059400a2b85564736f6c63430008070033",
  "immutableReferences": {},
  "source": "// SPDX-License-Identifier: MIT\npragma solidity 0.8.7;\n\nimport \"@openzeppelin/contracts-upgradeable/access/OwnableUpgradeable.sol\";\nimport \"@openzeppelin/contracts-upgradeable/proxy/utils/Initializable.sol\";\n\nimport \"../BankAccountUpgradeable.sol\";\n\nimport \"./WalletLandlord.sol\";\nimport \"./WalletUser.sol\";\n\ncontract Wallet is\n    Initializable,\n    BankAccountUpgradeable,\n    WalletLandlord,\n    WalletUser\n{\n    function __Wallet_init(\n        IERC20 token,\n        Landlord.LicenseParams[] memory licensesParams,\n        Landlord.RentParams[] memory rentsParams\n    ) public initializer {\n        __BankAccount_init(token);\n        __WalletLandlord_init(licensesParams, rentsParams);\n        __WalletUser_init();\n    }\n}\n",
  "sourcePath": "/Users/ievgencherkaskyi/Projects/tivan/hexagons/contracts/Wallet/Wallet.sol",
  "compiler": {
    "name": "solc",
    "version": "0.8.7+commit.e28d00a7.Emscripten.clang"
  },
  "schemaVersion": "3.3.3",
  "updatedAt": "2022-07-19T21:28:35.935Z",
  "networkType": "ethereum",
  "devdoc": {
    "kind": "dev",
    "methods": {
      "owner()": {
        "details": "Returns the address of the current owner."
      },
      "renounceOwnership()": {
        "details": "Leaves the contract without owner. It will not be possible to call `onlyOwner` functions anymore. Can only be called by the current owner. NOTE: Renouncing ownership will leave the contract without an owner, thereby removing any functionality that is only available to the owner."
      },
      "transferOwnership(address)": {
        "details": "Transfers ownership of the contract to a new account (`newOwner`). Can only be called by the current owner."
      }
    },
    "version": 1
  },
  "userdoc": {
    "kind": "user",
    "methods": {},
    "version": 1
  }
}